{
  "address": "0x3B82B2966c1AF8de911458AfCF68C6C9960d4c11",
  "abi": [
    {
      "inputs": [
        {
          "internalType": "bytes",
          "name": "_anchors",
          "type": "bytes"
        }
      ],
      "stateMutability": "nonpayable",
      "type": "constructor"
    },
    {
      "anonymous": false,
      "inputs": [
        {
          "indexed": false,
          "internalType": "uint8",
          "name": "id",
          "type": "uint8"
        },
        {
          "indexed": false,
          "internalType": "address",
          "name": "addr",
          "type": "address"
        }
      ],
      "name": "AlgorithmUpdated",
      "type": "event"
    },
    {
      "anonymous": false,
      "inputs": [
        {
          "indexed": false,
          "internalType": "uint8",
          "name": "id",
          "type": "uint8"
        },
        {
          "indexed": false,
          "internalType": "address",
          "name": "addr",
          "type": "address"
        }
      ],
      "name": "DigestUpdated",
      "type": "event"
    },
    {
      "anonymous": false,
      "inputs": [],
      "name": "Marker",
      "type": "event"
    },
    {
      "anonymous": false,
      "inputs": [
        {
          "indexed": false,
          "internalType": "uint8",
          "name": "id",
          "type": "uint8"
        },
        {
          "indexed": false,
          "internalType": "address",
          "name": "addr",
          "type": "address"
        }
      ],
      "name": "NSEC3DigestUpdated",
      "type": "event"
    },
    {
      "anonymous": false,
      "inputs": [
        {
          "indexed": false,
          "internalType": "bytes",
          "name": "name",
          "type": "bytes"
        },
        {
          "indexed": false,
          "internalType": "bytes",
          "name": "rrset",
          "type": "bytes"
        }
      ],
      "name": "RRSetUpdated",
      "type": "event"
    },
    {
      "anonymous": false,
      "inputs": [
        {
          "indexed": false,
          "internalType": "uint256",
          "name": "t",
          "type": "uint256"
        }
      ],
      "name": "Test",
      "type": "event"
    },
    {
      "inputs": [
        {
          "internalType": "uint8",
          "name": "",
          "type": "uint8"
        }
      ],
      "name": "algorithms",
      "outputs": [
        {
          "internalType": "contract Algorithm",
          "name": "",
          "type": "address"
        }
      ],
      "stateMutability": "view",
      "type": "function"
    },
    {
      "inputs": [],
      "name": "anchors",
      "outputs": [
        {
          "internalType": "bytes",
          "name": "",
          "type": "bytes"
        }
      ],
      "stateMutability": "view",
      "type": "function"
    },
    {
      "inputs": [
        {
          "internalType": "uint16",
          "name": "deleteType",
          "type": "uint16"
        },
        {
          "internalType": "bytes",
          "name": "deleteName",
          "type": "bytes"
        },
        {
          "components": [
            {
              "internalType": "bytes",
              "name": "rrset",
              "type": "bytes"
            },
            {
              "internalType": "bytes",
              "name": "sig",
              "type": "bytes"
            }
          ],
          "internalType": "struct DNSSEC.RRSetWithSignature",
          "name": "nsec",
          "type": "tuple"
        },
        {
          "internalType": "bytes",
          "name": "proof",
          "type": "bytes"
        }
      ],
      "name": "deleteRRSet",
      "outputs": [],
      "stateMutability": "nonpayable",
      "type": "function"
    },
    {
      "inputs": [
        {
          "internalType": "uint16",
          "name": "deleteType",
          "type": "uint16"
        },
        {
          "internalType": "bytes",
          "name": "deleteName",
          "type": "bytes"
        },
        {
          "components": [
            {
              "internalType": "bytes",
              "name": "rrset",
              "type": "bytes"
            },
            {
              "internalType": "bytes",
              "name": "sig",
              "type": "bytes"
            }
          ],
          "internalType": "struct DNSSEC.RRSetWithSignature",
          "name": "closestEncloser",
          "type": "tuple"
        },
        {
          "components": [
            {
              "internalType": "bytes",
              "name": "rrset",
              "type": "bytes"
            },
            {
              "internalType": "bytes",
              "name": "sig",
              "type": "bytes"
            }
          ],
          "internalType": "struct DNSSEC.RRSetWithSignature",
          "name": "nextClosest",
          "type": "tuple"
        },
        {
          "internalType": "bytes",
          "name": "dnskey",
          "type": "bytes"
        }
      ],
      "name": "deleteRRSetNSEC3",
      "outputs": [],
      "stateMutability": "nonpayable",
      "type": "function"
    },
    {
      "inputs": [
        {
          "internalType": "uint8",
          "name": "",
          "type": "uint8"
        }
      ],
      "name": "digests",
      "outputs": [
        {
          "internalType": "contract Digest",
          "name": "",
          "type": "address"
        }
      ],
      "stateMutability": "view",
      "type": "function"
    },
    {
      "inputs": [
        {
          "internalType": "uint8",
          "name": "",
          "type": "uint8"
        }
      ],
      "name": "nsec3Digests",
      "outputs": [
        {
          "internalType": "contract NSEC3Digest",
          "name": "",
          "type": "address"
        }
      ],
      "stateMutability": "view",
      "type": "function"
    },
    {
      "inputs": [],
      "name": "owner",
      "outputs": [
        {
          "internalType": "address",
          "name": "",
          "type": "address"
        }
      ],
      "stateMutability": "view",
      "type": "function"
    },
    {
      "inputs": [
        {
          "internalType": "uint16",
          "name": "dnstype",
          "type": "uint16"
        },
        {
          "internalType": "bytes",
          "name": "name",
          "type": "bytes"
        }
      ],
      "name": "rrdata",
      "outputs": [
        {
          "internalType": "uint32",
          "name": "",
          "type": "uint32"
        },
        {
          "internalType": "uint32",
          "name": "",
          "type": "uint32"
        },
        {
          "internalType": "bytes20",
          "name": "",
          "type": "bytes20"
        }
      ],
      "stateMutability": "view",
      "type": "function"
    },
    {
      "inputs": [
        {
          "internalType": "uint8",
          "name": "id",
          "type": "uint8"
        },
        {
          "internalType": "contract Algorithm",
          "name": "algo",
          "type": "address"
        }
      ],
      "name": "setAlgorithm",
      "outputs": [],
      "stateMutability": "nonpayable",
      "type": "function"
    },
    {
      "inputs": [
        {
          "internalType": "uint8",
          "name": "id",
          "type": "uint8"
        },
        {
          "internalType": "contract Digest",
          "name": "digest",
          "type": "address"
        }
      ],
      "name": "setDigest",
      "outputs": [],
      "stateMutability": "nonpayable",
      "type": "function"
    },
    {
      "inputs": [
        {
          "internalType": "uint8",
          "name": "id",
          "type": "uint8"
        },
        {
          "internalType": "contract NSEC3Digest",
          "name": "digest",
          "type": "address"
        }
      ],
      "name": "setNSEC3Digest",
      "outputs": [],
      "stateMutability": "nonpayable",
      "type": "function"
    },
    {
      "inputs": [
        {
          "internalType": "address",
          "name": "newOwner",
          "type": "address"
        }
      ],
      "name": "setOwner",
      "outputs": [],
      "stateMutability": "nonpayable",
      "type": "function"
    },
    {
      "inputs": [
        {
          "components": [
            {
              "internalType": "bytes",
              "name": "rrset",
              "type": "bytes"
            },
            {
              "internalType": "bytes",
              "name": "sig",
              "type": "bytes"
            }
          ],
          "internalType": "struct DNSSEC.RRSetWithSignature",
          "name": "input",
          "type": "tuple"
        },
        {
          "internalType": "bytes",
          "name": "proof",
          "type": "bytes"
        }
      ],
      "name": "submitRRSet",
      "outputs": [
        {
          "internalType": "bytes",
          "name": "",
          "type": "bytes"
        }
      ],
      "stateMutability": "nonpayable",
      "type": "function"
    },
    {
      "inputs": [
        {
          "components": [
            {
              "internalType": "bytes",
              "name": "rrset",
              "type": "bytes"
            },
            {
              "internalType": "bytes",
              "name": "sig",
              "type": "bytes"
            }
          ],
          "internalType": "struct DNSSEC.RRSetWithSignature[]",
          "name": "input",
          "type": "tuple[]"
        },
        {
          "internalType": "bytes",
          "name": "_proof",
          "type": "bytes"
        }
      ],
      "name": "submitRRSets",
      "outputs": [
        {
          "internalType": "bytes",
          "name": "",
          "type": "bytes"
        }
      ],
      "stateMutability": "nonpayable",
      "type": "function"
    }
  ],
  "transactionHash": "0xd5dcdb353a6517d71f65d401b74bc2bfd069ee31f8c56d8912b569959836b241",
  "args": [
    "0x00002b000100000e1000244a5c080249aac11d7b6f6446702e54a1607371607a1a41855200fd2ce1cdde32f24e8fb500002b000100000e1000244f660802e06d44b80b8f1d39a95c0b0d7c65d08458e880409bbc683457104237c7f8ec8d00002b000100000e10000404fefdfd"
  ],
  "solcInputHash": "a50cca78b1bed5d39e9ebe70f5371ee9",
  "bytecode": "0x60806040523480156200001157600080fd5b5060405162004ca838038062004ca8833981810160405281019062000037919062000319565b33600160006101000a81548173ffffffffffffffffffffffffffffffffffffffff021916908373ffffffffffffffffffffffffffffffffffffffff160217905550806000908051906020019062000090929190620001f7565b506040518060600160405280600063ffffffff16815260200163e090bba063ffffffff1681526020016000604051620000ca91906200049c565b60405180910390206bffffffffffffffffffffffff1916815250600260007fbc36789e7a1e281436464229828f817d6612f7b477d66591ff96a9e064bcc98a81526020019081526020016000206000602b61ffff1661ffff16815260200190815260200160002060008201518160000160006101000a81548163ffffffff021916908363ffffffff16021790555060208201518160000160046101000a81548163ffffffff021916908363ffffffff16021790555060408201518160000160086101000a81548173ffffffffffffffffffffffffffffffffffffffff021916908360601c02179055509050507f55ced933cdd5a34dd03eb5d4bef19ec6ebb251dcd7a988eee0c1b9a13baaa88b6000604051620001e89190620004b5565b60405180910390a15062000698565b8280546200020590620005b4565b90600052602060002090601f01602090048101928262000229576000855562000275565b82601f106200024457805160ff191683800117855562000275565b8280016001018555821562000275579182015b828111156200027457825182559160200191906001019062000257565b5b50905062000284919062000288565b5090565b5b80821115620002a357600081600090555060010162000289565b5090565b6000620002be620002b88462000517565b620004ee565b905082815260208101848484011115620002d757600080fd5b620002e48482856200057e565b509392505050565b600082601f830112620002fe57600080fd5b815162000310848260208601620002a7565b91505092915050565b6000602082840312156200032c57600080fd5b600082015167ffffffffffffffff8111156200034757600080fd5b6200035584828501620002ec565b91505092915050565b600081546200036d81620005b4565b62000379818662000562565b94506001821660008114620003975760018114620003aa57620003e1565b60ff1983168652602086019350620003e1565b620003b5856200054d565b60005b83811015620003d957815481890152600182019150602081019050620003b8565b808801955050505b50505092915050565b60008154620003f981620005b4565b62000405818662000573565b9450600182166000811462000423576001811462000435576200046c565b60ff198316865281860193506200046c565b62000440856200054d565b60005b83811015620004645781548189015260018201915060208101905062000443565b838801955050505b50505092915050565b60006200048460018362000562565b915062000491826200068f565b602082019050919050565b6000620004aa8284620003ea565b915081905092915050565b60006040820190508181036000830152620004d08162000475565b90508181036020830152620004e681846200035e565b905092915050565b6000620004fa6200050d565b9050620005088282620005ea565b919050565b6000604051905090565b600067ffffffffffffffff8211156200053557620005346200064f565b5b62000540826200067e565b9050602081019050919050565b60008190508160005260206000209050919050565b600082825260208201905092915050565b600081905092915050565b60005b838110156200059e57808201518184015260208101905062000581565b83811115620005ae576000848401525b50505050565b60006002820490506001821680620005cd57607f821691505b60208210811415620005e457620005e362000620565b5b50919050565b620005f5826200067e565b810181811067ffffffffffffffff821117156200061757620006166200064f565b5b80604052505050565b7f4e487b7100000000000000000000000000000000000000000000000000000000600052602260045260246000fd5b7f4e487b7100000000000000000000000000000000000000000000000000000000600052604160045260246000fd5b6000601f19601f8301169050919050565b60008082015250565b61460080620006a86000396000f3fe608060405234801561001057600080fd5b50600436106100ea5760003560e01c806373cc48a61161008c57806398d35f201161006657806398d35f2014610247578063bd7ed31a14610265578063c327deef14610295578063d7b82ebe146102c5576100ea565b806373cc48a6146101dd5780638438dc041461020d5780638da5cb5b14610229576100ea565b806313af4035116100c857806313af40351461015957806328e7677d146101755780632c095cbb14610191578063435cc162146101ad576100ea565b8063020ed8d3146100ef578063087991bc1461010b5780630b1a24951461013d575b600080fd5b610109600480360381019061010491906138b8565b6102f5565b005b610125600480360381019061012091906136b5565b6103e4565b60405161013493929190613bf4565b60405180910390f35b610157600480360381019061015291906137b8565b61047b565b005b610173600480360381019061016e919061355e565b6106f2565b005b61018f600480360381019061018a91906138f4565b610790565b005b6101ab60048036038101906101a6919061370d565b61087f565b005b6101c760048036038101906101c29190613587565b6109d2565b6040516101d49190613a99565b60405180910390f35b6101f760048036038101906101f2919061388f565b610a94565b6040516102049190613b9e565b60405180910390f35b61022760048036038101906102229190613930565b610ac7565b005b610231610bb6565b60405161023e9190613a7e565b60405180910390f35b61024f610bdc565b60405161025c9190613a99565b60405180910390f35b61027f600480360381019061027a919061388f565b610c6a565b60405161028c9190613bb9565b60405180910390f35b6102af60048036038101906102aa919061388f565b610c9d565b6040516102bc9190613b83565b60405180910390f35b6102df60048036038101906102da9190613649565b610cd0565b6040516102ec9190613a99565b60405180910390f35b600160009054906101000a900473ffffffffffffffffffffffffffffffffffffffff1673ffffffffffffffffffffffffffffffffffffffff163373ffffffffffffffffffffffffffffffffffffffff161461034f57600080fd5b80600360008460ff1660ff16815260200190815260200160002060006101000a81548173ffffffffffffffffffffffffffffffffffffffff021916908373ffffffffffffffffffffffffffffffffffffffff1602179055507ff73c3c226af96b7f1ba666a21b3ceaf2be3ee6a365e3178fd9cd1eaae0075aa882826040516103d8929190613c2b565b60405180910390a15050565b6000806000806002600087876040516103fe929190613a65565b6040518091039020815260200190815260200160002060008861ffff1661ffff16815260200190815260200160002090508060000160009054906101000a900463ffffffff168160000160049054906101000a900463ffffffff168260000160089054906101000a900460601b9350935093505093509350939050565b6000600260008680519060200120815260200190815260200160002060008761ffff1661ffff16815260200190815260200160002060000160009054906101000a900463ffffffff16905060006104d28584610ce4565b90506104df818784610d95565b6104e7613159565b6000856000015151111561050d576104ff8585610ce4565b905061050c818885610d95565b5b600061051883610de2565b9050600060fe82602001511660ff161461053157600080fd5b610545602782610e2f90919063ffffffff16565b15801561057e5750610561600282610e2f90919063ffffffff16565b158061057d575061057c600682610e2f90919063ffffffff16565b5b5b61058757600080fd5b610598898985610120015184610e49565b1561062d57600260008980519060200120815260200190815260200160002060008a61ffff1661ffff168152602001908152602001600020600080820160006101000a81549063ffffffff02191690556000820160046101000a81549063ffffffff02191690556000820160086101000a81549073ffffffffffffffffffffffffffffffffffffffff021916905550506106e7565b61064c888461012001518385610120015161064787610de2565b610e83565b156106e157600260008980519060200120815260200190815260200160002060008a61ffff1661ffff168152602001908152602001600020600080820160006101000a81549063ffffffff02191690556000820160046101000a81549063ffffffff02191690556000820160086101000a81549073ffffffffffffffffffffffffffffffffffffffff021916905550506106e6565b600080fd5b5b505050505050505050565b600160009054906101000a900473ffffffffffffffffffffffffffffffffffffffff1673ffffffffffffffffffffffffffffffffffffffff163373ffffffffffffffffffffffffffffffffffffffff161461074c57600080fd5b80600160006101000a81548173ffffffffffffffffffffffffffffffffffffffff021916908373ffffffffffffffffffffffffffffffffffffffff16021790555050565b600160009054906101000a900473ffffffffffffffffffffffffffffffffffffffff1673ffffffffffffffffffffffffffffffffffffffff163373ffffffffffffffffffffffffffffffffffffffff16146107ea57600080fd5b80600460008460ff1660ff16815260200190815260200160002060006101000a81548173ffffffffffffffffffffffffffffffffffffffff021916908373ffffffffffffffffffffffffffffffffffffffff1602179055507f2fcc274c3b72dd483ab201bfa87295e3817e8b9b10693219873b722ca1af00c78282604051610873929190613c2b565b60405180910390a15050565b610887613159565b6108918383610ce4565b9050602f61ffff16816000015161ffff16146108ac57600080fd5b6109008160a00151600260008780519060200120815260200190815260200160002060008861ffff1661ffff16815260200190815260200160002060000160009054906101000a900463ffffffff16610fd6565b61090957600080fd5b600061091482610ff2565b905061091f81611011565b6109c657610934818361012001518789611027565b600260008680519060200120815260200190815260200160002060008761ffff1661ffff168152602001908152602001600020600080820160006101000a81549063ffffffff02191690556000820160046101000a81549063ffffffff02191690556000820160086101000a81549073ffffffffffffffffffffffffffffffffffffffff0219169055505050506109cc565b50600080fd5b50505050565b6060600083838080601f016020809104026020016040519081016040528093929190818152602001838380828437600081840152601f19601f82011690508083019250505050505050905060005b8551811015610a8857610a73868281518110610a65577f4e487b7100000000000000000000000000000000000000000000000000000000600052603260045260246000fd5b60200260200101518361127d565b91508080610a809061434e565b915050610a20565b50809150509392505050565b60046020528060005260406000206000915054906101000a900473ffffffffffffffffffffffffffffffffffffffff1681565b600160009054906101000a900473ffffffffffffffffffffffffffffffffffffffff1673ffffffffffffffffffffffffffffffffffffffff163373ffffffffffffffffffffffffffffffffffffffff1614610b2157600080fd5b80600560008460ff1660ff16815260200190815260200160002060006101000a81548173ffffffffffffffffffffffffffffffffffffffff021916908373ffffffffffffffffffffffffffffffffffffffff1602179055507fc7eec866a7a1386188cc3ca20ffea75b71bd3e90a60b6791b1d3f0971145118d8282604051610baa929190613c2b565b60405180910390a15050565b600160009054906101000a900473ffffffffffffffffffffffffffffffffffffffff1681565b60008054610be9906142eb565b80601f0160208091040260200160405190810160405280929190818152602001828054610c15906142eb565b8015610c625780601f10610c3757610100808354040283529160200191610c62565b820191906000526020600020905b815481529060010190602001808311610c4557829003601f168201915b505050505081565b60056020528060005260406000206000915054906101000a900473ffffffffffffffffffffffffffffffffffffffff1681565b60036020528060005260406000206000915054906101000a900473ffffffffffffffffffffffffffffffffffffffff1681565b6060610cdc838361127d565b905092915050565b610cec613159565b610cf98360000151611497565b9050610d098160e001518361161c565b610d1257600080fd5b6000610d228283600001516116bb565b9050816040015160ff16610d4060008361178c90919063ffffffff16565b14610d4a57600080fd5b80826101200181905250610d62826080015142610fd6565b610d6b57600080fd5b610d79428360a00151610fd6565b610d8257600080fd5b610d8e81838686611834565b5092915050565b610da38360a0015182610fd6565b610dac57600080fd5b603261ffff16836000015161ffff1614610dc557600080fd5b610dd483610120015183611934565b610ddd57600080fd5b505050565b610dea6131cc565b6000610df583610ff2565b9050610e278160a001518260a001518360c00151610e1391906140a3565b83600001516119d09092919063ffffffff16565b915050919050565b6000610e418360a00151600084611b78565b905092915050565b6000610e56828486611cbf565b15610e7657610e6e8583610e2f90919063ffffffff16565b159050610e7b565b600090505b949350505050565b60008060fe83602001511660ff1614610e9b57600080fd5b6000610ea686611ce9565b90506000610eb385611ce9565b90506000806001610ece60008c611d1e90919063ffffffff16565b610ed89190613d64565b60ff1690505b8951811015610fc45783610f1289610f0d84858f51610efd91906140a3565b8f611d6f9092919063ffffffff16565b611e2a565b1415610f8d576000610f4487610f3f85868f51610f2f91906140a3565b8f611d6f9092919063ffffffff16565b611e2a565b90508660800151841015610f70578381118015610f645750866080015181105b95505050505050610fcd565b83811180610f815750866080015181105b95505050505050610fcd565b8091506001610fa5828c611d1e90919063ffffffff16565b610faf9190613d64565b60ff1681610fbd9190613d0e565b9050610ede565b50600093505050505b95945050505050565b6000808284610fe5919061402b565b60030b1215905092915050565b610ffa61320f565b61100a8261010001516000611f06565b9050919050565b6000816000015151826020015110159050919050565b60008460a0015190506000611049828760000151611f3090919063ffffffff16565b905060008660a001518760c0015161106191906140a3565b905081811161106f57600080fd5b60006110848787611fd390919063ffffffff16565b905060008114156110c2576110b3838561109e9190613d0e565b868a60000151611b789092919063ffffffff16565b156110bd57600080fd5b611129565b60006110dd85858b60000151611d6f9092919063ffffffff16565b9050600082136110ec57600080fd5b6000611101828a611fd390919063ffffffff16565b121561112757600061111c8289611fd390919063ffffffff16565b1261112657600080fd5b5b505b5050505050505050565b8060c001518160200181815250508060000151518160200151106111565761127a565b600061116a82600001518360200151611f30565b82602001516111799190613d0e565b905061119281836000015161218790919063ffffffff16565b826040019061ffff16908161ffff16815250506002816111b29190613d0e565b90506111cb81836000015161218790919063ffffffff16565b826060019061ffff16908161ffff16815250506002816111eb9190613d0e565b90506112048183600001516121b690919063ffffffff16565b826080019063ffffffff16908163ffffffff16815250506004816112289190613d0e565b9050600061124382846000015161218790919063ffffffff16565b61ffff1690506002826112569190613d0e565b9150818360a0018181525050808261126e9190613d0e565b8360c001818152505050505b50565b6060611287613159565b6112918484610ce4565b90506000600260008361012001518051906020012081526020019081526020016000206000836000015161ffff1661ffff1681526020019081526020016000209050600060601b6bffffffffffffffffffffffff19168160000160089054906101000a900460601b6bffffffffffffffffffffffff1916146113395761132f8260a001518260000160009054906101000a900463ffffffff16610fd6565b61133857600080fd5b5b60405180606001604052808360a0015163ffffffff168152602001836080015163ffffffff168152602001836101000151805190602001206bffffffffffffffffffffffff1916815250600260008461012001518051906020012081526020019081526020016000206000846000015161ffff1661ffff16815260200190815260200160002060008201518160000160006101000a81548163ffffffff021916908363ffffffff16021790555060208201518160000160046101000a81548163ffffffff021916908363ffffffff16021790555060408201518160000160086101000a81548173ffffffffffffffffffffffffffffffffffffffff021916908360601c02179055509050507f55ced933cdd5a34dd03eb5d4bef19ec6ebb251dcd7a988eee0c1b9a13baaa88b82610120015183610100015160405161147f929190613abb565b60405180910390a18161010001519250505092915050565b61149f613159565b6114b360008361218790919063ffffffff16565b816000019061ffff16908161ffff16815250506114da600283611d1e90919063ffffffff16565b816020019060ff16908160ff16815250506114ff600383611d1e90919063ffffffff16565b816040019060ff16908160ff16815250506115246004836121b690919063ffffffff16565b816060019063ffffffff16908163ffffffff168152505061154f6008836121b690919063ffffffff16565b816080019063ffffffff16908163ffffffff168152505061157a600c836121b690919063ffffffff16565b8160a0019063ffffffff16908163ffffffff16815250506115a560108361218790919063ffffffff16565b8160c0019061ffff16908161ffff16815250506115c38260126121e7565b8160e0018190525061160e8160e001515160126115e09190613d0e565b8260e0015151601285516115f491906140a3565b6115fe91906140a3565b84611d6f9092919063ffffffff16565b816101000181905250919050565b600080611645611636600085611f3090919063ffffffff16565b8461218790919063ffffffff16565b905082805190602001206bffffffffffffffffffffffff1916600260008680519060200120815260200190815260200160002060008361ffff1661ffff16815260200190815260200160002060000160089054906101000a900460601b6bffffffffffffffffffffffff19161491505092915050565b606060006116c884610ff2565b90505b6116d481611011565b61178557600161ffff16816060015161ffff16146116f157600080fd5b60008251141561170b5761170481612215565b915061175f565b61172681602001518260000151611f3090919063ffffffff16565b82511461173257600080fd5b61175560008260000151836020015185518661224c90949392919063ffffffff16565b61175e57600080fd5b5b8261ffff16816040015161ffff161461177757600080fd5b61178081611133565b6116cb565b5092915050565b600080600090505b60011561182a57835183106117d2577f4e487b7100000000000000000000000000000000000000000000000000000000600052600160045260246000fd5b60006117e78486611d1e90919063ffffffff16565b60ff1690506001816117f99190613d0e565b846118049190613d0e565b93506000811415611815575061182a565b6001826118229190613d0e565b915050611794565b8091505092915050565b83518360e0015151111561184757600080fd5b6118746000858560e0015151875161185f91906140a3565b8660e00151612270909392919063ffffffff16565b61187d57600080fd5b6000611893600083611f0690919063ffffffff16565b9050602b61ffff16816040015161ffff1614156118c3576118b58484836122ab565b6118be57600080fd5b61192d565b603061ffff16816040015161ffff1614156118f1576118e3848483612354565b6118ec57600080fd5b61192c565b6040517f08c379a000000000000000000000000000000000000000000000000000000000815260040161192390613bd4565b60405180910390fd5b5b5050505050565b600080600161194d600086611d1e90919063ffffffff16565b6119579190613d64565b60ff16905060005b83518110156119c35761197f81868487612270909392919063ffffffff16565b1561198f576001925050506119ca565b60016119a48286611d1e90919063ffffffff16565b6119ae9190613d64565b60ff16816119bc9190613d0e565b905061195f565b6000925050505b92915050565b6119d86131cc565b600082846119e69190613d0e565b9050611a076000856119f89190613d0e565b86611d1e90919063ffffffff16565b826000019060ff16908160ff1681525050611a37600185611a289190613d0e565b86611d1e90919063ffffffff16565b826020019060ff16908160ff1681525050611a67600285611a589190613d0e565b8661218790919063ffffffff16565b826040019061ffff16908161ffff16815250506000611a9b600486611a8c9190613d0e565b87611d1e90919063ffffffff16565b9050600585611aaa9190613d0e565b9450611ac4858260ff1688611d6f9092919063ffffffff16565b83606001819052508060ff1685611adb9190613d0e565b94506000611af28688611d1e90919063ffffffff16565b905060208160ff161115611b0557600080fd5b600186611b129190613d0e565b9550611b2c868260ff16896124149092919063ffffffff16565b8460800181815250508060ff1686611b449190613d0e565b9550611b66868785611b5691906140a3565b89611d6f9092919063ffffffff16565b8460a001819052505050509392505050565b60008060088361ffff16901c90506000600860ff8516611b989190613d9b565b90506000600785166007611bac91906140d7565b60ff16600160ff16901b905060008690505b8751811015611caf576000611bdc828a611d1e90919063ffffffff16565b90506000611bff600184611bf09190613d0e565b8b611d1e90919063ffffffff16565b90508160ff168660ff161015611c1e5760009650505050505050611cb8565b8160ff168660ff161415611c8b578460ff168160ff1611611c485760009650505050505050611cb8565b600084611c7860028860ff1687611c5f9190613d0e565b611c699190613d0e565b8d611d1e90919063ffffffff16565b1660ff1614159650505050505050611cb8565b600281611c989190613d64565b60ff1683611ca69190613d0e565b92505050611bbe565b50600093505050505b9392505050565b600080611ccc8584611e2a565b90506000611cd985611ce9565b9050808214925050509392505050565b6000611d176001611d04600085611d1e90919063ffffffff16565b60ff168461245c9092919063ffffffff16565b9050919050565b6000828281518110611d59577f4e487b7100000000000000000000000000000000000000000000000000000000600052603260045260246000fd5b602001015160f81c60f81b60f81c905092915050565b606083518284611d7f9190613d0e565b1115611d8a57600080fd5b60008267ffffffffffffffff811115611dcc577f4e487b7100000000000000000000000000000000000000000000000000000000600052604160045260246000fd5b6040519080825280601f01601f191660200182016040528015611dfe5781602001600182028036833780820191505090505b5090506000806020830191508560208801019050611e1d828287612744565b8293505050509392505050565b600060056000846000015160ff1660ff16815260200190815260200160002060009054906101000a900473ffffffffffffffffffffffffffffffffffffffff1673ffffffffffffffffffffffffffffffffffffffff166368f9dab284606001518486604001516040518463ffffffff1660e01b8152600401611eae93929190613b3e565b60206040518083038186803b158015611ec657600080fd5b505afa158015611eda573d6000803e3d6000fd5b505050506040513d601f19601f82011682018060405250810190611efe9190613620565b905092915050565b611f0e61320f565b828160000181905250818160c0018181525050611f2a81611133565b92915050565b6000808290505b600115611fbe5783518110611f75577f4e487b7100000000000000000000000000000000000000000000000000000000600052600160045260246000fd5b6000611f8a8286611d1e90919063ffffffff16565b60ff169050600181611f9c9190613d0e565b82611fa79190613d0e565b91506000811415611fb85750611fbe565b50611f37565b8281611fca91906140a3565b91505092915050565b6000611fe882846127a890919063ffffffff16565b15611ff65760009050612181565b600080600080600061200988600061178c565b9050600061201888600061178c565b90505b808211156120455785935061203089876127cf565b9550818061203d906142c1565b92505061201b565b5b818111156120705784925061205b88866127cf565b94508080612068906142c1565b915050612046565b5b60008211801561209557506120938689878c612270909392919063ffffffff16565b155b156120cc578593506120a789876127cf565b95508492506120b688866127cf565b94506001826120c591906140a3565b9150612071565b6000861415612103577fffffffffffffffffffffffffffffffffffffffffffffffffffffffffffffffff9650505050505050612181565b600085141561211b5760019650505050505050612181565b61217860018561212b9190613d0e565b61213e868c611d1e90919063ffffffff16565b60ff168a60018761214f9190613d0e565b612162888e611d1e90919063ffffffff16565b60ff168e6128069095949392919063ffffffff16565b96505050505050505b92915050565b600082516002836121989190613d0e565b11156121a357600080fd5b61ffff8260028501015116905092915050565b600082516004836121c79190613d0e565b11156121d257600080fd5b63ffffffff8260048501015116905092915050565b606060006121f58484611f30565b905061220c838286611d6f9092919063ffffffff16565b91505092915050565b6060612245826020015161223184600001518560200151611f30565b8460000151611d6f9092919063ffffffff16565b9050919050565b600061225984848461293b565b61226487878561293b565b14905095945050505050565b6000612289838384865161228491906140a3565b61293b565b6122a0868687895161229b91906140a3565b61293b565b149050949350505050565b6000806122b785610ff2565b90505b6122c381611011565b61234757603061ffff16816040015161ffff16146122e057600080fd5b60006122eb82612967565b9050600061230660008351846129a09092919063ffffffff16565b905061231481838989612a76565b156123375761232d61232584612215565b868385612bd5565b935050505061234d565b505061234281611133565b6122ba565b50600090505b9392505050565b60006123758460e0015161236784612215565b6127a890919063ffffffff16565b61237e57600080fd5b5b61238882611011565b612408576123ab8460e0015161239d84612215565b6127a890919063ffffffff16565b6123b457600080fd5b60006123bf83612967565b905060006123da60008351846129a09092919063ffffffff16565b90506123e881838888612a76565b156123f85760019250505061240d565b505061240382611133565b61237f565b600090505b9392505050565b6000602082111561242457600080fd5b835182846124329190613d0e565b111561243d57600080fd5b6001826020036101000a03198084602087010151169150509392505050565b6000603482111561246c57600080fd5b60008080600090505b848110156125f357600087828861248c9190613d0e565b815181106124c3577f4e487b7100000000000000000000000000000000000000000000000000000000600052603260045260246000fd5b602001015160f81c60f81b9050603060f81b817effffffffffffffffffffffffffffffffffffffffffffffffffffffffffffff19161015801561252c5750607a60f81b817effffffffffffffffffffffffffffffffffffffffffffffffffffffffffffff191611155b61253557600080fd5b6040518060800160405280604781526020016145846047913960308260f81c60ff1661256191906140a3565b81518110612598577f4e487b7100000000000000000000000000000000000000000000000000000000600052603260045260246000fd5b602001015160f81c60f81b60f81c925060208360ff1611156125b957600080fd5b6001866125c691906140a3565b8214156125d357506125f3565b8260ff16600585901b1793505080806125eb9061434e565b915050612475565b5060006005856126039190613f3d565b905060006008866126149190614397565b141561262b578160ff16600584901b179250612724565b600260088661263a9190614397565b14156126675760028260ff16901c60ff16600384901b17925060028161266091906140a3565b9050612723565b60046008866126769190614397565b14156126a35760048260ff16901c60ff16600184901b17925060048161269c91906140a3565b9050612722565b60056008866126b29190614397565b14156126df5760018260ff16901c60ff16600484901b1792506001816126d891906140a3565b9050612721565b60076008866126ee9190614397565b141561271b5760038260ff16901c60ff16600284901b17925060038161271491906140a3565b9050612720565b600080fd5b5b5b5b5b8061010061273291906140a3565b83901b60001b93505050509392505050565b5b60208110612783578151835260208361275e9190613d0e565b925060208261276d9190613d0e565b915060208161277c91906140a3565b9050612745565b60006001826020036101000a0390508019835116818551168181178652505050505050565b6000815183511480156127c757506127c6836000846000875161224c565b5b905092915050565b60006127e48284611d1e90919063ffffffff16565b60ff166001836127f49190613d0e565b6127fe9190613d0e565b905092915050565b60008085905085831015612818578290505b600080602089018a019150602086018701905060005b8381101561291e5760008084519150835190508082146128ea576000602087111561287b577fffffffffffffffffffffffffffffffffffffffffffffffffffffffffffffffff90506128bb565b60018488602061288b91906140a3565b6128959190613d0e565b60086128a19190613f3d565b60026128ad9190613e1f565b6128b791906140a3565b1990505b60008183168285166128cd9190613f97565b9050600081146128e7578098505050505050505050612931565b50505b6020856128f79190613d0e565b94506020846129069190613d0e565b935050506020816129179190613d0e565b905061282e565b50848861292b9190613f97565b93505050505b9695505050505050565b60008351828461294b9190613d0e565b111561295657600080fd5b818360208601012090509392505050565b60606129998260a001518360a001518460c0015161298591906140a3565b8460000151611d6f9092919063ffffffff16565b9050919050565b6129a861325a565b6129c76000846129b89190613d0e565b8561218790919063ffffffff16565b816000019061ffff16908161ffff16815250506129f96002846129ea9190613d0e565b85611d1e90919063ffffffff16565b816020019060ff16908160ff1681525050612a29600384612a1a9190613d0e565b85611d1e90919063ffffffff16565b816040019060ff16908160ff1681525050612a67600484612a4a9190613d0e565b600484612a5791906140a3565b86611d6f9092919063ffffffff16565b81606001819052509392505050565b60006003856020015160ff1614612a905760009050612bcd565b826020015160ff16856040015160ff1614612aae5760009050612bcd565b6000612ab985612cf1565b90508360c0015161ffff168161ffff1614612ad8576000915050612bcd565b6000610100876000015161ffff16161415612af7576000915050612bcd565b60036000876040015160ff1660ff16815260200190815260200160002060009054906101000a900473ffffffffffffffffffffffffffffffffffffffff1673ffffffffffffffffffffffffffffffffffffffff1663de8f50a186856000015186602001516040518463ffffffff1660e01b8152600401612b7993929190613af2565b60206040518083038186803b158015612b9157600080fd5b505afa158015612ba5573d6000803e3d6000fd5b505050506040513d601f19601f82011682018060405250810190612bc991906135f7565b9150505b949350505050565b600080612be183612cf1565b90505b612bed85611011565b612ce3576000612c238660a001518760a001518860c00151612c0f91906140a3565b8860000151612d829092919063ffffffff16565b90508161ffff16816000015161ffff1614612c3e5750612cd5565b846040015160ff16816020015160ff1614612c595750612cd5565b612c6161328c565b612c8185518951612c729190613d0e565b82612e5890919063ffffffff16565b50612c958882612ec290919063ffffffff16565b50612ca98582612ec290919063ffffffff16565b50612cc1826040015182600001518460600151612ee4565b15612cd25760019350505050612ce9565b50505b612cde85611133565b612be4565b60009150505b949350505050565b60008060005b8351811015612d695760006001821614612d2657612d1e8185611d1e90919063ffffffff16565b60ff16612d45565b6008612d3b8286611d1e90919063ffffffff16565b60ff1661ffff16901b5b61ffff1682612d549190613d0e565b91508080612d619061434e565b915050612cf7565b50601081901c81612d7a9190613d0e565b915050919050565b612d8a6132a6565b612da9600084612d9a9190613d0e565b8561218790919063ffffffff16565b816000019061ffff16908161ffff1681525050612ddb600284612dcc9190613d0e565b85611d1e90919063ffffffff16565b816020019060ff16908160ff1681525050612e0b600384612dfc9190613d0e565b85611d1e90919063ffffffff16565b816040019060ff16908160ff1681525050612e49600484612e2c9190613d0e565b600484612e3991906140a3565b86611d6f9092919063ffffffff16565b81606001819052509392505050565b612e6061328c565b6000602083612e6f9190614397565b14612e9b57602082612e819190614397565b6020612e8d91906140a3565b82612e989190613d0e565b91505b81836020018181525050604051808452600081528281016020016040525082905092915050565b612eca61328c565b612edc8384600001515184855161302a565b905092915050565b60008073ffffffffffffffffffffffffffffffffffffffff16600460008660ff1660ff16815260200190815260200160002060009054906101000a900473ffffffffffffffffffffffffffffffffffffffff1673ffffffffffffffffffffffffffffffffffffffff161415612f5c5760009050613023565b600460008560ff1660ff16815260200190815260200160002060009054906101000a900473ffffffffffffffffffffffffffffffffffffffff1673ffffffffffffffffffffffffffffffffffffffff1663f7e83aee84846040518363ffffffff1660e01b8152600401612fd0929190613abb565b60206040518083038186803b158015612fe857600080fd5b505afa158015612ffc573d6000803e3d6000fd5b505050506040513d601f19601f8201168201806040525081019061302091906135f7565b90505b9392505050565b61303261328c565b825182111561304057600080fd5b846020015182856130519190613d0e565b111561308657613085856002613076886020015188876130719190613d0e565b613119565b6130809190613f3d565b613135565b5b6000808651805187602083010193508088870111156130a55787860182525b60208701925050505b602084106130ec57805182526020826130c79190613d0e565b91506020816130d69190613d0e565b90506020846130e591906140a3565b93506130ae565b60006001856020036101000a03905080198251168184511681811785525050508692505050949350505050565b60008183111561312b5782905061312f565b8190505b92915050565b6000826000015190506131488383612e58565b506131538382612ec2565b50505050565b604051806101400160405280600061ffff168152602001600060ff168152602001600060ff168152602001600063ffffffff168152602001600063ffffffff168152602001600063ffffffff168152602001600061ffff1681526020016060815260200160608152602001606081525090565b6040518060c00160405280600060ff168152602001600060ff168152602001600061ffff1681526020016060815260200160008019168152602001606081525090565b6040518060e001604052806060815260200160008152602001600061ffff168152602001600061ffff168152602001600063ffffffff16815260200160008152602001600081525090565b6040518060800160405280600061ffff168152602001600060ff168152602001600060ff168152602001606081525090565b604051806040016040528060608152602001600081525090565b6040518060800160405280600061ffff168152602001600060ff168152602001600060ff168152602001606081525090565b60006132eb6132e684613c79565b613c54565b9050808382526020820190508285602086028201111561330a57600080fd5b60005b8581101561335457813567ffffffffffffffff81111561332c57600080fd5b80860161333989826134b8565b8552602085019450602084019350505060018101905061330d565b5050509392505050565b600061337161336c84613ca5565b613c54565b90508281526020810184848401111561338957600080fd5b61339484828561427f565b509392505050565b6000813590506133ab816144cb565b92915050565b600082601f8301126133c257600080fd5b81356133d28482602086016132d8565b91505092915050565b6000815190506133ea816144e2565b92915050565b6000815190506133ff816144f9565b92915050565b60008083601f84011261341757600080fd5b8235905067ffffffffffffffff81111561343057600080fd5b60208301915083600182028301111561344857600080fd5b9250929050565b600082601f83011261346057600080fd5b813561347084826020860161335e565b91505092915050565b60008135905061348881614510565b92915050565b60008135905061349d81614527565b92915050565b6000813590506134b28161453e565b92915050565b6000604082840312156134ca57600080fd5b6134d46040613c54565b9050600082013567ffffffffffffffff8111156134f057600080fd5b6134fc8482850161344f565b600083015250602082013567ffffffffffffffff81111561351c57600080fd5b6135288482850161344f565b60208301525092915050565b60008135905061354381614555565b92915050565b6000813590506135588161456c565b92915050565b60006020828403121561357057600080fd5b600061357e8482850161339c565b91505092915050565b60008060006040848603121561359c57600080fd5b600084013567ffffffffffffffff8111156135b657600080fd5b6135c2868287016133b1565b935050602084013567ffffffffffffffff8111156135df57600080fd5b6135eb86828701613405565b92509250509250925092565b60006020828403121561360957600080fd5b6000613617848285016133db565b91505092915050565b60006020828403121561363257600080fd5b6000613640848285016133f0565b91505092915050565b6000806040838503121561365c57600080fd5b600083013567ffffffffffffffff81111561367657600080fd5b613682858286016134b8565b925050602083013567ffffffffffffffff81111561369f57600080fd5b6136ab8582860161344f565b9150509250929050565b6000806000604084860312156136ca57600080fd5b60006136d886828701613534565b935050602084013567ffffffffffffffff8111156136f557600080fd5b61370186828701613405565b92509250509250925092565b6000806000806080858703121561372357600080fd5b600061373187828801613534565b945050602085013567ffffffffffffffff81111561374e57600080fd5b61375a8782880161344f565b935050604085013567ffffffffffffffff81111561377757600080fd5b613783878288016134b8565b925050606085013567ffffffffffffffff8111156137a057600080fd5b6137ac8782880161344f565b91505092959194509250565b600080600080600060a086880312156137d057600080fd5b60006137de88828901613534565b955050602086013567ffffffffffffffff8111156137fb57600080fd5b6138078882890161344f565b945050604086013567ffffffffffffffff81111561382457600080fd5b613830888289016134b8565b935050606086013567ffffffffffffffff81111561384d57600080fd5b613859888289016134b8565b925050608086013567ffffffffffffffff81111561387657600080fd5b6138828882890161344f565b9150509295509295909350565b6000602082840312156138a157600080fd5b60006138af84828501613549565b91505092915050565b600080604083850312156138cb57600080fd5b60006138d985828601613549565b92505060206138ea85828601613479565b9150509250929050565b6000806040838503121561390757600080fd5b600061391585828601613549565b92505060206139268582860161348e565b9150509250929050565b6000806040838503121561394357600080fd5b600061395185828601613549565b9250506020613962858286016134a3565b9150509250929050565b6139758161410b565b82525050565b61398481614129565b82525050565b60006139968385613cf2565b93506139a383858461427f565b82840190509392505050565b60006139ba82613cd6565b6139c48185613ce1565b93506139d481856020860161428e565b6139dd81614484565b840191505092915050565b6139f181614201565b82525050565b613a0081614225565b82525050565b613a0f81614249565b82525050565b6000613a22601483613cfd565b9150613a2d826144a2565b602082019050919050565b613a418161426d565b82525050565b613a50816141e4565b82525050565b613a5f816141f4565b82525050565b6000613a7282848661398a565b91508190509392505050565b6000602082019050613a93600083018461396c565b92915050565b60006020820190508181036000830152613ab381846139af565b905092915050565b60006040820190508181036000830152613ad581856139af565b90508181036020830152613ae981846139af565b90509392505050565b60006060820190508181036000830152613b0c81866139af565b90508181036020830152613b2081856139af565b90508181036040830152613b3481846139af565b9050949350505050565b60006060820190508181036000830152613b5881866139af565b90508181036020830152613b6c81856139af565b9050613b7b6040830184613a38565b949350505050565b6000602082019050613b9860008301846139e8565b92915050565b6000602082019050613bb360008301846139f7565b92915050565b6000602082019050613bce6000830184613a06565b92915050565b60006020820190508181036000830152613bed81613a15565b9050919050565b6000606082019050613c096000830186613a47565b613c166020830185613a47565b613c23604083018461397b565b949350505050565b6000604082019050613c406000830185613a56565b613c4d602083018461396c565b9392505050565b6000613c5e613c6f565b9050613c6a828261431d565b919050565b6000604051905090565b600067ffffffffffffffff821115613c9457613c93614455565b5b602082029050602081019050919050565b600067ffffffffffffffff821115613cc057613cbf614455565b5b613cc982614484565b9050602081019050919050565b600081519050919050565b600082825260208201905092915050565b600081905092915050565b600082825260208201905092915050565b6000613d19826141da565b9150613d24836141da565b9250827fffffffffffffffffffffffffffffffffffffffffffffffffffffffffffffffff03821115613d5957613d586143c8565b5b828201905092915050565b6000613d6f826141f4565b9150613d7a836141f4565b92508260ff03821115613d9057613d8f6143c8565b5b828201905092915050565b6000613da6826141ac565b9150613db1836141ac565b925082613dc157613dc06143f7565b5b828204905092915050565b6000808291508390505b6001851115613e1657808604811115613df257613df16143c8565b5b6001851615613e015780820291505b8081029050613e0f85614495565b9450613dd6565b94509492505050565b6000613e2a826141da565b9150613e35836141da565b9250613e627fffffffffffffffffffffffffffffffffffffffffffffffffffffffffffffffff8484613e6a565b905092915050565b600082613e7a5760019050613f36565b81613e885760009050613f36565b8160018114613e9e5760028114613ea857613ed7565b6001915050613f36565b60ff841115613eba57613eb96143c8565b5b8360020a915084821115613ed157613ed06143c8565b5b50613f36565b5060208310610133831016604e8410600b8410161715613f0c5782820a905083811115613f0757613f066143c8565b5b613f36565b613f198484846001613dcc565b92509050818404811115613f3057613f2f6143c8565b5b81810290505b9392505050565b6000613f48826141da565b9150613f53836141da565b9250817fffffffffffffffffffffffffffffffffffffffffffffffffffffffffffffffff0483118215151615613f8c57613f8b6143c8565b5b828202905092915050565b6000613fa282614195565b9150613fad83614195565b9250827f800000000000000000000000000000000000000000000000000000000000000001821260008412151615613fe857613fe76143c8565b5b827f7fffffffffffffffffffffffffffffffffffffffffffffffffffffffffffffff0182136000841216156140205761401f6143c8565b5b828203905092915050565b60006140368261419f565b91506140418361419f565b9250827fffffffffffffffffffffffffffffffffffffffffffffffffffffffff800000000182126000841215161561407c5761407b6143c8565b5b82637fffffff018213600084121615614098576140976143c8565b5b828203905092915050565b60006140ae826141da565b91506140b9836141da565b9250828210156140cc576140cb6143c8565b5b828203905092915050565b60006140e2826141f4565b91506140ed836141f4565b925082821015614100576140ff6143c8565b5b828203905092915050565b6000614116826141ba565b9050919050565b60008115159050919050565b60007fffffffffffffffffffffffffffffffffffffffff00000000000000000000000082169050919050565b6000819050919050565b600061416a8261410b565b9050919050565b600061417c8261410b565b9050919050565b600061418e8261410b565b9050919050565b6000819050919050565b60008160030b9050919050565b600061ffff82169050919050565b600073ffffffffffffffffffffffffffffffffffffffff82169050919050565b6000819050919050565b600063ffffffff82169050919050565b600060ff82169050919050565b600061420c82614213565b9050919050565b600061421e826141ba565b9050919050565b600061423082614237565b9050919050565b6000614242826141ba565b9050919050565b60006142548261425b565b9050919050565b6000614266826141ba565b9050919050565b6000614278826141ac565b9050919050565b82818337600083830152505050565b60005b838110156142ac578082015181840152602081019050614291565b838111156142bb576000848401525b50505050565b60006142cc826141da565b915060008214156142e0576142df6143c8565b5b600182039050919050565b6000600282049050600182168061430357607f821691505b6020821081141561431757614316614426565b5b50919050565b61432682614484565b810181811067ffffffffffffffff8211171561434557614344614455565b5b80604052505050565b6000614359826141da565b91507fffffffffffffffffffffffffffffffffffffffffffffffffffffffffffffffff82141561438c5761438b6143c8565b5b600182019050919050565b60006143a2826141da565b91506143ad836141da565b9250826143bd576143bc6143f7565b5b828206905092915050565b7f4e487b7100000000000000000000000000000000000000000000000000000000600052601160045260246000fd5b7f4e487b7100000000000000000000000000000000000000000000000000000000600052601260045260246000fd5b7f4e487b7100000000000000000000000000000000000000000000000000000000600052602260045260246000fd5b7f4e487b7100000000000000000000000000000000000000000000000000000000600052604160045260246000fd5b6000601f19601f8301169050919050565b60008160011c9050919050565b7f4e6f2076616c69642070726f6f6620666f756e64000000000000000000000000600082015250565b6144d48161410b565b81146144df57600080fd5b50565b6144eb8161411d565b81146144f657600080fd5b50565b61450281614155565b811461450d57600080fd5b50565b6145198161415f565b811461452457600080fd5b50565b61453081614171565b811461453b57600080fd5b50565b61454781614183565b811461455257600080fd5b50565b61455e816141ac565b811461456957600080fd5b50565b614575816141f4565b811461458057600080fd5b5056fe00010203040506070809ffffffffffffff0a0b0c0d0e0f101112131415161718191a1b1c1d1e1fffffffffffffffffffff0a0b0c0d0e0f101112131415161718191a1b1c1d1e1fa2646970667358221220314597b560176ae49402e3189186466454792f635f28b73d934b787c7988aaae64736f6c63430008040033",
  "devdoc": {
    "kind": "dev",
    "methods": {
      "constructor": {
        "details": "Constructor.",
        "params": {
          "_anchors": "The binary format RR entries for the root DS records."
        }
      },
      "deleteRRSet(uint16,bytes,(bytes,bytes),bytes)": {
        "details": "Deletes an RR from the oracle.",
        "params": {
          "deleteName": "which you want to delete",
          "deleteType": "The DNS record type to delete.",
          "nsec": "The signed NSEC RRset. This is in the format described in section        5.3.2 of RFC4035: The RRDATA section from the RRSIG without the signature        data, followed by a series of canonicalised RR records that the signature        applies to."
        }
      },
      "deleteRRSetNSEC3(uint16,bytes,(bytes,bytes),(bytes,bytes),bytes)": {
        "details": "Deletes an RR from the oracle using an NSEC3 proof.      Deleting a record using NSEC3 requires using up to two NSEC3 records. There are two cases:       1. The name exists, but the record type doesn't. Eg, example.com has A records but no TXT records.       2. The name does not exist, but a parent name does.      In the first case, we submit one NSEC3 proof in `closestEncloser` that matches the target name      but does not have the bit for `deleteType` set in its type bitmap. In the second case, we submit      two proofs: closestEncloser and nextClosest, that together prove that the name does not exist.      NSEC3 records are in the format described in section 5.3.2 of RFC4035: The RRDATA section      from the RRSIG without the signature data, followed by a series of canonicalised RR records      that the signature applies to.",
        "params": {
          "closestEncloser": "An NSEC3 proof matching the closest enclosing name - that is,        the nearest ancestor of the target name that *does* exist.",
          "deleteName": "The name to delete.",
          "deleteType": "The DNS record type to delete.",
          "dnskey": "An encoded DNSKEY record that has already been submitted to the oracle and can be used        to verify the signatures closestEncloserSig and nextClosestSig",
          "nextClosest": "An NSEC3 proof covering the next closest name. This proves that the immediate        subdomain of the closestEncloser does not exist."
        }
      },
      "rrdata(uint16,bytes)": {
        "details": "Returns data about the RRs (if any) known to this oracle with the provided type and name.",
        "params": {
          "dnstype": "The DNS record type to query.",
          "name": "The name to query, in DNS label-sequence format."
        },
        "returns": {
          "_0": "inception The unix timestamp (wrapped) at which the signature for this RRSET was created.",
          "_1": "expiration The unix timestamp (wrapped) at which the signature for this RRSET expires.",
          "_2": "hash The hash of the RRset."
        }
      },
      "setAlgorithm(uint8,address)": {
        "details": "Sets the contract address for a signature verification algorithm.      Callable only by the owner.",
        "params": {
          "algo": "The address of the algorithm contract.",
          "id": "The algorithm ID"
        }
      },
      "setDigest(uint8,address)": {
        "details": "Sets the contract address for a digest verification algorithm.      Callable only by the owner.",
        "params": {
          "digest": "The address of the digest contract.",
          "id": "The digest ID"
        }
      },
      "setNSEC3Digest(uint8,address)": {
        "details": "Sets the contract address for an NSEC3 digest algorithm.      Callable only by the owner.",
        "params": {
          "digest": "The address of the digest contract.",
          "id": "The digest ID"
        }
      },
      "submitRRSet((bytes,bytes),bytes)": {
        "details": "Submits a signed set of RRs to the oracle. RRSETs are only accepted if they are signed with a key that is already trusted, or if they are self-signed, and the signing key is identified by a DS record that is already trusted.",
        "params": {
          "input": "The signed RR set. This is in the format described in section        5.3.2 of RFC4035: The RRDATA section from the RRSIG without the signature        data, followed by a series of canonicalised RR records that the signature        applies to.",
          "proof": "The DNSKEY or DS to validate the signature against. Must Already        have been submitted and proved previously."
        }
      },
      "submitRRSets((bytes,bytes)[],bytes)": {
        "details": "Submits multiple RRSets",
        "params": {
          "_proof": "The DNSKEY or DS to validate the first signature against.",
          "input": "A list of RRSets and signatures forming a chain of trust from an existing known-good record."
        },
        "returns": {
          "_0": "The last RRSET submitted."
        }
      }
    },
    "version": 1
  },
  "userdoc": {
    "kind": "user",
    "methods": {},
    "version": 1
  },
  "storageLayout": {
    "storage": [
      {
        "astId": 4101,
        "contract": "contracts/dnssec-oracle/DNSSECImpl.sol:DNSSECImpl",
        "label": "anchors",
        "offset": 0,
        "slot": "0",
        "type": "t_bytes_storage"
      },
      {
        "astId": 5998,
        "contract": "contracts/dnssec-oracle/DNSSECImpl.sol:DNSSECImpl",
        "label": "owner",
        "offset": 0,
        "slot": "1",
        "type": "t_address"
      },
      {
        "astId": 4266,
        "contract": "contracts/dnssec-oracle/DNSSECImpl.sol:DNSSECImpl",
        "label": "rrsets",
        "offset": 0,
        "slot": "2",
        "type": "t_mapping(t_bytes32,t_mapping(t_uint16,t_struct(RRSet)4259_storage))"
      },
      {
        "astId": 4271,
        "contract": "contracts/dnssec-oracle/DNSSECImpl.sol:DNSSECImpl",
        "label": "algorithms",
        "offset": 0,
        "slot": "3",
        "type": "t_mapping(t_uint8,t_contract(Algorithm)7221)"
      },
      {
        "astId": 4276,
        "contract": "contracts/dnssec-oracle/DNSSECImpl.sol:DNSSECImpl",
        "label": "digests",
        "offset": 0,
        "slot": "4",
        "type": "t_mapping(t_uint8,t_contract(Digest)9101)"
      },
      {
        "astId": 4281,
        "contract": "contracts/dnssec-oracle/DNSSECImpl.sol:DNSSECImpl",
        "label": "nsec3Digests",
        "offset": 0,
        "slot": "5",
        "type": "t_mapping(t_uint8,t_contract(NSEC3Digest)9207)"
      }
    ],
    "types": {
      "t_address": {
        "encoding": "inplace",
        "label": "address",
        "numberOfBytes": "20"
      },
      "t_bytes20": {
        "encoding": "inplace",
        "label": "bytes20",
        "numberOfBytes": "20"
      },
      "t_bytes32": {
        "encoding": "inplace",
        "label": "bytes32",
        "numberOfBytes": "32"
      },
      "t_bytes_storage": {
        "encoding": "bytes",
        "label": "bytes",
        "numberOfBytes": "32"
      },
      "t_contract(Algorithm)7221": {
        "encoding": "inplace",
        "label": "contract Algorithm",
        "numberOfBytes": "20"
      },
      "t_contract(Digest)9101": {
        "encoding": "inplace",
        "label": "contract Digest",
        "numberOfBytes": "20"
      },
      "t_contract(NSEC3Digest)9207": {
        "encoding": "inplace",
        "label": "contract NSEC3Digest",
        "numberOfBytes": "20"
      },
      "t_mapping(t_bytes32,t_mapping(t_uint16,t_struct(RRSet)4259_storage))": {
        "encoding": "mapping",
        "key": "t_bytes32",
        "label": "mapping(bytes32 => mapping(uint16 => struct DNSSECImpl.RRSet))",
        "numberOfBytes": "32",
        "value": "t_mapping(t_uint16,t_struct(RRSet)4259_storage)"
      },
      "t_mapping(t_uint16,t_struct(RRSet)4259_storage)": {
        "encoding": "mapping",
        "key": "t_uint16",
        "label": "mapping(uint16 => struct DNSSECImpl.RRSet)",
        "numberOfBytes": "32",
        "value": "t_struct(RRSet)4259_storage"
      },
      "t_mapping(t_uint8,t_contract(Algorithm)7221)": {
        "encoding": "mapping",
        "key": "t_uint8",
        "label": "mapping(uint8 => contract Algorithm)",
        "numberOfBytes": "32",
        "value": "t_contract(Algorithm)7221"
      },
      "t_mapping(t_uint8,t_contract(Digest)9101)": {
        "encoding": "mapping",
        "key": "t_uint8",
        "label": "mapping(uint8 => contract Digest)",
        "numberOfBytes": "32",
        "value": "t_contract(Digest)9101"
      },
      "t_mapping(t_uint8,t_contract(NSEC3Digest)9207)": {
        "encoding": "mapping",
        "key": "t_uint8",
        "label": "mapping(uint8 => contract NSEC3Digest)",
        "numberOfBytes": "32",
        "value": "t_contract(NSEC3Digest)9207"
      },
      "t_struct(RRSet)4259_storage": {
        "encoding": "inplace",
        "label": "struct DNSSECImpl.RRSet",
        "members": [
          {
            "astId": 4254,
            "contract": "contracts/dnssec-oracle/DNSSECImpl.sol:DNSSECImpl",
            "label": "inception",
            "offset": 0,
            "slot": "0",
            "type": "t_uint32"
          },
          {
            "astId": 4256,
            "contract": "contracts/dnssec-oracle/DNSSECImpl.sol:DNSSECImpl",
            "label": "expiration",
            "offset": 4,
            "slot": "0",
            "type": "t_uint32"
          },
          {
            "astId": 4258,
            "contract": "contracts/dnssec-oracle/DNSSECImpl.sol:DNSSECImpl",
            "label": "hash",
            "offset": 8,
            "slot": "0",
            "type": "t_bytes20"
          }
        ],
        "numberOfBytes": "32"
      },
      "t_uint16": {
        "encoding": "inplace",
        "label": "uint16",
        "numberOfBytes": "2"
      },
      "t_uint32": {
        "encoding": "inplace",
        "label": "uint32",
        "numberOfBytes": "4"
      },
      "t_uint8": {
        "encoding": "inplace",
        "label": "uint8",
        "numberOfBytes": "1"
      }
    }
  }
}