{
  "address": "0xa5627AB7Ae47063B533622C34FEBDb52d3281dF8",
  "abi": [
    {
      "inputs": [
        {
          "internalType": "contract BaseRegistrarImplementation",
          "name": "_base",
          "type": "address"
        },
        {
          "internalType": "contract IPriceOracle",
          "name": "_prices",
          "type": "address"
        },
        {
          "internalType": "uint256",
          "name": "_minCommitmentAge",
          "type": "uint256"
        },
        {
          "internalType": "uint256",
          "name": "_maxCommitmentAge",
          "type": "uint256"
        },
        {
          "internalType": "contract ReverseRegistrar",
          "name": "_reverseRegistrar",
          "type": "address"
        },
        {
          "internalType": "contract INameWrapper",
          "name": "_nameWrapper",
          "type": "address"
        }
      ],
      "stateMutability": "nonpayable",
      "type": "constructor"
    },
    {
      "inputs": [
        {
          "internalType": "bytes32",
          "name": "commitment",
          "type": "bytes32"
        }
      ],
      "name": "CommitmentTooNew",
      "type": "error"
    },
    {
      "inputs": [
        {
          "internalType": "bytes32",
          "name": "commitment",
          "type": "bytes32"
        }
      ],
      "name": "CommitmentTooOld",
      "type": "error"
    },
    {
      "inputs": [
        {
          "internalType": "uint256",
          "name": "duration",
          "type": "uint256"
        }
      ],
      "name": "DurationTooShort",
      "type": "error"
    },
    {
      "inputs": [],
      "name": "InsufficientValue",
      "type": "error"
    },
    {
      "inputs": [],
      "name": "MaxCommitmentAgeTooHigh",
      "type": "error"
    },
    {
      "inputs": [],
      "name": "MaxCommitmentAgeTooLow",
      "type": "error"
    },
    {
      "inputs": [
        {
          "internalType": "string",
          "name": "name",
          "type": "string"
        }
      ],
      "name": "NameNotAvailable",
      "type": "error"
    },
    {
      "inputs": [],
      "name": "ResolverRequiredWhenDataSupplied",
      "type": "error"
    },
    {
      "inputs": [
        {
          "internalType": "bytes32",
          "name": "node",
          "type": "bytes32"
        }
      ],
      "name": "Unauthorised",
      "type": "error"
    },
    {
      "inputs": [
        {
          "internalType": "bytes32",
          "name": "commitment",
          "type": "bytes32"
        }
      ],
      "name": "UnexpiredCommitmentExists",
      "type": "error"
    },
    {
      "anonymous": false,
      "inputs": [
        {
          "indexed": false,
          "internalType": "string",
          "name": "name",
          "type": "string"
        },
        {
          "indexed": true,
          "internalType": "bytes32",
          "name": "label",
          "type": "bytes32"
        },
        {
          "indexed": true,
          "internalType": "address",
          "name": "owner",
          "type": "address"
        },
        {
          "indexed": false,
          "internalType": "uint256",
          "name": "baseCost",
          "type": "uint256"
        },
        {
          "indexed": false,
          "internalType": "uint256",
          "name": "premium",
          "type": "uint256"
        },
        {
          "indexed": false,
          "internalType": "uint256",
          "name": "expires",
          "type": "uint256"
        }
      ],
      "name": "NameRegistered",
      "type": "event"
    },
    {
      "anonymous": false,
      "inputs": [
        {
          "indexed": false,
          "internalType": "string",
          "name": "name",
          "type": "string"
        },
        {
          "indexed": true,
          "internalType": "bytes32",
          "name": "label",
          "type": "bytes32"
        },
        {
          "indexed": false,
          "internalType": "uint256",
          "name": "cost",
          "type": "uint256"
        },
        {
          "indexed": false,
          "internalType": "uint256",
          "name": "expires",
          "type": "uint256"
        }
      ],
      "name": "NameRenewed",
      "type": "event"
    },
    {
      "anonymous": false,
      "inputs": [
        {
          "indexed": true,
          "internalType": "address",
          "name": "previousOwner",
          "type": "address"
        },
        {
          "indexed": true,
          "internalType": "address",
          "name": "newOwner",
          "type": "address"
        }
      ],
      "name": "OwnershipTransferred",
      "type": "event"
    },
    {
      "inputs": [],
      "name": "MIN_REGISTRATION_DURATION",
      "outputs": [
        {
          "internalType": "uint256",
          "name": "",
          "type": "uint256"
        }
      ],
      "stateMutability": "view",
      "type": "function"
    },
    {
      "inputs": [
        {
          "internalType": "string",
          "name": "name",
          "type": "string"
        }
      ],
      "name": "available",
      "outputs": [
        {
          "internalType": "bool",
          "name": "",
          "type": "bool"
        }
      ],
      "stateMutability": "view",
      "type": "function"
    },
    {
      "inputs": [
        {
          "internalType": "bytes32",
          "name": "commitment",
          "type": "bytes32"
        }
      ],
      "name": "commit",
      "outputs": [],
      "stateMutability": "nonpayable",
      "type": "function"
    },
    {
      "inputs": [
        {
          "internalType": "bytes32",
          "name": "",
          "type": "bytes32"
        }
      ],
      "name": "commitments",
      "outputs": [
        {
          "internalType": "uint256",
          "name": "",
          "type": "uint256"
        }
      ],
      "stateMutability": "view",
      "type": "function"
    },
    {
      "inputs": [
        {
          "internalType": "string",
          "name": "name",
          "type": "string"
        },
        {
          "internalType": "address",
          "name": "owner",
          "type": "address"
        },
        {
          "internalType": "uint256",
          "name": "duration",
          "type": "uint256"
        },
        {
          "internalType": "bytes32",
          "name": "secret",
          "type": "bytes32"
        },
        {
          "internalType": "address",
          "name": "resolver",
          "type": "address"
        },
        {
          "internalType": "bytes[]",
          "name": "data",
          "type": "bytes[]"
        },
        {
          "internalType": "bool",
          "name": "reverseRecord",
          "type": "bool"
        },
        {
          "internalType": "uint32",
          "name": "fuses",
          "type": "uint32"
        },
        {
          "internalType": "uint64",
          "name": "wrapperExpiry",
          "type": "uint64"
        }
      ],
      "name": "makeCommitment",
      "outputs": [
        {
          "internalType": "bytes32",
          "name": "",
          "type": "bytes32"
        }
      ],
      "stateMutability": "pure",
      "type": "function"
    },
    {
      "inputs": [],
      "name": "maxCommitmentAge",
      "outputs": [
        {
          "internalType": "uint256",
          "name": "",
          "type": "uint256"
        }
      ],
      "stateMutability": "view",
      "type": "function"
    },
    {
      "inputs": [],
      "name": "minCommitmentAge",
      "outputs": [
        {
          "internalType": "uint256",
          "name": "",
          "type": "uint256"
        }
      ],
      "stateMutability": "view",
      "type": "function"
    },
    {
      "inputs": [],
      "name": "nameWrapper",
      "outputs": [
        {
          "internalType": "contract INameWrapper",
          "name": "",
          "type": "address"
        }
      ],
      "stateMutability": "view",
      "type": "function"
    },
    {
      "inputs": [],
      "name": "owner",
      "outputs": [
        {
          "internalType": "address",
          "name": "",
          "type": "address"
        }
      ],
      "stateMutability": "view",
      "type": "function"
    },
    {
      "inputs": [],
      "name": "prices",
      "outputs": [
        {
          "internalType": "contract IPriceOracle",
          "name": "",
          "type": "address"
        }
      ],
      "stateMutability": "view",
      "type": "function"
    },
    {
      "inputs": [
        {
          "internalType": "address",
          "name": "_token",
          "type": "address"
        },
        {
          "internalType": "address",
          "name": "_to",
          "type": "address"
        },
        {
          "internalType": "uint256",
          "name": "_amount",
          "type": "uint256"
        }
      ],
      "name": "recoverFunds",
      "outputs": [],
      "stateMutability": "nonpayable",
      "type": "function"
    },
    {
      "inputs": [
        {
          "internalType": "string",
          "name": "name",
          "type": "string"
        },
        {
          "internalType": "address",
          "name": "owner",
          "type": "address"
        },
        {
          "internalType": "uint256",
          "name": "duration",
          "type": "uint256"
        },
        {
          "internalType": "bytes32",
          "name": "secret",
          "type": "bytes32"
        },
        {
          "internalType": "address",
          "name": "resolver",
          "type": "address"
        },
        {
          "internalType": "bytes[]",
          "name": "data",
          "type": "bytes[]"
        },
        {
          "internalType": "bool",
          "name": "reverseRecord",
          "type": "bool"
        },
        {
          "internalType": "uint32",
          "name": "fuses",
          "type": "uint32"
        },
        {
          "internalType": "uint64",
          "name": "wrapperExpiry",
          "type": "uint64"
        }
      ],
      "name": "register",
      "outputs": [],
      "stateMutability": "payable",
      "type": "function"
    },
    {
      "inputs": [
        {
          "internalType": "string",
          "name": "name",
          "type": "string"
        },
        {
          "internalType": "uint256",
          "name": "duration",
          "type": "uint256"
        }
      ],
      "name": "renew",
      "outputs": [],
      "stateMutability": "payable",
      "type": "function"
    },
    {
      "inputs": [
        {
          "internalType": "string",
          "name": "name",
          "type": "string"
        },
        {
          "internalType": "uint256",
          "name": "duration",
          "type": "uint256"
        },
        {
          "internalType": "uint32",
          "name": "fuses",
          "type": "uint32"
        },
        {
          "internalType": "uint64",
          "name": "wrapperExpiry",
          "type": "uint64"
        }
      ],
      "name": "renewWithFuses",
      "outputs": [],
      "stateMutability": "payable",
      "type": "function"
    },
    {
      "inputs": [],
      "name": "renounceOwnership",
      "outputs": [],
      "stateMutability": "nonpayable",
      "type": "function"
    },
    {
      "inputs": [
        {
          "internalType": "string",
          "name": "name",
          "type": "string"
        },
        {
          "internalType": "uint256",
          "name": "duration",
          "type": "uint256"
        }
      ],
      "name": "rentPrice",
      "outputs": [
        {
          "components": [
            {
              "internalType": "uint256",
              "name": "base",
              "type": "uint256"
            },
            {
              "internalType": "uint256",
              "name": "premium",
              "type": "uint256"
            }
          ],
          "internalType": "struct IPriceOracle.Price",
          "name": "price",
          "type": "tuple"
        }
      ],
      "stateMutability": "view",
      "type": "function"
    },
    {
      "inputs": [],
      "name": "reverseRegistrar",
      "outputs": [
        {
          "internalType": "contract ReverseRegistrar",
          "name": "",
          "type": "address"
        }
      ],
      "stateMutability": "view",
      "type": "function"
    },
    {
      "inputs": [
        {
          "internalType": "bytes4",
          "name": "interfaceID",
          "type": "bytes4"
        }
      ],
      "name": "supportsInterface",
      "outputs": [
        {
          "internalType": "bool",
          "name": "",
          "type": "bool"
        }
      ],
      "stateMutability": "pure",
      "type": "function"
    },
    {
      "inputs": [
        {
          "internalType": "address",
          "name": "newOwner",
          "type": "address"
        }
      ],
      "name": "transferOwnership",
      "outputs": [],
      "stateMutability": "nonpayable",
      "type": "function"
    },
    {
      "inputs": [
        {
          "internalType": "string",
          "name": "name",
          "type": "string"
        }
      ],
      "name": "valid",
      "outputs": [
        {
          "internalType": "bool",
          "name": "",
          "type": "bool"
        }
      ],
      "stateMutability": "pure",
      "type": "function"
    },
    {
      "inputs": [],
      "name": "withdraw",
      "outputs": [],
      "stateMutability": "nonpayable",
      "type": "function"
    }
  ],
  "transactionHash": "0x70ee666425d9c7d10a68c03c9aae371af027ecd3b9503a3ac39bd9efc248797d",
  "args": [
    "0x57f1887a8BF19b14fC0dF6Fd9B2acc9Af147eA85",
    "0x0e765d28FABf9E219770CAb07D64967451026bD7",
    60,
    86400,
    "0x806246b52f8cB61655d3038c58D2f63Aa55d4edE",
    "0xF82155e2a43Be0871821E9654Fc8Ae894FB8307C"
  ],
  "numDeployments": 2,
  "solcInputHash": "e0f6f00faee6ee60a1220d91a962cdaa",
  "bytecode": "0x6101406040523480156200001257600080fd5b50604051620027783803806200277883398101604081905262000035916200011a565b6200004033620000b1565b83831162000061576040516307cb550760e31b815260040160405180910390fd5b428311156200008357604051630b4319e560e21b815260040160405180910390fd5b6001600160a01b0395861660805293851660a05260c09290925260e052821661010052166101205262000197565b600080546001600160a01b038381166001600160a01b0319831681178455604051919092169283917f8be0079c531659141344cd1fd0a4f28419497f9722a3daafe3b4186f6b6457e09190a35050565b6001600160a01b03811681146200011757600080fd5b50565b60008060008060008060c087890312156200013457600080fd5b8651620001418162000101565b6020880151909650620001548162000101565b8095505060408701519350606087015192506080870151620001768162000101565b60a0880151909250620001898162000101565b809150509295509295509295565b60805160a05160c05160e0516101005161012051612544620002346000396000818161038d0152818161074f015281816109e4015281816111bc015261129301526000818161022801526117410152600081816103f401528181610f03015261156901526000818161030e01526114f20152600081816104280152610c30015260008181610c7201528181610db7015261135201526125446000f3fe60806040526004361061016a5760003560e01c80638d839ffe116100cb578063aeb8ce9b1161007f578063d555254a11610059578063d555254a1461044a578063f14fcbc81461046a578063f2fde38b1461048a57600080fd5b8063aeb8ce9b146103c2578063ce1e09c0146103e2578063d3419bf31461041657600080fd5b80639791c097116100b05780639791c0971461035b578063a8e5fbc01461037b578063acf1a841146103af57600080fd5b80638d839ffe146102fc5780638da5cb5b1461033057600080fd5b80637acaaf2611610122578063839df94511610107578063839df9451461026f57806383e7f6ff146102aa5780638a95b09f146102e557600080fd5b80637acaaf2614610203578063808698531461021657600080fd5b80635d3590d5116101535780635d3590d5146101bb5780636459220f146101db578063715018a6146101ee57600080fd5b806301ffc9a71461016f5780633ccfd60b146101a4575b600080fd5b34801561017b57600080fd5b5061018f61018a366004611a07565b6104aa565b60405190151581526020015b60405180910390f35b3480156101b057600080fd5b506101b9610543565b005b3480156101c757600080fd5b506101b96101d6366004611a72565b61058d565b6101b96101e9366004611b23565b6106b2565b3480156101fa57600080fd5b506101b9610820565b6101b9610211366004611be4565b6108ad565b34801561022257600080fd5b5061024a7f000000000000000000000000000000000000000000000000000000000000000081565b60405173ffffffffffffffffffffffffffffffffffffffff909116815260200161019b565b34801561027b57600080fd5b5061029c61028a366004611cbd565b60016020526000908152604090205481565b60405190815260200161019b565b3480156102b657600080fd5b506102ca6102c5366004611db4565b610be6565b6040805182518152602092830151928101929092520161019b565b3480156102f157600080fd5b5061029c6224ea0081565b34801561030857600080fd5b5061029c7f000000000000000000000000000000000000000000000000000000000000000081565b34801561033c57600080fd5b5060005473ffffffffffffffffffffffffffffffffffffffff1661024a565b34801561036757600080fd5b5061018f610376366004611df9565b610d46565b34801561038757600080fd5b5061024a7f000000000000000000000000000000000000000000000000000000000000000081565b6101b96103bd366004611e2e565b610d5b565b3480156103ce57600080fd5b5061018f6103dd366004611df9565b610d6e565b3480156103ee57600080fd5b5061029c7f000000000000000000000000000000000000000000000000000000000000000081565b34801561042257600080fd5b5061024a7f000000000000000000000000000000000000000000000000000000000000000081565b34801561045657600080fd5b5061029c610465366004611e7a565b610e3e565b34801561047657600080fd5b506101b9610485366004611cbd565b610eec565b34801561049657600080fd5b506101b96104a5366004611f4d565b610f75565b60007fffffffff0000000000000000000000000000000000000000000000000000000082167f01ffc9a700000000000000000000000000000000000000000000000000000000148061053d57507fffffffff0000000000000000000000000000000000000000000000000000000082167fdf7ed18100000000000000000000000000000000000000000000000000000000145b92915050565b6000805460405173ffffffffffffffffffffffffffffffffffffffff909116914780156108fc02929091818181858888f1935050505015801561058a573d6000803e3d6000fd5b50565b60005473ffffffffffffffffffffffffffffffffffffffff163314610613576040517f08c379a000000000000000000000000000000000000000000000000000000000815260206004820181905260248201527f4f776e61626c653a2063616c6c6572206973206e6f7420746865206f776e657260448201526064015b60405180910390fd5b6040517fa9059cbb00000000000000000000000000000000000000000000000000000000815273ffffffffffffffffffffffffffffffffffffffff83811660048301526024820183905284169063a9059cbb906044016020604051808303816000875af1158015610688573d6000803e3d6000fd5b505050506040513d601f19601f820116820180604052508101906106ac9190611f68565b50505050565b600085856040516106c4929190611f85565b604080519182900382207f93cdeb708b7545dc668eb9280176169d1c33cfd8ed6f04690a0bcc88a93fc4ae6020840152908201819052915060009060600160408051808303601f190181529082905280516020909101207ff44779b90000000000000000000000000000000000000000000000000000000082526004820181905233602483015291507f000000000000000000000000000000000000000000000000000000000000000073ffffffffffffffffffffffffffffffffffffffff169063f44779b9906044016020604051808303816000875af11580156107ad573d6000803e3d6000fd5b505050506040513d601f19601f820116820180604052508101906107d19190611f68565b61080a576040517fe4fd57ae0000000000000000000000000000000000000000000000000000000081526004810182905260240161060a565b61081787878787876110a2565b50505050505050565b60005473ffffffffffffffffffffffffffffffffffffffff1633146108a1576040517f08c379a000000000000000000000000000000000000000000000000000000000815260206004820181905260248201527f4f776e61626c653a2063616c6c6572206973206e6f7420746865206f776e6572604482015260640161060a565b6108ab6000611466565b565b60006108f08c8c8080601f0160208091040260200160405190810160405280939291908181526020018383808284376000920191909152508d9250610be6915050565b6020810151815191925061090391611fc4565b34101561093c576040517f1101129400000000000000000000000000000000000000000000000000000000815260040160405180910390fd5b6109e08c8c8080601f016020809104026020016040519081016040528093929190818152602001838380828437600081840152601f19601f820116905080830192505050505050508a6109db8f8f8080601f016020809104026020016040519081016040528093929190818152602001838380828437600081840152601f19601f820116905080830192505050505050508e8e8e8e8e8e8e8e8e610e3e565b6114db565b60007f000000000000000000000000000000000000000000000000000000000000000073ffffffffffffffffffffffffffffffffffffffff16639f56dac68e8e8e8e8d8a8a6040518863ffffffff1660e01b8152600401610a479796959493929190612002565b6020604051808303816000875af1158015610a66573d6000803e3d6000fd5b505050506040513d601f19601f82011682018060405250810190610a8a919061206c565b90508515610ab557610ab5888e8e604051610aa6929190611f85565b60405180910390208989611658565b8415610afe57610afe8d8d8080601f0160208091040260200160405190810160405280939291908181526020018383808284376000920191909152508c925033915061173f9050565b8a73ffffffffffffffffffffffffffffffffffffffff168d8d604051610b25929190611f85565b60405180910390207f69e37f151eb98a09618ddaa80c8cfaf1ce5996867c489f45b555b412271ebf278f8f8660000151876020015187604051610b6c959493929190612085565b60405180910390a360208201518251610b859190611fc4565b341115610bd7576020820151825133916108fc91610ba39190611fc4565b610bad90346120b6565b6040518115909202916000818181858888f19350505050158015610bd5573d6000803e3d6000fd5b505b50505050505050505050505050565b6040805180820190915260008082526020820152825160208401206040517fd6e4fa86000000000000000000000000000000000000000000000000000000008152600481018290527f000000000000000000000000000000000000000000000000000000000000000073ffffffffffffffffffffffffffffffffffffffff908116916350e9a7159187917f00000000000000000000000000000000000000000000000000000000000000009091169063d6e4fa8690602401602060405180830381865afa158015610cbb573d6000803e3d6000fd5b505050506040513d601f19601f82011682018060405250810190610cdf919061206c565b866040518463ffffffff1660e01b8152600401610cfe93929190612119565b6040805180830381865afa158015610d1a573d6000803e3d6000fd5b505050506040513d601f19601f82011682018060405250810190610d3e919061213e565b949350505050565b60006003610d5383611800565b101592915050565b610d698383836000806110a2565b505050565b80516020820120600090610d8183610d46565b8015610e3757506040517f96e494e8000000000000000000000000000000000000000000000000000000008152600481018290527f000000000000000000000000000000000000000000000000000000000000000073ffffffffffffffffffffffffffffffffffffffff16906396e494e890602401602060405180830381865afa158015610e13573d6000803e3d6000fd5b505050506040513d601f19601f82011682018060405250810190610e379190611f68565b9392505050565b895160208b01206000908515801590610e6b575073ffffffffffffffffffffffffffffffffffffffff8816155b15610ea2576040517fd3f605c400000000000000000000000000000000000000000000000000000000815260040160405180910390fd5b808b8b8a8a8a8e8b8b8b604051602001610ec59a9998979695949392919061223d565b604051602081830303815290604052805190602001209150509a9950505050505050505050565b6000818152600160205260409020544290610f28907f000000000000000000000000000000000000000000000000000000000000000090611fc4565b10610f62576040517f0a059d710000000000000000000000000000000000000000000000000000000081526004810182905260240161060a565b6000908152600160205260409020429055565b60005473ffffffffffffffffffffffffffffffffffffffff163314610ff6576040517f08c379a000000000000000000000000000000000000000000000000000000000815260206004820181905260248201527f4f776e61626c653a2063616c6c6572206973206e6f7420746865206f776e6572604482015260640161060a565b73ffffffffffffffffffffffffffffffffffffffff8116611099576040517f08c379a000000000000000000000000000000000000000000000000000000000815260206004820152602660248201527f4f776e61626c653a206e6577206f776e657220697320746865207a65726f206160448201527f6464726573730000000000000000000000000000000000000000000000000000606482015260840161060a565b61058a81611466565b600085856040516110b4929190611f85565b604080519182900382207f93cdeb708b7545dc668eb9280176169d1c33cfd8ed6f04690a0bcc88a93fc4ae6020840152908201819052915060009060600160408051601f198184030181528282528051602091820120601f8a01829004820284018201909252888352909250839160009161114c91908b908b90819084018382808284376000920191909152508b9250610be6915050565b805190915034101561118a576040517f1101129400000000000000000000000000000000000000000000000000000000815260040160405180910390fd5b6040517ffd0cd0d9000000000000000000000000000000000000000000000000000000008152600481018490526000907f000000000000000000000000000000000000000000000000000000000000000073ffffffffffffffffffffffffffffffffffffffff169063fd0cd0d990602401602060405180830381865afa158015611218573d6000803e3d6000fd5b505050506040513d601f19601f8201168201806040525081019061123c9190611f68565b1561131c576040517f47d2e9fe000000000000000000000000000000000000000000000000000000008152600481018490526024810189905263ffffffff8816604482015267ffffffffffffffff871660648201527f000000000000000000000000000000000000000000000000000000000000000073ffffffffffffffffffffffffffffffffffffffff16906347d2e9fe906084016020604051808303816000875af11580156112f1573d6000803e3d6000fd5b505050506040513d601f19601f82011682018060405250810190611315919061206c565b90506113d7565b6040517fc475abff00000000000000000000000000000000000000000000000000000000815260048101849052602481018990527f000000000000000000000000000000000000000000000000000000000000000073ffffffffffffffffffffffffffffffffffffffff169063c475abff906044016020604051808303816000875af11580156113b0573d6000803e3d6000fd5b505050506040513d601f19601f820116820180604052508101906113d4919061206c565b90505b815134111561141c57815133906108fc906113f290346120b6565b6040518115909202916000818181858888f1935050505015801561141a573d6000803e3d6000fd5b505b847f3da24c024582931cfaf8267d8ed24d13a82a8068d5bd337d30ec45cea4e506ae8b8b348560405161145294939291906122bf565b60405180910390a250505050505050505050565b6000805473ffffffffffffffffffffffffffffffffffffffff8381167fffffffffffffffffffffffff0000000000000000000000000000000000000000831681178455604051919092169283917f8be0079c531659141344cd1fd0a4f28419497f9722a3daafe3b4186f6b6457e09190a35050565b6000818152600160205260409020544290611517907f000000000000000000000000000000000000000000000000000000000000000090611fc4565b1115611552576040517f5320bcf90000000000000000000000000000000000000000000000000000000081526004810182905260240161060a565b600081815260016020526040902054429061158e907f000000000000000000000000000000000000000000000000000000000000000090611fc4565b116115c8576040517fcb7690d70000000000000000000000000000000000000000000000000000000081526004810182905260240161060a565b6115d183610d6e565b61160957826040517f477707e800000000000000000000000000000000000000000000000000000000815260040161060a91906122e6565b6000818152600160205260408120556224ea00821015610d69576040517f9a71997b0000000000000000000000000000000000000000000000000000000081526004810183905260240161060a565b604080517f93cdeb708b7545dc668eb9280176169d1c33cfd8ed6f04690a0bcc88a93fc4ae602080830191909152818301869052825180830384018152606083019384905280519101207fe32954eb00000000000000000000000000000000000000000000000000000000909252859073ffffffffffffffffffffffffffffffffffffffff82169063e32954eb906116f8908590889088906064016122f9565b6000604051808303816000875af1158015611717573d6000803e3d6000fd5b505050506040513d6000823e601f3d908101601f19168201604052610817919081019061231c565b7f000000000000000000000000000000000000000000000000000000000000000073ffffffffffffffffffffffffffffffffffffffff16637a806d6b3383858760405160200161178f919061241b565b6040516020818303038152906040526040518563ffffffff1660e01b81526004016117bd949392919061245c565b6020604051808303816000875af11580156117dc573d6000803e3d6000fd5b505050506040513d601f19601f820116820180604052508101906106ac919061206c565b8051600090819081905b808210156119fe576000858381518110611826576118266124a7565b01602001517fff000000000000000000000000000000000000000000000000000000000000001690507f800000000000000000000000000000000000000000000000000000000000000081101561188957611882600184611fc4565b92506119eb565b7fe0000000000000000000000000000000000000000000000000000000000000007fff00000000000000000000000000000000000000000000000000000000000000821610156118de57611882600284611fc4565b7ff0000000000000000000000000000000000000000000000000000000000000007fff000000000000000000000000000000000000000000000000000000000000008216101561193357611882600384611fc4565b7ff8000000000000000000000000000000000000000000000000000000000000007fff000000000000000000000000000000000000000000000000000000000000008216101561198857611882600484611fc4565b7ffc000000000000000000000000000000000000000000000000000000000000007fff00000000000000000000000000000000000000000000000000000000000000821610156119dd57611882600584611fc4565b6119e8600684611fc4565b92505b50826119f6816124d6565b93505061180a565b50909392505050565b600060208284031215611a1957600080fd5b81357fffffffff0000000000000000000000000000000000000000000000000000000081168114610e3757600080fd5b803573ffffffffffffffffffffffffffffffffffffffff81168114611a6d57600080fd5b919050565b600080600060608486031215611a8757600080fd5b611a9084611a49565b9250611a9e60208501611a49565b9150604084013590509250925092565b60008083601f840112611ac057600080fd5b50813567ffffffffffffffff811115611ad857600080fd5b602083019150836020828501011115611af057600080fd5b9250929050565b803563ffffffff81168114611a6d57600080fd5b803567ffffffffffffffff81168114611a6d57600080fd5b600080600080600060808688031215611b3b57600080fd5b853567ffffffffffffffff811115611b5257600080fd5b611b5e88828901611aae565b90965094505060208601359250611b7760408701611af7565b9150611b8560608701611b0b565b90509295509295909350565b60008083601f840112611ba357600080fd5b50813567ffffffffffffffff811115611bbb57600080fd5b6020830191508360208260051b8501011115611af057600080fd5b801515811461058a57600080fd5b60008060008060008060008060008060006101208c8e031215611c0657600080fd5b67ffffffffffffffff808d351115611c1d57600080fd5b611c2a8e8e358f01611aae565b909c509a50611c3b60208e01611a49565b995060408d0135985060608d01359750611c5760808e01611a49565b96508060a08e01351115611c6a57600080fd5b50611c7b8d60a08e01358e01611b91565b909550935060c08c0135611c8e81611bd6565b9250611c9c60e08d01611af7565b9150611cab6101008d01611b0b565b90509295989b509295989b9093969950565b600060208284031215611ccf57600080fd5b5035919050565b7f4e487b7100000000000000000000000000000000000000000000000000000000600052604160045260246000fd5b604051601f8201601f1916810167ffffffffffffffff81118282101715611d2e57611d2e611cd6565b604052919050565b600067ffffffffffffffff821115611d5057611d50611cd6565b50601f01601f191660200190565b600082601f830112611d6f57600080fd5b8135611d82611d7d82611d36565b611d05565b818152846020838601011115611d9757600080fd5b816020850160208301376000918101602001919091529392505050565b60008060408385031215611dc757600080fd5b823567ffffffffffffffff811115611dde57600080fd5b611dea85828601611d5e565b95602094909401359450505050565b600060208284031215611e0b57600080fd5b813567ffffffffffffffff811115611e2257600080fd5b610d3e84828501611d5e565b600080600060408486031215611e4357600080fd5b833567ffffffffffffffff811115611e5a57600080fd5b611e6686828701611aae565b909790965060209590950135949350505050565b6000806000806000806000806000806101208b8d031215611e9a57600080fd5b8a3567ffffffffffffffff80821115611eb257600080fd5b611ebe8e838f01611d5e565b9b50611ecc60208e01611a49565b9a5060408d0135995060608d01359850611ee860808e01611a49565b975060a08d0135915080821115611efe57600080fd5b50611f0b8d828e01611b91565b90965094505060c08b0135611f1f81611bd6565b9250611f2d60e08c01611af7565b9150611f3c6101008c01611b0b565b90509295989b9194979a5092959850565b600060208284031215611f5f57600080fd5b610e3782611a49565b600060208284031215611f7a57600080fd5b8151610e3781611bd6565b8183823760009101908152919050565b7f4e487b7100000000000000000000000000000000000000000000000000000000600052601160045260246000fd5b8082018082111561053d5761053d611f95565b818352818160208501375060006020828401015260006020601f19601f840116840101905092915050565b60c08152600061201660c08301898b611fd7565b905073ffffffffffffffffffffffffffffffffffffffff808816602084015286604084015280861660608401525063ffffffff8416608083015267ffffffffffffffff831660a083015298975050505050505050565b60006020828403121561207e57600080fd5b5051919050565b608081526000612099608083018789611fd7565b602083019590955250604081019290925260609091015292915050565b8181038181111561053d5761053d611f95565b60005b838110156120e45781810151838201526020016120cc565b50506000910152565b600081518084526121058160208601602086016120c9565b601f01601f19169290920160200192915050565b60608152600061212c60608301866120ed565b60208301949094525060400152919050565b60006040828403121561215057600080fd5b6040516040810181811067ffffffffffffffff8211171561217357612173611cd6565b604052825181526020928301519281019290925250919050565b81835260006020808501808196508560051b810191508460005b8781101561223057828403895281357fffffffffffffffffffffffffffffffffffffffffffffffffffffffffffffffe18836030181126121e657600080fd5b8701858101903567ffffffffffffffff81111561220257600080fd5b80360382131561221157600080fd5b61221c868284611fd7565b9a87019a95505050908401906001016121a7565b5091979650505050505050565b60006101208c835273ffffffffffffffffffffffffffffffffffffffff808d1660208501528b6040850152808b16606085015250806080840152612284818401898b61218d565b60a0840197909752505092151560c084015263ffffffff9190911660e083015267ffffffffffffffff16610100909101529695505050505050565b6060815260006122d3606083018688611fd7565b6020830194909452506040015292915050565b602081526000610e3760208301846120ed565b83815260406020820152600061231360408301848661218d565b95945050505050565b6000602080838503121561232f57600080fd5b825167ffffffffffffffff8082111561234757600080fd5b818501915085601f83011261235b57600080fd5b81518181111561236d5761236d611cd6565b8060051b61237c858201611d05565b918252838101850191858101908984111561239657600080fd5b86860192505b8383101561240e578251858111156123b45760008081fd5b8601603f81018b136123c65760008081fd5b8781015160406123d8611d7d83611d36565b8281528d828486010111156123ed5760008081fd5b6123fc838c83018487016120c9565b8552505050918601919086019061239c565b9998505050505050505050565b6000825161242d8184602087016120c9565b7f2e65746800000000000000000000000000000000000000000000000000000000920191825250600401919050565b600073ffffffffffffffffffffffffffffffffffffffff808716835280861660208401528085166040840152506080606083015261249d60808301846120ed565b9695505050505050565b7f4e487b7100000000000000000000000000000000000000000000000000000000600052603260045260246000fd5b60007fffffffffffffffffffffffffffffffffffffffffffffffffffffffffffffffff820361250757612507611f95565b506001019056fea2646970667358221220d9fb3b87e91578f7a8a6d5440953ca3826801764d1dd460b7339ced1842a0af364736f6c63430008110033",
  "devdoc": {
    "details": "A registrar controller for registering and renewing names at fixed cost.",
    "kind": "dev",
    "methods": {
      "owner()": {
        "details": "Returns the address of the current owner."
      },
      "recoverFunds(address,address,uint256)": {
        "details": "The contract is Ownable and only the owner can call the recover function.",
        "params": {
          "_amount": "The amount of tokens to recover.",
          "_to": "The address to send the tokens to.",
          "_token": "The address of the ERC20 token to recover"
        }
      },
      "renounceOwnership()": {
        "details": "Leaves the contract without owner. It will not be possible to call `onlyOwner` functions anymore. Can only be called by the current owner. NOTE: Renouncing ownership will leave the contract without an owner, thereby removing any functionality that is only available to the owner."
      },
      "transferOwnership(address)": {
        "details": "Transfers ownership of the contract to a new account (`newOwner`). Can only be called by the current owner."
      }
    },
    "version": 1
  },
  "userdoc": {
    "kind": "user",
    "methods": {
      "recoverFunds(address,address,uint256)": {
        "notice": "Recover ERC20 tokens sent to the contract by mistake."
      }
    },
    "version": 1
  },
  "storageLayout": {
    "storage": [
      {
        "astId": 545,
        "contract": "contracts/ethregistrar/ETHRegistrarController.sol:ETHRegistrarController",
        "label": "_owner",
        "offset": 0,
        "slot": "0",
        "type": "t_address"
      },
      {
        "astId": 9866,
        "contract": "contracts/ethregistrar/ETHRegistrarController.sol:ETHRegistrarController",
        "label": "commitments",
        "offset": 0,
        "slot": "1",
        "type": "t_mapping(t_bytes32,t_uint256)"
      }
    ],
    "types": {
      "t_address": {
        "encoding": "inplace",
        "label": "address",
        "numberOfBytes": "20"
      },
      "t_bytes32": {
        "encoding": "inplace",
        "label": "bytes32",
        "numberOfBytes": "32"
      },
      "t_mapping(t_bytes32,t_uint256)": {
        "encoding": "mapping",
        "key": "t_bytes32",
        "label": "mapping(bytes32 => uint256)",
        "numberOfBytes": "32",
        "value": "t_uint256"
      },
      "t_uint256": {
        "encoding": "inplace",
        "label": "uint256",
        "numberOfBytes": "32"
      }
    }
  }
}