{
  "address": "0xF82155e2a43Be0871821E9654Fc8Ae894FB8307C",
  "abi": [
    {
      "inputs": [
        {
          "internalType": "contract ENS",
          "name": "_ens",
          "type": "address"
        },
        {
          "internalType": "contract IBaseRegistrar",
          "name": "_registrar",
          "type": "address"
        },
        {
          "internalType": "contract IMetadataService",
          "name": "_metadataService",
          "type": "address"
        }
      ],
      "stateMutability": "nonpayable",
      "type": "constructor"
    },
    {
      "inputs": [],
      "name": "CannotUpgrade",
      "type": "error"
    },
    {
      "inputs": [],
      "name": "IncompatibleParent",
      "type": "error"
    },
    {
      "inputs": [
        {
          "internalType": "address",
          "name": "owner",
          "type": "address"
        }
      ],
      "name": "IncorrectTargetOwner",
      "type": "error"
    },
    {
      "inputs": [],
      "name": "IncorrectTokenType",
      "type": "error"
    },
    {
      "inputs": [
        {
          "internalType": "bytes32",
          "name": "labelHash",
          "type": "bytes32"
        },
        {
          "internalType": "bytes32",
          "name": "expectedLabelhash",
          "type": "bytes32"
        }
      ],
      "name": "LabelMismatch",
      "type": "error"
    },
    {
      "inputs": [
        {
          "internalType": "string",
          "name": "label",
          "type": "string"
        }
      ],
      "name": "LabelTooLong",
      "type": "error"
    },
    {
      "inputs": [],
      "name": "LabelTooShort",
      "type": "error"
    },
    {
      "inputs": [
        {
          "internalType": "bytes32",
          "name": "node",
          "type": "bytes32"
        }
      ],
      "name": "OperationProhibited",
      "type": "error"
    },
    {
      "inputs": [
        {
          "internalType": "bytes32",
          "name": "node",
          "type": "bytes32"
        },
        {
          "internalType": "address",
          "name": "addr",
          "type": "address"
        }
      ],
      "name": "Unauthorised",
      "type": "error"
    },
    {
      "anonymous": false,
      "inputs": [
        {
          "indexed": true,
          "internalType": "address",
          "name": "account",
          "type": "address"
        },
        {
          "indexed": true,
          "internalType": "address",
          "name": "operator",
          "type": "address"
        },
        {
          "indexed": false,
          "internalType": "bool",
          "name": "approved",
          "type": "bool"
        }
      ],
      "name": "ApprovalForAll",
      "type": "event"
    },
    {
      "anonymous": false,
      "inputs": [
        {
          "indexed": true,
          "internalType": "address",
          "name": "controller",
          "type": "address"
        },
        {
          "indexed": false,
          "internalType": "bool",
          "name": "active",
          "type": "bool"
        }
      ],
      "name": "ControllerChanged",
      "type": "event"
    },
    {
      "anonymous": false,
      "inputs": [
        {
          "indexed": true,
          "internalType": "bytes32",
          "name": "node",
          "type": "bytes32"
        },
        {
          "indexed": false,
          "internalType": "uint32",
          "name": "fuses",
          "type": "uint32"
        },
        {
          "indexed": false,
          "internalType": "uint64",
          "name": "expiry",
          "type": "uint64"
        }
      ],
      "name": "FusesSet",
      "type": "event"
    },
    {
      "anonymous": false,
      "inputs": [
        {
          "indexed": true,
          "internalType": "bytes32",
          "name": "node",
          "type": "bytes32"
        },
        {
          "indexed": false,
          "internalType": "address",
          "name": "owner",
          "type": "address"
        }
      ],
      "name": "NameUnwrapped",
      "type": "event"
    },
    {
      "anonymous": false,
      "inputs": [
        {
          "indexed": true,
          "internalType": "bytes32",
          "name": "node",
          "type": "bytes32"
        },
        {
          "indexed": false,
          "internalType": "bytes",
          "name": "name",
          "type": "bytes"
        },
        {
          "indexed": false,
          "internalType": "address",
          "name": "owner",
          "type": "address"
        },
        {
          "indexed": false,
          "internalType": "uint32",
          "name": "fuses",
          "type": "uint32"
        },
        {
          "indexed": false,
          "internalType": "uint64",
          "name": "expiry",
          "type": "uint64"
        }
      ],
      "name": "NameWrapped",
      "type": "event"
    },
    {
      "anonymous": false,
      "inputs": [
        {
          "indexed": true,
          "internalType": "address",
          "name": "previousOwner",
          "type": "address"
        },
        {
          "indexed": true,
          "internalType": "address",
          "name": "newOwner",
          "type": "address"
        }
      ],
      "name": "OwnershipTransferred",
      "type": "event"
    },
    {
      "anonymous": false,
      "inputs": [
        {
          "indexed": true,
          "internalType": "address",
          "name": "operator",
          "type": "address"
        },
        {
          "indexed": true,
          "internalType": "address",
          "name": "from",
          "type": "address"
        },
        {
          "indexed": true,
          "internalType": "address",
          "name": "to",
          "type": "address"
        },
        {
          "indexed": false,
          "internalType": "uint256[]",
          "name": "ids",
          "type": "uint256[]"
        },
        {
          "indexed": false,
          "internalType": "uint256[]",
          "name": "values",
          "type": "uint256[]"
        }
      ],
      "name": "TransferBatch",
      "type": "event"
    },
    {
      "anonymous": false,
      "inputs": [
        {
          "indexed": true,
          "internalType": "address",
          "name": "operator",
          "type": "address"
        },
        {
          "indexed": true,
          "internalType": "address",
          "name": "from",
          "type": "address"
        },
        {
          "indexed": true,
          "internalType": "address",
          "name": "to",
          "type": "address"
        },
        {
          "indexed": false,
          "internalType": "uint256",
          "name": "id",
          "type": "uint256"
        },
        {
          "indexed": false,
          "internalType": "uint256",
          "name": "value",
          "type": "uint256"
        }
      ],
      "name": "TransferSingle",
      "type": "event"
    },
    {
      "anonymous": false,
      "inputs": [
        {
          "indexed": false,
          "internalType": "string",
          "name": "value",
          "type": "string"
        },
        {
          "indexed": true,
          "internalType": "uint256",
          "name": "id",
          "type": "uint256"
        }
      ],
      "name": "URI",
      "type": "event"
    },
    {
      "inputs": [
        {
          "internalType": "uint256",
          "name": "",
          "type": "uint256"
        }
      ],
      "name": "_tokens",
      "outputs": [
        {
          "internalType": "uint256",
          "name": "",
          "type": "uint256"
        }
      ],
      "stateMutability": "view",
      "type": "function"
    },
    {
      "inputs": [
        {
          "internalType": "bytes32",
          "name": "node",
          "type": "bytes32"
        },
        {
          "internalType": "uint32",
          "name": "fuseMask",
          "type": "uint32"
        }
      ],
      "name": "allFusesBurned",
      "outputs": [
        {
          "internalType": "bool",
          "name": "",
          "type": "bool"
        }
      ],
      "stateMutability": "view",
      "type": "function"
    },
    {
      "inputs": [
        {
          "internalType": "address",
          "name": "account",
          "type": "address"
        },
        {
          "internalType": "uint256",
          "name": "id",
          "type": "uint256"
        }
      ],
      "name": "balanceOf",
      "outputs": [
        {
          "internalType": "uint256",
          "name": "",
          "type": "uint256"
        }
      ],
      "stateMutability": "view",
      "type": "function"
    },
    {
      "inputs": [
        {
          "internalType": "address[]",
          "name": "accounts",
          "type": "address[]"
        },
        {
          "internalType": "uint256[]",
          "name": "ids",
          "type": "uint256[]"
        }
      ],
      "name": "balanceOfBatch",
      "outputs": [
        {
          "internalType": "uint256[]",
          "name": "",
          "type": "uint256[]"
        }
      ],
      "stateMutability": "view",
      "type": "function"
    },
    {
      "inputs": [
        {
          "internalType": "address",
          "name": "",
          "type": "address"
        }
      ],
      "name": "controllers",
      "outputs": [
        {
          "internalType": "bool",
          "name": "",
          "type": "bool"
        }
      ],
      "stateMutability": "view",
      "type": "function"
    },
    {
      "inputs": [],
      "name": "ens",
      "outputs": [
        {
          "internalType": "contract ENS",
          "name": "",
          "type": "address"
        }
      ],
      "stateMutability": "view",
      "type": "function"
    },
    {
      "inputs": [
        {
          "internalType": "uint256",
          "name": "id",
          "type": "uint256"
        }
      ],
      "name": "getData",
      "outputs": [
        {
          "internalType": "address",
          "name": "",
          "type": "address"
        },
        {
          "internalType": "uint32",
          "name": "",
          "type": "uint32"
        },
        {
          "internalType": "uint64",
          "name": "",
          "type": "uint64"
        }
      ],
      "stateMutability": "view",
      "type": "function"
    },
    {
      "inputs": [
        {
          "internalType": "address",
          "name": "account",
          "type": "address"
        },
        {
          "internalType": "address",
          "name": "operator",
          "type": "address"
        }
      ],
      "name": "isApprovedForAll",
      "outputs": [
        {
          "internalType": "bool",
          "name": "",
          "type": "bool"
        }
      ],
      "stateMutability": "view",
      "type": "function"
    },
    {
      "inputs": [
        {
          "internalType": "bytes32",
          "name": "node",
          "type": "bytes32"
        },
        {
          "internalType": "address",
          "name": "addr",
          "type": "address"
        }
      ],
      "name": "isTokenOwnerOrApproved",
      "outputs": [
        {
          "internalType": "bool",
          "name": "",
          "type": "bool"
        }
      ],
      "stateMutability": "view",
      "type": "function"
    },
    {
      "inputs": [
        {
          "internalType": "bytes32",
          "name": "node",
          "type": "bytes32"
        }
      ],
      "name": "isWrapped",
      "outputs": [
        {
          "internalType": "bool",
          "name": "",
          "type": "bool"
        }
      ],
      "stateMutability": "view",
      "type": "function"
    },
    {
      "inputs": [],
      "name": "metadataService",
      "outputs": [
        {
          "internalType": "contract IMetadataService",
          "name": "",
          "type": "address"
        }
      ],
      "stateMutability": "view",
      "type": "function"
    },
    {
      "inputs": [
        {
          "internalType": "bytes32",
          "name": "",
          "type": "bytes32"
        }
      ],
      "name": "names",
      "outputs": [
        {
          "internalType": "bytes",
          "name": "",
          "type": "bytes"
        }
      ],
      "stateMutability": "view",
      "type": "function"
    },
    {
      "inputs": [
        {
          "internalType": "address",
          "name": "to",
          "type": "address"
        },
        {
          "internalType": "address",
          "name": "",
          "type": "address"
        },
        {
          "internalType": "uint256",
          "name": "tokenId",
          "type": "uint256"
        },
        {
          "internalType": "bytes",
          "name": "data",
          "type": "bytes"
        }
      ],
      "name": "onERC721Received",
      "outputs": [
        {
          "internalType": "bytes4",
          "name": "",
          "type": "bytes4"
        }
      ],
      "stateMutability": "nonpayable",
      "type": "function"
    },
    {
      "inputs": [],
      "name": "owner",
      "outputs": [
        {
          "internalType": "address",
          "name": "",
          "type": "address"
        }
      ],
      "stateMutability": "view",
      "type": "function"
    },
    {
      "inputs": [
        {
          "internalType": "uint256",
          "name": "id",
          "type": "uint256"
        }
      ],
      "name": "ownerOf",
      "outputs": [
        {
          "internalType": "address",
          "name": "owner",
          "type": "address"
        }
      ],
      "stateMutability": "view",
      "type": "function"
    },
    {
      "inputs": [
        {
          "internalType": "address",
          "name": "_token",
          "type": "address"
        },
        {
          "internalType": "address",
          "name": "_to",
          "type": "address"
        },
        {
          "internalType": "uint256",
          "name": "_amount",
          "type": "uint256"
        }
      ],
      "name": "recoverFunds",
      "outputs": [],
      "stateMutability": "nonpayable",
      "type": "function"
    },
    {
      "inputs": [
        {
          "internalType": "string",
          "name": "label",
          "type": "string"
        },
        {
          "internalType": "address",
          "name": "wrappedOwner",
          "type": "address"
        },
        {
          "internalType": "uint256",
          "name": "duration",
          "type": "uint256"
        },
        {
          "internalType": "address",
          "name": "resolver",
          "type": "address"
        },
        {
          "internalType": "uint32",
          "name": "fuses",
          "type": "uint32"
        },
        {
          "internalType": "uint64",
          "name": "expiry",
          "type": "uint64"
        }
      ],
      "name": "registerAndWrapETH2LD",
      "outputs": [
        {
          "internalType": "uint256",
          "name": "registrarExpiry",
          "type": "uint256"
        }
      ],
      "stateMutability": "nonpayable",
      "type": "function"
    },
    {
      "inputs": [],
      "name": "registrar",
      "outputs": [
        {
          "internalType": "contract IBaseRegistrar",
          "name": "",
          "type": "address"
        }
      ],
      "stateMutability": "view",
      "type": "function"
    },
    {
      "inputs": [
        {
          "internalType": "uint256",
          "name": "tokenId",
          "type": "uint256"
        },
        {
          "internalType": "uint256",
          "name": "duration",
          "type": "uint256"
        },
        {
          "internalType": "uint32",
          "name": "fuses",
          "type": "uint32"
        },
        {
          "internalType": "uint64",
          "name": "expiry",
          "type": "uint64"
        }
      ],
      "name": "renew",
      "outputs": [
        {
          "internalType": "uint256",
          "name": "expires",
          "type": "uint256"
        }
      ],
      "stateMutability": "nonpayable",
      "type": "function"
    },
    {
      "inputs": [],
      "name": "renounceOwnership",
      "outputs": [],
      "stateMutability": "nonpayable",
      "type": "function"
    },
    {
      "inputs": [
        {
          "internalType": "address",
          "name": "from",
          "type": "address"
        },
        {
          "internalType": "address",
          "name": "to",
          "type": "address"
        },
        {
          "internalType": "uint256[]",
          "name": "ids",
          "type": "uint256[]"
        },
        {
          "internalType": "uint256[]",
          "name": "amounts",
          "type": "uint256[]"
        },
        {
          "internalType": "bytes",
          "name": "data",
          "type": "bytes"
        }
      ],
      "name": "safeBatchTransferFrom",
      "outputs": [],
      "stateMutability": "nonpayable",
      "type": "function"
    },
    {
      "inputs": [
        {
          "internalType": "address",
          "name": "from",
          "type": "address"
        },
        {
          "internalType": "address",
          "name": "to",
          "type": "address"
        },
        {
          "internalType": "uint256",
          "name": "id",
          "type": "uint256"
        },
        {
          "internalType": "uint256",
          "name": "amount",
          "type": "uint256"
        },
        {
          "internalType": "bytes",
          "name": "data",
          "type": "bytes"
        }
      ],
      "name": "safeTransferFrom",
      "outputs": [],
      "stateMutability": "nonpayable",
      "type": "function"
    },
    {
      "inputs": [
        {
          "internalType": "address",
          "name": "operator",
          "type": "address"
        },
        {
          "internalType": "bool",
          "name": "approved",
          "type": "bool"
        }
      ],
      "name": "setApprovalForAll",
      "outputs": [],
      "stateMutability": "nonpayable",
      "type": "function"
    },
    {
      "inputs": [
        {
          "internalType": "bytes32",
          "name": "parentNode",
          "type": "bytes32"
        },
        {
          "internalType": "bytes32",
          "name": "labelhash",
          "type": "bytes32"
        },
        {
          "internalType": "uint32",
          "name": "fuses",
          "type": "uint32"
        },
        {
          "internalType": "uint64",
          "name": "expiry",
          "type": "uint64"
        }
      ],
      "name": "setChildFuses",
      "outputs": [],
      "stateMutability": "nonpayable",
      "type": "function"
    },
    {
      "inputs": [
        {
          "internalType": "address",
          "name": "controller",
          "type": "address"
        },
        {
          "internalType": "bool",
          "name": "active",
          "type": "bool"
        }
      ],
      "name": "setController",
      "outputs": [],
      "stateMutability": "nonpayable",
      "type": "function"
    },
    {
      "inputs": [
        {
          "internalType": "bytes32",
          "name": "node",
          "type": "bytes32"
        },
        {
          "internalType": "uint32",
          "name": "fuses",
          "type": "uint32"
        }
      ],
      "name": "setFuses",
      "outputs": [
        {
          "internalType": "uint32",
          "name": "",
          "type": "uint32"
        }
      ],
      "stateMutability": "nonpayable",
      "type": "function"
    },
    {
      "inputs": [
        {
          "internalType": "contract IMetadataService",
          "name": "_metadataService",
          "type": "address"
        }
      ],
      "name": "setMetadataService",
      "outputs": [],
      "stateMutability": "nonpayable",
      "type": "function"
    },
    {
      "inputs": [
        {
          "internalType": "bytes32",
          "name": "node",
          "type": "bytes32"
        },
        {
          "internalType": "address",
          "name": "owner",
          "type": "address"
        },
        {
          "internalType": "address",
          "name": "resolver",
          "type": "address"
        },
        {
          "internalType": "uint64",
          "name": "ttl",
          "type": "uint64"
        }
      ],
      "name": "setRecord",
      "outputs": [],
      "stateMutability": "nonpayable",
      "type": "function"
    },
    {
      "inputs": [
        {
          "internalType": "bytes32",
          "name": "node",
          "type": "bytes32"
        },
        {
          "internalType": "address",
          "name": "resolver",
          "type": "address"
        }
      ],
      "name": "setResolver",
      "outputs": [],
      "stateMutability": "nonpayable",
      "type": "function"
    },
    {
      "inputs": [
        {
          "internalType": "bytes32",
          "name": "parentNode",
          "type": "bytes32"
        },
        {
          "internalType": "string",
          "name": "label",
          "type": "string"
        },
        {
          "internalType": "address",
          "name": "owner",
          "type": "address"
        },
        {
          "internalType": "uint32",
          "name": "fuses",
          "type": "uint32"
        },
        {
          "internalType": "uint64",
          "name": "expiry",
          "type": "uint64"
        }
      ],
      "name": "setSubnodeOwner",
      "outputs": [
        {
          "internalType": "bytes32",
          "name": "node",
          "type": "bytes32"
        }
      ],
      "stateMutability": "nonpayable",
      "type": "function"
    },
    {
      "inputs": [
        {
          "internalType": "bytes32",
          "name": "parentNode",
          "type": "bytes32"
        },
        {
          "internalType": "string",
          "name": "label",
          "type": "string"
        },
        {
          "internalType": "address",
          "name": "owner",
          "type": "address"
        },
        {
          "internalType": "address",
          "name": "resolver",
          "type": "address"
        },
        {
          "internalType": "uint64",
          "name": "ttl",
          "type": "uint64"
        },
        {
          "internalType": "uint32",
          "name": "fuses",
          "type": "uint32"
        },
        {
          "internalType": "uint64",
          "name": "expiry",
          "type": "uint64"
        }
      ],
      "name": "setSubnodeRecord",
      "outputs": [
        {
          "internalType": "bytes32",
          "name": "node",
          "type": "bytes32"
        }
      ],
      "stateMutability": "nonpayable",
      "type": "function"
    },
    {
      "inputs": [
        {
          "internalType": "bytes32",
          "name": "node",
          "type": "bytes32"
        },
        {
          "internalType": "uint64",
          "name": "ttl",
          "type": "uint64"
        }
      ],
      "name": "setTTL",
      "outputs": [],
      "stateMutability": "nonpayable",
      "type": "function"
    },
    {
      "inputs": [
        {
          "internalType": "contract INameWrapperUpgrade",
          "name": "_upgradeAddress",
          "type": "address"
        }
      ],
      "name": "setUpgradeContract",
      "outputs": [],
      "stateMutability": "nonpayable",
      "type": "function"
    },
    {
      "inputs": [
        {
          "internalType": "bytes4",
          "name": "interfaceId",
          "type": "bytes4"
        }
      ],
      "name": "supportsInterface",
      "outputs": [
        {
          "internalType": "bool",
          "name": "",
          "type": "bool"
        }
      ],
      "stateMutability": "view",
      "type": "function"
    },
    {
      "inputs": [
        {
          "internalType": "address",
          "name": "newOwner",
          "type": "address"
        }
      ],
      "name": "transferOwnership",
      "outputs": [],
      "stateMutability": "nonpayable",
      "type": "function"
    },
    {
      "inputs": [
        {
          "internalType": "bytes32",
          "name": "parentNode",
          "type": "bytes32"
        },
        {
          "internalType": "bytes32",
          "name": "labelhash",
          "type": "bytes32"
        },
        {
          "internalType": "address",
          "name": "controller",
          "type": "address"
        }
      ],
      "name": "unwrap",
      "outputs": [],
      "stateMutability": "nonpayable",
      "type": "function"
    },
    {
      "inputs": [
        {
          "internalType": "bytes32",
          "name": "labelhash",
          "type": "bytes32"
        },
        {
          "internalType": "address",
          "name": "registrant",
          "type": "address"
        },
        {
          "internalType": "address",
          "name": "controller",
          "type": "address"
        }
      ],
      "name": "unwrapETH2LD",
      "outputs": [],
      "stateMutability": "nonpayable",
      "type": "function"
    },
    {
      "inputs": [
        {
          "internalType": "bytes32",
          "name": "parentNode",
          "type": "bytes32"
        },
        {
          "internalType": "string",
          "name": "label",
          "type": "string"
        },
        {
          "internalType": "address",
          "name": "wrappedOwner",
          "type": "address"
        },
        {
          "internalType": "address",
          "name": "resolver",
          "type": "address"
        }
      ],
      "name": "upgrade",
      "outputs": [],
      "stateMutability": "nonpayable",
      "type": "function"
    },
    {
      "inputs": [],
      "name": "upgradeContract",
      "outputs": [
        {
          "internalType": "contract INameWrapperUpgrade",
          "name": "",
          "type": "address"
        }
      ],
      "stateMutability": "view",
      "type": "function"
    },
    {
      "inputs": [
        {
          "internalType": "string",
          "name": "label",
          "type": "string"
        },
        {
          "internalType": "address",
          "name": "wrappedOwner",
          "type": "address"
        },
        {
          "internalType": "address",
          "name": "resolver",
          "type": "address"
        }
      ],
      "name": "upgradeETH2LD",
      "outputs": [],
      "stateMutability": "nonpayable",
      "type": "function"
    },
    {
      "inputs": [
        {
          "internalType": "uint256",
          "name": "tokenId",
          "type": "uint256"
        }
      ],
      "name": "uri",
      "outputs": [
        {
          "internalType": "string",
          "name": "",
          "type": "string"
        }
      ],
      "stateMutability": "view",
      "type": "function"
    },
    {
      "inputs": [
        {
          "internalType": "bytes",
          "name": "name",
          "type": "bytes"
        },
        {
          "internalType": "address",
          "name": "wrappedOwner",
          "type": "address"
        },
        {
          "internalType": "address",
          "name": "resolver",
          "type": "address"
        }
      ],
      "name": "wrap",
      "outputs": [],
      "stateMutability": "nonpayable",
      "type": "function"
    },
    {
      "inputs": [
        {
          "internalType": "string",
          "name": "label",
          "type": "string"
        },
        {
          "internalType": "address",
          "name": "wrappedOwner",
          "type": "address"
        },
        {
          "internalType": "uint32",
          "name": "fuses",
          "type": "uint32"
        },
        {
          "internalType": "uint64",
          "name": "expiry",
          "type": "uint64"
        },
        {
          "internalType": "address",
          "name": "resolver",
          "type": "address"
        }
      ],
      "name": "wrapETH2LD",
      "outputs": [
        {
          "internalType": "uint64",
          "name": "",
          "type": "uint64"
        }
      ],
      "stateMutability": "nonpayable",
      "type": "function"
    }
  ],
  "transactionHash": "0xf8818cdbfaf4a80d0e999fc806a37f2dd798529d2eaf0fe62f7d218e8cf6e943",
  "args": [
    "0x00000000000C2E074eC69A0dFb2997BA6C7d2e1e",
    "0x57f1887a8BF19b14fC0dF6Fd9B2acc9Af147eA85",
    "0x3bAa5F3ea7bFCC8948c4140f233d72c11eBF0bdB"
  ],
  "numDeployments": 2,
  "solcInputHash": "e0f6f00faee6ee60a1220d91a962cdaa",
  "bytecode": "0x60c06040523480156200001157600080fd5b5060405162006245380380620062458339810160408190526200003491620001ef565b6200003f3362000186565b6001600160a01b0383811660805282811660a052600480546001600160a01b031916918316919091179055600163ffffffbf60a01b03197fafa26c20e8b3d9a2853d642cfe1021dae26242ffedfac91c97aab212c1a4b93b8190557fa6eef7e35abe7026729641147f7915573c7e97b47efa546f5f6e3230263bcb4955604080518082019091526001815260006020808301829052908052600590527f05b8ccbb9d4d8fb16ea74ce3c29a41f1b461fbdaff4714a0d9a8eb05499746bc90620001099082620002e8565b50604080518082019091526005808252626cae8d60e31b6020808401919091527f93cdeb708b7545dc668eb9280176169d1c33cfd8ed6f04690a0bcc88a93fc4ae600052527fd99130487705d6970718a0cee91984b61956f8a1db3482bba7e6bf0131adb01f906200017c9082620002e8565b50505050620003b4565b600080546001600160a01b038381166001600160a01b0319831681178455604051919092169283917f8be0079c531659141344cd1fd0a4f28419497f9722a3daafe3b4186f6b6457e09190a35050565b6001600160a01b0381168114620001ec57600080fd5b50565b6000806000606084860312156200020557600080fd5b83516200021281620001d6565b60208501519093506200022581620001d6565b60408501519092506200023881620001d6565b809150509250925092565b634e487b7160e01b600052604160045260246000fd5b600181811c908216806200026e57607f821691505b6020821081036200028f57634e487b7160e01b600052602260045260246000fd5b50919050565b601f821115620002e357600081815260208120601f850160051c81016020861015620002be5750805b601f850160051c820191505b81811015620002df57828155600101620002ca565b5050505b505050565b81516001600160401b0381111562000304576200030462000243565b6200031c8162000315845462000259565b8462000295565b602080601f8311600181146200035457600084156200033b5750858301515b600019600386901b1c1916600185901b178555620002df565b600085815260208120601f198616915b82811015620003855788860151825594840194600190910190840162000364565b5085821015620003a45787850151600019600388901b60f8161c191681555b5050505050600190811b01905550565b60805160a051615d99620004ac6000396000818161047201528181610a9a01528181610b910152818161163f0152818161186e01528181611cd101528181611e0e015281816120b10152818161222d01528181613351015281816134180152818161353a015281816135c901526145400152600081816104bf01528181610a2001528181610d7501528181610eea01528181611086015281816111510152818161214f015281816122cb015281816124910152818161262a0152818161281301528181612cbd01528181612d8401528181612e6601528181612ef8015281816136d80152818161395d015261400f0152615d996000f3fe608060405234801561001057600080fd5b50600436106102e85760003560e01c80638b4dfa7511610191578063e0dba60f116100e3578063ee7eba7811610097578063f44779b911610071578063f44779b914610717578063f9547a9e1461072a578063fd0cd0d91461075657600080fd5b8063ee7eba78146106de578063f242432a146106f1578063f2fde38b1461070457600080fd5b8063e985e9c5116100c8578063e985e9c51461066f578063eb8ae530146106ab578063ed70554d146106be57600080fd5b8063e0dba60f14610649578063e72bf00f1461065c57600080fd5b8063b6bcad2611610145578063cf4088231161011f578063cf40882314610600578063d8c9921a14610613578063da8c229e1461062657600080fd5b8063b6bcad26146105b2578063c20a2eb0146105c5578063c658e086146105ed57600080fd5b80639f56dac6116101765780639f56dac614610579578063a22cb4651461058c578063adf4960a1461059f57600080fd5b80638b4dfa75146105555780638da5cb5b1461056857600080fd5b806324c1af441161024a57806347d2e9fe116101fe5780635d3590d5116101d85780635d3590d5146105275780636352211e1461053a578063715018a61461054d57600080fd5b806347d2e9fe146104e15780634e1273f4146104f4578063530954671461051457600080fd5b80632eb2c2d61161022f5780632eb2c2d61461049457806333c69ea9146104a75780633f15457f146104ba57600080fd5b806324c1af441461045a5780632b20e3971461046d57600080fd5b8063150b7a02116102a15780631896f70a116102865780631896f70a146104095780631f4e15041461041c57806320c38e2b1461044757600080fd5b8063150b7a02146103b25780631534e177146103f657600080fd5b806301ffc9a7116102d257806301ffc9a71461035a5780630e89341c1461037d57806314ab90381461039d57600080fd5b8062fdd58e146102ed5780630178fe3f14610313575b600080fd5b6103006102fb366004614bbe565b610769565b6040519081526020015b60405180910390f35b610326610321366004614bea565b61082a565b604080516001600160a01b03909416845263ffffffff909216602084015267ffffffffffffffff169082015260600161030a565b61036d610368366004614c31565b610845565b604051901515815260200161030a565b61039061038b366004614bea565b6108e7565b60405161030a9190614ca5565b6103b06103ab366004614cd5565b610974565b005b6103c56103c0366004614d4a565b610a8d565b6040517fffffffff00000000000000000000000000000000000000000000000000000000909116815260200161030a565b6103b0610404366004614dbd565b610c35565b6103b0610417366004614dda565b610cc9565b60065461042f906001600160a01b031681565b6040516001600160a01b03909116815260200161030a565b610390610455366004614bea565b610da4565b610300610468366004614efe565b610e3e565b61042f7f000000000000000000000000000000000000000000000000000000000000000081565b6103b06104a2366004615031565b6111cc565b6103b06104b53660046150df565b61156a565b61042f7f000000000000000000000000000000000000000000000000000000000000000081565b6103006104ef3660046150df565b611763565b610507610502366004615125565b611922565b60405161030a9190615223565b60045461042f906001600160a01b031681565b6103b0610535366004615236565b611a60565b61042f610548366004614bea565b611b4c565b6103b0611b57565b6103b0610563366004615277565b611bbd565b6000546001600160a01b031661042f565b6103006105873660046152b9565b611d33565b6103b061059a36600461534c565b611ed7565b61036d6105ad36600461537a565b611fdf565b6103b06105c0366004614dbd565b612004565b6105d86105d336600461537a565b61232a565b60405163ffffffff909116815260200161030a565b6103006105fb36600461539d565b6123d5565b6103b061060e36600461541c565b612751565b6103b0610621366004615454565b6128ac565b61036d610634366004614dbd565b60036020526000908152604090205460ff1681565b6103b061065736600461534c565b61298e565b6103b061066a366004615482565b612a66565b61036d61067d3660046154ea565b6001600160a01b03918216600090815260026020908152604080832093909416825291909152205460ff1690565b6103b06106b9366004615482565b612b77565b6103006106cc366004614bea565b60016020526000908152604090205481565b6103b06106ec366004615518565b612f9f565b6103b06106ff36600461558c565b613095565b6103b0610712366004614dbd565b6131ca565b61036d610725366004614dda565b6132a9565b61073d6107383660046155f5565b613304565b60405167ffffffffffffffff909116815260200161030a565b61036d610764366004614bea565b613681565b60006001600160a01b0383166107ec5760405162461bcd60e51b815260206004820152602b60248201527f455243313135353a2062616c616e636520717565727920666f7220746865207a60448201527f65726f206164647265737300000000000000000000000000000000000000000060648201526084015b60405180910390fd5b60006107f78361082a565b50509050836001600160a01b0316816001600160a01b03160361081e576001915050610824565b60009150505b92915050565b600080600061083884613753565b9250925092509193909250565b60007fffffffff0000000000000000000000000000000000000000000000000000000082167fe89c48dc0000000000000000000000000000000000000000000000000000000014806108d857507fffffffff0000000000000000000000000000000000000000000000000000000082167f150b7a0200000000000000000000000000000000000000000000000000000000145b8061082457506108248261378a565b600480546040517f0e89341c0000000000000000000000000000000000000000000000000000000081529182018390526060916001600160a01b0390911690630e89341c90602401600060405180830381865afa15801561094c573d6000803e3d6000fd5b505050506040513d6000823e601f3d908101601f19168201604052610824919081019061567f565b8161097f81336132a9565b6109a55760405163168ab55d60e31b8152600481018290523360248201526044016107e3565b82601060006109b38361082a565b5091505063ffffffff82821616156109e15760405163a2a7201360e01b8152600481018490526024016107e3565b6040517f14ab90380000000000000000000000000000000000000000000000000000000081526004810187905267ffffffffffffffff861660248201527f00000000000000000000000000000000000000000000000000000000000000006001600160a01b0316906314ab9038906044015b600060405180830381600087803b158015610a6d57600080fd5b505af1158015610a81573d6000803e3d6000fd5b50505050505050505050565b6000336001600160a01b037f00000000000000000000000000000000000000000000000000000000000000001614610af1576040517f1931a53800000000000000000000000000000000000000000000000000000000815260040160405180910390fd5b600080808080610b0387890189615701565b84516020860120949950929750909550935091508990808214610b5c576040517fc65c3ccc00000000000000000000000000000000000000000000000000000000815260048101829052602481018390526044016107e3565b6040517f28ed4f6c000000000000000000000000000000000000000000000000000000008152600481018390523060248201527f00000000000000000000000000000000000000000000000000000000000000006001600160a01b0316906328ed4f6c90604401600060405180830381600087803b158015610bdd57600080fd5b505af1158015610bf1573d6000803e3d6000fd5b50505050610c02878787878761386d565b507f150b7a02000000000000000000000000000000000000000000000000000000009d9c50505050505050505050505050565b6000546001600160a01b03163314610c8f5760405162461bcd60e51b815260206004820181905260248201527f4f776e61626c653a2063616c6c6572206973206e6f7420746865206f776e657260448201526064016107e3565b600480547fffffffffffffffffffffffff0000000000000000000000000000000000000000166001600160a01b0392909216919091179055565b81610cd481336132a9565b610cfa5760405163168ab55d60e31b8152600481018290523360248201526044016107e3565b8260086000610d088361082a565b5091505063ffffffff8282161615610d365760405163a2a7201360e01b8152600481018490526024016107e3565b6040517f1896f70a000000000000000000000000000000000000000000000000000000008152600481018790526001600160a01b0386811660248301527f00000000000000000000000000000000000000000000000000000000000000001690631896f70a90604401610a53565b60056020526000908152604090208054610dbd90615779565b80601f0160208091040260200160405190810160405280929190818152602001828054610de990615779565b8015610e365780601f10610e0b57610100808354040283529160200191610e36565b820191906000526020600020905b815481529060010190602001808311610e1957829003601f168201915b505050505081565b600087610e4b81336132a9565b610e715760405163168ab55d60e31b8152600481018290523360248201526044016107e3565b8888805190602001206000610ead8383604080516020808201949094528082019290925280518083038201815260609092019052805191012090565b6040517f02571be3000000000000000000000000000000000000000000000000000000008152600481018290529091506000906001600160a01b037f000000000000000000000000000000000000000000000000000000000000000016906302571be390602401602060405180830381865afa158015610f31573d6000803e3d6000fd5b505050506040513d601f19601f82011682018060405250810190610f5591906157cc565b90506001600160a01b038116610f9f576000610f708561082a565b509150506020811615610f995760405163a2a7201360e01b8152600481018490526024016107e3565b50610fd5565b6000610faa8361082a565b509150506040811615610fd35760405163a2a7201360e01b8152600481018490526024016107e3565b505b8b5160208d012061100d8e82604080516020808201949094528082019290925280518083038201815260609092019052805191012090565b965061101b8e888b8b6139c7565b975061102687613681565b6110f5576040517f5ef2c7f0000000000000000000000000000000000000000000000000000000008152600481018f9052602481018290523060448201526001600160a01b038c8116606483015267ffffffffffffffff8c1660848301527f00000000000000000000000000000000000000000000000000000000000000001690635ef2c7f09060a401600060405180830381600087803b1580156110ca57600080fd5b505af11580156110de573d6000803e3d6000fd5b505050506110f08e888f8f8d8d613a0d565b6111bb565b6040517f5ef2c7f0000000000000000000000000000000000000000000000000000000008152600481018f9052602481018290523060448201526001600160a01b038c8116606483015267ffffffffffffffff8c1660848301527f00000000000000000000000000000000000000000000000000000000000000001690635ef2c7f09060a401600060405180830381600087803b15801561119557600080fd5b505af11580156111a9573d6000803e3d6000fd5b505050506111bb8e888f8f8d8d613ac7565b505050505050979650505050505050565b81518351146112435760405162461bcd60e51b815260206004820152602860248201527f455243313135353a2069647320616e6420616d6f756e7473206c656e6774682060448201527f6d69736d6174636800000000000000000000000000000000000000000000000060648201526084016107e3565b6001600160a01b0384166112bf5760405162461bcd60e51b815260206004820152602560248201527f455243313135353a207472616e7366657220746f20746865207a65726f20616460448201527f647265737300000000000000000000000000000000000000000000000000000060648201526084016107e3565b6001600160a01b0385163314806112f957506001600160a01b038516600090815260026020908152604080832033845290915290205460ff165b61136b5760405162461bcd60e51b815260206004820152603260248201527f455243313135353a207472616e736665722063616c6c6572206973206e6f742060448201527f6f776e6572206e6f7220617070726f766564000000000000000000000000000060648201526084016107e3565b60005b83518110156114fd57600084828151811061138b5761138b6157e9565b6020026020010151905060008483815181106113a9576113a96157e9565b6020026020010151905060008060006113c18561082a565b9250925092506113d2826004161590565b6113f25760405163a2a7201360e01b8152600481018690526024016107e3565b83600114801561141357508a6001600160a01b0316836001600160a01b0316145b6114855760405162461bcd60e51b815260206004820152602a60248201527f455243313135353a20696e73756666696369656e742062616c616e636520666f60448201527f72207472616e736665720000000000000000000000000000000000000000000060648201526084016107e3565b60008581526001602052604090206001600160a01b038b1677ffffffff000000000000000000000000000000000000000060a085901b16177fffffffffffffffff00000000000000000000000000000000000000000000000060c084901b161790555050505050806114f690615847565b905061136e565b50836001600160a01b0316856001600160a01b0316336001600160a01b03167f4a39dc06d4c0dbc64b70af90fd698a233a518aa5d07e595d983b8c0526c8f7fb868660405161154d92919061587f565b60405180910390a4611563338686868686613b64565b5050505050565b604080516020808201879052818301869052825180830384018152606090920190925280519101206000808061159f8461082a565b91945092509050600080806115b38b61082a565b9093509150507f6c32148f748aba23997146d7fe89e962e3cc30271290fb96f5f4337756c03b528b016116b9576115ea87336132a9565b6116105760405163168ab55d60e31b8152600481018890523360248201526044016107e3565b6040517fd6e4fa86000000000000000000000000000000000000000000000000000000008152600481018b90527f00000000000000000000000000000000000000000000000000000000000000006001600160a01b03169063d6e4fa8690602401602060405180830381865afa15801561168e573d6000803e3d6000fd5b505050506040513d601f19601f820116820180604052508101906116b291906158ad565b92506116ed565b6116c38b336132a9565b6116e95760405163168ab55d60e31b8152600481018890523360248201526044016107e3565b8092505b6116f8878a84613d70565b611703888585613da6565b9750604085161580159061172557508463ffffffff1689861763ffffffff1614155b156117465760405163a2a7201360e01b8152600481018890526024016107e3565b9784179761175687878b8b613df0565b5050505050505050505050565b3360009081526003602052604081205460ff166117e85760405162461bcd60e51b815260206004820152602860248201527f436f6e74726f6c6c61626c653a2043616c6c6572206973206e6f74206120636f60448201527f6e74726f6c6c657200000000000000000000000000000000000000000000000060648201526084016107e3565b604080517f93cdeb708b7545dc668eb9280176169d1c33cfd8ed6f04690a0bcc88a93fc4ae602080830191909152818301889052825180830384018152606090920190925280519101206000906040517fc475abff00000000000000000000000000000000000000000000000000000000815260048101889052602481018790529091507f00000000000000000000000000000000000000000000000000000000000000006001600160a01b03169063c475abff906044016020604051808303816000875af11580156118bf573d6000803e3d6000fd5b505050506040513d601f19601f820116820180604052508101906118e391906158ad565b9150600080806118f28461082a565b925092509250611903868287613da6565b9550611916848460408a86171789613e4c565b50505050949350505050565b6060815183511461199b5760405162461bcd60e51b815260206004820152602960248201527f455243313135353a206163636f756e747320616e6420696473206c656e67746860448201527f206d69736d61746368000000000000000000000000000000000000000000000060648201526084016107e3565b6000835167ffffffffffffffff8111156119b7576119b7614e0a565b6040519080825280602002602001820160405280156119e0578160200160208202803683370190505b50905060005b8451811015611a5857611a2b858281518110611a0457611a046157e9565b6020026020010151858381518110611a1e57611a1e6157e9565b6020026020010151610769565b828281518110611a3d57611a3d6157e9565b6020908102919091010152611a5181615847565b90506119e6565b509392505050565b6000546001600160a01b03163314611aba5760405162461bcd60e51b815260206004820181905260248201527f4f776e61626c653a2063616c6c6572206973206e6f7420746865206f776e657260448201526064016107e3565b6040517fa9059cbb0000000000000000000000000000000000000000000000000000000081526001600160a01b0383811660048301526024820183905284169063a9059cbb906044016020604051808303816000875af1158015611b22573d6000803e3d6000fd5b505050506040513d601f19601f82011682018060405250810190611b4691906158c6565b50505050565b600061082482613ebd565b6000546001600160a01b03163314611bb15760405162461bcd60e51b815260206004820181905260248201527f4f776e61626c653a2063616c6c6572206973206e6f7420746865206f776e657260448201526064016107e3565b611bbb6000613ed3565b565b604080517f93cdeb708b7545dc668eb9280176169d1c33cfd8ed6f04690a0bcc88a93fc4ae60208083019190915281830186905282518083038401815260609092019092528051910120611c1181336132a9565b611c375760405163168ab55d60e31b8152600481018290523360248201526044016107e3565b604080517f93cdeb708b7545dc668eb9280176169d1c33cfd8ed6f04690a0bcc88a93fc4ae60208083019190915281830187905282518083038401815260609092019092528051910120611c8c905b83613f3b565b6040517f42842e0e0000000000000000000000000000000000000000000000000000000081523060048201526001600160a01b038481166024830152604482018690527f000000000000000000000000000000000000000000000000000000000000000016906342842e0e90606401600060405180830381600087803b158015611d1557600080fd5b505af1158015611d29573d6000803e3d6000fd5b5050505050505050565b3360009081526003602052604081205460ff16611db85760405162461bcd60e51b815260206004820152602860248201527f436f6e74726f6c6c61626c653a2043616c6c6572206973206e6f74206120636f60448201527f6e74726f6c6c657200000000000000000000000000000000000000000000000060648201526084016107e3565b60008888604051611dca9291906158e3565b6040519081900381207ffca247ac000000000000000000000000000000000000000000000000000000008252600482018190523060248301526044820188905291507f00000000000000000000000000000000000000000000000000000000000000006001600160a01b03169063fca247ac906064016020604051808303816000875af1158015611e5f573d6000803e3d6000fd5b505050506040513d601f19601f82011682018060405250810190611e8391906158ad565b9150611eca89898080601f0160208091040260200160405190810160405280939291908181526020018383808284376000920191909152508b92508891508790508961386d565b5050979650505050505050565b6001600160a01b0382163303611f555760405162461bcd60e51b815260206004820152602960248201527f455243313135353a2073657474696e6720617070726f76616c2073746174757360448201527f20666f722073656c66000000000000000000000000000000000000000000000060648201526084016107e3565b3360008181526002602090815260408083206001600160a01b0387168085529083529281902080547fffffffffffffffffffffffffffffffffffffffffffffffffffffffffffffff001686151590811790915590519081529192917f17307eab39ab6107e8899845ad3d59bd9653f200f220920489ca2b5937696c31910160405180910390a35050565b600080611feb8461082a565b50841663ffffffff908116908516149250505092915050565b6000546001600160a01b0316331461205e5760405162461bcd60e51b815260206004820181905260248201527f4f776e61626c653a2063616c6c6572206973206e6f7420746865206f776e657260448201526064016107e3565b6006546001600160a01b0316156121b0576006546040517fa22cb4650000000000000000000000000000000000000000000000000000000081526001600160a01b039182166004820152600060248201527f00000000000000000000000000000000000000000000000000000000000000009091169063a22cb46590604401600060405180830381600087803b1580156120f757600080fd5b505af115801561210b573d6000803e3d6000fd5b50506006546040517fa22cb4650000000000000000000000000000000000000000000000000000000081526001600160a01b039182166004820152600060248201527f0000000000000000000000000000000000000000000000000000000000000000909116925063a22cb4659150604401600060405180830381600087803b15801561219757600080fd5b505af11580156121ab573d6000803e3d6000fd5b505050505b600680547fffffffffffffffffffffffff0000000000000000000000000000000000000000166001600160a01b03831690811790915515612327576006546040517fa22cb4650000000000000000000000000000000000000000000000000000000081526001600160a01b039182166004820152600160248201527f00000000000000000000000000000000000000000000000000000000000000009091169063a22cb46590604401600060405180830381600087803b15801561227357600080fd5b505af1158015612287573d6000803e3d6000fd5b50506006546040517fa22cb4650000000000000000000000000000000000000000000000000000000081526001600160a01b039182166004820152600160248201527f0000000000000000000000000000000000000000000000000000000000000000909116925063a22cb4659150604401600060405180830381600087803b15801561231357600080fd5b505af1158015611563573d6000803e3d6000fd5b50565b60008261233781336132a9565b61235d5760405163168ab55d60e31b8152600481018290523360248201526044016107e3565b836002600061236b8361082a565b5091505063ffffffff82821616156123995760405163a2a7201360e01b8152600481018490526024016107e3565b6123a387876140a6565b600080806123b08a61082a565b92509250925081891798506123c78a848b84613df0565b509698975050505050505050565b6000866123e281336132a9565b6124085760405163168ab55d60e31b8152600481018290523360248201526044016107e3565b8787876040516124199291906158e3565b604051809103902060006124548383604080516020808201949094528082019290925280518083038201815260609092019052805191012090565b6040517f02571be3000000000000000000000000000000000000000000000000000000008152600481018290529091506000906001600160a01b037f000000000000000000000000000000000000000000000000000000000000000016906302571be390602401602060405180830381865afa1580156124d8573d6000803e3d6000fd5b505050506040513d601f19601f820116820180604052508101906124fc91906157cc565b90506001600160a01b0381166125465760006125178561082a565b5091505060208116156125405760405163a2a7201360e01b8152600481018490526024016107e3565b5061257c565b60006125518361082a565b50915050604081161561257a5760405163a2a7201360e01b8152600481018490526024016107e3565b505b60008b8b60405161258e9291906158e3565b604051809103902090506125c98d82604080516020808201949094528082019290925280518083038201815260609092019052805191012090565b96506125d78d888b8b6139c7565b97506125e287613681565b6126ef576040517f06ab5923000000000000000000000000000000000000000000000000000000008152600481018e9052602481018290523060448201526001600160a01b037f000000000000000000000000000000000000000000000000000000000000000016906306ab5923906064016020604051808303816000875af1158015612673573d6000803e3d6000fd5b505050506040513d601f19601f8201168201806040525081019061269791906158ad565b506126ea8d888e8e8080601f016020809104026020016040519081016040528093929190818152602001838380828437600081840152601f19601f820116905080830192505050505050508d8d8d613a0d565b612741565b6127418d888e8e8080601f016020809104026020016040519081016040528093929190818152602001838380828437600081840152601f19601f820116905080830192505050505050508d8d8d613ac7565b5050505050509695505050505050565b8361275c81336132a9565b6127825760405163168ab55d60e31b8152600481018290523360248201526044016107e3565b84601c60006127908361082a565b5091505063ffffffff82821616156127be5760405163a2a7201360e01b8152600481018490526024016107e3565b6040517fcf408823000000000000000000000000000000000000000000000000000000008152600481018990523060248201526001600160a01b03878116604483015267ffffffffffffffff871660648301527f0000000000000000000000000000000000000000000000000000000000000000169063cf40882390608401600060405180830381600087803b15801561285757600080fd5b505af115801561286b573d6000803e3d6000fd5b50505050600061287d8960001c61082a565b505090506128a181898b60001c6001604051806020016040528060008152506140d5565b505050505050505050565b604080516020808201869052818301859052825180830384018152606090920190925280519101206128de81336132a9565b6129045760405163168ab55d60e31b8152600481018290523360248201526044016107e3565b7f6c32148f748aba23997146d7fe89e962e3cc30271290fb96f5f4337756c03b52840161295d576040517f615a470300000000000000000000000000000000000000000000000000000000815260040160405180910390fd5b60408051602080820187905281830186905282518083038401815260609092019092528051910120611b4690611c86565b6000546001600160a01b031633146129e85760405162461bcd60e51b815260206004820181905260248201527f4f776e61626c653a2063616c6c6572206973206e6f7420746865206f776e657260448201526064016107e3565b6001600160a01b03821660008181526003602090815260409182902080547fffffffffffffffffffffffffffffffffffffffffffffffffffffffffffffff001685151590811790915591519182527f4c97694570a07277810af7e5669ffd5f6a2d6b74b6e9a274b8b870fd5114cf8791015b60405180910390a25050565b60008484604051612a789291906158e3565b60405190819003902090506000612ad67f93cdeb708b7545dc668eb9280176169d1c33cfd8ed6f04690a0bcc88a93fc4ae83604080516020808201949094528082019290925280518083038201815260609092019052805191012090565b9050600080612ae483614283565b6006546040517ff9547a9e0000000000000000000000000000000000000000000000000000000081529294509092506001600160a01b03169063f9547a9e90612b3b908b908b908b90889088908d9060040161591e565b600060405180830381600087803b158015612b5557600080fd5b505af1158015612b69573d6000803e3d6000fd5b505050505050505050505050565b600080612bbe600087878080601f01602080910402602001604051908101604052809392919081815260200183838082843760009201919091525092939250506143189050565b915091506000612c078288888080601f01602080910402602001604051908101604052809392919081815260200183838082843760009201919091525092939250506143cf9050565b604080516020808201849052818301879052825180830384018152606090920190925280519101209091507f6c32148f748aba23997146d7fe89e962e3cc30271290fb96f5f4337756c03b528201612c8b576040517f615a470300000000000000000000000000000000000000000000000000000000815260040160405180910390fd5b6040517f02571be3000000000000000000000000000000000000000000000000000000008152600481018290526000907f00000000000000000000000000000000000000000000000000000000000000006001600160a01b0316906302571be390602401602060405180830381865afa158015612d0c573d6000803e3d6000fd5b505050506040513d601f19601f82011682018060405250810190612d3091906157cc565b90506001600160a01b0381163314801590612df157506040517fe985e9c50000000000000000000000000000000000000000000000000000000081526001600160a01b0382811660048301523360248301527f0000000000000000000000000000000000000000000000000000000000000000169063e985e9c590604401602060405180830381865afa158015612dcb573d6000803e3d6000fd5b505050506040513d601f19601f82011682018060405250810190612def91906158c6565b155b15612e185760405163168ab55d60e31b8152600481018390523360248201526044016107e3565b6001600160a01b03861615612ec3576040517f1896f70a000000000000000000000000000000000000000000000000000000008152600481018390526001600160a01b0387811660248301527f00000000000000000000000000000000000000000000000000000000000000001690631896f70a90604401600060405180830381600087803b158015612eaa57600080fd5b505af1158015612ebe573d6000803e3d6000fd5b505050505b6040517f5b0fc9c3000000000000000000000000000000000000000000000000000000008152600481018390523060248201527f00000000000000000000000000000000000000000000000000000000000000006001600160a01b031690635b0fc9c390604401600060405180830381600087803b158015612f4457600080fd5b505af1158015612f58573d6000803e3d6000fd5b505050506128a1828a8a8080601f01602080910402602001604051908101604052809392919081815260200183838082843760009201829052508d9350915081905061448e565b60008484604051612fb19291906158e3565b604051809103902090506000612fee8783604080516020808201949094528082019290925280518083038201815260609092019052805191012090565b9050600080612ffc83614283565b6006546040517f24c1af440000000000000000000000000000000000000000000000000000000081529294509092506001600160a01b0316906324c1af4490613058908c908c908c908c908c906000908b908b90600401615974565b600060405180830381600087803b15801561307257600080fd5b505af1158015613086573d6000803e3d6000fd5b50505050505050505050505050565b6001600160a01b0384166131115760405162461bcd60e51b815260206004820152602560248201527f455243313135353a207472616e7366657220746f20746865207a65726f20616460448201527f647265737300000000000000000000000000000000000000000000000000000060648201526084016107e3565b6001600160a01b03851633148061314b57506001600160a01b038516600090815260026020908152604080832033845290915290205460ff165b6131bd5760405162461bcd60e51b815260206004820152602960248201527f455243313135353a2063616c6c6572206973206e6f74206f776e6572206e6f7260448201527f20617070726f766564000000000000000000000000000000000000000000000060648201526084016107e3565b61156385858585856140d5565b6000546001600160a01b031633146132245760405162461bcd60e51b815260206004820181905260248201527f4f776e61626c653a2063616c6c6572206973206e6f7420746865206f776e657260448201526064016107e3565b6001600160a01b0381166132a05760405162461bcd60e51b815260206004820152602660248201527f4f776e61626c653a206e6577206f776e657220697320746865207a65726f206160448201527f646472657373000000000000000000000000000000000000000000000000000060648201526084016107e3565b61232781613ed3565b6000806132b584611b4c565b9050826001600160a01b0316816001600160a01b031614806132fc57506001600160a01b0380821660009081526002602090815260408083209387168352929052205460ff165b949350505050565b60008087876040516133179291906158e3565b6040519081900381207f6352211e0000000000000000000000000000000000000000000000000000000082526004820181905291506000907f00000000000000000000000000000000000000000000000000000000000000006001600160a01b031690636352211e90602401602060405180830381865afa1580156133a0573d6000803e3d6000fd5b505050506040513d601f19601f820116820180604052508101906133c491906157cc565b90506001600160a01b038116331480159061348557506040517fe985e9c50000000000000000000000000000000000000000000000000000000081526001600160a01b0382811660048301523360248301527f0000000000000000000000000000000000000000000000000000000000000000169063e985e9c590604401602060405180830381865afa15801561345f573d6000803e3d6000fd5b505050506040513d601f19601f8201168201806040525081019061348391906158c6565b155b156134f557604080517f93cdeb708b7545dc668eb9280176169d1c33cfd8ed6f04690a0bcc88a93fc4ae6020808301919091528183018590528251808303840181526060830193849052805191012063168ab55d60e31b909252606481019190915233608482015260a4016107e3565b6040517f23b872dd0000000000000000000000000000000000000000000000000000000081526001600160a01b038281166004830152306024830152604482018490527f000000000000000000000000000000000000000000000000000000000000000016906323b872dd90606401600060405180830381600087803b15801561357e57600080fd5b505af1158015613592573d6000803e3d6000fd5b50506040517f28ed4f6c000000000000000000000000000000000000000000000000000000008152600481018590523060248201527f00000000000000000000000000000000000000000000000000000000000000006001600160a01b031692506328ed4f6c9150604401600060405180830381600087803b15801561361757600080fd5b505af115801561362b573d6000803e3d6000fd5b5050505061367489898080601f0160208091040260200160405190810160405280939291908181526020018383808284376000920191909152508b92508a91508990508861386d565b9998505050505050505050565b60008061368d83611b4c565b6001600160a01b03161415801561082457506040517f02571be30000000000000000000000000000000000000000000000000000000081526004810183905230906001600160a01b037f000000000000000000000000000000000000000000000000000000000000000016906302571be390602401602060405180830381865afa15801561371f573d6000803e3d6000fd5b505050506040513d601f19601f8201168201806040525081019061374391906157cc565b6001600160a01b03161492915050565b6000818152600160205260408120549060c082901c824282101561377a5760009250613782565b60a081901c92505b509193909250565b60007fffffffff0000000000000000000000000000000000000000000000000000000082167fd9b67a2600000000000000000000000000000000000000000000000000000000148061381d57507fffffffff0000000000000000000000000000000000000000000000000000000082167f0e89341c00000000000000000000000000000000000000000000000000000000145b8061082457507f01ffc9a7000000000000000000000000000000000000000000000000000000007fffffffff00000000000000000000000000000000000000000000000000000000831614610824565b84516020860120600090816138c97f93cdeb708b7545dc668eb9280176169d1c33cfd8ed6f04690a0bcc88a93fc4ae83604080516020808201949094528082019290925280518083038201815260609092019052805191012090565b905060006138d88284886144f8565b9750915061390f90507f93cdeb708b7545dc668eb9280176169d1c33cfd8ed6f04690a0bcc88a93fc4ae838b8b60408c178b613a0d565b6001600160a01b038516156139ba576040517f1896f70a000000000000000000000000000000000000000000000000000000008152600481018390526001600160a01b0386811660248301527f00000000000000000000000000000000000000000000000000000000000000001690631896f70a90604401600060405180830381600087803b1580156139a157600080fd5b505af11580156139b5573d6000803e3d6000fd5b505050505b5093979650505050505050565b6000806139d38561082a565b925050506000806139e68860001c61082a565b92509250506139f6878784613d70565b613a01858483613da6565b98975050505050505050565b60008681526005602052604081208054613aaf918791613a2c90615779565b80601f0160208091040260200160405190810160405280929190818152602001828054613a5890615779565b8015613aa55780601f10613a7a57610100808354040283529160200191613aa5565b820191906000526020600020905b815481529060010190602001808311613a8857829003601f168201915b50505050506145d0565b9050613abe868286868661448e565b50505050505050565b6000613ad286611b4c565b90506000613af886600560008b81526020019081526020016000208054613a2c90615779565b6000888152600560205260409020805491925090613b1590615779565b9050600003613b38576000878152600560205260409020613b368282615a22565b505b613b4487838686613df0565b611d2982868960001c6001604051806020016040528060008152506140d5565b6001600160a01b0384163b15613d68576040517fbc197c810000000000000000000000000000000000000000000000000000000081526001600160a01b0385169063bc197c8190613bc19089908990889088908890600401615b1e565b6020604051808303816000875af1925050508015613bfc575060408051601f3d908101601f19168201909252613bf991810190615b70565b60015b613cb157613c08615b8d565b806308c379a003613c415750613c1c615ba9565b80613c275750613c43565b8060405162461bcd60e51b81526004016107e39190614ca5565b505b60405162461bcd60e51b815260206004820152603460248201527f455243313135353a207472616e7366657220746f206e6f6e204552433131353560448201527f526563656976657220696d706c656d656e74657200000000000000000000000060648201526084016107e3565b7fffffffff0000000000000000000000000000000000000000000000000000000081167fbc197c810000000000000000000000000000000000000000000000000000000014613abe5760405162461bcd60e51b815260206004820152602860248201527f455243313135353a204552433131353552656365697665722072656a6563746560448201527f6420746f6b656e7300000000000000000000000000000000000000000000000060648201526084016107e3565b505050505050565b6040828116146001821615818015613d855750805b156115635760405163a2a7201360e01b8152600481018690526024016107e3565b60008167ffffffffffffffff168467ffffffffffffffff161115613dc8578193505b8267ffffffffffffffff168467ffffffffffffffff161015613de8578293505b509192915050565b613dfc84848484613e4c565b6040805163ffffffff8416815267ffffffffffffffff8316602082015285917f936318e296f824e203b086d97bb155a0200cec4847efea1fb4b9b7f924157355910160405180910390a250505050565b613e568483614679565b60008481526001602052604090206001600160a01b03841677ffffffff000000000000000000000000000000000000000060a085901b16177fffffffffffffffff00000000000000000000000000000000000000000000000060c084901b16179055611b46565b600080613ec98361082a565b5090949350505050565b600080546001600160a01b038381167fffffffffffffffffffffffff0000000000000000000000000000000000000000831681178455604051919092169283917f8be0079c531659141344cd1fd0a4f28419497f9722a3daafe3b4186f6b6457e09190a35050565b6001600160a01b0381161580613f5957506001600160a01b03811630145b15613f9b576040517f5949361a0000000000000000000000000000000000000000000000000000000081526001600160a01b03821660048201526024016107e3565b613fa6826001611fdf565b15613fc75760405163a2a7201360e01b8152600481018390526024016107e3565b613fd0826146b2565b6040517f5b0fc9c3000000000000000000000000000000000000000000000000000000008152600481018390526001600160a01b0382811660248301527f00000000000000000000000000000000000000000000000000000000000000001690635b0fc9c390604401600060405180830381600087803b15801561405357600080fd5b505af1158015614067573d6000803e3d6000fd5b50506040516001600160a01b03841681528492507fee2ba1195c65bcf218a83d874335c6bf9d9067b4c672f3c3bf16cf40de7586c49150602001612a5a565b60408116156140d15760405163168ab55d60e31b8152600481018390523360248201526044016107e3565b5050565b60008060006140e38661082a565b9250925092506140f4826004161590565b6141145760405163a2a7201360e01b8152600481018790526024016107e3565b8460011480156141355750876001600160a01b0316836001600160a01b0316145b6141a75760405162461bcd60e51b815260206004820152602a60248201527f455243313135353a20696e73756666696369656e742062616c616e636520666f60448201527f72207472616e736665720000000000000000000000000000000000000000000060648201526084016107e3565b866001600160a01b0316836001600160a01b0316036141c857505050611563565b60008681526001602052604090206001600160a01b03881677ffffffff000000000000000000000000000000000000000060a085901b16177fffffffffffffffff00000000000000000000000000000000000000000000000060c084901b1617905560408051878152602081018790526001600160a01b03808a1692908b169133917fc3d58168c5ae7397731d063d5bbf3d657854427343f4c083240f7aacaa2d0f62910160405180910390a4611d2933898989898961476d565b60065460009081906001600160a01b03166142ca576040517f24c1d6d400000000000000000000000000000000000000000000000000000000815260040160405180910390fd5b6142d483336132a9565b6142fa5760405163168ab55d60e31b8152600481018490523360248201526044016107e3565b6143038361082a565b90935091506143139050836146b2565b915091565b6000808351831061436b5760405162461bcd60e51b815260206004820152601e60248201527f726561644c6162656c3a20496e646578206f7574206f6620626f756e6473000060448201526064016107e3565b600084848151811061437f5761437f6157e9565b016020015160f81c905080156143ab576143a48561439e866001615c51565b836148c8565b92506143b0565b600092505b6143ba8185615c51565b6143c5906001615c51565b9150509250929050565b60008060006143de8585614318565b90925090508161445057600185516143f69190615c64565b84146144445760405162461bcd60e51b815260206004820152601d60248201527f6e616d65686173683a204a756e6b20617420656e64206f66206e616d6500000060448201526064016107e3565b50600091506108249050565b61445a85826143cf565b6040805160208101929092528101839052606001604051602081830303815290604052805190602001209250505092915050565b60008581526005602052604090206144a68582615a22565b506144b3858484846148ec565b847f8ce7013e8abebc55c3890a68f5a27c67c3f7efa64e584de5fb22363c606fd340858585856040516144e99493929190615c77565b60405180910390a25050505050565b60008080806145068761082a565b6040517fd6e4fa86000000000000000000000000000000000000000000000000000000008152600481018a905292965090945091506000907f00000000000000000000000000000000000000000000000000000000000000006001600160a01b03169063d6e4fa8690602401602060405180830381865afa15801561458f573d6000803e3d6000fd5b505050506040513d601f19601f820116820180604052508101906145b391906158ad565b90506145c0868383613da6565b9550859250505093509350939050565b606060018351101561460e576040517f280dacb600000000000000000000000000000000000000000000000000000000815260040160405180910390fd5b60ff8351111561464c57826040517fe3ba295f0000000000000000000000000000000000000000000000000000000081526004016107e39190614ca5565b8251838360405160200161466293929190615cbf565b604051602081830303815290604052905092915050565b63ffffffbf8116158015906146915750604181811614155b156140d15760405163a2a7201360e01b8152600481018390526024016107e3565b60008060006146c08461082a565b600087815260016020526040902077ffffffff000000000000000000000000000000000000000060a084901b167fffffffffffffffff00000000000000000000000000000000000000000000000060c084901b161790559194509250905060408051858152600160208201526000916001600160a01b0386169133917fc3d58168c5ae7397731d063d5bbf3d657854427343f4c083240f7aacaa2d0f62910160405180910390a450505050565b6001600160a01b0384163b15613d68576040517ff23a6e610000000000000000000000000000000000000000000000000000000081526001600160a01b0385169063f23a6e61906147ca9089908990889088908890600401615d20565b6020604051808303816000875af1925050508015614805575060408051601f3d908101601f1916820190925261480291810190615b70565b60015b61481157613c08615b8d565b7fffffffff0000000000000000000000000000000000000000000000000000000081167ff23a6e610000000000000000000000000000000000000000000000000000000014613abe5760405162461bcd60e51b815260206004820152602860248201527f455243313135353a204552433131353552656365697665722072656a6563746560448201527f6420746f6b656e7300000000000000000000000000000000000000000000000060648201526084016107e3565b82516000906148d78385615c51565b11156148e257600080fd5b5091016020012090565b6148f68483614679565b600061490185611b4c565b90506001600160a01b038116156149525761491b856146b2565b6040516000815285907fee2ba1195c65bcf218a83d874335c6bf9d9067b4c672f3c3bf16cf40de7586c49060200160405180910390a25b6115638585858583600080806149678461082a565b9250925092508467ffffffffffffffff168167ffffffffffffffff16111561498d578094505b6001600160a01b038316156149e45760405162461bcd60e51b815260206004820152601f60248201527f455243313135353a206d696e74206f66206578697374696e6720746f6b656e0060448201526064016107e3565b6001600160a01b038716614a605760405162461bcd60e51b815260206004820152602160248201527f455243313135353a206d696e7420746f20746865207a65726f2061646472657360448201527f730000000000000000000000000000000000000000000000000000000000000060648201526084016107e3565b306001600160a01b03881603614ade5760405162461bcd60e51b815260206004820152603460248201527f455243313135353a206e65774f776e65722063616e6e6f74206265207468652060448201527f4e616d655772617070657220636f6e747261637400000000000000000000000060648201526084016107e3565b60008481526001602052604090206001600160a01b03881677ffffffff000000000000000000000000000000000000000088851760a01b16177fffffffffffffffff00000000000000000000000000000000000000000000000060c088901b1617905560408051858152600160208201526001600160a01b0389169160009133917fc3d58168c5ae7397731d063d5bbf3d657854427343f4c083240f7aacaa2d0f62910160405180910390a4611d29336000898760016040518060200160405280600081525061476d565b6001600160a01b038116811461232757600080fd5b60008060408385031215614bd157600080fd5b8235614bdc81614ba9565b946020939093013593505050565b600060208284031215614bfc57600080fd5b5035919050565b7fffffffff000000000000000000000000000000000000000000000000000000008116811461232757600080fd5b600060208284031215614c4357600080fd5b8135614c4e81614c03565b9392505050565b60005b83811015614c70578181015183820152602001614c58565b50506000910152565b60008151808452614c91816020860160208601614c55565b601f01601f19169290920160200192915050565b602081526000614c4e6020830184614c79565b803567ffffffffffffffff81168114614cd057600080fd5b919050565b60008060408385031215614ce857600080fd5b82359150614cf860208401614cb8565b90509250929050565b60008083601f840112614d1357600080fd5b50813567ffffffffffffffff811115614d2b57600080fd5b602083019150836020828501011115614d4357600080fd5b9250929050565b600080600080600060808688031215614d6257600080fd5b8535614d6d81614ba9565b94506020860135614d7d81614ba9565b935060408601359250606086013567ffffffffffffffff811115614da057600080fd5b614dac88828901614d01565b969995985093965092949392505050565b600060208284031215614dcf57600080fd5b8135614c4e81614ba9565b60008060408385031215614ded57600080fd5b823591506020830135614dff81614ba9565b809150509250929050565b7f4e487b7100000000000000000000000000000000000000000000000000000000600052604160045260246000fd5b601f19601f830116810181811067ffffffffffffffff82111715614e5f57614e5f614e0a565b6040525050565b600067ffffffffffffffff821115614e8057614e80614e0a565b50601f01601f191660200190565b600082601f830112614e9f57600080fd5b8135614eaa81614e66565b604051614eb78282614e39565b828152856020848701011115614ecc57600080fd5b82602086016020830137600092810160200192909252509392505050565b803563ffffffff81168114614cd057600080fd5b600080600080600080600060e0888a031215614f1957600080fd5b87359650602088013567ffffffffffffffff811115614f3757600080fd5b614f438a828b01614e8e565b9650506040880135614f5481614ba9565b94506060880135614f6481614ba9565b9350614f7260808901614cb8565b9250614f8060a08901614eea565b9150614f8e60c08901614cb8565b905092959891949750929550565b600067ffffffffffffffff821115614fb657614fb6614e0a565b5060051b60200190565b600082601f830112614fd157600080fd5b81356020614fde82614f9c565b604051614feb8282614e39565b83815260059390931b850182019282810191508684111561500b57600080fd5b8286015b84811015615026578035835291830191830161500f565b509695505050505050565b600080600080600060a0868803121561504957600080fd5b853561505481614ba9565b9450602086013561506481614ba9565b9350604086013567ffffffffffffffff8082111561508157600080fd5b61508d89838a01614fc0565b945060608801359150808211156150a357600080fd5b6150af89838a01614fc0565b935060808801359150808211156150c557600080fd5b506150d288828901614e8e565b9150509295509295909350565b600080600080608085870312156150f557600080fd5b843593506020850135925061510c60408601614eea565b915061511a60608601614cb8565b905092959194509250565b6000806040838503121561513857600080fd5b823567ffffffffffffffff8082111561515057600080fd5b818501915085601f83011261516457600080fd5b8135602061517182614f9c565b60405161517e8282614e39565b83815260059390931b850182019282810191508984111561519e57600080fd5b948201945b838610156151c55785356151b681614ba9565b825294820194908201906151a3565b965050860135925050808211156151db57600080fd5b506143c585828601614fc0565b600081518084526020808501945080840160005b83811015615218578151875295820195908201906001016151fc565b509495945050505050565b602081526000614c4e60208301846151e8565b60008060006060848603121561524b57600080fd5b833561525681614ba9565b9250602084013561526681614ba9565b929592945050506040919091013590565b60008060006060848603121561528c57600080fd5b83359250602084013561529e81614ba9565b915060408401356152ae81614ba9565b809150509250925092565b600080600080600080600060c0888a0312156152d457600080fd5b873567ffffffffffffffff8111156152eb57600080fd5b6152f78a828b01614d01565b909850965050602088013561530b81614ba9565b945060408801359350606088013561532281614ba9565b925061533060808901614eea565b9150614f8e60a08901614cb8565b801515811461232757600080fd5b6000806040838503121561535f57600080fd5b823561536a81614ba9565b91506020830135614dff8161533e565b6000806040838503121561538d57600080fd5b82359150614cf860208401614eea565b60008060008060008060a087890312156153b657600080fd5b86359550602087013567ffffffffffffffff8111156153d457600080fd5b6153e089828a01614d01565b90965094505060408701356153f481614ba9565b925061540260608801614eea565b915061541060808801614cb8565b90509295509295509295565b6000806000806080858703121561543257600080fd5b84359350602085013561544481614ba9565b9250604085013561510c81614ba9565b60008060006060848603121561546957600080fd5b833592506020840135915060408401356152ae81614ba9565b6000806000806060858703121561549857600080fd5b843567ffffffffffffffff8111156154af57600080fd5b6154bb87828801614d01565b90955093505060208501356154cf81614ba9565b915060408501356154df81614ba9565b939692955090935050565b600080604083850312156154fd57600080fd5b823561550881614ba9565b91506020830135614dff81614ba9565b60008060008060006080868803121561553057600080fd5b85359450602086013567ffffffffffffffff81111561554e57600080fd5b61555a88828901614d01565b909550935050604086013561556e81614ba9565b9150606086013561557e81614ba9565b809150509295509295909350565b600080600080600060a086880312156155a457600080fd5b85356155af81614ba9565b945060208601356155bf81614ba9565b93506040860135925060608601359150608086013567ffffffffffffffff8111156155e957600080fd5b6150d288828901614e8e565b60008060008060008060a0878903121561560e57600080fd5b863567ffffffffffffffff81111561562557600080fd5b61563189828a01614d01565b909750955050602087013561564581614ba9565b935061565360408801614eea565b925061566160608801614cb8565b9150608087013561567181614ba9565b809150509295509295509295565b60006020828403121561569157600080fd5b815167ffffffffffffffff8111156156a857600080fd5b8201601f810184136156b957600080fd5b80516156c481614e66565b6040516156d18282614e39565b8281528660208486010111156156e657600080fd5b6156f7836020830160208701614c55565b9695505050505050565b600080600080600060a0868803121561571957600080fd5b853567ffffffffffffffff81111561573057600080fd5b61573c88828901614e8e565b955050602086013561574d81614ba9565b935061575b60408701614eea565b925061576960608701614cb8565b9150608086013561557e81614ba9565b600181811c9082168061578d57607f821691505b6020821081036157c6577f4e487b7100000000000000000000000000000000000000000000000000000000600052602260045260246000fd5b50919050565b6000602082840312156157de57600080fd5b8151614c4e81614ba9565b7f4e487b7100000000000000000000000000000000000000000000000000000000600052603260045260246000fd5b7f4e487b7100000000000000000000000000000000000000000000000000000000600052601160045260246000fd5b60007fffffffffffffffffffffffffffffffffffffffffffffffffffffffffffffffff820361587857615878615818565b5060010190565b60408152600061589260408301856151e8565b82810360208401526158a481856151e8565b95945050505050565b6000602082840312156158bf57600080fd5b5051919050565b6000602082840312156158d857600080fd5b8151614c4e8161533e565b8183823760009101908152919050565b818352818160208501375060006020828401015260006020601f19601f840116840101905092915050565b60a08152600061593260a08301888a6158f3565b90506001600160a01b03808716602084015263ffffffff8616604084015267ffffffffffffffff85166060840152808416608084015250979650505050505050565b88815260e06020820152600061598e60e08301898b6158f3565b6001600160a01b03978816604084015295909616606082015267ffffffffffffffff938416608082015263ffffffff9290921660a083015290911660c090910152949350505050565b601f821115615a1d57600081815260208120601f850160051c810160208610156159fe5750805b601f850160051c820191505b81811015613d6857828155600101615a0a565b505050565b815167ffffffffffffffff811115615a3c57615a3c614e0a565b615a5081615a4a8454615779565b846159d7565b602080601f831160018114615aa35760008415615a6d5750858301515b7fffffffffffffffffffffffffffffffffffffffffffffffffffffffffffffffff600386901b1c1916600185901b178555613d68565b600085815260208120601f198616915b82811015615ad257888601518255948401946001909101908401615ab3565b5085821015615b0e57878501517fffffffffffffffffffffffffffffffffffffffffffffffffffffffffffffffff600388901b60f8161c191681555b5050505050600190811b01905550565b60006001600160a01b03808816835280871660208401525060a06040830152615b4a60a08301866151e8565b8281036060840152615b5c81866151e8565b90508281036080840152613a018185614c79565b600060208284031215615b8257600080fd5b8151614c4e81614c03565b600060033d1115615ba65760046000803e5060005160e01c5b90565b600060443d1015615bb75790565b6040517ffffffffffffffffffffffffffffffffffffffffffffffffffffffffffffffffc803d016004833e81513d67ffffffffffffffff8160248401118184111715615c0557505050505090565b8285019150815181811115615c1d5750505050505090565b843d8701016020828501011115615c375750505050505090565b615c4660208286010187614e39565b509095945050505050565b8082018082111561082457610824615818565b8181038181111561082457610824615818565b608081526000615c8a6080830187614c79565b6001600160a01b039590951660208301525063ffffffff92909216604083015267ffffffffffffffff16606090910152919050565b7fff000000000000000000000000000000000000000000000000000000000000008460f81b16815260008351615cfc816001850160208801614c55565b835190830190615d13816001840160208801614c55565b0160010195945050505050565b60006001600160a01b03808816835280871660208401525084604083015283606083015260a06080830152615d5860a0830184614c79565b97965050505050505056fea2646970667358221220023c9c32e014d489c5a23e8e087c412538ac97c4b9baab7e6c472e2d81c489f164736f6c63430008110033",
  "devdoc": {
    "kind": "dev",
    "methods": {
      "allFusesBurned(bytes32,uint32)": {
        "params": {
          "fuseMask": "The fuses you want to check",
          "node": "Namehash of the name"
        },
        "returns": {
          "_0": "Boolean of whether or not all the selected fuses are burned"
        }
      },
      "balanceOf(address,uint256)": {
        "details": "See {IERC1155-balanceOf}. Requirements: - `account` cannot be the zero address."
      },
      "balanceOfBatch(address[],uint256[])": {
        "details": "See {IERC1155-balanceOfBatch}. Requirements: - `accounts` and `ids` must have the same length."
      },
      "getData(uint256)": {
        "params": {
          "id": "Label as a string of the .eth domain to wrap"
        },
        "returns": {
          "_0": "address The owner of the name",
          "_1": "uint32 Fuses of the name",
          "_2": "uint64 Expiry of when the fuses expire for the name"
        }
      },
      "isApprovedForAll(address,address)": {
        "details": "See {IERC1155-isApprovedForAll}."
      },
      "isTokenOwnerOrApproved(bytes32,address)": {
        "params": {
          "addr": "which address to check permissions for",
          "node": "namehash of the name to check"
        },
        "returns": {
          "_0": "whether or not is owner or approved"
        }
      },
      "isWrapped(bytes32)": {
        "details": "Both of these checks need to be true to be considered wrapped if checked without this contract",
        "params": {
          "node": "Namehash of the name"
        },
        "returns": {
          "_0": "Boolean of whether or not the name is wrapped"
        }
      },
      "owner()": {
        "details": "Returns the address of the current owner."
      },
      "ownerOf(uint256)": {
        "params": {
          "id": "Label as a string of the .eth domain to wrap"
        },
        "returns": {
          "owner": "The owner of the name"
        }
      },
      "recoverFunds(address,address,uint256)": {
        "details": "The contract is Ownable and only the owner can call the recover function.",
        "params": {
          "_amount": "The amount of tokens to recover.",
          "_to": "The address to send the tokens to.",
          "_token": "The address of the ERC20 token to recover"
        }
      },
      "registerAndWrapETH2LD(string,address,uint256,address,uint32,uint64)": {
        "details": "Registers a new .eth second-level domain and wraps it.      Only callable by authorised controllers.",
        "params": {
          "duration": "The duration, in seconds, to register the name for.",
          "expiry": "When the fuses will expire",
          "fuses": "Initial fuses to set",
          "label": "The label to register (Eg, 'foo' for 'foo.eth').",
          "resolver": "The resolver address to set on the ENS registry (optional).",
          "wrappedOwner": "The owner of the wrapped name."
        },
        "returns": {
          "registrarExpiry": "The expiry date of the new name on the .eth registrar, in seconds since the Unix epoch."
        }
      },
      "renew(uint256,uint256,uint32,uint64)": {
        "details": "Only callable by authorised controllers.",
        "params": {
          "duration": "The number of seconds to renew the name for.",
          "tokenId": "The hash of the label to register (eg, `keccak256('foo')`, for 'foo.eth')."
        },
        "returns": {
          "expires": "The expiry date of the name on the .eth registrar, in seconds since the Unix epoch."
        }
      },
      "renounceOwnership()": {
        "details": "Leaves the contract without owner. It will not be possible to call `onlyOwner` functions anymore. Can only be called by the current owner. NOTE: Renouncing ownership will leave the contract without an owner, thereby removing any functionality that is only available to the owner."
      },
      "safeBatchTransferFrom(address,address,uint256[],uint256[],bytes)": {
        "details": "See {IERC1155-safeBatchTransferFrom}."
      },
      "safeTransferFrom(address,address,uint256,uint256,bytes)": {
        "details": "See {IERC1155-safeTransferFrom}."
      },
      "setApprovalForAll(address,bool)": {
        "details": "See {IERC1155-setApprovalForAll}."
      },
      "setChildFuses(bytes32,bytes32,uint32,uint64)": {
        "params": {
          "expiry": "When the fuses will expire",
          "fuses": "Fuses to burn",
          "labelhash": "Labelhash of the name, e.g. vitalik.xyz would be keccak256('vitalik')",
          "parentNode": "Parent namehash of the name e.g. vitalik.xyz would be namehash('xyz')"
        }
      },
      "setFuses(bytes32,uint32)": {
        "params": {
          "fuses": "Fuses to burn (cannot burn PARENT_CANNOT_CONTROL)",
          "node": "Namehash of the name"
        },
        "returns": {
          "_0": "New fuses"
        }
      },
      "setMetadataService(address)": {
        "params": {
          "_metadataService": "The new metadata service"
        }
      },
      "setRecord(bytes32,address,address,uint64)": {
        "params": {
          "node": "Namehash of the name to set a record for",
          "owner": "New owner in the registry",
          "resolver": "Resolver contract",
          "ttl": "Time to live in the registry"
        }
      },
      "setResolver(bytes32,address)": {
        "params": {
          "node": "namehash of the name",
          "resolver": "the resolver contract"
        }
      },
      "setSubnodeOwner(bytes32,string,address,uint32,uint64)": {
        "params": {
          "expiry": "When the fuses will expire",
          "fuses": "Initial fuses for the wrapped subdomain",
          "label": "Label of the subdomain as a string",
          "owner": "New owner in the wrapper",
          "parentNode": "Parent namehash of the subdomain"
        },
        "returns": {
          "node": "Namehash of the subdomain"
        }
      },
      "setSubnodeRecord(bytes32,string,address,address,uint64,uint32,uint64)": {
        "params": {
          "expiry": "expiry date for the domain",
          "fuses": "initial fuses for the wrapped subdomain",
          "label": "label of the subdomain as a string",
          "owner": "new owner in the wrapper",
          "parentNode": "parent namehash of the subdomain",
          "resolver": "resolver contract in the registry",
          "ttl": "ttl in the regsitry"
        },
        "returns": {
          "node": "Namehash of the subdomain"
        }
      },
      "setTTL(bytes32,uint64)": {
        "params": {
          "node": "Namehash of the name",
          "ttl": "TTL in the registry"
        }
      },
      "setUpgradeContract(address)": {
        "details": "The default value of upgradeContract is the 0 address. Use the 0 address at any time to make the contract not upgradable.",
        "params": {
          "_upgradeAddress": "address of an upgraded contract"
        }
      },
      "transferOwnership(address)": {
        "details": "Transfers ownership of the contract to a new account (`newOwner`). Can only be called by the current owner."
      },
      "unwrap(bytes32,bytes32,address)": {
        "details": "Can be called by the owner in the wrapper or an authorised caller in the wrapper",
        "params": {
          "controller": "Sets the owner in the registry to this address",
          "labelhash": "Labelhash of the name, e.g. vitalik.xyz would be keccak256('vitalik')",
          "parentNode": "Parent namehash of the name e.g. vitalik.xyz would be namehash('xyz')"
        }
      },
      "unwrapETH2LD(bytes32,address,address)": {
        "details": "Can be called by the owner in the wrapper or an authorised caller in the wrapper",
        "params": {
          "controller": "Sets the owner in the registry to this address",
          "labelhash": "Labelhash of the .eth domain",
          "registrant": "Sets the owner in the .eth registrar to this address"
        }
      },
      "upgrade(bytes32,string,address,address)": {
        "details": "Can be called by the owner or an authorised caller Requires upgraded Namewrapper to permit old Namewrapper to call `setSubnodeRecord` for all names",
        "params": {
          "label": "Label as a string of the name to upgrade",
          "parentNode": "Namehash of the parent name",
          "resolver": "Resolver contract for this name",
          "wrappedOwner": "Owner of the name in this contract"
        }
      },
      "upgradeETH2LD(string,address,address)": {
        "details": "Can be called by the owner of the name in this contract",
        "params": {
          "label": "Label as a string of the .eth name to upgrade",
          "wrappedOwner": "The owner of the wrapped name"
        }
      },
      "uri(uint256)": {
        "params": {
          "tokenId": "The id of the token"
        },
        "returns": {
          "_0": "string uri of the metadata service"
        }
      },
      "wrap(bytes,address,address)": {
        "details": "Can be called by the owner in the registry or an authorised caller in the registry",
        "params": {
          "name": "The name to wrap, in DNS format",
          "resolver": "Resolver contract",
          "wrappedOwner": "Owner of the name in this contract"
        }
      },
      "wrapETH2LD(string,address,uint32,uint64,address)": {
        "details": "Can be called by the owner of the name on the .eth registrar or an authorised caller on the registrar",
        "params": {
          "expiry": "When the fuses will expire",
          "fuses": "Initial fuses to set",
          "label": "Label as a string of the .eth domain to wrap",
          "resolver": "Resolver contract address",
          "wrappedOwner": "Owner of the name in this contract"
        },
        "returns": {
          "_0": "Normalised expiry of when the fuses expire"
        }
      }
    },
    "version": 1
  },
  "userdoc": {
    "kind": "user",
    "methods": {
      "allFusesBurned(bytes32,uint32)": {
        "notice": "Checks all Fuses in the mask are burned for the node"
      },
      "getData(uint256)": {
        "notice": "Gets the data for a name"
      },
      "isTokenOwnerOrApproved(bytes32,address)": {
        "notice": "Checks if owner or approved by owner"
      },
      "isWrapped(bytes32)": {
        "notice": "Checks if a name is wrapped or not"
      },
      "ownerOf(uint256)": {
        "notice": "Gets the owner of a name"
      },
      "recoverFunds(address,address,uint256)": {
        "notice": "Recover ERC20 tokens sent to the contract by mistake."
      },
      "renew(uint256,uint256,uint32,uint64)": {
        "notice": "Renews a .eth second-level domain."
      },
      "setChildFuses(bytes32,bytes32,uint32,uint64)": {
        "notice": "Sets fuses of a name that you own the parent of. Can also be called by the owner of a .eth name"
      },
      "setFuses(bytes32,uint32)": {
        "notice": "Sets fuses of a name"
      },
      "setMetadataService(address)": {
        "notice": "Set the metadata service. Only the owner can do this"
      },
      "setRecord(bytes32,address,address,uint64)": {
        "notice": "Sets records for the name in the ENS Registry"
      },
      "setResolver(bytes32,address)": {
        "notice": "Sets resolver contract in the registry"
      },
      "setSubnodeOwner(bytes32,string,address,uint32,uint64)": {
        "notice": "Sets the subdomain owner in the registry and then wraps the subdomain"
      },
      "setSubnodeRecord(bytes32,string,address,address,uint64,uint32,uint64)": {
        "notice": "Sets the subdomain owner in the registry with records and then wraps the subdomain"
      },
      "setTTL(bytes32,uint64)": {
        "notice": "Sets TTL in the registry"
      },
      "setUpgradeContract(address)": {
        "notice": "Set the address of the upgradeContract of the contract. only admin can do this"
      },
      "unwrap(bytes32,bytes32,address)": {
        "notice": "Unwraps a non .eth domain, of any kind. Could be a DNSSEC name vitalik.xyz or a subdomain"
      },
      "unwrapETH2LD(bytes32,address,address)": {
        "notice": "Unwraps a .eth domain. e.g. vitalik.eth"
      },
      "upgrade(bytes32,string,address,address)": {
        "notice": "Upgrades a non .eth domain of any kind. Could be a DNSSEC name vitalik.xyz or a subdomain"
      },
      "upgradeETH2LD(string,address,address)": {
        "notice": "Upgrades a .eth wrapped domain by calling the wrapETH2LD function of the upgradeContract     and burning the token of this contract"
      },
      "uri(uint256)": {
        "notice": "Get the metadata uri"
      },
      "wrap(bytes,address,address)": {
        "notice": "Wraps a non .eth domain, of any kind. Could be a DNSSEC name vitalik.xyz or a subdomain"
      },
      "wrapETH2LD(string,address,uint32,uint64,address)": {
        "notice": "Wraps a .eth domain, creating a new token and sending the original ERC721 token to this contract"
      }
    },
    "version": 1
  },
  "storageLayout": {
    "storage": [
      {
        "astId": 545,
        "contract": "contracts/wrapper/NameWrapper.sol:NameWrapper",
        "label": "_owner",
        "offset": 0,
        "slot": "0",
        "type": "t_address"
      },
      {
        "astId": 16915,
        "contract": "contracts/wrapper/NameWrapper.sol:NameWrapper",
        "label": "_tokens",
        "offset": 0,
        "slot": "1",
        "type": "t_mapping(t_uint256,t_uint256)"
      },
      {
        "astId": 16921,
        "contract": "contracts/wrapper/NameWrapper.sol:NameWrapper",
        "label": "_operatorApprovals",
        "offset": 0,
        "slot": "2",
        "type": "t_mapping(t_address,t_mapping(t_address,t_bool))"
      },
      {
        "astId": 16851,
        "contract": "contracts/wrapper/NameWrapper.sol:NameWrapper",
        "label": "controllers",
        "offset": 0,
        "slot": "3",
        "type": "t_mapping(t_address,t_bool)"
      },
      {
        "astId": 18183,
        "contract": "contracts/wrapper/NameWrapper.sol:NameWrapper",
        "label": "metadataService",
        "offset": 0,
        "slot": "4",
        "type": "t_contract(IMetadataService)17777"
      },
      {
        "astId": 18188,
        "contract": "contracts/wrapper/NameWrapper.sol:NameWrapper",
        "label": "names",
        "offset": 0,
        "slot": "5",
        "type": "t_mapping(t_bytes32,t_bytes_storage)"
      },
      {
        "astId": 18197,
        "contract": "contracts/wrapper/NameWrapper.sol:NameWrapper",
        "label": "upgradeContract",
        "offset": 0,
        "slot": "6",
        "type": "t_contract(INameWrapperUpgrade)18088"
      }
    ],
    "types": {
      "t_address": {
        "encoding": "inplace",
        "label": "address",
        "numberOfBytes": "20"
      },
      "t_bool": {
        "encoding": "inplace",
        "label": "bool",
        "numberOfBytes": "1"
      },
      "t_bytes32": {
        "encoding": "inplace",
        "label": "bytes32",
        "numberOfBytes": "32"
      },
      "t_bytes_storage": {
        "encoding": "bytes",
        "label": "bytes",
        "numberOfBytes": "32"
      },
      "t_contract(IMetadataService)17777": {
        "encoding": "inplace",
        "label": "contract IMetadataService",
        "numberOfBytes": "20"
      },
      "t_contract(INameWrapperUpgrade)18088": {
        "encoding": "inplace",
        "label": "contract INameWrapperUpgrade",
        "numberOfBytes": "20"
      },
      "t_mapping(t_address,t_bool)": {
        "encoding": "mapping",
        "key": "t_address",
        "label": "mapping(address => bool)",
        "numberOfBytes": "32",
        "value": "t_bool"
      },
      "t_mapping(t_address,t_mapping(t_address,t_bool))": {
        "encoding": "mapping",
        "key": "t_address",
        "label": "mapping(address => mapping(address => bool))",
        "numberOfBytes": "32",
        "value": "t_mapping(t_address,t_bool)"
      },
      "t_mapping(t_bytes32,t_bytes_storage)": {
        "encoding": "mapping",
        "key": "t_bytes32",
        "label": "mapping(bytes32 => bytes)",
        "numberOfBytes": "32",
        "value": "t_bytes_storage"
      },
      "t_mapping(t_uint256,t_uint256)": {
        "encoding": "mapping",
        "key": "t_uint256",
        "label": "mapping(uint256 => uint256)",
        "numberOfBytes": "32",
        "value": "t_uint256"
      },
      "t_uint256": {
        "encoding": "inplace",
        "label": "uint256",
        "numberOfBytes": "32"
      }
    }
  }
}