{
  "address": "0x13F0659Ee6bb7484C884FEeFb7F75C93951ef837",
  "abi": [
    {
      "inputs": [
        {
          "internalType": "contract ENS",
          "name": "_ens",
          "type": "address"
        },
        {
          "internalType": "contract INameWrapper",
          "name": "wrapperAddress",
          "type": "address"
        },
        {
          "internalType": "address",
          "name": "_trustedETHController",
          "type": "address"
        },
        {
          "internalType": "address",
          "name": "_trustedReverseRegistrar",
          "type": "address"
        }
      ],
      "stateMutability": "nonpayable",
      "type": "constructor"
    },
    {
      "anonymous": false,
      "inputs": [
        {
          "indexed": true,
          "internalType": "bytes32",
          "name": "node",
          "type": "bytes32"
        },
        {
          "indexed": true,
          "internalType": "uint256",
          "name": "contentType",
          "type": "uint256"
        }
      ],
      "name": "ABIChanged",
      "type": "event"
    },
    {
      "anonymous": false,
      "inputs": [
        {
          "indexed": true,
          "internalType": "bytes32",
          "name": "node",
          "type": "bytes32"
        },
        {
          "indexed": false,
          "internalType": "address",
          "name": "a",
          "type": "address"
        }
      ],
      "name": "AddrChanged",
      "type": "event"
    },
    {
      "anonymous": false,
      "inputs": [
        {
          "indexed": true,
          "internalType": "bytes32",
          "name": "node",
          "type": "bytes32"
        },
        {
          "indexed": false,
          "internalType": "uint256",
          "name": "coinType",
          "type": "uint256"
        },
        {
          "indexed": false,
          "internalType": "bytes",
          "name": "newAddress",
          "type": "bytes"
        }
      ],
      "name": "AddressChanged",
      "type": "event"
    },
    {
      "anonymous": false,
      "inputs": [
        {
          "indexed": true,
          "internalType": "address",
          "name": "owner",
          "type": "address"
        },
        {
          "indexed": true,
          "internalType": "address",
          "name": "operator",
          "type": "address"
        },
        {
          "indexed": false,
          "internalType": "bool",
          "name": "approved",
          "type": "bool"
        }
      ],
      "name": "ApprovalForAll",
      "type": "event"
    },
    {
      "anonymous": false,
      "inputs": [
        {
          "indexed": true,
          "internalType": "bytes32",
          "name": "node",
          "type": "bytes32"
        },
        {
          "indexed": false,
          "internalType": "bytes",
          "name": "hash",
          "type": "bytes"
        }
      ],
      "name": "ContenthashChanged",
      "type": "event"
    },
    {
      "anonymous": false,
      "inputs": [
        {
          "indexed": true,
          "internalType": "bytes32",
          "name": "node",
          "type": "bytes32"
        },
        {
          "indexed": false,
          "internalType": "bytes",
          "name": "name",
          "type": "bytes"
        },
        {
          "indexed": false,
          "internalType": "uint16",
          "name": "resource",
          "type": "uint16"
        },
        {
          "indexed": false,
          "internalType": "bytes",
          "name": "record",
          "type": "bytes"
        }
      ],
      "name": "DNSRecordChanged",
      "type": "event"
    },
    {
      "anonymous": false,
      "inputs": [
        {
          "indexed": true,
          "internalType": "bytes32",
          "name": "node",
          "type": "bytes32"
        },
        {
          "indexed": false,
          "internalType": "bytes",
          "name": "name",
          "type": "bytes"
        },
        {
          "indexed": false,
          "internalType": "uint16",
          "name": "resource",
          "type": "uint16"
        }
      ],
      "name": "DNSRecordDeleted",
      "type": "event"
    },
    {
      "anonymous": false,
      "inputs": [
        {
          "indexed": true,
          "internalType": "bytes32",
          "name": "node",
          "type": "bytes32"
        },
        {
          "indexed": false,
          "internalType": "bytes",
          "name": "lastzonehash",
          "type": "bytes"
        },
        {
          "indexed": false,
          "internalType": "bytes",
          "name": "zonehash",
          "type": "bytes"
        }
      ],
      "name": "DNSZonehashChanged",
      "type": "event"
    },
    {
      "anonymous": false,
      "inputs": [
        {
          "indexed": true,
          "internalType": "bytes32",
          "name": "node",
          "type": "bytes32"
        },
        {
          "indexed": true,
          "internalType": "bytes4",
          "name": "interfaceID",
          "type": "bytes4"
        },
        {
          "indexed": false,
          "internalType": "address",
          "name": "implementer",
          "type": "address"
        }
      ],
      "name": "InterfaceChanged",
      "type": "event"
    },
    {
      "anonymous": false,
      "inputs": [
        {
          "indexed": true,
          "internalType": "bytes32",
          "name": "node",
          "type": "bytes32"
        },
        {
          "indexed": false,
          "internalType": "string",
          "name": "name",
          "type": "string"
        }
      ],
      "name": "NameChanged",
      "type": "event"
    },
    {
      "anonymous": false,
      "inputs": [
        {
          "indexed": true,
          "internalType": "bytes32",
          "name": "node",
          "type": "bytes32"
        },
        {
          "indexed": false,
          "internalType": "bytes32",
          "name": "x",
          "type": "bytes32"
        },
        {
          "indexed": false,
          "internalType": "bytes32",
          "name": "y",
          "type": "bytes32"
        }
      ],
      "name": "PubkeyChanged",
      "type": "event"
    },
    {
      "anonymous": false,
      "inputs": [
        {
          "indexed": true,
          "internalType": "bytes32",
          "name": "node",
          "type": "bytes32"
        },
        {
          "indexed": true,
          "internalType": "string",
          "name": "indexedKey",
          "type": "string"
        },
        {
          "indexed": false,
          "internalType": "string",
          "name": "key",
          "type": "string"
        },
        {
          "indexed": false,
          "internalType": "string",
          "name": "value",
          "type": "string"
        }
      ],
      "name": "TextChanged",
      "type": "event"
    },
    {
      "anonymous": false,
      "inputs": [
        {
          "indexed": true,
          "internalType": "bytes32",
          "name": "node",
          "type": "bytes32"
        },
        {
          "indexed": false,
          "internalType": "uint64",
          "name": "newVersion",
          "type": "uint64"
        }
      ],
      "name": "VersionChanged",
      "type": "event"
    },
    {
      "inputs": [
        {
          "internalType": "bytes32",
          "name": "node",
          "type": "bytes32"
        },
        {
          "internalType": "uint256",
          "name": "contentTypes",
          "type": "uint256"
        }
      ],
      "name": "ABI",
      "outputs": [
        {
          "internalType": "uint256",
          "name": "",
          "type": "uint256"
        },
        {
          "internalType": "bytes",
          "name": "",
          "type": "bytes"
        }
      ],
      "stateMutability": "view",
      "type": "function"
    },
    {
      "inputs": [
        {
          "internalType": "bytes32",
          "name": "node",
          "type": "bytes32"
        }
      ],
      "name": "addr",
      "outputs": [
        {
          "internalType": "address payable",
          "name": "",
          "type": "address"
        }
      ],
      "stateMutability": "view",
      "type": "function"
    },
    {
      "inputs": [
        {
          "internalType": "bytes32",
          "name": "node",
          "type": "bytes32"
        },
        {
          "internalType": "uint256",
          "name": "coinType",
          "type": "uint256"
        }
      ],
      "name": "addr",
      "outputs": [
        {
          "internalType": "bytes",
          "name": "",
          "type": "bytes"
        }
      ],
      "stateMutability": "view",
      "type": "function"
    },
    {
      "inputs": [
        {
          "internalType": "bytes32",
          "name": "node",
          "type": "bytes32"
        }
      ],
      "name": "clearRecords",
      "outputs": [],
      "stateMutability": "nonpayable",
      "type": "function"
    },
    {
      "inputs": [
        {
          "internalType": "bytes32",
          "name": "node",
          "type": "bytes32"
        }
      ],
      "name": "contenthash",
      "outputs": [
        {
          "internalType": "bytes",
          "name": "",
          "type": "bytes"
        }
      ],
      "stateMutability": "view",
      "type": "function"
    },
    {
      "inputs": [
        {
          "internalType": "bytes32",
          "name": "node",
          "type": "bytes32"
        },
        {
          "internalType": "bytes32",
          "name": "name",
          "type": "bytes32"
        },
        {
          "internalType": "uint16",
          "name": "resource",
          "type": "uint16"
        }
      ],
      "name": "dnsRecord",
      "outputs": [
        {
          "internalType": "bytes",
          "name": "",
          "type": "bytes"
        }
      ],
      "stateMutability": "view",
      "type": "function"
    },
    {
      "inputs": [
        {
          "internalType": "bytes32",
          "name": "node",
          "type": "bytes32"
        },
        {
          "internalType": "bytes32",
          "name": "name",
          "type": "bytes32"
        }
      ],
      "name": "hasDNSRecords",
      "outputs": [
        {
          "internalType": "bool",
          "name": "",
          "type": "bool"
        }
      ],
      "stateMutability": "view",
      "type": "function"
    },
    {
      "inputs": [
        {
          "internalType": "bytes32",
          "name": "node",
          "type": "bytes32"
        },
        {
          "internalType": "bytes4",
          "name": "interfaceID",
          "type": "bytes4"
        }
      ],
      "name": "interfaceImplementer",
      "outputs": [
        {
          "internalType": "address",
          "name": "",
          "type": "address"
        }
      ],
      "stateMutability": "view",
      "type": "function"
    },
    {
      "inputs": [
        {
          "internalType": "address",
          "name": "account",
          "type": "address"
        },
        {
          "internalType": "address",
          "name": "operator",
          "type": "address"
        }
      ],
      "name": "isApprovedForAll",
      "outputs": [
        {
          "internalType": "bool",
          "name": "",
          "type": "bool"
        }
      ],
      "stateMutability": "view",
      "type": "function"
    },
    {
      "inputs": [
        {
          "internalType": "bytes[]",
          "name": "data",
          "type": "bytes[]"
        }
      ],
      "name": "multicall",
      "outputs": [
        {
          "internalType": "bytes[]",
          "name": "results",
          "type": "bytes[]"
        }
      ],
      "stateMutability": "nonpayable",
      "type": "function"
    },
    {
      "inputs": [
        {
          "internalType": "bytes32",
          "name": "nodehash",
          "type": "bytes32"
        },
        {
          "internalType": "bytes[]",
          "name": "data",
          "type": "bytes[]"
        }
      ],
      "name": "multicallWithNodeCheck",
      "outputs": [
        {
          "internalType": "bytes[]",
          "name": "results",
          "type": "bytes[]"
        }
      ],
      "stateMutability": "nonpayable",
      "type": "function"
    },
    {
      "inputs": [
        {
          "internalType": "bytes32",
          "name": "node",
          "type": "bytes32"
        }
      ],
      "name": "name",
      "outputs": [
        {
          "internalType": "string",
          "name": "",
          "type": "string"
        }
      ],
      "stateMutability": "view",
      "type": "function"
    },
    {
      "inputs": [
        {
          "internalType": "bytes32",
          "name": "node",
          "type": "bytes32"
        }
      ],
      "name": "pubkey",
      "outputs": [
        {
          "internalType": "bytes32",
          "name": "x",
          "type": "bytes32"
        },
        {
          "internalType": "bytes32",
          "name": "y",
          "type": "bytes32"
        }
      ],
      "stateMutability": "view",
      "type": "function"
    },
    {
      "inputs": [
        {
          "internalType": "bytes32",
          "name": "",
          "type": "bytes32"
        }
      ],
      "name": "recordVersions",
      "outputs": [
        {
          "internalType": "uint64",
          "name": "",
          "type": "uint64"
        }
      ],
      "stateMutability": "view",
      "type": "function"
    },
    {
      "inputs": [
        {
          "internalType": "bytes32",
          "name": "node",
          "type": "bytes32"
        },
        {
          "internalType": "uint256",
          "name": "contentType",
          "type": "uint256"
        },
        {
          "internalType": "bytes",
          "name": "data",
          "type": "bytes"
        }
      ],
      "name": "setABI",
      "outputs": [],
      "stateMutability": "nonpayable",
      "type": "function"
    },
    {
      "inputs": [
        {
          "internalType": "bytes32",
          "name": "node",
          "type": "bytes32"
        },
        {
          "internalType": "uint256",
          "name": "coinType",
          "type": "uint256"
        },
        {
          "internalType": "bytes",
          "name": "a",
          "type": "bytes"
        }
      ],
      "name": "setAddr",
      "outputs": [],
      "stateMutability": "nonpayable",
      "type": "function"
    },
    {
      "inputs": [
        {
          "internalType": "bytes32",
          "name": "node",
          "type": "bytes32"
        },
        {
          "internalType": "address",
          "name": "a",
          "type": "address"
        }
      ],
      "name": "setAddr",
      "outputs": [],
      "stateMutability": "nonpayable",
      "type": "function"
    },
    {
      "inputs": [
        {
          "internalType": "address",
          "name": "operator",
          "type": "address"
        },
        {
          "internalType": "bool",
          "name": "approved",
          "type": "bool"
        }
      ],
      "name": "setApprovalForAll",
      "outputs": [],
      "stateMutability": "nonpayable",
      "type": "function"
    },
    {
      "inputs": [
        {
          "internalType": "bytes32",
          "name": "node",
          "type": "bytes32"
        },
        {
          "internalType": "bytes",
          "name": "hash",
          "type": "bytes"
        }
      ],
      "name": "setContenthash",
      "outputs": [],
      "stateMutability": "nonpayable",
      "type": "function"
    },
    {
      "inputs": [
        {
          "internalType": "bytes32",
          "name": "node",
          "type": "bytes32"
        },
        {
          "internalType": "bytes",
          "name": "data",
          "type": "bytes"
        }
      ],
      "name": "setDNSRecords",
      "outputs": [],
      "stateMutability": "nonpayable",
      "type": "function"
    },
    {
      "inputs": [
        {
          "internalType": "bytes32",
          "name": "node",
          "type": "bytes32"
        },
        {
          "internalType": "bytes4",
          "name": "interfaceID",
          "type": "bytes4"
        },
        {
          "internalType": "address",
          "name": "implementer",
          "type": "address"
        }
      ],
      "name": "setInterface",
      "outputs": [],
      "stateMutability": "nonpayable",
      "type": "function"
    },
    {
      "inputs": [
        {
          "internalType": "bytes32",
          "name": "node",
          "type": "bytes32"
        },
        {
          "internalType": "string",
          "name": "newName",
          "type": "string"
        }
      ],
      "name": "setName",
      "outputs": [],
      "stateMutability": "nonpayable",
      "type": "function"
    },
    {
      "inputs": [
        {
          "internalType": "bytes32",
          "name": "node",
          "type": "bytes32"
        },
        {
          "internalType": "bytes32",
          "name": "x",
          "type": "bytes32"
        },
        {
          "internalType": "bytes32",
          "name": "y",
          "type": "bytes32"
        }
      ],
      "name": "setPubkey",
      "outputs": [],
      "stateMutability": "nonpayable",
      "type": "function"
    },
    {
      "inputs": [
        {
          "internalType": "bytes32",
          "name": "node",
          "type": "bytes32"
        },
        {
          "internalType": "string",
          "name": "key",
          "type": "string"
        },
        {
          "internalType": "string",
          "name": "value",
          "type": "string"
        }
      ],
      "name": "setText",
      "outputs": [],
      "stateMutability": "nonpayable",
      "type": "function"
    },
    {
      "inputs": [
        {
          "internalType": "bytes32",
          "name": "node",
          "type": "bytes32"
        },
        {
          "internalType": "bytes",
          "name": "hash",
          "type": "bytes"
        }
      ],
      "name": "setZonehash",
      "outputs": [],
      "stateMutability": "nonpayable",
      "type": "function"
    },
    {
      "inputs": [
        {
          "internalType": "bytes4",
          "name": "interfaceID",
          "type": "bytes4"
        }
      ],
      "name": "supportsInterface",
      "outputs": [
        {
          "internalType": "bool",
          "name": "",
          "type": "bool"
        }
      ],
      "stateMutability": "view",
      "type": "function"
    },
    {
      "inputs": [
        {
          "internalType": "bytes32",
          "name": "node",
          "type": "bytes32"
        },
        {
          "internalType": "string",
          "name": "key",
          "type": "string"
        }
      ],
      "name": "text",
      "outputs": [
        {
          "internalType": "string",
          "name": "",
          "type": "string"
        }
      ],
      "stateMutability": "view",
      "type": "function"
    },
    {
      "inputs": [
        {
          "internalType": "bytes32",
          "name": "node",
          "type": "bytes32"
        }
      ],
      "name": "zonehash",
      "outputs": [
        {
          "internalType": "bytes",
          "name": "",
          "type": "bytes"
        }
      ],
      "stateMutability": "view",
      "type": "function"
    }
  ],
  "transactionHash": "0x7d4cabd1dcdda07c4e5cca6d43cfd2225f65de75b2617dcd2ec598ab5747fc89",
  "args": [
    "0x00000000000C2E074eC69A0dFb2997BA6C7d2e1e",
    "0xF82155e2a43Be0871821E9654Fc8Ae894FB8307C",
    "0xa5627AB7Ae47063B533622C34FEBDb52d3281dF8",
    "0x806246b52f8cB61655d3038c58D2f63Aa55d4edE"
  ],
  "numDeployments": 2,
  "solcInputHash": "e0f6f00faee6ee60a1220d91a962cdaa",
  "bytecode": "0x6101006040523480156200001257600080fd5b506040516200335d3803806200335d833981016040819052620000359162000071565b6001600160a01b0393841660805291831660a052821660c0521660e052620000d9565b6001600160a01b03811681146200006e57600080fd5b50565b600080600080608085870312156200008857600080fd5b8451620000958162000058565b6020860151909450620000a88162000058565b6040860151909350620000bb8162000058565b6060860151909250620000ce8162000058565b939692955090935050565b60805160a05160c05160e0516132436200011a600039600061181c015260006117dd01526000818161190101526119810152600061187d01526132436000f3fe608060405234801561001057600080fd5b50600436106101c45760003560e01c806377372213116100f9578063ce3decdc11610097578063e32954eb11610071578063e32954eb146104a4578063e59d895d146104b7578063e985e9c5146104ca578063f1cb7e061461051357600080fd5b8063ce3decdc1461043b578063d5fa2b001461044e578063d700ff331461046157600080fd5b8063a8fa5682116100d3578063a8fa56821461039c578063ac9650d8146103af578063bc1c58d1146103cf578063c8690233146103e257600080fd5b806377372213146103635780638b95dd7114610376578063a22cb4651461038957600080fd5b80633603d7581161016657806359d1d43c1161014057806359d1d43c1461030a5780635c98042b1461032a578063623195b01461033d578063691f34311461035057600080fd5b80633603d758146102985780633b3b57de146102ab5780634cbf6ba4146102be57600080fd5b8063124a319c116101a2578063124a319c146102195780632203ab561461025157806329cd62ea14610272578063304e6ade1461028557600080fd5b806301ffc9a7146101c95780630af179d7146101f157806310f13a8c14610206575b600080fd5b6101dc6101d73660046126f1565b610526565b60405190151581526020015b60405180910390f35b6102046101ff36600461274e565b610537565b005b61020461021436600461279a565b610741565b61022c610227366004612814565b61080e565b60405173ffffffffffffffffffffffffffffffffffffffff90911681526020016101e8565b61026461025f366004612840565b610b69565b6040516101e89291906128b2565b6102046102803660046128cb565b610ca0565b61020461029336600461274e565b610d3b565b6102046102a63660046128f7565b610db7565b61022c6102b93660046128f7565b610e5a565b6101dc6102cc366004612840565b6000828152602081815260408083205467ffffffffffffffff1683526006825280832094835293815283822092825291909152205461ffff16151590565b61031d61031836600461274e565b610e8c565b6040516101e89190612910565b61031d6103383660046128f7565b610f6c565b61020461034b366004612923565b61102b565b61031d61035e3660046128f7565b6110c8565b61020461037136600461274e565b611102565b6102046103843660046129a5565b61117e565b610204610397366004612a8b565b61126b565b61031d6103aa366004612ac9565b6113ac565b6103c26103bd366004612b4e565b6113fa565b6040516101e89190612b90565b61031d6103dd3660046128f7565b611408565b6104266103f03660046128f7565b6000818152602081815260408083205467ffffffffffffffff168352600982528083209383529290522080546001909101549091565b604080519283526020830191909152016101e8565b61020461044936600461274e565b611442565b61020461045c366004612c10565b611585565b61048b61046f3660046128f7565b60006020819052908152604090205467ffffffffffffffff1681565b60405167ffffffffffffffff90911681526020016101e8565b6103c26104b2366004612c35565b6115ac565b6102046104c5366004612c74565b6115c1565b6101dc6104d8366004612ca9565b73ffffffffffffffffffffffffffffffffffffffff9182166000908152600b6020908152604080832093909416825291909152205460ff1690565b61031d610521366004612840565b6116a5565b60006105318261176d565b92915050565b82610541816117c3565b61054a57600080fd5b600084815260208181526040808320548151601f870184900484028101840190925285825283926060928392859267ffffffffffffffff9091169183916105b09183918d908d90819084018382808284376000920191909152509293925050611a5c9050565b90505b805151602082015110156106da578661ffff1660000361061857806040015196506105dd81611abd565b9450846040516020016105f09190612cd7565b60405160208183030381529060405280519060200120925061061181611ade565b93506106cc565b600061062382611abd565b9050816040015161ffff168861ffff1614158061064757506106458682611afa565b155b156106ca576106a38c878a8e8e8080601f016020809104026020016040519081016040528093929190818152602001838380828437600092019190915250505060208801518d915061069a908290612d22565b8b51158a611b18565b8160400151975081602001519650809550858051906020012093506106c782611ade565b94505b505b6106d581611d85565b6105b3565b50835115610735576107358a85888c8c8080601f0160208091040260200160405190810160405280939291908181526020018383808284376000920191909152508c925061072c91508290508f612d22565b89511588611b18565b50505050505050505050565b8461074b816117c3565b61075457600080fd5b6000868152602081815260408083205467ffffffffffffffff168352600a8252808320898452909152908190209051849184916107949089908990612d35565b908152602001604051809103902091826107af929190612de6565b5084846040516107c0929190612d35565b6040518091039020867f448bc014f1536726cf8d54ff3d6481ed3cbc683c2591ca204274009afa09b1a1878787876040516107fe9493929190612ed1565b60405180910390a3505050505050565b6000828152602081815260408083205467ffffffffffffffff1683526007825280832085845282528083207fffffffff000000000000000000000000000000000000000000000000000000008516845290915281205473ffffffffffffffffffffffffffffffffffffffff168015610887579050610531565b600061089285610e5a565b905073ffffffffffffffffffffffffffffffffffffffff81166108ba57600092505050610531565b6040517f01ffc9a7000000000000000000000000000000000000000000000000000000006024820152600090819073ffffffffffffffffffffffffffffffffffffffff84169060440160408051601f198184030181529181526020820180517bffffffffffffffffffffffffffffffffffffffffffffffffffffffff167f01ffc9a700000000000000000000000000000000000000000000000000000000179052516109669190612cd7565b600060405180830381855afa9150503d80600081146109a1576040519150601f19603f3d011682016040523d82523d6000602084013e6109a6565b606091505b50915091508115806109b9575060208151105b806109fb575080601f815181106109d2576109d2612f03565b01602001517fff0000000000000000000000000000000000000000000000000000000000000016155b15610a0d576000945050505050610531565b6040517fffffffff000000000000000000000000000000000000000000000000000000008716602482015273ffffffffffffffffffffffffffffffffffffffff84169060440160408051601f198184030181529181526020820180517bffffffffffffffffffffffffffffffffffffffffffffffffffffffff167f01ffc9a70000000000000000000000000000000000000000000000000000000017905251610ab69190612cd7565b600060405180830381855afa9150503d8060008114610af1576040519150601f19603f3d011682016040523d82523d6000602084013e610af6565b606091505b509092509050811580610b0a575060208151105b80610b4c575080601f81518110610b2357610b23612f03565b01602001517fff0000000000000000000000000000000000000000000000000000000000000016155b15610b5e576000945050505050610531565b509095945050505050565b6000828152602081815260408083205467ffffffffffffffff168352600180835281842086855290925282206060915b848111610c805780851615801590610bc9575060008181526020839052604081208054610bc590612d45565b9050115b15610c785780826000838152602001908152602001600020808054610bed90612d45565b80601f0160208091040260200160405190810160405280929190818152602001828054610c1990612d45565b8015610c665780601f10610c3b57610100808354040283529160200191610c66565b820191906000526020600020905b815481529060010190602001808311610c4957829003601f168201915b50505050509050935093505050610c99565b60011b610b99565b5060006040518060200160405280600081525092509250505b9250929050565b82610caa816117c3565b610cb357600080fd5b604080518082018252848152602080820185815260008881528083528481205467ffffffffffffffff1681526009835284812089825283528490209251835551600190920191909155815185815290810184905285917f1d6f5e03d3f63eb58751986629a5439baee5079ff04f345becb66e23eb154e4691015b60405180910390a250505050565b82610d45816117c3565b610d4e57600080fd5b6000848152602081815260408083205467ffffffffffffffff168352600382528083208784529091529020610d84838583612de6565b50837fe379c1624ed7e714cc0937528a32359d69d5281337765313dba4e081b72d75788484604051610d2d929190612f32565b80610dc1816117c3565b610dca57600080fd5b6000828152602081905260408120805467ffffffffffffffff1691610dee83612f46565b82546101009290920a67ffffffffffffffff818102199093169183160217909155600084815260208181526040918290205491519190921681528492507fc6621ccb8f3f5a04bb6502154b2caf6adf5983fe76dfef1cfc9c42e3579db444910160405180910390a25050565b600080610e6883603c6116a5565b90508051600003610e7c5750600092915050565b610e8581611e6d565b9392505050565b6000838152602081815260408083205467ffffffffffffffff168352600a825280832086845290915290819020905160609190610ecc9085908590612d35565b90815260200160405180910390208054610ee590612d45565b80601f0160208091040260200160405190810160405280929190818152602001828054610f1190612d45565b8015610f5e5780601f10610f3357610100808354040283529160200191610f5e565b820191906000526020600020905b815481529060010190602001808311610f4157829003601f168201915b505050505090509392505050565b6000818152602081815260408083205467ffffffffffffffff168352600482528083208484529091529020805460609190610fa690612d45565b80601f0160208091040260200160405190810160405280929190818152602001828054610fd290612d45565b801561101f5780601f10610ff45761010080835404028352916020019161101f565b820191906000526020600020905b81548152906001019060200180831161100257829003601f168201915b50505050509050919050565b83611035816117c3565b61103e57600080fd5b8361104a600182612d22565b161561105557600080fd5b6000858152602081815260408083205467ffffffffffffffff1683526001825280832088845282528083208784529091529020611093838583612de6565b50604051849086907faa121bbeef5f32f5961a2a28966e769023910fc9479059ee3495d4c1a696efe390600090a35050505050565b6000818152602081815260408083205467ffffffffffffffff168352600882528083208484529091529020805460609190610fa690612d45565b8261110c816117c3565b61111557600080fd5b6000848152602081815260408083205467ffffffffffffffff16835260088252808320878452909152902061114b838583612de6565b50837fb7d29e911041e8d9b843369e890bcb72c9388692ba48b65ac54e7214c4c348f78484604051610d2d929190612f32565b82611188816117c3565b61119157600080fd5b837f65412581168e88a1e60c6459d7f44ae83ad0832e670826c05a4e2476b57af75284846040516111c39291906128b2565b60405180910390a2603c830361122757837f52d7d861f09ab3d26239d492e8968629f95e9e318cf0b73bfddc441522a15fd26111fe84611e6d565b60405173ffffffffffffffffffffffffffffffffffffffff909116815260200160405180910390a25b6000848152602081815260408083205467ffffffffffffffff16835260028252808320878452825280832086845290915290206112648382612f6d565b5050505050565b73ffffffffffffffffffffffffffffffffffffffff82163303611315576040517f08c379a000000000000000000000000000000000000000000000000000000000815260206004820152602960248201527f455243313135353a2073657474696e6720617070726f76616c2073746174757360448201527f20666f722073656c66000000000000000000000000000000000000000000000060648201526084015b60405180910390fd5b336000818152600b6020908152604080832073ffffffffffffffffffffffffffffffffffffffff87168085529083529281902080547fffffffffffffffffffffffffffffffffffffffffffffffffffffffffffffff001686151590811790915590519081529192917f17307eab39ab6107e8899845ad3d59bd9653f200f220920489ca2b5937696c31910160405180910390a35050565b6000838152602081815260408083205467ffffffffffffffff168352600582528083208684528252808320858452825280832061ffff851684529091529020805460609190610ee590612d45565b6060610e8560008484611e95565b6000818152602081815260408083205467ffffffffffffffff168352600382528083208484529091529020805460609190610fa690612d45565b8261144c816117c3565b61145557600080fd5b6000848152602081815260408083205467ffffffffffffffff16808452600483528184208885529092528220805491929161148f90612d45565b80601f01602080910402602001604051908101604052809291908181526020018280546114bb90612d45565b80156115085780601f106114dd57610100808354040283529160200191611508565b820191906000526020600020905b8154815290600101906020018083116114eb57829003601f168201915b5050505067ffffffffffffffff841660009081526004602090815260408083208b845290915290209192506115409050858783612de6565b50857f8f15ed4b723ef428f250961da8315675b507046737e19319fc1a4d81bfe87f858287876040516115759392919061302d565b60405180910390a2505050505050565b8161158f816117c3565b61159857600080fd5b6115a783603c61038485612088565b505050565b60606115b9848484611e95565b949350505050565b826115cb816117c3565b6115d457600080fd5b6000848152602081815260408083205467ffffffffffffffff1683526007825280832087845282528083207fffffffff0000000000000000000000000000000000000000000000000000000087168085529083529281902080547fffffffffffffffffffffffff00000000000000000000000000000000000000001673ffffffffffffffffffffffffffffffffffffffff8716908117909155905190815286917f7c69f06bea0bdef565b709e93a147836b0063ba2dd89f02d0b7e8d931e6a6daa910160405180910390a350505050565b6000828152602081815260408083205467ffffffffffffffff16835260028252808320858452825280832084845290915290208054606091906116e790612d45565b80601f016020809104026020016040519081016040528092919081815260200182805461171390612d45565b80156117605780601f1061173557610100808354040283529160200191611760565b820191906000526020600020905b81548152906001019060200180831161174357829003601f168201915b5050505050905092915050565b60007fffffffff0000000000000000000000000000000000000000000000000000000082167f59d1d43c0000000000000000000000000000000000000000000000000000000014806105315750610531826120c1565b60003373ffffffffffffffffffffffffffffffffffffffff7f000000000000000000000000000000000000000000000000000000000000000016148061183e57503373ffffffffffffffffffffffffffffffffffffffff7f000000000000000000000000000000000000000000000000000000000000000016145b1561184b57506001919050565b6040517f02571be3000000000000000000000000000000000000000000000000000000008152600481018390526000907f000000000000000000000000000000000000000000000000000000000000000073ffffffffffffffffffffffffffffffffffffffff16906302571be390602401602060405180830381865afa1580156118d9573d6000803e3d6000fd5b505050506040513d601f19601f820116820180604052508101906118fd919061305d565b90507f000000000000000000000000000000000000000000000000000000000000000073ffffffffffffffffffffffffffffffffffffffff168173ffffffffffffffffffffffffffffffffffffffff1603611a04576040517f6352211e000000000000000000000000000000000000000000000000000000008152600481018490527f000000000000000000000000000000000000000000000000000000000000000073ffffffffffffffffffffffffffffffffffffffff1690636352211e90602401602060405180830381865afa1580156119dd573d6000803e3d6000fd5b505050506040513d601f19601f82011682018060405250810190611a01919061305d565b90505b73ffffffffffffffffffffffffffffffffffffffff8116331480610e85575073ffffffffffffffffffffffffffffffffffffffff81166000908152600b6020908152604080832033845290915290205460ff16610e85565b611aaa6040518060e001604052806060815260200160008152602001600061ffff168152602001600061ffff168152602001600063ffffffff16815260200160008152602001600081525090565b82815260c0810182905261053181611d85565b6020810151815160609161053191611ad59082612117565b84519190612171565b60a081015160c082015160609161053191611ad5908290612d22565b600081518351148015610e855750610e8583600084600087516121e8565b865160208801206000611b2c878787612171565b90508315611c565767ffffffffffffffff831660009081526005602090815260408083208d84528252808320858452825280832061ffff8c16845290915290208054611b7790612d45565b159050611bd65767ffffffffffffffff831660009081526006602090815260408083208d845282528083208584529091528120805461ffff1691611bba8361307a565b91906101000a81548161ffff021916908361ffff160217905550505b67ffffffffffffffff831660009081526005602090815260408083208d84528252808320858452825280832061ffff8c1684529091528120611c1791612666565b897f03528ed0c2a3ebc993b12ce3c16bb382f9c7d88ef7d8a1bf290eaf35955a12078a8a604051611c49929190613098565b60405180910390a2610735565b67ffffffffffffffff831660009081526005602090815260408083208d84528252808320858452825280832061ffff8c16845290915290208054611c9990612d45565b9050600003611cfa5767ffffffffffffffff831660009081526006602090815260408083208d845282528083208584529091528120805461ffff1691611cde836130be565b91906101000a81548161ffff021916908361ffff160217905550505b67ffffffffffffffff831660009081526005602090815260408083208d84528252808320858452825280832061ffff8c1684529091529020611d3c8282612f6d565b50897f52a608b3303a48862d07a73d82fa221318c0027fbbcfb1b2329bface3f19ff2b8a8a84604051611d71939291906130d5565b60405180910390a250505050505050505050565b60c08101516020820181905281515111611d9c5750565b6000611db082600001518360200151612117565b8260200151611dbf9190613104565b8251909150611dce908261220b565b61ffff166040830152611de2600282613104565b8251909150611df1908261220b565b61ffff166060830152611e05600282613104565b8251909150611e149082612233565b63ffffffff166080830152611e2a600482613104565b8251909150600090611e3c908361220b565b61ffff169050611e4d600283613104565b60a084018190529150611e608183613104565b60c0909301929092525050565b60008151601414611e7d57600080fd5b50602001516c01000000000000000000000000900490565b60608167ffffffffffffffff811115611eb057611eb0612976565b604051908082528060200260200182016040528015611ee357816020015b6060815260200190600190039081611ece5790505b50905060005b82811015612080578415611fc8576000848483818110611f0b57611f0b612f03565b9050602002810190611f1d9190613117565b611f2c9160249160049161317c565b611f35916131a6565b9050858114611fc6576040517f08c379a000000000000000000000000000000000000000000000000000000000815260206004820152603460248201527f6d756c746963616c6c3a20416c6c207265636f726473206d757374206861766560448201527f2061206d61746368696e67206e616d6568617368000000000000000000000000606482015260840161130c565b505b60008030868685818110611fde57611fde612f03565b9050602002810190611ff09190613117565b604051611ffe929190612d35565b600060405180830381855af49150503d8060008114612039576040519150601f19603f3d011682016040523d82523d6000602084013e61203e565b606091505b50915091508161204d57600080fd5b8084848151811061206057612060612f03565b602002602001018190525050508080612078906131c4565b915050611ee9565b509392505050565b6040805160148082528183019092526060916020820181803683375050506c010000000000000000000000009290920260208301525090565b60007fffffffff0000000000000000000000000000000000000000000000000000000082167fc869023300000000000000000000000000000000000000000000000000000000148061053157506105318261225d565b6000815b8351811061212b5761212b6131de565b600061213785836122b3565b60ff169050612147816001613104565b6121519083613104565b9150806000036121615750612167565b5061211b565b6115b98382612d22565b82516060906121808385613104565b111561218b57600080fd5b60008267ffffffffffffffff8111156121a6576121a6612976565b6040519080825280601f01601f1916602001820160405280156121d0576020820181803683370190505b50905060208082019086860101610b5e8282876122d7565b60006121f584848461232d565b61220087878561232d565b149695505050505050565b815160009061221b836002613104565b111561222657600080fd5b50016002015161ffff1690565b8151600090612243836004613104565b111561224e57600080fd5b50016004015163ffffffff1690565b60007fffffffff0000000000000000000000000000000000000000000000000000000082167f691f3431000000000000000000000000000000000000000000000000000000001480610531575061053182612351565b60008282815181106122c7576122c7612f03565b016020015160f81c905092915050565b6020811061230f57815183526122ee602084613104565b92506122fb602083613104565b9150612308602082612d22565b90506122d7565b905182516020929092036101000a6000190180199091169116179052565b825160009061233c8385613104565b111561234757600080fd5b5091016020012090565b60007fffffffff0000000000000000000000000000000000000000000000000000000082167f124a319c00000000000000000000000000000000000000000000000000000000148061053157506105318260007fffffffff0000000000000000000000000000000000000000000000000000000082167fa8fa568200000000000000000000000000000000000000000000000000000000148061243557507fffffffff0000000000000000000000000000000000000000000000000000000082167f5c98042b00000000000000000000000000000000000000000000000000000000145b8061053157506105318260007fffffffff0000000000000000000000000000000000000000000000000000000082167fbc1c58d100000000000000000000000000000000000000000000000000000000148061053157506105318260007fffffffff0000000000000000000000000000000000000000000000000000000082167f3b3b57de00000000000000000000000000000000000000000000000000000000148061252357507fffffffff0000000000000000000000000000000000000000000000000000000082167ff1cb7e0600000000000000000000000000000000000000000000000000000000145b8061053157506105318260007fffffffff0000000000000000000000000000000000000000000000000000000082167f2203ab5600000000000000000000000000000000000000000000000000000000148061053157506105318260007fffffffff0000000000000000000000000000000000000000000000000000000082167fd700ff3300000000000000000000000000000000000000000000000000000000148061053157506105318260007fffffffff0000000000000000000000000000000000000000000000000000000082167f4fbf043300000000000000000000000000000000000000000000000000000000148061053157507f01ffc9a7000000000000000000000000000000000000000000000000000000007fffffffff00000000000000000000000000000000000000000000000000000000831614610531565b50805461267290612d45565b6000825580601f10612682575050565b601f0160209004906000526020600020908101906126a091906126a3565b50565b5b808211156126b857600081556001016126a4565b5090565b80357fffffffff00000000000000000000000000000000000000000000000000000000811681146126ec57600080fd5b919050565b60006020828403121561270357600080fd5b610e85826126bc565b60008083601f84011261271e57600080fd5b50813567ffffffffffffffff81111561273657600080fd5b602083019150836020828501011115610c9957600080fd5b60008060006040848603121561276357600080fd5b83359250602084013567ffffffffffffffff81111561278157600080fd5b61278d8682870161270c565b9497909650939450505050565b6000806000806000606086880312156127b257600080fd5b85359450602086013567ffffffffffffffff808211156127d157600080fd5b6127dd89838a0161270c565b909650945060408801359150808211156127f657600080fd5b506128038882890161270c565b969995985093965092949392505050565b6000806040838503121561282757600080fd5b82359150612837602084016126bc565b90509250929050565b6000806040838503121561285357600080fd5b50508035926020909101359150565b60005b8381101561287d578181015183820152602001612865565b50506000910152565b6000815180845261289e816020860160208601612862565b601f01601f19169290920160200192915050565b8281526040602082015260006115b96040830184612886565b6000806000606084860312156128e057600080fd5b505081359360208301359350604090920135919050565b60006020828403121561290957600080fd5b5035919050565b602081526000610e856020830184612886565b6000806000806060858703121561293957600080fd5b8435935060208501359250604085013567ffffffffffffffff81111561295e57600080fd5b61296a8782880161270c565b95989497509550505050565b7f4e487b7100000000000000000000000000000000000000000000000000000000600052604160045260246000fd5b6000806000606084860312156129ba57600080fd5b8335925060208401359150604084013567ffffffffffffffff808211156129e057600080fd5b818601915086601f8301126129f457600080fd5b813581811115612a0657612a06612976565b604051601f8201601f19908116603f01168101908382118183101715612a2e57612a2e612976565b81604052828152896020848701011115612a4757600080fd5b8260208601602083013760006020848301015280955050505050509250925092565b73ffffffffffffffffffffffffffffffffffffffff811681146126a057600080fd5b60008060408385031215612a9e57600080fd5b8235612aa981612a69565b915060208301358015158114612abe57600080fd5b809150509250929050565b600080600060608486031215612ade57600080fd5b8335925060208401359150604084013561ffff81168114612afe57600080fd5b809150509250925092565b60008083601f840112612b1b57600080fd5b50813567ffffffffffffffff811115612b3357600080fd5b6020830191508360208260051b8501011115610c9957600080fd5b60008060208385031215612b6157600080fd5b823567ffffffffffffffff811115612b7857600080fd5b612b8485828601612b09565b90969095509350505050565b6000602080830181845280855180835260408601915060408160051b870101925083870160005b82811015612c03577fffffffffffffffffffffffffffffffffffffffffffffffffffffffffffffffc0888603018452612bf1858351612886565b94509285019290850190600101612bb7565b5092979650505050505050565b60008060408385031215612c2357600080fd5b823591506020830135612abe81612a69565b600080600060408486031215612c4a57600080fd5b83359250602084013567ffffffffffffffff811115612c6857600080fd5b61278d86828701612b09565b600080600060608486031215612c8957600080fd5b83359250612c99602085016126bc565b91506040840135612afe81612a69565b60008060408385031215612cbc57600080fd5b8235612cc781612a69565b91506020830135612abe81612a69565b60008251612ce9818460208701612862565b9190910192915050565b7f4e487b7100000000000000000000000000000000000000000000000000000000600052601160045260246000fd5b8181038181111561053157610531612cf3565b8183823760009101908152919050565b600181811c90821680612d5957607f821691505b602082108103612d92577f4e487b7100000000000000000000000000000000000000000000000000000000600052602260045260246000fd5b50919050565b601f8211156115a757600081815260208120601f850160051c81016020861015612dbf5750805b601f850160051c820191505b81811015612dde57828155600101612dcb565b505050505050565b67ffffffffffffffff831115612dfe57612dfe612976565b612e1283612e0c8354612d45565b83612d98565b6000601f841160018114612e465760008515612e2e5750838201355b600019600387901b1c1916600186901b178355611264565b600083815260209020601f19861690835b82811015612e775786850135825560209485019460019092019101612e57565b5086821015612e945760001960f88860031b161c19848701351681555b505060018560011b0183555050505050565b818352818160208501375060006020828401015260006020601f19601f840116840101905092915050565b604081526000612ee5604083018688612ea6565b8281036020840152612ef8818587612ea6565b979650505050505050565b7f4e487b7100000000000000000000000000000000000000000000000000000000600052603260045260246000fd5b6020815260006115b9602083018486612ea6565b600067ffffffffffffffff808316818103612f6357612f63612cf3565b6001019392505050565b815167ffffffffffffffff811115612f8757612f87612976565b612f9b81612f958454612d45565b84612d98565b602080601f831160018114612fd05760008415612fb85750858301515b600019600386901b1c1916600185901b178555612dde565b600085815260208120601f198616915b82811015612fff57888601518255948401946001909101908401612fe0565b508582101561301d5787850151600019600388901b60f8161c191681555b5050505050600190811b01905550565b6040815260006130406040830186612886565b8281036020840152613053818587612ea6565b9695505050505050565b60006020828403121561306f57600080fd5b8151610e8581612a69565b600061ffff82168061308e5761308e612cf3565b6000190192915050565b6040815260006130ab6040830185612886565b905061ffff831660208301529392505050565b600061ffff808316818103612f6357612f63612cf3565b6060815260006130e86060830186612886565b61ffff8516602084015282810360408401526130538185612886565b8082018082111561053157610531612cf3565b60008083357fffffffffffffffffffffffffffffffffffffffffffffffffffffffffffffffe184360301811261314c57600080fd5b83018035915067ffffffffffffffff82111561316757600080fd5b602001915036819003821315610c9957600080fd5b6000808585111561318c57600080fd5b8386111561319957600080fd5b5050820193919092039150565b8035602083101561053157600019602084900360031b1b1692915050565b600060001982036131d7576131d7612cf3565b5060010190565b7f4e487b7100000000000000000000000000000000000000000000000000000000600052600160045260246000fdfea26469706673582212202673f63d364d138759b82a66e0266a4d87a91b389a1d1a45dcec5e0fbce1a7f764736f6c63430008110033",
  "devdoc": {
    "kind": "dev",
    "methods": {
      "ABI(bytes32,uint256)": {
        "params": {
          "contentTypes": "A bitwise OR of the ABI formats accepted by the caller.",
          "node": "The ENS node to query"
        },
        "returns": {
          "_0": "contentType The content type of the return value",
          "_1": "data The ABI data"
        }
      },
      "addr(bytes32)": {
        "params": {
          "node": "The ENS node to query."
        },
        "returns": {
          "_0": "The associated address."
        }
      },
      "clearRecords(bytes32)": {
        "params": {
          "node": "The node to update."
        }
      },
      "contenthash(bytes32)": {
        "params": {
          "node": "The ENS node to query."
        },
        "returns": {
          "_0": "The associated contenthash."
        }
      },
      "dnsRecord(bytes32,bytes32,uint16)": {
        "params": {
          "name": "the keccak-256 hash of the fully-qualified name for which to fetch the record",
          "node": "the namehash of the node for which to fetch the record",
          "resource": "the ID of the resource as per https://en.wikipedia.org/wiki/List_of_DNS_record_types"
        },
        "returns": {
          "_0": "the DNS record in wire format if present, otherwise empty"
        }
      },
      "hasDNSRecords(bytes32,bytes32)": {
        "params": {
          "name": "the namehash of the node for which to check the records",
          "node": "the namehash of the node for which to check the records"
        }
      },
      "interfaceImplementer(bytes32,bytes4)": {
        "params": {
          "interfaceID": "The EIP 165 interface ID to check for.",
          "node": "The ENS node to query."
        },
        "returns": {
          "_0": "The address that implements this interface, or 0 if the interface is unsupported."
        }
      },
      "isApprovedForAll(address,address)": {
        "details": "See {IERC1155-isApprovedForAll}."
      },
      "name(bytes32)": {
        "params": {
          "node": "The ENS node to query."
        },
        "returns": {
          "_0": "The associated name."
        }
      },
      "pubkey(bytes32)": {
        "params": {
          "node": "The ENS node to query"
        },
        "returns": {
          "x": "The X coordinate of the curve point for the public key.",
          "y": "The Y coordinate of the curve point for the public key."
        }
      },
      "setABI(bytes32,uint256,bytes)": {
        "params": {
          "contentType": "The content type of the ABI",
          "data": "The ABI data.",
          "node": "The node to update."
        }
      },
      "setAddr(bytes32,address)": {
        "params": {
          "a": "The address to set.",
          "node": "The node to update."
        }
      },
      "setApprovalForAll(address,bool)": {
        "details": "See {IERC1155-setApprovalForAll}."
      },
      "setContenthash(bytes32,bytes)": {
        "params": {
          "hash": "The contenthash to set",
          "node": "The node to update."
        }
      },
      "setDNSRecords(bytes32,bytes)": {
        "params": {
          "data": "the DNS wire format records to set",
          "node": "the namehash of the node for which to set the records"
        }
      },
      "setInterface(bytes32,bytes4,address)": {
        "params": {
          "implementer": "The address of a contract that implements this interface for this node.",
          "interfaceID": "The EIP 165 interface ID.",
          "node": "The node to update."
        }
      },
      "setName(bytes32,string)": {
        "params": {
          "node": "The node to update."
        }
      },
      "setPubkey(bytes32,bytes32,bytes32)": {
        "params": {
          "node": "The ENS node to query",
          "x": "the X coordinate of the curve point for the public key.",
          "y": "the Y coordinate of the curve point for the public key."
        }
      },
      "setText(bytes32,string,string)": {
        "params": {
          "key": "The key to set.",
          "node": "The node to update.",
          "value": "The text data value to set."
        }
      },
      "setZonehash(bytes32,bytes)": {
        "params": {
          "hash": "The zonehash to set",
          "node": "The node to update."
        }
      },
      "text(bytes32,string)": {
        "params": {
          "key": "The text data key to query.",
          "node": "The ENS node to query."
        },
        "returns": {
          "_0": "The associated text data."
        }
      },
      "zonehash(bytes32)": {
        "params": {
          "node": "The ENS node to query."
        },
        "returns": {
          "_0": "The associated contenthash."
        }
      }
    },
    "version": 1
  },
  "userdoc": {
    "kind": "user",
    "methods": {
      "ABI(bytes32,uint256)": {
        "notice": "Returns the ABI associated with an ENS node. Defined in EIP205."
      },
      "addr(bytes32)": {
        "notice": "Returns the address associated with an ENS node."
      },
      "clearRecords(bytes32)": {
        "notice": "Increments the record version associated with an ENS node. May only be called by the owner of that node in the ENS registry."
      },
      "contenthash(bytes32)": {
        "notice": "Returns the contenthash associated with an ENS node."
      },
      "dnsRecord(bytes32,bytes32,uint16)": {
        "notice": "Obtain a DNS record."
      },
      "hasDNSRecords(bytes32,bytes32)": {
        "notice": "Check if a given node has records."
      },
      "interfaceImplementer(bytes32,bytes4)": {
        "notice": "Returns the address of a contract that implements the specified interface for this name. If an implementer has not been set for this interfaceID and name, the resolver will query the contract at `addr()`. If `addr()` is set, a contract exists at that address, and that contract implements EIP165 and returns `true` for the specified interfaceID, its address will be returned."
      },
      "name(bytes32)": {
        "notice": "Returns the name associated with an ENS node, for reverse records. Defined in EIP181."
      },
      "pubkey(bytes32)": {
        "notice": "Returns the SECP256k1 public key associated with an ENS node. Defined in EIP 619."
      },
      "setABI(bytes32,uint256,bytes)": {
        "notice": "Sets the ABI associated with an ENS node. Nodes may have one ABI of each content type. To remove an ABI, set it to the empty string."
      },
      "setAddr(bytes32,address)": {
        "notice": "Sets the address associated with an ENS node. May only be called by the owner of that node in the ENS registry."
      },
      "setContenthash(bytes32,bytes)": {
        "notice": "Sets the contenthash associated with an ENS node. May only be called by the owner of that node in the ENS registry."
      },
      "setDNSRecords(bytes32,bytes)": {
        "notice": "Set one or more DNS records.  Records are supplied in wire-format. Records with the same node/name/resource must be supplied one after the other to ensure the data is updated correctly. For example, if the data was supplied:     a.example.com IN A 1.2.3.4     a.example.com IN A 5.6.7.8     www.example.com IN CNAME a.example.com. then this would store the two A records for a.example.com correctly as a single RRSET, however if the data was supplied:     a.example.com IN A 1.2.3.4     www.example.com IN CNAME a.example.com.     a.example.com IN A 5.6.7.8 then this would store the first A record, the CNAME, then the second A record which would overwrite the first."
      },
      "setInterface(bytes32,bytes4,address)": {
        "notice": "Sets an interface associated with a name. Setting the address to 0 restores the default behaviour of querying the contract at `addr()` for interface support."
      },
      "setName(bytes32,string)": {
        "notice": "Sets the name associated with an ENS node, for reverse records. May only be called by the owner of that node in the ENS registry."
      },
      "setPubkey(bytes32,bytes32,bytes32)": {
        "notice": "Sets the SECP256k1 public key associated with an ENS node."
      },
      "setText(bytes32,string,string)": {
        "notice": "Sets the text data associated with an ENS node and key. May only be called by the owner of that node in the ENS registry."
      },
      "setZonehash(bytes32,bytes)": {
        "notice": "setZonehash sets the hash for the zone. May only be called by the owner of that node in the ENS registry."
      },
      "text(bytes32,string)": {
        "notice": "Returns the text data associated with an ENS node and key."
      },
      "zonehash(bytes32)": {
        "notice": "zonehash obtains the hash for the zone."
      }
    },
    "notice": "A simple resolver anyone can use; only allows the owner of a node to set its address.",
    "version": 1
  },
  "storageLayout": {
    "storage": [
      {
        "astId": 13957,
        "contract": "contracts/resolvers/PublicResolver.sol:PublicResolver",
        "label": "recordVersions",
        "offset": 0,
        "slot": "0",
        "type": "t_mapping(t_bytes32,t_uint64)"
      },
      {
        "astId": 14036,
        "contract": "contracts/resolvers/PublicResolver.sol:PublicResolver",
        "label": "versionable_abis",
        "offset": 0,
        "slot": "1",
        "type": "t_mapping(t_uint64,t_mapping(t_bytes32,t_mapping(t_uint256,t_bytes_storage)))"
      },
      {
        "astId": 14190,
        "contract": "contracts/resolvers/PublicResolver.sol:PublicResolver",
        "label": "versionable_addresses",
        "offset": 0,
        "slot": "2",
        "type": "t_mapping(t_uint64,t_mapping(t_bytes32,t_mapping(t_uint256,t_bytes_storage)))"
      },
      {
        "astId": 14381,
        "contract": "contracts/resolvers/PublicResolver.sol:PublicResolver",
        "label": "versionable_hashes",
        "offset": 0,
        "slot": "3",
        "type": "t_mapping(t_uint64,t_mapping(t_bytes32,t_bytes_storage))"
      },
      {
        "astId": 14471,
        "contract": "contracts/resolvers/PublicResolver.sol:PublicResolver",
        "label": "versionable_zonehashes",
        "offset": 0,
        "slot": "4",
        "type": "t_mapping(t_uint64,t_mapping(t_bytes32,t_bytes_storage))"
      },
      {
        "astId": 14481,
        "contract": "contracts/resolvers/PublicResolver.sol:PublicResolver",
        "label": "versionable_records",
        "offset": 0,
        "slot": "5",
        "type": "t_mapping(t_uint64,t_mapping(t_bytes32,t_mapping(t_bytes32,t_mapping(t_uint16,t_bytes_storage))))"
      },
      {
        "astId": 14489,
        "contract": "contracts/resolvers/PublicResolver.sol:PublicResolver",
        "label": "versionable_nameEntriesCount",
        "offset": 0,
        "slot": "6",
        "type": "t_mapping(t_uint64,t_mapping(t_bytes32,t_mapping(t_bytes32,t_uint16)))"
      },
      {
        "astId": 15185,
        "contract": "contracts/resolvers/PublicResolver.sol:PublicResolver",
        "label": "versionable_interfaces",
        "offset": 0,
        "slot": "7",
        "type": "t_mapping(t_uint64,t_mapping(t_bytes32,t_mapping(t_bytes4,t_address)))"
      },
      {
        "astId": 15377,
        "contract": "contracts/resolvers/PublicResolver.sol:PublicResolver",
        "label": "versionable_names",
        "offset": 0,
        "slot": "8",
        "type": "t_mapping(t_uint64,t_mapping(t_bytes32,t_string_storage))"
      },
      {
        "astId": 15464,
        "contract": "contracts/resolvers/PublicResolver.sol:PublicResolver",
        "label": "versionable_pubkeys",
        "offset": 0,
        "slot": "9",
        "type": "t_mapping(t_uint64,t_mapping(t_bytes32,t_struct(PublicKey)15457_storage))"
      },
      {
        "astId": 15567,
        "contract": "contracts/resolvers/PublicResolver.sol:PublicResolver",
        "label": "versionable_texts",
        "offset": 0,
        "slot": "10",
        "type": "t_mapping(t_uint64,t_mapping(t_bytes32,t_mapping(t_string_memory_ptr,t_string_storage)))"
      },
      {
        "astId": 13608,
        "contract": "contracts/resolvers/PublicResolver.sol:PublicResolver",
        "label": "_operatorApprovals",
        "offset": 0,
        "slot": "11",
        "type": "t_mapping(t_address,t_mapping(t_address,t_bool))"
      }
    ],
    "types": {
      "t_address": {
        "encoding": "inplace",
        "label": "address",
        "numberOfBytes": "20"
      },
      "t_bool": {
        "encoding": "inplace",
        "label": "bool",
        "numberOfBytes": "1"
      },
      "t_bytes32": {
        "encoding": "inplace",
        "label": "bytes32",
        "numberOfBytes": "32"
      },
      "t_bytes4": {
        "encoding": "inplace",
        "label": "bytes4",
        "numberOfBytes": "4"
      },
      "t_bytes_storage": {
        "encoding": "bytes",
        "label": "bytes",
        "numberOfBytes": "32"
      },
      "t_mapping(t_address,t_bool)": {
        "encoding": "mapping",
        "key": "t_address",
        "label": "mapping(address => bool)",
        "numberOfBytes": "32",
        "value": "t_bool"
      },
      "t_mapping(t_address,t_mapping(t_address,t_bool))": {
        "encoding": "mapping",
        "key": "t_address",
        "label": "mapping(address => mapping(address => bool))",
        "numberOfBytes": "32",
        "value": "t_mapping(t_address,t_bool)"
      },
      "t_mapping(t_bytes32,t_bytes_storage)": {
        "encoding": "mapping",
        "key": "t_bytes32",
        "label": "mapping(bytes32 => bytes)",
        "numberOfBytes": "32",
        "value": "t_bytes_storage"
      },
      "t_mapping(t_bytes32,t_mapping(t_bytes32,t_mapping(t_uint16,t_bytes_storage)))": {
        "encoding": "mapping",
        "key": "t_bytes32",
        "label": "mapping(bytes32 => mapping(bytes32 => mapping(uint16 => bytes)))",
        "numberOfBytes": "32",
        "value": "t_mapping(t_bytes32,t_mapping(t_uint16,t_bytes_storage))"
      },
      "t_mapping(t_bytes32,t_mapping(t_bytes32,t_uint16))": {
        "encoding": "mapping",
        "key": "t_bytes32",
        "label": "mapping(bytes32 => mapping(bytes32 => uint16))",
        "numberOfBytes": "32",
        "value": "t_mapping(t_bytes32,t_uint16)"
      },
      "t_mapping(t_bytes32,t_mapping(t_bytes4,t_address))": {
        "encoding": "mapping",
        "key": "t_bytes32",
        "label": "mapping(bytes32 => mapping(bytes4 => address))",
        "numberOfBytes": "32",
        "value": "t_mapping(t_bytes4,t_address)"
      },
      "t_mapping(t_bytes32,t_mapping(t_string_memory_ptr,t_string_storage))": {
        "encoding": "mapping",
        "key": "t_bytes32",
        "label": "mapping(bytes32 => mapping(string => string))",
        "numberOfBytes": "32",
        "value": "t_mapping(t_string_memory_ptr,t_string_storage)"
      },
      "t_mapping(t_bytes32,t_mapping(t_uint16,t_bytes_storage))": {
        "encoding": "mapping",
        "key": "t_bytes32",
        "label": "mapping(bytes32 => mapping(uint16 => bytes))",
        "numberOfBytes": "32",
        "value": "t_mapping(t_uint16,t_bytes_storage)"
      },
      "t_mapping(t_bytes32,t_mapping(t_uint256,t_bytes_storage))": {
        "encoding": "mapping",
        "key": "t_bytes32",
        "label": "mapping(bytes32 => mapping(uint256 => bytes))",
        "numberOfBytes": "32",
        "value": "t_mapping(t_uint256,t_bytes_storage)"
      },
      "t_mapping(t_bytes32,t_string_storage)": {
        "encoding": "mapping",
        "key": "t_bytes32",
        "label": "mapping(bytes32 => string)",
        "numberOfBytes": "32",
        "value": "t_string_storage"
      },
      "t_mapping(t_bytes32,t_struct(PublicKey)15457_storage)": {
        "encoding": "mapping",
        "key": "t_bytes32",
        "label": "mapping(bytes32 => struct PubkeyResolver.PublicKey)",
        "numberOfBytes": "32",
        "value": "t_struct(PublicKey)15457_storage"
      },
      "t_mapping(t_bytes32,t_uint16)": {
        "encoding": "mapping",
        "key": "t_bytes32",
        "label": "mapping(bytes32 => uint16)",
        "numberOfBytes": "32",
        "value": "t_uint16"
      },
      "t_mapping(t_bytes32,t_uint64)": {
        "encoding": "mapping",
        "key": "t_bytes32",
        "label": "mapping(bytes32 => uint64)",
        "numberOfBytes": "32",
        "value": "t_uint64"
      },
      "t_mapping(t_bytes4,t_address)": {
        "encoding": "mapping",
        "key": "t_bytes4",
        "label": "mapping(bytes4 => address)",
        "numberOfBytes": "32",
        "value": "t_address"
      },
      "t_mapping(t_string_memory_ptr,t_string_storage)": {
        "encoding": "mapping",
        "key": "t_string_memory_ptr",
        "label": "mapping(string => string)",
        "numberOfBytes": "32",
        "value": "t_string_storage"
      },
      "t_mapping(t_uint16,t_bytes_storage)": {
        "encoding": "mapping",
        "key": "t_uint16",
        "label": "mapping(uint16 => bytes)",
        "numberOfBytes": "32",
        "value": "t_bytes_storage"
      },
      "t_mapping(t_uint256,t_bytes_storage)": {
        "encoding": "mapping",
        "key": "t_uint256",
        "label": "mapping(uint256 => bytes)",
        "numberOfBytes": "32",
        "value": "t_bytes_storage"
      },
      "t_mapping(t_uint64,t_mapping(t_bytes32,t_bytes_storage))": {
        "encoding": "mapping",
        "key": "t_uint64",
        "label": "mapping(uint64 => mapping(bytes32 => bytes))",
        "numberOfBytes": "32",
        "value": "t_mapping(t_bytes32,t_bytes_storage)"
      },
      "t_mapping(t_uint64,t_mapping(t_bytes32,t_mapping(t_bytes32,t_mapping(t_uint16,t_bytes_storage))))": {
        "encoding": "mapping",
        "key": "t_uint64",
        "label": "mapping(uint64 => mapping(bytes32 => mapping(bytes32 => mapping(uint16 => bytes))))",
        "numberOfBytes": "32",
        "value": "t_mapping(t_bytes32,t_mapping(t_bytes32,t_mapping(t_uint16,t_bytes_storage)))"
      },
      "t_mapping(t_uint64,t_mapping(t_bytes32,t_mapping(t_bytes32,t_uint16)))": {
        "encoding": "mapping",
        "key": "t_uint64",
        "label": "mapping(uint64 => mapping(bytes32 => mapping(bytes32 => uint16)))",
        "numberOfBytes": "32",
        "value": "t_mapping(t_bytes32,t_mapping(t_bytes32,t_uint16))"
      },
      "t_mapping(t_uint64,t_mapping(t_bytes32,t_mapping(t_bytes4,t_address)))": {
        "encoding": "mapping",
        "key": "t_uint64",
        "label": "mapping(uint64 => mapping(bytes32 => mapping(bytes4 => address)))",
        "numberOfBytes": "32",
        "value": "t_mapping(t_bytes32,t_mapping(t_bytes4,t_address))"
      },
      "t_mapping(t_uint64,t_mapping(t_bytes32,t_mapping(t_string_memory_ptr,t_string_storage)))": {
        "encoding": "mapping",
        "key": "t_uint64",
        "label": "mapping(uint64 => mapping(bytes32 => mapping(string => string)))",
        "numberOfBytes": "32",
        "value": "t_mapping(t_bytes32,t_mapping(t_string_memory_ptr,t_string_storage))"
      },
      "t_mapping(t_uint64,t_mapping(t_bytes32,t_mapping(t_uint256,t_bytes_storage)))": {
        "encoding": "mapping",
        "key": "t_uint64",
        "label": "mapping(uint64 => mapping(bytes32 => mapping(uint256 => bytes)))",
        "numberOfBytes": "32",
        "value": "t_mapping(t_bytes32,t_mapping(t_uint256,t_bytes_storage))"
      },
      "t_mapping(t_uint64,t_mapping(t_bytes32,t_string_storage))": {
        "encoding": "mapping",
        "key": "t_uint64",
        "label": "mapping(uint64 => mapping(bytes32 => string))",
        "numberOfBytes": "32",
        "value": "t_mapping(t_bytes32,t_string_storage)"
      },
      "t_mapping(t_uint64,t_mapping(t_bytes32,t_struct(PublicKey)15457_storage))": {
        "encoding": "mapping",
        "key": "t_uint64",
        "label": "mapping(uint64 => mapping(bytes32 => struct PubkeyResolver.PublicKey))",
        "numberOfBytes": "32",
        "value": "t_mapping(t_bytes32,t_struct(PublicKey)15457_storage)"
      },
      "t_string_memory_ptr": {
        "encoding": "bytes",
        "label": "string",
        "numberOfBytes": "32"
      },
      "t_string_storage": {
        "encoding": "bytes",
        "label": "string",
        "numberOfBytes": "32"
      },
      "t_struct(PublicKey)15457_storage": {
        "encoding": "inplace",
        "label": "struct PubkeyResolver.PublicKey",
        "members": [
          {
            "astId": 15454,
            "contract": "contracts/resolvers/PublicResolver.sol:PublicResolver",
            "label": "x",
            "offset": 0,
            "slot": "0",
            "type": "t_bytes32"
          },
          {
            "astId": 15456,
            "contract": "contracts/resolvers/PublicResolver.sol:PublicResolver",
            "label": "y",
            "offset": 0,
            "slot": "1",
            "type": "t_bytes32"
          }
        ],
        "numberOfBytes": "64"
      },
      "t_uint16": {
        "encoding": "inplace",
        "label": "uint16",
        "numberOfBytes": "2"
      },
      "t_uint256": {
        "encoding": "inplace",
        "label": "uint256",
        "numberOfBytes": "32"
      },
      "t_uint64": {
        "encoding": "inplace",
        "label": "uint64",
        "numberOfBytes": "8"
      }
    }
  }
}