{
  "address": "0x94fbCE7ca1a0152cfC99F90f4421d31cf356c896",
  "abi": [
    {
      "inputs": [
        {
          "internalType": "contract DelegatableResolver",
          "name": "_implementation",
          "type": "address"
        }
      ],
      "stateMutability": "nonpayable",
      "type": "constructor"
    },
    {
      "inputs": [],
      "name": "CreateFail",
      "type": "error"
    },
    {
      "anonymous": false,
      "inputs": [
        {
          "indexed": false,
          "internalType": "address",
          "name": "resolver",
          "type": "address"
        },
        {
          "indexed": false,
          "internalType": "address",
          "name": "owner",
          "type": "address"
        }
      ],
      "name": "NewDelegatableResolver",
      "type": "event"
    },
    {
      "inputs": [
        {
          "internalType": "address",
          "name": "owner",
          "type": "address"
        }
      ],
      "name": "create",
      "outputs": [
        {
          "internalType": "contract DelegatableResolver",
          "name": "clone",
          "type": "address"
        }
      ],
      "stateMutability": "nonpayable",
      "type": "function"
    },
    {
      "inputs": [],
      "name": "implementation",
      "outputs": [
        {
          "internalType": "contract DelegatableResolver",
          "name": "",
          "type": "address"
        }
      ],
      "stateMutability": "view",
      "type": "function"
    },
    {
      "inputs": [
        {
          "internalType": "address",
          "name": "owner",
          "type": "address"
        }
      ],
      "name": "predictAddress",
      "outputs": [
        {
          "internalType": "address",
          "name": "clone",
          "type": "address"
        }
      ],
      "stateMutability": "nonpayable",
      "type": "function"
    }
  ],
  "transactionHash": "0x687dbfaebf88e091b2b08465bd3ce7916309cb8fdab84ac0d2f64abfef08eabc",
  "args": [
    "0x5F5e99139a17c56eadC3B1d01535224d003B7E5b"
  ],
  "numDeployments": 1,
  "solcInputHash": "62a50565b250883fe5f7838dbb65cd5b",
  "bytecode": "0x608060405234801561001057600080fd5b5060405161052338038061052383398101604081905261002f91610054565b600080546001600160a01b0319166001600160a01b0392909216919091179055610084565b60006020828403121561006657600080fd5b81516001600160a01b038116811461007d57600080fd5b9392505050565b610490806100936000396000f3fe608060405234801561001057600080fd5b50600436106100415760003560e01c80635c60da1b146100465780639ed9331814610075578063a8e666ab14610088575b600080fd5b600054610059906001600160a01b031681565b6040516001600160a01b03909116815260200160405180910390f35b610059610083366004610402565b61009b565b610059610096366004610402565b610130565b60408051606083901b6bffffffffffffffffffffffff19166020820152815160148183030181526034909101909152600080549091906100e4906001600160a01b031682610180565b604080516001600160a01b038084168252861660208201529193507f647d06615acc63013ef37426282da141fbae4e222149a36885ed327b085edd13910160405180910390a150919050565b60408051606083901b6bffffffffffffffffffffffff1916602082015281516014818303018152603490910190915260008054909190610179906001600160a01b03168261018e565b9392505050565b600061017983836001610198565b6000610179838360025b81516040517f610000000000000000000000000000000000000000000000000000000000000081526039820160f081811b60018401527f3d81600a3d39f33d3d3d3d363d3d376100000000000000000000000000000000600384015260028401901b601383018190527f60373639366100000000000000000000000000000000000000000000000000006015840152601b8301527f013d730000000000000000000000000000000000000000000000000000000000601d830152606086901b6020808401919091527f5af43d3d93803e603557fd5bf30000000000000000000000000000000000000060348401526000939260438401929187019084604182015b602082106102b85783518152602093840193601f199092019101610299565b835160001960208490036101000a0119908116825260f088901b91830191825260008a60028111156102ec576102ec61042b565b036102fd5786846000f098506103cc565b60018a60028111156103115761031161042b565b0361032457600087856000f598506103cc565b60028a60028111156103385761033861042b565b036103b3578684206040517fff0000000000000000000000000000000000000000000000000000000000000060208201526bffffffffffffffffffffffff193060601b16602182015260006035820152605581018290526075016040516020818303038152906040528051906020012060001c9950506103cc565b604051631d7fde3160e31b815260040160405180910390fd5b6001600160a01b0389166103f357604051631d7fde3160e31b815260040160405180910390fd5b50505050505050509392505050565b60006020828403121561041457600080fd5b81356001600160a01b038116811461017957600080fd5b7f4e487b7100000000000000000000000000000000000000000000000000000000600052602160045260246000fdfea26469706673582212200059f8b81ec7a3f86774e83ee5065c9fe800e6ea9a88e39e4b778191d73f2f8764736f6c63430008110033",
  "devdoc": {
    "kind": "dev",
    "methods": {},
    "version": 1
  },
  "userdoc": {
    "kind": "user",
    "methods": {},
    "notice": "A resolver factory that creates a dedicated resolver for each user",
    "version": 1
  },
  "storageLayout": {
    "storage": [
      {
        "astId": 16044,
        "contract": "contracts/resolvers/DelegatableResolverFactory.sol:DelegatableResolverFactory",
        "label": "implementation",
        "offset": 0,
        "slot": "0",
        "type": "t_contract(DelegatableResolver)16032"
      }
    ],
    "types": {
      "t_contract(DelegatableResolver)16032": {
        "encoding": "inplace",
        "label": "contract DelegatableResolver",
        "numberOfBytes": "20"
      }
    }
  }
}