{
  "address": "0x60a384Cfbb088Aa8c1750A04548b1b983CDc0418",
  "abi": [
    {
      "inputs": [
        {
          "internalType": "bytes32",
          "name": "_L2ReverseNode",
          "type": "bytes32"
        },
        {
          "internalType": "uint256",
          "name": "_coinType",
          "type": "uint256"
        }
      ],
      "stateMutability": "nonpayable",
      "type": "constructor"
    },
    {
      "inputs": [],
      "name": "InvalidSignature",
      "type": "error"
    },
    {
      "inputs": [],
      "name": "NotOwnerOfContract",
      "type": "error"
    },
    {
      "inputs": [],
      "name": "SignatureOutOfDate",
      "type": "error"
    },
    {
      "inputs": [],
      "name": "Unauthorised",
      "type": "error"
    },
    {
      "anonymous": false,
      "inputs": [
        {
          "indexed": true,
          "internalType": "bytes32",
          "name": "node",
          "type": "bytes32"
        },
        {
          "indexed": false,
          "internalType": "string",
          "name": "name",
          "type": "string"
        }
      ],
      "name": "NameChanged",
      "type": "event"
    },
    {
      "anonymous": false,
      "inputs": [
        {
          "indexed": true,
          "internalType": "address",
          "name": "previousOwner",
          "type": "address"
        },
        {
          "indexed": true,
          "internalType": "address",
          "name": "newOwner",
          "type": "address"
        }
      ],
      "name": "OwnershipTransferred",
      "type": "event"
    },
    {
      "anonymous": false,
      "inputs": [
        {
          "indexed": true,
          "internalType": "address",
          "name": "addr",
          "type": "address"
        },
        {
          "indexed": true,
          "internalType": "bytes32",
          "name": "node",
          "type": "bytes32"
        }
      ],
      "name": "ReverseClaimed",
      "type": "event"
    },
    {
      "anonymous": false,
      "inputs": [
        {
          "indexed": true,
          "internalType": "bytes32",
          "name": "node",
          "type": "bytes32"
        },
        {
          "indexed": true,
          "internalType": "string",
          "name": "indexedKey",
          "type": "string"
        },
        {
          "indexed": false,
          "internalType": "string",
          "name": "key",
          "type": "string"
        },
        {
          "indexed": false,
          "internalType": "string",
          "name": "value",
          "type": "string"
        }
      ],
      "name": "TextChanged",
      "type": "event"
    },
    {
      "anonymous": false,
      "inputs": [
        {
          "indexed": true,
          "internalType": "bytes32",
          "name": "node",
          "type": "bytes32"
        },
        {
          "indexed": false,
          "internalType": "uint64",
          "name": "newVersion",
          "type": "uint64"
        }
      ],
      "name": "VersionChanged",
      "type": "event"
    },
    {
      "inputs": [],
      "name": "L2ReverseNode",
      "outputs": [
        {
          "internalType": "bytes32",
          "name": "",
          "type": "bytes32"
        }
      ],
      "stateMutability": "view",
      "type": "function"
    },
    {
      "inputs": [],
      "name": "parentNode",
      "outputs": [
        {
          "internalType": "bytes32",
          "name": "",
          "type": "bytes32"
        }
      ],
      "stateMutability": "view",
      "type": "function"
    },
    {
      "inputs": [
        {
          "internalType": "address",
          "name": "addr",
          "type": "address"
        }
      ],
      "name": "clearRecords",
      "outputs": [],
      "stateMutability": "nonpayable",
      "type": "function"
    },
    {
      "inputs": [
        {
          "internalType": "address",
          "name": "addr",
          "type": "address"
        },
        {
          "internalType": "uint256",
          "name": "inceptionDate",
          "type": "uint256"
        },
        {
          "internalType": "bytes",
          "name": "signature",
          "type": "bytes"
        }
      ],
      "name": "clearRecordsWithSignature",
      "outputs": [],
      "stateMutability": "nonpayable",
      "type": "function"
    },
    {
      "inputs": [],
      "name": "coinType",
      "outputs": [
        {
          "internalType": "uint256",
          "name": "",
          "type": "uint256"
        }
      ],
      "stateMutability": "view",
      "type": "function"
    },
    {
      "inputs": [
        {
          "internalType": "bytes32",
          "name": "",
          "type": "bytes32"
        }
      ],
      "name": "lastUpdated",
      "outputs": [
        {
          "internalType": "uint256",
          "name": "",
          "type": "uint256"
        }
      ],
      "stateMutability": "view",
      "type": "function"
    },
    {
      "inputs": [
        {
          "internalType": "bytes[]",
          "name": "data",
          "type": "bytes[]"
        }
      ],
      "name": "multicall",
      "outputs": [
        {
          "internalType": "bytes[]",
          "name": "results",
          "type": "bytes[]"
        }
      ],
      "stateMutability": "nonpayable",
      "type": "function"
    },
    {
      "inputs": [
        {
          "internalType": "bytes32",
          "name": "nodehash",
          "type": "bytes32"
        },
        {
          "internalType": "bytes[]",
          "name": "data",
          "type": "bytes[]"
        }
      ],
      "name": "multicallWithNodeCheck",
      "outputs": [
        {
          "internalType": "bytes[]",
          "name": "results",
          "type": "bytes[]"
        }
      ],
      "stateMutability": "nonpayable",
      "type": "function"
    },
    {
      "inputs": [
        {
          "internalType": "bytes32",
          "name": "node",
          "type": "bytes32"
        }
      ],
      "name": "name",
      "outputs": [
        {
          "internalType": "string",
          "name": "",
          "type": "string"
        }
      ],
      "stateMutability": "view",
      "type": "function"
    },
    {
      "inputs": [
        {
          "internalType": "address",
          "name": "addr",
          "type": "address"
        }
      ],
      "name": "node",
      "outputs": [
        {
          "internalType": "bytes32",
          "name": "",
          "type": "bytes32"
        }
      ],
      "stateMutability": "view",
      "type": "function"
    },
    {
      "inputs": [],
      "name": "owner",
      "outputs": [
        {
          "internalType": "address",
          "name": "",
          "type": "address"
        }
      ],
      "stateMutability": "view",
      "type": "function"
    },
    {
      "inputs": [],
      "name": "renounceOwnership",
      "outputs": [],
      "stateMutability": "nonpayable",
      "type": "function"
    },
    {
      "inputs": [
        {
          "internalType": "string",
          "name": "name",
          "type": "string"
        }
      ],
      "name": "setName",
      "outputs": [
        {
          "internalType": "bytes32",
          "name": "",
          "type": "bytes32"
        }
      ],
      "stateMutability": "nonpayable",
      "type": "function"
    },
    {
      "inputs": [
        {
          "internalType": "address",
          "name": "addr",
          "type": "address"
        },
        {
          "internalType": "string",
          "name": "name",
          "type": "string"
        }
      ],
      "name": "setNameForAddr",
      "outputs": [
        {
          "internalType": "bytes32",
          "name": "",
          "type": "bytes32"
        }
      ],
      "stateMutability": "nonpayable",
      "type": "function"
    },
    {
      "inputs": [
        {
          "internalType": "address",
          "name": "addr",
          "type": "address"
        },
        {
          "internalType": "string",
          "name": "name",
          "type": "string"
        },
        {
          "internalType": "uint256",
          "name": "inceptionDate",
          "type": "uint256"
        },
        {
          "internalType": "bytes",
          "name": "signature",
          "type": "bytes"
        }
      ],
      "name": "setNameForAddrWithSignature",
      "outputs": [
        {
          "internalType": "bytes32",
          "name": "",
          "type": "bytes32"
        }
      ],
      "stateMutability": "nonpayable",
      "type": "function"
    },
    {
      "inputs": [
        {
          "internalType": "address",
          "name": "contractAddr",
          "type": "address"
        },
        {
          "internalType": "address",
          "name": "owner",
          "type": "address"
        },
        {
          "internalType": "string",
          "name": "name",
          "type": "string"
        },
        {
          "internalType": "uint256",
          "name": "inceptionDate",
          "type": "uint256"
        },
        {
          "internalType": "bytes",
          "name": "signature",
          "type": "bytes"
        }
      ],
      "name": "setNameForAddrWithSignatureAndOwnable",
      "outputs": [
        {
          "internalType": "bytes32",
          "name": "",
          "type": "bytes32"
        }
      ],
      "stateMutability": "nonpayable",
      "type": "function"
    },
    {
      "inputs": [
        {
          "internalType": "string",
          "name": "key",
          "type": "string"
        },
        {
          "internalType": "string",
          "name": "value",
          "type": "string"
        }
      ],
      "name": "setText",
      "outputs": [
        {
          "internalType": "bytes32",
          "name": "",
          "type": "bytes32"
        }
      ],
      "stateMutability": "nonpayable",
      "type": "function"
    },
    {
      "inputs": [
        {
          "internalType": "address",
          "name": "addr",
          "type": "address"
        },
        {
          "internalType": "string",
          "name": "key",
          "type": "string"
        },
        {
          "internalType": "string",
          "name": "value",
          "type": "string"
        }
      ],
      "name": "setTextForAddr",
      "outputs": [
        {
          "internalType": "bytes32",
          "name": "",
          "type": "bytes32"
        }
      ],
      "stateMutability": "nonpayable",
      "type": "function"
    },
    {
      "inputs": [
        {
          "internalType": "address",
          "name": "addr",
          "type": "address"
        },
        {
          "internalType": "string",
          "name": "key",
          "type": "string"
        },
        {
          "internalType": "string",
          "name": "value",
          "type": "string"
        },
        {
          "internalType": "uint256",
          "name": "inceptionDate",
          "type": "uint256"
        },
        {
          "internalType": "bytes",
          "name": "signature",
          "type": "bytes"
        }
      ],
      "name": "setTextForAddrWithSignature",
      "outputs": [
        {
          "internalType": "bytes32",
          "name": "",
          "type": "bytes32"
        }
      ],
      "stateMutability": "nonpayable",
      "type": "function"
    },
    {
      "inputs": [
        {
          "internalType": "address",
          "name": "contractAddr",
          "type": "address"
        },
        {
          "internalType": "address",
          "name": "owner",
          "type": "address"
        },
        {
          "internalType": "string",
          "name": "key",
          "type": "string"
        },
        {
          "internalType": "string",
          "name": "value",
          "type": "string"
        },
        {
          "internalType": "uint256",
          "name": "inceptionDate",
          "type": "uint256"
        },
        {
          "internalType": "bytes",
          "name": "signature",
          "type": "bytes"
        }
      ],
      "name": "setTextForAddrWithSignatureAndOwnable",
      "outputs": [
        {
          "internalType": "bytes32",
          "name": "",
          "type": "bytes32"
        }
      ],
      "stateMutability": "nonpayable",
      "type": "function"
    },
    {
      "inputs": [
        {
          "internalType": "bytes4",
          "name": "interfaceID",
          "type": "bytes4"
        }
      ],
      "name": "supportsInterface",
      "outputs": [
        {
          "internalType": "bool",
          "name": "",
          "type": "bool"
        }
      ],
      "stateMutability": "view",
      "type": "function"
    },
    {
      "inputs": [
        {
          "internalType": "bytes32",
          "name": "node",
          "type": "bytes32"
        },
        {
          "internalType": "string",
          "name": "key",
          "type": "string"
        }
      ],
      "name": "text",
      "outputs": [
        {
          "internalType": "string",
          "name": "",
          "type": "string"
        }
      ],
      "stateMutability": "view",
      "type": "function"
    },
    {
      "inputs": [
        {
          "internalType": "address",
          "name": "newOwner",
          "type": "address"
        }
      ],
      "name": "transferOwnership",
      "outputs": [],
      "stateMutability": "nonpayable",
      "type": "function"
    }
  ],
  "transactionHash": "0x699714073bacd57728ef981bef3e4e54c123c3c57bbc1082faf4c42651d5433f",
  "args": [
    "0x0548020c8d27ff997cf60e1d8d4f1279ceb30239b2251f914df7112595b078dd",
    2147905262
  ],
  "numDeployments": 4,
  "solcInputHash": "18e525de6f273adfb848ef1e49b08e83",
  "bytecode": "0x60e06040523480156200001157600080fd5b50604051620023e5380380620023e58339810160408190526200003491620000a4565b8181620000413362000054565b60809190915260a0525060c052620000c9565b600080546001600160a01b038381166001600160a01b0319831681178455604051919092169283917f8be0079c531659141344cd1fd0a4f28419497f9722a3daafe3b4186f6b6457e09190a35050565b60008060408385031215620000b857600080fd5b505080516020909101519092909150565b60805160a05160c0516122c96200011c600039600061029e015260008181610200015281816109b50152610e4d015260008181610227015281816106d501528181610b0901526112c301526122c96000f3fe608060405234801561001057600080fd5b506004361061018d5760003560e01c8063a9c73e80116100e3578063c47f00271161008c578063e32954eb11610066578063e32954eb14610393578063f2fde38b146103a6578063fe43ca31146103b957600080fd5b8063c47f00271461035a578063c7ee930c1461036d578063c91199411461038057600080fd5b8063bffbe61c116100bd578063bffbe61c14610321578063c01f93d314610334578063c0a404bc1461034757600080fd5b8063a9c73e80146102db578063ac9650d8146102ee578063b557a1ff1461030e57600080fd5b806359d1d43c116101455780637f87032e1161011f5780637f87032e1461028657806380d8db3d146102995780638da5cb5b146102c057600080fd5b806359d1d43c14610249578063691f343114610269578063715018a61461027c57600080fd5b80630affd653116101765780630affd653146101e85780631fe93ea8146101fb57806324d79eab1461022257600080fd5b806301ffc9a714610192578063060eb2f5146101ba575b600080fd5b6101a56101a036600461169d565b6103cc565b60405190151581526020015b60405180910390f35b6101da6101c83660046116c7565b60016020526000908152604090205481565b6040519081526020016101b1565b6101da6101f6366004611798565b610435565b6101da7f000000000000000000000000000000000000000000000000000000000000000081565b6101da7f000000000000000000000000000000000000000000000000000000000000000081565b61025c61025736600461186d565b610528565b6040516101b19190611909565b61025c6102773660046116c7565b61053d565b610284610548565b005b6101da61029436600461191c565b61055c565b6101da7f000000000000000000000000000000000000000000000000000000000000000081565b6000546040516001600160a01b0390911681526020016101b1565b6101da6102e936600461199c565b610613565b6103016102fc366004611a4d565b61062b565b6040516101b19190611a8f565b6101da61031c366004611af1565b610640565b6101da61032f366004611bb3565b6106d1565b6101da610342366004611bd0565b61072c565b610284610355366004611bb3565b6107b9565b6101da610368366004611c80565b6107d1565b61028461037b366004611cb5565b6107dd565b6101da61038e366004611d0e565b610841565b6103016103a1366004611d5e565b6108a4565b6102846103b4366004611bb3565b6108b1565b6101da6103c7366004611d9d565b610946565b60006001600160e01b031982167f1528feca00000000000000000000000000000000000000000000000000000000148061042f57507fc78de5ed000000000000000000000000000000000000000000000000000000006001600160e01b03198316145b92915050565b60405160009061046b907f0affd65300000000000000000000000000000000000000000000000000000000908690602001611e20565b60405160208183030381529060405280519060200120868685856104928585858585610979565b50600061049e8c610af7565b90506104ab818b8b610b57565b807fb7d29e911041e8d9b843369e890bcb72c9388692ba48b65ac54e7214c4c348f78b6040516104db9190611909565b60405180910390a260405181906001600160a01b038e16907f6ada868dd3058cf77a48a74489fd7963688e5464b2b0fa957ace976243270e9290600090a350505050505095945050505050565b6060610535848484610bdd565b949350505050565b606061042f82610cbf565b610550610d80565b61055a6000610dda565b565b604051600090610592907f7f87032e00000000000000000000000000000000000000000000000000000000908690602001611e20565b604051602081830303815290604052805190602001208584846105b784848484610e42565b5060006105c38a610af7565b90506105d0818a8a610b57565b60405181906001600160a01b038c16907f6ada868dd3058cf77a48a74489fd7963688e5464b2b0fa957ace976243270e9290600090a39998505050505050505050565b60006106223386868686610946565b95945050505050565b606061063960008484610f2e565b9392505050565b60405160009061067c907fb557a1ff00000000000000000000000000000000000000000000000000000000908990899089908990602001611e50565b60405160208183030381529060405280519060200120898985856106a38585858585610979565b5060006106af8f610af7565b90506106bf818e8e8e8e8e611107565b50505050505098975050505050505050565b60007f00000000000000000000000000000000000000000000000000000000000000006106fd836111d4565b604080516020810193909352820152606001604051602081830303815290604052805190602001209050919050565b604051600090610768907fc01f93d300000000000000000000000000000000000000000000000000000000908990899089908990602001611e50565b6040516020818303038152906040528051906020012088848461078d84848484610e42565b5060006107998d610af7565b90506107a9818d8d8d8d8d611107565b9c9b505050505050505050505050565b806107c381611254565b506107cd826112b2565b5050565b600061042f3383610841565b6040517fc7ee930c0000000000000000000000000000000000000000000000000000000060208201526024016040516020818303038152906040528051906020012083838361082e84848484610e42565b50610838876112b2565b50505050505050565b60008261084d81611254565b50600061085985610af7565b9050610866818542610b57565b60405181906001600160a01b038716907f6ada868dd3058cf77a48a74489fd7963688e5464b2b0fa957ace976243270e9290600090a3949350505050565b6060610535848484610f2e565b6108b9610d80565b6001600160a01b03811661093a5760405162461bcd60e51b815260206004820152602660248201527f4f776e61626c653a206e6577206f776e657220697320746865207a65726f206160448201527f646472657373000000000000000000000000000000000000000000000000000060648201526084015b60405180910390fd5b61094381610dda565b50565b60008561095281611254565b50600061095e88610af7565b905061096e818888888842611107565b979650505050505050565b60408051602081018790526bffffffffffffffffffffffff19606087811b8216938301939093529185901b9091166054820152606881018390527f000000000000000000000000000000000000000000000000000000000000000060888201526000908190610a2f9060a8015b604051602081830303815290604052805190602001207f19457468657265756d205369676e6564204d6573736167653a0a3332000000006000908152601c91909152603c902090565b90506000610a3c87610af7565b9050610a48878761139d565b610a7e576040517f4570a02400000000000000000000000000000000000000000000000000000000815260040160405180910390fd5b610a89868386611422565b610aa657604051638baa579f60e01b815260040160405180910390fd5b60008181526001602052604090205485111580610ace575042610acb6103e887611ea1565b10155b15610aec576040516314323cbb60e21b815260040160405180910390fd5b505095945050505050565b600080610b03836111d4565b604080517f0000000000000000000000000000000000000000000000000000000000000000602082015290810182905290915060600160405160208183030381529060405280519060200120915050919050565b60008381526004602090815260408083205467ffffffffffffffff168352600382528083208684529091529020610b8e8382611f4c565b506000838152600160205260409020819055827fb7d29e911041e8d9b843369e890bcb72c9388692ba48b65ac54e7214c4c348f783604051610bd09190611909565b60405180910390a2505050565b60008381526004602090815260408083205467ffffffffffffffff1683526002825280832086845290915290819020905160609190610c1f908590859061200c565b90815260200160405180910390208054610c3890611ec3565b80601f0160208091040260200160405190810160405280929190818152602001828054610c6490611ec3565b8015610cb15780601f10610c8657610100808354040283529160200191610cb1565b820191906000526020600020905b815481529060010190602001808311610c9457829003601f168201915b505050505090509392505050565b60008181526004602090815260408083205467ffffffffffffffff168352600382528083208484529091529020805460609190610cfb90611ec3565b80601f0160208091040260200160405190810160405280929190818152602001828054610d2790611ec3565b8015610d745780601f10610d4957610100808354040283529160200191610d74565b820191906000526020600020905b815481529060010190602001808311610d5757829003601f168201915b50505050509050919050565b6000546001600160a01b0316331461055a5760405162461bcd60e51b815260206004820181905260248201527f4f776e61626c653a2063616c6c6572206973206e6f7420746865206f776e65726044820152606401610931565b600080546001600160a01b038381167fffffffffffffffffffffffff0000000000000000000000000000000000000000831681178455604051919092169283917f8be0079c531659141344cd1fd0a4f28419497f9722a3daafe3b4186f6b6457e09190a35050565b600080610ea78686867f00000000000000000000000000000000000000000000000000000000000000006040516020016109e6949392919093845260609290921b6bffffffffffffffffffffffff191660208401526034830152605482015260740190565b90506000610eb486610af7565b9050610ec186838661153d565b610ede57604051638baa579f60e01b815260040160405180910390fd5b60008181526001602052604090205485111580610f06575042610f036103e887611ea1565b10155b15610f24576040516314323cbb60e21b815260040160405180910390fd5b5050949350505050565b60608167ffffffffffffffff811115610f4957610f496116f5565b604051908082528060200260200182016040528015610f7c57816020015b6060815260200190600190039081610f675790505b50905060005b828110156110ff578415611047576000848483818110610fa457610fa461201c565b9050602002810190610fb69190612032565b610fc591602491600491612079565b610fce916120a3565b90508581146110455760405162461bcd60e51b815260206004820152603460248201527f6d756c746963616c6c3a20416c6c207265636f726473206d757374206861766560448201527f2061206d61746368696e67206e616d65686173680000000000000000000000006064820152608401610931565b505b6000803086868581811061105d5761105d61201c565b905060200281019061106f9190612032565b60405161107d92919061200c565b600060405180830381855af49150503d80600081146110b8576040519150601f19603f3d011682016040523d82523d6000602084013e6110bd565b606091505b5091509150816110cc57600080fd5b808484815181106110df576110df61201c565b6020026020010181905250505080806110f7906120c1565b915050610f82565b509392505050565b60008681526004602090815260408083205467ffffffffffffffff1683526002825280832089845290915290819020905184918491611149908990899061200c565b908152602001604051809103902091826111649291906120da565b506000868152600160205260409020819055848460405161118692919061200c565b6040518091039020867f448bc014f1536726cf8d54ff3d6481ed3cbc683c2591ca204274009afa09b1a1878787876040516111c494939291906121c4565b60405180910390a3505050505050565b600060285b801561124857600019017f3031323334353637383961626364656600000000000000000000000000000000600f84161a8153601090920491600019017f3031323334353637383961626364656600000000000000000000000000000000600f84161a81536010830492506111d9565b50506028600020919050565b60006001600160a01b03821633148015906112765750611274823361139d565b155b156112ad576040517fd7a2ae6a00000000000000000000000000000000000000000000000000000000815260040160405180910390fd5b919050565b60006112bd826111d4565b604080517f0000000000000000000000000000000000000000000000000000000000000000602082015290810182905290915060009060600160408051601f19818403018152918152815160209283012060008181526004909352908220805491935067ffffffffffffffff90911691611336836121eb565b82546101009290920a67ffffffffffffffff8181021990931691831602179091556000838152600460209081526040918290205491519190921681528392507fc6621ccb8f3f5a04bb6502154b2caf6adf5983fe76dfef1cfc9c42e3579db4449101610bd0565b6000826001600160a01b0316638da5cb5b6040518163ffffffff1660e01b8152600401602060405180830381865afa9250505080156113f9575060408051601f3d908101601f191682019092526113f691810190612212565b60015b6114055750600061042f565b826001600160a01b0316816001600160a01b03161491505061042f565b6000806000856001600160a01b0316631626ba7e60e01b868660405160240161144c92919061222f565b60408051601f198184030181529181526020820180517bffffffffffffffffffffffffffffffffffffffffffffffffffffffff166001600160e01b031990941693909317909252905161149f9190612248565b600060405180830381855afa9150503d80600081146114da576040519150601f19603f3d011682016040523d82523d6000602084013e6114df565b606091505b50915091508180156114f357506020815110155b8015611533575080517f1626ba7e00000000000000000000000000000000000000000000000000000000906115319083016020908101908401612264565b145b9695505050505050565b600080600061154c8585611594565b909250905060008160048111156115655761156561227d565b1480156115835750856001600160a01b0316826001600160a01b0316145b806115335750611533868686611422565b60008082516041036115ca5760208301516040840151606085015160001a6115be878285856115d9565b945094505050506115d2565b506000905060025b9250929050565b6000807f7fffffffffffffffffffffffffffffff5d576e7357a4501ddfe92f46681b20a08311156116105750600090506003611694565b6040805160008082526020820180845289905260ff881692820192909252606081018690526080810185905260019060a0016020604051602081039080840390855afa158015611664573d6000803e3d6000fd5b5050604051601f1901519150506001600160a01b03811661168d57600060019250925050611694565b9150600090505b94509492505050565b6000602082840312156116af57600080fd5b81356001600160e01b03198116811461063957600080fd5b6000602082840312156116d957600080fd5b5035919050565b6001600160a01b038116811461094357600080fd5b634e487b7160e01b600052604160045260246000fd5b600082601f83011261171c57600080fd5b813567ffffffffffffffff80821115611737576117376116f5565b604051601f8301601f19908116603f0116810190828211818310171561175f5761175f6116f5565b8160405283815286602085880101111561177857600080fd5b836020870160208301376000602085830101528094505050505092915050565b600080600080600060a086880312156117b057600080fd5b85356117bb816116e0565b945060208601356117cb816116e0565b9350604086013567ffffffffffffffff808211156117e857600080fd5b6117f489838a0161170b565b945060608801359350608088013591508082111561181157600080fd5b5061181e8882890161170b565b9150509295509295909350565b60008083601f84011261183d57600080fd5b50813567ffffffffffffffff81111561185557600080fd5b6020830191508360208285010111156115d257600080fd5b60008060006040848603121561188257600080fd5b83359250602084013567ffffffffffffffff8111156118a057600080fd5b6118ac8682870161182b565b9497909650939450505050565b60005b838110156118d45781810151838201526020016118bc565b50506000910152565b600081518084526118f58160208601602086016118b9565b601f01601f19169290920160200192915050565b60208152600061063960208301846118dd565b6000806000806080858703121561193257600080fd5b843561193d816116e0565b9350602085013567ffffffffffffffff8082111561195a57600080fd5b6119668883890161170b565b945060408701359350606087013591508082111561198357600080fd5b506119908782880161170b565b91505092959194509250565b600080600080604085870312156119b257600080fd5b843567ffffffffffffffff808211156119ca57600080fd5b6119d68883890161182b565b909650945060208701359150808211156119ef57600080fd5b506119fc8782880161182b565b95989497509550505050565b60008083601f840112611a1a57600080fd5b50813567ffffffffffffffff811115611a3257600080fd5b6020830191508360208260051b85010111156115d257600080fd5b60008060208385031215611a6057600080fd5b823567ffffffffffffffff811115611a7757600080fd5b611a8385828601611a08565b90969095509350505050565b6000602080830181845280855180835260408601915060408160051b870101925083870160005b82811015611ae457603f19888603018452611ad28583516118dd565b94509285019290850190600101611ab6565b5092979650505050505050565b60008060008060008060008060c0898b031215611b0d57600080fd5b8835611b18816116e0565b97506020890135611b28816116e0565b9650604089013567ffffffffffffffff80821115611b4557600080fd5b611b518c838d0161182b565b909850965060608b0135915080821115611b6a57600080fd5b611b768c838d0161182b565b909650945060808b0135935060a08b0135915080821115611b9657600080fd5b50611ba38b828c0161170b565b9150509295985092959890939650565b600060208284031215611bc557600080fd5b8135610639816116e0565b600080600080600080600060a0888a031215611beb57600080fd5b8735611bf6816116e0565b9650602088013567ffffffffffffffff80821115611c1357600080fd5b611c1f8b838c0161182b565b909850965060408a0135915080821115611c3857600080fd5b611c448b838c0161182b565b909650945060608a0135935060808a0135915080821115611c6457600080fd5b50611c718a828b0161170b565b91505092959891949750929550565b600060208284031215611c9257600080fd5b813567ffffffffffffffff811115611ca957600080fd5b6105358482850161170b565b600080600060608486031215611cca57600080fd5b8335611cd5816116e0565b925060208401359150604084013567ffffffffffffffff811115611cf857600080fd5b611d048682870161170b565b9150509250925092565b60008060408385031215611d2157600080fd5b8235611d2c816116e0565b9150602083013567ffffffffffffffff811115611d4857600080fd5b611d548582860161170b565b9150509250929050565b600080600060408486031215611d7357600080fd5b83359250602084013567ffffffffffffffff811115611d9157600080fd5b6118ac86828701611a08565b600080600080600060608688031215611db557600080fd5b8535611dc0816116e0565b9450602086013567ffffffffffffffff80821115611ddd57600080fd5b611de989838a0161182b565b90965094506040880135915080821115611e0257600080fd5b50611e0f8882890161182b565b969995985093965092949392505050565b6001600160e01b03198316815260008251611e428160048501602087016118b9565b919091016004019392505050565b6001600160e01b0319861681528385600483013760008482016004810160008152848682375060009301600401928352509095945050505050565b634e487b7160e01b600052601160045260246000fd5b600082611ebe57634e487b7160e01b600052601260045260246000fd5b500490565b600181811c90821680611ed757607f821691505b602082108103611ef757634e487b7160e01b600052602260045260246000fd5b50919050565b601f821115611f4757600081815260208120601f850160051c81016020861015611f245750805b601f850160051c820191505b81811015611f4357828155600101611f30565b5050505b505050565b815167ffffffffffffffff811115611f6657611f666116f5565b611f7a81611f748454611ec3565b84611efd565b602080601f831160018114611faf5760008415611f975750858301515b600019600386901b1c1916600185901b178555611f43565b600085815260208120601f198616915b82811015611fde57888601518255948401946001909101908401611fbf565b5085821015611ffc5787850151600019600388901b60f8161c191681555b5050505050600190811b01905550565b8183823760009101908152919050565b634e487b7160e01b600052603260045260246000fd5b6000808335601e1984360301811261204957600080fd5b83018035915067ffffffffffffffff82111561206457600080fd5b6020019150368190038213156115d257600080fd5b6000808585111561208957600080fd5b8386111561209657600080fd5b5050820193919092039150565b8035602083101561042f57600019602084900360031b1b1692915050565b6000600182016120d3576120d3611e8b565b5060010190565b67ffffffffffffffff8311156120f2576120f26116f5565b612106836121008354611ec3565b83611efd565b6000601f84116001811461213a57600085156121225750838201355b600019600387901b1c1916600186901b178355612194565b600083815260209020601f19861690835b8281101561216b578685013582556020948501946001909201910161214b565b50868210156121885760001960f88860031b161c19848701351681555b505060018560011b0183555b5050505050565b81835281816020850137506000828201602090810191909152601f909101601f19169091010190565b6040815260006121d860408301868861219b565b828103602084015261096e81858761219b565b600067ffffffffffffffff80831681810361220857612208611e8b565b6001019392505050565b60006020828403121561222457600080fd5b8151610639816116e0565b82815260406020820152600061053560408301846118dd565b6000825161225a8184602087016118b9565b9190910192915050565b60006020828403121561227657600080fd5b5051919050565b634e487b7160e01b600052602160045260246000fdfea26469706673582212204963adf5f434a8021ce15fb89efc92356e52c0855e2bc1bbbf41e9d791975bc664736f6c63430008110033",
  "devdoc": {
    "kind": "dev",
    "methods": {
      "clearRecords(address)": {
        "params": {
          "addr": "The node to update."
        }
      },
      "clearRecordsWithSignature(address,uint256,bytes)": {
        "params": {
          "addr": "The node to update.",
          "signature": "A signature proving ownership of the node."
        }
      },
      "name(bytes32)": {
        "params": {
          "node": "The ENS node to query."
        },
        "returns": {
          "_0": "The associated name."
        }
      },
      "node(address)": {
        "details": "Returns the node hash for a given account's reverse records.",
        "params": {
          "addr": "The address to hash"
        },
        "returns": {
          "_0": "The ENS node hash."
        }
      },
      "owner()": {
        "details": "Returns the address of the current owner."
      },
      "renounceOwnership()": {
        "details": "Leaves the contract without owner. It will not be possible to call `onlyOwner` functions. Can only be called by the current owner. NOTE: Renouncing ownership will leave the contract without an owner, thereby disabling any functionality that is only available to the owner."
      },
      "setName(string)": {
        "details": "Sets the `name()` record for the reverse ENS record associated with the calling account.",
        "params": {
          "name": "The name to set for this address."
        },
        "returns": {
          "_0": "The ENS node hash of the reverse record."
        }
      },
      "setNameForAddr(address,string)": {
        "details": "Sets the `name()` record for the reverse ENS record associated with the addr provided account. Can be used if the addr is a contract that is owned by a SCW.",
        "params": {
          "name": "The name to set for this address."
        },
        "returns": {
          "_0": "The ENS node hash of the reverse record."
        }
      },
      "setNameForAddrWithSignature(address,string,uint256,bytes)": {
        "details": "Sets the name for an addr using a signature that can be verified with ERC1271.",
        "params": {
          "addr": "The reverse record to set",
          "inceptionDate": "Date from when this signature is valid from",
          "name": "The name of the reverse record",
          "signature": "The resolver of the reverse node"
        },
        "returns": {
          "_0": "The ENS node hash of the reverse record."
        }
      },
      "setNameForAddrWithSignatureAndOwnable(address,address,string,uint256,bytes)": {
        "details": "Sets the name for a contract that is owned by a SCW using a signature",
        "params": {
          "contractAddr": "The reverse node to set",
          "inceptionDate": "Date from when this signature is valid from",
          "name": "The name of the reverse record",
          "owner": "The owner of the contract (via Ownable)",
          "signature": "The signature of an address that will return true on isValidSignature for the owner"
        },
        "returns": {
          "_0": "The ENS node hash of the reverse record."
        }
      },
      "setText(string,string)": {
        "details": "Sets the `name()` record for the reverse ENS record associated with the calling account.",
        "params": {
          "key": "The key for this text record.",
          "value": "The value to set for this text record."
        },
        "returns": {
          "_0": "The ENS node hash of the reverse record."
        }
      },
      "setTextForAddr(address,string,string)": {
        "details": "Sets the `text(key)` record for the reverse ENS record associated with the addr provided account.",
        "params": {
          "key": "The key for this text record.",
          "value": "The value to set for this text record."
        },
        "returns": {
          "_0": "The ENS node hash of the reverse record."
        }
      },
      "setTextForAddrWithSignature(address,string,string,uint256,bytes)": {
        "details": "Sets the name for an addr using a signature that can be verified with ERC1271.",
        "params": {
          "addr": "The reverse record to set",
          "inceptionDate": "Date from when this signature is valid from",
          "key": "The key of the text record",
          "signature": "The resolver of the reverse node",
          "value": "The value of the text record"
        },
        "returns": {
          "_0": "The ENS node hash of the reverse record."
        }
      },
      "setTextForAddrWithSignatureAndOwnable(address,address,string,string,uint256,bytes)": {
        "details": "Sets the name for a contract that is owned by a SCW using a signature",
        "params": {
          "contractAddr": "The reverse node to set",
          "inceptionDate": "Date from when this signature is valid from",
          "key": "The name of the reverse record",
          "owner": "The owner of the contract (via Ownable)",
          "signature": "The signature of an address that will return true on isValidSignature for the owner",
          "value": "The name of the reverse record"
        },
        "returns": {
          "_0": "The ENS node hash of the reverse record."
        }
      },
      "text(bytes32,string)": {
        "params": {
          "key": "The text data key to query.",
          "node": "The ENS node to query."
        },
        "returns": {
          "_0": "The associated text data."
        }
      },
      "transferOwnership(address)": {
        "details": "Transfers ownership of the contract to a new account (`newOwner`). Can only be called by the current owner."
      }
    },
    "version": 1
  },
  "userdoc": {
    "kind": "user",
    "methods": {
      "clearRecords(address)": {
        "notice": "Increments the record version associated with an ENS node. May only be called by the owner of that node in the ENS registry."
      },
      "clearRecordsWithSignature(address,uint256,bytes)": {
        "notice": "Increments the record version associated with an ENS node. May only be called by the owner of that node in the ENS registry."
      },
      "name(bytes32)": {
        "notice": "Returns the name associated with an ENS node, for reverse records. Defined in EIP181."
      },
      "text(bytes32,string)": {
        "notice": "Returns the text data associated with an ENS node and key."
      }
    },
    "notice": "A L2 reverser registrar. Deployed to each L2 chain. The contract will be verified on L1 Reverse Resolver under the namespace specified at constructor",
    "version": 1
  },
  "storageLayout": {
    "storage": [
      {
        "astId": 7,
        "contract": "contracts/reverseRegistrar/L2ReverseRegistrar.sol:L2ReverseRegistrar",
        "label": "_owner",
        "offset": 0,
        "slot": "0",
        "type": "t_address"
      },
      {
        "astId": 3195,
        "contract": "contracts/reverseRegistrar/L2ReverseRegistrar.sol:L2ReverseRegistrar",
        "label": "lastUpdated",
        "offset": 0,
        "slot": "1",
        "type": "t_mapping(t_bytes32,t_uint256)"
      },
      {
        "astId": 3203,
        "contract": "contracts/reverseRegistrar/L2ReverseRegistrar.sol:L2ReverseRegistrar",
        "label": "versionable_texts",
        "offset": 0,
        "slot": "2",
        "type": "t_mapping(t_uint64,t_mapping(t_bytes32,t_mapping(t_string_memory_ptr,t_string_storage)))"
      },
      {
        "astId": 3209,
        "contract": "contracts/reverseRegistrar/L2ReverseRegistrar.sol:L2ReverseRegistrar",
        "label": "versionable_names",
        "offset": 0,
        "slot": "3",
        "type": "t_mapping(t_uint64,t_mapping(t_bytes32,t_string_storage))"
      },
      {
        "astId": 3213,
        "contract": "contracts/reverseRegistrar/L2ReverseRegistrar.sol:L2ReverseRegistrar",
        "label": "recordVersions",
        "offset": 0,
        "slot": "4",
        "type": "t_mapping(t_bytes32,t_uint64)"
      }
    ],
    "types": {
      "t_address": {
        "encoding": "inplace",
        "label": "address",
        "numberOfBytes": "20"
      },
      "t_bytes32": {
        "encoding": "inplace",
        "label": "bytes32",
        "numberOfBytes": "32"
      },
      "t_mapping(t_bytes32,t_mapping(t_string_memory_ptr,t_string_storage))": {
        "encoding": "mapping",
        "key": "t_bytes32",
        "label": "mapping(bytes32 => mapping(string => string))",
        "numberOfBytes": "32",
        "value": "t_mapping(t_string_memory_ptr,t_string_storage)"
      },
      "t_mapping(t_bytes32,t_string_storage)": {
        "encoding": "mapping",
        "key": "t_bytes32",
        "label": "mapping(bytes32 => string)",
        "numberOfBytes": "32",
        "value": "t_string_storage"
      },
      "t_mapping(t_bytes32,t_uint256)": {
        "encoding": "mapping",
        "key": "t_bytes32",
        "label": "mapping(bytes32 => uint256)",
        "numberOfBytes": "32",
        "value": "t_uint256"
      },
      "t_mapping(t_bytes32,t_uint64)": {
        "encoding": "mapping",
        "key": "t_bytes32",
        "label": "mapping(bytes32 => uint64)",
        "numberOfBytes": "32",
        "value": "t_uint64"
      },
      "t_mapping(t_string_memory_ptr,t_string_storage)": {
        "encoding": "mapping",
        "key": "t_string_memory_ptr",
        "label": "mapping(string => string)",
        "numberOfBytes": "32",
        "value": "t_string_storage"
      },
      "t_mapping(t_uint64,t_mapping(t_bytes32,t_mapping(t_string_memory_ptr,t_string_storage)))": {
        "encoding": "mapping",
        "key": "t_uint64",
        "label": "mapping(uint64 => mapping(bytes32 => mapping(string => string)))",
        "numberOfBytes": "32",
        "value": "t_mapping(t_bytes32,t_mapping(t_string_memory_ptr,t_string_storage))"
      },
      "t_mapping(t_uint64,t_mapping(t_bytes32,t_string_storage))": {
        "encoding": "mapping",
        "key": "t_uint64",
        "label": "mapping(uint64 => mapping(bytes32 => string))",
        "numberOfBytes": "32",
        "value": "t_mapping(t_bytes32,t_string_storage)"
      },
      "t_string_memory_ptr": {
        "encoding": "bytes",
        "label": "string",
        "numberOfBytes": "32"
      },
      "t_string_storage": {
        "encoding": "bytes",
        "label": "string",
        "numberOfBytes": "32"
      },
      "t_uint256": {
        "encoding": "inplace",
        "label": "uint256",
        "numberOfBytes": "32"
      },
      "t_uint64": {
        "encoding": "inplace",
        "label": "uint64",
        "numberOfBytes": "8"
      }
    }
  }
}