{
  "address": "0x00198c6c94522A81698190ADF411641995Eb180c",
  "abi": [
    {
      "inputs": [
        {
          "internalType": "bytes32",
          "name": "node",
          "type": "bytes32"
        }
      ],
      "name": "NotAuthorized",
      "type": "error"
    },
    {
      "anonymous": false,
      "inputs": [
        {
          "indexed": true,
          "internalType": "bytes32",
          "name": "node",
          "type": "bytes32"
        },
        {
          "indexed": true,
          "internalType": "uint256",
          "name": "contentType",
          "type": "uint256"
        }
      ],
      "name": "ABIChanged",
      "type": "event"
    },
    {
      "anonymous": false,
      "inputs": [
        {
          "indexed": true,
          "internalType": "bytes32",
          "name": "node",
          "type": "bytes32"
        },
        {
          "indexed": false,
          "internalType": "address",
          "name": "a",
          "type": "address"
        }
      ],
      "name": "AddrChanged",
      "type": "event"
    },
    {
      "anonymous": false,
      "inputs": [
        {
          "indexed": true,
          "internalType": "bytes32",
          "name": "node",
          "type": "bytes32"
        },
        {
          "indexed": false,
          "internalType": "uint256",
          "name": "coinType",
          "type": "uint256"
        },
        {
          "indexed": false,
          "internalType": "bytes",
          "name": "newAddress",
          "type": "bytes"
        }
      ],
      "name": "AddressChanged",
      "type": "event"
    },
    {
      "anonymous": false,
      "inputs": [
        {
          "indexed": true,
          "internalType": "bytes32",
          "name": "node",
          "type": "bytes32"
        },
        {
          "indexed": true,
          "internalType": "address",
          "name": "operator",
          "type": "address"
        },
        {
          "indexed": false,
          "internalType": "bytes",
          "name": "name",
          "type": "bytes"
        },
        {
          "indexed": false,
          "internalType": "bool",
          "name": "approved",
          "type": "bool"
        }
      ],
      "name": "Approval",
      "type": "event"
    },
    {
      "anonymous": false,
      "inputs": [
        {
          "indexed": true,
          "internalType": "bytes32",
          "name": "node",
          "type": "bytes32"
        },
        {
          "indexed": false,
          "internalType": "bytes",
          "name": "hash",
          "type": "bytes"
        }
      ],
      "name": "ContenthashChanged",
      "type": "event"
    },
    {
      "anonymous": false,
      "inputs": [
        {
          "indexed": true,
          "internalType": "bytes32",
          "name": "node",
          "type": "bytes32"
        },
        {
          "indexed": false,
          "internalType": "bytes",
          "name": "name",
          "type": "bytes"
        },
        {
          "indexed": false,
          "internalType": "uint16",
          "name": "resource",
          "type": "uint16"
        },
        {
          "indexed": false,
          "internalType": "bytes",
          "name": "record",
          "type": "bytes"
        }
      ],
      "name": "DNSRecordChanged",
      "type": "event"
    },
    {
      "anonymous": false,
      "inputs": [
        {
          "indexed": true,
          "internalType": "bytes32",
          "name": "node",
          "type": "bytes32"
        },
        {
          "indexed": false,
          "internalType": "bytes",
          "name": "name",
          "type": "bytes"
        },
        {
          "indexed": false,
          "internalType": "uint16",
          "name": "resource",
          "type": "uint16"
        }
      ],
      "name": "DNSRecordDeleted",
      "type": "event"
    },
    {
      "anonymous": false,
      "inputs": [
        {
          "indexed": true,
          "internalType": "bytes32",
          "name": "node",
          "type": "bytes32"
        },
        {
          "indexed": false,
          "internalType": "bytes",
          "name": "lastzonehash",
          "type": "bytes"
        },
        {
          "indexed": false,
          "internalType": "bytes",
          "name": "zonehash",
          "type": "bytes"
        }
      ],
      "name": "DNSZonehashChanged",
      "type": "event"
    },
    {
      "anonymous": false,
      "inputs": [
        {
          "indexed": true,
          "internalType": "bytes32",
          "name": "node",
          "type": "bytes32"
        },
        {
          "indexed": true,
          "internalType": "bytes4",
          "name": "interfaceID",
          "type": "bytes4"
        },
        {
          "indexed": false,
          "internalType": "address",
          "name": "implementer",
          "type": "address"
        }
      ],
      "name": "InterfaceChanged",
      "type": "event"
    },
    {
      "anonymous": false,
      "inputs": [
        {
          "indexed": true,
          "internalType": "bytes32",
          "name": "node",
          "type": "bytes32"
        },
        {
          "indexed": false,
          "internalType": "string",
          "name": "name",
          "type": "string"
        }
      ],
      "name": "NameChanged",
      "type": "event"
    },
    {
      "anonymous": false,
      "inputs": [
        {
          "indexed": true,
          "internalType": "bytes32",
          "name": "node",
          "type": "bytes32"
        },
        {
          "indexed": false,
          "internalType": "bytes32",
          "name": "x",
          "type": "bytes32"
        },
        {
          "indexed": false,
          "internalType": "bytes32",
          "name": "y",
          "type": "bytes32"
        }
      ],
      "name": "PubkeyChanged",
      "type": "event"
    },
    {
      "anonymous": false,
      "inputs": [
        {
          "indexed": true,
          "internalType": "bytes32",
          "name": "node",
          "type": "bytes32"
        },
        {
          "indexed": true,
          "internalType": "string",
          "name": "indexedKey",
          "type": "string"
        },
        {
          "indexed": false,
          "internalType": "string",
          "name": "key",
          "type": "string"
        },
        {
          "indexed": false,
          "internalType": "string",
          "name": "value",
          "type": "string"
        }
      ],
      "name": "TextChanged",
      "type": "event"
    },
    {
      "anonymous": false,
      "inputs": [
        {
          "indexed": true,
          "internalType": "bytes32",
          "name": "node",
          "type": "bytes32"
        },
        {
          "indexed": false,
          "internalType": "uint64",
          "name": "newVersion",
          "type": "uint64"
        }
      ],
      "name": "VersionChanged",
      "type": "event"
    },
    {
      "inputs": [
        {
          "internalType": "bytes32",
          "name": "node",
          "type": "bytes32"
        },
        {
          "internalType": "uint256",
          "name": "contentTypes",
          "type": "uint256"
        }
      ],
      "name": "ABI",
      "outputs": [
        {
          "internalType": "uint256",
          "name": "",
          "type": "uint256"
        },
        {
          "internalType": "bytes",
          "name": "",
          "type": "bytes"
        }
      ],
      "stateMutability": "view",
      "type": "function"
    },
    {
      "inputs": [
        {
          "internalType": "bytes32",
          "name": "node",
          "type": "bytes32"
        }
      ],
      "name": "addr",
      "outputs": [
        {
          "internalType": "address payable",
          "name": "",
          "type": "address"
        }
      ],
      "stateMutability": "view",
      "type": "function"
    },
    {
      "inputs": [
        {
          "internalType": "bytes32",
          "name": "node",
          "type": "bytes32"
        },
        {
          "internalType": "uint256",
          "name": "coinType",
          "type": "uint256"
        }
      ],
      "name": "addr",
      "outputs": [
        {
          "internalType": "bytes",
          "name": "",
          "type": "bytes"
        }
      ],
      "stateMutability": "view",
      "type": "function"
    },
    {
      "inputs": [
        {
          "internalType": "bytes",
          "name": "name",
          "type": "bytes"
        },
        {
          "internalType": "address",
          "name": "operator",
          "type": "address"
        },
        {
          "internalType": "bool",
          "name": "approved",
          "type": "bool"
        }
      ],
      "name": "approve",
      "outputs": [],
      "stateMutability": "nonpayable",
      "type": "function"
    },
    {
      "inputs": [
        {
          "internalType": "bytes32",
          "name": "node",
          "type": "bytes32"
        }
      ],
      "name": "clearRecords",
      "outputs": [],
      "stateMutability": "nonpayable",
      "type": "function"
    },
    {
      "inputs": [
        {
          "internalType": "bytes32",
          "name": "node",
          "type": "bytes32"
        }
      ],
      "name": "contenthash",
      "outputs": [
        {
          "internalType": "bytes",
          "name": "",
          "type": "bytes"
        }
      ],
      "stateMutability": "view",
      "type": "function"
    },
    {
      "inputs": [
        {
          "internalType": "bytes32",
          "name": "node",
          "type": "bytes32"
        },
        {
          "internalType": "bytes32",
          "name": "name",
          "type": "bytes32"
        },
        {
          "internalType": "uint16",
          "name": "resource",
          "type": "uint16"
        }
      ],
      "name": "dnsRecord",
      "outputs": [
        {
          "internalType": "bytes",
          "name": "",
          "type": "bytes"
        }
      ],
      "stateMutability": "view",
      "type": "function"
    },
    {
      "inputs": [
        {
          "internalType": "bytes",
          "name": "name",
          "type": "bytes"
        },
        {
          "internalType": "uint256",
          "name": "offset",
          "type": "uint256"
        },
        {
          "internalType": "address",
          "name": "operator",
          "type": "address"
        }
      ],
      "name": "getAuthorisedNode",
      "outputs": [
        {
          "internalType": "bytes32",
          "name": "node",
          "type": "bytes32"
        },
        {
          "internalType": "bool",
          "name": "authorized",
          "type": "bool"
        }
      ],
      "stateMutability": "view",
      "type": "function"
    },
    {
      "inputs": [
        {
          "internalType": "bytes32",
          "name": "node",
          "type": "bytes32"
        },
        {
          "internalType": "bytes32",
          "name": "name",
          "type": "bytes32"
        }
      ],
      "name": "hasDNSRecords",
      "outputs": [
        {
          "internalType": "bool",
          "name": "",
          "type": "bool"
        }
      ],
      "stateMutability": "view",
      "type": "function"
    },
    {
      "inputs": [
        {
          "internalType": "bytes32",
          "name": "node",
          "type": "bytes32"
        },
        {
          "internalType": "bytes4",
          "name": "interfaceID",
          "type": "bytes4"
        }
      ],
      "name": "interfaceImplementer",
      "outputs": [
        {
          "internalType": "address",
          "name": "",
          "type": "address"
        }
      ],
      "stateMutability": "view",
      "type": "function"
    },
    {
      "inputs": [
        {
          "internalType": "bytes[]",
          "name": "data",
          "type": "bytes[]"
        }
      ],
      "name": "multicall",
      "outputs": [
        {
          "internalType": "bytes[]",
          "name": "results",
          "type": "bytes[]"
        }
      ],
      "stateMutability": "nonpayable",
      "type": "function"
    },
    {
      "inputs": [
        {
          "internalType": "bytes32",
          "name": "nodehash",
          "type": "bytes32"
        },
        {
          "internalType": "bytes[]",
          "name": "data",
          "type": "bytes[]"
        }
      ],
      "name": "multicallWithNodeCheck",
      "outputs": [
        {
          "internalType": "bytes[]",
          "name": "results",
          "type": "bytes[]"
        }
      ],
      "stateMutability": "nonpayable",
      "type": "function"
    },
    {
      "inputs": [
        {
          "internalType": "bytes32",
          "name": "node",
          "type": "bytes32"
        }
      ],
      "name": "name",
      "outputs": [
        {
          "internalType": "string",
          "name": "",
          "type": "string"
        }
      ],
      "stateMutability": "view",
      "type": "function"
    },
    {
      "inputs": [],
      "name": "owner",
      "outputs": [
        {
          "internalType": "address",
          "name": "",
          "type": "address"
        }
      ],
      "stateMutability": "view",
      "type": "function"
    },
    {
      "inputs": [
        {
          "internalType": "bytes32",
          "name": "node",
          "type": "bytes32"
        }
      ],
      "name": "pubkey",
      "outputs": [
        {
          "internalType": "bytes32",
          "name": "x",
          "type": "bytes32"
        },
        {
          "internalType": "bytes32",
          "name": "y",
          "type": "bytes32"
        }
      ],
      "stateMutability": "view",
      "type": "function"
    },
    {
      "inputs": [
        {
          "internalType": "bytes32",
          "name": "",
          "type": "bytes32"
        }
      ],
      "name": "recordVersions",
      "outputs": [
        {
          "internalType": "uint64",
          "name": "",
          "type": "uint64"
        }
      ],
      "stateMutability": "view",
      "type": "function"
    },
    {
      "inputs": [
        {
          "internalType": "bytes",
          "name": "",
          "type": "bytes"
        },
        {
          "internalType": "bytes",
          "name": "data",
          "type": "bytes"
        }
      ],
      "name": "resolve",
      "outputs": [
        {
          "internalType": "bytes",
          "name": "",
          "type": "bytes"
        }
      ],
      "stateMutability": "view",
      "type": "function"
    },
    {
      "inputs": [
        {
          "internalType": "bytes32",
          "name": "node",
          "type": "bytes32"
        },
        {
          "internalType": "uint256",
          "name": "contentType",
          "type": "uint256"
        },
        {
          "internalType": "bytes",
          "name": "data",
          "type": "bytes"
        }
      ],
      "name": "setABI",
      "outputs": [],
      "stateMutability": "nonpayable",
      "type": "function"
    },
    {
      "inputs": [
        {
          "internalType": "bytes32",
          "name": "node",
          "type": "bytes32"
        },
        {
          "internalType": "uint256",
          "name": "coinType",
          "type": "uint256"
        },
        {
          "internalType": "bytes",
          "name": "a",
          "type": "bytes"
        }
      ],
      "name": "setAddr",
      "outputs": [],
      "stateMutability": "nonpayable",
      "type": "function"
    },
    {
      "inputs": [
        {
          "internalType": "bytes32",
          "name": "node",
          "type": "bytes32"
        },
        {
          "internalType": "address",
          "name": "a",
          "type": "address"
        }
      ],
      "name": "setAddr",
      "outputs": [],
      "stateMutability": "nonpayable",
      "type": "function"
    },
    {
      "inputs": [
        {
          "internalType": "bytes32",
          "name": "node",
          "type": "bytes32"
        },
        {
          "internalType": "bytes",
          "name": "hash",
          "type": "bytes"
        }
      ],
      "name": "setContenthash",
      "outputs": [],
      "stateMutability": "nonpayable",
      "type": "function"
    },
    {
      "inputs": [
        {
          "internalType": "bytes32",
          "name": "node",
          "type": "bytes32"
        },
        {
          "internalType": "bytes",
          "name": "data",
          "type": "bytes"
        }
      ],
      "name": "setDNSRecords",
      "outputs": [],
      "stateMutability": "nonpayable",
      "type": "function"
    },
    {
      "inputs": [
        {
          "internalType": "bytes32",
          "name": "node",
          "type": "bytes32"
        },
        {
          "internalType": "bytes4",
          "name": "interfaceID",
          "type": "bytes4"
        },
        {
          "internalType": "address",
          "name": "implementer",
          "type": "address"
        }
      ],
      "name": "setInterface",
      "outputs": [],
      "stateMutability": "nonpayable",
      "type": "function"
    },
    {
      "inputs": [
        {
          "internalType": "bytes32",
          "name": "node",
          "type": "bytes32"
        },
        {
          "internalType": "string",
          "name": "newName",
          "type": "string"
        }
      ],
      "name": "setName",
      "outputs": [],
      "stateMutability": "nonpayable",
      "type": "function"
    },
    {
      "inputs": [
        {
          "internalType": "bytes32",
          "name": "node",
          "type": "bytes32"
        },
        {
          "internalType": "bytes32",
          "name": "x",
          "type": "bytes32"
        },
        {
          "internalType": "bytes32",
          "name": "y",
          "type": "bytes32"
        }
      ],
      "name": "setPubkey",
      "outputs": [],
      "stateMutability": "nonpayable",
      "type": "function"
    },
    {
      "inputs": [
        {
          "internalType": "bytes32",
          "name": "node",
          "type": "bytes32"
        },
        {
          "internalType": "string",
          "name": "key",
          "type": "string"
        },
        {
          "internalType": "string",
          "name": "value",
          "type": "string"
        }
      ],
      "name": "setText",
      "outputs": [],
      "stateMutability": "nonpayable",
      "type": "function"
    },
    {
      "inputs": [
        {
          "internalType": "bytes32",
          "name": "node",
          "type": "bytes32"
        },
        {
          "internalType": "bytes",
          "name": "hash",
          "type": "bytes"
        }
      ],
      "name": "setZonehash",
      "outputs": [],
      "stateMutability": "nonpayable",
      "type": "function"
    },
    {
      "inputs": [
        {
          "internalType": "bytes4",
          "name": "interfaceID",
          "type": "bytes4"
        }
      ],
      "name": "supportsInterface",
      "outputs": [
        {
          "internalType": "bool",
          "name": "",
          "type": "bool"
        }
      ],
      "stateMutability": "view",
      "type": "function"
    },
    {
      "inputs": [
        {
          "internalType": "bytes32",
          "name": "node",
          "type": "bytes32"
        },
        {
          "internalType": "string",
          "name": "key",
          "type": "string"
        }
      ],
      "name": "text",
      "outputs": [
        {
          "internalType": "string",
          "name": "",
          "type": "string"
        }
      ],
      "stateMutability": "view",
      "type": "function"
    },
    {
      "inputs": [
        {
          "internalType": "bytes32",
          "name": "node",
          "type": "bytes32"
        }
      ],
      "name": "zonehash",
      "outputs": [
        {
          "internalType": "bytes",
          "name": "",
          "type": "bytes"
        }
      ],
      "stateMutability": "view",
      "type": "function"
    }
  ],
  "transactionHash": "0xc0f6a36ccac2c53cedcd2a27183cf612f836ee91a81e8f132d449baf1c2133cb",
  "args": [],
  "numDeployments": 1,
  "solcInputHash": "16ee01c305ad32e6a4ba0bf0a20ff96d",
  "bytecode": "0x608060405234801561001057600080fd5b50612f33806100206000396000f3fe608060405234801561001057600080fd5b50600436106101da5760003560e01c8063691f343111610104578063bc1c58d1116100a2578063d700ff3311610071578063d700ff33146104ad578063e32954eb146104f0578063e59d895d14610503578063f1cb7e061461051657600080fd5b8063bc1c58d11461041b578063c86902331461042e578063ce3decdc14610487578063d5fa2b001461049a57600080fd5b80638da5cb5b116100de5780638da5cb5b146103cd5780639061b923146103d5578063a8fa5682146103e8578063ac9650d8146103fb57600080fd5b8063691f34311461039457806377372213146103a75780638b95dd71146103ba57600080fd5b806329cd62ea1161017c5780634cbf6ba41161014b5780634cbf6ba41461030257806359d1d43c1461034e5780635c98042b1461036e578063623195b01461038157600080fd5b806329cd62ea146102b6578063304e6ade146102c95780633603d758146102dc5780633b3b57de146102ef57600080fd5b80630e4fb893116101b85780630e4fb8931461024457806310f13a8c14610257578063124a319c1461026a5780632203ab561461029557600080fd5b8063017f8fe8146101df57806301ffc9a71461020c5780630af179d71461022f575b600080fd5b6101f26101ed366004612483565b610529565b604080519283529015156020830152015b60405180910390f35b61021f61021a3660046124f2565b61064f565b6040519015158152602001610203565b61024261023d36600461254f565b610693565b005b61024261025236600461259b565b61089d565b610242610265366004612602565b610961565b61027d61027836600461267c565b610a2e565b6040516001600160a01b039091168152602001610203565b6102a86102a33660046126a8565b610cda565b60405161020392919061271a565b6102426102c4366004612733565b610e11565b6102426102d736600461254f565b610eac565b6102426102ea36600461275f565b610f28565b61027d6102fd36600461275f565b610fcb565b61021f6103103660046126a8565b6000828152602081815260408083205467ffffffffffffffff1683526006825280832094835293815283822092825291909152205461ffff16151590565b61036161035c36600461254f565b610ffd565b6040516102039190612778565b61036161037c36600461275f565b6110dd565b61024261038f36600461278b565b61119c565b6103616103a236600461275f565b611239565b6102426103b536600461254f565b611273565b6102426103c83660046127de565b6112ef565b61027d6113cf565b6103616103e336600461282e565b6113e0565b6103616103f6366004612892565b611459565b61040e61040936600461290c565b6114a7565b604051610203919061294e565b61036161042936600461275f565b6114b5565b61047261043c36600461275f565b6000818152602081815260408083205467ffffffffffffffff168352600982528083209383529290522080546001909101549091565b60408051928352602083019190915201610203565b61024261049536600461254f565b6114ef565b6102426104a83660046129b0565b611632565b6104d76104bb36600461275f565b60006020819052908152604090205467ffffffffffffffff1681565b60405167ffffffffffffffff9091168152602001610203565b61040e6104fe3660046129d3565b611659565b610242610511366004612a12565b61166e565b6103616105243660046126a8565b61172d565b6000808061053786866117f5565b6000935060ff16905080156105b657600061055e610556876001612a5b565b889084611819565b905061057f8761056e8489612a5b565b610579906001612a5b565b87610529565b6040805160208101849052908101849052919550935060600160405160208183030381529060405280519060200120935050610612565b8282806105e557506000848152600b602090815260408083206001600160a01b038916845290915290205460ff165b806106085750846001600160a01b03166105fd6113cf565b6001600160a01b0316145b9250925050610647565b82828061064157506000848152600b602090815260408083206001600160a01b038916845290915290205460ff165b92509250505b935093915050565b60006001600160e01b031982167f8295fc2000000000000000000000000000000000000000000000000000000000148061068d575061068d8261183d565b92915050565b8261069d8161187b565b6106a657600080fd5b600084815260208181526040808320548151601f870184900484028101840190925285825283926060928392859267ffffffffffffffff90911691839161070c9183918d908d908190840183828082843760009201919091525092939250506118c09050565b90505b80515160208201511015610836578661ffff16600003610774578060400151965061073981611921565b94508460405160200161074c9190612a6e565b60405160208183030381529060405280519060200120925061076d81611942565b9350610828565b600061077f82611921565b9050816040015161ffff168861ffff161415806107a357506107a1868261195e565b155b15610826576107ff8c878a8e8e8080601f016020809104026020016040519081016040528093929190818152602001838380828437600092019190915250505060208801518d91506107f6908290612a8a565b8b51158a61197c565b81604001519750816020015196508095508580519060200120935061082382611942565b94505b505b61083181611be9565b61070f565b50835115610891576108918a85888c8c8080601f0160208091040260200160405190810160405280939291908181526020018383808284376000920191909152508c925061088891508290508f612a8a565b8951158861197c565b50505050505050505050565b6000806108ac85600033610529565b91509150806108ef576040517f8f5a547c000000000000000000000000000000000000000000000000000000008152600481018390526024015b60405180910390fd5b6000828152600b602090815260408083206001600160a01b038816808552925291829020805460ff1916861515179055905183907f4118949b5ca9f612d518b6fa4b6fb8c5575022357d9d71f7375c4053f259db63906109529089908890612a9d565b60405180910390a35050505050565b8461096b8161187b565b61097457600080fd5b6000868152602081815260408083205467ffffffffffffffff168352600a8252808320898452909152908190209051849184916109b49089908990612ac1565b908152602001604051809103902091826109cf929190612b59565b5084846040516109e0929190612ac1565b6040518091039020867f448bc014f1536726cf8d54ff3d6481ed3cbc683c2591ca204274009afa09b1a187878787604051610a1e9493929190612c42565b60405180910390a3505050505050565b6000828152602081815260408083205467ffffffffffffffff1683526007825280832085845282528083206001600160e01b0319851684529091528120546001600160a01b03168015610a8257905061068d565b6000610a8d85610fcb565b90506001600160a01b038116610aa85760009250505061068d565b6040516301ffc9a760e01b602482015260009081906001600160a01b0384169060440160408051601f198184030181529181526020820180517bffffffffffffffffffffffffffffffffffffffffffffffffffffffff166301ffc9a760e01b17905251610b159190612a6e565b600060405180830381855afa9150503d8060008114610b50576040519150601f19603f3d011682016040523d82523d6000602084013e610b55565b606091505b5091509150811580610b68575060208151105b80610baa575080601f81518110610b8157610b81612c74565b01602001517fff0000000000000000000000000000000000000000000000000000000000000016155b15610bbc57600094505050505061068d565b6040516001600160e01b0319871660248201526001600160a01b0384169060440160408051601f198184030181529181526020820180517bffffffffffffffffffffffffffffffffffffffffffffffffffffffff166301ffc9a760e01b17905251610c279190612a6e565b600060405180830381855afa9150503d8060008114610c62576040519150601f19603f3d011682016040523d82523d6000602084013e610c67565b606091505b509092509050811580610c7b575060208151105b80610cbd575080601f81518110610c9457610c94612c74565b01602001517fff0000000000000000000000000000000000000000000000000000000000000016155b15610ccf57600094505050505061068d565b509095945050505050565b6000828152602081815260408083205467ffffffffffffffff168352600180835281842086855290925282206060915b848111610df15780851615801590610d3a575060008181526020839052604081208054610d3690612ad1565b9050115b15610de95780826000838152602001908152602001600020808054610d5e90612ad1565b80601f0160208091040260200160405190810160405280929190818152602001828054610d8a90612ad1565b8015610dd75780601f10610dac57610100808354040283529160200191610dd7565b820191906000526020600020905b815481529060010190602001808311610dba57829003601f168201915b50505050509050935093505050610e0a565b60011b610d0a565b5060006040518060200160405280600081525092509250505b9250929050565b82610e1b8161187b565b610e2457600080fd5b604080518082018252848152602080820185815260008881528083528481205467ffffffffffffffff1681526009835284812089825283528490209251835551600190920191909155815185815290810184905285917f1d6f5e03d3f63eb58751986629a5439baee5079ff04f345becb66e23eb154e4691015b60405180910390a250505050565b82610eb68161187b565b610ebf57600080fd5b6000848152602081815260408083205467ffffffffffffffff168352600382528083208784529091529020610ef5838583612b59565b50837fe379c1624ed7e714cc0937528a32359d69d5281337765313dba4e081b72d75788484604051610e9e929190612c8a565b80610f328161187b565b610f3b57600080fd5b6000828152602081905260408120805467ffffffffffffffff1691610f5f83612c9e565b82546101009290920a67ffffffffffffffff818102199093169183160217909155600084815260208181526040918290205491519190921681528492507fc6621ccb8f3f5a04bb6502154b2caf6adf5983fe76dfef1cfc9c42e3579db444910160405180910390a25050565b600080610fd983603c61172d565b90508051600003610fed5750600092915050565b610ff681611cd1565b9392505050565b6000838152602081815260408083205467ffffffffffffffff168352600a82528083208684529091529081902090516060919061103d9085908590612ac1565b9081526020016040518091039020805461105690612ad1565b80601f016020809104026020016040519081016040528092919081815260200182805461108290612ad1565b80156110cf5780601f106110a4576101008083540402835291602001916110cf565b820191906000526020600020905b8154815290600101906020018083116110b257829003601f168201915b505050505090509392505050565b6000818152602081815260408083205467ffffffffffffffff16835260048252808320848452909152902080546060919061111790612ad1565b80601f016020809104026020016040519081016040528092919081815260200182805461114390612ad1565b80156111905780601f1061116557610100808354040283529160200191611190565b820191906000526020600020905b81548152906001019060200180831161117357829003601f168201915b50505050509050919050565b836111a68161187b565b6111af57600080fd5b836111bb600182612a8a565b16156111c657600080fd5b6000858152602081815260408083205467ffffffffffffffff1683526001825280832088845282528083208784529091529020611204838583612b59565b50604051849086907faa121bbeef5f32f5961a2a28966e769023910fc9479059ee3495d4c1a696efe390600090a35050505050565b6000818152602081815260408083205467ffffffffffffffff16835260088252808320848452909152902080546060919061111790612ad1565b8261127d8161187b565b61128657600080fd5b6000848152602081815260408083205467ffffffffffffffff1683526008825280832087845290915290206112bc838583612b59565b50837fb7d29e911041e8d9b843369e890bcb72c9388692ba48b65ac54e7214c4c348f78484604051610e9e929190612c8a565b826112f98161187b565b61130257600080fd5b837f65412581168e88a1e60c6459d7f44ae83ad0832e670826c05a4e2476b57af752848460405161133492919061271a565b60405180910390a2603c830361138b57837f52d7d861f09ab3d26239d492e8968629f95e9e318cf0b73bfddc441522a15fd261136f84611cd1565b6040516001600160a01b03909116815260200160405180910390a25b6000848152602081815260408083205467ffffffffffffffff16835260028252808320878452825280832086845290915290206113c88382612cc5565b5050505050565b60006113db6000611cf9565b905090565b6060600080306001600160a01b0316846040516113fd9190612a6e565b600060405180830381855afa9150503d8060008114611438576040519150601f19603f3d011682016040523d82523d6000602084013e61143d565b606091505b5091509150811561145157915061068d9050565b805160208201fd5b6000838152602081815260408083205467ffffffffffffffff168352600582528083208684528252808320858452825280832061ffff85168452909152902080546060919061105690612ad1565b6060610ff660008484611d1e565b6000818152602081815260408083205467ffffffffffffffff16835260038252808320848452909152902080546060919061111790612ad1565b826114f98161187b565b61150257600080fd5b6000848152602081815260408083205467ffffffffffffffff16808452600483528184208885529092528220805491929161153c90612ad1565b80601f016020809104026020016040519081016040528092919081815260200182805461156890612ad1565b80156115b55780601f1061158a576101008083540402835291602001916115b5565b820191906000526020600020905b81548152906001019060200180831161159857829003601f168201915b5050505067ffffffffffffffff841660009081526004602090815260408083208b845290915290209192506115ed9050858783612b59565b50857f8f15ed4b723ef428f250961da8315675b507046737e19319fc1a4d81bfe87f8582878760405161162293929190612d85565b60405180910390a2505050505050565b8161163c8161187b565b61164557600080fd5b61165483603c6103c885611f11565b505050565b6060611666848484611d1e565b949350505050565b826116788161187b565b61168157600080fd5b6000848152602081815260408083205467ffffffffffffffff1683526007825280832087845282528083206001600160e01b031987168085529083529281902080547fffffffffffffffffffffffff0000000000000000000000000000000000000000166001600160a01b038716908117909155905190815286917f7c69f06bea0bdef565b709e93a147836b0063ba2dd89f02d0b7e8d931e6a6daa910160405180910390a350505050565b6000828152602081815260408083205467ffffffffffffffff168352600282528083208584528252808320848452909152902080546060919061176f90612ad1565b80601f016020809104026020016040519081016040528092919081815260200182805461179b90612ad1565b80156117e85780601f106117bd576101008083540402835291602001916117e8565b820191906000526020600020905b8154815290600101906020018083116117cb57829003601f168201915b5050505050905092915050565b600082828151811061180957611809612c74565b016020015160f81c905092915050565b82516000906118288385612a5b565b111561183357600080fd5b5091016020012090565b60006001600160e01b031982167f59d1d43c00000000000000000000000000000000000000000000000000000000148061068d575061068d82611f4a565b60006118856113cf565b6001600160a01b0316336001600160a01b0316148061068d5750506000908152600b6020908152604080832033845290915290205460ff1690565b61190e6040518060e001604052806060815260200160008152602001600061ffff168152602001600061ffff168152602001600063ffffffff16815260200160008152602001600081525090565b82815260c0810182905261068d81611be9565b6020810151815160609161068d916119399082611f88565b84519190611fe2565b60a081015160c082015160609161068d91611939908290612a8a565b600081518351148015610ff65750610ff68360008460008751612059565b865160208801206000611990878787611fe2565b90508315611aba5767ffffffffffffffff831660009081526005602090815260408083208d84528252808320858452825280832061ffff8c168452909152902080546119db90612ad1565b159050611a3a5767ffffffffffffffff831660009081526006602090815260408083208d845282528083208584529091528120805461ffff1691611a1e83612db5565b91906101000a81548161ffff021916908361ffff160217905550505b67ffffffffffffffff831660009081526005602090815260408083208d84528252808320858452825280832061ffff8c1684529091528120611a7b9161236e565b897f03528ed0c2a3ebc993b12ce3c16bb382f9c7d88ef7d8a1bf290eaf35955a12078a8a604051611aad929190612dd3565b60405180910390a2610891565b67ffffffffffffffff831660009081526005602090815260408083208d84528252808320858452825280832061ffff8c16845290915290208054611afd90612ad1565b9050600003611b5e5767ffffffffffffffff831660009081526006602090815260408083208d845282528083208584529091528120805461ffff1691611b4283612df9565b91906101000a81548161ffff021916908361ffff160217905550505b67ffffffffffffffff831660009081526005602090815260408083208d84528252808320858452825280832061ffff8c1684529091529020611ba08282612cc5565b50897f52a608b3303a48862d07a73d82fa221318c0027fbbcfb1b2329bface3f19ff2b8a8a84604051611bd593929190612e10565b60405180910390a250505050505050505050565b60c08101516020820181905281515111611c005750565b6000611c1482600001518360200151611f88565b8260200151611c239190612a5b565b8251909150611c32908261207c565b61ffff166040830152611c46600282612a5b565b8251909150611c55908261207c565b61ffff166060830152611c69600282612a5b565b8251909150611c7890826120a4565b63ffffffff166080830152611c8e600482612a5b565b8251909150600090611ca0908361207c565b61ffff169050611cb1600283612a5b565b60a084018190529150611cc48183612a5b565b60c0909301929092525050565b60008151601414611ce157600080fd5b50602001516c01000000000000000000000000900490565b600080611d10600119368181013560f01c90030190565b929092013560601c92915050565b60608167ffffffffffffffff811115611d3957611d396123c4565b604051908082528060200260200182016040528015611d6c57816020015b6060815260200190600190039081611d575790505b50905060005b82811015611f09578415611e51576000848483818110611d9457611d94612c74565b9050602002810190611da69190612e3f565b611db591602491600491612e86565b611dbe91612eb0565b9050858114611e4f576040517f08c379a000000000000000000000000000000000000000000000000000000000815260206004820152603460248201527f6d756c746963616c6c3a20416c6c207265636f726473206d757374206861766560448201527f2061206d61746368696e67206e616d656861736800000000000000000000000060648201526084016108e6565b505b60008030868685818110611e6757611e67612c74565b9050602002810190611e799190612e3f565b604051611e87929190612ac1565b600060405180830381855af49150503d8060008114611ec2576040519150601f19603f3d011682016040523d82523d6000602084013e611ec7565b606091505b509150915081611ed657600080fd5b80848481518110611ee957611ee9612c74565b602002602001018190525050508080611f0190612ece565b915050611d72565b509392505050565b6040805160148082528183019092526060916020820181803683375050506c010000000000000000000000009290920260208301525090565b60006001600160e01b031982167fc869023300000000000000000000000000000000000000000000000000000000148061068d575061068d826120ce565b6000815b83518110611f9c57611f9c612ee7565b6000611fa885836117f5565b60ff169050611fb8816001612a5b565b611fc29083612a5b565b915080600003611fd25750611fd8565b50611f8c565b6116668382612a8a565b8251606090611ff18385612a5b565b1115611ffc57600080fd5b60008267ffffffffffffffff811115612017576120176123c4565b6040519080825280601f01601f191660200182016040528015612041576020820181803683370190505b50905060208082019086860101610ccf82828761210c565b6000612066848484611819565b612071878785611819565b149695505050505050565b815160009061208c836002612a5b565b111561209757600080fd5b50016002015161ffff1690565b81516000906120b4836004612a5b565b11156120bf57600080fd5b50016004015163ffffffff1690565b60006001600160e01b031982167f691f343100000000000000000000000000000000000000000000000000000000148061068d575061068d82612162565b602081106121445781518352612123602084612a5b565b9250612130602083612a5b565b915061213d602082612a8a565b905061210c565b905182516020929092036101000a6000190180199091169116179052565b60006001600160e01b031982167f124a319c00000000000000000000000000000000000000000000000000000000148061068d575061068d8260006001600160e01b031982167fa8fa56820000000000000000000000000000000000000000000000000000000014806121fe57506001600160e01b031982167f5c98042b00000000000000000000000000000000000000000000000000000000145b8061068d575061068d8260006001600160e01b031982167fbc1c58d100000000000000000000000000000000000000000000000000000000148061068d575061068d8260006001600160e01b031982167f3b3b57de0000000000000000000000000000000000000000000000000000000014806122a457506001600160e01b031982167ff1cb7e0600000000000000000000000000000000000000000000000000000000145b8061068d575061068d8260006001600160e01b031982167f2203ab5600000000000000000000000000000000000000000000000000000000148061068d575061068d8260006001600160e01b031982167fd700ff3300000000000000000000000000000000000000000000000000000000148061068d575061068d8260006001600160e01b031982167f4fbf043300000000000000000000000000000000000000000000000000000000148061068d57506301ffc9a760e01b6001600160e01b031983161461068d565b50805461237a90612ad1565b6000825580601f1061238a575050565b601f0160209004906000526020600020908101906123a891906123ab565b50565b5b808211156123c057600081556001016123ac565b5090565b634e487b7160e01b600052604160045260246000fd5b600082601f8301126123eb57600080fd5b813567ffffffffffffffff80821115612406576124066123c4565b604051601f8301601f19908116603f0116810190828211818310171561242e5761242e6123c4565b8160405283815286602085880101111561244757600080fd5b836020870160208301376000602085830101528094505050505092915050565b80356001600160a01b038116811461247e57600080fd5b919050565b60008060006060848603121561249857600080fd5b833567ffffffffffffffff8111156124af57600080fd5b6124bb868287016123da565b935050602084013591506124d160408501612467565b90509250925092565b80356001600160e01b03198116811461247e57600080fd5b60006020828403121561250457600080fd5b610ff6826124da565b60008083601f84011261251f57600080fd5b50813567ffffffffffffffff81111561253757600080fd5b602083019150836020828501011115610e0a57600080fd5b60008060006040848603121561256457600080fd5b83359250602084013567ffffffffffffffff81111561258257600080fd5b61258e8682870161250d565b9497909650939450505050565b6000806000606084860312156125b057600080fd5b833567ffffffffffffffff8111156125c757600080fd5b6125d3868287016123da565b9350506125e260208501612467565b9150604084013580151581146125f757600080fd5b809150509250925092565b60008060008060006060868803121561261a57600080fd5b85359450602086013567ffffffffffffffff8082111561263957600080fd5b61264589838a0161250d565b9096509450604088013591508082111561265e57600080fd5b5061266b8882890161250d565b969995985093965092949392505050565b6000806040838503121561268f57600080fd5b8235915061269f602084016124da565b90509250929050565b600080604083850312156126bb57600080fd5b50508035926020909101359150565b60005b838110156126e55781810151838201526020016126cd565b50506000910152565b600081518084526127068160208601602086016126ca565b601f01601f19169290920160200192915050565b82815260406020820152600061166660408301846126ee565b60008060006060848603121561274857600080fd5b505081359360208301359350604090920135919050565b60006020828403121561277157600080fd5b5035919050565b602081526000610ff660208301846126ee565b600080600080606085870312156127a157600080fd5b8435935060208501359250604085013567ffffffffffffffff8111156127c657600080fd5b6127d28782880161250d565b95989497509550505050565b6000806000606084860312156127f357600080fd5b8335925060208401359150604084013567ffffffffffffffff81111561281857600080fd5b612824868287016123da565b9150509250925092565b6000806040838503121561284157600080fd5b823567ffffffffffffffff8082111561285957600080fd5b612865868387016123da565b9350602085013591508082111561287b57600080fd5b50612888858286016123da565b9150509250929050565b6000806000606084860312156128a757600080fd5b8335925060208401359150604084013561ffff811681146125f757600080fd5b60008083601f8401126128d957600080fd5b50813567ffffffffffffffff8111156128f157600080fd5b6020830191508360208260051b8501011115610e0a57600080fd5b6000806020838503121561291f57600080fd5b823567ffffffffffffffff81111561293657600080fd5b612942858286016128c7565b90969095509350505050565b6000602080830181845280855180835260408601915060408160051b870101925083870160005b828110156129a357603f198886030184526129918583516126ee565b94509285019290850190600101612975565b5092979650505050505050565b600080604083850312156129c357600080fd5b8235915061269f60208401612467565b6000806000604084860312156129e857600080fd5b83359250602084013567ffffffffffffffff811115612a0657600080fd5b61258e868287016128c7565b600080600060608486031215612a2757600080fd5b83359250612a37602085016124da565b91506124d160408501612467565b634e487b7160e01b600052601160045260246000fd5b8082018082111561068d5761068d612a45565b60008251612a808184602087016126ca565b9190910192915050565b8181038181111561068d5761068d612a45565b604081526000612ab060408301856126ee565b905082151560208301529392505050565b8183823760009101908152919050565b600181811c90821680612ae557607f821691505b602082108103612b0557634e487b7160e01b600052602260045260246000fd5b50919050565b601f82111561165457600081815260208120601f850160051c81016020861015612b325750805b601f850160051c820191505b81811015612b5157828155600101612b3e565b505050505050565b67ffffffffffffffff831115612b7157612b716123c4565b612b8583612b7f8354612ad1565b83612b0b565b6000601f841160018114612bb95760008515612ba15750838201355b600019600387901b1c1916600186901b1783556113c8565b600083815260209020601f19861690835b82811015612bea5786850135825560209485019460019092019101612bca565b5086821015612c075760001960f88860031b161c19848701351681555b505060018560011b0183555050505050565b81835281816020850137506000828201602090810191909152601f909101601f19169091010190565b604081526000612c56604083018688612c19565b8281036020840152612c69818587612c19565b979650505050505050565b634e487b7160e01b600052603260045260246000fd5b602081526000611666602083018486612c19565b600067ffffffffffffffff808316818103612cbb57612cbb612a45565b6001019392505050565b815167ffffffffffffffff811115612cdf57612cdf6123c4565b612cf381612ced8454612ad1565b84612b0b565b602080601f831160018114612d285760008415612d105750858301515b600019600386901b1c1916600185901b178555612b51565b600085815260208120601f198616915b82811015612d5757888601518255948401946001909101908401612d38565b5085821015612d755787850151600019600388901b60f8161c191681555b5050505050600190811b01905550565b604081526000612d9860408301866126ee565b8281036020840152612dab818587612c19565b9695505050505050565b600061ffff821680612dc957612dc9612a45565b6000190192915050565b604081526000612de660408301856126ee565b905061ffff831660208301529392505050565b600061ffff808316818103612cbb57612cbb612a45565b606081526000612e2360608301866126ee565b61ffff851660208401528281036040840152612dab81856126ee565b6000808335601e19843603018112612e5657600080fd5b83018035915067ffffffffffffffff821115612e7157600080fd5b602001915036819003821315610e0a57600080fd5b60008085851115612e9657600080fd5b83861115612ea357600080fd5b5050820193919092039150565b8035602083101561068d57600019602084900360031b1b1692915050565b600060018201612ee057612ee0612a45565b5060010190565b634e487b7160e01b600052600160045260246000fdfea26469706673582212200aa78417063396c5551747395ad9d0bbba96a392774450ec73d64a6085acfe8864736f6c63430008110033",
  "devdoc": {
    "kind": "dev",
    "methods": {
      "ABI(bytes32,uint256)": {
        "params": {
          "contentTypes": "A bitwise OR of the ABI formats accepted by the caller.",
          "node": "The ENS node to query"
        },
        "returns": {
          "_0": "contentType The content type of the return value",
          "_1": "data The ABI data"
        }
      },
      "addr(bytes32)": {
        "params": {
          "node": "The ENS node to query."
        },
        "returns": {
          "_0": "The associated address."
        }
      },
      "approve(bytes,address,bool)": {
        "details": "Approve an operator to be able to updated records on a node."
      },
      "clearRecords(bytes32)": {
        "params": {
          "node": "The node to update."
        }
      },
      "contenthash(bytes32)": {
        "params": {
          "node": "The ENS node to query."
        },
        "returns": {
          "_0": "The associated contenthash."
        }
      },
      "dnsRecord(bytes32,bytes32,uint16)": {
        "params": {
          "name": "the keccak-256 hash of the fully-qualified name for which to fetch the record",
          "node": "the namehash of the node for which to fetch the record",
          "resource": "the ID of the resource as per https://en.wikipedia.org/wiki/List_of_DNS_record_types"
        },
        "returns": {
          "_0": "the DNS record in wire format if present, otherwise empty"
        }
      },
      "hasDNSRecords(bytes32,bytes32)": {
        "params": {
          "name": "the namehash of the node for which to check the records",
          "node": "the namehash of the node for which to check the records"
        }
      },
      "interfaceImplementer(bytes32,bytes4)": {
        "params": {
          "interfaceID": "The EIP 165 interface ID to check for.",
          "node": "The ENS node to query."
        },
        "returns": {
          "_0": "The address that implements this interface, or 0 if the interface is unsupported."
        }
      },
      "name(bytes32)": {
        "params": {
          "node": "The ENS node to query."
        },
        "returns": {
          "_0": "The associated name."
        }
      },
      "pubkey(bytes32)": {
        "params": {
          "node": "The ENS node to query"
        },
        "returns": {
          "x": "The X coordinate of the curve point for the public key.",
          "y": "The Y coordinate of the curve point for the public key."
        }
      },
      "setABI(bytes32,uint256,bytes)": {
        "params": {
          "contentType": "The content type of the ABI",
          "data": "The ABI data.",
          "node": "The node to update."
        }
      },
      "setAddr(bytes32,address)": {
        "params": {
          "a": "The address to set.",
          "node": "The node to update."
        }
      },
      "setContenthash(bytes32,bytes)": {
        "params": {
          "hash": "The contenthash to set",
          "node": "The node to update."
        }
      },
      "setDNSRecords(bytes32,bytes)": {
        "params": {
          "data": "the DNS wire format records to set",
          "node": "the namehash of the node for which to set the records"
        }
      },
      "setInterface(bytes32,bytes4,address)": {
        "params": {
          "implementer": "The address of a contract that implements this interface for this node.",
          "interfaceID": "The EIP 165 interface ID.",
          "node": "The node to update."
        }
      },
      "setName(bytes32,string)": {
        "params": {
          "node": "The node to update."
        }
      },
      "setPubkey(bytes32,bytes32,bytes32)": {
        "params": {
          "node": "The ENS node to query",
          "x": "the X coordinate of the curve point for the public key.",
          "y": "the Y coordinate of the curve point for the public key."
        }
      },
      "setText(bytes32,string,string)": {
        "params": {
          "key": "The key to set.",
          "node": "The node to update.",
          "value": "The text data value to set."
        }
      },
      "setZonehash(bytes32,bytes)": {
        "params": {
          "hash": "The zonehash to set",
          "node": "The node to update."
        }
      },
      "text(bytes32,string)": {
        "params": {
          "key": "The text data key to query.",
          "node": "The ENS node to query."
        },
        "returns": {
          "_0": "The associated text data."
        }
      },
      "zonehash(bytes32)": {
        "params": {
          "node": "The ENS node to query."
        },
        "returns": {
          "_0": "The associated contenthash."
        }
      }
    },
    "version": 1
  },
  "userdoc": {
    "kind": "user",
    "methods": {
      "ABI(bytes32,uint256)": {
        "notice": "Returns the ABI associated with an ENS node. Defined in EIP205."
      },
      "addr(bytes32)": {
        "notice": "Returns the address associated with an ENS node."
      },
      "clearRecords(bytes32)": {
        "notice": "Increments the record version associated with an ENS node. May only be called by the owner of that node in the ENS registry."
      },
      "contenthash(bytes32)": {
        "notice": "Returns the contenthash associated with an ENS node."
      },
      "dnsRecord(bytes32,bytes32,uint16)": {
        "notice": "Obtain a DNS record."
      },
      "hasDNSRecords(bytes32,bytes32)": {
        "notice": "Check if a given node has records."
      },
      "interfaceImplementer(bytes32,bytes4)": {
        "notice": "Returns the address of a contract that implements the specified interface for this name. If an implementer has not been set for this interfaceID and name, the resolver will query the contract at `addr()`. If `addr()` is set, a contract exists at that address, and that contract implements EIP165 and returns `true` for the specified interfaceID, its address will be returned."
      },
      "name(bytes32)": {
        "notice": "Returns the name associated with an ENS node, for reverse records. Defined in EIP181."
      },
      "pubkey(bytes32)": {
        "notice": "Returns the SECP256k1 public key associated with an ENS node. Defined in EIP 619."
      },
      "setABI(bytes32,uint256,bytes)": {
        "notice": "Sets the ABI associated with an ENS node. Nodes may have one ABI of each content type. To remove an ABI, set it to the empty string."
      },
      "setAddr(bytes32,address)": {
        "notice": "Sets the address associated with an ENS node. May only be called by the owner of that node in the ENS registry."
      },
      "setContenthash(bytes32,bytes)": {
        "notice": "Sets the contenthash associated with an ENS node. May only be called by the owner of that node in the ENS registry."
      },
      "setDNSRecords(bytes32,bytes)": {
        "notice": "Set one or more DNS records.  Records are supplied in wire-format. Records with the same node/name/resource must be supplied one after the other to ensure the data is updated correctly. For example, if the data was supplied:     a.example.com IN A 1.2.3.4     a.example.com IN A 5.6.7.8     www.example.com IN CNAME a.example.com. then this would store the two A records for a.example.com correctly as a single RRSET, however if the data was supplied:     a.example.com IN A 1.2.3.4     www.example.com IN CNAME a.example.com.     a.example.com IN A 5.6.7.8 then this would store the first A record, the CNAME, then the second A record which would overwrite the first."
      },
      "setInterface(bytes32,bytes4,address)": {
        "notice": "Sets an interface associated with a name. Setting the address to 0 restores the default behaviour of querying the contract at `addr()` for interface support."
      },
      "setName(bytes32,string)": {
        "notice": "Sets the name associated with an ENS node, for reverse records. May only be called by the owner of that node in the ENS registry."
      },
      "setPubkey(bytes32,bytes32,bytes32)": {
        "notice": "Sets the SECP256k1 public key associated with an ENS node."
      },
      "setText(bytes32,string,string)": {
        "notice": "Sets the text data associated with an ENS node and key. May only be called by the owner of that node in the ENS registry."
      },
      "setZonehash(bytes32,bytes)": {
        "notice": "setZonehash sets the hash for the zone. May only be called by the owner of that node in the ENS registry."
      },
      "text(bytes32,string)": {
        "notice": "Returns the text data associated with an ENS node and key."
      },
      "zonehash(bytes32)": {
        "notice": "zonehash obtains the hash for the zone."
      }
    },
    "notice": "A delegated resolver that allows the resolver owner to add an operator to update records of a node on behalf of the owner. address.",
    "version": 1
  },
  "storageLayout": {
    "storage": [
      {
        "astId": 13278,
        "contract": "contracts/resolvers/DelegatableResolver.sol:DelegatableResolver",
        "label": "recordVersions",
        "offset": 0,
        "slot": "0",
        "type": "t_mapping(t_bytes32,t_uint64)"
      },
      {
        "astId": 13357,
        "contract": "contracts/resolvers/DelegatableResolver.sol:DelegatableResolver",
        "label": "versionable_abis",
        "offset": 0,
        "slot": "1",
        "type": "t_mapping(t_uint64,t_mapping(t_bytes32,t_mapping(t_uint256,t_bytes_storage)))"
      },
      {
        "astId": 13511,
        "contract": "contracts/resolvers/DelegatableResolver.sol:DelegatableResolver",
        "label": "versionable_addresses",
        "offset": 0,
        "slot": "2",
        "type": "t_mapping(t_uint64,t_mapping(t_bytes32,t_mapping(t_uint256,t_bytes_storage)))"
      },
      {
        "astId": 13702,
        "contract": "contracts/resolvers/DelegatableResolver.sol:DelegatableResolver",
        "label": "versionable_hashes",
        "offset": 0,
        "slot": "3",
        "type": "t_mapping(t_uint64,t_mapping(t_bytes32,t_bytes_storage))"
      },
      {
        "astId": 13792,
        "contract": "contracts/resolvers/DelegatableResolver.sol:DelegatableResolver",
        "label": "versionable_zonehashes",
        "offset": 0,
        "slot": "4",
        "type": "t_mapping(t_uint64,t_mapping(t_bytes32,t_bytes_storage))"
      },
      {
        "astId": 13802,
        "contract": "contracts/resolvers/DelegatableResolver.sol:DelegatableResolver",
        "label": "versionable_records",
        "offset": 0,
        "slot": "5",
        "type": "t_mapping(t_uint64,t_mapping(t_bytes32,t_mapping(t_bytes32,t_mapping(t_uint16,t_bytes_storage))))"
      },
      {
        "astId": 13810,
        "contract": "contracts/resolvers/DelegatableResolver.sol:DelegatableResolver",
        "label": "versionable_nameEntriesCount",
        "offset": 0,
        "slot": "6",
        "type": "t_mapping(t_uint64,t_mapping(t_bytes32,t_mapping(t_bytes32,t_uint16)))"
      },
      {
        "astId": 14548,
        "contract": "contracts/resolvers/DelegatableResolver.sol:DelegatableResolver",
        "label": "versionable_interfaces",
        "offset": 0,
        "slot": "7",
        "type": "t_mapping(t_uint64,t_mapping(t_bytes32,t_mapping(t_bytes4,t_address)))"
      },
      {
        "astId": 14740,
        "contract": "contracts/resolvers/DelegatableResolver.sol:DelegatableResolver",
        "label": "versionable_names",
        "offset": 0,
        "slot": "8",
        "type": "t_mapping(t_uint64,t_mapping(t_bytes32,t_string_storage))"
      },
      {
        "astId": 14827,
        "contract": "contracts/resolvers/DelegatableResolver.sol:DelegatableResolver",
        "label": "versionable_pubkeys",
        "offset": 0,
        "slot": "9",
        "type": "t_mapping(t_uint64,t_mapping(t_bytes32,t_struct(PublicKey)14820_storage))"
      },
      {
        "astId": 14930,
        "contract": "contracts/resolvers/DelegatableResolver.sol:DelegatableResolver",
        "label": "versionable_texts",
        "offset": 0,
        "slot": "10",
        "type": "t_mapping(t_uint64,t_mapping(t_bytes32,t_mapping(t_string_memory_ptr,t_string_storage)))"
      },
      {
        "astId": 12184,
        "contract": "contracts/resolvers/DelegatableResolver.sol:DelegatableResolver",
        "label": "operators",
        "offset": 0,
        "slot": "11",
        "type": "t_mapping(t_bytes32,t_mapping(t_address,t_bool))"
      }
    ],
    "types": {
      "t_address": {
        "encoding": "inplace",
        "label": "address",
        "numberOfBytes": "20"
      },
      "t_bool": {
        "encoding": "inplace",
        "label": "bool",
        "numberOfBytes": "1"
      },
      "t_bytes32": {
        "encoding": "inplace",
        "label": "bytes32",
        "numberOfBytes": "32"
      },
      "t_bytes4": {
        "encoding": "inplace",
        "label": "bytes4",
        "numberOfBytes": "4"
      },
      "t_bytes_storage": {
        "encoding": "bytes",
        "label": "bytes",
        "numberOfBytes": "32"
      },
      "t_mapping(t_address,t_bool)": {
        "encoding": "mapping",
        "key": "t_address",
        "label": "mapping(address => bool)",
        "numberOfBytes": "32",
        "value": "t_bool"
      },
      "t_mapping(t_bytes32,t_bytes_storage)": {
        "encoding": "mapping",
        "key": "t_bytes32",
        "label": "mapping(bytes32 => bytes)",
        "numberOfBytes": "32",
        "value": "t_bytes_storage"
      },
      "t_mapping(t_bytes32,t_mapping(t_address,t_bool))": {
        "encoding": "mapping",
        "key": "t_bytes32",
        "label": "mapping(bytes32 => mapping(address => bool))",
        "numberOfBytes": "32",
        "value": "t_mapping(t_address,t_bool)"
      },
      "t_mapping(t_bytes32,t_mapping(t_bytes32,t_mapping(t_uint16,t_bytes_storage)))": {
        "encoding": "mapping",
        "key": "t_bytes32",
        "label": "mapping(bytes32 => mapping(bytes32 => mapping(uint16 => bytes)))",
        "numberOfBytes": "32",
        "value": "t_mapping(t_bytes32,t_mapping(t_uint16,t_bytes_storage))"
      },
      "t_mapping(t_bytes32,t_mapping(t_bytes32,t_uint16))": {
        "encoding": "mapping",
        "key": "t_bytes32",
        "label": "mapping(bytes32 => mapping(bytes32 => uint16))",
        "numberOfBytes": "32",
        "value": "t_mapping(t_bytes32,t_uint16)"
      },
      "t_mapping(t_bytes32,t_mapping(t_bytes4,t_address))": {
        "encoding": "mapping",
        "key": "t_bytes32",
        "label": "mapping(bytes32 => mapping(bytes4 => address))",
        "numberOfBytes": "32",
        "value": "t_mapping(t_bytes4,t_address)"
      },
      "t_mapping(t_bytes32,t_mapping(t_string_memory_ptr,t_string_storage))": {
        "encoding": "mapping",
        "key": "t_bytes32",
        "label": "mapping(bytes32 => mapping(string => string))",
        "numberOfBytes": "32",
        "value": "t_mapping(t_string_memory_ptr,t_string_storage)"
      },
      "t_mapping(t_bytes32,t_mapping(t_uint16,t_bytes_storage))": {
        "encoding": "mapping",
        "key": "t_bytes32",
        "label": "mapping(bytes32 => mapping(uint16 => bytes))",
        "numberOfBytes": "32",
        "value": "t_mapping(t_uint16,t_bytes_storage)"
      },
      "t_mapping(t_bytes32,t_mapping(t_uint256,t_bytes_storage))": {
        "encoding": "mapping",
        "key": "t_bytes32",
        "label": "mapping(bytes32 => mapping(uint256 => bytes))",
        "numberOfBytes": "32",
        "value": "t_mapping(t_uint256,t_bytes_storage)"
      },
      "t_mapping(t_bytes32,t_string_storage)": {
        "encoding": "mapping",
        "key": "t_bytes32",
        "label": "mapping(bytes32 => string)",
        "numberOfBytes": "32",
        "value": "t_string_storage"
      },
      "t_mapping(t_bytes32,t_struct(PublicKey)14820_storage)": {
        "encoding": "mapping",
        "key": "t_bytes32",
        "label": "mapping(bytes32 => struct PubkeyResolver.PublicKey)",
        "numberOfBytes": "32",
        "value": "t_struct(PublicKey)14820_storage"
      },
      "t_mapping(t_bytes32,t_uint16)": {
        "encoding": "mapping",
        "key": "t_bytes32",
        "label": "mapping(bytes32 => uint16)",
        "numberOfBytes": "32",
        "value": "t_uint16"
      },
      "t_mapping(t_bytes32,t_uint64)": {
        "encoding": "mapping",
        "key": "t_bytes32",
        "label": "mapping(bytes32 => uint64)",
        "numberOfBytes": "32",
        "value": "t_uint64"
      },
      "t_mapping(t_bytes4,t_address)": {
        "encoding": "mapping",
        "key": "t_bytes4",
        "label": "mapping(bytes4 => address)",
        "numberOfBytes": "32",
        "value": "t_address"
      },
      "t_mapping(t_string_memory_ptr,t_string_storage)": {
        "encoding": "mapping",
        "key": "t_string_memory_ptr",
        "label": "mapping(string => string)",
        "numberOfBytes": "32",
        "value": "t_string_storage"
      },
      "t_mapping(t_uint16,t_bytes_storage)": {
        "encoding": "mapping",
        "key": "t_uint16",
        "label": "mapping(uint16 => bytes)",
        "numberOfBytes": "32",
        "value": "t_bytes_storage"
      },
      "t_mapping(t_uint256,t_bytes_storage)": {
        "encoding": "mapping",
        "key": "t_uint256",
        "label": "mapping(uint256 => bytes)",
        "numberOfBytes": "32",
        "value": "t_bytes_storage"
      },
      "t_mapping(t_uint64,t_mapping(t_bytes32,t_bytes_storage))": {
        "encoding": "mapping",
        "key": "t_uint64",
        "label": "mapping(uint64 => mapping(bytes32 => bytes))",
        "numberOfBytes": "32",
        "value": "t_mapping(t_bytes32,t_bytes_storage)"
      },
      "t_mapping(t_uint64,t_mapping(t_bytes32,t_mapping(t_bytes32,t_mapping(t_uint16,t_bytes_storage))))": {
        "encoding": "mapping",
        "key": "t_uint64",
        "label": "mapping(uint64 => mapping(bytes32 => mapping(bytes32 => mapping(uint16 => bytes))))",
        "numberOfBytes": "32",
        "value": "t_mapping(t_bytes32,t_mapping(t_bytes32,t_mapping(t_uint16,t_bytes_storage)))"
      },
      "t_mapping(t_uint64,t_mapping(t_bytes32,t_mapping(t_bytes32,t_uint16)))": {
        "encoding": "mapping",
        "key": "t_uint64",
        "label": "mapping(uint64 => mapping(bytes32 => mapping(bytes32 => uint16)))",
        "numberOfBytes": "32",
        "value": "t_mapping(t_bytes32,t_mapping(t_bytes32,t_uint16))"
      },
      "t_mapping(t_uint64,t_mapping(t_bytes32,t_mapping(t_bytes4,t_address)))": {
        "encoding": "mapping",
        "key": "t_uint64",
        "label": "mapping(uint64 => mapping(bytes32 => mapping(bytes4 => address)))",
        "numberOfBytes": "32",
        "value": "t_mapping(t_bytes32,t_mapping(t_bytes4,t_address))"
      },
      "t_mapping(t_uint64,t_mapping(t_bytes32,t_mapping(t_string_memory_ptr,t_string_storage)))": {
        "encoding": "mapping",
        "key": "t_uint64",
        "label": "mapping(uint64 => mapping(bytes32 => mapping(string => string)))",
        "numberOfBytes": "32",
        "value": "t_mapping(t_bytes32,t_mapping(t_string_memory_ptr,t_string_storage))"
      },
      "t_mapping(t_uint64,t_mapping(t_bytes32,t_mapping(t_uint256,t_bytes_storage)))": {
        "encoding": "mapping",
        "key": "t_uint64",
        "label": "mapping(uint64 => mapping(bytes32 => mapping(uint256 => bytes)))",
        "numberOfBytes": "32",
        "value": "t_mapping(t_bytes32,t_mapping(t_uint256,t_bytes_storage))"
      },
      "t_mapping(t_uint64,t_mapping(t_bytes32,t_string_storage))": {
        "encoding": "mapping",
        "key": "t_uint64",
        "label": "mapping(uint64 => mapping(bytes32 => string))",
        "numberOfBytes": "32",
        "value": "t_mapping(t_bytes32,t_string_storage)"
      },
      "t_mapping(t_uint64,t_mapping(t_bytes32,t_struct(PublicKey)14820_storage))": {
        "encoding": "mapping",
        "key": "t_uint64",
        "label": "mapping(uint64 => mapping(bytes32 => struct PubkeyResolver.PublicKey))",
        "numberOfBytes": "32",
        "value": "t_mapping(t_bytes32,t_struct(PublicKey)14820_storage)"
      },
      "t_string_memory_ptr": {
        "encoding": "bytes",
        "label": "string",
        "numberOfBytes": "32"
      },
      "t_string_storage": {
        "encoding": "bytes",
        "label": "string",
        "numberOfBytes": "32"
      },
      "t_struct(PublicKey)14820_storage": {
        "encoding": "inplace",
        "label": "struct PubkeyResolver.PublicKey",
        "members": [
          {
            "astId": 14817,
            "contract": "contracts/resolvers/DelegatableResolver.sol:DelegatableResolver",
            "label": "x",
            "offset": 0,
            "slot": "0",
            "type": "t_bytes32"
          },
          {
            "astId": 14819,
            "contract": "contracts/resolvers/DelegatableResolver.sol:DelegatableResolver",
            "label": "y",
            "offset": 0,
            "slot": "1",
            "type": "t_bytes32"
          }
        ],
        "numberOfBytes": "64"
      },
      "t_uint16": {
        "encoding": "inplace",
        "label": "uint16",
        "numberOfBytes": "2"
      },
      "t_uint256": {
        "encoding": "inplace",
        "label": "uint256",
        "numberOfBytes": "32"
      },
      "t_uint64": {
        "encoding": "inplace",
        "label": "uint64",
        "numberOfBytes": "8"
      }
    }
  }
}