{
  "address": "0xfdF30e5E06d728704A42bac6E0326538E659a67B",
  "abi": [
    {
      "inputs": [
        {
          "internalType": "bytes32",
          "name": "_L2ReverseNode",
          "type": "bytes32"
        },
        {
          "internalType": "uint256",
          "name": "_coinType",
          "type": "uint256"
        }
      ],
      "stateMutability": "nonpayable",
      "type": "constructor"
    },
    {
      "inputs": [],
      "name": "InvalidSignature",
      "type": "error"
    },
    {
      "inputs": [],
      "name": "NotOwnerOfContract",
      "type": "error"
    },
    {
      "inputs": [],
      "name": "SignatureOutOfDate",
      "type": "error"
    },
    {
      "inputs": [],
      "name": "Unauthorised",
      "type": "error"
    },
    {
      "anonymous": false,
      "inputs": [
        {
          "indexed": true,
          "internalType": "bytes32",
          "name": "node",
          "type": "bytes32"
        },
        {
          "indexed": false,
          "internalType": "string",
          "name": "name",
          "type": "string"
        }
      ],
      "name": "NameChanged",
      "type": "event"
    },
    {
      "anonymous": false,
      "inputs": [
        {
          "indexed": true,
          "internalType": "address",
          "name": "previousOwner",
          "type": "address"
        },
        {
          "indexed": true,
          "internalType": "address",
          "name": "newOwner",
          "type": "address"
        }
      ],
      "name": "OwnershipTransferred",
      "type": "event"
    },
    {
      "anonymous": false,
      "inputs": [
        {
          "indexed": true,
          "internalType": "address",
          "name": "addr",
          "type": "address"
        },
        {
          "indexed": true,
          "internalType": "bytes32",
          "name": "node",
          "type": "bytes32"
        }
      ],
      "name": "ReverseClaimed",
      "type": "event"
    },
    {
      "anonymous": false,
      "inputs": [
        {
          "indexed": true,
          "internalType": "bytes32",
          "name": "node",
          "type": "bytes32"
        },
        {
          "indexed": true,
          "internalType": "string",
          "name": "indexedKey",
          "type": "string"
        },
        {
          "indexed": false,
          "internalType": "string",
          "name": "key",
          "type": "string"
        },
        {
          "indexed": false,
          "internalType": "string",
          "name": "value",
          "type": "string"
        }
      ],
      "name": "TextChanged",
      "type": "event"
    },
    {
      "anonymous": false,
      "inputs": [
        {
          "indexed": true,
          "internalType": "bytes32",
          "name": "node",
          "type": "bytes32"
        },
        {
          "indexed": false,
          "internalType": "uint64",
          "name": "newVersion",
          "type": "uint64"
        }
      ],
      "name": "VersionChanged",
      "type": "event"
    },
    {
      "inputs": [],
      "name": "L2ReverseNode",
      "outputs": [
        {
          "internalType": "bytes32",
          "name": "",
          "type": "bytes32"
        }
      ],
      "stateMutability": "view",
      "type": "function"
    },
    {
      "inputs": [
        {
          "internalType": "address",
          "name": "addr",
          "type": "address"
        }
      ],
      "name": "clearRecords",
      "outputs": [],
      "stateMutability": "nonpayable",
      "type": "function"
    },
    {
      "inputs": [
        {
          "internalType": "address",
          "name": "addr",
          "type": "address"
        },
        {
          "internalType": "uint256",
          "name": "inceptionDate",
          "type": "uint256"
        },
        {
          "internalType": "bytes",
          "name": "signature",
          "type": "bytes"
        }
      ],
      "name": "clearRecordsWithSignature",
      "outputs": [],
      "stateMutability": "nonpayable",
      "type": "function"
    },
    {
      "inputs": [],
      "name": "coinType",
      "outputs": [
        {
          "internalType": "uint256",
          "name": "",
          "type": "uint256"
        }
      ],
      "stateMutability": "view",
      "type": "function"
    },
    {
      "inputs": [
        {
          "internalType": "bytes32",
          "name": "",
          "type": "bytes32"
        }
      ],
      "name": "lastUpdated",
      "outputs": [
        {
          "internalType": "uint256",
          "name": "",
          "type": "uint256"
        }
      ],
      "stateMutability": "view",
      "type": "function"
    },
    {
      "inputs": [
        {
          "internalType": "bytes[]",
          "name": "data",
          "type": "bytes[]"
        }
      ],
      "name": "multicall",
      "outputs": [
        {
          "internalType": "bytes[]",
          "name": "results",
          "type": "bytes[]"
        }
      ],
      "stateMutability": "nonpayable",
      "type": "function"
    },
    {
      "inputs": [
        {
          "internalType": "bytes32",
          "name": "nodehash",
          "type": "bytes32"
        },
        {
          "internalType": "bytes[]",
          "name": "data",
          "type": "bytes[]"
        }
      ],
      "name": "multicallWithNodeCheck",
      "outputs": [
        {
          "internalType": "bytes[]",
          "name": "results",
          "type": "bytes[]"
        }
      ],
      "stateMutability": "nonpayable",
      "type": "function"
    },
    {
      "inputs": [
        {
          "internalType": "bytes32",
          "name": "node",
          "type": "bytes32"
        }
      ],
      "name": "name",
      "outputs": [
        {
          "internalType": "string",
          "name": "",
          "type": "string"
        }
      ],
      "stateMutability": "view",
      "type": "function"
    },
    {
      "inputs": [
        {
          "internalType": "address",
          "name": "addr",
          "type": "address"
        }
      ],
      "name": "node",
      "outputs": [
        {
          "internalType": "bytes32",
          "name": "",
          "type": "bytes32"
        }
      ],
      "stateMutability": "view",
      "type": "function"
    },
    {
      "inputs": [],
      "name": "owner",
      "outputs": [
        {
          "internalType": "address",
          "name": "",
          "type": "address"
        }
      ],
      "stateMutability": "view",
      "type": "function"
    },
    {
      "inputs": [],
      "name": "renounceOwnership",
      "outputs": [],
      "stateMutability": "nonpayable",
      "type": "function"
    },
    {
      "inputs": [
        {
          "internalType": "string",
          "name": "name",
          "type": "string"
        }
      ],
      "name": "setName",
      "outputs": [
        {
          "internalType": "bytes32",
          "name": "",
          "type": "bytes32"
        }
      ],
      "stateMutability": "nonpayable",
      "type": "function"
    },
    {
      "inputs": [
        {
          "internalType": "address",
          "name": "addr",
          "type": "address"
        },
        {
          "internalType": "string",
          "name": "name",
          "type": "string"
        }
      ],
      "name": "setNameForAddr",
      "outputs": [
        {
          "internalType": "bytes32",
          "name": "",
          "type": "bytes32"
        }
      ],
      "stateMutability": "nonpayable",
      "type": "function"
    },
    {
      "inputs": [
        {
          "internalType": "address",
          "name": "addr",
          "type": "address"
        },
        {
          "internalType": "string",
          "name": "name",
          "type": "string"
        },
        {
          "internalType": "uint256",
          "name": "inceptionDate",
          "type": "uint256"
        },
        {
          "internalType": "bytes",
          "name": "signature",
          "type": "bytes"
        }
      ],
      "name": "setNameForAddrWithSignature",
      "outputs": [
        {
          "internalType": "bytes32",
          "name": "",
          "type": "bytes32"
        }
      ],
      "stateMutability": "nonpayable",
      "type": "function"
    },
    {
      "inputs": [
        {
          "internalType": "address",
          "name": "contractAddr",
          "type": "address"
        },
        {
          "internalType": "address",
          "name": "owner",
          "type": "address"
        },
        {
          "internalType": "string",
          "name": "name",
          "type": "string"
        },
        {
          "internalType": "uint256",
          "name": "inceptionDate",
          "type": "uint256"
        },
        {
          "internalType": "bytes",
          "name": "signature",
          "type": "bytes"
        }
      ],
      "name": "setNameForAddrWithSignatureAndOwnable",
      "outputs": [
        {
          "internalType": "bytes32",
          "name": "",
          "type": "bytes32"
        }
      ],
      "stateMutability": "nonpayable",
      "type": "function"
    },
    {
      "inputs": [
        {
          "internalType": "string",
          "name": "key",
          "type": "string"
        },
        {
          "internalType": "string",
          "name": "value",
          "type": "string"
        }
      ],
      "name": "setText",
      "outputs": [
        {
          "internalType": "bytes32",
          "name": "",
          "type": "bytes32"
        }
      ],
      "stateMutability": "nonpayable",
      "type": "function"
    },
    {
      "inputs": [
        {
          "internalType": "address",
          "name": "addr",
          "type": "address"
        },
        {
          "internalType": "string",
          "name": "key",
          "type": "string"
        },
        {
          "internalType": "string",
          "name": "value",
          "type": "string"
        }
      ],
      "name": "setTextForAddr",
      "outputs": [
        {
          "internalType": "bytes32",
          "name": "",
          "type": "bytes32"
        }
      ],
      "stateMutability": "nonpayable",
      "type": "function"
    },
    {
      "inputs": [
        {
          "internalType": "address",
          "name": "addr",
          "type": "address"
        },
        {
          "internalType": "string",
          "name": "key",
          "type": "string"
        },
        {
          "internalType": "string",
          "name": "value",
          "type": "string"
        },
        {
          "internalType": "uint256",
          "name": "inceptionDate",
          "type": "uint256"
        },
        {
          "internalType": "bytes",
          "name": "signature",
          "type": "bytes"
        }
      ],
      "name": "setTextForAddrWithSignature",
      "outputs": [
        {
          "internalType": "bytes32",
          "name": "",
          "type": "bytes32"
        }
      ],
      "stateMutability": "nonpayable",
      "type": "function"
    },
    {
      "inputs": [
        {
          "internalType": "address",
          "name": "contractAddr",
          "type": "address"
        },
        {
          "internalType": "address",
          "name": "owner",
          "type": "address"
        },
        {
          "internalType": "string",
          "name": "key",
          "type": "string"
        },
        {
          "internalType": "string",
          "name": "value",
          "type": "string"
        },
        {
          "internalType": "uint256",
          "name": "inceptionDate",
          "type": "uint256"
        },
        {
          "internalType": "bytes",
          "name": "signature",
          "type": "bytes"
        }
      ],
      "name": "setTextForAddrWithSignatureAndOwnable",
      "outputs": [
        {
          "internalType": "bytes32",
          "name": "",
          "type": "bytes32"
        }
      ],
      "stateMutability": "nonpayable",
      "type": "function"
    },
    {
      "inputs": [
        {
          "internalType": "bytes4",
          "name": "interfaceID",
          "type": "bytes4"
        }
      ],
      "name": "supportsInterface",
      "outputs": [
        {
          "internalType": "bool",
          "name": "",
          "type": "bool"
        }
      ],
      "stateMutability": "view",
      "type": "function"
    },
    {
      "inputs": [
        {
          "internalType": "bytes32",
          "name": "node",
          "type": "bytes32"
        },
        {
          "internalType": "string",
          "name": "key",
          "type": "string"
        }
      ],
      "name": "text",
      "outputs": [
        {
          "internalType": "string",
          "name": "",
          "type": "string"
        }
      ],
      "stateMutability": "view",
      "type": "function"
    },
    {
      "inputs": [
        {
          "internalType": "address",
          "name": "newOwner",
          "type": "address"
        }
      ],
      "name": "transferOwnership",
      "outputs": [],
      "stateMutability": "nonpayable",
      "type": "function"
    }
  ],
  "transactionHash": "0x09df807a54b162bbb30ae12b1e85e654771936c1c08f80166fb745355664b185",
  "args": [
    "0xc71b95fae51df634092de307dcfb7b16dde6fde14acc6151414cdbd69c66e092",
    2158639068
  ],
  "numDeployments": 3,
  "solcInputHash": "528d5d11e918b8e09a1425d6755c453b",
  "bytecode": "0x60c06040523480156200001157600080fd5b50604051620024e7380380620024e783398101604081905262000034916200009e565b6200003f336200004e565b60809190915260a052620000c3565b600080546001600160a01b038381166001600160a01b0319831681178455604051919092169283917f8be0079c531659141344cd1fd0a4f28419497f9722a3daafe3b4186f6b6457e09190a35050565b60008060408385031215620000b257600080fd5b505080516020909101519092909150565b60805160a0516123d462000113600039600081816101f501528181610d4e015261104301526000818161026c015281816108310152818161093101528181610a830152610ea201526123d46000f3fe608060405234801561001057600080fd5b50600436106101825760003560e01c8063ac9650d8116100d8578063c47f00271161008c578063e32954eb11610066578063e32954eb14610361578063f2fde38b14610374578063fe43ca311461038757600080fd5b8063c47f002714610328578063c7ee930c1461033b578063c91199411461034e57600080fd5b8063bffbe61c116100bd578063bffbe61c146102ef578063c01f93d314610302578063c0a404bc1461031557600080fd5b8063ac9650d8146102bc578063b557a1ff146102dc57600080fd5b8063691f34311161013a57806380d8db3d1161011457806380d8db3d146102675780638da5cb5b1461028e578063a9c73e80146102a957600080fd5b8063691f343114610237578063715018a61461024a5780637f87032e1461025457600080fd5b80630affd6531161016b5780630affd653146101dd5780631fe93ea8146101f057806359d1d43c1461021757600080fd5b806301ffc9a714610187578063060eb2f5146101af575b600080fd5b61019a6101953660046117a8565b61039a565b60405190151581526020015b60405180910390f35b6101cf6101bd3660046117d2565b60016020526000908152604090205481565b6040519081526020016101a6565b6101cf6101eb3660046118a3565b610446565b6101cf7f000000000000000000000000000000000000000000000000000000000000000081565b61022a610225366004611978565b610501565b6040516101a69190611a14565b61022a6102453660046117d2565b6105e3565b6102526106a4565b005b6101cf610262366004611a27565b6106b8565b6101cf7f000000000000000000000000000000000000000000000000000000000000000081565b6000546040516001600160a01b0390911681526020016101a6565b6101cf6102b7366004611aa7565b61076f565b6102cf6102ca366004611b58565b610787565b6040516101a69190611b9a565b6101cf6102ea366004611bfc565b61079c565b6101cf6102fd366004611cbe565b61082d565b6101cf610310366004611cdb565b610888565b610252610323366004611cbe565b610915565b6101cf610336366004611d8b565b610a14565b610252610349366004611dc0565b610a20565b6101cf61035c366004611e19565b610b6b565b6102cf61036f366004611e69565b610bce565b610252610382366004611cbe565b610be3565b6101cf610395366004611ea8565b610c78565b60006001600160e01b031982167fe26bfb2a0000000000000000000000000000000000000000000000000000000014806103fd57506001600160e01b031982167f59d1d43c00000000000000000000000000000000000000000000000000000000145b8061043157506001600160e01b031982167f691f343100000000000000000000000000000000000000000000000000000000145b80610440575061044082610cab565b92915050565b60405160009061047c907f0affd65300000000000000000000000000000000000000000000000000000000908690602001611f2b565b60405160208183030381529060405280519060200120868685856104a38585858585610d12565b5060006104af8c610e90565b90506104bc818b8b610ef0565b60405181906001600160a01b038e16907f6ada868dd3058cf77a48a74489fd7963688e5464b2b0fa957ace976243270e9290600090a350505050505095945050505050565b60008381526004602090815260408083205467ffffffffffffffff16835260028252808320868452909152908190209051606091906105439085908590611f5b565b9081526020016040518091039020805461055c90611f6b565b80601f016020809104026020016040519081016040528092919081815260200182805461058890611f6b565b80156105d55780601f106105aa576101008083540402835291602001916105d5565b820191906000526020600020905b8154815290600101906020018083116105b857829003601f168201915b505050505090509392505050565b60008181526004602090815260408083205467ffffffffffffffff16835260038252808320848452909152902080546060919061061f90611f6b565b80601f016020809104026020016040519081016040528092919081815260200182805461064b90611f6b565b80156106985780601f1061066d57610100808354040283529160200191610698565b820191906000526020600020905b81548152906001019060200180831161067b57829003601f168201915b50505050509050919050565b6106ac610f76565b6106b66000610fd0565b565b6040516000906106ee907f7f87032e00000000000000000000000000000000000000000000000000000000908690602001611f2b565b6040516020818303038152906040528051906020012085848461071384848484611038565b50600061071f8a610e90565b905061072c818a8a610ef0565b60405181906001600160a01b038c16907f6ada868dd3058cf77a48a74489fd7963688e5464b2b0fa957ace976243270e9290600090a39998505050505050505050565b600061077e3386868686610c78565b95945050505050565b606061079560008484611124565b9392505050565b6040516000906107d8907fb557a1ff00000000000000000000000000000000000000000000000000000000908990899089908990602001611fa5565b60405160208183030381529060405280519060200120898985856107ff8585858585610d12565b50600061080b8f610e90565b905061081b818e8e8e8e8e6112fd565b50505050505098975050505050505050565b60007f0000000000000000000000000000000000000000000000000000000000000000610859836113ca565b604080516020810193909352820152606001604051602081830303815290604052805190602001209050919050565b6040516000906108c4907fc01f93d300000000000000000000000000000000000000000000000000000000908990899089908990602001611fa5565b604051602081830303815290604052805190602001208884846108e984848484611038565b5060006108f58d610e90565b9050610905818d8d8d8d8d6112fd565b9c9b505050505050505050505050565b8061091f8161144a565b50600061092b836113ca565b604080517f0000000000000000000000000000000000000000000000000000000000000000602082015290810182905290915060009060600160408051601f19818403018152918152815160209283012060008181526004909352908220805491935067ffffffffffffffff909116916109a483611ff6565b82546101009290920a67ffffffffffffffff8181021990931691831602179091556000838152600460209081526040918290205491519190921681528392507fc6621ccb8f3f5a04bb6502154b2caf6adf5983fe76dfef1cfc9c42e3579db444910160405180910390a250505050565b60006104403383610b6b565b6040517fc7ee930c00000000000000000000000000000000000000000000000000000000602082015260240160405160208183030381529060405280519060200120838383610a7184848484611038565b506000610a7d886113ca565b604080517f0000000000000000000000000000000000000000000000000000000000000000602082015290810182905290915060009060600160408051601f19818403018152918152815160209283012060008181526004909352908220805491935067ffffffffffffffff90911691610af683611ff6565b82546101009290920a67ffffffffffffffff8181021990931691831602179091556000838152600460209081526040918290205491519190921681528392507fc6621ccb8f3f5a04bb6502154b2caf6adf5983fe76dfef1cfc9c42e3579db444910160405180910390a2505050505050505050565b600082610b778161144a565b506000610b8385610e90565b9050610b90818542610ef0565b60405181906001600160a01b038716907f6ada868dd3058cf77a48a74489fd7963688e5464b2b0fa957ace976243270e9290600090a3949350505050565b6060610bdb848484611124565b949350505050565b610beb610f76565b6001600160a01b038116610c6c5760405162461bcd60e51b815260206004820152602660248201527f4f776e61626c653a206e6577206f776e657220697320746865207a65726f206160448201527f646472657373000000000000000000000000000000000000000000000000000060648201526084015b60405180910390fd5b610c7581610fd0565b50565b600085610c848161144a565b506000610c9088610e90565b9050610ca08188888888426112fd565b979650505050505050565b60006001600160e01b031982167f4fbf043300000000000000000000000000000000000000000000000000000000148061044057507f01ffc9a7000000000000000000000000000000000000000000000000000000006001600160e01b0319831614610440565b60408051602081018790526bffffffffffffffffffffffff19606087811b8216938301939093529185901b9091166054820152606881018390527f000000000000000000000000000000000000000000000000000000000000000060888201526000908190610dc89060a8015b604051602081830303815290604052805190602001207f19457468657265756d205369676e6564204d6573736167653a0a3332000000006000908152601c91909152603c902090565b90506000610dd587610e90565b9050610de187876114a8565b610e17576040517f4570a02400000000000000000000000000000000000000000000000000000000815260040160405180910390fd5b610e2286838661152d565b610e3f57604051638baa579f60e01b815260040160405180910390fd5b60008181526001602052604090205485111580610e67575042610e646103e88761201d565b10155b15610e85576040516314323cbb60e21b815260040160405180910390fd5b505095945050505050565b600080610e9c836113ca565b604080517f0000000000000000000000000000000000000000000000000000000000000000602082015290810182905290915060600160405160208183030381529060405280519060200120915050919050565b60008381526004602090815260408083205467ffffffffffffffff168352600382528083208684529091529020610f27838261208e565b506000838152600160205260409020819055827fb7d29e911041e8d9b843369e890bcb72c9388692ba48b65ac54e7214c4c348f783604051610f699190611a14565b60405180910390a2505050565b6000546001600160a01b031633146106b65760405162461bcd60e51b815260206004820181905260248201527f4f776e61626c653a2063616c6c6572206973206e6f7420746865206f776e65726044820152606401610c63565b600080546001600160a01b038381167fffffffffffffffffffffffff0000000000000000000000000000000000000000831681178455604051919092169283917f8be0079c531659141344cd1fd0a4f28419497f9722a3daafe3b4186f6b6457e09190a35050565b60008061109d8686867f0000000000000000000000000000000000000000000000000000000000000000604051602001610d7f949392919093845260609290921b6bffffffffffffffffffffffff191660208401526034830152605482015260740190565b905060006110aa86610e90565b90506110b7868386611648565b6110d457604051638baa579f60e01b815260040160405180910390fd5b600081815260016020526040902054851115806110fc5750426110f96103e88761201d565b10155b1561111a576040516314323cbb60e21b815260040160405180910390fd5b5050949350505050565b60608167ffffffffffffffff81111561113f5761113f611800565b60405190808252806020026020018201604052801561117257816020015b606081526020019060019003908161115d5790505b50905060005b828110156112f557841561123d57600084848381811061119a5761119a61214e565b90506020028101906111ac9190612164565b6111bb916024916004916121ab565b6111c4916121d5565b905085811461123b5760405162461bcd60e51b815260206004820152603460248201527f6d756c746963616c6c3a20416c6c207265636f726473206d757374206861766560448201527f2061206d61746368696e67206e616d65686173680000000000000000000000006064820152608401610c63565b505b600080308686858181106112535761125361214e565b90506020028101906112659190612164565b604051611273929190611f5b565b600060405180830381855af49150503d80600081146112ae576040519150601f19603f3d011682016040523d82523d6000602084013e6112b3565b606091505b5091509150816112c257600080fd5b808484815181106112d5576112d561214e565b6020026020010181905250505080806112ed906121f3565b915050611178565b509392505050565b60008681526004602090815260408083205467ffffffffffffffff168352600282528083208984529091529081902090518491849161133f9089908990611f5b565b9081526020016040518091039020918261135a92919061220c565b506000868152600160205260409020819055848460405161137c929190611f5b565b6040518091039020867f448bc014f1536726cf8d54ff3d6481ed3cbc683c2591ca204274009afa09b1a1878787876040516113ba94939291906122f6565b60405180910390a3505050505050565b600060285b801561143e57600019017f3031323334353637383961626364656600000000000000000000000000000000600f84161a8153601090920491600019017f3031323334353637383961626364656600000000000000000000000000000000600f84161a81536010830492506113cf565b50506028600020919050565b60006001600160a01b038216331480159061146c575061146a82336114a8565b155b156114a3576040517fd7a2ae6a00000000000000000000000000000000000000000000000000000000815260040160405180910390fd5b919050565b6000826001600160a01b0316638da5cb5b6040518163ffffffff1660e01b8152600401602060405180830381865afa925050508015611504575060408051601f3d908101601f191682019092526115019181019061231d565b60015b61151057506000610440565b826001600160a01b0316816001600160a01b031614915050610440565b6000806000856001600160a01b0316631626ba7e60e01b868660405160240161155792919061233a565b60408051601f198184030181529181526020820180517bffffffffffffffffffffffffffffffffffffffffffffffffffffffff166001600160e01b03199094169390931790925290516115aa9190612353565b600060405180830381855afa9150503d80600081146115e5576040519150601f19603f3d011682016040523d82523d6000602084013e6115ea565b606091505b50915091508180156115fe57506020815110155b801561163e575080517f1626ba7e000000000000000000000000000000000000000000000000000000009061163c908301602090810190840161236f565b145b9695505050505050565b6000806000611657858561169f565b9092509050600081600481111561167057611670612388565b14801561168e5750856001600160a01b0316826001600160a01b0316145b8061163e575061163e86868661152d565b60008082516041036116d55760208301516040840151606085015160001a6116c9878285856116e4565b945094505050506116dd565b506000905060025b9250929050565b6000807f7fffffffffffffffffffffffffffffff5d576e7357a4501ddfe92f46681b20a083111561171b575060009050600361179f565b6040805160008082526020820180845289905260ff881692820192909252606081018690526080810185905260019060a0016020604051602081039080840390855afa15801561176f573d6000803e3d6000fd5b5050604051601f1901519150506001600160a01b0381166117985760006001925092505061179f565b9150600090505b94509492505050565b6000602082840312156117ba57600080fd5b81356001600160e01b03198116811461079557600080fd5b6000602082840312156117e457600080fd5b5035919050565b6001600160a01b0381168114610c7557600080fd5b634e487b7160e01b600052604160045260246000fd5b600082601f83011261182757600080fd5b813567ffffffffffffffff8082111561184257611842611800565b604051601f8301601f19908116603f0116810190828211818310171561186a5761186a611800565b8160405283815286602085880101111561188357600080fd5b836020870160208301376000602085830101528094505050505092915050565b600080600080600060a086880312156118bb57600080fd5b85356118c6816117eb565b945060208601356118d6816117eb565b9350604086013567ffffffffffffffff808211156118f357600080fd5b6118ff89838a01611816565b945060608801359350608088013591508082111561191c57600080fd5b5061192988828901611816565b9150509295509295909350565b60008083601f84011261194857600080fd5b50813567ffffffffffffffff81111561196057600080fd5b6020830191508360208285010111156116dd57600080fd5b60008060006040848603121561198d57600080fd5b83359250602084013567ffffffffffffffff8111156119ab57600080fd5b6119b786828701611936565b9497909650939450505050565b60005b838110156119df5781810151838201526020016119c7565b50506000910152565b60008151808452611a008160208601602086016119c4565b601f01601f19169290920160200192915050565b60208152600061079560208301846119e8565b60008060008060808587031215611a3d57600080fd5b8435611a48816117eb565b9350602085013567ffffffffffffffff80821115611a6557600080fd5b611a7188838901611816565b9450604087013593506060870135915080821115611a8e57600080fd5b50611a9b87828801611816565b91505092959194509250565b60008060008060408587031215611abd57600080fd5b843567ffffffffffffffff80821115611ad557600080fd5b611ae188838901611936565b90965094506020870135915080821115611afa57600080fd5b50611b0787828801611936565b95989497509550505050565b60008083601f840112611b2557600080fd5b50813567ffffffffffffffff811115611b3d57600080fd5b6020830191508360208260051b85010111156116dd57600080fd5b60008060208385031215611b6b57600080fd5b823567ffffffffffffffff811115611b8257600080fd5b611b8e85828601611b13565b90969095509350505050565b6000602080830181845280855180835260408601915060408160051b870101925083870160005b82811015611bef57603f19888603018452611bdd8583516119e8565b94509285019290850190600101611bc1565b5092979650505050505050565b60008060008060008060008060c0898b031215611c1857600080fd5b8835611c23816117eb565b97506020890135611c33816117eb565b9650604089013567ffffffffffffffff80821115611c5057600080fd5b611c5c8c838d01611936565b909850965060608b0135915080821115611c7557600080fd5b611c818c838d01611936565b909650945060808b0135935060a08b0135915080821115611ca157600080fd5b50611cae8b828c01611816565b9150509295985092959890939650565b600060208284031215611cd057600080fd5b8135610795816117eb565b600080600080600080600060a0888a031215611cf657600080fd5b8735611d01816117eb565b9650602088013567ffffffffffffffff80821115611d1e57600080fd5b611d2a8b838c01611936565b909850965060408a0135915080821115611d4357600080fd5b611d4f8b838c01611936565b909650945060608a0135935060808a0135915080821115611d6f57600080fd5b50611d7c8a828b01611816565b91505092959891949750929550565b600060208284031215611d9d57600080fd5b813567ffffffffffffffff811115611db457600080fd5b610bdb84828501611816565b600080600060608486031215611dd557600080fd5b8335611de0816117eb565b925060208401359150604084013567ffffffffffffffff811115611e0357600080fd5b611e0f86828701611816565b9150509250925092565b60008060408385031215611e2c57600080fd5b8235611e37816117eb565b9150602083013567ffffffffffffffff811115611e5357600080fd5b611e5f85828601611816565b9150509250929050565b600080600060408486031215611e7e57600080fd5b83359250602084013567ffffffffffffffff811115611e9c57600080fd5b6119b786828701611b13565b600080600080600060608688031215611ec057600080fd5b8535611ecb816117eb565b9450602086013567ffffffffffffffff80821115611ee857600080fd5b611ef489838a01611936565b90965094506040880135915080821115611f0d57600080fd5b50611f1a88828901611936565b969995985093965092949392505050565b6001600160e01b03198316815260008251611f4d8160048501602087016119c4565b919091016004019392505050565b8183823760009101908152919050565b600181811c90821680611f7f57607f821691505b602082108103611f9f57634e487b7160e01b600052602260045260246000fd5b50919050565b6001600160e01b0319861681528385600483013760008482016004810160008152848682375060009301600401928352509095945050505050565b634e487b7160e01b600052601160045260246000fd5b600067ffffffffffffffff80831681810361201357612013611fe0565b6001019392505050565b60008261203a57634e487b7160e01b600052601260045260246000fd5b500490565b601f82111561208957600081815260208120601f850160051c810160208610156120665750805b601f850160051c820191505b8181101561208557828155600101612072565b5050505b505050565b815167ffffffffffffffff8111156120a8576120a8611800565b6120bc816120b68454611f6b565b8461203f565b602080601f8311600181146120f157600084156120d95750858301515b600019600386901b1c1916600185901b178555612085565b600085815260208120601f198616915b8281101561212057888601518255948401946001909101908401612101565b508582101561213e5787850151600019600388901b60f8161c191681555b5050505050600190811b01905550565b634e487b7160e01b600052603260045260246000fd5b6000808335601e1984360301811261217b57600080fd5b83018035915067ffffffffffffffff82111561219657600080fd5b6020019150368190038213156116dd57600080fd5b600080858511156121bb57600080fd5b838611156121c857600080fd5b5050820193919092039150565b8035602083101561044057600019602084900360031b1b1692915050565b60006001820161220557612205611fe0565b5060010190565b67ffffffffffffffff83111561222457612224611800565b612238836122328354611f6b565b8361203f565b6000601f84116001811461226c57600085156122545750838201355b600019600387901b1c1916600186901b1783556122c6565b600083815260209020601f19861690835b8281101561229d578685013582556020948501946001909201910161227d565b50868210156122ba5760001960f88860031b161c19848701351681555b505060018560011b0183555b5050505050565b81835281816020850137506000828201602090810191909152601f909101601f19169091010190565b60408152600061230a6040830186886122cd565b8281036020840152610ca08185876122cd565b60006020828403121561232f57600080fd5b8151610795816117eb565b828152604060208201526000610bdb60408301846119e8565b600082516123658184602087016119c4565b9190910192915050565b60006020828403121561238157600080fd5b5051919050565b634e487b7160e01b600052602160045260246000fdfea264697066735822122064bad38052d5456bc42859bf6d5ff5e13671ef1a8433f03fd2fe6db17a77095464736f6c63430008110033",
  "devdoc": {
    "kind": "dev",
    "methods": {
      "clearRecords(address)": {
        "params": {
          "addr": "The node to update."
        }
      },
      "clearRecordsWithSignature(address,uint256,bytes)": {
        "params": {
          "addr": "The node to update.",
          "signature": "A signature proving ownership of the node."
        }
      },
      "constructor": {
        "details": "Constructor"
      },
      "name(bytes32)": {
        "params": {
          "node": "The ENS node to query."
        },
        "returns": {
          "_0": "The associated name."
        }
      },
      "node(address)": {
        "details": "Returns the node hash for a given account's reverse records.",
        "params": {
          "addr": "The address to hash"
        },
        "returns": {
          "_0": "The ENS node hash."
        }
      },
      "owner()": {
        "details": "Returns the address of the current owner."
      },
      "renounceOwnership()": {
        "details": "Leaves the contract without owner. It will not be possible to call `onlyOwner` functions. Can only be called by the current owner. NOTE: Renouncing ownership will leave the contract without an owner, thereby disabling any functionality that is only available to the owner."
      },
      "setName(string)": {
        "details": "Sets the `name()` record for the reverse ENS record associated with the calling account.",
        "params": {
          "name": "The name to set for this address."
        },
        "returns": {
          "_0": "The ENS node hash of the reverse record."
        }
      },
      "setNameForAddr(address,string)": {
        "details": "Sets the `name()` record for the reverse ENS record associated with the addr provided account. Can be used if the addr is a contract that is owned by a SCW.",
        "params": {
          "name": "The name to set for this address."
        },
        "returns": {
          "_0": "The ENS node hash of the reverse record."
        }
      },
      "setNameForAddrWithSignature(address,string,uint256,bytes)": {
        "details": "Sets the name for an addr using a signature that can be verified with ERC1271.",
        "params": {
          "addr": "The reverse record to set",
          "inceptionDate": "Date from when this signature is valid from",
          "name": "The name of the reverse record",
          "signature": "The resolver of the reverse node"
        },
        "returns": {
          "_0": "The ENS node hash of the reverse record."
        }
      },
      "setNameForAddrWithSignatureAndOwnable(address,address,string,uint256,bytes)": {
        "details": "Sets the name for a contract that is owned by a SCW using a signature",
        "params": {
          "contractAddr": "The reverse node to set",
          "inceptionDate": "Date from when this signature is valid from",
          "name": "The name of the reverse record",
          "owner": "The owner of the contract (via Ownable)",
          "signature": "The signature of an address that will return true on isValidSignature for the owner"
        },
        "returns": {
          "_0": "The ENS node hash of the reverse record."
        }
      },
      "setText(string,string)": {
        "details": "Sets the `name()` record for the reverse ENS record associated with the calling account.",
        "params": {
          "key": "The key for this text record.",
          "value": "The value to set for this text record."
        },
        "returns": {
          "_0": "The ENS node hash of the reverse record."
        }
      },
      "setTextForAddr(address,string,string)": {
        "details": "Sets the `text(key)` record for the reverse ENS record associated with the addr provided account.",
        "params": {
          "key": "The key for this text record.",
          "value": "The value to set for this text record."
        },
        "returns": {
          "_0": "The ENS node hash of the reverse record."
        }
      },
      "setTextForAddrWithSignature(address,string,string,uint256,bytes)": {
        "details": "Sets the name for an addr using a signature that can be verified with ERC1271.",
        "params": {
          "addr": "The reverse record to set",
          "inceptionDate": "Date from when this signature is valid from",
          "key": "The key of the text record",
          "signature": "The resolver of the reverse node",
          "value": "The value of the text record"
        },
        "returns": {
          "_0": "The ENS node hash of the reverse record."
        }
      },
      "setTextForAddrWithSignatureAndOwnable(address,address,string,string,uint256,bytes)": {
        "details": "Sets the name for a contract that is owned by a SCW using a signature",
        "params": {
          "contractAddr": "The reverse node to set",
          "inceptionDate": "Date from when this signature is valid from",
          "key": "The name of the reverse record",
          "owner": "The owner of the contract (via Ownable)",
          "signature": "The signature of an address that will return true on isValidSignature for the owner",
          "value": "The name of the reverse record"
        },
        "returns": {
          "_0": "The ENS node hash of the reverse record."
        }
      },
      "text(bytes32,string)": {
        "params": {
          "key": "The text data key to query.",
          "node": "The ENS node to query."
        },
        "returns": {
          "_0": "The associated text data."
        }
      },
      "transferOwnership(address)": {
        "details": "Transfers ownership of the contract to a new account (`newOwner`). Can only be called by the current owner."
      }
    },
    "version": 1
  },
  "userdoc": {
    "kind": "user",
    "methods": {
      "clearRecords(address)": {
        "notice": "Increments the record version associated with an ENS node. May only be called by the owner of that node in the ENS registry."
      },
      "clearRecordsWithSignature(address,uint256,bytes)": {
        "notice": "Increments the record version associated with an ENS node. May only be called by the owner of that node in the ENS registry."
      },
      "name(bytes32)": {
        "notice": "Returns the name associated with an ENS node, for reverse records. Defined in EIP181."
      },
      "text(bytes32,string)": {
        "notice": "Returns the text data associated with an ENS node and key."
      }
    },
    "version": 1
  },
  "storageLayout": {
    "storage": [
      {
        "astId": 428,
        "contract": "contracts/reverseRegistrar/L2ReverseRegistrar.sol:L2ReverseRegistrar",
        "label": "_owner",
        "offset": 0,
        "slot": "0",
        "type": "t_address"
      },
      {
        "astId": 15413,
        "contract": "contracts/reverseRegistrar/L2ReverseRegistrar.sol:L2ReverseRegistrar",
        "label": "lastUpdated",
        "offset": 0,
        "slot": "1",
        "type": "t_mapping(t_bytes32,t_uint256)"
      },
      {
        "astId": 15421,
        "contract": "contracts/reverseRegistrar/L2ReverseRegistrar.sol:L2ReverseRegistrar",
        "label": "versionable_texts",
        "offset": 0,
        "slot": "2",
        "type": "t_mapping(t_uint64,t_mapping(t_bytes32,t_mapping(t_string_memory_ptr,t_string_storage)))"
      },
      {
        "astId": 15427,
        "contract": "contracts/reverseRegistrar/L2ReverseRegistrar.sol:L2ReverseRegistrar",
        "label": "versionable_names",
        "offset": 0,
        "slot": "3",
        "type": "t_mapping(t_uint64,t_mapping(t_bytes32,t_string_storage))"
      },
      {
        "astId": 15431,
        "contract": "contracts/reverseRegistrar/L2ReverseRegistrar.sol:L2ReverseRegistrar",
        "label": "recordVersions",
        "offset": 0,
        "slot": "4",
        "type": "t_mapping(t_bytes32,t_uint64)"
      }
    ],
    "types": {
      "t_address": {
        "encoding": "inplace",
        "label": "address",
        "numberOfBytes": "20"
      },
      "t_bytes32": {
        "encoding": "inplace",
        "label": "bytes32",
        "numberOfBytes": "32"
      },
      "t_mapping(t_bytes32,t_mapping(t_string_memory_ptr,t_string_storage))": {
        "encoding": "mapping",
        "key": "t_bytes32",
        "label": "mapping(bytes32 => mapping(string => string))",
        "numberOfBytes": "32",
        "value": "t_mapping(t_string_memory_ptr,t_string_storage)"
      },
      "t_mapping(t_bytes32,t_string_storage)": {
        "encoding": "mapping",
        "key": "t_bytes32",
        "label": "mapping(bytes32 => string)",
        "numberOfBytes": "32",
        "value": "t_string_storage"
      },
      "t_mapping(t_bytes32,t_uint256)": {
        "encoding": "mapping",
        "key": "t_bytes32",
        "label": "mapping(bytes32 => uint256)",
        "numberOfBytes": "32",
        "value": "t_uint256"
      },
      "t_mapping(t_bytes32,t_uint64)": {
        "encoding": "mapping",
        "key": "t_bytes32",
        "label": "mapping(bytes32 => uint64)",
        "numberOfBytes": "32",
        "value": "t_uint64"
      },
      "t_mapping(t_string_memory_ptr,t_string_storage)": {
        "encoding": "mapping",
        "key": "t_string_memory_ptr",
        "label": "mapping(string => string)",
        "numberOfBytes": "32",
        "value": "t_string_storage"
      },
      "t_mapping(t_uint64,t_mapping(t_bytes32,t_mapping(t_string_memory_ptr,t_string_storage)))": {
        "encoding": "mapping",
        "key": "t_uint64",
        "label": "mapping(uint64 => mapping(bytes32 => mapping(string => string)))",
        "numberOfBytes": "32",
        "value": "t_mapping(t_bytes32,t_mapping(t_string_memory_ptr,t_string_storage))"
      },
      "t_mapping(t_uint64,t_mapping(t_bytes32,t_string_storage))": {
        "encoding": "mapping",
        "key": "t_uint64",
        "label": "mapping(uint64 => mapping(bytes32 => string))",
        "numberOfBytes": "32",
        "value": "t_mapping(t_bytes32,t_string_storage)"
      },
      "t_string_memory_ptr": {
        "encoding": "bytes",
        "label": "string",
        "numberOfBytes": "32"
      },
      "t_string_storage": {
        "encoding": "bytes",
        "label": "string",
        "numberOfBytes": "32"
      },
      "t_uint256": {
        "encoding": "inplace",
        "label": "uint256",
        "numberOfBytes": "32"
      },
      "t_uint64": {
        "encoding": "inplace",
        "label": "uint64",
        "numberOfBytes": "8"
      }
    }
  }
}