{
  "address": "0x0d3b4af7f0f89c67163e5a301ba1b37a16c968f1",
  "abi": [
    {
      "inputs": [
        {
          "internalType": "bytes32",
          "name": "_L2ReverseNode",
          "type": "bytes32"
        },
        {
          "internalType": "uint256",
          "name": "_coinType",
          "type": "uint256"
        }
      ],
      "stateMutability": "nonpayable",
      "type": "constructor"
    },
    {
      "inputs": [],
      "name": "InvalidSignature",
      "type": "error"
    },
    {
      "inputs": [],
      "name": "NotOwnerOfContract",
      "type": "error"
    },
    {
      "inputs": [],
      "name": "SignatureExpired",
      "type": "error"
    },
    {
      "inputs": [],
      "name": "SignatureExpiryTooHigh",
      "type": "error"
    },
    {
      "inputs": [],
      "name": "Unauthorised",
      "type": "error"
    },
    {
      "anonymous": false,
      "inputs": [
        {
          "indexed": true,
          "internalType": "bytes32",
          "name": "node",
          "type": "bytes32"
        },
        {
          "indexed": false,
          "internalType": "string",
          "name": "name",
          "type": "string"
        }
      ],
      "name": "NameChanged",
      "type": "event"
    },
    {
      "anonymous": false,
      "inputs": [
        {
          "indexed": true,
          "internalType": "address",
          "name": "addr",
          "type": "address"
        },
        {
          "indexed": true,
          "internalType": "bytes32",
          "name": "node",
          "type": "bytes32"
        }
      ],
      "name": "ReverseClaimed",
      "type": "event"
    },
    {
      "inputs": [],
      "name": "L2ReverseNode",
      "outputs": [
        {
          "internalType": "bytes32",
          "name": "",
          "type": "bytes32"
        }
      ],
      "stateMutability": "view",
      "type": "function"
    },
    {
      "inputs": [],
      "name": "coinType",
      "outputs": [
        {
          "internalType": "uint256",
          "name": "",
          "type": "uint256"
        }
      ],
      "stateMutability": "view",
      "type": "function"
    },
    {
      "inputs": [
        {
          "internalType": "bytes[]",
          "name": "data",
          "type": "bytes[]"
        }
      ],
      "name": "multicall",
      "outputs": [
        {
          "internalType": "bytes[]",
          "name": "results",
          "type": "bytes[]"
        }
      ],
      "stateMutability": "nonpayable",
      "type": "function"
    },
    {
      "inputs": [
        {
          "internalType": "bytes32",
          "name": "nodehash",
          "type": "bytes32"
        },
        {
          "internalType": "bytes[]",
          "name": "data",
          "type": "bytes[]"
        }
      ],
      "name": "multicallWithNodeCheck",
      "outputs": [
        {
          "internalType": "bytes[]",
          "name": "results",
          "type": "bytes[]"
        }
      ],
      "stateMutability": "nonpayable",
      "type": "function"
    },
    {
      "inputs": [
        {
          "internalType": "bytes32",
          "name": "node",
          "type": "bytes32"
        }
      ],
      "name": "name",
      "outputs": [
        {
          "internalType": "string",
          "name": "",
          "type": "string"
        }
      ],
      "stateMutability": "view",
      "type": "function"
    },
    {
      "inputs": [
        {
          "internalType": "address",
          "name": "addr",
          "type": "address"
        }
      ],
      "name": "node",
      "outputs": [
        {
          "internalType": "bytes32",
          "name": "",
          "type": "bytes32"
        }
      ],
      "stateMutability": "view",
      "type": "function"
    },
    {
      "inputs": [],
      "name": "parentNode",
      "outputs": [
        {
          "internalType": "bytes32",
          "name": "",
          "type": "bytes32"
        }
      ],
      "stateMutability": "view",
      "type": "function"
    },
    {
      "inputs": [
        {
          "internalType": "string",
          "name": "name",
          "type": "string"
        }
      ],
      "name": "setName",
      "outputs": [
        {
          "internalType": "bytes32",
          "name": "",
          "type": "bytes32"
        }
      ],
      "stateMutability": "nonpayable",
      "type": "function"
    },
    {
      "inputs": [
        {
          "internalType": "address",
          "name": "addr",
          "type": "address"
        },
        {
          "internalType": "string",
          "name": "name",
          "type": "string"
        }
      ],
      "name": "setNameForAddr",
      "outputs": [
        {
          "internalType": "bytes32",
          "name": "",
          "type": "bytes32"
        }
      ],
      "stateMutability": "nonpayable",
      "type": "function"
    },
    {
      "inputs": [
        {
          "internalType": "address",
          "name": "addr",
          "type": "address"
        },
        {
          "internalType": "string",
          "name": "name",
          "type": "string"
        },
        {
          "internalType": "uint256",
          "name": "signatureExpiry",
          "type": "uint256"
        },
        {
          "internalType": "bytes",
          "name": "signature",
          "type": "bytes"
        }
      ],
      "name": "setNameForAddrWithSignature",
      "outputs": [
        {
          "internalType": "bytes32",
          "name": "",
          "type": "bytes32"
        }
      ],
      "stateMutability": "nonpayable",
      "type": "function"
    },
    {
      "inputs": [
        {
          "internalType": "address",
          "name": "contractAddr",
          "type": "address"
        },
        {
          "internalType": "address",
          "name": "owner",
          "type": "address"
        },
        {
          "internalType": "string",
          "name": "name",
          "type": "string"
        },
        {
          "internalType": "uint256",
          "name": "signatureExpiry",
          "type": "uint256"
        },
        {
          "internalType": "bytes",
          "name": "signature",
          "type": "bytes"
        }
      ],
      "name": "setNameForAddrWithSignatureAndOwnable",
      "outputs": [
        {
          "internalType": "bytes32",
          "name": "",
          "type": "bytes32"
        }
      ],
      "stateMutability": "nonpayable",
      "type": "function"
    },
    {
      "inputs": [
        {
          "internalType": "bytes4",
          "name": "interfaceID",
          "type": "bytes4"
        }
      ],
      "name": "supportsInterface",
      "outputs": [
        {
          "internalType": "bool",
          "name": "",
          "type": "bool"
        }
      ],
      "stateMutability": "view",
      "type": "function"
    }
  ],
  "transactionHash": "0x57540d18e6f553fd00715445805e779b31cdec7f2c3fe75d0f4dd1667ddc07c4",
  "args": [
    "0xfabc979031651c03d1b568e0d88c15a21ecf724abea98b406c114ef895378217",
    2148018000
  ],
  "numDeployments": 2,
  "solcInputHash": "bb183f1f4be3ea9e1920eec46238927c",
  "bytecode": "0x60e060405234801561001057600080fd5b506040516116c03803806116c083398101604081905261002f9161003f565b608082905260a05260c052610063565b6000806040838503121561005257600080fd5b505080516020909101519092909150565b60805160a05160c0516116196100a760003960006101810152600081816101270152818161029d015261047b01526000818161021401526105ef01526116196000f3fe608060405234801561001057600080fd5b50600436106100d45760003560e01c8063ac9650d811610081578063c91199411161005b578063c9119941146101e9578063e32954eb146101fc578063f3068a001461020f57600080fd5b8063ac9650d8146101a3578063bffbe61c146101c3578063c47f0027146101d657600080fd5b8063691f3431116100b2578063691f3431146101495780637f87032e1461016957806380d8db3d1461017c57600080fd5b806301ffc9a7146100d95780630affd653146101015780631fe93ea814610122575b600080fd5b6100ec6100e7366004610da7565b610236565b60405190151581526020015b60405180910390f35b61011461010f366004610ecb565b61027a565b6040519081526020016100f8565b6101147f000000000000000000000000000000000000000000000000000000000000000081565b61015c610157366004610f62565b6103b7565b6040516100f89190610fcb565b610114610177366004610fde565b610459565b6101147f000000000000000000000000000000000000000000000000000000000000000081565b6101b66101b13660046110a9565b61050a565b6040516100f891906110eb565b6101146101d136600461114d565b61051f565b6101146101e436600461116a565b61052a565b6101146101f73660046111a0565b610533565b6101b661020a3660046111f5565b610598565b6101147f000000000000000000000000000000000000000000000000000000000000000081565b60006001600160e01b031982167f07914f350000000000000000000000000000000000000000000000000000000014806102745750610274826105ad565b92915050565b600080610286886105eb565b9050600061031c30630affd65360e01b89898d8d8b7f00000000000000000000000000000000000000000000000000000000000000006040516020016102d3989796959493929190611234565b604051602081830303815290604052805190602001207f19457468657265756d205369676e6564204d6573736167653a0a3332000000006000908152601c91909152603c902090565b9050610328898961064f565b61035e576040517f4570a02400000000000000000000000000000000000000000000000000000000815260040160405180910390fd5b61036a848983886106d4565b61037582888861079a565b60405182906001600160a01b038b16907f6ada868dd3058cf77a48a74489fd7963688e5464b2b0fa957ace976243270e9290600090a350979650505050505050565b60008181526020819052604090208054606091906103d490611295565b80601f016020809104026020016040519081016040528092919081815260200182805461040090611295565b801561044d5780601f106104225761010080835404028352916020019161044d565b820191906000526020600020905b81548152906001019060200180831161043057829003601f168201915b50505050509050919050565b600080610465876105eb565b905060006104b030637f87032e60e01b89898c8a7f00000000000000000000000000000000000000000000000000000000000000006040516020016102d397969594939291906112cf565b90506104be848983886106d4565b6104c982888861079a565b60405182906001600160a01b038a16907f6ada868dd3058cf77a48a74489fd7963688e5464b2b0fa957ace976243270e9290600090a3509695505050505050565b6060610518600084846107f3565b9392505050565b6000610274826105eb565b60006105183384845b60008361053f816109e2565b600061054a866105eb565b905061055781868661079a565b60405181906001600160a01b038816907f6ada868dd3058cf77a48a74489fd7963688e5464b2b0fa957ace976243270e9290600090a391505b509392505050565b60606105a58484846107f3565b949350505050565b60006001600160e01b031982167f1698371f000000000000000000000000000000000000000000000000000000001480610274575061027482610a3c565b60007f0000000000000000000000000000000000000000000000000000000000000000610620836001600160a01b0316610aa3565b604080516020810193909352820152606001604051602081830303815290604052805190602001209050919050565b6000826001600160a01b0316638da5cb5b6040518163ffffffff1660e01b8152600401602060405180830381865afa9250505080156106ab575060408051601f3d908101601f191682019092526106a89181019061132c565b60015b6106b757506000610274565b826001600160a01b0316816001600160a01b031614915050610274565b6106df838386610b23565b610715576040517f8baa579f00000000000000000000000000000000000000000000000000000000815260040160405180910390fd5b4281101561074f576040517f0819bdcd00000000000000000000000000000000000000000000000000000000815260040160405180910390fd5b61075b42610e1061135f565b811115610794576040517f5e4989ee00000000000000000000000000000000000000000000000000000000815260040160405180910390fd5b50505050565b60008381526020819052604090206107b38284836113c1565b50827fb7d29e911041e8d9b843369e890bcb72c9388692ba48b65ac54e7214c4c348f783836040516107e6929190611482565b60405180910390a2505050565b60608167ffffffffffffffff81111561080e5761080e610e28565b60405190808252806020026020018201604052801561084157816020015b606081526020019060019003908161082c5790505b50905060005b8281101561059057841561092a576000848483818110610869576108696114b1565b905060200281019061087b91906114c7565b61088a9160249160049161150e565b61089391611538565b9050858114610928576040517f08c379a000000000000000000000000000000000000000000000000000000000815260206004820152603460248201527f6d756c746963616c6c3a20416c6c207265636f726473206d757374206861766560448201527f2061206d61746368696e67206e616d6568617368000000000000000000000000606482015260840160405180910390fd5b505b60008030868685818110610940576109406114b1565b905060200281019061095291906114c7565b604051610960929190611556565b600060405180830381855af49150503d806000811461099b576040519150601f19603f3d011682016040523d82523d6000602084013e6109a0565b606091505b5091509150816109af57600080fd5b808484815181106109c2576109c26114b1565b6020026020010181905250505080806109da90611566565b915050610847565b6001600160a01b0381163314801590610a025750610a00813361064f565b155b15610a39576040517fd7a2ae6a00000000000000000000000000000000000000000000000000000000815260040160405180910390fd5b50565b60006001600160e01b031982167f4fbf043300000000000000000000000000000000000000000000000000000000148061027457507f01ffc9a7000000000000000000000000000000000000000000000000000000006001600160e01b0319831614610274565b600060285b8015610b1757600019017f3031323334353637383961626364656600000000000000000000000000000000600f84161a8153601090920491600019017f3031323334353637383961626364656600000000000000000000000000000000600f84161a8153601083049250610aa8565b50506028600020919050565b6000806000610b328585610b84565b90925090506000816004811115610b4b57610b4b61157f565b148015610b695750856001600160a01b0316826001600160a01b0316145b80610b7a5750610b7a868686610bc9565b9695505050505050565b6000808251604103610bba5760208301516040840151606085015160001a610bae87828585610ce3565b94509450505050610bc2565b506000905060025b9250929050565b6000806000856001600160a01b0316631626ba7e60e01b8686604051602401610bf3929190611595565b60408051601f198184030181529181526020820180517bffffffffffffffffffffffffffffffffffffffffffffffffffffffff166001600160e01b0319909416939093179092529051610c4691906115ae565b600060405180830381855afa9150503d8060008114610c81576040519150601f19603f3d011682016040523d82523d6000602084013e610c86565b606091505b5091509150818015610c9a57506020815110155b8015610b7a575080517f1626ba7e0000000000000000000000000000000000000000000000000000000090610cd890830160209081019084016115ca565b149695505050505050565b6000807f7fffffffffffffffffffffffffffffff5d576e7357a4501ddfe92f46681b20a0831115610d1a5750600090506003610d9e565b6040805160008082526020820180845289905260ff881692820192909252606081018690526080810185905260019060a0016020604051602081039080840390855afa158015610d6e573d6000803e3d6000fd5b5050604051601f1901519150506001600160a01b038116610d9757600060019250925050610d9e565b9150600090505b94509492505050565b600060208284031215610db957600080fd5b81356001600160e01b03198116811461051857600080fd5b6001600160a01b0381168114610a3957600080fd5b60008083601f840112610df857600080fd5b50813567ffffffffffffffff811115610e1057600080fd5b602083019150836020828501011115610bc257600080fd5b634e487b7160e01b600052604160045260246000fd5b600082601f830112610e4f57600080fd5b813567ffffffffffffffff80821115610e6a57610e6a610e28565b604051601f8301601f19908116603f01168101908282118183101715610e9257610e92610e28565b81604052838152866020858801011115610eab57600080fd5b836020870160208301376000602085830101528094505050505092915050565b60008060008060008060a08789031215610ee457600080fd5b8635610eef81610dd1565b95506020870135610eff81610dd1565b9450604087013567ffffffffffffffff80821115610f1c57600080fd5b610f288a838b01610de6565b9096509450606089013593506080890135915080821115610f4857600080fd5b50610f5589828a01610e3e565b9150509295509295509295565b600060208284031215610f7457600080fd5b5035919050565b60005b83811015610f96578181015183820152602001610f7e565b50506000910152565b60008151808452610fb7816020860160208601610f7b565b601f01601f19169290920160200192915050565b6020815260006105186020830184610f9f565b600080600080600060808688031215610ff657600080fd5b853561100181610dd1565b9450602086013567ffffffffffffffff8082111561101e57600080fd5b61102a89838a01610de6565b909650945060408801359350606088013591508082111561104a57600080fd5b5061105788828901610e3e565b9150509295509295909350565b60008083601f84011261107657600080fd5b50813567ffffffffffffffff81111561108e57600080fd5b6020830191508360208260051b8501011115610bc257600080fd5b600080602083850312156110bc57600080fd5b823567ffffffffffffffff8111156110d357600080fd5b6110df85828601611064565b90969095509350505050565b6000602080830181845280855180835260408601915060408160051b870101925083870160005b8281101561114057603f1988860301845261112e858351610f9f565b94509285019290850190600101611112565b5092979650505050505050565b60006020828403121561115f57600080fd5b813561051881610dd1565b6000806020838503121561117d57600080fd5b823567ffffffffffffffff81111561119457600080fd5b6110df85828601610de6565b6000806000604084860312156111b557600080fd5b83356111c081610dd1565b9250602084013567ffffffffffffffff8111156111dc57600080fd5b6111e886828701610de6565b9497909650939450505050565b60008060006040848603121561120a57600080fd5b83359250602084013567ffffffffffffffff81111561122857600080fd5b6111e886828701611064565b60006bffffffffffffffffffffffff19808b60601b1683526001600160e01b03198a16601484015287896018850137606096871b81169790920160188101979097525092841b909216602c8501526040840152908201526080019392505050565b600181811c908216806112a957607f821691505b6020821081036112c957634e487b7160e01b600052602260045260246000fd5b50919050565b60006bffffffffffffffffffffffff19808a60601b1683526001600160e01b03198916601484015286886018850137868301818760601b16601882015285602c82015284604c820152606c81019250505098975050505050505050565b60006020828403121561133e57600080fd5b815161051881610dd1565b634e487b7160e01b600052601160045260246000fd5b8082018082111561027457610274611349565b601f8211156113bc57600081815260208120601f850160051c810160208610156113995750805b601f850160051c820191505b818110156113b8578281556001016113a5565b5050505b505050565b67ffffffffffffffff8311156113d9576113d9610e28565b6113ed836113e78354611295565b83611372565b6000601f84116001811461142157600085156114095750838201355b600019600387901b1c1916600186901b17835561147b565b600083815260209020601f19861690835b828110156114525786850135825560209485019460019092019101611432565b508682101561146f5760001960f88860031b161c19848701351681555b505060018560011b0183555b5050505050565b60208152816020820152818360408301376000818301604090810191909152601f909201601f19160101919050565b634e487b7160e01b600052603260045260246000fd5b6000808335601e198436030181126114de57600080fd5b83018035915067ffffffffffffffff8211156114f957600080fd5b602001915036819003821315610bc257600080fd5b6000808585111561151e57600080fd5b8386111561152b57600080fd5b5050820193919092039150565b8035602083101561027457600019602084900360031b1b1692915050565b8183823760009101908152919050565b60006001820161157857611578611349565b5060010190565b634e487b7160e01b600052602160045260246000fd5b8281526040602082015260006105a56040830184610f9f565b600082516115c0818460208701610f7b565b9190910192915050565b6000602082840312156115dc57600080fd5b505191905056fea26469706673582212203a866f9d17af0f3c4126275c9c7a8f7fe4e91a9d3d1909545f752806d389c49864736f6c63430008110033",
  "devdoc": {
    "kind": "dev",
    "methods": {
      "name(bytes32)": {
        "params": {
          "node": "The ENS node to query."
        },
        "returns": {
          "_0": "The associated name."
        }
      },
      "node(address)": {
        "details": "Returns the node hash for a given account's reverse records.",
        "params": {
          "addr": "The address to hash"
        },
        "returns": {
          "_0": "The ENS node hash."
        }
      },
      "setName(string)": {
        "details": "Sets the `name()` record for the reverse ENS record associated with the calling account.",
        "params": {
          "name": "The name to set for this address."
        },
        "returns": {
          "_0": "The ENS node hash of the reverse record."
        }
      },
      "setNameForAddr(address,string)": {
        "details": "Sets the `name()` record for the reverse ENS record associated with the addr provided account. Can be used if the addr is a contract that is owned by a SCW.",
        "params": {
          "name": "The name to set for this address."
        },
        "returns": {
          "_0": "The ENS node hash of the reverse record."
        }
      },
      "setNameForAddrWithSignature(address,string,uint256,bytes)": {
        "details": "Sets the name for an addr using a signature that can be verified with ERC1271.",
        "params": {
          "addr": "The reverse record to set",
          "name": "The name of the reverse record",
          "signature": "The resolver of the reverse node",
          "signatureExpiry": "Date when the signature expires"
        },
        "returns": {
          "_0": "The ENS node hash of the reverse record."
        }
      },
      "setNameForAddrWithSignatureAndOwnable(address,address,string,uint256,bytes)": {
        "details": "Sets the name for a contract that is owned by a SCW using a signature",
        "params": {
          "contractAddr": "The reverse node to set",
          "name": "The name of the reverse record",
          "owner": "The owner of the contract (via Ownable)",
          "signature": "The signature of an address that will return true on isValidSignature for the owner",
          "signatureExpiry": "Date when the signature expires"
        },
        "returns": {
          "_0": "The ENS node hash of the reverse record."
        }
      }
    },
    "version": 1
  },
  "userdoc": {
    "kind": "user",
    "methods": {
      "name(bytes32)": {
        "notice": "Returns the name associated with an ENS node, for reverse records. Defined in EIP181."
      }
    },
    "notice": "A L2 reverse resolver. Deployed to each L2 chain.",
    "version": 1
  },
  "storageLayout": {
    "storage": [
      {
        "astId": 20105,
        "contract": "contracts/reverseRegistrar/L2ReverseResolver.sol:L2ReverseResolver",
        "label": "names",
        "offset": 0,
        "slot": "0",
        "type": "t_mapping(t_bytes32,t_string_storage)"
      }
    ],
    "types": {
      "t_bytes32": {
        "encoding": "inplace",
        "label": "bytes32",
        "numberOfBytes": "32"
      },
      "t_mapping(t_bytes32,t_string_storage)": {
        "encoding": "mapping",
        "key": "t_bytes32",
        "label": "mapping(bytes32 => string)",
        "numberOfBytes": "32",
        "value": "t_string_storage"
      },
      "t_string_storage": {
        "encoding": "bytes",
        "label": "string",
        "numberOfBytes": "32"
      }
    }
  }
}