{
  "address": "0x14872c16523CAc7BFbFf19ACb88611CcC823FD68",
  "abi": [
    {
      "inputs": [
        {
          "internalType": "contract ENS",
          "name": "_ens",
          "type": "address"
        },
        {
          "internalType": "contract DNSSEC",
          "name": "_oracle",
          "type": "address"
        },
        {
          "internalType": "string",
          "name": "_gatewayURL",
          "type": "string"
        }
      ],
      "stateMutability": "nonpayable",
      "type": "constructor"
    },
    {
      "inputs": [
        {
          "internalType": "bytes",
          "name": "name",
          "type": "bytes"
        }
      ],
      "name": "CouldNotResolve",
      "type": "error"
    },
    {
      "inputs": [],
      "name": "InvalidOperation",
      "type": "error"
    },
    {
      "inputs": [
        {
          "internalType": "address",
          "name": "sender",
          "type": "address"
        },
        {
          "internalType": "string[]",
          "name": "urls",
          "type": "string[]"
        },
        {
          "internalType": "bytes",
          "name": "callData",
          "type": "bytes"
        },
        {
          "internalType": "bytes4",
          "name": "callbackFunction",
          "type": "bytes4"
        },
        {
          "internalType": "bytes",
          "name": "extraData",
          "type": "bytes"
        }
      ],
      "name": "OffchainLookup",
      "type": "error"
    },
    {
      "inputs": [],
      "name": "ens",
      "outputs": [
        {
          "internalType": "contract ENS",
          "name": "",
          "type": "address"
        }
      ],
      "stateMutability": "view",
      "type": "function"
    },
    {
      "inputs": [],
      "name": "gatewayURL",
      "outputs": [
        {
          "internalType": "string",
          "name": "",
          "type": "string"
        }
      ],
      "stateMutability": "view",
      "type": "function"
    },
    {
      "inputs": [],
      "name": "oracle",
      "outputs": [
        {
          "internalType": "contract DNSSEC",
          "name": "",
          "type": "address"
        }
      ],
      "stateMutability": "view",
      "type": "function"
    },
    {
      "inputs": [
        {
          "internalType": "bytes",
          "name": "name",
          "type": "bytes"
        },
        {
          "internalType": "bytes",
          "name": "data",
          "type": "bytes"
        }
      ],
      "name": "resolve",
      "outputs": [
        {
          "internalType": "bytes",
          "name": "",
          "type": "bytes"
        }
      ],
      "stateMutability": "view",
      "type": "function"
    },
    {
      "inputs": [
        {
          "internalType": "bytes",
          "name": "response",
          "type": "bytes"
        },
        {
          "internalType": "bytes",
          "name": "extraData",
          "type": "bytes"
        }
      ],
      "name": "resolveCallback",
      "outputs": [
        {
          "internalType": "bytes",
          "name": "",
          "type": "bytes"
        }
      ],
      "stateMutability": "view",
      "type": "function"
    },
    {
      "inputs": [
        {
          "internalType": "bytes4",
          "name": "interfaceId",
          "type": "bytes4"
        }
      ],
      "name": "supportsInterface",
      "outputs": [
        {
          "internalType": "bool",
          "name": "",
          "type": "bool"
        }
      ],
      "stateMutability": "pure",
      "type": "function"
    }
  ],
  "transactionHash": "0xde52f5f52f9637d0ce43b5f90097441afeb55bda1c064719a9daf2b78a5e9e5f",
  "args": [
    "0x00000000000C2E074eC69A0dFb2997BA6C7d2e1e",
    "0xe62E4b6cE018Ad6e916fcC24545e20a33b9d8653",
    "https://dnssec-oracle.ens.domains/"
  ],
  "numDeployments": 2,
  "solcInputHash": "06d6118bf6ec6ea4985b6b7b8d101933",
  "bytecode": "0x60c06040523480156200001157600080fd5b50604051620021873803806200218783398101604081905262000034916200008e565b6001600160a01b03808416608052821660a05260006200005582826200021d565b50505050620002e9565b6001600160a01b03811681146200007557600080fd5b50565b634e487b7160e01b600052604160045260246000fd5b600080600060608486031215620000a457600080fd5b8351620000b1816200005f565b80935050602080850151620000c6816200005f565b60408601519093506001600160401b0380821115620000e457600080fd5b818701915087601f830112620000f957600080fd5b8151818111156200010e576200010e62000078565b604051601f8201601f19908116603f0116810190838211818310171562000139576200013962000078565b816040528281528a868487010111156200015257600080fd5b600093505b8284101562000176578484018601518185018701529285019262000157565b60008684830101528096505050505050509250925092565b600181811c90821680620001a357607f821691505b602082108103620001c457634e487b7160e01b600052602260045260246000fd5b50919050565b601f8211156200021857600081815260208120601f850160051c81016020861015620001f35750805b601f850160051c820191505b818110156200021457828155600101620001ff565b5050505b505050565b81516001600160401b0381111562000239576200023962000078565b62000251816200024a84546200018e565b84620001ca565b602080601f831160018114620002895760008415620002705750858301515b600019600386901b1c1916600185901b17855562000214565b600085815260208120601f198616915b82811015620002ba5788860151825594840194600190910190840162000299565b5085821015620002d95787850151600019600388901b60f8161c191681555b5050505050600190811b01905550565b60805160a051611e6b6200031c6000396000818161010901526102df01526000818160b5015261115f0152611e6b6000f3fe608060405234801561001057600080fd5b50600436106100725760003560e01c80637dc0d1d0116100505780637dc0d1d0146101045780639061b9231461012b578063b4a858011461013e57600080fd5b806301ffc9a7146100775780633f15457f146100b057806352539968146100ef575b600080fd5b61009b610085366004611491565b6001600160e01b031916639061b92360e01b1490565b60405190151581526020015b60405180910390f35b6100d77f000000000000000000000000000000000000000000000000000000000000000081565b6040516001600160a01b0390911681526020016100a7565b6100f7610151565b6040516100a791906114fe565b6100d77f000000000000000000000000000000000000000000000000000000000000000081565b6100f761013936600461155a565b6101df565b6100f761014c36600461155a565b6102b5565b6000805461015e906115c6565b80601f016020809104026020016040519081016040528092919081815260200182805461018a906115c6565b80156101d75780601f106101ac576101008083540402835291602001916101d7565b820191906000526020600020905b8154815290600101906020018083116101ba57829003601f168201915b505050505081565b60606102aa3386868080601f01602080910402602001604051908101604052809392919081815260200183838082843760009201919091525050604080516020601f8a0181900481028201810190925288815292508891508790819084018382808284376000920191909152505060405161026692508b91508a908a908a90602401611629565b60408051601f198184030181529190526020810180517bffffffffffffffffffffffffffffffffffffffffffffffffffffffff16639061b92360e01b179052610648565b90505b949350505050565b60606000806102c684860186611749565b909250905060006102d9878901896117d1565b905060007f00000000000000000000000000000000000000000000000000000000000000006001600160a01b031663bdf95fef836040518263ffffffff1660e01b815260040161032991906118dd565b600060405180830381865afa158015610346573d6000803e3d6000fd5b505050506040513d6000823e601f3d908101601f1916820160405261036e91908101906119b2565b509050600061037d8282610931565b90505b8051516020820151101561062c5760006103a282600001518360200151610998565b90506103ae81876109b3565b15806103c35750606082015161ffff16600114155b806103d75750604082015161ffff16601014155b156103e2575061061e565b6000806103fc84600001518560a001518660c001516109d8565b90925090506001600160a01b0382161561061a576040516301ffc9a760e01b815263477cc53f60e11b60048201526001600160a01b038316906301ffc9a790602401602060405180830381865afa15801561045b573d6000803e3d6000fd5b505050506040513d601f19601f8201168201806040525081019061047f9190611a0d565b156104f2576104e38289898b8b8660405160240161049f93929190611a2f565b60408051601f198184030181529190526020810180517bffffffffffffffffffffffffffffffffffffffffffffffffffffffff1663477cc53f60e11b179052610648565b985050505050505050506102ad565b6040516301ffc9a760e01b8152639061b92360e01b60048201526001600160a01b038316906301ffc9a790602401602060405180830381865afa15801561053d573d6000803e3d6000fd5b505050506040513d601f19601f820116820180604052508101906105619190611a0d565b1561057f576104e38289898b8b604051602401610266929190611a68565b600080836001600160a01b03168960405161059a9190611a8d565b600060405180830381855afa9150503d80600081146105d5576040519150601f19603f3d011682016040523d82523d6000602084013e6105da565b606091505b509150915081156105f65799506102ad98505050505050505050565b896040516314d3b60360e11b815260040161061191906114fe565b60405180910390fd5b5050505b61062781610b20565b610380565b50836040516314d3b60360e11b815260040161061191906114fe565b60606001600160a01b0385163b156107b95760006106668684610c08565b90503d811561069c57600061067c600083610c9a565b9050808060200190518101906106929190611aa9565b93505050506102ad565b600481106107aa5760006106b260006004610c9a565b9050630556f18360e41b6106c582611ade565b6001600160e01b031916036107a85760006106ea60046106e58186611b2c565b610c9a565b90506000806000806000858060200190518101906107089190611b64565b945094509450945094508d6001600160a01b0316856001600160a01b03161461075d576040517f398d4d3200000000000000000000000000000000000000000000000000000000815260040160405180910390fd5b30848463b4a8580160e01b88868660405160200161077d93929190611c9a565b60408051601f1981840301815290829052630556f18360e41b82526106119594939291600401611ccc565b505b6107b2610cef565b50506102ad565b604080516001808252818301909252600091816020015b60608152602001906001900390816107d0579050509050600080546107f4906115c6565b80601f0160208091040260200160405190810160405280929190818152602001828054610820906115c6565b801561086d5780601f106108425761010080835404028352916020019161086d565b820191906000526020600020905b81548152906001019060200180831161085057829003601f168201915b50505050508160008151811061088557610885611d78565b602002602001018190525030818660106040516024016108a6929190611d8e565b60408051601f19818403018152918152602080830180517bffffffffffffffffffffffffffffffffffffffffffffffffffffffff167f31b137b90000000000000000000000000000000000000000000000000000000017905290517fb4a85801000000000000000000000000000000000000000000000000000000009161077d918b918b9101611a68565b61097f6040518060e001604052806060815260200160008152602001600061ffff168152602001600061ffff168152602001600063ffffffff16815260200160008152602001600081525090565b82815260c0810182905261099281610b20565b92915050565b606060006109a68484610cf9565b90506102ad848483610d53565b6000815183511480156109d157506109d18360008460008751610dd5565b9392505050565b6000606060006109e9868686610df8565b9050600581511080610a3e57506040805180820190915260058082527f454e5331200000000000000000000000000000000000000000000000000000006020830152610a3c918391600091908290610dd5565b155b15610a5c575050604080516020810190915260008082529150610b18565b6000610a996005808451610a709190611b2c565b8491907f2000000000000000000000000000000000000000000000000000000000000000610e42565b90508151811115610ad0576000610ab38360058551610ede565b6040805160208101909152600081529095509350610b1892505050565b6000610ade83600584610ede565b905080610b10610aef846001611db4565b6001858751610afe9190611b2c565b610b089190611b2c565b869190610d53565b945094505050505b935093915050565b60c08101516020820181905281515111610b375750565b6000610b4b82600001518360200151610cf9565b8260200151610b5a9190611db4565b8251909150610b699082610fe8565b61ffff166040830152610b7d600282611db4565b8251909150610b8c9082610fe8565b61ffff166060830152610ba0600282611db4565b8251909150610baf9082611010565b63ffffffff166080830152610bc5600482611db4565b8251909150600090610bd79083610fe8565b61ffff169050610be8600283611db4565b60a084018190529150610bfb8183611db4565b60c0909301929092525050565b60006001600160a01b0383163b610c875760405162461bcd60e51b815260206004820152602e60248201527f4c6f774c6576656c43616c6c5574696c733a207374617469632063616c6c207460448201527f6f206e6f6e2d636f6e74726163740000000000000000000000000000000000006064820152608401610611565b600080835160208501865afa9392505050565b60608167ffffffffffffffff811115610cb557610cb561165b565b6040519080825280601f01601f191660200182016040528015610cdf576020820181803683370190505b5090508183602083013e92915050565b3d6000803e3d6000fd5b6000815b83518110610d0d57610d0d611dc7565b6000610d19858361103a565b60ff169050610d29816001611db4565b610d339083611db4565b915080600003610d435750610d49565b50610cfd565b6102ad8382611b2c565b8251606090610d628385611db4565b1115610d6d57600080fd5b60008267ffffffffffffffff811115610d8857610d8861165b565b6040519080825280601f01601f191660200182016040528015610db2576020820181803683370190505b50905060208082019086860101610dca82828761105e565b509095945050505050565b6000610de28484846110b4565b610ded8787856110b4565b149695505050505050565b60606000610e06858561103a565b60ff16905082610e168286611db4565b10610e2357610e23611dc7565b610e39610e31856001611db4565b869083610d53565b95945050505050565b6000835b610e508486611db4565b811015610ed157827effffffffffffffffffffffffffffffffffffffffffffffffffffffffffffff1916868281518110610e8c57610e8c611d78565b01602001517fff000000000000000000000000000000000000000000000000000000000000001603610ebf5790506102ad565b80610ec981611ddd565b915050610e46565b5060001995945050505050565b6000838381518110610ef257610ef2611d78565b6020910101517fff00000000000000000000000000000000000000000000000000000000000000167f3000000000000000000000000000000000000000000000000000000000000000148015610faa575083610f4f846001611db4565b81518110610f5f57610f5f611d78565b6020910101517fff00000000000000000000000000000000000000000000000000000000000000167f7800000000000000000000000000000000000000000000000000000000000000145b15610fdd57600080610fc8610fc0866002611db4565b8790866110d8565b915091508015610fda575090506109d1565b50505b6102ad848484611114565b8151600090610ff8836002611db4565b111561100357600080fd5b50016002015161ffff1690565b8151600090611020836004611db4565b111561102b57600080fd5b50016004015163ffffffff1690565b600082828151811061104e5761104e611d78565b016020015160f81c905092915050565b602081106110965781518352611075602084611db4565b9250611082602083611db4565b915061108f602082611b2c565b905061105e565b905182516020929092036101000a6000190180199091169116179052565b82516000906110c38385611db4565b11156110ce57600080fd5b5091016020012090565b60008060286110e78585611b2c565b10156110f857506000905080610b18565b600080611106878787611271565b909890975095505050505050565b6000806111228585856113c5565b6040517f0178b8bf000000000000000000000000000000000000000000000000000000008152600481018290529091506000906001600160a01b037f00000000000000000000000000000000000000000000000000000000000000001690630178b8bf90602401602060405180830381865afa1580156111a6573d6000803e3d6000fd5b505050506040513d601f19601f820116820180604052508101906111ca9190611df6565b90506001600160a01b0381166111e5576000925050506109d1565b6040517f3b3b57de000000000000000000000000000000000000000000000000000000008152600481018390526001600160a01b03821690633b3b57de90602401602060405180830381865afa158015611243573d6000803e3d6000fd5b505050506040513d601f19601f820116820180604052508101906112679190611df6565b9695505050505050565b6000808061127f8585611b2c565b905080604014158015611293575080602814155b806112a857506112a4600282611e13565b6001145b156112f55760405162461bcd60e51b815260206004820152601560248201527f496e76616c696420737472696e67206c656e67746800000000000000000000006044820152606401610611565b60019150855184111561130757600080fd5b611358565b6000603a8210602f831116156113245750602f190190565b6047821060408311161561133a57506036190190565b6067821060608311161561135057506056190190565b5060ff919050565b60208601855b858110156113ba576113758183015160001a61130c565b6113876001830184015160001a61130c565b60ff811460ff831417156113a0576000955050506113ba565b60049190911b1760089590951b949094179360020161135e565b505050935093915050565b600080611402848587516113d99190611b2c565b8791907f2e00000000000000000000000000000000000000000000000000000000000000610e42565b905060008382101561142a576114238661141d846001611db4565b866113c5565b905061142e565b8391505b806114458661143d8186611b2c565b8991906110b4565b60408051602081019390935282015260600160405160208183030381529060405280519060200120925050509392505050565b6001600160e01b03198116811461148e57600080fd5b50565b6000602082840312156114a357600080fd5b81356109d181611478565b60005b838110156114c95781810151838201526020016114b1565b50506000910152565b600081518084526114ea8160208601602086016114ae565b601f01601f19169290920160200192915050565b6020815260006109d160208301846114d2565b60008083601f84011261152357600080fd5b50813567ffffffffffffffff81111561153b57600080fd5b60208301915083602082850101111561155357600080fd5b9250929050565b6000806000806040858703121561157057600080fd5b843567ffffffffffffffff8082111561158857600080fd5b61159488838901611511565b909650945060208701359150808211156115ad57600080fd5b506115ba87828801611511565b95989497509550505050565b600181811c908216806115da57607f821691505b6020821081036115fa57634e487b7160e01b600052602260045260246000fd5b50919050565b81835281816020850137506000828201602090810191909152601f909101601f19169091010190565b60408152600061163d604083018688611600565b8281036020840152611650818587611600565b979650505050505050565b634e487b7160e01b600052604160045260246000fd5b6040805190810167ffffffffffffffff811182821017156116945761169461165b565b60405290565b604051601f8201601f1916810167ffffffffffffffff811182821017156116c3576116c361165b565b604052919050565b600067ffffffffffffffff8211156116e5576116e561165b565b50601f01601f191660200190565b600082601f83011261170457600080fd5b8135611717611712826116cb565b61169a565b81815284602083860101111561172c57600080fd5b816020850160208301376000918101602001919091529392505050565b6000806040838503121561175c57600080fd5b823567ffffffffffffffff8082111561177457600080fd5b611780868387016116f3565b9350602085013591508082111561179657600080fd5b506117a3858286016116f3565b9150509250929050565b600067ffffffffffffffff8211156117c7576117c761165b565b5060051b60200190565b600060208083850312156117e457600080fd5b823567ffffffffffffffff808211156117fc57600080fd5b818501915085601f83011261181057600080fd5b813561181e611712826117ad565b81815260059190911b8301840190848101908883111561183d57600080fd5b8585015b838110156118d0578035858111156118595760008081fd5b86016040818c03601f19018113156118715760008081fd5b611879611671565b898301358881111561188b5760008081fd5b6118998e8c838701016116f3565b8252509082013590878211156118af5760008081fd5b6118bd8d8b848601016116f3565b818b015285525050918601918601611841565b5098975050505050505050565b60006020808301818452808551808352604092508286019150828160051b87010184880160005b8381101561195457888303603f1901855281518051878552611928888601826114d2565b91890151858303868b015291905061194081836114d2565b968901969450505090860190600101611904565b509098975050505050505050565b6000611970611712846116cb565b905082815283838301111561198457600080fd5b6109d18360208301846114ae565b600082601f8301126119a357600080fd5b6109d183835160208501611962565b600080604083850312156119c557600080fd5b825167ffffffffffffffff8111156119dc57600080fd5b6119e885828601611992565b925050602083015163ffffffff81168114611a0257600080fd5b809150509250929050565b600060208284031215611a1f57600080fd5b815180151581146109d157600080fd5b606081526000611a4260608301866114d2565b8281036020840152611a5481866114d2565b9050828103604084015261126781856114d2565b604081526000611a7b60408301856114d2565b8281036020840152610e3981856114d2565b60008251611a9f8184602087016114ae565b9190910192915050565b600060208284031215611abb57600080fd5b815167ffffffffffffffff811115611ad257600080fd5b6102ad84828501611992565b6000815160208301516001600160e01b031980821693506004831015611b0e5780818460040360031b1b83161693505b505050919050565b634e487b7160e01b600052601160045260246000fd5b8181038181111561099257610992611b16565b6001600160a01b038116811461148e57600080fd5b8051611b5f81611478565b919050565b600080600080600060a08688031215611b7c57600080fd5b8551611b8781611b3f565b8095505060208087015167ffffffffffffffff80821115611ba757600080fd5b818901915089601f830112611bbb57600080fd5b8151611bc9611712826117ad565b81815260059190911b8301840190848101908c831115611be857600080fd5b8585015b83811015611c3557805185811115611c045760008081fd5b8601603f81018f13611c165760008081fd5b611c278f8983015160408401611962565b845250918601918601611bec565b5060408c01519099509450505080831115611c4f57600080fd5b611c5b8a848b01611992565b9550611c6960608a01611b54565b94506080890151925080831115611c7f57600080fd5b5050611c8d88828901611992565b9150509295509295909350565b6001600160a01b03841681526001600160e01b0319831660208201526060604082015260006102aa60608301846114d2565b600060a082016001600160a01b0388168352602060a08185015281885180845260c08601915060c08160051b8701019350828a0160005b82811015611d315760bf19888703018452611d1f8683516114d2565b95509284019290840190600101611d03565b50505050508281036040840152611d4881876114d2565b6001600160e01b03198616606085015290508281036080840152611d6c81856114d2565b98975050505050505050565b634e487b7160e01b600052603260045260246000fd5b604081526000611da160408301856114d2565b905061ffff831660208301529392505050565b8082018082111561099257610992611b16565b634e487b7160e01b600052600160045260246000fd5b600060018201611def57611def611b16565b5060010190565b600060208284031215611e0857600080fd5b81516109d181611b3f565b600082611e3057634e487b7160e01b600052601260045260246000fd5b50069056fea264697066735822122001f4170a99a7a6703abb56e8c32cd93400b6a96ceff9948cb0c79de6e174db7364736f6c63430008110033",
  "devdoc": {
    "kind": "dev",
    "methods": {
      "supportsInterface(bytes4)": {
        "details": "Returns true if this contract implements the interface defined by `interfaceId`. See the corresponding https://eips.ethereum.org/EIPS/eip-165#how-interfaces-are-identified[EIP section] to learn more about how these ids are created. This function call must use less than 30 000 gas."
      }
    },
    "version": 1
  },
  "userdoc": {
    "kind": "user",
    "methods": {},
    "version": 1
  },
  "storageLayout": {
    "storage": [
      {
        "astId": 4878,
        "contract": "contracts/dnsregistrar/OffchainDNSResolver.sol:OffchainDNSResolver",
        "label": "gatewayURL",
        "offset": 0,
        "slot": "0",
        "type": "t_string_storage"
      }
    ],
    "types": {
      "t_string_storage": {
        "encoding": "bytes",
        "label": "string",
        "numberOfBytes": "32"
      }
    }
  }
}