{
  "address": "0x7cB8cDF08A4B5560DBe2d1a380664b7Bee72Ca65",
  "abi": [
    {
      "inputs": [
        {
          "internalType": "contract ENS",
          "name": "_ens",
          "type": "address"
        },
        {
          "internalType": "contract DNSSEC",
          "name": "_oracle",
          "type": "address"
        },
        {
          "internalType": "string",
          "name": "_gatewayURL",
          "type": "string"
        }
      ],
      "stateMutability": "nonpayable",
      "type": "constructor"
    },
    {
      "inputs": [
        {
          "internalType": "bytes",
          "name": "name",
          "type": "bytes"
        }
      ],
      "name": "CouldNotResolve",
      "type": "error"
    },
    {
      "inputs": [],
      "name": "InvalidOperation",
      "type": "error"
    },
    {
      "inputs": [
        {
          "internalType": "address",
          "name": "sender",
          "type": "address"
        },
        {
          "internalType": "string[]",
          "name": "urls",
          "type": "string[]"
        },
        {
          "internalType": "bytes",
          "name": "callData",
          "type": "bytes"
        },
        {
          "internalType": "bytes4",
          "name": "callbackFunction",
          "type": "bytes4"
        },
        {
          "internalType": "bytes",
          "name": "extraData",
          "type": "bytes"
        }
      ],
      "name": "OffchainLookup",
      "type": "error"
    },
    {
      "inputs": [],
      "name": "ens",
      "outputs": [
        {
          "internalType": "contract ENS",
          "name": "",
          "type": "address"
        }
      ],
      "stateMutability": "view",
      "type": "function"
    },
    {
      "inputs": [],
      "name": "gatewayURL",
      "outputs": [
        {
          "internalType": "string",
          "name": "",
          "type": "string"
        }
      ],
      "stateMutability": "view",
      "type": "function"
    },
    {
      "inputs": [],
      "name": "oracle",
      "outputs": [
        {
          "internalType": "contract DNSSEC",
          "name": "",
          "type": "address"
        }
      ],
      "stateMutability": "view",
      "type": "function"
    },
    {
      "inputs": [
        {
          "internalType": "bytes",
          "name": "name",
          "type": "bytes"
        },
        {
          "internalType": "bytes",
          "name": "data",
          "type": "bytes"
        }
      ],
      "name": "resolve",
      "outputs": [
        {
          "internalType": "bytes",
          "name": "",
          "type": "bytes"
        }
      ],
      "stateMutability": "view",
      "type": "function"
    },
    {
      "inputs": [
        {
          "internalType": "bytes",
          "name": "response",
          "type": "bytes"
        },
        {
          "internalType": "bytes",
          "name": "extraData",
          "type": "bytes"
        }
      ],
      "name": "resolveCallback",
      "outputs": [
        {
          "internalType": "bytes",
          "name": "",
          "type": "bytes"
        }
      ],
      "stateMutability": "view",
      "type": "function"
    }
  ],
  "transactionHash": "0x499cd39b2751f83721a0f6625d25b5382c6302a8eb08728e3d38fce22465740b",
  "args": [
    "0x00000000000C2E074eC69A0dFb2997BA6C7d2e1e",
    "0xe62E4b6cE018Ad6e916fcC24545e20a33b9d8653",
    "https://dnssec-oracle.ens.domains/"
  ],
  "numDeployments": 1,
  "solcInputHash": "ea9be46ec701408bd25e3fccf2728148",
  "bytecode": "0x60c06040523480156200001157600080fd5b50604051620021213803806200212183398101604081905262000034916200008e565b6001600160a01b03808416608052821660a05260006200005582826200021d565b50505050620002e9565b6001600160a01b03811681146200007557600080fd5b50565b634e487b7160e01b600052604160045260246000fd5b600080600060608486031215620000a457600080fd5b8351620000b1816200005f565b80935050602080850151620000c6816200005f565b60408601519093506001600160401b0380821115620000e457600080fd5b818701915087601f830112620000f957600080fd5b8151818111156200010e576200010e62000078565b604051601f8201601f19908116603f0116810190838211818310171562000139576200013962000078565b816040528281528a868487010111156200015257600080fd5b600093505b8284101562000176578484018601518185018701529285019262000157565b60008684830101528096505050505050509250925092565b600181811c90821680620001a357607f821691505b602082108103620001c457634e487b7160e01b600052602260045260246000fd5b50919050565b601f8211156200021857600081815260208120601f850160051c81016020861015620001f35750805b601f850160051c820191505b818110156200021457828155600101620001ff565b5050505b505050565b81516001600160401b0381111562000239576200023962000078565b62000251816200024a84546200018e565b84620001ca565b602080601f831160018114620002895760008415620002705750858301515b600019600386901b1c1916600185901b17855562000214565b600085815260208120601f198616915b82811015620002ba5788860151825594840194600190910190840162000299565b5085821015620002d95787850151600019600388901b60f8161c191681555b5050505050600190811b01905550565b60805160a051611e066200031b6000396000818160ca01526102a0015260008181607101526111200152611e066000f3fe608060405234801561001057600080fd5b50600436106100675760003560e01c80637dc0d1d0116100505780637dc0d1d0146100c55780639061b923146100ec578063b4a85801146100ff57600080fd5b80633f15457f1461006c57806352539968146100b0575b600080fd5b6100937f000000000000000000000000000000000000000000000000000000000000000081565b6040516001600160a01b0390911681526020015b60405180910390f35b6100b8610112565b6040516100a79190611489565b6100937f000000000000000000000000000000000000000000000000000000000000000081565b6100b86100fa3660046114e5565b6101a0565b6100b861010d3660046114e5565b610276565b6000805461011f90611551565b80601f016020809104026020016040519081016040528092919081815260200182805461014b90611551565b80156101985780601f1061016d57610100808354040283529160200191610198565b820191906000526020600020905b81548152906001019060200180831161017b57829003601f168201915b505050505081565b606061026b3386868080601f01602080910402602001604051908101604052809392919081815260200183838082843760009201919091525050604080516020601f8a0181900481028201810190925288815292508891508790819084018382808284376000920191909152505060405161022792508b91508a908a908a906024016115b4565b60408051601f198184030181529190526020810180517bffffffffffffffffffffffffffffffffffffffffffffffffffffffff16639061b92360e01b179052610609565b90505b949350505050565b6060600080610287848601866116d4565b9092509050600061029a8789018961175c565b905060007f00000000000000000000000000000000000000000000000000000000000000006001600160a01b031663bdf95fef836040518263ffffffff1660e01b81526004016102ea9190611868565b600060405180830381865afa158015610307573d6000803e3d6000fd5b505050506040513d6000823e601f3d908101601f1916820160405261032f919081019061193d565b509050600061033e82826108f2565b90505b805151602082015110156105ed57600061036382600001518360200151610959565b905061036f8187610974565b15806103845750606082015161ffff16600114155b806103985750604082015161ffff16601014155b156103a357506105df565b6000806103bd84600001518560a001518660c00151610999565b90925090506001600160a01b038216156105db576040516301ffc9a760e01b815263477cc53f60e11b60048201526001600160a01b038316906301ffc9a790602401602060405180830381865afa15801561041c573d6000803e3d6000fd5b505050506040513d601f19601f820116820180604052508101906104409190611998565b156104b3576104a48289898b8b86604051602401610460939291906119ba565b60408051601f198184030181529190526020810180517bffffffffffffffffffffffffffffffffffffffffffffffffffffffff1663477cc53f60e11b179052610609565b9850505050505050505061026e565b6040516301ffc9a760e01b8152639061b92360e01b60048201526001600160a01b038316906301ffc9a790602401602060405180830381865afa1580156104fe573d6000803e3d6000fd5b505050506040513d601f19601f820116820180604052508101906105229190611998565b15610540576104a48289898b8b6040516024016102279291906119f3565b600080836001600160a01b03168960405161055b9190611a18565b600060405180830381855afa9150503d8060008114610596576040519150601f19603f3d011682016040523d82523d6000602084013e61059b565b606091505b509150915081156105b757995061026e98505050505050505050565b896040516314d3b60360e11b81526004016105d29190611489565b60405180910390fd5b5050505b6105e881610ae1565b610341565b50836040516314d3b60360e11b81526004016105d29190611489565b60606001600160a01b0385163b1561077a5760006106278684610bc9565b90503d811561065d57600061063d600083610c5b565b9050808060200190518101906106539190611a34565b935050505061026e565b6004811061076b57600061067360006004610c5b565b9050630556f18360e41b61068682611a69565b6001600160e01b031916036107695760006106ab60046106a68186611ab7565b610c5b565b90506000806000806000858060200190518101906106c99190611aff565b945094509450945094508d6001600160a01b0316856001600160a01b03161461071e576040517f398d4d3200000000000000000000000000000000000000000000000000000000815260040160405180910390fd5b30848463b4a8580160e01b88868660405160200161073e93929190611c35565b60408051601f1981840301815290829052630556f18360e41b82526105d29594939291600401611c67565b505b610773610cb0565b505061026e565b604080516001808252818301909252600091816020015b6060815260200190600190039081610791579050509050600080546107b590611551565b80601f01602080910402602001604051908101604052809291908181526020018280546107e190611551565b801561082e5780601f106108035761010080835404028352916020019161082e565b820191906000526020600020905b81548152906001019060200180831161081157829003601f168201915b50505050508160008151811061084657610846611d13565b60200260200101819052503081866010604051602401610867929190611d29565b60408051601f19818403018152918152602080830180517bffffffffffffffffffffffffffffffffffffffffffffffffffffffff167f31b137b90000000000000000000000000000000000000000000000000000000017905290517fb4a85801000000000000000000000000000000000000000000000000000000009161073e918b918b91016119f3565b6109406040518060e001604052806060815260200160008152602001600061ffff168152602001600061ffff168152602001600063ffffffff16815260200160008152602001600081525090565b82815260c0810182905261095381610ae1565b92915050565b606060006109678484610cba565b905061026e848483610d14565b60008151835114801561099257506109928360008460008751610d96565b9392505050565b6000606060006109aa868686610db9565b90506005815110806109ff57506040805180820190915260058082527f454e53312000000000000000000000000000000000000000000000000000000060208301526109fd918391600091908290610d96565b155b15610a1d575050604080516020810190915260008082529150610ad9565b6000610a5a6005808451610a319190611ab7565b8491907f2000000000000000000000000000000000000000000000000000000000000000610e03565b90508151811115610a91576000610a748360058551610e9f565b6040805160208101909152600081529095509350610ad992505050565b6000610a9f83600584610e9f565b905080610ad1610ab0846001611d4f565b6001858751610abf9190611ab7565b610ac99190611ab7565b869190610d14565b945094505050505b935093915050565b60c08101516020820181905281515111610af85750565b6000610b0c82600001518360200151610cba565b8260200151610b1b9190611d4f565b8251909150610b2a9082610fa9565b61ffff166040830152610b3e600282611d4f565b8251909150610b4d9082610fa9565b61ffff166060830152610b61600282611d4f565b8251909150610b709082610fd1565b63ffffffff166080830152610b86600482611d4f565b8251909150600090610b989083610fa9565b61ffff169050610ba9600283611d4f565b60a084018190529150610bbc8183611d4f565b60c0909301929092525050565b60006001600160a01b0383163b610c485760405162461bcd60e51b815260206004820152602e60248201527f4c6f774c6576656c43616c6c5574696c733a207374617469632063616c6c207460448201527f6f206e6f6e2d636f6e747261637400000000000000000000000000000000000060648201526084016105d2565b600080835160208501865afa9392505050565b60608167ffffffffffffffff811115610c7657610c766115e6565b6040519080825280601f01601f191660200182016040528015610ca0576020820181803683370190505b5090508183602083013e92915050565b3d6000803e3d6000fd5b6000815b83518110610cce57610cce611d62565b6000610cda8583610ffb565b60ff169050610cea816001611d4f565b610cf49083611d4f565b915080600003610d045750610d0a565b50610cbe565b61026e8382611ab7565b8251606090610d238385611d4f565b1115610d2e57600080fd5b60008267ffffffffffffffff811115610d4957610d496115e6565b6040519080825280601f01601f191660200182016040528015610d73576020820181803683370190505b50905060208082019086860101610d8b82828761101f565b509095945050505050565b6000610da3848484611075565b610dae878785611075565b149695505050505050565b60606000610dc78585610ffb565b60ff16905082610dd78286611d4f565b10610de457610de4611d62565b610dfa610df2856001611d4f565b869083610d14565b95945050505050565b6000835b610e118486611d4f565b811015610e9257827effffffffffffffffffffffffffffffffffffffffffffffffffffffffffffff1916868281518110610e4d57610e4d611d13565b01602001517fff000000000000000000000000000000000000000000000000000000000000001603610e8057905061026e565b80610e8a81611d78565b915050610e07565b5060001995945050505050565b6000838381518110610eb357610eb3611d13565b6020910101517fff00000000000000000000000000000000000000000000000000000000000000167f3000000000000000000000000000000000000000000000000000000000000000148015610f6b575083610f10846001611d4f565b81518110610f2057610f20611d13565b6020910101517fff00000000000000000000000000000000000000000000000000000000000000167f7800000000000000000000000000000000000000000000000000000000000000145b15610f9e57600080610f89610f81866002611d4f565b879086611099565b915091508015610f9b57509050610992565b50505b61026e8484846110d5565b8151600090610fb9836002611d4f565b1115610fc457600080fd5b50016002015161ffff1690565b8151600090610fe1836004611d4f565b1115610fec57600080fd5b50016004015163ffffffff1690565b600082828151811061100f5761100f611d13565b016020015160f81c905092915050565b602081106110575781518352611036602084611d4f565b9250611043602083611d4f565b9150611050602082611ab7565b905061101f565b905182516020929092036101000a6000190180199091169116179052565b82516000906110848385611d4f565b111561108f57600080fd5b5091016020012090565b60008060286110a88585611ab7565b10156110b957506000905080610ad9565b6000806110c7878787611232565b909890975095505050505050565b6000806110e3858585611386565b6040517f0178b8bf000000000000000000000000000000000000000000000000000000008152600481018290529091506000906001600160a01b037f00000000000000000000000000000000000000000000000000000000000000001690630178b8bf90602401602060405180830381865afa158015611167573d6000803e3d6000fd5b505050506040513d601f19601f8201168201806040525081019061118b9190611d91565b90506001600160a01b0381166111a657600092505050610992565b6040517f3b3b57de000000000000000000000000000000000000000000000000000000008152600481018390526001600160a01b03821690633b3b57de90602401602060405180830381865afa158015611204573d6000803e3d6000fd5b505050506040513d601f19601f820116820180604052508101906112289190611d91565b9695505050505050565b600080806112408585611ab7565b905080604014158015611254575080602814155b806112695750611265600282611dae565b6001145b156112b65760405162461bcd60e51b815260206004820152601560248201527f496e76616c696420737472696e67206c656e677468000000000000000000000060448201526064016105d2565b6001915085518411156112c857600080fd5b611319565b6000603a8210602f831116156112e55750602f190190565b604782106040831116156112fb57506036190190565b6067821060608311161561131157506056190190565b5060ff919050565b60208601855b8581101561137b576113368183015160001a6112cd565b6113486001830184015160001a6112cd565b60ff811460ff831417156113615760009550505061137b565b60049190911b1760089590951b949094179360020161131f565b505050935093915050565b6000806113c38485875161139a9190611ab7565b8791907f2e00000000000000000000000000000000000000000000000000000000000000610e03565b90506000838210156113eb576113e4866113de846001611d4f565b86611386565b90506113ef565b8391505b80611406866113fe8186611ab7565b899190611075565b60408051602081019390935282015260600160405160208183030381529060405280519060200120925050509392505050565b60005b8381101561145457818101518382015260200161143c565b50506000910152565b60008151808452611475816020860160208601611439565b601f01601f19169290920160200192915050565b602081526000610992602083018461145d565b60008083601f8401126114ae57600080fd5b50813567ffffffffffffffff8111156114c657600080fd5b6020830191508360208285010111156114de57600080fd5b9250929050565b600080600080604085870312156114fb57600080fd5b843567ffffffffffffffff8082111561151357600080fd5b61151f8883890161149c565b9096509450602087013591508082111561153857600080fd5b506115458782880161149c565b95989497509550505050565b600181811c9082168061156557607f821691505b60208210810361158557634e487b7160e01b600052602260045260246000fd5b50919050565b81835281816020850137506000828201602090810191909152601f909101601f19169091010190565b6040815260006115c860408301868861158b565b82810360208401526115db81858761158b565b979650505050505050565b634e487b7160e01b600052604160045260246000fd5b6040805190810167ffffffffffffffff8111828210171561161f5761161f6115e6565b60405290565b604051601f8201601f1916810167ffffffffffffffff8111828210171561164e5761164e6115e6565b604052919050565b600067ffffffffffffffff821115611670576116706115e6565b50601f01601f191660200190565b600082601f83011261168f57600080fd5b81356116a261169d82611656565b611625565b8181528460208386010111156116b757600080fd5b816020850160208301376000918101602001919091529392505050565b600080604083850312156116e757600080fd5b823567ffffffffffffffff808211156116ff57600080fd5b61170b8683870161167e565b9350602085013591508082111561172157600080fd5b5061172e8582860161167e565b9150509250929050565b600067ffffffffffffffff821115611752576117526115e6565b5060051b60200190565b6000602080838503121561176f57600080fd5b823567ffffffffffffffff8082111561178757600080fd5b818501915085601f83011261179b57600080fd5b81356117a961169d82611738565b81815260059190911b830184019084810190888311156117c857600080fd5b8585015b8381101561185b578035858111156117e45760008081fd5b86016040818c03601f19018113156117fc5760008081fd5b6118046115fc565b89830135888111156118165760008081fd5b6118248e8c8387010161167e565b82525090820135908782111561183a5760008081fd5b6118488d8b8486010161167e565b818b0152855250509186019186016117cc565b5098975050505050505050565b60006020808301818452808551808352604092508286019150828160051b87010184880160005b838110156118df57888303603f19018552815180518785526118b38886018261145d565b91890151858303868b01529190506118cb818361145d565b96890196945050509086019060010161188f565b509098975050505050505050565b60006118fb61169d84611656565b905082815283838301111561190f57600080fd5b610992836020830184611439565b600082601f83011261192e57600080fd5b610992838351602085016118ed565b6000806040838503121561195057600080fd5b825167ffffffffffffffff81111561196757600080fd5b6119738582860161191d565b925050602083015163ffffffff8116811461198d57600080fd5b809150509250929050565b6000602082840312156119aa57600080fd5b8151801515811461099257600080fd5b6060815260006119cd606083018661145d565b82810360208401526119df818661145d565b90508281036040840152611228818561145d565b604081526000611a06604083018561145d565b8281036020840152610dfa818561145d565b60008251611a2a818460208701611439565b9190910192915050565b600060208284031215611a4657600080fd5b815167ffffffffffffffff811115611a5d57600080fd5b61026e8482850161191d565b6000815160208301516001600160e01b031980821693506004831015611a995780818460040360031b1b83161693505b505050919050565b634e487b7160e01b600052601160045260246000fd5b8181038181111561095357610953611aa1565b6001600160a01b0381168114611adf57600080fd5b50565b80516001600160e01b031981168114611afa57600080fd5b919050565b600080600080600060a08688031215611b1757600080fd5b8551611b2281611aca565b8095505060208087015167ffffffffffffffff80821115611b4257600080fd5b818901915089601f830112611b5657600080fd5b8151611b6461169d82611738565b81815260059190911b8301840190848101908c831115611b8357600080fd5b8585015b83811015611bd057805185811115611b9f5760008081fd5b8601603f81018f13611bb15760008081fd5b611bc28f89830151604084016118ed565b845250918601918601611b87565b5060408c01519099509450505080831115611bea57600080fd5b611bf68a848b0161191d565b9550611c0460608a01611ae2565b94506080890151925080831115611c1a57600080fd5b5050611c288882890161191d565b9150509295509295909350565b6001600160a01b03841681526001600160e01b03198316602082015260606040820152600061026b606083018461145d565b600060a082016001600160a01b0388168352602060a08185015281885180845260c08601915060c08160051b8701019350828a0160005b82811015611ccc5760bf19888703018452611cba86835161145d565b95509284019290840190600101611c9e565b50505050508281036040840152611ce3818761145d565b6001600160e01b03198616606085015290508281036080840152611d07818561145d565b98975050505050505050565b634e487b7160e01b600052603260045260246000fd5b604081526000611d3c604083018561145d565b905061ffff831660208301529392505050565b8082018082111561095357610953611aa1565b634e487b7160e01b600052600160045260246000fd5b600060018201611d8a57611d8a611aa1565b5060010190565b600060208284031215611da357600080fd5b815161099281611aca565b600082611dcb57634e487b7160e01b600052601260045260246000fd5b50069056fea26469706673582212208db431171aa96f4f9898784de1f03c3fe78cce62a7aa9d6c30489b6d8e65f1ae64736f6c63430008110033",
  "devdoc": {
    "kind": "dev",
    "methods": {},
    "version": 1
  },
  "userdoc": {
    "kind": "user",
    "methods": {},
    "version": 1
  },
  "storageLayout": {
    "storage": [
      {
        "astId": 1846,
        "contract": "contracts/dnsregistrar/OffchainDNSResolver.sol:OffchainDNSResolver",
        "label": "gatewayURL",
        "offset": 0,
        "slot": "0",
        "type": "t_string_storage"
      }
    ],
    "types": {
      "t_string_storage": {
        "encoding": "bytes",
        "label": "string",
        "numberOfBytes": "32"
      }
    }
  }
}