{
  "address": "0xEaDF0008EaAF803805eDb39F0d95CBdE003a2470",
  "abi": [
    {
      "inputs": [
        {
          "internalType": "contract ENS",
          "name": "_ens",
          "type": "address"
        },
        {
          "internalType": "contract DNSSEC",
          "name": "_oracle",
          "type": "address"
        },
        {
          "internalType": "string",
          "name": "_gatewayURL",
          "type": "string"
        }
      ],
      "stateMutability": "nonpayable",
      "type": "constructor"
    },
    {
      "inputs": [
        {
          "internalType": "bytes",
          "name": "name",
          "type": "bytes"
        }
      ],
      "name": "CouldNotResolve",
      "type": "error"
    },
    {
      "inputs": [
        {
          "internalType": "address",
          "name": "sender",
          "type": "address"
        },
        {
          "internalType": "string[]",
          "name": "urls",
          "type": "string[]"
        },
        {
          "internalType": "bytes",
          "name": "callData",
          "type": "bytes"
        },
        {
          "internalType": "bytes4",
          "name": "callbackFunction",
          "type": "bytes4"
        },
        {
          "internalType": "bytes",
          "name": "extraData",
          "type": "bytes"
        }
      ],
      "name": "OffchainLookup",
      "type": "error"
    },
    {
      "inputs": [],
      "name": "ens",
      "outputs": [
        {
          "internalType": "contract ENS",
          "name": "",
          "type": "address"
        }
      ],
      "stateMutability": "view",
      "type": "function"
    },
    {
      "inputs": [],
      "name": "gatewayURL",
      "outputs": [
        {
          "internalType": "string",
          "name": "",
          "type": "string"
        }
      ],
      "stateMutability": "view",
      "type": "function"
    },
    {
      "inputs": [],
      "name": "oracle",
      "outputs": [
        {
          "internalType": "contract DNSSEC",
          "name": "",
          "type": "address"
        }
      ],
      "stateMutability": "view",
      "type": "function"
    },
    {
      "inputs": [
        {
          "internalType": "bytes",
          "name": "name",
          "type": "bytes"
        },
        {
          "internalType": "bytes",
          "name": "data",
          "type": "bytes"
        }
      ],
      "name": "resolve",
      "outputs": [
        {
          "internalType": "bytes",
          "name": "",
          "type": "bytes"
        }
      ],
      "stateMutability": "view",
      "type": "function"
    },
    {
      "inputs": [
        {
          "internalType": "bytes",
          "name": "response",
          "type": "bytes"
        },
        {
          "internalType": "bytes",
          "name": "extraData",
          "type": "bytes"
        }
      ],
      "name": "resolveCallback",
      "outputs": [
        {
          "internalType": "bytes",
          "name": "",
          "type": "bytes"
        }
      ],
      "stateMutability": "view",
      "type": "function"
    }
  ],
  "transactionHash": "0x90d3718da559da9c5f5190e3b22b6df4ce40fdfb577fea053beef9a90e65b927",
  "args": [
    "0x00000000000C2E074eC69A0dFb2997BA6C7d2e1e",
    "0x7b3ada1c8f012bae747cf99d6cbbf70d040b84cf",
    "https://dnssec-oracle.ens.domains/"
  ],
  "numDeployments": 1,
  "solcInputHash": "e04502f562d98d0455f6c1c453418cdd",
  "bytecode": "0x60c06040523480156200001157600080fd5b5060405162001c0238038062001c0283398101604081905262000034916200008e565b6001600160a01b03808416608052821660a05260006200005582826200021d565b50505050620002e9565b6001600160a01b03811681146200007557600080fd5b50565b634e487b7160e01b600052604160045260246000fd5b600080600060608486031215620000a457600080fd5b8351620000b1816200005f565b80935050602080850151620000c6816200005f565b60408601519093506001600160401b0380821115620000e457600080fd5b818701915087601f830112620000f957600080fd5b8151818111156200010e576200010e62000078565b604051601f8201601f19908116603f0116810190838211818310171562000139576200013962000078565b816040528281528a868487010111156200015257600080fd5b600093505b8284101562000176578484018601518185018701529285019262000157565b60008684830101528096505050505050509250925092565b600181811c90821680620001a357607f821691505b602082108103620001c457634e487b7160e01b600052602260045260246000fd5b50919050565b601f8211156200021857600081815260208120601f850160051c81016020861015620001f35750805b601f850160051c820191505b818110156200021457828155600101620001ff565b5050505b505050565b81516001600160401b0381111562000239576200023962000078565b62000251816200024a84546200018e565b84620001ca565b602080601f831160018114620002895760008415620002705750858301515b600019600386901b1c1916600185901b17855562000214565b600085815260208120601f198616915b82811015620002ba5788860151825594840194600190910190840162000299565b5085821015620002d95787850151600019600388901b60f8161c191681555b5050505050600190811b01905550565b60805160a0516118e76200031b6000396000818160ca015261039901526000818160710152610e7001526118e76000f3fe608060405234801561001057600080fd5b50600436106100675760003560e01c80637dc0d1d0116100505780637dc0d1d0146100c55780639061b923146100ec578063b4a85801146100ff57600080fd5b80633f15457f1461006c57806352539968146100b0575b600080fd5b6100937f000000000000000000000000000000000000000000000000000000000000000081565b6040516001600160a01b0390911681526020015b60405180910390f35b6100b8610112565b6040516100a7919061114c565b6100937f000000000000000000000000000000000000000000000000000000000000000081565b6100b86100fa3660046111a8565b6101a0565b6100b861010d3660046111a8565b61036f565b6000805461011f90611214565b80601f016020809104026020016040519081016040528092919081815260200182805461014b90611214565b80156101985780601f1061016d57610100808354040283529160200191610198565b820191906000526020600020905b81548152906001019060200180831161017b57829003601f168201915b505050505081565b60408051600180825281830190925260609160009190816020015b60608152602001906001900390816101bb579050509050600080546101df90611214565b80601f016020809104026020016040519081016040528092919081815260200182805461020b90611214565b80156102585780601f1061022d57610100808354040283529160200191610258565b820191906000526020600020905b81548152906001019060200180831161023b57829003601f168201915b50505050508160008151811061027057610270611264565b6020026020010181905250308187876010604051602401610293939291906112a3565b60408051601f19818403018152918152602080830180517bffffffffffffffffffffffffffffffffffffffffffffffffffffffff167f31b137b90000000000000000000000000000000000000000000000000000000017905290517fb4a858010000000000000000000000000000000000000000000000000000000091610322918c918c918c918c91016112cb565b60408051601f19818403018152908290527f556f183000000000000000000000000000000000000000000000000000000000825261036695949392916004016112fd565b60405180910390fd5b606060008061038084860186611499565b90925090506000610393878901896114fd565b905060007f00000000000000000000000000000000000000000000000000000000000000006001600160a01b031663bdf95fef836040518263ffffffff1660e01b81526004016103e3919061161b565b600060405180830381865afa158015610400573d6000803e3d6000fd5b505050506040513d6000823e601f3d908101601f1916820160405261042891908101906116e5565b5090506000610437828261072c565b90505b8051516020820151101561070857600061045c82600001518360200151610793565b905061046881876107ae565b158061047d5750606082015161ffff16600114155b806104915750604082015161ffff16601014155b1561049c57506106fa565b6000806104b684600001518560a001518660c001516107d3565b90925090506001600160a01b038216156106f6576040516301ffc9a760e01b815263477cc53f60e11b60048201526001600160a01b038316906301ffc9a790602401602060405180830381865afa158015610515573d6000803e3d6000fd5b505050506040513d601f19601f820116820180604052508101906105399190611740565b156105c25760405163477cc53f60e11b81526001600160a01b03831690638ef98a7e9061056e908b908b908690600401611762565b600060405180830381865afa15801561058b573d6000803e3d6000fd5b505050506040513d6000823e601f3d908101601f191682016040526105b3919081019061179b565b98505050505050505050610724565b6040516301ffc9a760e01b8152639061b92360e01b60048201526001600160a01b038316906301ffc9a790602401602060405180830381865afa15801561060d573d6000803e3d6000fd5b505050506040513d601f19601f820116820180604052508101906106319190611740565b1561066457604051639061b92360e01b81526001600160a01b03831690639061b9239061056e908b908b906004016117d0565b600080836001600160a01b03168960405161067f91906117f5565b600060405180830381855afa9150503d80600081146106ba576040519150601f19603f3d011682016040523d82523d6000602084013e6106bf565b606091505b509150915081156106db57995061072498505050505050505050565b896040516314d3b60360e11b8152600401610366919061114c565b5050505b61070381610922565b61043a565b50836040516314d3b60360e11b8152600401610366919061114c565b949350505050565b61077a6040518060e001604052806060815260200160008152602001600061ffff168152602001600061ffff168152602001600063ffffffff16815260200160008152602001600081525090565b82815260c0810182905261078d81610922565b92915050565b606060006107a18484610a0a565b9050610724848483610a64565b6000815183511480156107cc57506107cc8360008460008751610ae6565b9392505050565b6000606060006107e4868686610b09565b905060058151108061083957506040805180820190915260058082527f454e5331200000000000000000000000000000000000000000000000000000006020830152610837918391600091908290610ae6565b155b1561085757505060408051602081019091526000808252915061091a565b6000610894600580845161086b9190611827565b8491907f2000000000000000000000000000000000000000000000000000000000000000610b53565b905081518111156108cb5760006108ae8360058551610bef565b604080516020810190915260008152909550935061091a92505050565b60006108d983600584610bef565b90508061090b6108ea84600161183a565b60018587516108f99190611827565b6109039190611827565b869190610a64565b9450945050505061091a565b50505b935093915050565b60c081015160208201819052815151116109395750565b600061094d82600001518360200151610a0a565b826020015161095c919061183a565b825190915061096b9082610cf9565b61ffff16604083015261097f60028261183a565b825190915061098e9082610cf9565b61ffff1660608301526109a260028261183a565b82519091506109b19082610d21565b63ffffffff1660808301526109c760048261183a565b82519091506000906109d99083610cf9565b61ffff1690506109ea60028361183a565b60a0840181905291506109fd818361183a565b60c0909301929092525050565b6000815b83518110610a1e57610a1e61184d565b6000610a2a8583610d4b565b60ff169050610a3a81600161183a565b610a44908361183a565b915080600003610a545750610a5a565b50610a0e565b6107248382611827565b8251606090610a73838561183a565b1115610a7e57600080fd5b60008267ffffffffffffffff811115610a9957610a9961124e565b6040519080825280601f01601f191660200182016040528015610ac3576020820181803683370190505b50905060208082019086860101610adb828287610d6f565b509095945050505050565b6000610af3848484610dc5565b610afe878785610dc5565b149695505050505050565b60606000610b178585610d4b565b60ff16905082610b27828661183a565b10610b3457610b3461184d565b610b4a610b4285600161183a565b869083610a64565b95945050505050565b6000835b610b61848661183a565b811015610be257827effffffffffffffffffffffffffffffffffffffffffffffffffffffffffffff1916868281518110610b9d57610b9d611264565b01602001517fff000000000000000000000000000000000000000000000000000000000000001603610bd0579050610724565b80610bda81611863565b915050610b57565b5060001995945050505050565b6000838381518110610c0357610c03611264565b6020910101517fff00000000000000000000000000000000000000000000000000000000000000167f3000000000000000000000000000000000000000000000000000000000000000148015610cbb575083610c6084600161183a565b81518110610c7057610c70611264565b6020910101517fff00000000000000000000000000000000000000000000000000000000000000167f7800000000000000000000000000000000000000000000000000000000000000145b15610cee57600080610cd9610cd186600261183a565b879086610de9565b915091508015610ceb575090506107cc565b50505b610724848484610e25565b8151600090610d0983600261183a565b1115610d1457600080fd5b50016002015161ffff1690565b8151600090610d3183600461183a565b1115610d3c57600080fd5b50016004015163ffffffff1690565b6000828281518110610d5f57610d5f611264565b016020015160f81c905092915050565b60208110610da75781518352610d8660208461183a565b9250610d9360208361183a565b9150610da0602082611827565b9050610d6f565b905182516020929092036101000a6000190180199091169116179052565b8251600090610dd4838561183a565b1115610ddf57600080fd5b5091016020012090565b6000806028610df88585611827565b1015610e095750600090508061091a565b600080610e17878787610f82565b909890975095505050505050565b600080610e33858585611049565b6040517f0178b8bf000000000000000000000000000000000000000000000000000000008152600481018290529091506000906001600160a01b037f00000000000000000000000000000000000000000000000000000000000000001690630178b8bf90602401602060405180830381865afa158015610eb7573d6000803e3d6000fd5b505050506040513d601f19601f82011682018060405250810190610edb9190611894565b90506001600160a01b038116610ef6576000925050506107cc565b6040517f3b3b57de000000000000000000000000000000000000000000000000000000008152600481018390526001600160a01b03821690633b3b57de90602401602060405180830381865afa158015610f54573d6000803e3d6000fd5b505050506040513d601f19601f82011682018060405250810190610f789190611894565b9695505050505050565b8251600090600190831115610f9657600080fd5b610fe7565b6000603a8210602f83111615610fb35750602f190190565b60478210604083111615610fc957506036190190565b60678210606083111615610fdf57506056190190565b5060ff919050565b60208501845b84811015610917576110048183015160001a610f9b565b6110166001830184015160001a610f9b565b60ff811460ff8314171561102f57600094505050610917565b60049190911b1760089490941b9390931792600201610fed565b6000806110868485875161105d9190611827565b8791907f2e00000000000000000000000000000000000000000000000000000000000000610b53565b90506000838210156110ae576110a7866110a184600161183a565b86611049565b90506110b2565b8391505b806110c9866110c18186611827565b899190610dc5565b60408051602081019390935282015260600160405160208183030381529060405280519060200120925050509392505050565b60005b838110156111175781810151838201526020016110ff565b50506000910152565b600081518084526111388160208601602086016110fc565b601f01601f19169290920160200192915050565b6020815260006107cc6020830184611120565b60008083601f84011261117157600080fd5b50813567ffffffffffffffff81111561118957600080fd5b6020830191508360208285010111156111a157600080fd5b9250929050565b600080600080604085870312156111be57600080fd5b843567ffffffffffffffff808211156111d657600080fd5b6111e28883890161115f565b909650945060208701359150808211156111fb57600080fd5b506112088782880161115f565b95989497509550505050565b600181811c9082168061122857607f821691505b60208210810361124857634e487b7160e01b600052602260045260246000fd5b50919050565b634e487b7160e01b600052604160045260246000fd5b634e487b7160e01b600052603260045260246000fd5b81835281816020850137506000828201602090810191909152601f909101601f19169091010190565b6040815260006112b760408301858761127a565b905061ffff83166020830152949350505050565b6040815260006112df60408301868861127a565b82810360208401526112f281858761127a565b979650505050505050565b600060a082016001600160a01b0388168352602060a08185015281885180845260c08601915060c08160051b8701019350828a0160005b828110156113625760bf19888703018452611350868351611120565b95509284019290840190600101611334565b505050505082810360408401526113798187611120565b7fffffffff0000000000000000000000000000000000000000000000000000000086166060850152905082810360808401526113b58185611120565b98975050505050505050565b6040805190810167ffffffffffffffff811182821017156113e4576113e461124e565b60405290565b604051601f8201601f1916810167ffffffffffffffff811182821017156114135761141361124e565b604052919050565b600067ffffffffffffffff8211156114355761143561124e565b50601f01601f191660200190565b600082601f83011261145457600080fd5b81356114676114628261141b565b6113ea565b81815284602083860101111561147c57600080fd5b816020850160208301376000918101602001919091529392505050565b600080604083850312156114ac57600080fd5b823567ffffffffffffffff808211156114c457600080fd5b6114d086838701611443565b935060208501359150808211156114e657600080fd5b506114f385828601611443565b9150509250929050565b6000602080838503121561151057600080fd5b823567ffffffffffffffff8082111561152857600080fd5b818501915085601f83011261153c57600080fd5b81358181111561154e5761154e61124e565b8060051b61155d8582016113ea565b918252838101850191858101908984111561157757600080fd5b86860192505b8383101561160e578235858111156115955760008081fd5b86016040818c03601f19018113156115ad5760008081fd5b6115b56113c1565b89830135888111156115c75760008081fd5b6115d58e8c83870101611443565b8252509082013590878211156115eb5760008081fd5b6115f98d8b84860101611443565b818b015284525050918601919086019061157d565b9998505050505050505050565b60006020808301818452808551808352604092508286019150828160051b87010184880160005b8381101561169257888303603f190185528151805187855261166688860182611120565b91890151858303868b015291905061167e8183611120565b968901969450505090860190600101611642565b509098975050505050505050565b600082601f8301126116b157600080fd5b81516116bf6114628261141b565b8181528460208386010111156116d457600080fd5b6107248260208301602087016110fc565b600080604083850312156116f857600080fd5b825167ffffffffffffffff81111561170f57600080fd5b61171b858286016116a0565b925050602083015163ffffffff8116811461173557600080fd5b809150509250929050565b60006020828403121561175257600080fd5b815180151581146107cc57600080fd5b6060815260006117756060830186611120565b82810360208401526117878186611120565b90508281036040840152610f788185611120565b6000602082840312156117ad57600080fd5b815167ffffffffffffffff8111156117c457600080fd5b610724848285016116a0565b6040815260006117e36040830185611120565b8281036020840152610b4a8185611120565b600082516118078184602087016110fc565b9190910192915050565b634e487b7160e01b600052601160045260246000fd5b8181038181111561078d5761078d611811565b8082018082111561078d5761078d611811565b634e487b7160e01b600052600160045260246000fd5b60006001820161187557611875611811565b5060010190565b6001600160a01b038116811461189157600080fd5b50565b6000602082840312156118a657600080fd5b81516107cc8161187c56fea2646970667358221220fe8cab828b532e5e7b2911e40131ca72978a951f8fbdcb4698a0e6c87ba00cf664736f6c63430008110033",
  "devdoc": {
    "kind": "dev",
    "methods": {},
    "version": 1
  },
  "userdoc": {
    "kind": "user",
    "methods": {},
    "version": 1
  },
  "storageLayout": {
    "storage": [
      {
        "astId": 4867,
        "contract": "contracts/dnsregistrar/OffchainDNSResolver.sol:OffchainDNSResolver",
        "label": "gatewayURL",
        "offset": 0,
        "slot": "0",
        "type": "t_string_storage"
      }
    ],
    "types": {
      "t_string_storage": {
        "encoding": "bytes",
        "label": "string",
        "numberOfBytes": "32"
      }
    }
  }
}