{
  "address": "0xCF75B92126B02C9811d8c632144288a3eb84afC8",
  "abi": [
    {
      "inputs": [
        {
          "internalType": "contract ENS",
          "name": "ensAddr",
          "type": "address"
        }
      ],
      "stateMutability": "nonpayable",
      "type": "constructor"
    },
    {
      "inputs": [],
      "name": "InvalidSignature",
      "type": "error"
    },
    {
      "inputs": [],
      "name": "ResolverAddressZero",
      "type": "error"
    },
    {
      "inputs": [],
      "name": "SignatureExpired",
      "type": "error"
    },
    {
      "inputs": [],
      "name": "SignatureExpiryTooHigh",
      "type": "error"
    },
    {
      "inputs": [],
      "name": "Unauthorised",
      "type": "error"
    },
    {
      "anonymous": false,
      "inputs": [
        {
          "indexed": true,
          "internalType": "address",
          "name": "controller",
          "type": "address"
        },
        {
          "indexed": false,
          "internalType": "bool",
          "name": "enabled",
          "type": "bool"
        }
      ],
      "name": "ControllerChanged",
      "type": "event"
    },
    {
      "anonymous": false,
      "inputs": [
        {
          "indexed": true,
          "internalType": "address",
          "name": "resolver",
          "type": "address"
        }
      ],
      "name": "DefaultResolverChanged",
      "type": "event"
    },
    {
      "anonymous": false,
      "inputs": [
        {
          "indexed": true,
          "internalType": "address",
          "name": "previousOwner",
          "type": "address"
        },
        {
          "indexed": true,
          "internalType": "address",
          "name": "newOwner",
          "type": "address"
        }
      ],
      "name": "OwnershipTransferred",
      "type": "event"
    },
    {
      "anonymous": false,
      "inputs": [
        {
          "indexed": true,
          "internalType": "address",
          "name": "addr",
          "type": "address"
        },
        {
          "indexed": true,
          "internalType": "bytes32",
          "name": "node",
          "type": "bytes32"
        }
      ],
      "name": "ReverseClaimed",
      "type": "event"
    },
    {
      "inputs": [
        {
          "internalType": "address",
          "name": "owner",
          "type": "address"
        }
      ],
      "name": "claim",
      "outputs": [
        {
          "internalType": "bytes32",
          "name": "",
          "type": "bytes32"
        }
      ],
      "stateMutability": "nonpayable",
      "type": "function"
    },
    {
      "inputs": [
        {
          "internalType": "address",
          "name": "addr",
          "type": "address"
        },
        {
          "internalType": "address",
          "name": "owner",
          "type": "address"
        },
        {
          "internalType": "address",
          "name": "resolver",
          "type": "address"
        }
      ],
      "name": "claimForAddr",
      "outputs": [
        {
          "internalType": "bytes32",
          "name": "",
          "type": "bytes32"
        }
      ],
      "stateMutability": "nonpayable",
      "type": "function"
    },
    {
      "inputs": [
        {
          "internalType": "address",
          "name": "addr",
          "type": "address"
        },
        {
          "internalType": "address",
          "name": "owner",
          "type": "address"
        },
        {
          "internalType": "address",
          "name": "resolver",
          "type": "address"
        },
        {
          "internalType": "uint256",
          "name": "signatureExpiry",
          "type": "uint256"
        },
        {
          "internalType": "bytes",
          "name": "signature",
          "type": "bytes"
        }
      ],
      "name": "claimForAddrWithSignature",
      "outputs": [
        {
          "internalType": "bytes32",
          "name": "",
          "type": "bytes32"
        }
      ],
      "stateMutability": "nonpayable",
      "type": "function"
    },
    {
      "inputs": [
        {
          "internalType": "address",
          "name": "owner",
          "type": "address"
        },
        {
          "internalType": "address",
          "name": "resolver",
          "type": "address"
        }
      ],
      "name": "claimWithResolver",
      "outputs": [
        {
          "internalType": "bytes32",
          "name": "",
          "type": "bytes32"
        }
      ],
      "stateMutability": "nonpayable",
      "type": "function"
    },
    {
      "inputs": [
        {
          "internalType": "address",
          "name": "",
          "type": "address"
        }
      ],
      "name": "controllers",
      "outputs": [
        {
          "internalType": "bool",
          "name": "",
          "type": "bool"
        }
      ],
      "stateMutability": "view",
      "type": "function"
    },
    {
      "inputs": [],
      "name": "defaultResolver",
      "outputs": [
        {
          "internalType": "contract INameSetterResolver",
          "name": "",
          "type": "address"
        }
      ],
      "stateMutability": "view",
      "type": "function"
    },
    {
      "inputs": [],
      "name": "ens",
      "outputs": [
        {
          "internalType": "contract ENS",
          "name": "",
          "type": "address"
        }
      ],
      "stateMutability": "view",
      "type": "function"
    },
    {
      "inputs": [
        {
          "internalType": "address",
          "name": "addr",
          "type": "address"
        }
      ],
      "name": "node",
      "outputs": [
        {
          "internalType": "bytes32",
          "name": "",
          "type": "bytes32"
        }
      ],
      "stateMutability": "pure",
      "type": "function"
    },
    {
      "inputs": [],
      "name": "owner",
      "outputs": [
        {
          "internalType": "address",
          "name": "",
          "type": "address"
        }
      ],
      "stateMutability": "view",
      "type": "function"
    },
    {
      "inputs": [],
      "name": "renounceOwnership",
      "outputs": [],
      "stateMutability": "nonpayable",
      "type": "function"
    },
    {
      "inputs": [
        {
          "internalType": "address",
          "name": "controller",
          "type": "address"
        },
        {
          "internalType": "bool",
          "name": "enabled",
          "type": "bool"
        }
      ],
      "name": "setController",
      "outputs": [],
      "stateMutability": "nonpayable",
      "type": "function"
    },
    {
      "inputs": [
        {
          "internalType": "address",
          "name": "resolver",
          "type": "address"
        }
      ],
      "name": "setDefaultResolver",
      "outputs": [],
      "stateMutability": "nonpayable",
      "type": "function"
    },
    {
      "inputs": [
        {
          "internalType": "string",
          "name": "name",
          "type": "string"
        }
      ],
      "name": "setName",
      "outputs": [
        {
          "internalType": "bytes32",
          "name": "",
          "type": "bytes32"
        }
      ],
      "stateMutability": "nonpayable",
      "type": "function"
    },
    {
      "inputs": [
        {
          "internalType": "address",
          "name": "addr",
          "type": "address"
        },
        {
          "internalType": "address",
          "name": "owner",
          "type": "address"
        },
        {
          "internalType": "address",
          "name": "resolver",
          "type": "address"
        },
        {
          "internalType": "string",
          "name": "name",
          "type": "string"
        }
      ],
      "name": "setNameForAddr",
      "outputs": [
        {
          "internalType": "bytes32",
          "name": "",
          "type": "bytes32"
        }
      ],
      "stateMutability": "nonpayable",
      "type": "function"
    },
    {
      "inputs": [
        {
          "internalType": "address",
          "name": "addr",
          "type": "address"
        },
        {
          "internalType": "address",
          "name": "owner",
          "type": "address"
        },
        {
          "internalType": "address",
          "name": "resolver",
          "type": "address"
        },
        {
          "internalType": "uint256",
          "name": "signatureExpiry",
          "type": "uint256"
        },
        {
          "internalType": "bytes",
          "name": "signature",
          "type": "bytes"
        },
        {
          "internalType": "string",
          "name": "name",
          "type": "string"
        }
      ],
      "name": "setNameForAddrWithSignature",
      "outputs": [
        {
          "internalType": "bytes32",
          "name": "",
          "type": "bytes32"
        }
      ],
      "stateMutability": "nonpayable",
      "type": "function"
    },
    {
      "inputs": [
        {
          "internalType": "bytes4",
          "name": "interfaceID",
          "type": "bytes4"
        }
      ],
      "name": "supportsInterface",
      "outputs": [
        {
          "internalType": "bool",
          "name": "",
          "type": "bool"
        }
      ],
      "stateMutability": "view",
      "type": "function"
    },
    {
      "inputs": [
        {
          "internalType": "address",
          "name": "newOwner",
          "type": "address"
        }
      ],
      "name": "transferOwnership",
      "outputs": [],
      "stateMutability": "nonpayable",
      "type": "function"
    }
  ],
  "transactionHash": "0x06a3c7461a0649d524fb192dd64e95ee9405adc9c63a96050e663046b532acc8",
  "args": [
    "0x00000000000C2E074eC69A0dFb2997BA6C7d2e1e"
  ],
  "numDeployments": 1,
  "solcInputHash": "8ee30aacb19aeba801c0041712610933",
  "bytecode": "0x60a06040523480156200001157600080fd5b50604051620017bc380380620017bc8339810160408190526200003491620001c4565b6200003f336200015b565b6001600160a01b03811660808190526040516302571be360e01b81527f91d1777781884d03a6757a803996e38de2a42967fb37eeaca72729271025a9e26004820152600091906302571be390602401602060405180830381865afa158015620000ac573d6000803e3d6000fd5b505050506040513d601f19601f82011682018060405250810190620000d29190620001c4565b90506001600160a01b038116156200015357604051630f41a04d60e11b81523360048201526001600160a01b03821690631e83409a906024016020604051808303816000875af11580156200012b573d6000803e3d6000fd5b505050506040513d601f19601f82011682018060405250810190620001519190620001eb565b505b505062000205565b600080546001600160a01b038381166001600160a01b0319831681178455604051919092169283917f8be0079c531659141344cd1fd0a4f28419497f9722a3daafe3b4186f6b6457e09190a35050565b6001600160a01b0381168114620001c157600080fd5b50565b600060208284031215620001d757600080fd5b8151620001e481620001ab565b9392505050565b600060208284031215620001fe57600080fd5b5051919050565b60805161158662000236600039600081816101940152818161050a015281816105e5015261078b01526115866000f3fe608060405234801561001057600080fd5b506004361061011b5760003560e01c8063828eab0e116100b2578063c66485b211610081578063e0801e9a11610066578063e0801e9a1461027e578063e0dba60f14610291578063f2fde38b146102a457600080fd5b8063c66485b214610248578063da8c229e1461025b57600080fd5b8063828eab0e146101fe5780638da5cb5b14610211578063bffbe61c14610222578063c47f00271461023557600080fd5b80633f15457f116100ee5780633f15457f1461018f57806365669631146101ce578063715018a6146101e15780637a806d6b146101eb57600080fd5b806301ffc9a7146101205780630f5a5466146101485780631e83409a1461016957806334d671991461017c575b600080fd5b61013361012e36600461102c565b6102b7565b60405190151581526020015b60405180910390f35b61015b61015636600461106b565b610320565b60405190815260200161013f565b61015b6101773660046110a4565b610334565b61015b61018a366004611164565b610350565b6101b67f000000000000000000000000000000000000000000000000000000000000000081565b6040516001600160a01b03909116815260200161013f565b61015b6101dc3660046111e3565b610574565b6101e96107f3565b005b61015b6101f9366004611270565b610807565b6002546101b6906001600160a01b031681565b6000546001600160a01b03166101b6565b61015b6102303660046110a4565b610848565b61015b6102433660046112ec565b6108ac565b6101e96102563660046110a4565b6108ca565b6101336102693660046110a4565b60016020526000908152604090205460ff1681565b61015b61028c36600461132e565b610969565b6101e961029f3660046113e8565b6109eb565b6101e96102b23660046110a4565b610a52565b60006001600160e01b031982167f6789e32c00000000000000000000000000000000000000000000000000000000148061031a57507f01ffc9a7000000000000000000000000000000000000000000000000000000006001600160e01b03198316145b92915050565b600061032d338484610574565b9392505050565b60025460009061031a90339084906001600160a01b0316610574565b600080610365876001600160a01b0316610ae7565b604080517f91d1777781884d03a6757a803996e38de2a42967fb37eeaca72729271025a9e2602082015290810182905290915060009060600160408051601f198184030181529082905280516020918201207f34d67199000000000000000000000000000000000000000000000000000000009183019190915260608a811b6bffffffffffffffffffffffff1990811660248501528a821b8116603885015289821b16604c84015282018790529150600090608001604051602081830303815290604052805190602001209050600061046b827f19457468657265756d205369676e6564204d6573736167653a0a3332000000006000908152601c91909152603c902090565b9050610479868b838a610b67565b60405183906001600160a01b038c16907f6ada868dd3058cf77a48a74489fd7963688e5464b2b0fa957ace976243270e9290600090a36040516305ef2c7f60e41b81527f91d1777781884d03a6757a803996e38de2a42967fb37eeaca72729271025a9e26004820152602481018590526001600160a01b038a811660448301528981166064830152600060848301527f00000000000000000000000000000000000000000000000000000000000000001690635ef2c7f09060a401600060405180830381600087803b15801561054e57600080fd5b505af1158015610562573d6000803e3d6000fd5b50949c9b505050505050505050505050565b6000836001600160a01b03811633148015906105a057503360009081526001602052604090205460ff16155b801561065257506040517fe985e9c50000000000000000000000000000000000000000000000000000000081526001600160a01b0382811660048301523360248301527f0000000000000000000000000000000000000000000000000000000000000000169063e985e9c590604401602060405180830381865afa15801561062c573d6000803e3d6000fd5b505050506040513d601f19601f820116820180604052508101906106509190611416565b155b8015610664575061066281610c2d565b155b1561069b576040517fd7a2ae6a00000000000000000000000000000000000000000000000000000000815260040160405180910390fd5b60006106af866001600160a01b0316610ae7565b604080517f91d1777781884d03a6757a803996e38de2a42967fb37eeaca72729271025a9e2602080830191909152818301849052825180830384018152606090920192839052815191012091925081906001600160a01b038916907f6ada868dd3058cf77a48a74489fd7963688e5464b2b0fa957ace976243270e9290600090a36040516305ef2c7f60e41b81527f91d1777781884d03a6757a803996e38de2a42967fb37eeaca72729271025a9e26004820152602481018390526001600160a01b0387811660448301528681166064830152600060848301527f00000000000000000000000000000000000000000000000000000000000000001690635ef2c7f09060a4015b600060405180830381600087803b1580156107d057600080fd5b505af11580156107e4573d6000803e3d6000fd5b50929998505050505050505050565b6107fb610cf1565b6108056000610d4b565b565b600080610815878787610574565b604051637737221360e01b81529091506001600160a01b038616906377372213906107b690849088908890600401611433565b60007f91d1777781884d03a6757a803996e38de2a42967fb37eeaca72729271025a9e261087d6001600160a01b038416610ae7565b604080516020810193909352820152606001604051602081830303815290604052805190602001209050919050565b60025460009061032d90339081906001600160a01b03168686610807565b6108d2610cf1565b6001600160a01b038116610912576040517f7ea067a100000000000000000000000000000000000000000000000000000000815260040160405180910390fd5b6002805473ffffffffffffffffffffffffffffffffffffffff19166001600160a01b0383169081179091556040517feae17a84d9eb83d8c8eb317f9e7d64857bc363fa51674d996c023f4340c577cf90600090a250565b6000806109798989898989610350565b604051637737221360e01b81529091506001600160a01b038816906377372213906109ac90849088908890600401611433565b600060405180830381600087803b1580156109c657600080fd5b505af11580156109da573d6000803e3d6000fd5b50929b9a5050505050505050505050565b6109f3610cf1565b6001600160a01b038216600081815260016020908152604091829020805460ff191685151590811790915591519182527f4c97694570a07277810af7e5669ffd5f6a2d6b74b6e9a274b8b870fd5114cf87910160405180910390a25050565b610a5a610cf1565b6001600160a01b038116610adb5760405162461bcd60e51b815260206004820152602660248201527f4f776e61626c653a206e6577206f776e657220697320746865207a65726f206160448201527f646472657373000000000000000000000000000000000000000000000000000060648201526084015b60405180910390fd5b610ae481610d4b565b50565b600060285b8015610b5b57600019017f3031323334353637383961626364656600000000000000000000000000000000600f84161a8153601090920491600019017f3031323334353637383961626364656600000000000000000000000000000000600f84161a8153601083049250610aec565b50506028600020919050565b610b72838386610da8565b610ba8576040517f8baa579f00000000000000000000000000000000000000000000000000000000815260040160405180910390fd5b42811015610be2576040517f0819bdcd00000000000000000000000000000000000000000000000000000000815260040160405180910390fd5b610bee42610e10611469565b811115610c27576040517f5e4989ee00000000000000000000000000000000000000000000000000000000815260040160405180910390fd5b50505050565b6000816001600160a01b03163b600003610c4957506000919050565b816001600160a01b0316638da5cb5b6040518163ffffffff1660e01b8152600401602060405180830381865afa925050508015610ca3575060408051601f3d908101601f19168201909252610ca09181019061148a565b60015b610ce0573d808015610cd1576040519150601f19603f3d011682016040523d82523d6000602084013e610cd6565b606091505b5060009392505050565b6001600160a01b0316331492915050565b6000546001600160a01b031633146108055760405162461bcd60e51b815260206004820181905260248201527f4f776e61626c653a2063616c6c6572206973206e6f7420746865206f776e65726044820152606401610ad2565b600080546001600160a01b0383811673ffffffffffffffffffffffffffffffffffffffff19831681178455604051919092169283917f8be0079c531659141344cd1fd0a4f28419497f9722a3daafe3b4186f6b6457e09190a35050565b6000806000610db78585610e09565b90925090506000816004811115610dd057610dd06114a7565b148015610dee5750856001600160a01b0316826001600160a01b0316145b80610dff5750610dff868686610e4e565b9695505050505050565b6000808251604103610e3f5760208301516040840151606085015160001a610e3387828585610f68565b94509450505050610e47565b506000905060025b9250929050565b6000806000856001600160a01b0316631626ba7e60e01b8686604051602401610e789291906114e1565b60408051601f198184030181529181526020820180517bffffffffffffffffffffffffffffffffffffffffffffffffffffffff166001600160e01b0319909416939093179092529051610ecb919061151b565b600060405180830381855afa9150503d8060008114610f06576040519150601f19603f3d011682016040523d82523d6000602084013e610f0b565b606091505b5091509150818015610f1f57506020815110155b8015610dff575080517f1626ba7e0000000000000000000000000000000000000000000000000000000090610f5d9083016020908101908401611537565b149695505050505050565b6000807f7fffffffffffffffffffffffffffffff5d576e7357a4501ddfe92f46681b20a0831115610f9f5750600090506003611023565b6040805160008082526020820180845289905260ff881692820192909252606081018690526080810185905260019060a0016020604051602081039080840390855afa158015610ff3573d6000803e3d6000fd5b5050604051601f1901519150506001600160a01b03811661101c57600060019250925050611023565b9150600090505b94509492505050565b60006020828403121561103e57600080fd5b81356001600160e01b03198116811461032d57600080fd5b6001600160a01b0381168114610ae457600080fd5b6000806040838503121561107e57600080fd5b823561108981611056565b9150602083013561109981611056565b809150509250929050565b6000602082840312156110b657600080fd5b813561032d81611056565b634e487b7160e01b600052604160045260246000fd5b600082601f8301126110e857600080fd5b813567ffffffffffffffff80821115611103576111036110c1565b604051601f8301601f19908116603f0116810190828211818310171561112b5761112b6110c1565b8160405283815286602085880101111561114457600080fd5b836020870160208301376000602085830101528094505050505092915050565b600080600080600060a0868803121561117c57600080fd5b853561118781611056565b9450602086013561119781611056565b935060408601356111a781611056565b925060608601359150608086013567ffffffffffffffff8111156111ca57600080fd5b6111d6888289016110d7565b9150509295509295909350565b6000806000606084860312156111f857600080fd5b833561120381611056565b9250602084013561121381611056565b9150604084013561122381611056565b809150509250925092565b60008083601f84011261124057600080fd5b50813567ffffffffffffffff81111561125857600080fd5b602083019150836020828501011115610e4757600080fd5b60008060008060006080868803121561128857600080fd5b853561129381611056565b945060208601356112a381611056565b935060408601356112b381611056565b9250606086013567ffffffffffffffff8111156112cf57600080fd5b6112db8882890161122e565b969995985093965092949392505050565b600080602083850312156112ff57600080fd5b823567ffffffffffffffff81111561131657600080fd5b6113228582860161122e565b90969095509350505050565b600080600080600080600060c0888a03121561134957600080fd5b873561135481611056565b9650602088013561136481611056565b9550604088013561137481611056565b945060608801359350608088013567ffffffffffffffff8082111561139857600080fd5b6113a48b838c016110d7565b945060a08a01359150808211156113ba57600080fd5b506113c78a828b0161122e565b989b979a50959850939692959293505050565b8015158114610ae457600080fd5b600080604083850312156113fb57600080fd5b823561140681611056565b91506020830135611099816113da565b60006020828403121561142857600080fd5b815161032d816113da565b83815260406020820152816040820152818360608301376000818301606090810191909152601f909201601f1916010192915050565b8082018082111561031a57634e487b7160e01b600052601160045260246000fd5b60006020828403121561149c57600080fd5b815161032d81611056565b634e487b7160e01b600052602160045260246000fd5b60005b838110156114d85781810151838201526020016114c0565b50506000910152565b82815260406020820152600082518060408401526115068160608501602087016114bd565b601f01601f1916919091016060019392505050565b6000825161152d8184602087016114bd565b9190910192915050565b60006020828403121561154957600080fd5b505191905056fea2646970667358221220aa39c2af36a6fb912271f06a3290824779a31f48df3ec8792458ac5bd9dfba9b64736f6c63430008110033",
  "devdoc": {
    "kind": "dev",
    "methods": {
      "claim(address)": {
        "params": {
          "owner": "The address to set as the owner of the reverse record in ENS."
        },
        "returns": {
          "_0": "The ENS node hash of the reverse record"
        }
      },
      "claimForAddr(address,address,address)": {
        "params": {
          "addr": "The address to claim the reverse record for",
          "owner": "The address to set as the owner of the reverse record",
          "resolver": "The resolver of the reverse node"
        },
        "returns": {
          "_0": "The ENS node hash of the reverse record"
        }
      },
      "claimForAddrWithSignature(address,address,address,uint256,bytes)": {
        "params": {
          "addr": "The address to claim the reverse record for",
          "owner": "The address to set as the owner of the reverse record",
          "resolver": "The resolver of the reverse node",
          "signature": "The signature to authorise the claim",
          "signatureExpiry": "The expiry of the signature"
        },
        "returns": {
          "_0": "The ENS node hash of the reverse record"
        }
      },
      "claimWithResolver(address,address)": {
        "params": {
          "owner": "The address to set as the owner of the reverse record",
          "resolver": "The resolver of the reverse node"
        },
        "returns": {
          "_0": "The ENS node hash of the reverse record"
        }
      },
      "constructor": {
        "params": {
          "ensAddr": "The address of the ENS registry"
        }
      },
      "node(address)": {
        "params": {
          "addr": "The address to get the reverse node hash for"
        },
        "returns": {
          "_0": "The ENS node hash"
        }
      },
      "owner()": {
        "details": "Returns the address of the current owner."
      },
      "renounceOwnership()": {
        "details": "Leaves the contract without owner. It will not be possible to call `onlyOwner` functions. Can only be called by the current owner. NOTE: Renouncing ownership will leave the contract without an owner, thereby disabling any functionality that is only available to the owner."
      },
      "setDefaultResolver(address)": {
        "params": {
          "resolver": "The resolver to set"
        }
      },
      "setName(string)": {
        "params": {
          "name": "The name to set for the calling account"
        },
        "returns": {
          "_0": "The ENS node hash of the reverse record"
        }
      },
      "setNameForAddr(address,address,address,string)": {
        "params": {
          "addr": "The reverse record to set",
          "name": "The name to set for the provided address",
          "owner": "The owner of the reverse node",
          "resolver": "The resolver of the reverse node"
        },
        "returns": {
          "_0": "The ENS node hash of the reverse record"
        }
      },
      "setNameForAddrWithSignature(address,address,address,uint256,bytes,string)": {
        "params": {
          "addr": "The reverse record to set",
          "name": "The name to set for the provided address",
          "owner": "The owner of the reverse node",
          "resolver": "The resolver of the reverse node",
          "signature": "The signature to authorise the claim",
          "signatureExpiry": "The expiry of the signature"
        },
        "returns": {
          "_0": "The ENS node hash of the reverse record"
        }
      },
      "supportsInterface(bytes4)": {
        "details": "See {IERC165-supportsInterface}."
      },
      "transferOwnership(address)": {
        "details": "Transfers ownership of the contract to a new account (`newOwner`). Can only be called by the current owner."
      }
    },
    "stateVariables": {
      "ADDR_REVERSE_NODE": {
        "details": "`namehash('addr.reverse')`"
      }
    },
    "title": "ENS Reverse Registrar",
    "version": 1
  },
  "userdoc": {
    "errors": {
      "InvalidSignature()": [
        {
          "notice": "The signature is invalid"
        }
      ],
      "ResolverAddressZero()": [
        {
          "notice": "Thrown when the resolver address is zero"
        }
      ],
      "SignatureExpired()": [
        {
          "notice": "The signature has expired"
        }
      ],
      "SignatureExpiryTooHigh()": [
        {
          "notice": "The signature expiry is too high"
        }
      ],
      "Unauthorised()": [
        {
          "notice": "Thrown when the caller is not authorised to perform the action"
        }
      ]
    },
    "events": {
      "DefaultResolverChanged(address)": {
        "notice": "Emitted when the default resolver is changed."
      },
      "ReverseClaimed(address,bytes32)": {
        "notice": "Emitted when a reverse record is claimed."
      }
    },
    "kind": "user",
    "methods": {
      "claim(address)": {
        "notice": "Transfers ownership of the reverse ENS record associated with the         calling account."
      },
      "claimForAddr(address,address,address)": {
        "notice": "Transfers ownership of the reverse ENS record associated with the         addr provided account."
      },
      "claimForAddrWithSignature(address,address,address,uint256,bytes)": {
        "notice": "Transfers ownership of the reverse ENS record associated with the         addr provided account using a signature to authorise."
      },
      "claimWithResolver(address,address)": {
        "notice": "Transfers ownership of the reverse ENS record associated with the         calling account."
      },
      "constructor": {
        "notice": "Sets the ENS registry and claims `addr.reverse`"
      },
      "defaultResolver()": {
        "notice": "The default resolver"
      },
      "ens()": {
        "notice": "The ENS registry"
      },
      "node(address)": {
        "notice": "Returns the ENS node hash for the reverse record associated with         the addr provided account."
      },
      "setDefaultResolver(address)": {
        "notice": "Sets the default resolver"
      },
      "setName(string)": {
        "notice": "Sets the `name()` record for the reverse ENS record associated         with the calling account, and updates the resolver to the         default reverse resolver."
      },
      "setNameForAddr(address,address,address,string)": {
        "notice": "Sets the `name()` record for the reverse ENS record associated         with the addr provided account, and updates the resolver to the         resolver provided."
      },
      "setNameForAddrWithSignature(address,address,address,uint256,bytes,string)": {
        "notice": "Sets the `name()` record for the reverse ENS record associated         with the addr provided account using a signature to authorise,         and updates the resolver to the resolver provided."
      }
    },
    "notice": "The registrar for reverse records on ENS",
    "version": 1
  },
  "storageLayout": {
    "storage": [
      {
        "astId": 428,
        "contract": "contracts/reverseRegistrar/ReverseRegistrar.sol:ReverseRegistrar",
        "label": "_owner",
        "offset": 0,
        "slot": "0",
        "type": "t_address"
      },
      {
        "astId": 10832,
        "contract": "contracts/reverseRegistrar/ReverseRegistrar.sol:ReverseRegistrar",
        "label": "controllers",
        "offset": 0,
        "slot": "1",
        "type": "t_mapping(t_address,t_bool)"
      },
      {
        "astId": 10086,
        "contract": "contracts/reverseRegistrar/ReverseRegistrar.sol:ReverseRegistrar",
        "label": "defaultResolver",
        "offset": 0,
        "slot": "2",
        "type": "t_contract(INameSetterResolver)10056"
      }
    ],
    "types": {
      "t_address": {
        "encoding": "inplace",
        "label": "address",
        "numberOfBytes": "20"
      },
      "t_bool": {
        "encoding": "inplace",
        "label": "bool",
        "numberOfBytes": "1"
      },
      "t_contract(INameSetterResolver)10056": {
        "encoding": "inplace",
        "label": "contract INameSetterResolver",
        "numberOfBytes": "20"
      },
      "t_mapping(t_address,t_bool)": {
        "encoding": "mapping",
        "key": "t_address",
        "label": "mapping(address => bool)",
        "numberOfBytes": "32",
        "value": "t_bool"
      }
    }
  }
}