{
  "address": "0xCAB401f869793d7A2238FD9dF780Cd647BE71D15",
  "abi": [
    {
      "inputs": [
        {
          "internalType": "contract ENS",
          "name": "_ens",
          "type": "address"
        },
        {
          "internalType": "contract IBaseRegistrar",
          "name": "_registrar",
          "type": "address"
        }
      ],
      "stateMutability": "nonpayable",
      "type": "constructor"
    },
    {
      "anonymous": false,
      "inputs": [
        {
          "indexed": true,
          "internalType": "address",
          "name": "previousOwner",
          "type": "address"
        },
        {
          "indexed": true,
          "internalType": "address",
          "name": "newOwner",
          "type": "address"
        }
      ],
      "name": "OwnershipTransferred",
      "type": "event"
    },
    {
      "inputs": [
        {
          "internalType": "address",
          "name": "",
          "type": "address"
        }
      ],
      "name": "approvedWrapper",
      "outputs": [
        {
          "internalType": "bool",
          "name": "",
          "type": "bool"
        }
      ],
      "stateMutability": "view",
      "type": "function"
    },
    {
      "inputs": [],
      "name": "ens",
      "outputs": [
        {
          "internalType": "contract ENS",
          "name": "",
          "type": "address"
        }
      ],
      "stateMutability": "view",
      "type": "function"
    },
    {
      "inputs": [],
      "name": "owner",
      "outputs": [
        {
          "internalType": "address",
          "name": "",
          "type": "address"
        }
      ],
      "stateMutability": "view",
      "type": "function"
    },
    {
      "inputs": [],
      "name": "registrar",
      "outputs": [
        {
          "internalType": "contract IBaseRegistrar",
          "name": "",
          "type": "address"
        }
      ],
      "stateMutability": "view",
      "type": "function"
    },
    {
      "inputs": [],
      "name": "renounceOwnership",
      "outputs": [],
      "stateMutability": "nonpayable",
      "type": "function"
    },
    {
      "inputs": [
        {
          "internalType": "bytes32",
          "name": "parentNode",
          "type": "bytes32"
        },
        {
          "internalType": "string",
          "name": "label",
          "type": "string"
        },
        {
          "internalType": "address",
          "name": "newOwner",
          "type": "address"
        },
        {
          "internalType": "address",
          "name": "resolver",
          "type": "address"
        },
        {
          "internalType": "uint64",
          "name": "ttl",
          "type": "uint64"
        },
        {
          "internalType": "uint32",
          "name": "fuses",
          "type": "uint32"
        },
        {
          "internalType": "uint64",
          "name": "expiry",
          "type": "uint64"
        }
      ],
      "name": "setSubnodeRecord",
      "outputs": [],
      "stateMutability": "nonpayable",
      "type": "function"
    },
    {
      "inputs": [
        {
          "internalType": "address",
          "name": "wrapper",
          "type": "address"
        },
        {
          "internalType": "bool",
          "name": "approved",
          "type": "bool"
        }
      ],
      "name": "setWrapperApproval",
      "outputs": [],
      "stateMutability": "nonpayable",
      "type": "function"
    },
    {
      "inputs": [
        {
          "internalType": "address",
          "name": "newOwner",
          "type": "address"
        }
      ],
      "name": "transferOwnership",
      "outputs": [],
      "stateMutability": "nonpayable",
      "type": "function"
    },
    {
      "inputs": [
        {
          "internalType": "string",
          "name": "label",
          "type": "string"
        },
        {
          "internalType": "address",
          "name": "wrappedOwner",
          "type": "address"
        },
        {
          "internalType": "uint32",
          "name": "fuses",
          "type": "uint32"
        },
        {
          "internalType": "uint64",
          "name": "expiry",
          "type": "uint64"
        },
        {
          "internalType": "address",
          "name": "resolver",
          "type": "address"
        }
      ],
      "name": "wrapETH2LD",
      "outputs": [],
      "stateMutability": "nonpayable",
      "type": "function"
    },
    {
      "inputs": [
        {
          "internalType": "bytes",
          "name": "name",
          "type": "bytes"
        },
        {
          "internalType": "address",
          "name": "wrappedOwner",
          "type": "address"
        },
        {
          "internalType": "uint32",
          "name": "fuses",
          "type": "uint32"
        },
        {
          "internalType": "uint64",
          "name": "expiry",
          "type": "uint64"
        },
        {
          "internalType": "address",
          "name": "approved",
          "type": "address"
        },
        {
          "internalType": "bytes",
          "name": "extraData",
          "type": "bytes"
        }
      ],
      "name": "wrapFromUpgrade",
      "outputs": [],
      "stateMutability": "nonpayable",
      "type": "function"
    }
  ],
  "transactionHash": "0x826a29b5ad7b5e90a75d6b92e7010514512da6544e9cb5dd760fde9b1cbbf941",
  "args": [
    "0x00000000000C2E074eC69A0dFb2997BA6C7d2e1e",
    "0x57f1887a8bf19b14fc0df6fd9b2acc9af147ea85"
  ],
  "numDeployments": 1,
  "solcInputHash": "e04502f562d98d0455f6c1c453418cdd",
  "bytecode": "0x60c060405234801561001057600080fd5b5060405161117238038061117283398101604081905261002f916100b7565b6100383361004f565b6001600160a01b039182166080521660a0526100f1565b600080546001600160a01b038381166001600160a01b0319831681178455604051919092169283917f8be0079c531659141344cd1fd0a4f28419497f9722a3daafe3b4186f6b6457e09190a35050565b6001600160a01b03811681146100b457600080fd5b50565b600080604083850312156100ca57600080fd5b82516100d58161009f565b60208401519092506100e68161009f565b809150509250929050565b60805160a05161102c6101466000396000818160f0015281816108f1015281816109cc01528181610ac20152610b63015260008181610134015281816104b6015281816105910152610687015261102c6000f3fe608060405234801561001057600080fd5b50600436106100be5760003560e01c80638da5cb5b11610076578063c6d6d7c11161005b578063c6d6d7c114610182578063f2fde38b146101b5578063f9547a9e146101c857600080fd5b80638da5cb5b1461015e5780639198c2761461016f57600080fd5b80632b20e397116100a75780632b20e397146100eb5780633f15457f1461012f578063715018a61461015657600080fd5b80630cc17365146100c357806324c1af44146100d8575b600080fd5b6100d66100d1366004610c1f565b6101db565b005b6100d66100e6366004610c9a565b61020e565b6101127f000000000000000000000000000000000000000000000000000000000000000081565b6040516001600160a01b0390911681526020015b60405180910390f35b6101127f000000000000000000000000000000000000000000000000000000000000000081565b6100d6610238565b6000546001600160a01b0316610112565b6100d661017d366004610df1565b61024c565b6101a5610190366004610eac565b60016020526000908152604090205460ff1681565b6040519015158152602001610126565b6100d66101c3366004610eac565b61033c565b6100d66101d6366004610ed0565b6103d1565b6101e36103fb565b6001600160a01b03919091166000908152600160205260409020805460ff1916911515919091179055565b6000610221888880519060200120610455565b905061022e818733610484565b5050505050505050565b6102406103fb565b61024a60006106df565b565b60008061029360008b8b8080601f01602080910402602001604051908101604052809392919081815260200183838082843760009201919091525092939250506107479050565b9150915060006102dc828c8c8080601f01602080910402602001604051908101604052809392919081815260200183838082843760009201919091525092939250506107fe9050565b905060006102ea8285610455565b90507f6c32148f748aba23997146d7fe89e962e3cc30271290fb96f5f4337756c03b5282016103235761031e848b336108bd565b61032e565b61032e818b33610484565b505050505050505050505050565b6103446103fb565b6001600160a01b0381166103c55760405162461bcd60e51b815260206004820152602660248201527f4f776e61626c653a206e6577206f776e657220697320746865207a65726f206160448201527f646472657373000000000000000000000000000000000000000000000000000060648201526084015b60405180910390fd5b6103ce816106df565b50565b6103f386866040516103e4929190610f5a565b604051809103902085336108bd565b505050505050565b6000546001600160a01b0316331461024a5760405162461bcd60e51b815260206004820181905260248201527f4f776e61626c653a2063616c6c6572206973206e6f7420746865206f776e657260448201526064016103bc565b604080516020808201859052818301849052825180830384018152606090920190925280519101205b92915050565b6040517f02571be3000000000000000000000000000000000000000000000000000000008152600481018490526000907f00000000000000000000000000000000000000000000000000000000000000006001600160a01b0316906302571be390602401602060405180830381865afa158015610505573d6000803e3d6000fd5b505050506040513d601f19601f820116820180604052508101906105299190610f6a565b6001600160a01b03831660009081526001602052604090205490915060ff1680156105655750816001600160a01b0316816001600160a01b0316145b80156105fc575060405163e985e9c560e01b81526001600160a01b0382811660048301523060248301527f0000000000000000000000000000000000000000000000000000000000000000169063e985e9c590604401602060405180830381865afa1580156105d8573d6000803e3d6000fd5b505050506040513d601f19601f820116820180604052508101906105fc9190610f87565b6106485760405162461bcd60e51b815260206004820152600c60248201527f556e617574686f7269736564000000000000000000000000000000000000000060448201526064016103bc565b6040517f5b0fc9c3000000000000000000000000000000000000000000000000000000008152600481018590526001600160a01b0384811660248301527f00000000000000000000000000000000000000000000000000000000000000001690635b0fc9c390604401600060405180830381600087803b1580156106cb57600080fd5b505af115801561022e573d6000803e3d6000fd5b600080546001600160a01b038381167fffffffffffffffffffffffff0000000000000000000000000000000000000000831681178455604051919092169283917f8be0079c531659141344cd1fd0a4f28419497f9722a3daafe3b4186f6b6457e09190a35050565b6000808351831061079a5760405162461bcd60e51b815260206004820152601e60248201527f726561644c6162656c3a20496e646578206f7574206f6620626f756e6473000060448201526064016103bc565b60008484815181106107ae576107ae610fa4565b016020015160f81c905080156107da576107d3856107cd866001610fd0565b83610bc8565b92506107df565b600092505b6107e98185610fd0565b6107f4906001610fd0565b9150509250929050565b600080600061080d8585610747565b90925090508161087f57600185516108259190610fe3565b84146108735760405162461bcd60e51b815260206004820152601d60248201527f6e616d65686173683a204a756e6b20617420656e64206f66206e616d6500000060448201526064016103bc565b506000915061047e9050565b61088985826107fe565b6040805160208101929092528101839052606001604051602081830303815290604052805190602001209250505092915050565b6040517f6352211e0000000000000000000000000000000000000000000000000000000081526004810184905283906000907f00000000000000000000000000000000000000000000000000000000000000006001600160a01b031690636352211e90602401602060405180830381865afa158015610940573d6000803e3d6000fd5b505050506040513d601f19601f820116820180604052508101906109649190610f6a565b6001600160a01b03841660009081526001602052604090205490915060ff1680156109a05750806001600160a01b0316836001600160a01b0316145b8015610a37575060405163e985e9c560e01b81526001600160a01b0382811660048301523060248301527f0000000000000000000000000000000000000000000000000000000000000000169063e985e9c590604401602060405180830381865afa158015610a13573d6000803e3d6000fd5b505050506040513d601f19601f82011682018060405250810190610a379190610f87565b610a835760405162461bcd60e51b815260206004820152600c60248201527f556e617574686f7269736564000000000000000000000000000000000000000060448201526064016103bc565b6040517f28ed4f6c000000000000000000000000000000000000000000000000000000008152600481018390526001600160a01b0385811660248301527f000000000000000000000000000000000000000000000000000000000000000016906328ed4f6c90604401600060405180830381600087803b158015610b0657600080fd5b505af1158015610b1a573d6000803e3d6000fd5b50506040517f23b872dd0000000000000000000000000000000000000000000000000000000081526001600160a01b0384811660048301528781166024830152604482018690527f00000000000000000000000000000000000000000000000000000000000000001692506323b872dd9150606401600060405180830381600087803b158015610ba957600080fd5b505af1158015610bbd573d6000803e3d6000fd5b505050505050505050565b8251600090610bd78385610fd0565b1115610be257600080fd5b5091016020012090565b6001600160a01b03811681146103ce57600080fd5b8035610c0c81610bec565b919050565b80151581146103ce57600080fd5b60008060408385031215610c3257600080fd5b8235610c3d81610bec565b91506020830135610c4d81610c11565b809150509250929050565b634e487b7160e01b600052604160045260246000fd5b803567ffffffffffffffff81168114610c0c57600080fd5b803563ffffffff81168114610c0c57600080fd5b600080600080600080600060e0888a031215610cb557600080fd5b87359650602088013567ffffffffffffffff80821115610cd457600080fd5b818a0191508a601f830112610ce857600080fd5b813581811115610cfa57610cfa610c58565b604051601f8201601f19908116603f01168101908382118183101715610d2257610d22610c58565b816040528281528d6020848701011115610d3b57600080fd5b82602086016020830137600060208483010152809a505050505050610d6260408901610c01565b9450610d7060608901610c01565b9350610d7e60808901610c6e565b9250610d8c60a08901610c86565b9150610d9a60c08901610c6e565b905092959891949750929550565b60008083601f840112610dba57600080fd5b50813567ffffffffffffffff811115610dd257600080fd5b602083019150836020828501011115610dea57600080fd5b9250929050565b60008060008060008060008060c0898b031215610e0d57600080fd5b883567ffffffffffffffff80821115610e2557600080fd5b610e318c838d01610da8565b909a50985060208b01359150610e4682610bec565b819750610e5560408c01610c86565b9650610e6360608c01610c6e565b955060808b01359150610e7582610bec565b90935060a08a01359080821115610e8b57600080fd5b50610e988b828c01610da8565b999c989b5096995094979396929594505050565b600060208284031215610ebe57600080fd5b8135610ec981610bec565b9392505050565b60008060008060008060a08789031215610ee957600080fd5b863567ffffffffffffffff811115610f0057600080fd5b610f0c89828a01610da8565b9097509550506020870135610f2081610bec565b9350610f2e60408801610c86565b9250610f3c60608801610c6e565b91506080870135610f4c81610bec565b809150509295509295509295565b8183823760009101908152919050565b600060208284031215610f7c57600080fd5b8151610ec981610bec565b600060208284031215610f9957600080fd5b8151610ec981610c11565b634e487b7160e01b600052603260045260246000fd5b634e487b7160e01b600052601160045260246000fd5b8082018082111561047e5761047e610fba565b8181038181111561047e5761047e610fba56fea26469706673582212200d03c4139275e356bdf5747a80f6b61b271f2b7ff551603efb6b19ffb5b13ffe64736f6c63430008110033",
  "devdoc": {
    "kind": "dev",
    "methods": {
      "owner()": {
        "details": "Returns the address of the current owner."
      },
      "renounceOwnership()": {
        "details": "Leaves the contract without owner. It will not be possible to call `onlyOwner` functions anymore. Can only be called by the current owner. NOTE: Renouncing ownership will leave the contract without an owner, thereby removing any functionality that is only available to the owner."
      },
      "transferOwnership(address)": {
        "details": "Transfers ownership of the contract to a new account (`newOwner`). Can only be called by the current owner."
      }
    },
    "version": 1
  },
  "userdoc": {
    "kind": "user",
    "methods": {},
    "version": 1
  },
  "storageLayout": {
    "storage": [
      {
        "astId": 444,
        "contract": "contracts/wrapper/mocks/TestUnwrap.sol:TestUnwrap",
        "label": "_owner",
        "offset": 0,
        "slot": "0",
        "type": "t_address"
      },
      {
        "astId": 24616,
        "contract": "contracts/wrapper/mocks/TestUnwrap.sol:TestUnwrap",
        "label": "approvedWrapper",
        "offset": 0,
        "slot": "1",
        "type": "t_mapping(t_address,t_bool)"
      }
    ],
    "types": {
      "t_address": {
        "encoding": "inplace",
        "label": "address",
        "numberOfBytes": "20"
      },
      "t_bool": {
        "encoding": "inplace",
        "label": "bool",
        "numberOfBytes": "1"
      },
      "t_mapping(t_address,t_bool)": {
        "encoding": "mapping",
        "key": "t_address",
        "label": "mapping(address => bool)",
        "numberOfBytes": "32",
        "value": "t_bool"
      }
    }
  }
}