{
  "address": "0x3dCE478E4C880E96Ad3BF022acae38bef43F13eB",
  "abi": [
    {
      "inputs": [
        {
          "internalType": "contract IBaseRegistrar",
          "name": "_base",
          "type": "address"
        },
        {
          "internalType": "contract IETHRegistrarController",
          "name": "_controller",
          "type": "address"
        }
      ],
      "stateMutability": "nonpayable",
      "type": "constructor"
    },
    {
      "inputs": [
        {
          "internalType": "string",
          "name": "name",
          "type": "string"
        }
      ],
      "name": "NameAvailable",
      "type": "error"
    },
    {
      "inputs": [
        {
          "internalType": "string",
          "name": "name",
          "type": "string"
        }
      ],
      "name": "NameBeyondWantedExpiryDate",
      "type": "error"
    },
    {
      "inputs": [
        {
          "internalType": "string",
          "name": "name",
          "type": "string"
        }
      ],
      "name": "NameMismatchedPrice",
      "type": "error"
    },
    {
      "inputs": [
        {
          "internalType": "string[]",
          "name": "names",
          "type": "string[]"
        },
        {
          "internalType": "uint256",
          "name": "duration",
          "type": "uint256"
        }
      ],
      "name": "getFixedDurationPriceData",
      "outputs": [
        {
          "internalType": "uint256",
          "name": "total",
          "type": "uint256"
        },
        {
          "internalType": "uint256[]",
          "name": "prices",
          "type": "uint256[]"
        }
      ],
      "stateMutability": "view",
      "type": "function"
    },
    {
      "inputs": [
        {
          "internalType": "string[]",
          "name": "names",
          "type": "string[]"
        },
        {
          "internalType": "uint256",
          "name": "duration",
          "type": "uint256"
        }
      ],
      "name": "getFixedItemPricePriceData",
      "outputs": [
        {
          "internalType": "uint256",
          "name": "total",
          "type": "uint256"
        },
        {
          "internalType": "uint256",
          "name": "itemPrice",
          "type": "uint256"
        }
      ],
      "stateMutability": "view",
      "type": "function"
    },
    {
      "inputs": [
        {
          "internalType": "string[]",
          "name": "names",
          "type": "string[]"
        },
        {
          "internalType": "uint256",
          "name": "targetExpiry",
          "type": "uint256"
        }
      ],
      "name": "getTargetExpiryPriceData",
      "outputs": [
        {
          "internalType": "uint256",
          "name": "total",
          "type": "uint256"
        },
        {
          "internalType": "uint256[]",
          "name": "durations",
          "type": "uint256[]"
        },
        {
          "internalType": "uint256[]",
          "name": "prices",
          "type": "uint256[]"
        }
      ],
      "stateMutability": "view",
      "type": "function"
    },
    {
      "inputs": [
        {
          "internalType": "string[]",
          "name": "names",
          "type": "string[]"
        },
        {
          "internalType": "uint256",
          "name": "duration",
          "type": "uint256"
        },
        {
          "internalType": "uint256[]",
          "name": "prices",
          "type": "uint256[]"
        }
      ],
      "name": "renewAllWithFixedDuration",
      "outputs": [],
      "stateMutability": "payable",
      "type": "function"
    },
    {
      "inputs": [
        {
          "internalType": "string[]",
          "name": "names",
          "type": "string[]"
        },
        {
          "internalType": "uint256",
          "name": "duration",
          "type": "uint256"
        },
        {
          "internalType": "uint256",
          "name": "itemPrice",
          "type": "uint256"
        }
      ],
      "name": "renewAllWithFixedItemPrice",
      "outputs": [],
      "stateMutability": "payable",
      "type": "function"
    },
    {
      "inputs": [
        {
          "internalType": "string[]",
          "name": "names",
          "type": "string[]"
        },
        {
          "internalType": "uint256[]",
          "name": "durations",
          "type": "uint256[]"
        },
        {
          "internalType": "uint256[]",
          "name": "prices",
          "type": "uint256[]"
        }
      ],
      "name": "renewAllWithTargetExpiry",
      "outputs": [],
      "stateMutability": "payable",
      "type": "function"
    },
    {
      "inputs": [
        {
          "internalType": "bytes4",
          "name": "interfaceID",
          "type": "bytes4"
        }
      ],
      "name": "supportsInterface",
      "outputs": [
        {
          "internalType": "bool",
          "name": "",
          "type": "bool"
        }
      ],
      "stateMutability": "view",
      "type": "function"
    }
  ],
  "transactionHash": "0x34aac2922a301e9557482a3ddcff729aa3f625df39a5f1e36c3860d0d6f78ab8",
  "args": [
    "0x57f1887a8BF19b14fC0dF6Fd9B2acc9Af147eA85",
    "0x179Be112b24Ad4cFC392eF8924DfA08C20Ad8583"
  ],
  "numDeployments": 1,
  "solcInputHash": "e0258775728f2adf594d125eb6584d24",
  "bytecode": "0x60c060405234801561001057600080fd5b5060405161143f38038061143f83398101604081905261002f9161005e565b6001600160a01b039182166080521660a052610098565b6001600160a01b038116811461005b57600080fd5b50565b6000806040838503121561007157600080fd5b825161007c81610046565b602084015190925061008d81610046565b809150509250929050565b60805160a05161134a6100f560003960008181610209015281816102c3015281816105b40152818161067601528181610815015281816109a101528181610a5201528181610b9a0152610cf4015260006104e4015261134a6000f3fe6080604052600436106100705760003560e01c80633da5169e1161004e5780633da5169e1461010e578063cdf24a6c14610123578063d1723c5914610151578063dfac1b5c1461016457600080fd5b806301ffc9a7146100755780631cedbace146100aa5780632585bb57146100df575b600080fd5b34801561008157600080fd5b50610095610090366004610e7a565b610177565b60405190151581526020015b60405180910390f35b3480156100b657600080fd5b506100ca6100c5366004610ef7565b610188565b604080519283526020830191909152016100a1565b3480156100eb57600080fd5b506100ff6100fa366004610ef7565b6103b7565b6040516100a193929190610f7e565b61012161011c366004610fb3565b610770565b005b34801561012f57600080fd5b5061014361013e366004610ef7565b6108d9565b6040516100a192919061104d565b61012161015f36600461106e565b610b12565b6101216101723660046110e8565b610c5c565b600061018282610da1565b92915050565b60008083815b818110156103ad5760008787838181106101aa576101aa611139565b90506020028101906101bc919061114f565b8080601f0160208091040260200160405190810160405280939291908181526020018383808284376000920191909152505060405163aeb8ce9b60e01b8152929350506001600160a01b037f0000000000000000000000000000000000000000000000000000000000000000169163aeb8ce9b915061023f9084906004016111dc565b602060405180830381865afa15801561025c573d6000803e3d6000fd5b505050506040513d601f19601f8201168201806040525081019061028091906111ef565b156102a95780604051632250e43760e21b81526004016102a091906111dc565b60405180910390fd5b6040516383e7f6ff60e01b81526000906001600160a01b037f000000000000000000000000000000000000000000000000000000000000000016906383e7f6ff906102fa9085908b90600401611211565b6040805180830381865afa158015610316573d6000803e3d6000fd5b505050506040513d601f19601f8201168201806040525081019061033a9190611249565b805190915061034990876112bc565b95508460000361035c5780519450610398565b8051851461039857816040517f53b3e40a0000000000000000000000000000000000000000000000000000000081526004016102a091906111dc565b505080806103a5906112cf565b91505061018e565b5050935093915050565b6000606080848067ffffffffffffffff8111156103d6576103d6611233565b6040519080825280602002602001820160405280156103ff578160200160208202803683370190505b5092508067ffffffffffffffff81111561041b5761041b611233565b604051908082528060200260200182016040528015610444578160200160208202803683370190505b50915060005b8181101561076557600088888381811061046657610466611139565b9050602002810190610478919061114f565b8080601f0160208091040260200160405190810160405280939291908181526020018383808284376000920182905250845160208601206040517fd6e4fa8600000000000000000000000000000000000000000000000000000000815295965090946001600160a01b037f000000000000000000000000000000000000000000000000000000000000000016945063d6e4fa86935061051e925060040190815260200190565b602060405180830381865afa15801561053b573d6000803e3d6000fd5b505050506040513d601f19601f8201168201806040525081019061055f91906112e8565b90508781111561059d57816040517f05fbd9f60000000000000000000000000000000000000000000000000000000081526004016102a091906111dc565b60405163aeb8ce9b60e01b81526001600160a01b037f0000000000000000000000000000000000000000000000000000000000000000169063aeb8ce9b906105e99085906004016111dc565b602060405180830381865afa158015610606573d6000803e3d6000fd5b505050506040513d601f19601f8201168201806040525081019061062a91906111ef565b1561064a5781604051632250e43760e21b81526004016102a091906111dc565b6106548189611301565b86848151811061066657610666611139565b60200260200101818152505060007f00000000000000000000000000000000000000000000000000000000000000006001600160a01b03166383e7f6ff848987815181106106b6576106b6611139565b60200260200101516040518363ffffffff1660e01b81526004016106db929190611211565b6040805180830381865afa1580156106f7573d6000803e3d6000fd5b505050506040513d601f19601f8201168201806040525081019061071b9190611249565b805190915061072a90896112bc565b9750806000015186858151811061074357610743611139565b602002602001018181525050505050808061075d906112cf565b91505061044a565b505093509350939050565b8460005b818110156108a257600088888381811061079057610790611139565b90506020028101906107a2919061114f565b8080601f01602080910402602001604051908101604052809392919081815260200183838082843760009201829052509394508a92508991508590508181106107ed576107ed611139565b905060200201359050600086868581811061080a5761080a611139565b9050602002013590507f00000000000000000000000000000000000000000000000000000000000000006001600160a01b031663acf1a8418285856040518463ffffffff1660e01b8152600401610862929190611211565b6000604051808303818588803b15801561087b57600080fd5b505af115801561088f573d6000803e3d6000fd5b5050505050836001019350505050610774565b5060405133904780156108fc02916000818181858888f193505050501580156108cf573d6000803e3d6000fd5b5050505050505050565b60006060838067ffffffffffffffff8111156108f7576108f7611233565b604051908082528060200260200182016040528015610920578160200160208202803683370190505b50915060005b818110156103ad57600087878381811061094257610942611139565b9050602002810190610954919061114f565b8080601f0160208091040260200160405190810160405280939291908181526020018383808284376000920191909152505060405163aeb8ce9b60e01b8152929350506001600160a01b037f0000000000000000000000000000000000000000000000000000000000000000169163aeb8ce9b91506109d79084906004016111dc565b602060405180830381865afa1580156109f4573d6000803e3d6000fd5b505050506040513d601f19601f82011682018060405250810190610a1891906111ef565b15610a385780604051632250e43760e21b81526004016102a091906111dc565b6040516383e7f6ff60e01b81526000906001600160a01b037f000000000000000000000000000000000000000000000000000000000000000016906383e7f6ff90610a899085908b90600401611211565b6040805180830381865afa158015610aa5573d6000803e3d6000fd5b505050506040513d601f19601f82011682018060405250810190610ac99190611249565b8051909150610ad890876112bc565b95508060000151858481518110610af157610af1611139565b60200260200101818152505050508080610b0a906112cf565b915050610926565b8360005b81811015610c26576000878783818110610b3257610b32611139565b9050602002810190610b44919061114f565b8080601f0160208091040260200160405190810160405280939291908181526020018383808284376000920182905250939450889250879150859050818110610b8f57610b8f611139565b9050602002013590507f00000000000000000000000000000000000000000000000000000000000000006001600160a01b031663acf1a84182848a6040518463ffffffff1660e01b8152600401610be7929190611211565b6000604051808303818588803b158015610c0057600080fd5b505af1158015610c14573d6000803e3d6000fd5b50505050508260010192505050610b16565b5060405133904780156108fc02916000818181858888f19350505050158015610c53573d6000803e3d6000fd5b50505050505050565b8260005b81811015610d6c576000868683818110610c7c57610c7c611139565b9050602002810190610c8e919061114f565b8080601f016020809104026020016040519081016040528093929190818152602001838380828437600092019190915250506040517facf1a841000000000000000000000000000000000000000000000000000000008152929350506001600160a01b037f0000000000000000000000000000000000000000000000000000000000000000169163acf1a84191508690610d2e9085908a90600401611211565b6000604051808303818588803b158015610d4757600080fd5b505af1158015610d5b573d6000803e3d6000fd5b505050505081600101915050610c60565b5060405133904780156108fc02916000818181858888f19350505050158015610d99573d6000803e3d6000fd5b505050505050565b60006001600160e01b031982167f1820adc900000000000000000000000000000000000000000000000000000000148061018257506101828260006001600160e01b031982167f1c80763500000000000000000000000000000000000000000000000000000000148061018257506101828260006001600160e01b031982167fc341a19200000000000000000000000000000000000000000000000000000000148061018257507f01ffc9a7000000000000000000000000000000000000000000000000000000006001600160e01b0319831614610182565b600060208284031215610e8c57600080fd5b81356001600160e01b031981168114610ea457600080fd5b9392505050565b60008083601f840112610ebd57600080fd5b50813567ffffffffffffffff811115610ed557600080fd5b6020830191508360208260051b8501011115610ef057600080fd5b9250929050565b600080600060408486031215610f0c57600080fd5b833567ffffffffffffffff811115610f2357600080fd5b610f2f86828701610eab565b909790965060209590950135949350505050565b600081518084526020808501945080840160005b83811015610f7357815187529582019590820190600101610f57565b509495945050505050565b838152606060208201526000610f976060830185610f43565b8281036040840152610fa98185610f43565b9695505050505050565b60008060008060008060608789031215610fcc57600080fd5b863567ffffffffffffffff80821115610fe457600080fd5b610ff08a838b01610eab565b9098509650602089013591508082111561100957600080fd5b6110158a838b01610eab565b9096509450604089013591508082111561102e57600080fd5b5061103b89828a01610eab565b979a9699509497509295939492505050565b8281526040602082015260006110666040830184610f43565b949350505050565b60008060008060006060868803121561108657600080fd5b853567ffffffffffffffff8082111561109e57600080fd5b6110aa89838a01610eab565b90975095506020880135945060408801359150808211156110ca57600080fd5b506110d788828901610eab565b969995985093965092949392505050565b600080600080606085870312156110fe57600080fd5b843567ffffffffffffffff81111561111557600080fd5b61112187828801610eab565b90989097506020870135966040013595509350505050565b634e487b7160e01b600052603260045260246000fd5b6000808335601e1984360301811261116657600080fd5b83018035915067ffffffffffffffff82111561118157600080fd5b602001915036819003821315610ef057600080fd5b6000815180845260005b818110156111bc576020818501810151868301820152016111a0565b506000602082860101526020601f19601f83011685010191505092915050565b602081526000610ea46020830184611196565b60006020828403121561120157600080fd5b81518015158114610ea457600080fd5b6040815260006112246040830185611196565b90508260208301529392505050565b634e487b7160e01b600052604160045260246000fd5b60006040828403121561125b57600080fd5b6040516040810181811067ffffffffffffffff8211171561128c57634e487b7160e01b600052604160045260246000fd5b604052825181526020928301519281019290925250919050565b634e487b7160e01b600052601160045260246000fd5b80820180821115610182576101826112a6565b6000600182016112e1576112e16112a6565b5060010190565b6000602082840312156112fa57600080fd5b5051919050565b81810381811115610182576101826112a656fea2646970667358221220bc8d5be967b4d760931ce2c23794ee798a024ae97c717095dbad95e29e75855264736f6c63430008110033",
  "devdoc": {
    "kind": "dev",
    "methods": {},
    "version": 1
  },
  "userdoc": {
    "kind": "user",
    "methods": {},
    "version": 1
  },
  "storageLayout": {
    "storage": [],
    "types": null
  }
}