{
  "address": "0xB0c003d54e7c5a30C0dF72c0D43Df5876d457618",
  "abi": [
    {
      "inputs": [],
      "name": "InvalidAddressFormat",
      "type": "error"
    },
    {
      "inputs": [],
      "name": "NotImplemented",
      "type": "error"
    },
    {
      "inputs": [
        {
          "internalType": "bytes",
          "name": "",
          "type": "bytes"
        },
        {
          "internalType": "bytes",
          "name": "data",
          "type": "bytes"
        },
        {
          "internalType": "bytes",
          "name": "context",
          "type": "bytes"
        }
      ],
      "name": "resolve",
      "outputs": [
        {
          "internalType": "bytes",
          "name": "",
          "type": "bytes"
        }
      ],
      "stateMutability": "pure",
      "type": "function"
    },
    {
      "inputs": [
        {
          "internalType": "bytes4",
          "name": "interfaceId",
          "type": "bytes4"
        }
      ],
      "name": "supportsInterface",
      "outputs": [
        {
          "internalType": "bool",
          "name": "",
          "type": "bool"
        }
      ],
      "stateMutability": "view",
      "type": "function"
    }
  ],
  "transactionHash": "0xb9ee088a23e19d5ca6467185be6b3a501281464c49b95905e42e112f378990ab",
  "args": [],
  "numDeployments": 1,
  "solcInputHash": "2286d90f0970dc1d34ef122ce5b9cee1",
  "bytecode": "0x608060405234801561001057600080fd5b506106ba806100206000396000f3fe608060405234801561001057600080fd5b50600436106100365760003560e01c806301ffc9a71461003b5780638ef98a7e1461008d575b600080fd5b61007861004936600461045d565b6001600160e01b0319167f8ef98a7e000000000000000000000000000000000000000000000000000000001490565b60405190151581526020015b60405180910390f35b6100a061009b3660046104d7565b6100ad565b6040516100849190610571565b606060006100bb85876105bf565b90506001600160e01b031981167f3b3b57de00000000000000000000000000000000000000000000000000000000148061011e57506001600160e01b031981167ff1cb7e0600000000000000000000000000000000000000000000000000000000145b15610271577f0e3481fa000000000000000000000000000000000000000000000000000000006001600160e01b03198216016101b0576000610163866004818a6105ef565b8101906101709190610619565b915050603c81146101ae5760405160200161019690602080825260009082015260400190565b604051602081830303815290604052925050506102a3565b505b6000806101fc60028787905088888080601f0160208091040260200160405190810160405280939291908181526020018383808284376000920191909152509294939250506102ad9050565b9150915080610237576040517fc9e47ee500000000000000000000000000000000000000000000000000000000815260040160405180910390fd5b6040805173ffffffffffffffffffffffffffffffffffffffff841660208201520160405160208183030381529060405293505050506102a3565b6040517fd623472500000000000000000000000000000000000000000000000000000000815260040160405180910390fd5b9695505050505050565b60008060286102bc858561063b565b10156102cd575060009050806102e3565b6000806102db8787876102eb565b909450925050505b935093915050565b600080806102f9858561063b565b90508060401415801561030d575080602814155b80610322575061031e600282610662565b6001145b1561038d576040517f08c379a000000000000000000000000000000000000000000000000000000000815260206004820152601560248201527f496e76616c696420737472696e67206c656e6774680000000000000000000000604482015260640160405180910390fd5b60019150855184111561039f57600080fd5b6103f0565b6000603a8210602f831116156103bc5750602f190190565b604782106040831116156103d257506036190190565b606782106060831116156103e857506056190190565b5060ff919050565b60208601855b858110156104525761040d8183015160001a6103a4565b61041f6001830184015160001a6103a4565b60ff811460ff8314171561043857600095505050610452565b60049190911b1760089590951b94909417936002016103f6565b505050935093915050565b60006020828403121561046f57600080fd5b81356001600160e01b03198116811461048757600080fd5b9392505050565b60008083601f8401126104a057600080fd5b50813567ffffffffffffffff8111156104b857600080fd5b6020830191508360208285010111156104d057600080fd5b9250929050565b600080600080600080606087890312156104f057600080fd5b863567ffffffffffffffff8082111561050857600080fd5b6105148a838b0161048e565b9098509650602089013591508082111561052d57600080fd5b6105398a838b0161048e565b9096509450604089013591508082111561055257600080fd5b5061055f89828a0161048e565b979a9699509497509295939492505050565b600060208083528351808285015260005b8181101561059e57858101830151858201604001528201610582565b506000604082860101526040601f19601f8301168501019250505092915050565b6001600160e01b031981358181169160048510156105e75780818660040360031b1b83161692505b505092915050565b600080858511156105ff57600080fd5b8386111561060c57600080fd5b5050820193919092039150565b6000806040838503121561062c57600080fd5b50508035926020909101359150565b8181038181111561065c57634e487b7160e01b600052601160045260246000fd5b92915050565b60008261067f57634e487b7160e01b600052601260045260246000fd5b50069056fea264697066735822122048092a531a20e262efce54779239b612bcaff145bb48f1dae6c4641143e50c4164736f6c63430008110033",
  "devdoc": {
    "kind": "dev",
    "methods": {
      "supportsInterface(bytes4)": {
        "details": "Returns true if this contract implements the interface defined by `interfaceId`. See the corresponding https://eips.ethereum.org/EIPS/eip-165#how-interfaces-are-identified[EIP section] to learn more about how these ids are created. This function call must use less than 30 000 gas."
      }
    },
    "version": 1
  },
  "userdoc": {
    "kind": "user",
    "methods": {},
    "version": 1
  },
  "storageLayout": {
    "storage": [],
    "types": null
  }
}