{
  "address": "0xe65d8aaf34cb91087d1598e0a15b582f57f217d9",
  "abi": [
    {
      "inputs": [
        {
          "internalType": "bytes",
          "name": "data",
          "type": "bytes"
        },
        {
          "internalType": "bytes",
          "name": "hash",
          "type": "bytes"
        }
      ],
      "name": "verify",
      "outputs": [
        {
          "internalType": "bool",
          "name": "",
          "type": "bool"
        }
      ],
      "stateMutability": "pure",
      "type": "function"
    }
  ],
  "transactionHash": "0xd031c1f24b8c81da0993584975102598144a644dd290bce14d6253766e67f604",
  "args": [],
  "numDeployments": 1,
  "solcInputHash": "2286d90f0970dc1d34ef122ce5b9cee1",
  "bytecode": "0x608060405234801561001057600080fd5b5061076c806100206000396000f3fe608060405234801561001057600080fd5b506004361061002b5760003560e01c8063f7e83aee14610030575b600080fd5b61004361003e36600461068a565b610057565b604051901515815260200160405180910390f35b6000601482146100c7576040517f08c379a000000000000000000000000000000000000000000000000000000000815260206004820152601860248201527f496e76616c696420736861312068617368206c656e6774680000000000000000604482015260640160405180910390fd5b600061010d600085858080601f016020809104026020016040519081016040528093929190818152602001838380828437600092019190915250929392505061017c9050565b6bffffffffffffffffffffffff19169050600061015f87878080601f0160208091040260200160405190810160405280939291908181526020018383808284376000920191909152506101af92505050565b6bffffffffffffffffffffffff1916919091149695505050505050565b815160009061018c8360146106f6565b111561019757600080fd5b5001602001516bffffffffffffffffffffffff191690565b60006040518251602084019350604067ffffffffffffffc0600183011601600982820310600181036101e2576040820191505b50776745230100efcdab890098badcfe001032547600c3d2e1f0610235565b60008383101561022e5750808201519282900392602084101561022e5760001960208590036101000a0119165b9392505050565b60005b828110156105c15761024b848289610201565b855261025b846020830189610201565b6020860152604081850310600181036102775760808286038701535b506040830381146001810361029457602086018051600887021790525b5060405b608081101561031c57858101603f19810151603719820151601f19830151600b198401516002911891909218189081027ffffffffefffffffefffffffefffffffefffffffefffffffefffffffefffffffe1663800000009091047c010000000100000001000000010000000100000001000000010000000116179052600c01610298565b5060805b6101408110156103a557858101607f19810151606f19820151603f198301516017198401516004911891909218189081027ffffffffcfffffffcfffffffcfffffffcfffffffcfffffffcfffffffcfffffffc1663400000009091047c030000000300000003000000030000000300000003000000030000000316179052601801610320565b508160008060005b6050811015610597576014810480156103dd576001811461040d576002811461043b576003811461046e57610498565b6501000000000085046a010000000000000000000086048118600160781b870416189350635a8279999250610498565b650100000000008504600160781b86046a0100000000000000000000870418189350636ed9eba19250610498565b6a01000000000000000000008504600160781b8604818117650100000000008804169116179350638f1bbcdc9250610498565b650100000000008504600160781b86046a010000000000000000000087041818935063ca62c1d692505b50601f770800000000000000000000000000000000000000000000008504168063ffffffe073080000000000000000000000000000000000000087041617905080840190508063ffffffff86160190508083019050807c0100000000000000000000000000000000000000000000000000000000600484028c015104019050740100000000000000000000000000000000000000008102650100000000008604179450506a0100000000000000000000633fffffff6a040000000000000000000086041663c00000006604000000000000870416170277ffffffff00ffffffff000000000000ffffffff00ffffffff85161793506001810190506103ad565b5050509190910177ffffffff00ffffffff00ffffffff00ffffffff00ffffffff1690604001610238565b506c0100000000000000000000000063ffffffff821667ffffffff000000006101008404166bffffffff0000000000000000620100008504166fffffffff000000000000000000000000630100000086041673ffffffff000000000000000000000000000000006401000000008704161717171702945050505050919050565b60008083601f84011261065357600080fd5b50813567ffffffffffffffff81111561066b57600080fd5b60208301915083602082850101111561068357600080fd5b9250929050565b600080600080604085870312156106a057600080fd5b843567ffffffffffffffff808211156106b857600080fd5b6106c488838901610641565b909650945060208701359150808211156106dd57600080fd5b506106ea87828801610641565b95989497509550505050565b80820180821115610730577f4e487b7100000000000000000000000000000000000000000000000000000000600052601160045260246000fd5b9291505056fea26469706673582212201eb056a89a6b6b67ba5acc9d1d278299eadfc218cf0f5baba761aa60461f441964736f6c63430008110033",
  "devdoc": {
    "details": "Implements the DNSSEC SHA1 digest.",
    "kind": "dev",
    "methods": {
      "verify(bytes,bytes)": {
        "details": "Verifies a cryptographic hash.",
        "params": {
          "data": "The data to hash.",
          "hash": "The hash to compare to."
        },
        "returns": {
          "_0": "True iff the hashed data matches the provided hash value."
        }
      }
    },
    "version": 1
  },
  "userdoc": {
    "kind": "user",
    "methods": {},
    "version": 1
  },
  "storageLayout": {
    "storage": [],
    "types": null
  }
}