{
  "address": "0x16D5E5c5dAc7dD20DAf10947492b2e233212c175",
  "abi": [
    {
      "inputs": [
        {
          "internalType": "contract ENS",
          "name": "_ens",
          "type": "address"
        }
      ],
      "stateMutability": "nonpayable",
      "type": "constructor"
    },
    {
      "stateMutability": "nonpayable",
      "type": "fallback"
    },
    {
      "inputs": [
        {
          "internalType": "bytes[]",
          "name": "inputs",
          "type": "bytes[]"
        }
      ],
      "name": "multicall",
      "outputs": [
        {
          "internalType": "bytes[]",
          "name": "ret",
          "type": "bytes[]"
        }
      ],
      "stateMutability": "nonpayable",
      "type": "function"
    }
  ],
  "transactionHash": "0xc46eca5c3454222261b5eaaed904488aab9da16e02ee1167412ead3f9bbc3626",
  "args": [
    "0x00000000000C2E074eC69A0dFb2997BA6C7d2e1e"
  ],
  "bytecode": "0x608060405234801561001057600080fd5b506040516109993803806109998339818101604052810190610032919061008d565b806000806101000a81548173ffffffffffffffffffffffffffffffffffffffff021916908373ffffffffffffffffffffffffffffffffffffffff16021790555050610111565b600081519050610087816100fa565b92915050565b60006020828403121561009f57600080fd5b60006100ad84828501610078565b91505092915050565b60006100c1826100da565b9050919050565b60006100d3826100b6565b9050919050565b600073ffffffffffffffffffffffffffffffffffffffff82169050919050565b610103816100c8565b811461010e57600080fd5b50565b610879806101206000396000f3fe608060405234801561001057600080fd5b506004361061002f5760003560e01c8063ac9650d8146100ac57610030565b5b600036606060008061008585858080601f016020809104026020016040519081016040528093929190818152602001838380828437600081840152601f19601f820116905080830192505050505050506100dc565b9150915081156100995780925050506100a1565b805160208201fd5b915050805190602001f35b6100c660048036038101906100c1919061045b565b61024f565b6040516100d391906105dc565b60405180910390f35b60006060602483511015610125576040517f08c379a000000000000000000000000000000000000000000000000000000000815260040161011c90610619565b60405180910390fd5b60006024840151905060008060009054906101000a900473ffffffffffffffffffffffffffffffffffffffff1673ffffffffffffffffffffffffffffffffffffffff16630178b8bf836040518263ffffffff1660e01b815260040161018a91906105fe565b60206040518083038186803b1580156101a257600080fd5b505afa1580156101b6573d6000803e3d6000fd5b505050506040513d601f19601f820116820180604052508101906101da9190610432565b90508073ffffffffffffffffffffffffffffffffffffffff168560405161020191906105c5565b6000604051808303816000865af19150503d806000811461023e576040519150601f19603f3d011682016040523d82523d6000602084013e610243565b606091505b50935093505050915091565b60608282905067ffffffffffffffff811115610294577f4e487b7100000000000000000000000000000000000000000000000000000000600052604160045260246000fd5b6040519080825280602002602001820160405280156102c757816020015b60608152602001906001900390816102b25790505b50905060005b838390508110156103cc576000610370858584818110610316577f4e487b7100000000000000000000000000000000000000000000000000000000600052603260045260246000fd5b90506020028101906103289190610639565b8080601f016020809104026020016040519081016040528093929190818152602001838380828437600081840152601f19601f820116905080830192505050505050506100dc565b915050808383815181106103ad577f4e487b7100000000000000000000000000000000000000000000000000000000600052603260045260246000fd5b60200260200101819052505080806103c49061077a565b9150506102cd565b5092915050565b6000815190506103e28161082c565b92915050565b60008083601f8401126103fa57600080fd5b8235905067ffffffffffffffff81111561041357600080fd5b60208301915083602082028301111561042b57600080fd5b9250929050565b60006020828403121561044457600080fd5b6000610452848285016103d3565b91505092915050565b6000806020838503121561046e57600080fd5b600083013567ffffffffffffffff81111561048857600080fd5b610494858286016103e8565b92509250509250929050565b60006104ac8383610538565b905092915050565b60006104bf826106a0565b6104c981856106c3565b9350836020820285016104db85610690565b8060005b8581101561051757848403895281516104f885826104a0565b9450610503836106b6565b925060208a019950506001810190506104df565b50829750879550505050505092915050565b61053281610713565b82525050565b6000610543826106ab565b61054d81856106d4565b935061055d818560208601610747565b610566816107f2565b840191505092915050565b600061057c826106ab565b61058681856106e5565b9350610596818560208601610747565b80840191505092915050565b60006105af600f836106f0565b91506105ba82610803565b602082019050919050565b60006105d18284610571565b915081905092915050565b600060208201905081810360008301526105f681846104b4565b905092915050565b60006020820190506106136000830184610529565b92915050565b60006020820190508181036000830152610632816105a2565b9050919050565b6000808335600160200384360303811261065257600080fd5b80840192508235915067ffffffffffffffff82111561067057600080fd5b60208301925060018202360383131561068857600080fd5b509250929050565b6000819050602082019050919050565b600081519050919050565b600081519050919050565b6000602082019050919050565b600082825260208201905092915050565b600082825260208201905092915050565b600081905092915050565b600082825260208201905092915050565b600061070c8261071d565b9050919050565b6000819050919050565b600073ffffffffffffffffffffffffffffffffffffffff82169050919050565b6000819050919050565b60005b8381101561076557808201518184015260208101905061074a565b83811115610774576000848401525b50505050565b60006107858261073d565b91507fffffffffffffffffffffffffffffffffffffffffffffffffffffffffffffffff8214156107b8576107b76107c3565b5b600182019050919050565b7f4e487b7100000000000000000000000000000000000000000000000000000000600052601160045260246000fd5b6000601f19601f8301169050919050565b7f496e70757420746f6f2073686f72740000000000000000000000000000000000600082015250565b61083581610701565b811461084057600080fd5b5056fea2646970667358221220d766fb356d836c3c5fa64c28c615d9602aee70822e32ce85e58303cddfb1799a64736f6c63430008040033"
}