{
  "address": "0x32e6c069d2C8Bec43157293929419A263ed7180D",
  "abi": [
    {
      "inputs": [
        {
          "internalType": "int256",
          "name": "_value",
          "type": "int256"
        }
      ],
      "stateMutability": "nonpayable",
      "type": "constructor"
    },
    {
      "inputs": [],
      "name": "latestAnswer",
      "outputs": [
        {
          "internalType": "int256",
          "name": "",
          "type": "int256"
        }
      ],
      "stateMutability": "view",
      "type": "function"
    },
    {
      "inputs": [
        {
          "internalType": "int256",
          "name": "_value",
          "type": "int256"
        }
      ],
      "name": "set",
      "outputs": [],
      "stateMutability": "nonpayable",
      "type": "function"
    }
  ],
  "transactionHash": "0x8c0fc260f5f9dba88bad6f90c658e15f0330fc3fd410be6545542be989fcc0ac",
  "args": [
    "160000000000"
  ],
  "numDeployments": 3,
  "solcInputHash": "2813443d96b2eb882a21ada25755af03",
  "bytecode": "0x608060405234801561001057600080fd5b5060405161011138038061011183398101604081905261002f9161003e565b61003881600055565b50610057565b60006020828403121561005057600080fd5b5051919050565b60ac806100656000396000f3fe6080604052348015600f57600080fd5b506004361060325760003560e01c806350d25bcd146037578063e5c19b2d14604c575b600080fd5b60005460405190815260200160405180910390f35b605c6057366004605e565b600055565b005b600060208284031215606f57600080fd5b503591905056fea2646970667358221220f187daa57c6cbf0d06755647ea010a8b94c874520430b0e35a8c45343e3772ee64736f6c63430008110033",
  "devdoc": {
    "kind": "dev",
    "methods": {},
    "version": 1
  },
  "userdoc": {
    "kind": "user",
    "methods": {},
    "version": 1
  },
  "storageLayout": {
    "storage": [
      {
        "astId": 11561,
        "contract": "contracts/ethregistrar/DummyOracle.sol:DummyOracle",
        "label": "value",
        "offset": 0,
        "slot": "0",
        "type": "t_int256"
      }
    ],
    "types": {
      "t_int256": {
        "encoding": "inplace",
        "label": "int256",
        "numberOfBytes": "32"
      }
    }
  }
}