{
  "address": "0x060f1546642E67c485D56248201feA2f9AB1803C",
  "abi": [
    {
      "inputs": [
        {
          "internalType": "contract ENS",
          "name": "_ens",
          "type": "address"
        },
        {
          "internalType": "contract IBaseRegistrar",
          "name": "_registrar",
          "type": "address"
        },
        {
          "internalType": "contract IMetadataService",
          "name": "_metadataService",
          "type": "address"
        }
      ],
      "stateMutability": "nonpayable",
      "type": "constructor"
    },
    {
      "inputs": [],
      "name": "CannotUpgrade",
      "type": "error"
    },
    {
      "inputs": [],
      "name": "IncompatibleParent",
      "type": "error"
    },
    {
      "inputs": [
        {
          "internalType": "address",
          "name": "owner",
          "type": "address"
        }
      ],
      "name": "IncorrectTargetOwner",
      "type": "error"
    },
    {
      "inputs": [],
      "name": "IncorrectTokenType",
      "type": "error"
    },
    {
      "inputs": [
        {
          "internalType": "bytes32",
          "name": "labelHash",
          "type": "bytes32"
        },
        {
          "internalType": "bytes32",
          "name": "expectedLabelhash",
          "type": "bytes32"
        }
      ],
      "name": "LabelMismatch",
      "type": "error"
    },
    {
      "inputs": [
        {
          "internalType": "string",
          "name": "label",
          "type": "string"
        }
      ],
      "name": "LabelTooLong",
      "type": "error"
    },
    {
      "inputs": [],
      "name": "LabelTooShort",
      "type": "error"
    },
    {
      "inputs": [],
      "name": "NameIsNotWrapped",
      "type": "error"
    },
    {
      "inputs": [
        {
          "internalType": "bytes32",
          "name": "node",
          "type": "bytes32"
        }
      ],
      "name": "OperationProhibited",
      "type": "error"
    },
    {
      "inputs": [
        {
          "internalType": "bytes32",
          "name": "node",
          "type": "bytes32"
        },
        {
          "internalType": "address",
          "name": "addr",
          "type": "address"
        }
      ],
      "name": "Unauthorised",
      "type": "error"
    },
    {
      "anonymous": false,
      "inputs": [
        {
          "indexed": true,
          "internalType": "address",
          "name": "account",
          "type": "address"
        },
        {
          "indexed": true,
          "internalType": "address",
          "name": "operator",
          "type": "address"
        },
        {
          "indexed": false,
          "internalType": "bool",
          "name": "approved",
          "type": "bool"
        }
      ],
      "name": "ApprovalForAll",
      "type": "event"
    },
    {
      "anonymous": false,
      "inputs": [
        {
          "indexed": true,
          "internalType": "address",
          "name": "controller",
          "type": "address"
        },
        {
          "indexed": false,
          "internalType": "bool",
          "name": "active",
          "type": "bool"
        }
      ],
      "name": "ControllerChanged",
      "type": "event"
    },
    {
      "anonymous": false,
      "inputs": [
        {
          "indexed": true,
          "internalType": "bytes32",
          "name": "node",
          "type": "bytes32"
        },
        {
          "indexed": false,
          "internalType": "uint64",
          "name": "expiry",
          "type": "uint64"
        }
      ],
      "name": "ExpiryExtended",
      "type": "event"
    },
    {
      "anonymous": false,
      "inputs": [
        {
          "indexed": true,
          "internalType": "bytes32",
          "name": "node",
          "type": "bytes32"
        },
        {
          "indexed": false,
          "internalType": "uint32",
          "name": "fuses",
          "type": "uint32"
        }
      ],
      "name": "FusesSet",
      "type": "event"
    },
    {
      "anonymous": false,
      "inputs": [
        {
          "indexed": true,
          "internalType": "bytes32",
          "name": "node",
          "type": "bytes32"
        },
        {
          "indexed": false,
          "internalType": "address",
          "name": "owner",
          "type": "address"
        }
      ],
      "name": "NameUnwrapped",
      "type": "event"
    },
    {
      "anonymous": false,
      "inputs": [
        {
          "indexed": true,
          "internalType": "bytes32",
          "name": "node",
          "type": "bytes32"
        },
        {
          "indexed": false,
          "internalType": "bytes",
          "name": "name",
          "type": "bytes"
        },
        {
          "indexed": false,
          "internalType": "address",
          "name": "owner",
          "type": "address"
        },
        {
          "indexed": false,
          "internalType": "uint32",
          "name": "fuses",
          "type": "uint32"
        },
        {
          "indexed": false,
          "internalType": "uint64",
          "name": "expiry",
          "type": "uint64"
        }
      ],
      "name": "NameWrapped",
      "type": "event"
    },
    {
      "anonymous": false,
      "inputs": [
        {
          "indexed": true,
          "internalType": "address",
          "name": "previousOwner",
          "type": "address"
        },
        {
          "indexed": true,
          "internalType": "address",
          "name": "newOwner",
          "type": "address"
        }
      ],
      "name": "OwnershipTransferred",
      "type": "event"
    },
    {
      "anonymous": false,
      "inputs": [
        {
          "indexed": true,
          "internalType": "address",
          "name": "operator",
          "type": "address"
        },
        {
          "indexed": true,
          "internalType": "address",
          "name": "from",
          "type": "address"
        },
        {
          "indexed": true,
          "internalType": "address",
          "name": "to",
          "type": "address"
        },
        {
          "indexed": false,
          "internalType": "uint256[]",
          "name": "ids",
          "type": "uint256[]"
        },
        {
          "indexed": false,
          "internalType": "uint256[]",
          "name": "values",
          "type": "uint256[]"
        }
      ],
      "name": "TransferBatch",
      "type": "event"
    },
    {
      "anonymous": false,
      "inputs": [
        {
          "indexed": true,
          "internalType": "address",
          "name": "operator",
          "type": "address"
        },
        {
          "indexed": true,
          "internalType": "address",
          "name": "from",
          "type": "address"
        },
        {
          "indexed": true,
          "internalType": "address",
          "name": "to",
          "type": "address"
        },
        {
          "indexed": false,
          "internalType": "uint256",
          "name": "id",
          "type": "uint256"
        },
        {
          "indexed": false,
          "internalType": "uint256",
          "name": "value",
          "type": "uint256"
        }
      ],
      "name": "TransferSingle",
      "type": "event"
    },
    {
      "anonymous": false,
      "inputs": [
        {
          "indexed": false,
          "internalType": "string",
          "name": "value",
          "type": "string"
        },
        {
          "indexed": true,
          "internalType": "uint256",
          "name": "id",
          "type": "uint256"
        }
      ],
      "name": "URI",
      "type": "event"
    },
    {
      "inputs": [
        {
          "internalType": "uint256",
          "name": "",
          "type": "uint256"
        }
      ],
      "name": "_tokens",
      "outputs": [
        {
          "internalType": "uint256",
          "name": "",
          "type": "uint256"
        }
      ],
      "stateMutability": "view",
      "type": "function"
    },
    {
      "inputs": [
        {
          "internalType": "bytes32",
          "name": "node",
          "type": "bytes32"
        },
        {
          "internalType": "uint32",
          "name": "fuseMask",
          "type": "uint32"
        }
      ],
      "name": "allFusesBurned",
      "outputs": [
        {
          "internalType": "bool",
          "name": "",
          "type": "bool"
        }
      ],
      "stateMutability": "view",
      "type": "function"
    },
    {
      "inputs": [
        {
          "internalType": "address",
          "name": "account",
          "type": "address"
        },
        {
          "internalType": "uint256",
          "name": "id",
          "type": "uint256"
        }
      ],
      "name": "balanceOf",
      "outputs": [
        {
          "internalType": "uint256",
          "name": "",
          "type": "uint256"
        }
      ],
      "stateMutability": "view",
      "type": "function"
    },
    {
      "inputs": [
        {
          "internalType": "address[]",
          "name": "accounts",
          "type": "address[]"
        },
        {
          "internalType": "uint256[]",
          "name": "ids",
          "type": "uint256[]"
        }
      ],
      "name": "balanceOfBatch",
      "outputs": [
        {
          "internalType": "uint256[]",
          "name": "",
          "type": "uint256[]"
        }
      ],
      "stateMutability": "view",
      "type": "function"
    },
    {
      "inputs": [
        {
          "internalType": "bytes32",
          "name": "node",
          "type": "bytes32"
        },
        {
          "internalType": "address",
          "name": "addr",
          "type": "address"
        }
      ],
      "name": "canModifyName",
      "outputs": [
        {
          "internalType": "bool",
          "name": "",
          "type": "bool"
        }
      ],
      "stateMutability": "view",
      "type": "function"
    },
    {
      "inputs": [
        {
          "internalType": "address",
          "name": "",
          "type": "address"
        }
      ],
      "name": "controllers",
      "outputs": [
        {
          "internalType": "bool",
          "name": "",
          "type": "bool"
        }
      ],
      "stateMutability": "view",
      "type": "function"
    },
    {
      "inputs": [],
      "name": "ens",
      "outputs": [
        {
          "internalType": "contract ENS",
          "name": "",
          "type": "address"
        }
      ],
      "stateMutability": "view",
      "type": "function"
    },
    {
      "inputs": [
        {
          "internalType": "bytes32",
          "name": "parentNode",
          "type": "bytes32"
        },
        {
          "internalType": "bytes32",
          "name": "labelhash",
          "type": "bytes32"
        },
        {
          "internalType": "uint64",
          "name": "expiry",
          "type": "uint64"
        }
      ],
      "name": "extendExpiry",
      "outputs": [
        {
          "internalType": "uint64",
          "name": "",
          "type": "uint64"
        }
      ],
      "stateMutability": "nonpayable",
      "type": "function"
    },
    {
      "inputs": [
        {
          "internalType": "uint256",
          "name": "id",
          "type": "uint256"
        }
      ],
      "name": "getData",
      "outputs": [
        {
          "internalType": "address",
          "name": "owner",
          "type": "address"
        },
        {
          "internalType": "uint32",
          "name": "fuses",
          "type": "uint32"
        },
        {
          "internalType": "uint64",
          "name": "expiry",
          "type": "uint64"
        }
      ],
      "stateMutability": "view",
      "type": "function"
    },
    {
      "inputs": [
        {
          "internalType": "address",
          "name": "account",
          "type": "address"
        },
        {
          "internalType": "address",
          "name": "operator",
          "type": "address"
        }
      ],
      "name": "isApprovedForAll",
      "outputs": [
        {
          "internalType": "bool",
          "name": "",
          "type": "bool"
        }
      ],
      "stateMutability": "view",
      "type": "function"
    },
    {
      "inputs": [
        {
          "internalType": "bytes32",
          "name": "node",
          "type": "bytes32"
        }
      ],
      "name": "isWrapped",
      "outputs": [
        {
          "internalType": "bool",
          "name": "",
          "type": "bool"
        }
      ],
      "stateMutability": "view",
      "type": "function"
    },
    {
      "inputs": [],
      "name": "metadataService",
      "outputs": [
        {
          "internalType": "contract IMetadataService",
          "name": "",
          "type": "address"
        }
      ],
      "stateMutability": "view",
      "type": "function"
    },
    {
      "inputs": [],
      "name": "name",
      "outputs": [
        {
          "internalType": "string",
          "name": "",
          "type": "string"
        }
      ],
      "stateMutability": "view",
      "type": "function"
    },
    {
      "inputs": [
        {
          "internalType": "bytes32",
          "name": "",
          "type": "bytes32"
        }
      ],
      "name": "names",
      "outputs": [
        {
          "internalType": "bytes",
          "name": "",
          "type": "bytes"
        }
      ],
      "stateMutability": "view",
      "type": "function"
    },
    {
      "inputs": [
        {
          "internalType": "address",
          "name": "to",
          "type": "address"
        },
        {
          "internalType": "address",
          "name": "",
          "type": "address"
        },
        {
          "internalType": "uint256",
          "name": "tokenId",
          "type": "uint256"
        },
        {
          "internalType": "bytes",
          "name": "data",
          "type": "bytes"
        }
      ],
      "name": "onERC721Received",
      "outputs": [
        {
          "internalType": "bytes4",
          "name": "",
          "type": "bytes4"
        }
      ],
      "stateMutability": "nonpayable",
      "type": "function"
    },
    {
      "inputs": [],
      "name": "owner",
      "outputs": [
        {
          "internalType": "address",
          "name": "",
          "type": "address"
        }
      ],
      "stateMutability": "view",
      "type": "function"
    },
    {
      "inputs": [
        {
          "internalType": "uint256",
          "name": "id",
          "type": "uint256"
        }
      ],
      "name": "ownerOf",
      "outputs": [
        {
          "internalType": "address",
          "name": "owner",
          "type": "address"
        }
      ],
      "stateMutability": "view",
      "type": "function"
    },
    {
      "inputs": [
        {
          "internalType": "address",
          "name": "_token",
          "type": "address"
        },
        {
          "internalType": "address",
          "name": "_to",
          "type": "address"
        },
        {
          "internalType": "uint256",
          "name": "_amount",
          "type": "uint256"
        }
      ],
      "name": "recoverFunds",
      "outputs": [],
      "stateMutability": "nonpayable",
      "type": "function"
    },
    {
      "inputs": [
        {
          "internalType": "string",
          "name": "label",
          "type": "string"
        },
        {
          "internalType": "address",
          "name": "wrappedOwner",
          "type": "address"
        },
        {
          "internalType": "uint256",
          "name": "duration",
          "type": "uint256"
        },
        {
          "internalType": "address",
          "name": "resolver",
          "type": "address"
        },
        {
          "internalType": "uint16",
          "name": "ownerControlledFuses",
          "type": "uint16"
        }
      ],
      "name": "registerAndWrapETH2LD",
      "outputs": [
        {
          "internalType": "uint256",
          "name": "registrarExpiry",
          "type": "uint256"
        }
      ],
      "stateMutability": "nonpayable",
      "type": "function"
    },
    {
      "inputs": [],
      "name": "registrar",
      "outputs": [
        {
          "internalType": "contract IBaseRegistrar",
          "name": "",
          "type": "address"
        }
      ],
      "stateMutability": "view",
      "type": "function"
    },
    {
      "inputs": [
        {
          "internalType": "uint256",
          "name": "tokenId",
          "type": "uint256"
        },
        {
          "internalType": "uint256",
          "name": "duration",
          "type": "uint256"
        }
      ],
      "name": "renew",
      "outputs": [
        {
          "internalType": "uint256",
          "name": "expires",
          "type": "uint256"
        }
      ],
      "stateMutability": "nonpayable",
      "type": "function"
    },
    {
      "inputs": [],
      "name": "renounceOwnership",
      "outputs": [],
      "stateMutability": "nonpayable",
      "type": "function"
    },
    {
      "inputs": [
        {
          "internalType": "address",
          "name": "from",
          "type": "address"
        },
        {
          "internalType": "address",
          "name": "to",
          "type": "address"
        },
        {
          "internalType": "uint256[]",
          "name": "ids",
          "type": "uint256[]"
        },
        {
          "internalType": "uint256[]",
          "name": "amounts",
          "type": "uint256[]"
        },
        {
          "internalType": "bytes",
          "name": "data",
          "type": "bytes"
        }
      ],
      "name": "safeBatchTransferFrom",
      "outputs": [],
      "stateMutability": "nonpayable",
      "type": "function"
    },
    {
      "inputs": [
        {
          "internalType": "address",
          "name": "from",
          "type": "address"
        },
        {
          "internalType": "address",
          "name": "to",
          "type": "address"
        },
        {
          "internalType": "uint256",
          "name": "id",
          "type": "uint256"
        },
        {
          "internalType": "uint256",
          "name": "amount",
          "type": "uint256"
        },
        {
          "internalType": "bytes",
          "name": "data",
          "type": "bytes"
        }
      ],
      "name": "safeTransferFrom",
      "outputs": [],
      "stateMutability": "nonpayable",
      "type": "function"
    },
    {
      "inputs": [
        {
          "internalType": "address",
          "name": "operator",
          "type": "address"
        },
        {
          "internalType": "bool",
          "name": "approved",
          "type": "bool"
        }
      ],
      "name": "setApprovalForAll",
      "outputs": [],
      "stateMutability": "nonpayable",
      "type": "function"
    },
    {
      "inputs": [
        {
          "internalType": "bytes32",
          "name": "parentNode",
          "type": "bytes32"
        },
        {
          "internalType": "bytes32",
          "name": "labelhash",
          "type": "bytes32"
        },
        {
          "internalType": "uint32",
          "name": "fuses",
          "type": "uint32"
        },
        {
          "internalType": "uint64",
          "name": "expiry",
          "type": "uint64"
        }
      ],
      "name": "setChildFuses",
      "outputs": [],
      "stateMutability": "nonpayable",
      "type": "function"
    },
    {
      "inputs": [
        {
          "internalType": "address",
          "name": "controller",
          "type": "address"
        },
        {
          "internalType": "bool",
          "name": "active",
          "type": "bool"
        }
      ],
      "name": "setController",
      "outputs": [],
      "stateMutability": "nonpayable",
      "type": "function"
    },
    {
      "inputs": [
        {
          "internalType": "bytes32",
          "name": "node",
          "type": "bytes32"
        },
        {
          "internalType": "uint16",
          "name": "ownerControlledFuses",
          "type": "uint16"
        }
      ],
      "name": "setFuses",
      "outputs": [
        {
          "internalType": "uint32",
          "name": "",
          "type": "uint32"
        }
      ],
      "stateMutability": "nonpayable",
      "type": "function"
    },
    {
      "inputs": [
        {
          "internalType": "contract IMetadataService",
          "name": "_metadataService",
          "type": "address"
        }
      ],
      "name": "setMetadataService",
      "outputs": [],
      "stateMutability": "nonpayable",
      "type": "function"
    },
    {
      "inputs": [
        {
          "internalType": "bytes32",
          "name": "node",
          "type": "bytes32"
        },
        {
          "internalType": "address",
          "name": "owner",
          "type": "address"
        },
        {
          "internalType": "address",
          "name": "resolver",
          "type": "address"
        },
        {
          "internalType": "uint64",
          "name": "ttl",
          "type": "uint64"
        }
      ],
      "name": "setRecord",
      "outputs": [],
      "stateMutability": "nonpayable",
      "type": "function"
    },
    {
      "inputs": [
        {
          "internalType": "bytes32",
          "name": "node",
          "type": "bytes32"
        },
        {
          "internalType": "address",
          "name": "resolver",
          "type": "address"
        }
      ],
      "name": "setResolver",
      "outputs": [],
      "stateMutability": "nonpayable",
      "type": "function"
    },
    {
      "inputs": [
        {
          "internalType": "bytes32",
          "name": "parentNode",
          "type": "bytes32"
        },
        {
          "internalType": "string",
          "name": "label",
          "type": "string"
        },
        {
          "internalType": "address",
          "name": "owner",
          "type": "address"
        },
        {
          "internalType": "uint32",
          "name": "fuses",
          "type": "uint32"
        },
        {
          "internalType": "uint64",
          "name": "expiry",
          "type": "uint64"
        }
      ],
      "name": "setSubnodeOwner",
      "outputs": [
        {
          "internalType": "bytes32",
          "name": "node",
          "type": "bytes32"
        }
      ],
      "stateMutability": "nonpayable",
      "type": "function"
    },
    {
      "inputs": [
        {
          "internalType": "bytes32",
          "name": "parentNode",
          "type": "bytes32"
        },
        {
          "internalType": "string",
          "name": "label",
          "type": "string"
        },
        {
          "internalType": "address",
          "name": "owner",
          "type": "address"
        },
        {
          "internalType": "address",
          "name": "resolver",
          "type": "address"
        },
        {
          "internalType": "uint64",
          "name": "ttl",
          "type": "uint64"
        },
        {
          "internalType": "uint32",
          "name": "fuses",
          "type": "uint32"
        },
        {
          "internalType": "uint64",
          "name": "expiry",
          "type": "uint64"
        }
      ],
      "name": "setSubnodeRecord",
      "outputs": [
        {
          "internalType": "bytes32",
          "name": "node",
          "type": "bytes32"
        }
      ],
      "stateMutability": "nonpayable",
      "type": "function"
    },
    {
      "inputs": [
        {
          "internalType": "bytes32",
          "name": "node",
          "type": "bytes32"
        },
        {
          "internalType": "uint64",
          "name": "ttl",
          "type": "uint64"
        }
      ],
      "name": "setTTL",
      "outputs": [],
      "stateMutability": "nonpayable",
      "type": "function"
    },
    {
      "inputs": [
        {
          "internalType": "contract INameWrapperUpgrade",
          "name": "_upgradeAddress",
          "type": "address"
        }
      ],
      "name": "setUpgradeContract",
      "outputs": [],
      "stateMutability": "nonpayable",
      "type": "function"
    },
    {
      "inputs": [
        {
          "internalType": "bytes4",
          "name": "interfaceId",
          "type": "bytes4"
        }
      ],
      "name": "supportsInterface",
      "outputs": [
        {
          "internalType": "bool",
          "name": "",
          "type": "bool"
        }
      ],
      "stateMutability": "view",
      "type": "function"
    },
    {
      "inputs": [
        {
          "internalType": "address",
          "name": "newOwner",
          "type": "address"
        }
      ],
      "name": "transferOwnership",
      "outputs": [],
      "stateMutability": "nonpayable",
      "type": "function"
    },
    {
      "inputs": [
        {
          "internalType": "bytes32",
          "name": "parentNode",
          "type": "bytes32"
        },
        {
          "internalType": "bytes32",
          "name": "labelhash",
          "type": "bytes32"
        },
        {
          "internalType": "address",
          "name": "controller",
          "type": "address"
        }
      ],
      "name": "unwrap",
      "outputs": [],
      "stateMutability": "nonpayable",
      "type": "function"
    },
    {
      "inputs": [
        {
          "internalType": "bytes32",
          "name": "labelhash",
          "type": "bytes32"
        },
        {
          "internalType": "address",
          "name": "registrant",
          "type": "address"
        },
        {
          "internalType": "address",
          "name": "controller",
          "type": "address"
        }
      ],
      "name": "unwrapETH2LD",
      "outputs": [],
      "stateMutability": "nonpayable",
      "type": "function"
    },
    {
      "inputs": [
        {
          "internalType": "bytes32",
          "name": "parentNode",
          "type": "bytes32"
        },
        {
          "internalType": "string",
          "name": "label",
          "type": "string"
        },
        {
          "internalType": "address",
          "name": "wrappedOwner",
          "type": "address"
        },
        {
          "internalType": "address",
          "name": "resolver",
          "type": "address"
        }
      ],
      "name": "upgrade",
      "outputs": [],
      "stateMutability": "nonpayable",
      "type": "function"
    },
    {
      "inputs": [],
      "name": "upgradeContract",
      "outputs": [
        {
          "internalType": "contract INameWrapperUpgrade",
          "name": "",
          "type": "address"
        }
      ],
      "stateMutability": "view",
      "type": "function"
    },
    {
      "inputs": [
        {
          "internalType": "string",
          "name": "label",
          "type": "string"
        },
        {
          "internalType": "address",
          "name": "wrappedOwner",
          "type": "address"
        },
        {
          "internalType": "address",
          "name": "resolver",
          "type": "address"
        }
      ],
      "name": "upgradeETH2LD",
      "outputs": [],
      "stateMutability": "nonpayable",
      "type": "function"
    },
    {
      "inputs": [
        {
          "internalType": "uint256",
          "name": "tokenId",
          "type": "uint256"
        }
      ],
      "name": "uri",
      "outputs": [
        {
          "internalType": "string",
          "name": "",
          "type": "string"
        }
      ],
      "stateMutability": "view",
      "type": "function"
    },
    {
      "inputs": [
        {
          "internalType": "bytes",
          "name": "name",
          "type": "bytes"
        },
        {
          "internalType": "address",
          "name": "wrappedOwner",
          "type": "address"
        },
        {
          "internalType": "address",
          "name": "resolver",
          "type": "address"
        }
      ],
      "name": "wrap",
      "outputs": [],
      "stateMutability": "nonpayable",
      "type": "function"
    },
    {
      "inputs": [
        {
          "internalType": "string",
          "name": "label",
          "type": "string"
        },
        {
          "internalType": "address",
          "name": "wrappedOwner",
          "type": "address"
        },
        {
          "internalType": "uint16",
          "name": "ownerControlledFuses",
          "type": "uint16"
        },
        {
          "internalType": "address",
          "name": "resolver",
          "type": "address"
        }
      ],
      "name": "wrapETH2LD",
      "outputs": [],
      "stateMutability": "nonpayable",
      "type": "function"
    }
  ],
  "transactionHash": "0xf8ad3ace386bfd2b90683b005fc7f4cf45f7aff5c674b894dc6113c4b0b47e60",
  "args": [
    "0x00000000000C2E074eC69A0dFb2997BA6C7d2e1e",
    "0x57f1887a8BF19b14fC0dF6Fd9B2acc9Af147eA85",
    "0x3848564e209f23351EDD1997c95468e819f47dCa"
  ],
  "numDeployments": 4,
  "solcInputHash": "6f9a02697c272c5ce262ad43f546b7d2",
  "bytecode": "0x60c06040523480156200001157600080fd5b50604051620063b9380380620063b98339810160408190526200003491620001ef565b6200003f3362000186565b6001600160a01b0383811660805282811660a052600480546001600160a01b031916918316919091179055600163fffeffff60a01b03197fafa26c20e8b3d9a2853d642cfe1021dae26242ffedfac91c97aab212c1a4b93b8190557fa6eef7e35abe7026729641147f7915573c7e97b47efa546f5f6e3230263bcb4955604080518082019091526001815260006020808301829052908052600590527f05b8ccbb9d4d8fb16ea74ce3c29a41f1b461fbdaff4714a0d9a8eb05499746bc90620001099082620002e8565b50604080518082019091526005808252626cae8d60e31b6020808401919091527f93cdeb708b7545dc668eb9280176169d1c33cfd8ed6f04690a0bcc88a93fc4ae600052527fd99130487705d6970718a0cee91984b61956f8a1db3482bba7e6bf0131adb01f906200017c9082620002e8565b50505050620003b4565b600080546001600160a01b038381166001600160a01b0319831681178455604051919092169283917f8be0079c531659141344cd1fd0a4f28419497f9722a3daafe3b4186f6b6457e09190a35050565b6001600160a01b0381168114620001ec57600080fd5b50565b6000806000606084860312156200020557600080fd5b83516200021281620001d6565b60208501519093506200022581620001d6565b60408501519092506200023881620001d6565b809150509250925092565b634e487b7160e01b600052604160045260246000fd5b600181811c908216806200026e57607f821691505b6020821081036200028f57634e487b7160e01b600052602260045260246000fd5b50919050565b601f821115620002e357600081815260208120601f850160051c81016020861015620002be5750805b601f850160051c820191505b81811015620002df57828155600101620002ca565b5050505b505050565b81516001600160401b0381111562000304576200030462000243565b6200031c8162000315845462000259565b8462000295565b602080601f8311600181146200035457600084156200033b5750858301515b600019600386901b1c1916600185901b178555620002df565b600085815260208120601f198616915b82811015620003855788860151825594840194600190910190840162000364565b5085821015620003a45787850151600019600388901b60f8161c191681555b5050505050600190811b01905550565b60805160a051615f06620004b3600039600081816104ac01528181610aca01528181610bbd01528181611b9b01528181611c4901528181611d1001528181611e3201528181611ec10152818161213901528181612266015281816123b0015281816125aa0152818161264901526138280152600081816104f901528181610a5001528181610d4c01528181610f1901528181610fe401528181611440015281816122eb01528181612435015281816126f4015281816128eb01528181612a8801528181612fcb015281816130920152818161317401528181613206015281816135ce0152818161390b01528181613a2601526142860152615f066000f3fe608060405234801561001057600080fd5b50600436106102fe5760003560e01c80636e5d6ad21161019c578063cf408823116100ee578063eb8ae53011610097578063f242432a11610071578063f242432a1461077d578063f2fde38b14610790578063fd0cd0d9146107a357600080fd5b8063eb8ae53014610737578063ed70554d1461074a578063ee7eba781461076a57600080fd5b8063e0dba60f116100c8578063e0dba60f146106d5578063e72bf00f146106e8578063e985e9c5146106fb57600080fd5b8063cf4088231461068c578063d8c9921a1461069f578063da8c229e146106b257600080fd5b8063a22cb46511610150578063b6bcad261161012a578063b6bcad2614610653578063c475abff14610666578063c658e0861461067957600080fd5b8063a22cb4651461061a578063a40149821461062d578063adf4960a1461064057600080fd5b80638b4dfa75116101815780638b4dfa75146105e35780638cf8b41e146105f65780638da5cb5b1461060957600080fd5b80636e5d6ad2146105af578063715018a6146105db57600080fd5b806324c1af4411610255578063402906fc1161020957806353095467116101e357806353095467146105765780635d3590d5146105895780636352211e1461059c57600080fd5b8063402906fc1461051b57806341415eab146105435780634e1273f41461055657600080fd5b80632eb2c2d61161023a5780632eb2c2d6146104ce57806333c69ea9146104e15780633f15457f146104f457600080fd5b806324c1af44146104945780632b20e397146104a757600080fd5b806314ab9038116102b75780631896f70a116102915780631896f70a146104435780631f4e15041461045657806320c38e2b1461048157600080fd5b806314ab9038146103ef578063150b7a02146104045780631534e1771461043057600080fd5b806301ffc9a7116102e857806301ffc9a71461037057806306fdde03146103935780630e89341c146103dc57600080fd5b8062fdd58e146103035780630178fe3f14610329575b600080fd5b610316610311366004614cd5565b6107b6565b6040519081526020015b60405180910390f35b61033c610337366004614d01565b610875565b604080516001600160a01b03909416845263ffffffff909216602084015267ffffffffffffffff1690820152606001610320565b61038361037e366004614d30565b6108a5565b6040519015158152602001610320565b6103cf6040518060400160405280600b81526020017f4e616d655772617070657200000000000000000000000000000000000000000081525081565b6040516103209190614d9d565b6103cf6103ea366004614d01565b610917565b6104026103fd366004614dcd565b6109a4565b005b610417610412366004614e42565b610abd565b6040516001600160e01b03199091168152602001610320565b61040261043e366004614eb5565b610c5e565b610402610451366004614ed2565b610ca0565b600654610469906001600160a01b031681565b6040516001600160a01b039091168152602001610320565b6103cf61048f366004614d01565b610d7b565b6103166104a2366004614fdd565b610e15565b6104697f000000000000000000000000000000000000000000000000000000000000000081565b6104026104dc366004615105565b61105b565b6104026104ef3660046151b3565b6113c9565b6104697f000000000000000000000000000000000000000000000000000000000000000081565b61052e61052936600461520b565b6115d7565b60405163ffffffff9091168152602001610320565b610383610551366004614ed2565b61167f565b61056961056436600461522e565b611711565b604051610320919061532c565b600454610469906001600160a01b031681565b61040261059736600461533f565b61184f565b6104696105aa366004614d01565b6118e9565b6105c26105bd366004615380565b6118f4565b60405167ffffffffffffffff9091168152602001610320565b610402611a26565b6104026105f13660046153b5565b611a3a565b6104026106043660046153f7565b611bfd565b6000546001600160a01b0316610469565b610402610628366004615480565b611f74565b61031661063b3660046154ae565b61205e565b61038361064e36600461552f565b6121ff565b610402610661366004614eb5565b612224565b610316610674366004615552565b612494565b610316610687366004615574565b6127b9565b61040261069a3660046155e7565b6129c6565b6104026106ad36600461561f565b612b98565b6103836106c0366004614eb5565b60036020526000908152604090205460ff1681565b6104026106e3366004615480565b612cda565b6104026106f636600461564d565b612d42565b6103836107093660046156b5565b6001600160a01b03918216600090815260026020908152604080832093909416825291909152205460ff1690565b61040261074536600461564d565b612e7e565b610316610758366004614d01565b60016020526000908152604090205481565b6104026107783660046156e3565b6132ad565b61040261078b366004615739565b6133ce565b61040261079e366004614eb5565b613503565b6103836107b1366004614d01565b613590565b60006001600160a01b0383166108395760405162461bcd60e51b815260206004820152602b60248201527f455243313135353a2062616c616e636520717565727920666f7220746865207a60448201527f65726f206164647265737300000000000000000000000000000000000000000060648201526084015b60405180910390fd5b6000610844836118e9565b9050836001600160a01b0316816001600160a01b03160361086957600191505061086f565b60009150505b92915050565b60008181526001602052604090205460a081901c60c082901c610899838383613649565b90959094509092509050565b60006001600160e01b031982167f81b4e24c00000000000000000000000000000000000000000000000000000000148061090857506001600160e01b031982167f150b7a0200000000000000000000000000000000000000000000000000000000145b8061086f575061086f8261369d565b600480546040517f0e89341c0000000000000000000000000000000000000000000000000000000081529182018390526060916001600160a01b0390911690630e89341c90602401600060405180830381865afa15801561097c573d6000803e3d6000fd5b505050506040513d6000823e601f3d908101601f1916820160405261086f91908101906157a2565b816109af813361167f565b6109d55760405163168ab55d60e31b815260048101829052336024820152604401610830565b82601060006109e383610875565b5091505063ffffffff8282161615610a115760405163a2a7201360e01b815260048101849052602401610830565b6040517f14ab90380000000000000000000000000000000000000000000000000000000081526004810187905267ffffffffffffffff861660248201527f00000000000000000000000000000000000000000000000000000000000000006001600160a01b0316906314ab9038906044015b600060405180830381600087803b158015610a9d57600080fd5b505af1158015610ab1573d6000803e3d6000fd5b50505050505050505050565b6000336001600160a01b037f00000000000000000000000000000000000000000000000000000000000000001614610b21576040517f1931a53800000000000000000000000000000000000000000000000000000000815260040160405180910390fd5b6000808080610b328688018861581a565b83516020850120939750919550935091508890808214610b88576040517fc65c3ccc0000000000000000000000000000000000000000000000000000000081526004810182905260248101839052604401610830565b6040517f28ed4f6c000000000000000000000000000000000000000000000000000000008152600481018390523060248201527f00000000000000000000000000000000000000000000000000000000000000006001600160a01b0316906328ed4f6c90604401600060405180830381600087803b158015610c0957600080fd5b505af1158015610c1d573d6000803e3d6000fd5b50505050610c2d86868686613738565b507f150b7a02000000000000000000000000000000000000000000000000000000009b9a5050505050505050505050565b610c66613971565b600480547fffffffffffffffffffffffff0000000000000000000000000000000000000000166001600160a01b0392909216919091179055565b81610cab813361167f565b610cd15760405163168ab55d60e31b815260048101829052336024820152604401610830565b8260086000610cdf83610875565b5091505063ffffffff8282161615610d0d5760405163a2a7201360e01b815260048101849052602401610830565b6040517f1896f70a000000000000000000000000000000000000000000000000000000008152600481018790526001600160a01b0386811660248301527f00000000000000000000000000000000000000000000000000000000000000001690631896f70a90604401610a83565b60056020526000908152604090208054610d9490615882565b80601f0160208091040260200160405190810160405280929190818152602001828054610dc090615882565b8015610e0d5780601f10610de257610100808354040283529160200191610e0d565b820191906000526020600020905b815481529060010190602001808311610df057829003601f168201915b505050505081565b600087610e22813361167f565b610e485760405163168ab55d60e31b815260048101829052336024820152604401610830565b87516020890120610e808a82604080516020808201949094528082019290925280518083038201815260609092019052805191012090565b9250610e8c8a846139cb565b610e968386613b0a565b610ea18a848b613b3d565b50610eae8a848787613c0a565b9350610eb983613590565b610f88576040517f5ef2c7f0000000000000000000000000000000000000000000000000000000008152600481018b9052602481018290523060448201526001600160a01b03888116606483015267ffffffffffffffff881660848301527f00000000000000000000000000000000000000000000000000000000000000001690635ef2c7f09060a401600060405180830381600087803b158015610f5d57600080fd5b505af1158015610f71573d6000803e3d6000fd5b50505050610f838a848b8b8989613c50565b61104e565b6040517f5ef2c7f0000000000000000000000000000000000000000000000000000000008152600481018b9052602481018290523060448201526001600160a01b03888116606483015267ffffffffffffffff881660848301527f00000000000000000000000000000000000000000000000000000000000000001690635ef2c7f09060a401600060405180830381600087803b15801561102857600080fd5b505af115801561103c573d6000803e3d6000fd5b5050505061104e8a848b8b8989613c7e565b5050979650505050505050565b81518351146110d25760405162461bcd60e51b815260206004820152602860248201527f455243313135353a2069647320616e6420616d6f756e7473206c656e6774682060448201527f6d69736d617463680000000000000000000000000000000000000000000000006064820152608401610830565b6001600160a01b03841661114e5760405162461bcd60e51b815260206004820152602560248201527f455243313135353a207472616e7366657220746f20746865207a65726f20616460448201527f64726573730000000000000000000000000000000000000000000000000000006064820152608401610830565b6001600160a01b03851633148061118857506001600160a01b038516600090815260026020908152604080832033845290915290205460ff165b6111fa5760405162461bcd60e51b815260206004820152603260248201527f455243313135353a207472616e736665722063616c6c6572206973206e6f742060448201527f6f776e6572206e6f7220617070726f76656400000000000000000000000000006064820152608401610830565b60005b835181101561135c57600084828151811061121a5761121a6158bc565b602002602001015190506000848381518110611238576112386158bc565b60200260200101519050600080600061125085610875565b925092509250611261858383613d42565b5083600114801561128357508a6001600160a01b0316836001600160a01b0316145b6112f55760405162461bcd60e51b815260206004820152602a60248201527f455243313135353a20696e73756666696369656e742062616c616e636520666f60448201527f72207472616e73666572000000000000000000000000000000000000000000006064820152608401610830565b60008581526001602052604090206001600160a01b038b1663ffffffff60a01b60a085901b16177fffffffffffffffff00000000000000000000000000000000000000000000000060c084901b16179055505050505080611355906158e8565b90506111fd565b50836001600160a01b0316856001600160a01b0316336001600160a01b03167f4a39dc06d4c0dbc64b70af90fd698a233a518aa5d07e595d983b8c0526c8f7fb86866040516113ac929190615902565b60405180910390a46113c2338686868686613e19565b5050505050565b604080516020808201879052818301869052825180830384018152606090920190925280519101206113fb8184613b0a565b6000808061140884610875565b919450925090506001600160a01b03831615806114b757506040516302571be360e01b81526004810185905230906001600160a01b037f000000000000000000000000000000000000000000000000000000000000000016906302571be390602401602060405180830381865afa158015611487573d6000803e3d6000fd5b505050506040513d601f19601f820116820180604052508101906114ab9190615930565b6001600160a01b031614155b156114ee576040517f5374b59900000000000000000000000000000000000000000000000000000000815260040160405180910390fd5b6000806114fa8a610875565b90935091508a905061153b57611510863361167f565b6115365760405163168ab55d60e31b815260048101879052336024820152604401610830565b61156b565b6115458a3361167f565b61156b5760405163168ab55d60e31b815260048101879052336024820152604401610830565b611576868984614005565b611581878483614040565b9650620100008416158015906115a557508363ffffffff1688851763ffffffff1614155b156115c65760405163a2a7201360e01b815260048101879052602401610830565b96831796610ab186868a868b61408a565b6000826115e4813361167f565b61160a5760405163168ab55d60e31b815260048101829052336024820152604401610830565b836002600061161883610875565b5091505063ffffffff82821616156116465760405163a2a7201360e01b815260048101849052602401610830565b600080806116538a610875565b92509250925061166c8a84848c61ffff1617848561408a565b505061ffff909616979650505050505050565b600080808061168d86610875565b925092509250846001600160a01b0316836001600160a01b031614806116d857506001600160a01b0380841660009081526002602090815260408083209389168352929052205460ff165b8015611707575062020000821615806117075750426116fa6276a7008361594d565b67ffffffffffffffff1610155b9695505050505050565b6060815183511461178a5760405162461bcd60e51b815260206004820152602960248201527f455243313135353a206163636f756e747320616e6420696473206c656e67746860448201527f206d69736d6174636800000000000000000000000000000000000000000000006064820152608401610830565b6000835167ffffffffffffffff8111156117a6576117a6614f02565b6040519080825280602002602001820160405280156117cf578160200160208202803683370190505b50905060005b84518110156118475761181a8582815181106117f3576117f36158bc565b602002602001015185838151811061180d5761180d6158bc565b60200260200101516107b6565b82828151811061182c5761182c6158bc565b6020908102919091010152611840816158e8565b90506117d5565b509392505050565b611857613971565b6040517fa9059cbb0000000000000000000000000000000000000000000000000000000081526001600160a01b0383811660048301526024820183905284169063a9059cbb906044016020604051808303816000875af11580156118bf573d6000803e3d6000fd5b505050506040513d601f19601f820116820180604052508101906118e39190615975565b50505050565b600061086f82614134565b60408051602080820186905281830185905282518083038401815260609092019092528051910120600090600061192b863361167f565b9050801580156119425750611940823361167f565b155b156119695760405163168ab55d60e31b815260048101839052336024820152604401610830565b6000808061197685610875565b9250925092508315801561198d5750620400008216155b156119ae5760405163a2a7201360e01b815260048101869052602401610830565b60006119b98a610875565b925050506119c8888383614040565b97506119d68685858b61414a565b60405167ffffffffffffffff8916815286907ff675815a0817338f93a7da433f6bd5f5542f1029b11b455191ac96c7f6a9b1329060200160405180910390a28796505050505050505b9392505050565b611a2e613971565b611a3860006141aa565b565b604080517f93cdeb708b7545dc668eb9280176169d1c33cfd8ed6f04690a0bcc88a93fc4ae60208083019190915281830186905282518083038401815260609092019092528051910120611a8e813361167f565b611ab45760405163168ab55d60e31b815260048101829052336024820152604401610830565b306001600160a01b03841603611b01576040517f5949361a0000000000000000000000000000000000000000000000000000000081526001600160a01b0384166004820152602401610830565b604080517f93cdeb708b7545dc668eb9280176169d1c33cfd8ed6f04690a0bcc88a93fc4ae60208083019190915281830187905282518083038401815260609092019092528051910120611b56905b83614212565b6040517f42842e0e0000000000000000000000000000000000000000000000000000000081523060048201526001600160a01b038481166024830152604482018690527f000000000000000000000000000000000000000000000000000000000000000016906342842e0e90606401600060405180830381600087803b158015611bdf57600080fd5b505af1158015611bf3573d6000803e3d6000fd5b5050505050505050565b60008585604051611c0f929190615992565b6040519081900381207f6352211e0000000000000000000000000000000000000000000000000000000082526004820181905291506000907f00000000000000000000000000000000000000000000000000000000000000006001600160a01b031690636352211e90602401602060405180830381865afa158015611c98573d6000803e3d6000fd5b505050506040513d601f19601f82011682018060405250810190611cbc9190615930565b90506001600160a01b0381163314801590611d7d57506040517fe985e9c50000000000000000000000000000000000000000000000000000000081526001600160a01b0382811660048301523360248301527f0000000000000000000000000000000000000000000000000000000000000000169063e985e9c590604401602060405180830381865afa158015611d57573d6000803e3d6000fd5b505050506040513d601f19601f82011682018060405250810190611d7b9190615975565b155b15611ded57604080517f93cdeb708b7545dc668eb9280176169d1c33cfd8ed6f04690a0bcc88a93fc4ae6020808301919091528183018590528251808303840181526060830193849052805191012063168ab55d60e31b909252606481019190915233608482015260a401610830565b6040517f23b872dd0000000000000000000000000000000000000000000000000000000081526001600160a01b038281166004830152306024830152604482018490527f000000000000000000000000000000000000000000000000000000000000000016906323b872dd90606401600060405180830381600087803b158015611e7657600080fd5b505af1158015611e8a573d6000803e3d6000fd5b50506040517f28ed4f6c000000000000000000000000000000000000000000000000000000008152600481018590523060248201527f00000000000000000000000000000000000000000000000000000000000000006001600160a01b031692506328ed4f6c9150604401600060405180830381600087803b158015611f0f57600080fd5b505af1158015611f23573d6000803e3d6000fd5b50505050611f6b87878080601f016020809104026020016040519081016040528093929190818152602001838380828437600092019190915250899250889150879050613738565b50505050505050565b6001600160a01b0382163303611ff25760405162461bcd60e51b815260206004820152602960248201527f455243313135353a2073657474696e6720617070726f76616c2073746174757360448201527f20666f722073656c6600000000000000000000000000000000000000000000006064820152608401610830565b3360008181526002602090815260408083206001600160a01b03871680855290835292819020805460ff191686151590811790915590519081529192917f17307eab39ab6107e8899845ad3d59bd9653f200f220920489ca2b5937696c31910160405180910390a35050565b3360009081526003602052604081205460ff166120e35760405162461bcd60e51b815260206004820152602860248201527f436f6e74726f6c6c61626c653a2043616c6c6572206973206e6f74206120636f60448201527f6e74726f6c6c65720000000000000000000000000000000000000000000000006064820152608401610830565b600087876040516120f5929190615992565b6040519081900381207ffca247ac000000000000000000000000000000000000000000000000000000008252600482018190523060248301526044820187905291507f00000000000000000000000000000000000000000000000000000000000000006001600160a01b03169063fca247ac906064016020604051808303816000875af115801561218a573d6000803e3d6000fd5b505050506040513d601f19601f820116820180604052508101906121ae91906159a2565b91506121f488888080601f0160208091040260200160405190810160405280939291908181526020018383808284376000920191909152508a9250879150889050613738565b509695505050505050565b60008061220b84610875565b50841663ffffffff908116908516149250505092915050565b61222c613971565b6006546001600160a01b03161561234c5760065460405163a22cb46560e01b81526001600160a01b039182166004820152600060248201527f00000000000000000000000000000000000000000000000000000000000000009091169063a22cb46590604401600060405180830381600087803b1580156122ac57600080fd5b505af11580156122c0573d6000803e3d6000fd5b505060065460405163a22cb46560e01b81526001600160a01b039182166004820152600060248201527f0000000000000000000000000000000000000000000000000000000000000000909116925063a22cb4659150604401600060405180830381600087803b15801561233357600080fd5b505af1158015612347573d6000803e3d6000fd5b505050505b600680547fffffffffffffffffffffffff0000000000000000000000000000000000000000166001600160a01b038316908117909155156124915760065460405163a22cb46560e01b81526001600160a01b039182166004820152600160248201527f00000000000000000000000000000000000000000000000000000000000000009091169063a22cb46590604401600060405180830381600087803b1580156123f657600080fd5b505af115801561240a573d6000803e3d6000fd5b505060065460405163a22cb46560e01b81526001600160a01b039182166004820152600160248201527f0000000000000000000000000000000000000000000000000000000000000000909116925063a22cb4659150604401600060405180830381600087803b15801561247d57600080fd5b505af11580156113c2573d6000803e3d6000fd5b50565b3360009081526003602052604081205460ff166125195760405162461bcd60e51b815260206004820152602860248201527f436f6e74726f6c6c61626c653a2043616c6c6572206973206e6f74206120636f60448201527f6e74726f6c6c65720000000000000000000000000000000000000000000000006064820152608401610830565b604080517f93cdeb708b7545dc668eb9280176169d1c33cfd8ed6f04690a0bcc88a93fc4ae602080830191909152818301869052825180830384018152606090920190925280519101206000906040517fc475abff00000000000000000000000000000000000000000000000000000000815260048101869052602481018590529091506000906001600160a01b037f0000000000000000000000000000000000000000000000000000000000000000169063c475abff906044016020604051808303816000875af11580156125f3573d6000803e3d6000fd5b505050506040513d601f19601f8201168201806040525081019061261791906159a2565b6040517f6352211e000000000000000000000000000000000000000000000000000000008152600481018790529091507f00000000000000000000000000000000000000000000000000000000000000006001600160a01b031690636352211e90602401602060405180830381865afa9250505080156126b4575060408051601f3d908101601f191682019092526126b191810190615930565b60015b6126c157915061086f9050565b6001600160a01b0381163014158061276b57506040516302571be360e01b81526004810184905230906001600160a01b037f000000000000000000000000000000000000000000000000000000000000000016906302571be390602401602060405180830381865afa15801561273b573d6000803e3d6000fd5b505050506040513d601f19601f8201168201806040525081019061275f9190615930565b6001600160a01b031614155b1561277a5750915061086f9050565b50600061278a6276a700836159bb565b60008481526001602052604090205490915060a081901c6127ad8583838661414a565b50919695505050505050565b6000866127c6813361167f565b6127ec5760405163168ab55d60e31b815260048101829052336024820152604401610830565b600087876040516127fe929190615992565b604051809103902090506128398982604080516020808201949094528082019290925280518083038201815260609092019052805191012090565b925061284589846139cb565b61284f8386613b0a565b60006128928a858b8b8080601f016020809104026020016040519081016040528093929190818152602001838380828437600092019190915250613b3d92505050565b90506128a08a858888613c0a565b94506128ab84613590565b612973576040517f06ab5923000000000000000000000000000000000000000000000000000000008152600481018b9052602481018390523060448201527f00000000000000000000000000000000000000000000000000000000000000006001600160a01b0316906306ab5923906064016020604051808303816000875af115801561293c573d6000803e3d6000fd5b505050506040513d601f19601f8201168201806040525081019061296091906159a2565b5061296e848289898961431d565b6129b9565b6129b98a858b8b8080601f0160208091040260200160405190810160405280939291908181526020018383808284376000920191909152508d92508c91508b9050613c7e565b5050509695505050505050565b836129d1813361167f565b6129f75760405163168ab55d60e31b815260048101829052336024820152604401610830565b84601c6000612a0583610875565b5091505063ffffffff8282161615612a335760405163a2a7201360e01b815260048101849052602401610830565b6040517fcf408823000000000000000000000000000000000000000000000000000000008152600481018990523060248201526001600160a01b03878116604483015267ffffffffffffffff871660648301527f0000000000000000000000000000000000000000000000000000000000000000169063cf40882390608401600060405180830381600087803b158015612acc57600080fd5b505af1158015612ae0573d6000803e3d6000fd5b5050506001600160a01b0388169050612b60576000612afe89610875565b509150506201ffff1962020000821601612b4f576040517f5949361a0000000000000000000000000000000000000000000000000000000081526001600160a01b0389166004820152602401610830565b612b5a896000614212565b50611bf3565b6000612b6b896118e9565b9050612b8d81898b60001c60016040518060200160405280600081525061435f565b505050505050505050565b60408051602080820186905281830185905282518083038401815260609092019092528051910120612bca813361167f565b612bf05760405163168ab55d60e31b815260048101829052336024820152604401610830565b7f6c32148f748aba23997146d7fe89e962e3cc30271290fb96f5f4337756c03b528401612c49576040517f615a470300000000000000000000000000000000000000000000000000000000815260040160405180910390fd5b6001600160a01b0382161580612c6757506001600160a01b03821630145b15612ca9576040517f5949361a0000000000000000000000000000000000000000000000000000000081526001600160a01b0383166004820152602401610830565b604080516020808201879052818301869052825180830384018152606090920190925280519101206118e390611b50565b612ce2613971565b6001600160a01b038216600081815260036020908152604091829020805460ff191685151590811790915591519182527f4c97694570a07277810af7e5669ffd5f6a2d6b74b6e9a274b8b870fd5114cf8791015b60405180910390a25050565b60008484604051612d54929190615992565b60405190819003902090506000612db27f93cdeb708b7545dc668eb9280176169d1c33cfd8ed6f04690a0bcc88a93fc4ae83604080516020808201949094528082019290925280518083038201815260609092019052805191012090565b90506000806000612dc2846144dd565b925092509250826001600160a01b0316876001600160a01b031614612dee57612dec848383613d42565b505b6006546040517ff9547a9e0000000000000000000000000000000000000000000000000000000081526001600160a01b039091169063f9547a9e90612e41908c908c908c90889088908e90600401615a07565b600060405180830381600087803b158015612e5b57600080fd5b505af1158015612e6f573d6000803e3d6000fd5b50505050505050505050505050565b600080612ec5600087878080601f01602080910402602001604051908101604052809392919081815260200183838082843760009201919091525092939250506145769050565b915091506000612f0e8288888080601f016020809104026020016040519081016040528093929190818152602001838380828437600092019190915250929392505061462d9050565b604080516020808201849052818301879052825180830384018152606090920190925280519101209091506000906000818152600560205260409020909150612f58888a83615aa8565b507f6c32148f748aba23997146d7fe89e962e3cc30271290fb96f5f4337756c03b528201612fb2576040517f615a470300000000000000000000000000000000000000000000000000000000815260040160405180910390fd5b6040516302571be360e01b8152600481018290526000907f00000000000000000000000000000000000000000000000000000000000000006001600160a01b0316906302571be390602401602060405180830381865afa15801561301a573d6000803e3d6000fd5b505050506040513d601f19601f8201168201806040525081019061303e9190615930565b90506001600160a01b03811633148015906130ff57506040517fe985e9c50000000000000000000000000000000000000000000000000000000081526001600160a01b0382811660048301523360248301527f0000000000000000000000000000000000000000000000000000000000000000169063e985e9c590604401602060405180830381865afa1580156130d9573d6000803e3d6000fd5b505050506040513d601f19601f820116820180604052508101906130fd9190615975565b155b156131265760405163168ab55d60e31b815260048101839052336024820152604401610830565b6001600160a01b038616156131d1576040517f1896f70a000000000000000000000000000000000000000000000000000000008152600481018390526001600160a01b0387811660248301527f00000000000000000000000000000000000000000000000000000000000000001690631896f70a90604401600060405180830381600087803b1580156131b857600080fd5b505af11580156131cc573d6000803e3d6000fd5b505050505b6040517f5b0fc9c3000000000000000000000000000000000000000000000000000000008152600481018390523060248201527f00000000000000000000000000000000000000000000000000000000000000006001600160a01b031690635b0fc9c390604401600060405180830381600087803b15801561325257600080fd5b505af1158015613266573d6000803e3d6000fd5b50505050612b8d828a8a8080601f01602080910402602001604051908101604052809392919081815260200183838082843760009201829052508d9350915081905061431d565b600084846040516132bf929190615992565b6040518091039020905060006132fc8783604080516020808201949094528082019290925280518083038201815260609092019052805191012090565b9050600080600061330c846144dd565b925092509250826001600160a01b0316876001600160a01b03161461333857613336848383613d42565b505b6006546040517f24c1af440000000000000000000000000000000000000000000000000000000081526001600160a01b03909116906324c1af4490613390908d908d908d908d908d906000908b908b90600401615b68565b600060405180830381600087803b1580156133aa57600080fd5b505af11580156133be573d6000803e3d6000fd5b5050505050505050505050505050565b6001600160a01b03841661344a5760405162461bcd60e51b815260206004820152602560248201527f455243313135353a207472616e7366657220746f20746865207a65726f20616460448201527f64726573730000000000000000000000000000000000000000000000000000006064820152608401610830565b6001600160a01b03851633148061348457506001600160a01b038516600090815260026020908152604080832033845290915290205460ff165b6134f65760405162461bcd60e51b815260206004820152602960248201527f455243313135353a2063616c6c6572206973206e6f74206f776e6572206e6f7260448201527f20617070726f76656400000000000000000000000000000000000000000000006064820152608401610830565b6113c2858585858561435f565b61350b613971565b6001600160a01b0381166135875760405162461bcd60e51b815260206004820152602660248201527f4f776e61626c653a206e6577206f776e657220697320746865207a65726f206160448201527f64647265737300000000000000000000000000000000000000000000000000006064820152608401610830565b612491816141aa565b60008061359c836118e9565b6001600160a01b03161415801561086f57506040516302571be360e01b81526004810183905230906001600160a01b037f000000000000000000000000000000000000000000000000000000000000000016906302571be390602401602060405180830381865afa158015613615573d6000803e3d6000fd5b505050506040513d601f19601f820116820180604052508101906136399190615930565b6001600160a01b03161492915050565b600080428367ffffffffffffffff161015613694577fffffffffffffffffffffffffffffffffffffffffffffffffffffffffffff00006201000085160161368f57600094505b600093505b50929391925050565b60006001600160e01b031982167fd9b67a2600000000000000000000000000000000000000000000000000000000148061370057506001600160e01b031982167f0e89341c00000000000000000000000000000000000000000000000000000000145b8061086f57507f01ffc9a7000000000000000000000000000000000000000000000000000000006001600160e01b031983161461086f565b8351602085012060006137927f93cdeb708b7545dc668eb9280176169d1c33cfd8ed6f04690a0bcc88a93fc4ae83604080516020808201949094528082019290925280518083038201815260609092019052805191012090565b905060006137d5876040518060400160405280600581526020017f03657468000000000000000000000000000000000000000000000000000000008152506146ec565b60008381526005602052604090209091506137f08282615bcb565b506040517fd6e4fa86000000000000000000000000000000000000000000000000000000008152600481018490526000906276a700907f00000000000000000000000000000000000000000000000000000000000000006001600160a01b03169063d6e4fa8690602401602060405180830381865afa158015613877573d6000803e3d6000fd5b505050506040513d601f19601f8201168201806040525081019061389b91906159a2565b6138a591906159bb565b90506138bd8383896203000061ffff8b16178561431d565b6001600160a01b03851615611bf3576040517f1896f70a000000000000000000000000000000000000000000000000000000008152600481018490526001600160a01b0386811660248301527f00000000000000000000000000000000000000000000000000000000000000001690631896f70a90604401600060405180830381600087803b15801561394f57600080fd5b505af1158015613963573d6000803e3d6000fd5b505050505050505050505050565b6000546001600160a01b03163314611a385760405162461bcd60e51b815260206004820181905260248201527f4f776e61626c653a2063616c6c6572206973206e6f7420746865206f776e65726044820152606401610830565b600080806139d884610875565b919450925090504267ffffffffffffffff821610808015613a9c57506001600160a01b0384161580613a9c57506040516302571be360e01b8152600481018690526000906001600160a01b037f000000000000000000000000000000000000000000000000000000000000000016906302571be390602401602060405180830381865afa158015613a6d573d6000803e3d6000fd5b505050506040513d601f19601f82011682018060405250810190613a919190615930565b6001600160a01b0316145b15613adb576000613aac87610875565b509150506020811615613ad55760405163a2a7201360e01b815260048101879052602401610830565b50613b02565b62010000831615613b025760405163a2a7201360e01b815260048101869052602401610830565b505050505050565b63fffdffff81811763ffffffff1614613b395760405163a2a7201360e01b815260048101839052602401610830565b5050565b60606000613be683600560008881526020019081526020016000208054613b6390615882565b80601f0160208091040260200160405190810160405280929190818152602001828054613b8f90615882565b8015613bdc5780601f10613bb157610100808354040283529160200191613bdc565b820191906000526020600020905b815481529060010190602001808311613bbf57829003601f168201915b50505050506146ec565b6000858152600560205260409020909150613c018282615bcb565b50949350505050565b600080613c1685610875565b92505050600080613c298860001c610875565b9250925050613c39878784614005565b613c44858483614040565b98975050505050505050565b60008681526005602052604081208054613c6f918791613b6390615882565b9050611f6b868286868661431d565b60008080613c8b88610875565b9250925092506000613cb588600560008d81526020019081526020016000208054613b6390615882565b60008a8152600560205260409020805491925090613cd290615882565b9050600003613cf5576000898152600560205260409020613cf38282615bcb565b505b613d048985888617858961408a565b6001600160a01b038716613d2257613d1d896000614212565b610ab1565b610ab184888b60001c60016040518060200160405280600081525061435f565b60006201ffff1962020000841601613d6457613d616276a7008361594d565b91505b428267ffffffffffffffff161015613df45762010000831615613def5760405162461bcd60e51b815260206004820152602a60248201527f455243313135353a20696e73756666696369656e742062616c616e636520666f60448201527f72207472616e73666572000000000000000000000000000000000000000000006064820152608401610830565b611a1f565b6004831615611a1f5760405163a2a7201360e01b815260048101859052602401610830565b6001600160a01b0384163b15613b02576040517fbc197c810000000000000000000000000000000000000000000000000000000081526001600160a01b0385169063bc197c8190613e769089908990889088908890600401615c8b565b6020604051808303816000875af1925050508015613eb1575060408051601f3d908101601f19168201909252613eae91810190615cdd565b60015b613f6657613ebd615cfa565b806308c379a003613ef65750613ed1615d16565b80613edc5750613ef8565b8060405162461bcd60e51b81526004016108309190614d9d565b505b60405162461bcd60e51b815260206004820152603460248201527f455243313135353a207472616e7366657220746f206e6f6e204552433131353560448201527f526563656976657220696d706c656d656e7465720000000000000000000000006064820152608401610830565b6001600160e01b031981167fbc197c810000000000000000000000000000000000000000000000000000000014611f6b5760405162461bcd60e51b815260206004820152602860248201527f455243313135353a204552433131353552656365697665722072656a6563746560448201527f6420746f6b656e730000000000000000000000000000000000000000000000006064820152608401610830565b63ffff0000821615801590600183161590829061401f5750805b156113c25760405163a2a7201360e01b815260048101869052602401610830565b60008167ffffffffffffffff168467ffffffffffffffff161115614062578193505b8267ffffffffffffffff168467ffffffffffffffff161015614082578293505b509192915050565b6140968585858461414a565b60405163ffffffff8416815285907f39873f00c80f4f94b7bd1594aebcf650f003545b74824d57ddf4939e3ff3a34b9060200160405180910390a28167ffffffffffffffff168167ffffffffffffffff1611156113c25760405167ffffffffffffffff8216815285907ff675815a0817338f93a7da433f6bd5f5542f1029b11b455191ac96c7f6a9b132906020015b60405180910390a25050505050565b60008061414083610875565b5090949350505050565b6141548483614795565b60008481526001602052604090206001600160a01b03841663ffffffff60a01b60a085901b16177fffffffffffffffff00000000000000000000000000000000000000000000000060c084901b161790556118e3565b600080546001600160a01b038381167fffffffffffffffffffffffff0000000000000000000000000000000000000000831681178455604051919092169283917f8be0079c531659141344cd1fd0a4f28419497f9722a3daafe3b4186f6b6457e09190a35050565b61421d8260016121ff565b1561423e5760405163a2a7201360e01b815260048101839052602401610830565b614247826147ce565b6040517f5b0fc9c3000000000000000000000000000000000000000000000000000000008152600481018390526001600160a01b0382811660248301527f00000000000000000000000000000000000000000000000000000000000000001690635b0fc9c390604401600060405180830381600087803b1580156142ca57600080fd5b505af11580156142de573d6000803e3d6000fd5b50506040516001600160a01b03841681528492507fee2ba1195c65bcf218a83d874335c6bf9d9067b4c672f3c3bf16cf40de7586c49150602001612d36565b61432985848484614890565b847f8ce7013e8abebc55c3890a68f5a27c67c3f7efa64e584de5fb22363c606fd340858585856040516141259493929190615dbe565b600080600061436d86610875565b92509250925061437e868383613d42565b508460011480156143a05750876001600160a01b0316836001600160a01b0316145b6144125760405162461bcd60e51b815260206004820152602a60248201527f455243313135353a20696e73756666696369656e742062616c616e636520666f60448201527f72207472616e73666572000000000000000000000000000000000000000000006064820152608401610830565b866001600160a01b0316836001600160a01b031603614433575050506113c2565b60008681526001602052604090206001600160a01b03881663ffffffff60a01b60a085901b16177fffffffffffffffff00000000000000000000000000000000000000000000000060c084901b1617905560408051878152602081018790526001600160a01b03808a1692908b169133917fc3d58168c5ae7397731d063d5bbf3d657854427343f4c083240f7aacaa2d0f62910160405180910390a4611bf3338989898989614904565b600654600090819081906001600160a01b0316614526576040517f24c1d6d400000000000000000000000000000000000000000000000000000000815260040160405180910390fd5b614530843361167f565b6145565760405163168ab55d60e31b815260048101859052336024820152604401610830565b61455f84610875565b9194509250905061456f846147ce565b9193909250565b600080835183106145c95760405162461bcd60e51b815260206004820152601e60248201527f726561644c6162656c3a20496e646578206f7574206f6620626f756e647300006044820152606401610830565b60008484815181106145dd576145dd6158bc565b016020015160f81c9050801561460957614602856145fc866001615e06565b83614a47565b925061460e565b600092505b6146188185615e06565b614623906001615e06565b9150509250929050565b600080600061463c8585614576565b9092509050816146ae57600185516146549190615e19565b84146146a25760405162461bcd60e51b815260206004820152601d60248201527f6e616d65686173683a204a756e6b20617420656e64206f66206e616d650000006044820152606401610830565b506000915061086f9050565b6146b8858261462d565b6040805160208101929092528101839052606001604051602081830303815290604052805190602001209250505092915050565b606060018351101561472a576040517f280dacb600000000000000000000000000000000000000000000000000000000815260040160405180910390fd5b60ff8351111561476857826040517fe3ba295f0000000000000000000000000000000000000000000000000000000081526004016108309190614d9d565b8251838360405160200161477e93929190615e2c565b604051602081830303815290604052905092915050565b61ffff8116158015906147ad57506201000181811614155b15613b395760405163a2a7201360e01b815260048101839052602401610830565b60008181526001602052604090205460a081901c60c082901c6147f2838383613649565b600086815260016020526040902063ffffffff60a01b60a083901b167fffffffffffffffff00000000000000000000000000000000000000000000000060c086901b1617905592506148419050565b60408051858152600160208201526000916001600160a01b0386169133917fc3d58168c5ae7397731d063d5bbf3d657854427343f4c083240f7aacaa2d0f62910160405180910390a450505050565b61489a8483614795565b6000848152600160205260409020546001600160a01b038116156148f8576148c1856147ce565b6040516000815285907fee2ba1195c65bcf218a83d874335c6bf9d9067b4c672f3c3bf16cf40de7586c49060200160405180910390a25b6113c285858585614a6b565b6001600160a01b0384163b15613b02576040517ff23a6e610000000000000000000000000000000000000000000000000000000081526001600160a01b0385169063f23a6e61906149619089908990889088908890600401615e8d565b6020604051808303816000875af192505050801561499c575060408051601f3d908101601f1916820190925261499991810190615cdd565b60015b6149a857613ebd615cfa565b6001600160e01b031981167ff23a6e610000000000000000000000000000000000000000000000000000000014611f6b5760405162461bcd60e51b815260206004820152602860248201527f455243313135353a204552433131353552656365697665722072656a6563746560448201527f6420746f6b656e730000000000000000000000000000000000000000000000006064820152608401610830565b8251600090614a568385615e06565b1115614a6157600080fd5b5091016020012090565b8360008080614a7984610875565b9194509250905063ffff0000821667ffffffffffffffff8087169083161115614aa0578195505b428267ffffffffffffffff1610614ab657958617955b6001600160a01b03841615614b0d5760405162461bcd60e51b815260206004820152601f60248201527f455243313135353a206d696e74206f66206578697374696e6720746f6b656e006044820152606401610830565b6001600160a01b038816614b895760405162461bcd60e51b815260206004820152602160248201527f455243313135353a206d696e7420746f20746865207a65726f2061646472657360448201527f73000000000000000000000000000000000000000000000000000000000000006064820152608401610830565b306001600160a01b03891603614c075760405162461bcd60e51b815260206004820152603460248201527f455243313135353a206e65774f776e65722063616e6e6f74206265207468652060448201527f4e616d655772617070657220636f6e74726163740000000000000000000000006064820152608401610830565b60008581526001602052604090206001600160a01b03891663ffffffff60a01b60a08a901b16177fffffffffffffffff00000000000000000000000000000000000000000000000060c089901b1617905560408051868152600160208201526001600160a01b038a169160009133917fc3d58168c5ae7397731d063d5bbf3d657854427343f4c083240f7aacaa2d0f62910160405180910390a4612b8d3360008a88600160405180602001604052806000815250614904565b6001600160a01b038116811461249157600080fd5b60008060408385031215614ce857600080fd5b8235614cf381614cc0565b946020939093013593505050565b600060208284031215614d1357600080fd5b5035919050565b6001600160e01b03198116811461249157600080fd5b600060208284031215614d4257600080fd5b8135611a1f81614d1a565b60005b83811015614d68578181015183820152602001614d50565b50506000910152565b60008151808452614d89816020860160208601614d4d565b601f01601f19169290920160200192915050565b602081526000611a1f6020830184614d71565b803567ffffffffffffffff81168114614dc857600080fd5b919050565b60008060408385031215614de057600080fd5b82359150614df060208401614db0565b90509250929050565b60008083601f840112614e0b57600080fd5b50813567ffffffffffffffff811115614e2357600080fd5b602083019150836020828501011115614e3b57600080fd5b9250929050565b600080600080600060808688031215614e5a57600080fd5b8535614e6581614cc0565b94506020860135614e7581614cc0565b935060408601359250606086013567ffffffffffffffff811115614e9857600080fd5b614ea488828901614df9565b969995985093965092949392505050565b600060208284031215614ec757600080fd5b8135611a1f81614cc0565b60008060408385031215614ee557600080fd5b823591506020830135614ef781614cc0565b809150509250929050565b634e487b7160e01b600052604160045260246000fd5b601f19601f830116810181811067ffffffffffffffff82111715614f3e57614f3e614f02565b6040525050565b600067ffffffffffffffff821115614f5f57614f5f614f02565b50601f01601f191660200190565b600082601f830112614f7e57600080fd5b8135614f8981614f45565b604051614f968282614f18565b828152856020848701011115614fab57600080fd5b82602086016020830137600092810160200192909252509392505050565b803563ffffffff81168114614dc857600080fd5b600080600080600080600060e0888a031215614ff857600080fd5b87359650602088013567ffffffffffffffff81111561501657600080fd5b6150228a828b01614f6d565b965050604088013561503381614cc0565b9450606088013561504381614cc0565b935061505160808901614db0565b925061505f60a08901614fc9565b915061506d60c08901614db0565b905092959891949750929550565b600067ffffffffffffffff82111561509557615095614f02565b5060051b60200190565b600082601f8301126150b057600080fd5b813560206150bd8261507b565b6040516150ca8282614f18565b83815260059390931b85018201928281019150868411156150ea57600080fd5b8286015b848110156121f457803583529183019183016150ee565b600080600080600060a0868803121561511d57600080fd5b853561512881614cc0565b9450602086013561513881614cc0565b9350604086013567ffffffffffffffff8082111561515557600080fd5b61516189838a0161509f565b9450606088013591508082111561517757600080fd5b61518389838a0161509f565b9350608088013591508082111561519957600080fd5b506151a688828901614f6d565b9150509295509295909350565b600080600080608085870312156151c957600080fd5b84359350602085013592506151e060408601614fc9565b91506151ee60608601614db0565b905092959194509250565b803561ffff81168114614dc857600080fd5b6000806040838503121561521e57600080fd5b82359150614df0602084016151f9565b6000806040838503121561524157600080fd5b823567ffffffffffffffff8082111561525957600080fd5b818501915085601f83011261526d57600080fd5b8135602061527a8261507b565b6040516152878282614f18565b83815260059390931b85018201928281019150898411156152a757600080fd5b948201945b838610156152ce5785356152bf81614cc0565b825294820194908201906152ac565b965050860135925050808211156152e457600080fd5b506146238582860161509f565b600081518084526020808501945080840160005b8381101561532157815187529582019590820190600101615305565b509495945050505050565b602081526000611a1f60208301846152f1565b60008060006060848603121561535457600080fd5b833561535f81614cc0565b9250602084013561536f81614cc0565b929592945050506040919091013590565b60008060006060848603121561539557600080fd5b83359250602084013591506153ac60408501614db0565b90509250925092565b6000806000606084860312156153ca57600080fd5b8335925060208401356153dc81614cc0565b915060408401356153ec81614cc0565b809150509250925092565b60008060008060006080868803121561540f57600080fd5b853567ffffffffffffffff81111561542657600080fd5b61543288828901614df9565b909650945050602086013561544681614cc0565b9250615454604087016151f9565b9150606086013561546481614cc0565b809150509295509295909350565b801515811461249157600080fd5b6000806040838503121561549357600080fd5b823561549e81614cc0565b91506020830135614ef781615472565b60008060008060008060a087890312156154c757600080fd5b863567ffffffffffffffff8111156154de57600080fd5b6154ea89828a01614df9565b90975095505060208701356154fe81614cc0565b935060408701359250606087013561551581614cc0565b9150615523608088016151f9565b90509295509295509295565b6000806040838503121561554257600080fd5b82359150614df060208401614fc9565b6000806040838503121561556557600080fd5b50508035926020909101359150565b60008060008060008060a0878903121561558d57600080fd5b86359550602087013567ffffffffffffffff8111156155ab57600080fd5b6155b789828a01614df9565b90965094505060408701356155cb81614cc0565b92506155d960608801614fc9565b915061552360808801614db0565b600080600080608085870312156155fd57600080fd5b84359350602085013561560f81614cc0565b925060408501356151e081614cc0565b60008060006060848603121561563457600080fd5b833592506020840135915060408401356153ec81614cc0565b6000806000806060858703121561566357600080fd5b843567ffffffffffffffff81111561567a57600080fd5b61568687828801614df9565b909550935050602085013561569a81614cc0565b915060408501356156aa81614cc0565b939692955090935050565b600080604083850312156156c857600080fd5b82356156d381614cc0565b91506020830135614ef781614cc0565b6000806000806000608086880312156156fb57600080fd5b85359450602086013567ffffffffffffffff81111561571957600080fd5b61572588828901614df9565b909550935050604086013561545481614cc0565b600080600080600060a0868803121561575157600080fd5b853561575c81614cc0565b9450602086013561576c81614cc0565b93506040860135925060608601359150608086013567ffffffffffffffff81111561579657600080fd5b6151a688828901614f6d565b6000602082840312156157b457600080fd5b815167ffffffffffffffff8111156157cb57600080fd5b8201601f810184136157dc57600080fd5b80516157e781614f45565b6040516157f48282614f18565b82815286602084860101111561580957600080fd5b611707836020830160208701614d4d565b6000806000806080858703121561583057600080fd5b843567ffffffffffffffff81111561584757600080fd5b61585387828801614f6d565b945050602085013561586481614cc0565b9250615872604086016151f9565b915060608501356156aa81614cc0565b600181811c9082168061589657607f821691505b6020821081036158b657634e487b7160e01b600052602260045260246000fd5b50919050565b634e487b7160e01b600052603260045260246000fd5b634e487b7160e01b600052601160045260246000fd5b600060001982036158fb576158fb6158d2565b5060010190565b60408152600061591560408301856152f1565b828103602084015261592781856152f1565b95945050505050565b60006020828403121561594257600080fd5b8151611a1f81614cc0565b67ffffffffffffffff82811682821603908082111561596e5761596e6158d2565b5092915050565b60006020828403121561598757600080fd5b8151611a1f81615472565b8183823760009101908152919050565b6000602082840312156159b457600080fd5b5051919050565b67ffffffffffffffff81811683821601908082111561596e5761596e6158d2565b818352818160208501375060006020828401015260006020601f19601f840116840101905092915050565b60a081526000615a1b60a08301888a6159dc565b90506001600160a01b03808716602084015263ffffffff8616604084015267ffffffffffffffff85166060840152808416608084015250979650505050505050565b601f821115615aa357600081815260208120601f850160051c81016020861015615a845750805b601f850160051c820191505b81811015613b0257828155600101615a90565b505050565b67ffffffffffffffff831115615ac057615ac0614f02565b615ad483615ace8354615882565b83615a5d565b6000601f841160018114615b085760008515615af05750838201355b600019600387901b1c1916600186901b1783556113c2565b600083815260209020601f19861690835b82811015615b395786850135825560209485019460019092019101615b19565b5086821015615b565760001960f88860031b161c19848701351681555b505060018560011b0183555050505050565b88815260e060208201526000615b8260e08301898b6159dc565b6001600160a01b03978816604084015295909616606082015267ffffffffffffffff938416608082015263ffffffff9290921660a083015290911660c090910152949350505050565b815167ffffffffffffffff811115615be557615be5614f02565b615bf981615bf38454615882565b84615a5d565b602080601f831160018114615c2e5760008415615c165750858301515b600019600386901b1c1916600185901b178555613b02565b600085815260208120601f198616915b82811015615c5d57888601518255948401946001909101908401615c3e565b5085821015615c7b5787850151600019600388901b60f8161c191681555b5050505050600190811b01905550565b60006001600160a01b03808816835280871660208401525060a06040830152615cb760a08301866152f1565b8281036060840152615cc981866152f1565b90508281036080840152613c448185614d71565b600060208284031215615cef57600080fd5b8151611a1f81614d1a565b600060033d1115615d135760046000803e5060005160e01c5b90565b600060443d1015615d245790565b6040517ffffffffffffffffffffffffffffffffffffffffffffffffffffffffffffffffc803d016004833e81513d67ffffffffffffffff8160248401118184111715615d7257505050505090565b8285019150815181811115615d8a5750505050505090565b843d8701016020828501011115615da45750505050505090565b615db360208286010187614f18565b509095945050505050565b608081526000615dd16080830187614d71565b6001600160a01b039590951660208301525063ffffffff92909216604083015267ffffffffffffffff16606090910152919050565b8082018082111561086f5761086f6158d2565b8181038181111561086f5761086f6158d2565b7fff000000000000000000000000000000000000000000000000000000000000008460f81b16815260008351615e69816001850160208801614d4d565b835190830190615e80816001840160208801614d4d565b0160010195945050505050565b60006001600160a01b03808816835280871660208401525084604083015283606083015260a06080830152615ec560a0830184614d71565b97965050505050505056fea264697066735822122069ffbfb0723a87fb1a8ea1c99d0a79e9c7883bdcedc5c06b292ae48afee0656764736f6c63430008110033",
  "devdoc": {
    "kind": "dev",
    "methods": {
      "allFusesBurned(bytes32,uint32)": {
        "params": {
          "fuseMask": "The fuses you want to check",
          "node": "Namehash of the name"
        },
        "returns": {
          "_0": "Boolean of whether or not all the selected fuses are burned"
        }
      },
      "balanceOf(address,uint256)": {
        "details": "See {IERC1155-balanceOf}. Requirements: - `account` cannot be the zero address."
      },
      "balanceOfBatch(address[],uint256[])": {
        "details": "See {IERC1155-balanceOfBatch}. Requirements: - `accounts` and `ids` must have the same length."
      },
      "canModifyName(bytes32,address)": {
        "params": {
          "addr": "which address to check permissions for",
          "node": "namehash of the name to check"
        },
        "returns": {
          "_0": "whether or not is owner or approved"
        }
      },
      "extendExpiry(bytes32,bytes32,uint64)": {
        "params": {
          "expiry": "When the name will expire in seconds since the Unix epoch",
          "labelhash": "Labelhash of the name, e.g. vitalik.xyz would be keccak256('vitalik')",
          "parentNode": "Parent namehash of the name e.g. vitalik.xyz would be namehash('xyz')"
        },
        "returns": {
          "_0": "New expiry"
        }
      },
      "getData(uint256)": {
        "params": {
          "id": "Namehash of the name"
        },
        "returns": {
          "expiry": "Expiry of the name",
          "fuses": "Fuses of the name",
          "owner": "Owner of the name"
        }
      },
      "isApprovedForAll(address,address)": {
        "details": "See {IERC1155-isApprovedForAll}."
      },
      "owner()": {
        "details": "Returns the address of the current owner."
      },
      "ownerOf(uint256)": {
        "params": {
          "id": "Label as a string of the .eth domain to wrap"
        },
        "returns": {
          "owner": "The owner of the name"
        }
      },
      "recoverFunds(address,address,uint256)": {
        "details": "The contract is Ownable and only the owner can call the recover function.",
        "params": {
          "_amount": "The amount of tokens to recover.",
          "_to": "The address to send the tokens to.",
          "_token": "The address of the ERC20 token to recover"
        }
      },
      "registerAndWrapETH2LD(string,address,uint256,address,uint16)": {
        "details": "Registers a new .eth second-level domain and wraps it.      Only callable by authorised controllers.",
        "params": {
          "duration": "The duration, in seconds, to register the name for.",
          "label": "The label to register (Eg, 'foo' for 'foo.eth').",
          "ownerControlledFuses": "Initial owner-controlled fuses to set",
          "resolver": "The resolver address to set on the ENS registry (optional).",
          "wrappedOwner": "The owner of the wrapped name."
        },
        "returns": {
          "registrarExpiry": "The expiry date of the new name on the .eth registrar, in seconds since the Unix epoch."
        }
      },
      "renew(uint256,uint256)": {
        "details": "Only callable by authorised controllers.",
        "params": {
          "duration": "The number of seconds to renew the name for.",
          "tokenId": "The hash of the label to register (eg, `keccak256('foo')`, for 'foo.eth')."
        },
        "returns": {
          "expires": "The expiry date of the name on the .eth registrar, in seconds since the Unix epoch."
        }
      },
      "renounceOwnership()": {
        "details": "Leaves the contract without owner. It will not be possible to call `onlyOwner` functions anymore. Can only be called by the current owner. NOTE: Renouncing ownership will leave the contract without an owner, thereby removing any functionality that is only available to the owner."
      },
      "safeBatchTransferFrom(address,address,uint256[],uint256[],bytes)": {
        "details": "See {IERC1155-safeBatchTransferFrom}."
      },
      "safeTransferFrom(address,address,uint256,uint256,bytes)": {
        "details": "See {IERC1155-safeTransferFrom}."
      },
      "setApprovalForAll(address,bool)": {
        "details": "See {IERC1155-setApprovalForAll}."
      },
      "setChildFuses(bytes32,bytes32,uint32,uint64)": {
        "params": {
          "expiry": "When the name will expire in seconds since the Unix epoch",
          "fuses": "Fuses to burn",
          "labelhash": "Labelhash of the name, e.g. vitalik.xyz would be keccak256('vitalik')",
          "parentNode": "Parent namehash of the name e.g. vitalik.xyz would be namehash('xyz')"
        }
      },
      "setFuses(bytes32,uint16)": {
        "params": {
          "node": "Namehash of the name",
          "ownerControlledFuses": "Owner-controlled fuses to burn"
        },
        "returns": {
          "_0": "New fuses"
        }
      },
      "setMetadataService(address)": {
        "params": {
          "_metadataService": "The new metadata service"
        }
      },
      "setRecord(bytes32,address,address,uint64)": {
        "params": {
          "node": "Namehash of the name to set a record for",
          "owner": "New owner in the registry",
          "resolver": "Resolver contract",
          "ttl": "Time to live in the registry"
        }
      },
      "setResolver(bytes32,address)": {
        "params": {
          "node": "namehash of the name",
          "resolver": "the resolver contract"
        }
      },
      "setSubnodeOwner(bytes32,string,address,uint32,uint64)": {
        "params": {
          "expiry": "When the name will expire in seconds since the Unix epoch",
          "fuses": "Initial fuses for the wrapped subdomain",
          "label": "Label of the subdomain as a string",
          "owner": "New owner in the wrapper",
          "parentNode": "Parent namehash of the subdomain"
        },
        "returns": {
          "node": "Namehash of the subdomain"
        }
      },
      "setSubnodeRecord(bytes32,string,address,address,uint64,uint32,uint64)": {
        "params": {
          "expiry": "When the name will expire in seconds since the Unix epoch",
          "fuses": "initial fuses for the wrapped subdomain",
          "label": "label of the subdomain as a string",
          "owner": "new owner in the wrapper",
          "parentNode": "parent namehash of the subdomain",
          "resolver": "resolver contract in the registry",
          "ttl": "ttl in the registry"
        },
        "returns": {
          "node": "Namehash of the subdomain"
        }
      },
      "setTTL(bytes32,uint64)": {
        "params": {
          "node": "Namehash of the name",
          "ttl": "TTL in the registry"
        }
      },
      "setUpgradeContract(address)": {
        "details": "The default value of upgradeContract is the 0 address. Use the 0 address at any time to make the contract not upgradable.",
        "params": {
          "_upgradeAddress": "address of an upgraded contract"
        }
      },
      "transferOwnership(address)": {
        "details": "Transfers ownership of the contract to a new account (`newOwner`). Can only be called by the current owner."
      },
      "unwrap(bytes32,bytes32,address)": {
        "details": "Can be called by the owner in the wrapper or an authorised caller in the wrapper",
        "params": {
          "controller": "Sets the owner in the registry to this address",
          "labelhash": "Labelhash of the name, e.g. vitalik.xyz would be keccak256('vitalik')",
          "parentNode": "Parent namehash of the name e.g. vitalik.xyz would be namehash('xyz')"
        }
      },
      "unwrapETH2LD(bytes32,address,address)": {
        "details": "Can be called by the owner in the wrapper or an authorised caller in the wrapper",
        "params": {
          "controller": "Sets the owner in the registry to this address",
          "labelhash": "Labelhash of the .eth domain",
          "registrant": "Sets the owner in the .eth registrar to this address"
        }
      },
      "upgrade(bytes32,string,address,address)": {
        "details": "Can be called by the owner or an authorised caller Requires upgraded Namewrapper to permit old Namewrapper to call `setSubnodeRecord` for all names",
        "params": {
          "label": "Label as a string of the name to upgrade",
          "parentNode": "Namehash of the parent name",
          "resolver": "Resolver contract for this name",
          "wrappedOwner": "Owner of the name in this contract"
        }
      },
      "upgradeETH2LD(string,address,address)": {
        "details": "Can be called by the owner of the name in this contract",
        "params": {
          "label": "Label as a string of the .eth name to upgrade",
          "wrappedOwner": "The owner of the wrapped name"
        }
      },
      "uri(uint256)": {
        "params": {
          "tokenId": "The id of the token"
        },
        "returns": {
          "_0": "string uri of the metadata service"
        }
      },
      "wrap(bytes,address,address)": {
        "details": "Can be called by the owner in the registry or an authorised caller in the registry",
        "params": {
          "name": "The name to wrap, in DNS format",
          "resolver": "Resolver contract",
          "wrappedOwner": "Owner of the name in this contract"
        }
      },
      "wrapETH2LD(string,address,uint16,address)": {
        "details": "Can be called by the owner of the name on the .eth registrar or an authorised caller on the registrar",
        "params": {
          "label": "Label as a string of the .eth domain to wrap",
          "ownerControlledFuses": "Initial owner-controlled fuses to set",
          "resolver": "Resolver contract address",
          "wrappedOwner": "Owner of the name in this contract"
        }
      }
    },
    "version": 1
  },
  "userdoc": {
    "kind": "user",
    "methods": {
      "allFusesBurned(bytes32,uint32)": {
        "notice": "Checks all Fuses in the mask are burned for the node"
      },
      "canModifyName(bytes32,address)": {
        "notice": "Checks if owner or approved by owner"
      },
      "extendExpiry(bytes32,bytes32,uint64)": {
        "notice": "Extends expiry for a name"
      },
      "getData(uint256)": {
        "notice": "Gets the data for a name"
      },
      "ownerOf(uint256)": {
        "notice": "Gets the owner of a name"
      },
      "recoverFunds(address,address,uint256)": {
        "notice": "Recover ERC20 tokens sent to the contract by mistake."
      },
      "renew(uint256,uint256)": {
        "notice": "Renews a .eth second-level domain."
      },
      "setChildFuses(bytes32,bytes32,uint32,uint64)": {
        "notice": "Sets fuses of a name that you own the parent of. Can also be called by the owner of a .eth name"
      },
      "setFuses(bytes32,uint16)": {
        "notice": "Sets fuses of a name"
      },
      "setMetadataService(address)": {
        "notice": "Set the metadata service. Only the owner can do this"
      },
      "setRecord(bytes32,address,address,uint64)": {
        "notice": "Sets records for the name in the ENS Registry"
      },
      "setResolver(bytes32,address)": {
        "notice": "Sets resolver contract in the registry"
      },
      "setSubnodeOwner(bytes32,string,address,uint32,uint64)": {
        "notice": "Sets the subdomain owner in the registry and then wraps the subdomain"
      },
      "setSubnodeRecord(bytes32,string,address,address,uint64,uint32,uint64)": {
        "notice": "Sets the subdomain owner in the registry with records and then wraps the subdomain"
      },
      "setTTL(bytes32,uint64)": {
        "notice": "Sets TTL in the registry"
      },
      "setUpgradeContract(address)": {
        "notice": "Set the address of the upgradeContract of the contract. only admin can do this"
      },
      "unwrap(bytes32,bytes32,address)": {
        "notice": "Unwraps a non .eth domain, of any kind. Could be a DNSSEC name vitalik.xyz or a subdomain"
      },
      "unwrapETH2LD(bytes32,address,address)": {
        "notice": "Unwraps a .eth domain. e.g. vitalik.eth"
      },
      "upgrade(bytes32,string,address,address)": {
        "notice": "Upgrades a non .eth domain of any kind. Could be a DNSSEC name vitalik.xyz or a subdomain"
      },
      "upgradeETH2LD(string,address,address)": {
        "notice": "Upgrades a .eth wrapped domain by calling the wrapETH2LD function of the upgradeContract     and burning the token of this contract"
      },
      "uri(uint256)": {
        "notice": "Get the metadata uri"
      },
      "wrap(bytes,address,address)": {
        "notice": "Wraps a non .eth domain, of any kind. Could be a DNSSEC name vitalik.xyz or a subdomain"
      },
      "wrapETH2LD(string,address,uint16,address)": {
        "notice": "Wraps a .eth domain, creating a new token and sending the original ERC721 token to this contract"
      }
    },
    "version": 1
  },
  "storageLayout": {
    "storage": [
      {
        "astId": 7,
        "contract": "contracts/wrapper/NameWrapper.sol:NameWrapper",
        "label": "_owner",
        "offset": 0,
        "slot": "0",
        "type": "t_address"
      },
      {
        "astId": 1363,
        "contract": "contracts/wrapper/NameWrapper.sol:NameWrapper",
        "label": "_tokens",
        "offset": 0,
        "slot": "1",
        "type": "t_mapping(t_uint256,t_uint256)"
      },
      {
        "astId": 1369,
        "contract": "contracts/wrapper/NameWrapper.sol:NameWrapper",
        "label": "_operatorApprovals",
        "offset": 0,
        "slot": "2",
        "type": "t_mapping(t_address,t_mapping(t_address,t_bool))"
      },
      {
        "astId": 1303,
        "contract": "contracts/wrapper/NameWrapper.sol:NameWrapper",
        "label": "controllers",
        "offset": 0,
        "slot": "3",
        "type": "t_mapping(t_address,t_bool)"
      },
      {
        "astId": 2680,
        "contract": "contracts/wrapper/NameWrapper.sol:NameWrapper",
        "label": "metadataService",
        "offset": 0,
        "slot": "4",
        "type": "t_contract(IMetadataService)2253"
      },
      {
        "astId": 2685,
        "contract": "contracts/wrapper/NameWrapper.sol:NameWrapper",
        "label": "names",
        "offset": 0,
        "slot": "5",
        "type": "t_mapping(t_bytes32,t_bytes_storage)"
      },
      {
        "astId": 2703,
        "contract": "contracts/wrapper/NameWrapper.sol:NameWrapper",
        "label": "upgradeContract",
        "offset": 0,
        "slot": "6",
        "type": "t_contract(INameWrapperUpgrade)2580"
      }
    ],
    "types": {
      "t_address": {
        "encoding": "inplace",
        "label": "address",
        "numberOfBytes": "20"
      },
      "t_bool": {
        "encoding": "inplace",
        "label": "bool",
        "numberOfBytes": "1"
      },
      "t_bytes32": {
        "encoding": "inplace",
        "label": "bytes32",
        "numberOfBytes": "32"
      },
      "t_bytes_storage": {
        "encoding": "bytes",
        "label": "bytes",
        "numberOfBytes": "32"
      },
      "t_contract(IMetadataService)2253": {
        "encoding": "inplace",
        "label": "contract IMetadataService",
        "numberOfBytes": "20"
      },
      "t_contract(INameWrapperUpgrade)2580": {
        "encoding": "inplace",
        "label": "contract INameWrapperUpgrade",
        "numberOfBytes": "20"
      },
      "t_mapping(t_address,t_bool)": {
        "encoding": "mapping",
        "key": "t_address",
        "label": "mapping(address => bool)",
        "numberOfBytes": "32",
        "value": "t_bool"
      },
      "t_mapping(t_address,t_mapping(t_address,t_bool))": {
        "encoding": "mapping",
        "key": "t_address",
        "label": "mapping(address => mapping(address => bool))",
        "numberOfBytes": "32",
        "value": "t_mapping(t_address,t_bool)"
      },
      "t_mapping(t_bytes32,t_bytes_storage)": {
        "encoding": "mapping",
        "key": "t_bytes32",
        "label": "mapping(bytes32 => bytes)",
        "numberOfBytes": "32",
        "value": "t_bytes_storage"
      },
      "t_mapping(t_uint256,t_uint256)": {
        "encoding": "mapping",
        "key": "t_uint256",
        "label": "mapping(uint256 => uint256)",
        "numberOfBytes": "32",
        "value": "t_uint256"
      },
      "t_uint256": {
        "encoding": "inplace",
        "label": "uint256",
        "numberOfBytes": "32"
      }
    }
  }
}