{
  "address": "0x23d86f0bf4900978B191378B134519371Da52f75",
  "abi": [
    {
      "inputs": [
        {
          "internalType": "contract ENS",
          "name": "_ens",
          "type": "address"
        },
        {
          "internalType": "contract IBaseRegistrar",
          "name": "_registrar",
          "type": "address"
        },
        {
          "internalType": "contract IMetadataService",
          "name": "_metadataService",
          "type": "address"
        }
      ],
      "stateMutability": "nonpayable",
      "type": "constructor"
    },
    {
      "inputs": [],
      "name": "CannotUpgrade",
      "type": "error"
    },
    {
      "inputs": [],
      "name": "IncompatibleParent",
      "type": "error"
    },
    {
      "inputs": [
        {
          "internalType": "address",
          "name": "owner",
          "type": "address"
        }
      ],
      "name": "IncorrectTargetOwner",
      "type": "error"
    },
    {
      "inputs": [],
      "name": "IncorrectTokenType",
      "type": "error"
    },
    {
      "inputs": [
        {
          "internalType": "bytes32",
          "name": "labelHash",
          "type": "bytes32"
        },
        {
          "internalType": "bytes32",
          "name": "expectedLabelhash",
          "type": "bytes32"
        }
      ],
      "name": "LabelMismatch",
      "type": "error"
    },
    {
      "inputs": [
        {
          "internalType": "string",
          "name": "label",
          "type": "string"
        }
      ],
      "name": "LabelTooLong",
      "type": "error"
    },
    {
      "inputs": [],
      "name": "LabelTooShort",
      "type": "error"
    },
    {
      "inputs": [],
      "name": "NameIsNotWrapped",
      "type": "error"
    },
    {
      "inputs": [
        {
          "internalType": "bytes32",
          "name": "node",
          "type": "bytes32"
        }
      ],
      "name": "OperationProhibited",
      "type": "error"
    },
    {
      "inputs": [
        {
          "internalType": "bytes32",
          "name": "node",
          "type": "bytes32"
        },
        {
          "internalType": "address",
          "name": "addr",
          "type": "address"
        }
      ],
      "name": "Unauthorised",
      "type": "error"
    },
    {
      "anonymous": false,
      "inputs": [
        {
          "indexed": true,
          "internalType": "address",
          "name": "owner",
          "type": "address"
        },
        {
          "indexed": true,
          "internalType": "address",
          "name": "approved",
          "type": "address"
        },
        {
          "indexed": true,
          "internalType": "uint256",
          "name": "tokenId",
          "type": "uint256"
        }
      ],
      "name": "Approval",
      "type": "event"
    },
    {
      "anonymous": false,
      "inputs": [
        {
          "indexed": true,
          "internalType": "address",
          "name": "account",
          "type": "address"
        },
        {
          "indexed": true,
          "internalType": "address",
          "name": "operator",
          "type": "address"
        },
        {
          "indexed": false,
          "internalType": "bool",
          "name": "approved",
          "type": "bool"
        }
      ],
      "name": "ApprovalForAll",
      "type": "event"
    },
    {
      "anonymous": false,
      "inputs": [
        {
          "indexed": true,
          "internalType": "address",
          "name": "controller",
          "type": "address"
        },
        {
          "indexed": false,
          "internalType": "bool",
          "name": "active",
          "type": "bool"
        }
      ],
      "name": "ControllerChanged",
      "type": "event"
    },
    {
      "anonymous": false,
      "inputs": [
        {
          "indexed": true,
          "internalType": "bytes32",
          "name": "node",
          "type": "bytes32"
        },
        {
          "indexed": false,
          "internalType": "uint64",
          "name": "expiry",
          "type": "uint64"
        }
      ],
      "name": "ExpiryExtended",
      "type": "event"
    },
    {
      "anonymous": false,
      "inputs": [
        {
          "indexed": true,
          "internalType": "bytes32",
          "name": "node",
          "type": "bytes32"
        },
        {
          "indexed": false,
          "internalType": "uint32",
          "name": "fuses",
          "type": "uint32"
        }
      ],
      "name": "FusesSet",
      "type": "event"
    },
    {
      "anonymous": false,
      "inputs": [
        {
          "indexed": true,
          "internalType": "bytes32",
          "name": "node",
          "type": "bytes32"
        },
        {
          "indexed": false,
          "internalType": "address",
          "name": "owner",
          "type": "address"
        }
      ],
      "name": "NameUnwrapped",
      "type": "event"
    },
    {
      "anonymous": false,
      "inputs": [
        {
          "indexed": true,
          "internalType": "bytes32",
          "name": "node",
          "type": "bytes32"
        },
        {
          "indexed": false,
          "internalType": "bytes",
          "name": "name",
          "type": "bytes"
        },
        {
          "indexed": false,
          "internalType": "address",
          "name": "owner",
          "type": "address"
        },
        {
          "indexed": false,
          "internalType": "uint32",
          "name": "fuses",
          "type": "uint32"
        },
        {
          "indexed": false,
          "internalType": "uint64",
          "name": "expiry",
          "type": "uint64"
        }
      ],
      "name": "NameWrapped",
      "type": "event"
    },
    {
      "anonymous": false,
      "inputs": [
        {
          "indexed": true,
          "internalType": "address",
          "name": "previousOwner",
          "type": "address"
        },
        {
          "indexed": true,
          "internalType": "address",
          "name": "newOwner",
          "type": "address"
        }
      ],
      "name": "OwnershipTransferred",
      "type": "event"
    },
    {
      "anonymous": false,
      "inputs": [
        {
          "indexed": true,
          "internalType": "address",
          "name": "operator",
          "type": "address"
        },
        {
          "indexed": true,
          "internalType": "address",
          "name": "from",
          "type": "address"
        },
        {
          "indexed": true,
          "internalType": "address",
          "name": "to",
          "type": "address"
        },
        {
          "indexed": false,
          "internalType": "uint256[]",
          "name": "ids",
          "type": "uint256[]"
        },
        {
          "indexed": false,
          "internalType": "uint256[]",
          "name": "values",
          "type": "uint256[]"
        }
      ],
      "name": "TransferBatch",
      "type": "event"
    },
    {
      "anonymous": false,
      "inputs": [
        {
          "indexed": true,
          "internalType": "address",
          "name": "operator",
          "type": "address"
        },
        {
          "indexed": true,
          "internalType": "address",
          "name": "from",
          "type": "address"
        },
        {
          "indexed": true,
          "internalType": "address",
          "name": "to",
          "type": "address"
        },
        {
          "indexed": false,
          "internalType": "uint256",
          "name": "id",
          "type": "uint256"
        },
        {
          "indexed": false,
          "internalType": "uint256",
          "name": "value",
          "type": "uint256"
        }
      ],
      "name": "TransferSingle",
      "type": "event"
    },
    {
      "anonymous": false,
      "inputs": [
        {
          "indexed": false,
          "internalType": "string",
          "name": "value",
          "type": "string"
        },
        {
          "indexed": true,
          "internalType": "uint256",
          "name": "id",
          "type": "uint256"
        }
      ],
      "name": "URI",
      "type": "event"
    },
    {
      "inputs": [
        {
          "internalType": "uint256",
          "name": "",
          "type": "uint256"
        }
      ],
      "name": "_tokens",
      "outputs": [
        {
          "internalType": "uint256",
          "name": "",
          "type": "uint256"
        }
      ],
      "stateMutability": "view",
      "type": "function"
    },
    {
      "inputs": [
        {
          "internalType": "bytes32",
          "name": "node",
          "type": "bytes32"
        },
        {
          "internalType": "uint32",
          "name": "fuseMask",
          "type": "uint32"
        }
      ],
      "name": "allFusesBurned",
      "outputs": [
        {
          "internalType": "bool",
          "name": "",
          "type": "bool"
        }
      ],
      "stateMutability": "view",
      "type": "function"
    },
    {
      "inputs": [
        {
          "internalType": "address",
          "name": "to",
          "type": "address"
        },
        {
          "internalType": "uint256",
          "name": "tokenId",
          "type": "uint256"
        }
      ],
      "name": "approve",
      "outputs": [],
      "stateMutability": "nonpayable",
      "type": "function"
    },
    {
      "inputs": [
        {
          "internalType": "address",
          "name": "account",
          "type": "address"
        },
        {
          "internalType": "uint256",
          "name": "id",
          "type": "uint256"
        }
      ],
      "name": "balanceOf",
      "outputs": [
        {
          "internalType": "uint256",
          "name": "",
          "type": "uint256"
        }
      ],
      "stateMutability": "view",
      "type": "function"
    },
    {
      "inputs": [
        {
          "internalType": "address[]",
          "name": "accounts",
          "type": "address[]"
        },
        {
          "internalType": "uint256[]",
          "name": "ids",
          "type": "uint256[]"
        }
      ],
      "name": "balanceOfBatch",
      "outputs": [
        {
          "internalType": "uint256[]",
          "name": "",
          "type": "uint256[]"
        }
      ],
      "stateMutability": "view",
      "type": "function"
    },
    {
      "inputs": [
        {
          "internalType": "bytes32",
          "name": "node",
          "type": "bytes32"
        },
        {
          "internalType": "address",
          "name": "addr",
          "type": "address"
        }
      ],
      "name": "canModifyName",
      "outputs": [
        {
          "internalType": "bool",
          "name": "",
          "type": "bool"
        }
      ],
      "stateMutability": "view",
      "type": "function"
    },
    {
      "inputs": [
        {
          "internalType": "bytes32",
          "name": "node",
          "type": "bytes32"
        },
        {
          "internalType": "address",
          "name": "addr",
          "type": "address"
        }
      ],
      "name": "canModifySubnames",
      "outputs": [
        {
          "internalType": "bool",
          "name": "",
          "type": "bool"
        }
      ],
      "stateMutability": "view",
      "type": "function"
    },
    {
      "inputs": [
        {
          "internalType": "address",
          "name": "",
          "type": "address"
        }
      ],
      "name": "controllers",
      "outputs": [
        {
          "internalType": "bool",
          "name": "",
          "type": "bool"
        }
      ],
      "stateMutability": "view",
      "type": "function"
    },
    {
      "inputs": [],
      "name": "ens",
      "outputs": [
        {
          "internalType": "contract ENS",
          "name": "",
          "type": "address"
        }
      ],
      "stateMutability": "view",
      "type": "function"
    },
    {
      "inputs": [
        {
          "internalType": "bytes32",
          "name": "parentNode",
          "type": "bytes32"
        },
        {
          "internalType": "bytes32",
          "name": "labelhash",
          "type": "bytes32"
        },
        {
          "internalType": "uint64",
          "name": "expiry",
          "type": "uint64"
        }
      ],
      "name": "extendExpiry",
      "outputs": [
        {
          "internalType": "uint64",
          "name": "",
          "type": "uint64"
        }
      ],
      "stateMutability": "nonpayable",
      "type": "function"
    },
    {
      "inputs": [
        {
          "internalType": "uint256",
          "name": "id",
          "type": "uint256"
        }
      ],
      "name": "getApproved",
      "outputs": [
        {
          "internalType": "address",
          "name": "operator",
          "type": "address"
        }
      ],
      "stateMutability": "view",
      "type": "function"
    },
    {
      "inputs": [
        {
          "internalType": "uint256",
          "name": "id",
          "type": "uint256"
        }
      ],
      "name": "getData",
      "outputs": [
        {
          "internalType": "address",
          "name": "owner",
          "type": "address"
        },
        {
          "internalType": "uint32",
          "name": "fuses",
          "type": "uint32"
        },
        {
          "internalType": "uint64",
          "name": "expiry",
          "type": "uint64"
        }
      ],
      "stateMutability": "view",
      "type": "function"
    },
    {
      "inputs": [
        {
          "internalType": "address",
          "name": "account",
          "type": "address"
        },
        {
          "internalType": "address",
          "name": "operator",
          "type": "address"
        }
      ],
      "name": "isApprovedForAll",
      "outputs": [
        {
          "internalType": "bool",
          "name": "",
          "type": "bool"
        }
      ],
      "stateMutability": "view",
      "type": "function"
    },
    {
      "inputs": [
        {
          "internalType": "bytes32",
          "name": "parentNode",
          "type": "bytes32"
        },
        {
          "internalType": "bytes32",
          "name": "labelhash",
          "type": "bytes32"
        }
      ],
      "name": "isWrapped",
      "outputs": [
        {
          "internalType": "bool",
          "name": "",
          "type": "bool"
        }
      ],
      "stateMutability": "view",
      "type": "function"
    },
    {
      "inputs": [
        {
          "internalType": "bytes32",
          "name": "node",
          "type": "bytes32"
        }
      ],
      "name": "isWrapped",
      "outputs": [
        {
          "internalType": "bool",
          "name": "",
          "type": "bool"
        }
      ],
      "stateMutability": "view",
      "type": "function"
    },
    {
      "inputs": [],
      "name": "metadataService",
      "outputs": [
        {
          "internalType": "contract IMetadataService",
          "name": "",
          "type": "address"
        }
      ],
      "stateMutability": "view",
      "type": "function"
    },
    {
      "inputs": [],
      "name": "name",
      "outputs": [
        {
          "internalType": "string",
          "name": "",
          "type": "string"
        }
      ],
      "stateMutability": "view",
      "type": "function"
    },
    {
      "inputs": [
        {
          "internalType": "bytes32",
          "name": "",
          "type": "bytes32"
        }
      ],
      "name": "names",
      "outputs": [
        {
          "internalType": "bytes",
          "name": "",
          "type": "bytes"
        }
      ],
      "stateMutability": "view",
      "type": "function"
    },
    {
      "inputs": [
        {
          "internalType": "address",
          "name": "to",
          "type": "address"
        },
        {
          "internalType": "address",
          "name": "",
          "type": "address"
        },
        {
          "internalType": "uint256",
          "name": "tokenId",
          "type": "uint256"
        },
        {
          "internalType": "bytes",
          "name": "data",
          "type": "bytes"
        }
      ],
      "name": "onERC721Received",
      "outputs": [
        {
          "internalType": "bytes4",
          "name": "",
          "type": "bytes4"
        }
      ],
      "stateMutability": "nonpayable",
      "type": "function"
    },
    {
      "inputs": [],
      "name": "owner",
      "outputs": [
        {
          "internalType": "address",
          "name": "",
          "type": "address"
        }
      ],
      "stateMutability": "view",
      "type": "function"
    },
    {
      "inputs": [
        {
          "internalType": "uint256",
          "name": "id",
          "type": "uint256"
        }
      ],
      "name": "ownerOf",
      "outputs": [
        {
          "internalType": "address",
          "name": "owner",
          "type": "address"
        }
      ],
      "stateMutability": "view",
      "type": "function"
    },
    {
      "inputs": [
        {
          "internalType": "address",
          "name": "_token",
          "type": "address"
        },
        {
          "internalType": "address",
          "name": "_to",
          "type": "address"
        },
        {
          "internalType": "uint256",
          "name": "_amount",
          "type": "uint256"
        }
      ],
      "name": "recoverFunds",
      "outputs": [],
      "stateMutability": "nonpayable",
      "type": "function"
    },
    {
      "inputs": [
        {
          "internalType": "string",
          "name": "label",
          "type": "string"
        },
        {
          "internalType": "address",
          "name": "wrappedOwner",
          "type": "address"
        },
        {
          "internalType": "uint256",
          "name": "duration",
          "type": "uint256"
        },
        {
          "internalType": "address",
          "name": "resolver",
          "type": "address"
        },
        {
          "internalType": "uint16",
          "name": "ownerControlledFuses",
          "type": "uint16"
        }
      ],
      "name": "registerAndWrapETH2LD",
      "outputs": [
        {
          "internalType": "uint256",
          "name": "registrarExpiry",
          "type": "uint256"
        }
      ],
      "stateMutability": "nonpayable",
      "type": "function"
    },
    {
      "inputs": [],
      "name": "registrar",
      "outputs": [
        {
          "internalType": "contract IBaseRegistrar",
          "name": "",
          "type": "address"
        }
      ],
      "stateMutability": "view",
      "type": "function"
    },
    {
      "inputs": [
        {
          "internalType": "uint256",
          "name": "tokenId",
          "type": "uint256"
        },
        {
          "internalType": "uint256",
          "name": "duration",
          "type": "uint256"
        }
      ],
      "name": "renew",
      "outputs": [
        {
          "internalType": "uint256",
          "name": "expires",
          "type": "uint256"
        }
      ],
      "stateMutability": "nonpayable",
      "type": "function"
    },
    {
      "inputs": [],
      "name": "renounceOwnership",
      "outputs": [],
      "stateMutability": "nonpayable",
      "type": "function"
    },
    {
      "inputs": [
        {
          "internalType": "address",
          "name": "from",
          "type": "address"
        },
        {
          "internalType": "address",
          "name": "to",
          "type": "address"
        },
        {
          "internalType": "uint256[]",
          "name": "ids",
          "type": "uint256[]"
        },
        {
          "internalType": "uint256[]",
          "name": "amounts",
          "type": "uint256[]"
        },
        {
          "internalType": "bytes",
          "name": "data",
          "type": "bytes"
        }
      ],
      "name": "safeBatchTransferFrom",
      "outputs": [],
      "stateMutability": "nonpayable",
      "type": "function"
    },
    {
      "inputs": [
        {
          "internalType": "address",
          "name": "from",
          "type": "address"
        },
        {
          "internalType": "address",
          "name": "to",
          "type": "address"
        },
        {
          "internalType": "uint256",
          "name": "id",
          "type": "uint256"
        },
        {
          "internalType": "uint256",
          "name": "amount",
          "type": "uint256"
        },
        {
          "internalType": "bytes",
          "name": "data",
          "type": "bytes"
        }
      ],
      "name": "safeTransferFrom",
      "outputs": [],
      "stateMutability": "nonpayable",
      "type": "function"
    },
    {
      "inputs": [
        {
          "internalType": "address",
          "name": "operator",
          "type": "address"
        },
        {
          "internalType": "bool",
          "name": "approved",
          "type": "bool"
        }
      ],
      "name": "setApprovalForAll",
      "outputs": [],
      "stateMutability": "nonpayable",
      "type": "function"
    },
    {
      "inputs": [
        {
          "internalType": "bytes32",
          "name": "parentNode",
          "type": "bytes32"
        },
        {
          "internalType": "bytes32",
          "name": "labelhash",
          "type": "bytes32"
        },
        {
          "internalType": "uint32",
          "name": "fuses",
          "type": "uint32"
        },
        {
          "internalType": "uint64",
          "name": "expiry",
          "type": "uint64"
        }
      ],
      "name": "setChildFuses",
      "outputs": [],
      "stateMutability": "nonpayable",
      "type": "function"
    },
    {
      "inputs": [
        {
          "internalType": "address",
          "name": "controller",
          "type": "address"
        },
        {
          "internalType": "bool",
          "name": "active",
          "type": "bool"
        }
      ],
      "name": "setController",
      "outputs": [],
      "stateMutability": "nonpayable",
      "type": "function"
    },
    {
      "inputs": [
        {
          "internalType": "bytes32",
          "name": "node",
          "type": "bytes32"
        },
        {
          "internalType": "uint16",
          "name": "ownerControlledFuses",
          "type": "uint16"
        }
      ],
      "name": "setFuses",
      "outputs": [
        {
          "internalType": "uint32",
          "name": "",
          "type": "uint32"
        }
      ],
      "stateMutability": "nonpayable",
      "type": "function"
    },
    {
      "inputs": [
        {
          "internalType": "contract IMetadataService",
          "name": "_metadataService",
          "type": "address"
        }
      ],
      "name": "setMetadataService",
      "outputs": [],
      "stateMutability": "nonpayable",
      "type": "function"
    },
    {
      "inputs": [
        {
          "internalType": "bytes32",
          "name": "node",
          "type": "bytes32"
        },
        {
          "internalType": "address",
          "name": "owner",
          "type": "address"
        },
        {
          "internalType": "address",
          "name": "resolver",
          "type": "address"
        },
        {
          "internalType": "uint64",
          "name": "ttl",
          "type": "uint64"
        }
      ],
      "name": "setRecord",
      "outputs": [],
      "stateMutability": "nonpayable",
      "type": "function"
    },
    {
      "inputs": [
        {
          "internalType": "bytes32",
          "name": "node",
          "type": "bytes32"
        },
        {
          "internalType": "address",
          "name": "resolver",
          "type": "address"
        }
      ],
      "name": "setResolver",
      "outputs": [],
      "stateMutability": "nonpayable",
      "type": "function"
    },
    {
      "inputs": [
        {
          "internalType": "bytes32",
          "name": "parentNode",
          "type": "bytes32"
        },
        {
          "internalType": "string",
          "name": "label",
          "type": "string"
        },
        {
          "internalType": "address",
          "name": "owner",
          "type": "address"
        },
        {
          "internalType": "uint32",
          "name": "fuses",
          "type": "uint32"
        },
        {
          "internalType": "uint64",
          "name": "expiry",
          "type": "uint64"
        }
      ],
      "name": "setSubnodeOwner",
      "outputs": [
        {
          "internalType": "bytes32",
          "name": "node",
          "type": "bytes32"
        }
      ],
      "stateMutability": "nonpayable",
      "type": "function"
    },
    {
      "inputs": [
        {
          "internalType": "bytes32",
          "name": "parentNode",
          "type": "bytes32"
        },
        {
          "internalType": "string",
          "name": "label",
          "type": "string"
        },
        {
          "internalType": "address",
          "name": "owner",
          "type": "address"
        },
        {
          "internalType": "address",
          "name": "resolver",
          "type": "address"
        },
        {
          "internalType": "uint64",
          "name": "ttl",
          "type": "uint64"
        },
        {
          "internalType": "uint32",
          "name": "fuses",
          "type": "uint32"
        },
        {
          "internalType": "uint64",
          "name": "expiry",
          "type": "uint64"
        }
      ],
      "name": "setSubnodeRecord",
      "outputs": [
        {
          "internalType": "bytes32",
          "name": "node",
          "type": "bytes32"
        }
      ],
      "stateMutability": "nonpayable",
      "type": "function"
    },
    {
      "inputs": [
        {
          "internalType": "bytes32",
          "name": "node",
          "type": "bytes32"
        },
        {
          "internalType": "uint64",
          "name": "ttl",
          "type": "uint64"
        }
      ],
      "name": "setTTL",
      "outputs": [],
      "stateMutability": "nonpayable",
      "type": "function"
    },
    {
      "inputs": [
        {
          "internalType": "contract INameWrapperUpgrade",
          "name": "_upgradeAddress",
          "type": "address"
        }
      ],
      "name": "setUpgradeContract",
      "outputs": [],
      "stateMutability": "nonpayable",
      "type": "function"
    },
    {
      "inputs": [
        {
          "internalType": "bytes4",
          "name": "interfaceId",
          "type": "bytes4"
        }
      ],
      "name": "supportsInterface",
      "outputs": [
        {
          "internalType": "bool",
          "name": "",
          "type": "bool"
        }
      ],
      "stateMutability": "view",
      "type": "function"
    },
    {
      "inputs": [
        {
          "internalType": "address",
          "name": "newOwner",
          "type": "address"
        }
      ],
      "name": "transferOwnership",
      "outputs": [],
      "stateMutability": "nonpayable",
      "type": "function"
    },
    {
      "inputs": [
        {
          "internalType": "bytes32",
          "name": "parentNode",
          "type": "bytes32"
        },
        {
          "internalType": "bytes32",
          "name": "labelhash",
          "type": "bytes32"
        },
        {
          "internalType": "address",
          "name": "controller",
          "type": "address"
        }
      ],
      "name": "unwrap",
      "outputs": [],
      "stateMutability": "nonpayable",
      "type": "function"
    },
    {
      "inputs": [
        {
          "internalType": "bytes32",
          "name": "labelhash",
          "type": "bytes32"
        },
        {
          "internalType": "address",
          "name": "registrant",
          "type": "address"
        },
        {
          "internalType": "address",
          "name": "controller",
          "type": "address"
        }
      ],
      "name": "unwrapETH2LD",
      "outputs": [],
      "stateMutability": "nonpayable",
      "type": "function"
    },
    {
      "inputs": [
        {
          "internalType": "bytes",
          "name": "name",
          "type": "bytes"
        },
        {
          "internalType": "bytes",
          "name": "extraData",
          "type": "bytes"
        }
      ],
      "name": "upgrade",
      "outputs": [],
      "stateMutability": "nonpayable",
      "type": "function"
    },
    {
      "inputs": [],
      "name": "upgradeContract",
      "outputs": [
        {
          "internalType": "contract INameWrapperUpgrade",
          "name": "",
          "type": "address"
        }
      ],
      "stateMutability": "view",
      "type": "function"
    },
    {
      "inputs": [
        {
          "internalType": "uint256",
          "name": "tokenId",
          "type": "uint256"
        }
      ],
      "name": "uri",
      "outputs": [
        {
          "internalType": "string",
          "name": "",
          "type": "string"
        }
      ],
      "stateMutability": "view",
      "type": "function"
    },
    {
      "inputs": [
        {
          "internalType": "bytes",
          "name": "name",
          "type": "bytes"
        },
        {
          "internalType": "address",
          "name": "wrappedOwner",
          "type": "address"
        },
        {
          "internalType": "address",
          "name": "resolver",
          "type": "address"
        }
      ],
      "name": "wrap",
      "outputs": [],
      "stateMutability": "nonpayable",
      "type": "function"
    },
    {
      "inputs": [
        {
          "internalType": "string",
          "name": "label",
          "type": "string"
        },
        {
          "internalType": "address",
          "name": "wrappedOwner",
          "type": "address"
        },
        {
          "internalType": "uint16",
          "name": "ownerControlledFuses",
          "type": "uint16"
        },
        {
          "internalType": "address",
          "name": "resolver",
          "type": "address"
        }
      ],
      "name": "wrapETH2LD",
      "outputs": [],
      "stateMutability": "nonpayable",
      "type": "function"
    }
  ],
  "transactionHash": "0x3321feaccf0c90d8ef78b425c8877bf4cf8682f9dde91c0299652af25cb52b82",
  "args": [
    "0x00000000000C2E074eC69A0dFb2997BA6C7d2e1e",
    "0x57f1887a8BF19b14fC0dF6Fd9B2acc9Af147eA85",
    "0x269eb6AeDeEa030B96354Bc73f0A09eae3546e23"
  ],
  "numDeployments": 5,
  "solcInputHash": "2813443d96b2eb882a21ada25755af03",
  "bytecode": "0x60c06040523480156200001157600080fd5b5060405162006451380380620064518339810160408190526200003491620001f1565b6200003f3362000188565b6001600160a01b0383811660805282811660a052600580546001600160a01b031916918316919091179055600163fffeffff60a01b03197fafa26c20e8b3d9a2853d642cfe1021dae26242ffedfac91c97aab212c1a4b93b8190557fa6eef7e35abe7026729641147f7915573c7e97b47efa546f5f6e3230263bcb4955604080518082019091526001815260006020808301829052908052600690527f54cdd369e4e8a8515e52ca72ec816c2101831ad1f18bf44102ed171459c9b4f890620001099082620002ea565b506040805180820190915260058152626cae8d60e31b6020808301919091527f93cdeb708b7545dc668eb9280176169d1c33cfd8ed6f04690a0bcc88a93fc4ae600052600690527ffb9e8e321b8a5ec48f12a7b41f22c6e595d761285c9eb19d8dda7c99edf1b54f906200017e9082620002ea565b50505050620003b6565b600080546001600160a01b038381166001600160a01b0319831681178455604051919092169283917f8be0079c531659141344cd1fd0a4f28419497f9722a3daafe3b4186f6b6457e09190a35050565b6001600160a01b0381168114620001ee57600080fd5b50565b6000806000606084860312156200020757600080fd5b83516200021481620001d8565b60208501519093506200022781620001d8565b60408501519092506200023a81620001d8565b809150509250925092565b634e487b7160e01b600052604160045260246000fd5b600181811c908216806200027057607f821691505b6020821081036200029157634e487b7160e01b600052602260045260246000fd5b50919050565b601f821115620002e557600081815260208120601f850160051c81016020861015620002c05750805b601f850160051c820191505b81811015620002e157828155600101620002cc565b5050505b505050565b81516001600160401b0381111562000306576200030662000245565b6200031e816200031784546200025b565b8462000297565b602080601f8311600181146200035657600084156200033d5750858301515b600019600386901b1c1916600185901b178555620002e1565b600085815260208120601f198616915b82811015620003875788860151825594840194600190910190840162000366565b5085821015620003a65787850151600019600388901b60f8161c191681555b5050505050600190811b01905550565b60805160a051615f8e620004c3600039600081816104f301528181610b7b01528181610c5501528181610cdf01528181611c7701528181611d0c01528181611dba01528181611edc01528181611f5201528181611fde015281816122610152818161239d015281816124dc015281816126d60152818161275c0152612f8701526000818161054001528181610b0101528181610e4a01528181610ffe015281816110b0015281816114d9015281816124220152818161256101528181612807015281816129fe01528181612d02015281816131b20152818161326001528181613329015281816133a2015281816139ce01528181613ab201528181613d1a01526143cb0152615f8e6000f3fe608060405234801561001057600080fd5b506004361061031f5760003560e01c80636352211e116101a7578063c93ab3fd116100ee578063e985e9c511610097578063f242432a11610071578063f242432a146107d7578063f2fde38b146107ea578063fd0cd0d9146107fd57600080fd5b8063e985e9c514610768578063eb8ae530146107a4578063ed70554d146107b757600080fd5b8063d9a50c12116100c8578063d9a50c121461071f578063da8c229e14610732578063e0dba60f1461075557600080fd5b8063c93ab3fd146106e6578063cf408823146106f9578063d8c9921a1461070c57600080fd5b8063a22cb46511610150578063b6bcad261161012a578063b6bcad26146106ad578063c475abff146106c0578063c658e086146106d357600080fd5b8063a22cb46514610674578063a401498214610687578063adf4960a1461069a57600080fd5b80638b4dfa75116101815780638b4dfa751461063d5780638cf8b41e146106505780638da5cb5b1461066357600080fd5b80636352211e146105f65780636e5d6ad214610609578063715018a61461063557600080fd5b806320c38e2b1161026b5780633fb68a0d116102145780634e1273f4116101ee5780634e1273f4146105b057806353095467146105d05780635d3590d5146105e357600080fd5b80633fb68a0d14610562578063402906fc1461057557806341415eab1461059d57600080fd5b80632eb2c2d6116102455780632eb2c2d61461051557806333c69ea9146105285780633f15457f1461053b57600080fd5b806320c38e2b146104c857806324c1af44146104db5780632b20e397146104ee57600080fd5b80630e89341c116102cd5780631534e177116102a75780631534e1771461048f5780631896f70a146104a25780631f4e1504146104b557600080fd5b80630e89341c1461043d57806314ab903814610450578063150b7a021461046357600080fd5b806306fdde03116102fe57806306fdde03146103b4578063081812fc146103fd578063095ea7b31461042857600080fd5b8062fdd58e146103245780630178fe3f1461034a57806301ffc9a714610391575b600080fd5b610337610332366004614dc6565b610810565b6040519081526020015b60405180910390f35b61035d610358366004614df2565b6108cf565b604080516001600160a01b03909416845263ffffffff909216602084015267ffffffffffffffff1690820152606001610341565b6103a461039f366004614e21565b6108ff565b6040519015158152602001610341565b6103f06040518060400160405280600b81526020017f4e616d655772617070657200000000000000000000000000000000000000000081525081565b6040516103419190614e8e565b61041061040b366004614df2565b610958565b6040516001600160a01b039091168152602001610341565b61043b610436366004614dc6565b61099d565b005b6103f061044b366004614df2565b6109e3565b61043b61045e366004614ebe565b610a55565b610476610471366004614f33565b610b6e565b6040516001600160e01b03199091168152602001610341565b61043b61049d366004614fa6565b610d80565b61043b6104b0366004614fc3565b610db7565b600754610410906001600160a01b031681565b6103f06104d6366004614df2565b610e79565b6103376104e93660046150ce565b610f13565b6104107f000000000000000000000000000000000000000000000000000000000000000081565b61043b6105233660046151f6565b611127565b61043b6105363660046152a4565b611462565b6104107f000000000000000000000000000000000000000000000000000000000000000081565b6103a4610570366004614fc3565b611670565b6105886105833660046152fc565b61170a565b60405163ffffffff9091168152602001610341565b6103a46105ab366004614fc3565b6117ac565b6105c36105be36600461531f565b611809565b604051610341919061541d565b600554610410906001600160a01b031681565b61043b6105f1366004615430565b611947565b610410610604366004614df2565b6119e1565b61061c610617366004615471565b6119ec565b60405167ffffffffffffffff9091168152602001610341565b61043b611b1b565b61043b61064b3660046154a6565b611b2f565b61043b61065e3660046154e8565b611cd9565b6000546001600160a01b0316610410565b61043b610682366004615571565b61209c565b61033761069536600461559f565b612186565b6103a46106a8366004615620565b612336565b61043b6106bb366004614fa6565b61235b565b6103376106ce366004615643565b6125c0565b6103376106e1366004615665565b6128cc565b61043b6106f43660046156d8565b612ad9565b61043b610707366004615744565b612c40565b61043b61071a36600461577c565b612df9565b6103a461072d366004615643565b612f09565b6103a4610740366004614fa6565b60046020526000908152604090205460ff1681565b61043b610763366004615571565b613016565b6103a46107763660046157aa565b6001600160a01b03918216600090815260026020908152604080832093909416825291909152205460ff1690565b61043b6107b23660046157d8565b61307e565b6103376107c5366004614df2565b60016020526000908152604090205481565b61043b6107e5366004615840565b613449565b61043b6107f8366004614fa6565b613566565b6103a461080b366004614df2565b6135f3565b60006001600160a01b0383166108935760405162461bcd60e51b815260206004820152602b60248201527f455243313135353a2062616c616e636520717565727920666f7220746865207a60448201527f65726f206164647265737300000000000000000000000000000000000000000060648201526084015b60405180910390fd5b600061089e836119e1565b9050836001600160a01b0316816001600160a01b0316036108c35760019150506108c9565b60009150505b92915050565b60008181526001602052604090205460a081901c60c082901c6108f38383836136cb565b90959094509092509050565b60006001600160e01b031982167fd82c42d800000000000000000000000000000000000000000000000000000000148061094957506001600160e01b03198216630a85bd0160e11b145b806108c957506108c982613702565b600080610964836119e1565b90506001600160a01b03811661097d5750600092915050565b6000838152600360205260409020546001600160a01b03165b9392505050565b60006109a8826108cf565b50915050603f1960408216016109d45760405163a2a7201360e01b81526004810183905260240161088a565b6109de8383613784565b505050565b6005546040516303a24d0760e21b8152600481018390526060916001600160a01b031690630e89341c90602401600060405180830381865afa158015610a2d573d6000803e3d6000fd5b505050506040513d6000823e601f3d908101601f191682016040526108c991908101906158a9565b81610a6081336117ac565b610a865760405163168ab55d60e31b81526004810182905233602482015260440161088a565b8260106000610a94836108cf565b5091505063ffffffff8282161615610ac25760405163a2a7201360e01b81526004810184905260240161088a565b6040517f14ab90380000000000000000000000000000000000000000000000000000000081526004810187905267ffffffffffffffff861660248201527f00000000000000000000000000000000000000000000000000000000000000006001600160a01b0316906314ab9038906044015b600060405180830381600087803b158015610b4e57600080fd5b505af1158015610b62573d6000803e3d6000fd5b50505050505050505050565b6000336001600160a01b037f00000000000000000000000000000000000000000000000000000000000000001614610bd2576040517f1931a53800000000000000000000000000000000000000000000000000000000815260040160405180910390fd5b6000808080610be386880188615921565b83516020850120939750919550935091508890808214610c39576040517fc65c3ccc000000000000000000000000000000000000000000000000000000008152600481018290526024810183905260440161088a565b604051630a3b53db60e21b8152600481018390523060248201527f00000000000000000000000000000000000000000000000000000000000000006001600160a01b0316906328ed4f6c90604401600060405180830381600087803b158015610ca157600080fd5b505af1158015610cb5573d6000803e3d6000fd5b5050604051636b727d4360e11b8152600481018d9052600092506276a70091506001600160a01b037f0000000000000000000000000000000000000000000000000000000000000000169063d6e4fa8690602401602060405180830381865afa158015610d26573d6000803e3d6000fd5b505050506040513d601f19601f82011682018060405250810190610d4a9190615989565b610d5491906159b8565b9050610d6787878761ffff1684886138ce565b50630a85bd0160e11b9c9b505050505050505050505050565b610d886139fd565b6005805473ffffffffffffffffffffffffffffffffffffffff19166001600160a01b0392909216919091179055565b81610dc281336117ac565b610de85760405163168ab55d60e31b81526004810182905233602482015260440161088a565b8260086000610df6836108cf565b5091505063ffffffff8282161615610e245760405163a2a7201360e01b81526004810184905260240161088a565b604051630c4b7b8560e11b8152600481018790526001600160a01b0386811660248301527f00000000000000000000000000000000000000000000000000000000000000001690631896f70a90604401610b34565b60066020526000908152604090208054610e92906159e0565b80601f0160208091040260200160405190810160405280929190818152602001828054610ebe906159e0565b8015610f0b5780601f10610ee057610100808354040283529160200191610f0b565b820191906000526020600020905b815481529060010190602001808311610eee57829003601f168201915b505050505081565b600087610f208133611670565b610f465760405163168ab55d60e31b81526004810182905233602482015260440161088a565b87516020890120610f7e8a82604080516020808201949094528082019290925280518083038201815260609092019052805191012090565b9250610f8a8a84613a57565b610f948386613b96565b610f9f8a848b613bc9565b50610fac8a848787613c96565b9350610fb783613cdc565b61106d576040516305ef2c7f60e41b8152600481018b9052602481018290523060448201526001600160a01b03888116606483015267ffffffffffffffff881660848301527f00000000000000000000000000000000000000000000000000000000000000001690635ef2c7f09060a401600060405180830381600087803b15801561104257600080fd5b505af1158015611056573d6000803e3d6000fd5b505050506110688a848b8b8989613d95565b61111a565b6040516305ef2c7f60e41b8152600481018b9052602481018290523060448201526001600160a01b03888116606483015267ffffffffffffffff881660848301527f00000000000000000000000000000000000000000000000000000000000000001690635ef2c7f09060a401600060405180830381600087803b1580156110f457600080fd5b505af1158015611108573d6000803e3d6000fd5b5050505061111a8a848b8b8989613dcc565b5050979650505050505050565b815183511461119e5760405162461bcd60e51b815260206004820152602860248201527f455243313135353a2069647320616e6420616d6f756e7473206c656e6774682060448201527f6d69736d61746368000000000000000000000000000000000000000000000000606482015260840161088a565b6001600160a01b0384166112025760405162461bcd60e51b815260206004820152602560248201527f455243313135353a207472616e7366657220746f20746865207a65726f206164604482015264647265737360d81b606482015260840161088a565b6001600160a01b03851633148061123c57506001600160a01b038516600090815260026020908152604080832033845290915290205460ff165b6112ae5760405162461bcd60e51b815260206004820152603260248201527f455243313135353a207472616e736665722063616c6c6572206973206e6f742060448201527f6f776e6572206e6f7220617070726f7665640000000000000000000000000000606482015260840161088a565b60005b83518110156113f55760008482815181106112ce576112ce615a1a565b6020026020010151905060008483815181106112ec576112ec615a1a565b602002602001015190506000806000611304856108cf565b925092509250611315858383613e90565b83600114801561133657508a6001600160a01b0316836001600160a01b0316145b6113955760405162461bcd60e51b815260206004820152602a60248201527f455243313135353a20696e73756666696369656e742062616c616e636520666f60448201526939103a3930b739b332b960b11b606482015260840161088a565b60008581526001602052604090206001600160a01b038b1663ffffffff60a01b60a085901b161777ffffffffffffffffffffffffffffffffffffffffffffffff1960c084901b161790555050505050806113ee90615a30565b90506112b1565b50836001600160a01b0316856001600160a01b0316336001600160a01b03167f4a39dc06d4c0dbc64b70af90fd698a233a518aa5d07e595d983b8c0526c8f7fb8686604051611445929190615a49565b60405180910390a461145b338686868686613f8a565b5050505050565b604080516020808201879052818301869052825180830384018152606090920190925280519101206114948184613b96565b600080806114a1846108cf565b919450925090506001600160a01b038316158061155057506040516302571be360e01b81526004810185905230906001600160a01b037f000000000000000000000000000000000000000000000000000000000000000016906302571be390602401602060405180830381865afa158015611520573d6000803e3d6000fd5b505050506040513d601f19601f820116820180604052508101906115449190615a77565b6001600160a01b031614155b15611587576040517f5374b59900000000000000000000000000000000000000000000000000000000815260040160405180910390fd5b6000806115938a6108cf565b90935091508a90506115d4576115a986336117ac565b6115cf5760405163168ab55d60e31b81526004810187905233602482015260440161088a565b611604565b6115de8a33611670565b6116045760405163168ab55d60e31b81526004810187905233602482015260440161088a565b61160f868984614144565b61161a87848361417f565b96506201000084161580159061163e57508363ffffffff1688851763ffffffff1614155b1561165f5760405163a2a7201360e01b81526004810187905260240161088a565b96831796610b6286868a868b6141c9565b600080808061167e866108cf565b925092509250846001600160a01b0316836001600160a01b031614806116c957506001600160a01b0380841660009081526002602090815260408083209389168352929052205460ff165b806116ed57506001600160a01b0385166116e287610958565b6001600160a01b0316145b801561170057506116fe8282614273565b155b9695505050505050565b60008261171781336117ac565b61173d5760405163168ab55d60e31b81526004810182905233602482015260440161088a565b836002600061174b836108cf565b5091505063ffffffff82821616156117795760405163a2a7201360e01b81526004810184905260240161088a565b600080806117868a6108cf565b92509250925061179f8a84848c61ffff161784856141c9565b5098975050505050505050565b60008080806117ba866108cf565b925092509250846001600160a01b0316836001600160a01b031614806116ed57506001600160a01b0380841660009081526002602090815260408083209389168352929052205460ff166116ed565b606081518351146118825760405162461bcd60e51b815260206004820152602960248201527f455243313135353a206163636f756e747320616e6420696473206c656e67746860448201527f206d69736d617463680000000000000000000000000000000000000000000000606482015260840161088a565b6000835167ffffffffffffffff81111561189e5761189e614ff3565b6040519080825280602002602001820160405280156118c7578160200160208202803683370190505b50905060005b845181101561193f576119128582815181106118eb576118eb615a1a565b602002602001015185838151811061190557611905615a1a565b6020026020010151610810565b82828151811061192457611924615a1a565b602090810291909101015261193881615a30565b90506118cd565b509392505050565b61194f6139fd565b6040517fa9059cbb0000000000000000000000000000000000000000000000000000000081526001600160a01b0383811660048301526024820183905284169063a9059cbb906044016020604051808303816000875af11580156119b7573d6000803e3d6000fd5b505050506040513d601f19601f820116820180604052508101906119db9190615a94565b50505050565b60006108c9826142a4565b604080516020808201869052818301859052825180830384018152606090920190925280519101206000906000611a238633611670565b905080158015611a3a5750611a3882336117ac565b155b15611a615760405163168ab55d60e31b81526004810183905233602482015260440161088a565b60008080611a6e856108cf565b92509250925083158015611a855750620400008216155b15611aa65760405163a2a7201360e01b81526004810186905260240161088a565b6000611ab18a6108cf565b92505050611ac088838361417f565b9750611ace8685858b6142ba565b60405167ffffffffffffffff8916815286907ff675815a0817338f93a7da433f6bd5f5542f1029b11b455191ac96c7f6a9b1329060200160405180910390a2509598975050505050505050565b611b236139fd565b611b2d6000614313565b565b604080517f93cdeb708b7545dc668eb9280176169d1c33cfd8ed6f04690a0bcc88a93fc4ae60208083019190915281830186905282518083038401815260609092019092528051910120611b8381336117ac565b611ba95760405163168ab55d60e31b81526004810182905233602482015260440161088a565b306001600160a01b03841603611bdd57604051632ca49b0d60e11b81526001600160a01b038416600482015260240161088a565b604080517f93cdeb708b7545dc668eb9280176169d1c33cfd8ed6f04690a0bcc88a93fc4ae60208083019190915281830187905282518083038401815260609092019092528051910120611c32905b83614370565b6040517f42842e0e0000000000000000000000000000000000000000000000000000000081523060048201526001600160a01b038481166024830152604482018690527f000000000000000000000000000000000000000000000000000000000000000016906342842e0e90606401600060405180830381600087803b158015611cbb57600080fd5b505af1158015611ccf573d6000803e3d6000fd5b5050505050505050565b60008585604051611ceb929190615ab1565b6040519081900381206331a9108f60e11b82526004820181905291506000907f00000000000000000000000000000000000000000000000000000000000000006001600160a01b031690636352211e90602401602060405180830381865afa158015611d5b573d6000803e3d6000fd5b505050506040513d601f19601f82011682018060405250810190611d7f9190615a77565b90506001600160a01b0381163314801590611e27575060405163e985e9c560e01b81526001600160a01b0382811660048301523360248301527f0000000000000000000000000000000000000000000000000000000000000000169063e985e9c590604401602060405180830381865afa158015611e01573d6000803e3d6000fd5b505050506040513d601f19601f82011682018060405250810190611e259190615a94565b155b15611e9757604080517f93cdeb708b7545dc668eb9280176169d1c33cfd8ed6f04690a0bcc88a93fc4ae6020808301919091528183018590528251808303840181526060830193849052805191012063168ab55d60e31b909252606481019190915233608482015260a40161088a565b6040517f23b872dd0000000000000000000000000000000000000000000000000000000081526001600160a01b038281166004830152306024830152604482018490527f000000000000000000000000000000000000000000000000000000000000000016906323b872dd90606401600060405180830381600087803b158015611f2057600080fd5b505af1158015611f34573d6000803e3d6000fd5b5050604051630a3b53db60e21b8152600481018590523060248201527f00000000000000000000000000000000000000000000000000000000000000006001600160a01b031692506328ed4f6c9150604401600060405180830381600087803b158015611fa057600080fd5b505af1158015611fb4573d6000803e3d6000fd5b5050604051636b727d4360e11b815260048101859052600092506276a70091506001600160a01b037f0000000000000000000000000000000000000000000000000000000000000000169063d6e4fa8690602401602060405180830381865afa158015612025573d6000803e3d6000fd5b505050506040513d601f19601f820116820180604052508101906120499190615989565b61205391906159b8565b9050611ccf88888080601f0160208091040260200160405190810160405280939291908181526020018383808284376000920191909152508a9250505061ffff881684886138ce565b6001600160a01b038216330361211a5760405162461bcd60e51b815260206004820152602960248201527f455243313135353a2073657474696e6720617070726f76616c2073746174757360448201527f20666f722073656c660000000000000000000000000000000000000000000000606482015260840161088a565b3360008181526002602090815260408083206001600160a01b03871680855290835292819020805460ff191686151590811790915590519081529192917f17307eab39ab6107e8899845ad3d59bd9653f200f220920489ca2b5937696c31910160405180910390a35050565b3360009081526004602052604081205460ff1661220b5760405162461bcd60e51b815260206004820152602860248201527f436f6e74726f6c6c61626c653a2043616c6c6572206973206e6f74206120636f60448201527f6e74726f6c6c6572000000000000000000000000000000000000000000000000606482015260840161088a565b6000878760405161221d929190615ab1565b6040519081900381207ffca247ac000000000000000000000000000000000000000000000000000000008252600482018190523060248301526044820187905291507f00000000000000000000000000000000000000000000000000000000000000006001600160a01b03169063fca247ac906064016020604051808303816000875af11580156122b2573d6000803e3d6000fd5b505050506040513d601f19601f820116820180604052508101906122d69190615989565b915061232b88888080601f0160208091040260200160405190810160405280939291908181526020018383808284376000920191909152508a9250505061ffff86166123256276a700876159b8565b886138ce565b509695505050505050565b600080612342846108cf565b50841663ffffffff908116908516149250505092915050565b6123636139fd565b6007546001600160a01b0316156124835760075460405163a22cb46560e01b81526001600160a01b039182166004820152600060248201527f00000000000000000000000000000000000000000000000000000000000000009091169063a22cb46590604401600060405180830381600087803b1580156123e357600080fd5b505af11580156123f7573d6000803e3d6000fd5b505060075460405163a22cb46560e01b81526001600160a01b039182166004820152600060248201527f0000000000000000000000000000000000000000000000000000000000000000909116925063a22cb4659150604401600060405180830381600087803b15801561246a57600080fd5b505af115801561247e573d6000803e3d6000fd5b505050505b6007805473ffffffffffffffffffffffffffffffffffffffff19166001600160a01b038316908117909155156125bd5760075460405163a22cb46560e01b81526001600160a01b039182166004820152600160248201527f00000000000000000000000000000000000000000000000000000000000000009091169063a22cb46590604401600060405180830381600087803b15801561252257600080fd5b505af1158015612536573d6000803e3d6000fd5b505060075460405163a22cb46560e01b81526001600160a01b039182166004820152600160248201527f0000000000000000000000000000000000000000000000000000000000000000909116925063a22cb4659150604401600060405180830381600087803b1580156125a957600080fd5b505af115801561145b573d6000803e3d6000fd5b50565b3360009081526004602052604081205460ff166126455760405162461bcd60e51b815260206004820152602860248201527f436f6e74726f6c6c61626c653a2043616c6c6572206973206e6f74206120636f60448201527f6e74726f6c6c6572000000000000000000000000000000000000000000000000606482015260840161088a565b604080517f93cdeb708b7545dc668eb9280176169d1c33cfd8ed6f04690a0bcc88a93fc4ae602080830191909152818301869052825180830384018152606090920190925280519101206000906040517fc475abff00000000000000000000000000000000000000000000000000000000815260048101869052602481018590529091506000906001600160a01b037f0000000000000000000000000000000000000000000000000000000000000000169063c475abff906044016020604051808303816000875af115801561271f573d6000803e3d6000fd5b505050506040513d601f19601f820116820180604052508101906127439190615989565b6040516331a9108f60e11b8152600481018790529091507f00000000000000000000000000000000000000000000000000000000000000006001600160a01b031690636352211e90602401602060405180830381865afa9250505080156127c7575060408051601f3d908101601f191682019092526127c491810190615a77565b60015b6127d45791506108c99050565b6001600160a01b0381163014158061287e57506040516302571be360e01b81526004810184905230906001600160a01b037f000000000000000000000000000000000000000000000000000000000000000016906302571be390602401602060405180830381865afa15801561284e573d6000803e3d6000fd5b505050506040513d601f19601f820116820180604052508101906128729190615a77565b6001600160a01b031614155b1561288d575091506108c99050565b50600061289d6276a700836159b8565b60008481526001602052604090205490915060a081901c6128c0858383866142ba565b50919695505050505050565b6000866128d98133611670565b6128ff5760405163168ab55d60e31b81526004810182905233602482015260440161088a565b60008787604051612911929190615ab1565b6040518091039020905061294c8982604080516020808201949094528082019290925280518083038201815260609092019052805191012090565b92506129588984613a57565b6129628386613b96565b60006129a58a858b8b8080601f016020809104026020016040519081016040528093929190818152602001838380828437600092019190915250613bc992505050565b90506129b38a858888613c96565b94506129be84613cdc565b612a86576040517f06ab5923000000000000000000000000000000000000000000000000000000008152600481018b9052602481018390523060448201527f00000000000000000000000000000000000000000000000000000000000000006001600160a01b0316906306ab5923906064016020604051808303816000875af1158015612a4f573d6000803e3d6000fd5b505050506040513d601f19601f82011682018060405250810190612a739190615989565b50612a818482898989614462565b612acc565b612acc8a858b8b8080601f0160208091040260200160405190810160405280939291908181526020018383808284376000920191909152508d92508c91508b9050613dcc565b5050509695505050505050565b6000612b1f600086868080601f01602080910402602001604051908101604052809392919081815260200183838082843760009201919091525092939250506144a49050565b6007549091506001600160a01b0316612b64576040517f24c1d6d400000000000000000000000000000000000000000000000000000000815260040160405180910390fd5b612b6e81336117ac565b612b945760405163168ab55d60e31b81526004810182905233602482015260440161088a565b60008080612ba1846108cf565b91945092509050612bb184614563565b6007546040517e3093140000000000000000000000000000000000000000000000000000000081526001600160a01b03909116906230931490612c04908b908b908890889088908e908e90600401615aea565b600060405180830381600087803b158015612c1e57600080fd5b505af1158015612c32573d6000803e3d6000fd5b505050505050505050505050565b83612c4b81336117ac565b612c715760405163168ab55d60e31b81526004810182905233602482015260440161088a565b84601c6000612c7f836108cf565b5091505063ffffffff8282161615612cad5760405163a2a7201360e01b81526004810184905260240161088a565b6040517fcf408823000000000000000000000000000000000000000000000000000000008152600481018990523060248201526001600160a01b03878116604483015267ffffffffffffffff871660648301527f0000000000000000000000000000000000000000000000000000000000000000169063cf40882390608401600060405180830381600087803b158015612d4657600080fd5b505af1158015612d5a573d6000803e3d6000fd5b5050506001600160a01b0388169050612dc1576000612d78896108cf565b509150506201ffff1962020000821601612db057604051632ca49b0d60e11b81526001600160a01b038916600482015260240161088a565b612dbb896000614370565b50611ccf565b6000612dcc896119e1565b9050612dee81898b60001c600160405180602001604052806000815250614643565b505050505050505050565b60408051602080820186905281830185905282518083038401815260609092019092528051910120612e2b81336117ac565b612e515760405163168ab55d60e31b81526004810182905233602482015260440161088a565b7f6c32148f748aba23997146d7fe89e962e3cc30271290fb96f5f4337756c03b528401612e915760405163615a470360e01b815260040160405180910390fd5b6001600160a01b0382161580612eaf57506001600160a01b03821630145b15612ed857604051632ca49b0d60e11b81526001600160a01b038316600482015260240161088a565b604080516020808201879052818301869052825180830384018152606090920190925280519101206119db90611c2c565b604080516020808201859052818301849052825180830384018152606090920190925280519101206000906000612f3f82613cdc565b90507f93cdeb708b7545dc668eb9280176169d1c33cfd8ed6f04690a0bcc88a93fc4ae8514612f715791506108c99050565b6040516331a9108f60e11b8152600481018590527f00000000000000000000000000000000000000000000000000000000000000006001600160a01b031690636352211e90602401602060405180830381865afa925050508015612ff2575060408051601f3d908101601f19168201909252612fef91810190615a77565b60015b613001576000925050506108c9565b6001600160a01b0316301492506108c9915050565b61301e6139fd565b6001600160a01b038216600081815260046020908152604091829020805460ff191685151590811790915591519182527f4c97694570a07277810af7e5669ffd5f6a2d6b74b6e9a274b8b870fd5114cf8791015b60405180910390a25050565b6000806130c5600087878080601f01602080910402602001604051908101604052809392919081815260200183838082843760009201919091525092939250506147a69050565b91509150600061310e8288888080601f01602080910402602001604051908101604052809392919081815260200183838082843760009201919091525092939250506144a49050565b604080516020808201849052818301879052825180830384018152606090920190925280519101209091506000906000818152600660205260409020909150613158888a83615b90565b507f6c32148f748aba23997146d7fe89e962e3cc30271290fb96f5f4337756c03b5282016131995760405163615a470360e01b815260040160405180910390fd5b6040516302571be360e01b8152600481018290526000907f00000000000000000000000000000000000000000000000000000000000000006001600160a01b0316906302571be390602401602060405180830381865afa158015613201573d6000803e3d6000fd5b505050506040513d601f19601f820116820180604052508101906132259190615a77565b90506001600160a01b03811633148015906132cd575060405163e985e9c560e01b81526001600160a01b0382811660048301523360248301527f0000000000000000000000000000000000000000000000000000000000000000169063e985e9c590604401602060405180830381865afa1580156132a7573d6000803e3d6000fd5b505050506040513d601f19601f820116820180604052508101906132cb9190615a94565b155b156132f45760405163168ab55d60e31b81526004810183905233602482015260440161088a565b6001600160a01b0386161561338657604051630c4b7b8560e11b8152600481018390526001600160a01b0387811660248301527f00000000000000000000000000000000000000000000000000000000000000001690631896f70a90604401600060405180830381600087803b15801561336d57600080fd5b505af1158015613381573d6000803e3d6000fd5b505050505b604051635b0fc9c360e01b8152600481018390523060248201527f00000000000000000000000000000000000000000000000000000000000000006001600160a01b031690635b0fc9c390604401600060405180830381600087803b1580156133ee57600080fd5b505af1158015613402573d6000803e3d6000fd5b50505050612dee828a8a8080601f01602080910402602001604051908101604052809392919081815260200183838082843760009201829052508d93509150819050614462565b6001600160a01b0384166134ad5760405162461bcd60e51b815260206004820152602560248201527f455243313135353a207472616e7366657220746f20746865207a65726f206164604482015264647265737360d81b606482015260840161088a565b6001600160a01b0385163314806134e757506001600160a01b038516600090815260026020908152604080832033845290915290205460ff165b6135595760405162461bcd60e51b815260206004820152602960248201527f455243313135353a2063616c6c6572206973206e6f74206f776e6572206e6f7260448201527f20617070726f7665640000000000000000000000000000000000000000000000606482015260840161088a565b61145b8585858585614643565b61356e6139fd565b6001600160a01b0381166135ea5760405162461bcd60e51b815260206004820152602660248201527f4f776e61626c653a206e6577206f776e657220697320746865207a65726f206160448201527f6464726573730000000000000000000000000000000000000000000000000000606482015260840161088a565b6125bd81614313565b6000818152600660205260408120805482919061360f906159e0565b80601f016020809104026020016040519081016040528092919081815260200182805461363b906159e0565b80156136885780601f1061365d57610100808354040283529160200191613688565b820191906000526020600020905b81548152906001019060200180831161366b57829003601f168201915b5050505050905080516000036136a15750600092915050565b6000806136ae83826147a6565b909250905060006136bf84836144a4565b90506117008184612f09565b600080428367ffffffffffffffff1610156136f95761ffff19620100008516016136f457600094505b600093505b50929391925050565b60006001600160e01b031982167fd9b67a2600000000000000000000000000000000000000000000000000000000148061374c57506001600160e01b031982166303a24d0760e21b145b806108c957507f01ffc9a7000000000000000000000000000000000000000000000000000000006001600160e01b03198316146108c9565b600061378f826119e1565b9050806001600160a01b0316836001600160a01b0316036138185760405162461bcd60e51b815260206004820152602160248201527f4552433732313a20617070726f76616c20746f2063757272656e74206f776e6560448201527f7200000000000000000000000000000000000000000000000000000000000000606482015260840161088a565b336001600160a01b038216148061385257506001600160a01b038116600090815260026020908152604080832033845290915290205460ff165b6138c45760405162461bcd60e51b815260206004820152603d60248201527f4552433732313a20617070726f76652063616c6c6572206973206e6f7420746f60448201527f6b656e206f776e6572206f7220617070726f76656420666f7220616c6c000000606482015260840161088a565b6109de838361485d565b8451602086012060006139287f93cdeb708b7545dc668eb9280176169d1c33cfd8ed6f04690a0bcc88a93fc4ae83604080516020808201949094528082019290925280518083038201815260609092019052805191012090565b9050600061396b886040518060400160405280600581526020017f03657468000000000000000000000000000000000000000000000000000000008152506148d8565b60008381526006602052604090209091506139868282615c50565b50613999828289620300008a1789614462565b6001600160a01b03841615611ccf57604051630c4b7b8560e11b8152600481018390526001600160a01b0385811660248301527f00000000000000000000000000000000000000000000000000000000000000001690631896f70a90604401612c04565b6000546001600160a01b03163314611b2d5760405162461bcd60e51b815260206004820181905260248201527f4f776e61626c653a2063616c6c6572206973206e6f7420746865206f776e6572604482015260640161088a565b60008080613a64846108cf565b919450925090504267ffffffffffffffff821610808015613b2857506001600160a01b0384161580613b2857506040516302571be360e01b8152600481018690526000906001600160a01b037f000000000000000000000000000000000000000000000000000000000000000016906302571be390602401602060405180830381865afa158015613af9573d6000803e3d6000fd5b505050506040513d601f19601f82011682018060405250810190613b1d9190615a77565b6001600160a01b0316145b15613b67576000613b38876108cf565b509150506020811615613b615760405163a2a7201360e01b81526004810187905260240161088a565b50613b8e565b62010000831615613b8e5760405163a2a7201360e01b81526004810186905260240161088a565b505050505050565b63fffdffff81811763ffffffff1614613bc55760405163a2a7201360e01b81526004810183905260240161088a565b5050565b60606000613c7283600660008881526020019081526020016000208054613bef906159e0565b80601f0160208091040260200160405190810160405280929190818152602001828054613c1b906159e0565b8015613c685780601f10613c3d57610100808354040283529160200191613c68565b820191906000526020600020905b815481529060010190602001808311613c4b57829003601f168201915b50505050506148d8565b6000858152600660205260409020909150613c8d8282615c50565b50949350505050565b600080613ca2856108cf565b92505050600080613cb58860001c6108cf565b9250925050613cc5878784614144565b613cd085848361417f565b98975050505050505050565b600080613ce8836119e1565b6001600160a01b0316141580156108c957506040516302571be360e01b81526004810183905230906001600160a01b037f000000000000000000000000000000000000000000000000000000000000000016906302571be390602401602060405180830381865afa158015613d61573d6000803e3d6000fd5b505050506040513d601f19601f82011682018060405250810190613d859190615a77565b6001600160a01b03161492915050565b60008681526006602052604081208054613db4918791613bef906159e0565b9050613dc38682868686614462565b50505050505050565b60008080613dd9886108cf565b9250925092506000613e0388600660008d81526020019081526020016000208054613bef906159e0565b60008a8152600660205260409020805491925090613e20906159e0565b9050600003613e43576000898152600660205260409020613e418282615c50565b505b613e52898588861785896141c9565b6001600160a01b038716613e7057613e6b896000614370565b610b62565b610b6284888b60001c600160405180602001604052806000815250614643565b6201ffff1962020000831601613eb057613ead6276a70082615d10565b90505b428167ffffffffffffffff161015613f2d5762010000821615613f285760405162461bcd60e51b815260206004820152602a60248201527f455243313135353a20696e73756666696369656e742062616c616e636520666f60448201526939103a3930b739b332b960b11b606482015260840161088a565b613f52565b6004821615613f525760405163a2a7201360e01b81526004810184905260240161088a565b604082166000036109de5750506000908152600360205260409020805473ffffffffffffffffffffffffffffffffffffffff19169055565b6001600160a01b0384163b15613b8e5760405163bc197c8160e01b81526001600160a01b0385169063bc197c8190613fce9089908990889088908890600401615d31565b6020604051808303816000875af1925050508015614009575060408051601f3d908101601f1916820190925261400691810190615d83565b60015b6140be57614015615da0565b806308c379a00361404e5750614029615dbc565b806140345750614050565b8060405162461bcd60e51b815260040161088a9190614e8e565b505b60405162461bcd60e51b815260206004820152603460248201527f455243313135353a207472616e7366657220746f206e6f6e204552433131353560448201527f526563656976657220696d706c656d656e746572000000000000000000000000606482015260840161088a565b6001600160e01b0319811663bc197c8160e01b14613dc35760405162461bcd60e51b815260206004820152602860248201527f455243313135353a204552433131353552656365697665722072656a6563746560448201527f6420746f6b656e73000000000000000000000000000000000000000000000000606482015260840161088a565b63ffff0000821615801590600183161590829061415e5750805b1561145b5760405163a2a7201360e01b81526004810186905260240161088a565b60008167ffffffffffffffff168467ffffffffffffffff1611156141a1578193505b8267ffffffffffffffff168467ffffffffffffffff1610156141c1578293505b509192915050565b6141d5858585846142ba565b60405163ffffffff8416815285907f39873f00c80f4f94b7bd1594aebcf650f003545b74824d57ddf4939e3ff3a34b9060200160405180910390a28167ffffffffffffffff168167ffffffffffffffff16111561145b5760405167ffffffffffffffff8216815285907ff675815a0817338f93a7da433f6bd5f5542f1029b11b455191ac96c7f6a9b132906020015b60405180910390a25050505050565b6000620200008381161480156109965750426142926276a70084615d10565b67ffffffffffffffff16109392505050565b6000806142b0836108cf565b5090949350505050565b6142c48483614981565b60008481526001602052604090206001600160a01b03841663ffffffff60a01b60a085901b161777ffffffffffffffffffffffffffffffffffffffffffffffff1960c084901b161790556119db565b600080546001600160a01b0383811673ffffffffffffffffffffffffffffffffffffffff19831681178455604051919092169283917f8be0079c531659141344cd1fd0a4f28419497f9722a3daafe3b4186f6b6457e09190a35050565b61437b826001612336565b1561439c5760405163a2a7201360e01b81526004810183905260240161088a565b6143a582614563565b604051635b0fc9c360e01b8152600481018390526001600160a01b0382811660248301527f00000000000000000000000000000000000000000000000000000000000000001690635b0fc9c390604401600060405180830381600087803b15801561440f57600080fd5b505af1158015614423573d6000803e3d6000fd5b50506040516001600160a01b03841681528492507fee2ba1195c65bcf218a83d874335c6bf9d9067b4c672f3c3bf16cf40de7586c49150602001613072565b61446e858484846149ba565b847f8ce7013e8abebc55c3890a68f5a27c67c3f7efa64e584de5fb22363c606fd340858585856040516142649493929190615e46565b60008060006144b385856147a6565b90925090508161452557600185516144cb9190615e8e565b84146145195760405162461bcd60e51b815260206004820152601d60248201527f6e616d65686173683a204a756e6b20617420656e64206f66206e616d65000000604482015260640161088a565b50600091506108c99050565b61452f85826144a4565b6040805160208101929092528101839052606001604051602081830303815290604052805190602001209250505092915050565b60008181526001602052604090205460a081901c60c082901c6145878383836136cb565b6000868152600360209081526040808320805473ffffffffffffffffffffffffffffffffffffffff191690556001909152902063ffffffff60a01b60a083901b1677ffffffffffffffffffffffffffffffffffffffffffffffff1960c086901b1617905592506145f49050565b60408051858152600160208201526000916001600160a01b0386169133917fc3d58168c5ae7397731d063d5bbf3d657854427343f4c083240f7aacaa2d0f62910160405180910390a450505050565b6000806000614651866108cf565b925092509250614662868383613e90565b8460011480156146835750876001600160a01b0316836001600160a01b0316145b6146e25760405162461bcd60e51b815260206004820152602a60248201527f455243313135353a20696e73756666696369656e742062616c616e636520666f60448201526939103a3930b739b332b960b11b606482015260840161088a565b866001600160a01b0316836001600160a01b0316036147035750505061145b565b60008681526001602052604090206001600160a01b03881663ffffffff60a01b60a085901b161777ffffffffffffffffffffffffffffffffffffffffffffffff1960c084901b1617905560408051878152602081018790526001600160a01b03808a1692908b169133917fc3d58168c5ae7397731d063d5bbf3d657854427343f4c083240f7aacaa2d0f62910160405180910390a4611ccf338989898989614a2e565b600080835183106147f95760405162461bcd60e51b815260206004820152601e60248201527f726561644c6162656c3a20496e646578206f7574206f6620626f756e64730000604482015260640161088a565b600084848151811061480d5761480d615a1a565b016020015160f81c90508015614839576148328561482c866001615ea1565b83614b3f565b925061483e565b600092505b6148488185615ea1565b614853906001615ea1565b9150509250929050565b6000818152600360205260409020805473ffffffffffffffffffffffffffffffffffffffff19166001600160a01b038416908117909155819061489f826119e1565b6001600160a01b03167f8c5be1e5ebec7d5bd14f71427d1e84f3dd0314c0f7b2291e5b200ac8c7c3b92560405160405180910390a45050565b6060600183511015614916576040517f280dacb600000000000000000000000000000000000000000000000000000000815260040160405180910390fd5b60ff8351111561495457826040517fe3ba295f00000000000000000000000000000000000000000000000000000000815260040161088a9190614e8e565b8251838360405160200161496a93929190615eb4565b604051602081830303815290604052905092915050565b61ffff81161580159061499957506201000181811614155b15613bc55760405163a2a7201360e01b81526004810183905260240161088a565b6149c48483614981565b6000848152600160205260409020546001600160a01b03811615614a22576149eb85614563565b6040516000815285907fee2ba1195c65bcf218a83d874335c6bf9d9067b4c672f3c3bf16cf40de7586c49060200160405180910390a25b61145b85858585614b63565b6001600160a01b0384163b15613b8e5760405163f23a6e6160e01b81526001600160a01b0385169063f23a6e6190614a729089908990889088908890600401615f15565b6020604051808303816000875af1925050508015614aad575060408051601f3d908101601f19168201909252614aaa91810190615d83565b60015b614ab957614015615da0565b6001600160e01b0319811663f23a6e6160e01b14613dc35760405162461bcd60e51b815260206004820152602860248201527f455243313135353a204552433131353552656365697665722072656a6563746560448201527f6420746f6b656e73000000000000000000000000000000000000000000000000606482015260840161088a565b8251600090614b4e8385615ea1565b1115614b5957600080fd5b5091016020012090565b8360008080614b71846108cf565b9194509250905063ffff0000821667ffffffffffffffff8087169083161115614b98578195505b428267ffffffffffffffff1610614bae57958617955b6001600160a01b03841615614c055760405162461bcd60e51b815260206004820152601f60248201527f455243313135353a206d696e74206f66206578697374696e6720746f6b656e00604482015260640161088a565b6001600160a01b038816614c815760405162461bcd60e51b815260206004820152602160248201527f455243313135353a206d696e7420746f20746865207a65726f2061646472657360448201527f7300000000000000000000000000000000000000000000000000000000000000606482015260840161088a565b306001600160a01b03891603614cff5760405162461bcd60e51b815260206004820152603460248201527f455243313135353a206e65774f776e65722063616e6e6f74206265207468652060448201527f4e616d655772617070657220636f6e7472616374000000000000000000000000606482015260840161088a565b60008581526001602052604090206001600160a01b03891663ffffffff60a01b60a08a901b161777ffffffffffffffffffffffffffffffffffffffffffffffff1960c089901b1617905560408051868152600160208201526001600160a01b038a169160009133917fc3d58168c5ae7397731d063d5bbf3d657854427343f4c083240f7aacaa2d0f62910160405180910390a4612dee3360008a88600160405180602001604052806000815250614a2e565b6001600160a01b03811681146125bd57600080fd5b60008060408385031215614dd957600080fd5b8235614de481614db1565b946020939093013593505050565b600060208284031215614e0457600080fd5b5035919050565b6001600160e01b0319811681146125bd57600080fd5b600060208284031215614e3357600080fd5b813561099681614e0b565b60005b83811015614e59578181015183820152602001614e41565b50506000910152565b60008151808452614e7a816020860160208601614e3e565b601f01601f19169290920160200192915050565b6020815260006109966020830184614e62565b803567ffffffffffffffff81168114614eb957600080fd5b919050565b60008060408385031215614ed157600080fd5b82359150614ee160208401614ea1565b90509250929050565b60008083601f840112614efc57600080fd5b50813567ffffffffffffffff811115614f1457600080fd5b602083019150836020828501011115614f2c57600080fd5b9250929050565b600080600080600060808688031215614f4b57600080fd5b8535614f5681614db1565b94506020860135614f6681614db1565b935060408601359250606086013567ffffffffffffffff811115614f8957600080fd5b614f9588828901614eea565b969995985093965092949392505050565b600060208284031215614fb857600080fd5b813561099681614db1565b60008060408385031215614fd657600080fd5b823591506020830135614fe881614db1565b809150509250929050565b634e487b7160e01b600052604160045260246000fd5b601f8201601f1916810167ffffffffffffffff8111828210171561502f5761502f614ff3565b6040525050565b600067ffffffffffffffff82111561505057615050614ff3565b50601f01601f191660200190565b600082601f83011261506f57600080fd5b813561507a81615036565b6040516150878282615009565b82815285602084870101111561509c57600080fd5b82602086016020830137600092810160200192909252509392505050565b803563ffffffff81168114614eb957600080fd5b600080600080600080600060e0888a0312156150e957600080fd5b87359650602088013567ffffffffffffffff81111561510757600080fd5b6151138a828b0161505e565b965050604088013561512481614db1565b9450606088013561513481614db1565b935061514260808901614ea1565b925061515060a089016150ba565b915061515e60c08901614ea1565b905092959891949750929550565b600067ffffffffffffffff82111561518657615186614ff3565b5060051b60200190565b600082601f8301126151a157600080fd5b813560206151ae8261516c565b6040516151bb8282615009565b83815260059390931b85018201928281019150868411156151db57600080fd5b8286015b8481101561232b57803583529183019183016151df565b600080600080600060a0868803121561520e57600080fd5b853561521981614db1565b9450602086013561522981614db1565b9350604086013567ffffffffffffffff8082111561524657600080fd5b61525289838a01615190565b9450606088013591508082111561526857600080fd5b61527489838a01615190565b9350608088013591508082111561528a57600080fd5b506152978882890161505e565b9150509295509295909350565b600080600080608085870312156152ba57600080fd5b84359350602085013592506152d1604086016150ba565b91506152df60608601614ea1565b905092959194509250565b803561ffff81168114614eb957600080fd5b6000806040838503121561530f57600080fd5b82359150614ee1602084016152ea565b6000806040838503121561533257600080fd5b823567ffffffffffffffff8082111561534a57600080fd5b818501915085601f83011261535e57600080fd5b8135602061536b8261516c565b6040516153788282615009565b83815260059390931b850182019282810191508984111561539857600080fd5b948201945b838610156153bf5785356153b081614db1565b8252948201949082019061539d565b965050860135925050808211156153d557600080fd5b5061485385828601615190565b600081518084526020808501945080840160005b83811015615412578151875295820195908201906001016153f6565b509495945050505050565b60208152600061099660208301846153e2565b60008060006060848603121561544557600080fd5b833561545081614db1565b9250602084013561546081614db1565b929592945050506040919091013590565b60008060006060848603121561548657600080fd5b833592506020840135915061549d60408501614ea1565b90509250925092565b6000806000606084860312156154bb57600080fd5b8335925060208401356154cd81614db1565b915060408401356154dd81614db1565b809150509250925092565b60008060008060006080868803121561550057600080fd5b853567ffffffffffffffff81111561551757600080fd5b61552388828901614eea565b909650945050602086013561553781614db1565b9250615545604087016152ea565b9150606086013561555581614db1565b809150509295509295909350565b80151581146125bd57600080fd5b6000806040838503121561558457600080fd5b823561558f81614db1565b91506020830135614fe881615563565b60008060008060008060a087890312156155b857600080fd5b863567ffffffffffffffff8111156155cf57600080fd5b6155db89828a01614eea565b90975095505060208701356155ef81614db1565b935060408701359250606087013561560681614db1565b9150615614608088016152ea565b90509295509295509295565b6000806040838503121561563357600080fd5b82359150614ee1602084016150ba565b6000806040838503121561565657600080fd5b50508035926020909101359150565b60008060008060008060a0878903121561567e57600080fd5b86359550602087013567ffffffffffffffff81111561569c57600080fd5b6156a889828a01614eea565b90965094505060408701356156bc81614db1565b92506156ca606088016150ba565b915061561460808801614ea1565b600080600080604085870312156156ee57600080fd5b843567ffffffffffffffff8082111561570657600080fd5b61571288838901614eea565b9096509450602087013591508082111561572b57600080fd5b5061573887828801614eea565b95989497509550505050565b6000806000806080858703121561575a57600080fd5b84359350602085013561576c81614db1565b925060408501356152d181614db1565b60008060006060848603121561579157600080fd5b833592506020840135915060408401356154dd81614db1565b600080604083850312156157bd57600080fd5b82356157c881614db1565b91506020830135614fe881614db1565b600080600080606085870312156157ee57600080fd5b843567ffffffffffffffff81111561580557600080fd5b61581187828801614eea565b909550935050602085013561582581614db1565b9150604085013561583581614db1565b939692955090935050565b600080600080600060a0868803121561585857600080fd5b853561586381614db1565b9450602086013561587381614db1565b93506040860135925060608601359150608086013567ffffffffffffffff81111561589d57600080fd5b6152978882890161505e565b6000602082840312156158bb57600080fd5b815167ffffffffffffffff8111156158d257600080fd5b8201601f810184136158e357600080fd5b80516158ee81615036565b6040516158fb8282615009565b82815286602084860101111561591057600080fd5b611700836020830160208701614e3e565b6000806000806080858703121561593757600080fd5b843567ffffffffffffffff81111561594e57600080fd5b61595a8782880161505e565b945050602085013561596b81614db1565b9250615979604086016152ea565b9150606085013561583581614db1565b60006020828403121561599b57600080fd5b5051919050565b634e487b7160e01b600052601160045260246000fd5b67ffffffffffffffff8181168382160190808211156159d9576159d96159a2565b5092915050565b600181811c908216806159f457607f821691505b602082108103615a1457634e487b7160e01b600052602260045260246000fd5b50919050565b634e487b7160e01b600052603260045260246000fd5b600060018201615a4257615a426159a2565b5060010190565b604081526000615a5c60408301856153e2565b8281036020840152615a6e81856153e2565b95945050505050565b600060208284031215615a8957600080fd5b815161099681614db1565b600060208284031215615aa657600080fd5b815161099681615563565b8183823760009101908152919050565b81835281816020850137506000828201602090810191909152601f909101601f19169091010190565b60a081526000615afe60a08301898b615ac1565b6001600160a01b038816602084015263ffffffff8716604084015267ffffffffffffffff861660608401528281036080840152615b3c818587615ac1565b9a9950505050505050505050565b601f8211156109de57600081815260208120601f850160051c81016020861015615b715750805b601f850160051c820191505b81811015613b8e57828155600101615b7d565b67ffffffffffffffff831115615ba857615ba8614ff3565b615bbc83615bb683546159e0565b83615b4a565b6000601f841160018114615bf05760008515615bd85750838201355b600019600387901b1c1916600186901b17835561145b565b600083815260209020601f19861690835b82811015615c215786850135825560209485019460019092019101615c01565b5086821015615c3e5760001960f88860031b161c19848701351681555b505060018560011b0183555050505050565b815167ffffffffffffffff811115615c6a57615c6a614ff3565b615c7e81615c7884546159e0565b84615b4a565b602080601f831160018114615cb35760008415615c9b5750858301515b600019600386901b1c1916600185901b178555613b8e565b600085815260208120601f198616915b82811015615ce257888601518255948401946001909101908401615cc3565b5085821015615d005787850151600019600388901b60f8161c191681555b5050505050600190811b01905550565b67ffffffffffffffff8281168282160390808211156159d9576159d96159a2565b60006001600160a01b03808816835280871660208401525060a06040830152615d5d60a08301866153e2565b8281036060840152615d6f81866153e2565b90508281036080840152613cd08185614e62565b600060208284031215615d9557600080fd5b815161099681614e0b565b600060033d1115615db95760046000803e5060005160e01c5b90565b600060443d1015615dca5790565b6040516003193d81016004833e81513d67ffffffffffffffff8160248401118184111715615dfa57505050505090565b8285019150815181811115615e125750505050505090565b843d8701016020828501011115615e2c5750505050505090565b615e3b60208286010187615009565b509095945050505050565b608081526000615e596080830187614e62565b6001600160a01b039590951660208301525063ffffffff92909216604083015267ffffffffffffffff16606090910152919050565b818103818111156108c9576108c96159a2565b808201808211156108c9576108c96159a2565b7fff000000000000000000000000000000000000000000000000000000000000008460f81b16815260008351615ef1816001850160208801614e3e565b835190830190615f08816001840160208801614e3e565b0160010195945050505050565b60006001600160a01b03808816835280871660208401525084604083015283606083015260a06080830152615f4d60a0830184614e62565b97965050505050505056fea26469706673582212201f5796e074c8b831dacb675bacae6233b0e832e672503ad62a5b19e18203e3ba64736f6c63430008110033",
  "devdoc": {
    "kind": "dev",
    "methods": {
      "allFusesBurned(bytes32,uint32)": {
        "params": {
          "fuseMask": "The fuses you want to check",
          "node": "Namehash of the name"
        },
        "returns": {
          "_0": "Boolean of whether or not all the selected fuses are burned"
        }
      },
      "approve(address,uint256)": {
        "params": {
          "to": "address to approve",
          "tokenId": "name to approve"
        }
      },
      "balanceOf(address,uint256)": {
        "details": "See {IERC1155-balanceOf}. Requirements: - `account` cannot be the zero address."
      },
      "balanceOfBatch(address[],uint256[])": {
        "details": "See {IERC1155-balanceOfBatch}. Requirements: - `accounts` and `ids` must have the same length."
      },
      "canModifyName(bytes32,address)": {
        "params": {
          "addr": "which address to check permissions for",
          "node": "namehash of the name to check"
        },
        "returns": {
          "_0": "whether or not is owner or operator"
        }
      },
      "canModifySubnames(bytes32,address)": {
        "params": {
          "addr": "which address to check permissions for",
          "node": "namehash of the name to check"
        },
        "returns": {
          "_0": "whether or not is owner/operator or approved"
        }
      },
      "extendExpiry(bytes32,bytes32,uint64)": {
        "params": {
          "expiry": "When the name will expire in seconds since the Unix epoch",
          "labelhash": "Labelhash of the name, e.g. vitalik.xyz would be keccak256('vitalik')",
          "parentNode": "Parent namehash of the name e.g. vitalik.xyz would be namehash('xyz')"
        },
        "returns": {
          "_0": "New expiry"
        }
      },
      "getApproved(uint256)": {
        "params": {
          "id": "Namehash of the name"
        },
        "returns": {
          "operator": "Approved operator of a name"
        }
      },
      "getData(uint256)": {
        "params": {
          "id": "Namehash of the name"
        },
        "returns": {
          "expiry": "Expiry of the name",
          "fuses": "Fuses of the name",
          "owner": "Owner of the name"
        }
      },
      "isApprovedForAll(address,address)": {
        "details": "See {IERC1155-isApprovedForAll}."
      },
      "isWrapped(bytes32)": {
        "params": {
          "node": "Namehash of the name"
        },
        "returns": {
          "_0": "Boolean of whether or not the name is wrapped"
        }
      },
      "isWrapped(bytes32,bytes32)": {
        "params": {
          "labelhash": "Namehash of the name",
          "parentNode": "Namehash of the name"
        },
        "returns": {
          "_0": "Boolean of whether or not the name is wrapped"
        }
      },
      "owner()": {
        "details": "Returns the address of the current owner."
      },
      "ownerOf(uint256)": {
        "params": {
          "id": "Label as a string of the .eth domain to wrap"
        },
        "returns": {
          "owner": "The owner of the name"
        }
      },
      "recoverFunds(address,address,uint256)": {
        "details": "The contract is Ownable and only the owner can call the recover function.",
        "params": {
          "_amount": "The amount of tokens to recover.",
          "_to": "The address to send the tokens to.",
          "_token": "The address of the ERC20 token to recover"
        }
      },
      "registerAndWrapETH2LD(string,address,uint256,address,uint16)": {
        "details": "Registers a new .eth second-level domain and wraps it.      Only callable by authorised controllers.",
        "params": {
          "duration": "The duration, in seconds, to register the name for.",
          "label": "The label to register (Eg, 'foo' for 'foo.eth').",
          "ownerControlledFuses": "Initial owner-controlled fuses to set",
          "resolver": "The resolver address to set on the ENS registry (optional).",
          "wrappedOwner": "The owner of the wrapped name."
        },
        "returns": {
          "registrarExpiry": "The expiry date of the new name on the .eth registrar, in seconds since the Unix epoch."
        }
      },
      "renew(uint256,uint256)": {
        "details": "Only callable by authorised controllers.",
        "params": {
          "duration": "The number of seconds to renew the name for.",
          "tokenId": "The hash of the label to register (eg, `keccak256('foo')`, for 'foo.eth')."
        },
        "returns": {
          "expires": "The expiry date of the name on the .eth registrar, in seconds since the Unix epoch."
        }
      },
      "renounceOwnership()": {
        "details": "Leaves the contract without owner. It will not be possible to call `onlyOwner` functions anymore. Can only be called by the current owner. NOTE: Renouncing ownership will leave the contract without an owner, thereby removing any functionality that is only available to the owner."
      },
      "safeBatchTransferFrom(address,address,uint256[],uint256[],bytes)": {
        "details": "See {IERC1155-safeBatchTransferFrom}."
      },
      "safeTransferFrom(address,address,uint256,uint256,bytes)": {
        "details": "See {IERC1155-safeTransferFrom}."
      },
      "setApprovalForAll(address,bool)": {
        "details": "See {IERC1155-setApprovalForAll}."
      },
      "setChildFuses(bytes32,bytes32,uint32,uint64)": {
        "params": {
          "expiry": "When the name will expire in seconds since the Unix epoch",
          "fuses": "Fuses to burn",
          "labelhash": "Labelhash of the name, e.g. vitalik.xyz would be keccak256('vitalik')",
          "parentNode": "Parent namehash of the name e.g. vitalik.xyz would be namehash('xyz')"
        }
      },
      "setFuses(bytes32,uint16)": {
        "params": {
          "node": "Namehash of the name",
          "ownerControlledFuses": "Owner-controlled fuses to burn"
        },
        "returns": {
          "_0": "Old fuses"
        }
      },
      "setMetadataService(address)": {
        "params": {
          "_metadataService": "The new metadata service"
        }
      },
      "setRecord(bytes32,address,address,uint64)": {
        "params": {
          "node": "Namehash of the name to set a record for",
          "owner": "New owner in the registry",
          "resolver": "Resolver contract",
          "ttl": "Time to live in the registry"
        }
      },
      "setResolver(bytes32,address)": {
        "params": {
          "node": "namehash of the name",
          "resolver": "the resolver contract"
        }
      },
      "setSubnodeOwner(bytes32,string,address,uint32,uint64)": {
        "params": {
          "expiry": "When the name will expire in seconds since the Unix epoch",
          "fuses": "Initial fuses for the wrapped subdomain",
          "label": "Label of the subdomain as a string",
          "owner": "New owner in the wrapper",
          "parentNode": "Parent namehash of the subdomain"
        },
        "returns": {
          "node": "Namehash of the subdomain"
        }
      },
      "setSubnodeRecord(bytes32,string,address,address,uint64,uint32,uint64)": {
        "params": {
          "expiry": "When the name will expire in seconds since the Unix epoch",
          "fuses": "initial fuses for the wrapped subdomain",
          "label": "label of the subdomain as a string",
          "owner": "new owner in the wrapper",
          "parentNode": "parent namehash of the subdomain",
          "resolver": "resolver contract in the registry",
          "ttl": "ttl in the registry"
        },
        "returns": {
          "node": "Namehash of the subdomain"
        }
      },
      "setTTL(bytes32,uint64)": {
        "params": {
          "node": "Namehash of the name",
          "ttl": "TTL in the registry"
        }
      },
      "setUpgradeContract(address)": {
        "details": "The default value of upgradeContract is the 0 address. Use the 0 address at any time to make the contract not upgradable.",
        "params": {
          "_upgradeAddress": "address of an upgraded contract"
        }
      },
      "transferOwnership(address)": {
        "details": "Transfers ownership of the contract to a new account (`newOwner`). Can only be called by the current owner."
      },
      "unwrap(bytes32,bytes32,address)": {
        "details": "Can be called by the owner in the wrapper or an authorised caller in the wrapper",
        "params": {
          "controller": "Sets the owner in the registry to this address",
          "labelhash": "Labelhash of the name, e.g. vitalik.xyz would be keccak256('vitalik')",
          "parentNode": "Parent namehash of the name e.g. vitalik.xyz would be namehash('xyz')"
        }
      },
      "unwrapETH2LD(bytes32,address,address)": {
        "details": "Can be called by the owner in the wrapper or an authorised caller in the wrapper",
        "params": {
          "controller": "Sets the owner in the registry to this address",
          "labelhash": "Labelhash of the .eth domain",
          "registrant": "Sets the owner in the .eth registrar to this address"
        }
      },
      "upgrade(bytes,bytes)": {
        "details": "Can be called by the owner or an authorised caller",
        "params": {
          "extraData": "Extra data to pass to the upgrade contract",
          "name": "The name to upgrade, in DNS format"
        }
      },
      "uri(uint256)": {
        "params": {
          "tokenId": "The id of the token"
        },
        "returns": {
          "_0": "string uri of the metadata service"
        }
      },
      "wrap(bytes,address,address)": {
        "details": "Can be called by the owner in the registry or an authorised caller in the registry",
        "params": {
          "name": "The name to wrap, in DNS format",
          "resolver": "Resolver contract",
          "wrappedOwner": "Owner of the name in this contract"
        }
      },
      "wrapETH2LD(string,address,uint16,address)": {
        "details": "Can be called by the owner of the name on the .eth registrar or an authorised caller on the registrar",
        "params": {
          "label": "Label as a string of the .eth domain to wrap",
          "ownerControlledFuses": "Initial owner-controlled fuses to set",
          "resolver": "Resolver contract address",
          "wrappedOwner": "Owner of the name in this contract"
        }
      }
    },
    "version": 1
  },
  "userdoc": {
    "kind": "user",
    "methods": {
      "allFusesBurned(bytes32,uint32)": {
        "notice": "Checks all Fuses in the mask are burned for the node"
      },
      "approve(address,uint256)": {
        "notice": "Approves an address for a name"
      },
      "canModifyName(bytes32,address)": {
        "notice": "Checks if owner or operator of the owner"
      },
      "canModifySubnames(bytes32,address)": {
        "notice": "Checks if owner/operator or approved by owner"
      },
      "extendExpiry(bytes32,bytes32,uint64)": {
        "notice": "Extends expiry for a name"
      },
      "getApproved(uint256)": {
        "notice": "Gets the owner of a name"
      },
      "getData(uint256)": {
        "notice": "Gets the data for a name"
      },
      "isWrapped(bytes32)": {
        "notice": "Checks if a name is wrapped"
      },
      "isWrapped(bytes32,bytes32)": {
        "notice": "Checks if a name is wrapped in a more gas efficient way"
      },
      "ownerOf(uint256)": {
        "notice": "Gets the owner of a name"
      },
      "recoverFunds(address,address,uint256)": {
        "notice": "Recover ERC20 tokens sent to the contract by mistake."
      },
      "renew(uint256,uint256)": {
        "notice": "Renews a .eth second-level domain."
      },
      "setChildFuses(bytes32,bytes32,uint32,uint64)": {
        "notice": "Sets fuses of a name that you own the parent of. Can also be called by the owner of a .eth name"
      },
      "setFuses(bytes32,uint16)": {
        "notice": "Sets fuses of a name"
      },
      "setMetadataService(address)": {
        "notice": "Set the metadata service. Only the owner can do this"
      },
      "setRecord(bytes32,address,address,uint64)": {
        "notice": "Sets records for the name in the ENS Registry"
      },
      "setResolver(bytes32,address)": {
        "notice": "Sets resolver contract in the registry"
      },
      "setSubnodeOwner(bytes32,string,address,uint32,uint64)": {
        "notice": "Sets the subdomain owner in the registry and then wraps the subdomain"
      },
      "setSubnodeRecord(bytes32,string,address,address,uint64,uint32,uint64)": {
        "notice": "Sets the subdomain owner in the registry with records and then wraps the subdomain"
      },
      "setTTL(bytes32,uint64)": {
        "notice": "Sets TTL in the registry"
      },
      "setUpgradeContract(address)": {
        "notice": "Set the address of the upgradeContract of the contract. only admin can do this"
      },
      "unwrap(bytes32,bytes32,address)": {
        "notice": "Unwraps a non .eth domain, of any kind. Could be a DNSSEC name vitalik.xyz or a subdomain"
      },
      "unwrapETH2LD(bytes32,address,address)": {
        "notice": "Unwraps a .eth domain. e.g. vitalik.eth"
      },
      "upgrade(bytes,bytes)": {
        "notice": "Upgrades a domain of any kind. Could be a .eth name vitalik.eth, a DNSSEC name vitalik.xyz, or a subdomain"
      },
      "uri(uint256)": {
        "notice": "Get the metadata uri"
      },
      "wrap(bytes,address,address)": {
        "notice": "Wraps a non .eth domain, of any kind. Could be a DNSSEC name vitalik.xyz or a subdomain"
      },
      "wrapETH2LD(string,address,uint16,address)": {
        "notice": "Wraps a .eth domain, creating a new token and sending the original ERC721 token to this contract"
      }
    },
    "version": 1
  },
  "storageLayout": {
    "storage": [
      {
        "astId": 545,
        "contract": "contracts/wrapper/NameWrapper.sol:NameWrapper",
        "label": "_owner",
        "offset": 0,
        "slot": "0",
        "type": "t_address"
      },
      {
        "astId": 19899,
        "contract": "contracts/wrapper/NameWrapper.sol:NameWrapper",
        "label": "_tokens",
        "offset": 0,
        "slot": "1",
        "type": "t_mapping(t_uint256,t_uint256)"
      },
      {
        "astId": 19905,
        "contract": "contracts/wrapper/NameWrapper.sol:NameWrapper",
        "label": "_operatorApprovals",
        "offset": 0,
        "slot": "2",
        "type": "t_mapping(t_address,t_mapping(t_address,t_bool))"
      },
      {
        "astId": 19909,
        "contract": "contracts/wrapper/NameWrapper.sol:NameWrapper",
        "label": "_tokenApprovals",
        "offset": 0,
        "slot": "3",
        "type": "t_mapping(t_uint256,t_address)"
      },
      {
        "astId": 19830,
        "contract": "contracts/wrapper/NameWrapper.sol:NameWrapper",
        "label": "controllers",
        "offset": 0,
        "slot": "4",
        "type": "t_mapping(t_address,t_bool)"
      },
      {
        "astId": 21361,
        "contract": "contracts/wrapper/NameWrapper.sol:NameWrapper",
        "label": "metadataService",
        "offset": 0,
        "slot": "5",
        "type": "t_contract(IMetadataService)20873"
      },
      {
        "astId": 21365,
        "contract": "contracts/wrapper/NameWrapper.sol:NameWrapper",
        "label": "names",
        "offset": 0,
        "slot": "6",
        "type": "t_mapping(t_bytes32,t_bytes_storage)"
      },
      {
        "astId": 21383,
        "contract": "contracts/wrapper/NameWrapper.sol:NameWrapper",
        "label": "upgradeContract",
        "offset": 0,
        "slot": "7",
        "type": "t_contract(INameWrapperUpgrade)21261"
      }
    ],
    "types": {
      "t_address": {
        "encoding": "inplace",
        "label": "address",
        "numberOfBytes": "20"
      },
      "t_bool": {
        "encoding": "inplace",
        "label": "bool",
        "numberOfBytes": "1"
      },
      "t_bytes32": {
        "encoding": "inplace",
        "label": "bytes32",
        "numberOfBytes": "32"
      },
      "t_bytes_storage": {
        "encoding": "bytes",
        "label": "bytes",
        "numberOfBytes": "32"
      },
      "t_contract(IMetadataService)20873": {
        "encoding": "inplace",
        "label": "contract IMetadataService",
        "numberOfBytes": "20"
      },
      "t_contract(INameWrapperUpgrade)21261": {
        "encoding": "inplace",
        "label": "contract INameWrapperUpgrade",
        "numberOfBytes": "20"
      },
      "t_mapping(t_address,t_bool)": {
        "encoding": "mapping",
        "key": "t_address",
        "label": "mapping(address => bool)",
        "numberOfBytes": "32",
        "value": "t_bool"
      },
      "t_mapping(t_address,t_mapping(t_address,t_bool))": {
        "encoding": "mapping",
        "key": "t_address",
        "label": "mapping(address => mapping(address => bool))",
        "numberOfBytes": "32",
        "value": "t_mapping(t_address,t_bool)"
      },
      "t_mapping(t_bytes32,t_bytes_storage)": {
        "encoding": "mapping",
        "key": "t_bytes32",
        "label": "mapping(bytes32 => bytes)",
        "numberOfBytes": "32",
        "value": "t_bytes_storage"
      },
      "t_mapping(t_uint256,t_address)": {
        "encoding": "mapping",
        "key": "t_uint256",
        "label": "mapping(uint256 => address)",
        "numberOfBytes": "32",
        "value": "t_address"
      },
      "t_mapping(t_uint256,t_uint256)": {
        "encoding": "mapping",
        "key": "t_uint256",
        "label": "mapping(uint256 => uint256)",
        "numberOfBytes": "32",
        "value": "t_uint256"
      },
      "t_uint256": {
        "encoding": "inplace",
        "label": "uint256",
        "numberOfBytes": "32"
      }
    }
  }
}