{
  "address": "0x59c227Bac76bB479FbD51e12032fDDD7179aBf9F",
  "abi": [
    {
      "inputs": [
        {
          "internalType": "contract ENS",
          "name": "_ens",
          "type": "address"
        },
        {
          "internalType": "contract INameWrapper",
          "name": "wrapperAddress",
          "type": "address"
        },
        {
          "internalType": "address",
          "name": "_trustedETHController",
          "type": "address"
        },
        {
          "internalType": "address",
          "name": "_trustedReverseRegistrar",
          "type": "address"
        }
      ],
      "stateMutability": "nonpayable",
      "type": "constructor"
    },
    {
      "inputs": [],
      "name": "ABIIsLocked",
      "type": "error"
    },
    {
      "inputs": [],
      "name": "AddrIsLocked",
      "type": "error"
    },
    {
      "inputs": [],
      "name": "ContenthashIsLocked",
      "type": "error"
    },
    {
      "inputs": [],
      "name": "DNSIsLocked",
      "type": "error"
    },
    {
      "inputs": [],
      "name": "InterfaceIsLocked",
      "type": "error"
    },
    {
      "inputs": [],
      "name": "NameIsLocked",
      "type": "error"
    },
    {
      "inputs": [],
      "name": "NotAuthorised",
      "type": "error"
    },
    {
      "inputs": [],
      "name": "NotClearable",
      "type": "error"
    },
    {
      "inputs": [],
      "name": "PubkeyIsLocked",
      "type": "error"
    },
    {
      "inputs": [],
      "name": "TextIsLocked",
      "type": "error"
    },
    {
      "anonymous": false,
      "inputs": [
        {
          "indexed": true,
          "internalType": "bytes32",
          "name": "node",
          "type": "bytes32"
        },
        {
          "indexed": true,
          "internalType": "uint256",
          "name": "contentType",
          "type": "uint256"
        }
      ],
      "name": "ABIChanged",
      "type": "event"
    },
    {
      "anonymous": false,
      "inputs": [
        {
          "indexed": true,
          "internalType": "bytes32",
          "name": "node",
          "type": "bytes32"
        }
      ],
      "name": "ABILocked",
      "type": "event"
    },
    {
      "anonymous": false,
      "inputs": [
        {
          "indexed": true,
          "internalType": "bytes32",
          "name": "node",
          "type": "bytes32"
        },
        {
          "indexed": false,
          "internalType": "address",
          "name": "a",
          "type": "address"
        }
      ],
      "name": "AddrChanged",
      "type": "event"
    },
    {
      "anonymous": false,
      "inputs": [
        {
          "indexed": true,
          "internalType": "bytes32",
          "name": "node",
          "type": "bytes32"
        }
      ],
      "name": "AddrLocked",
      "type": "event"
    },
    {
      "anonymous": false,
      "inputs": [
        {
          "indexed": true,
          "internalType": "bytes32",
          "name": "node",
          "type": "bytes32"
        },
        {
          "indexed": false,
          "internalType": "uint256",
          "name": "coinType",
          "type": "uint256"
        },
        {
          "indexed": false,
          "internalType": "bytes",
          "name": "newAddress",
          "type": "bytes"
        }
      ],
      "name": "AddressChanged",
      "type": "event"
    },
    {
      "anonymous": false,
      "inputs": [
        {
          "indexed": true,
          "internalType": "bytes32",
          "name": "node",
          "type": "bytes32"
        }
      ],
      "name": "AllRecordsLocked",
      "type": "event"
    },
    {
      "anonymous": false,
      "inputs": [
        {
          "indexed": true,
          "internalType": "bytes32",
          "name": "node",
          "type": "bytes32"
        }
      ],
      "name": "AllTextLocked",
      "type": "event"
    },
    {
      "anonymous": false,
      "inputs": [
        {
          "indexed": true,
          "internalType": "address",
          "name": "owner",
          "type": "address"
        },
        {
          "indexed": true,
          "internalType": "address",
          "name": "operator",
          "type": "address"
        },
        {
          "indexed": false,
          "internalType": "bool",
          "name": "approved",
          "type": "bool"
        }
      ],
      "name": "ApprovalForAll",
      "type": "event"
    },
    {
      "anonymous": false,
      "inputs": [
        {
          "indexed": false,
          "internalType": "address",
          "name": "owner",
          "type": "address"
        },
        {
          "indexed": true,
          "internalType": "bytes32",
          "name": "node",
          "type": "bytes32"
        },
        {
          "indexed": true,
          "internalType": "address",
          "name": "delegate",
          "type": "address"
        },
        {
          "indexed": true,
          "internalType": "bool",
          "name": "approved",
          "type": "bool"
        }
      ],
      "name": "Approved",
      "type": "event"
    },
    {
      "anonymous": false,
      "inputs": [
        {
          "indexed": true,
          "internalType": "bytes32",
          "name": "node",
          "type": "bytes32"
        },
        {
          "indexed": false,
          "internalType": "bytes",
          "name": "hash",
          "type": "bytes"
        }
      ],
      "name": "ContenthashChanged",
      "type": "event"
    },
    {
      "anonymous": false,
      "inputs": [
        {
          "indexed": true,
          "internalType": "bytes32",
          "name": "node",
          "type": "bytes32"
        }
      ],
      "name": "ContenthashLocked",
      "type": "event"
    },
    {
      "anonymous": false,
      "inputs": [
        {
          "indexed": true,
          "internalType": "bytes32",
          "name": "node",
          "type": "bytes32"
        }
      ],
      "name": "DNSLocked",
      "type": "event"
    },
    {
      "anonymous": false,
      "inputs": [
        {
          "indexed": true,
          "internalType": "bytes32",
          "name": "node",
          "type": "bytes32"
        },
        {
          "indexed": false,
          "internalType": "bytes",
          "name": "name",
          "type": "bytes"
        },
        {
          "indexed": false,
          "internalType": "uint16",
          "name": "resource",
          "type": "uint16"
        },
        {
          "indexed": false,
          "internalType": "bytes",
          "name": "record",
          "type": "bytes"
        }
      ],
      "name": "DNSRecordChanged",
      "type": "event"
    },
    {
      "anonymous": false,
      "inputs": [
        {
          "indexed": true,
          "internalType": "bytes32",
          "name": "node",
          "type": "bytes32"
        },
        {
          "indexed": false,
          "internalType": "bytes",
          "name": "name",
          "type": "bytes"
        },
        {
          "indexed": false,
          "internalType": "uint16",
          "name": "resource",
          "type": "uint16"
        }
      ],
      "name": "DNSRecordDeleted",
      "type": "event"
    },
    {
      "anonymous": false,
      "inputs": [
        {
          "indexed": true,
          "internalType": "bytes32",
          "name": "node",
          "type": "bytes32"
        },
        {
          "indexed": false,
          "internalType": "bytes",
          "name": "lastzonehash",
          "type": "bytes"
        },
        {
          "indexed": false,
          "internalType": "bytes",
          "name": "zonehash",
          "type": "bytes"
        }
      ],
      "name": "DNSZonehashChanged",
      "type": "event"
    },
    {
      "anonymous": false,
      "inputs": [
        {
          "indexed": true,
          "internalType": "bytes32",
          "name": "node",
          "type": "bytes32"
        },
        {
          "indexed": true,
          "internalType": "bytes4",
          "name": "interfaceID",
          "type": "bytes4"
        },
        {
          "indexed": false,
          "internalType": "address",
          "name": "implementer",
          "type": "address"
        }
      ],
      "name": "InterfaceChanged",
      "type": "event"
    },
    {
      "anonymous": false,
      "inputs": [
        {
          "indexed": true,
          "internalType": "bytes32",
          "name": "node",
          "type": "bytes32"
        }
      ],
      "name": "InterfaceLocked",
      "type": "event"
    },
    {
      "anonymous": false,
      "inputs": [
        {
          "indexed": true,
          "internalType": "bytes32",
          "name": "node",
          "type": "bytes32"
        },
        {
          "indexed": false,
          "internalType": "string",
          "name": "name",
          "type": "string"
        }
      ],
      "name": "NameChanged",
      "type": "event"
    },
    {
      "anonymous": false,
      "inputs": [
        {
          "indexed": true,
          "internalType": "bytes32",
          "name": "node",
          "type": "bytes32"
        }
      ],
      "name": "NameLocked",
      "type": "event"
    },
    {
      "anonymous": false,
      "inputs": [
        {
          "indexed": true,
          "internalType": "bytes32",
          "name": "node",
          "type": "bytes32"
        },
        {
          "indexed": false,
          "internalType": "bytes32",
          "name": "x",
          "type": "bytes32"
        },
        {
          "indexed": false,
          "internalType": "bytes32",
          "name": "y",
          "type": "bytes32"
        }
      ],
      "name": "PubkeyChanged",
      "type": "event"
    },
    {
      "anonymous": false,
      "inputs": [
        {
          "indexed": true,
          "internalType": "bytes32",
          "name": "node",
          "type": "bytes32"
        }
      ],
      "name": "PubkeyLocked",
      "type": "event"
    },
    {
      "anonymous": false,
      "inputs": [
        {
          "indexed": true,
          "internalType": "bytes32",
          "name": "node",
          "type": "bytes32"
        },
        {
          "indexed": true,
          "internalType": "string",
          "name": "indexedKey",
          "type": "string"
        },
        {
          "indexed": false,
          "internalType": "string",
          "name": "key",
          "type": "string"
        },
        {
          "indexed": false,
          "internalType": "string",
          "name": "value",
          "type": "string"
        }
      ],
      "name": "TextChanged",
      "type": "event"
    },
    {
      "anonymous": false,
      "inputs": [
        {
          "indexed": true,
          "internalType": "bytes32",
          "name": "node",
          "type": "bytes32"
        },
        {
          "indexed": false,
          "internalType": "string",
          "name": "key",
          "type": "string"
        }
      ],
      "name": "TextLocked",
      "type": "event"
    },
    {
      "anonymous": false,
      "inputs": [
        {
          "indexed": true,
          "internalType": "bytes32",
          "name": "node",
          "type": "bytes32"
        },
        {
          "indexed": false,
          "internalType": "uint64",
          "name": "newVersion",
          "type": "uint64"
        }
      ],
      "name": "VersionChanged",
      "type": "event"
    },
    {
      "inputs": [
        {
          "internalType": "bytes32",
          "name": "node",
          "type": "bytes32"
        },
        {
          "internalType": "uint256",
          "name": "contentTypes",
          "type": "uint256"
        }
      ],
      "name": "ABI",
      "outputs": [
        {
          "internalType": "uint256",
          "name": "",
          "type": "uint256"
        },
        {
          "internalType": "bytes",
          "name": "",
          "type": "bytes"
        }
      ],
      "stateMutability": "view",
      "type": "function"
    },
    {
      "inputs": [
        {
          "internalType": "bytes32",
          "name": "node",
          "type": "bytes32"
        }
      ],
      "name": "addr",
      "outputs": [
        {
          "internalType": "address payable",
          "name": "",
          "type": "address"
        }
      ],
      "stateMutability": "view",
      "type": "function"
    },
    {
      "inputs": [
        {
          "internalType": "bytes32",
          "name": "node",
          "type": "bytes32"
        },
        {
          "internalType": "uint256",
          "name": "coinType",
          "type": "uint256"
        }
      ],
      "name": "addr",
      "outputs": [
        {
          "internalType": "bytes",
          "name": "",
          "type": "bytes"
        }
      ],
      "stateMutability": "view",
      "type": "function"
    },
    {
      "inputs": [
        {
          "internalType": "bytes32",
          "name": "node",
          "type": "bytes32"
        },
        {
          "internalType": "address",
          "name": "delegate",
          "type": "address"
        },
        {
          "internalType": "bool",
          "name": "approved",
          "type": "bool"
        }
      ],
      "name": "approve",
      "outputs": [],
      "stateMutability": "nonpayable",
      "type": "function"
    },
    {
      "inputs": [
        {
          "internalType": "bytes32",
          "name": "node",
          "type": "bytes32"
        }
      ],
      "name": "clearRecords",
      "outputs": [],
      "stateMutability": "nonpayable",
      "type": "function"
    },
    {
      "inputs": [
        {
          "internalType": "bytes32",
          "name": "node",
          "type": "bytes32"
        }
      ],
      "name": "contenthash",
      "outputs": [
        {
          "internalType": "bytes",
          "name": "",
          "type": "bytes"
        }
      ],
      "stateMutability": "view",
      "type": "function"
    },
    {
      "inputs": [
        {
          "internalType": "bytes32",
          "name": "node",
          "type": "bytes32"
        },
        {
          "internalType": "bytes32",
          "name": "name",
          "type": "bytes32"
        },
        {
          "internalType": "uint16",
          "name": "resource",
          "type": "uint16"
        }
      ],
      "name": "dnsRecord",
      "outputs": [
        {
          "internalType": "bytes",
          "name": "",
          "type": "bytes"
        }
      ],
      "stateMutability": "view",
      "type": "function"
    },
    {
      "inputs": [
        {
          "internalType": "bytes32",
          "name": "node",
          "type": "bytes32"
        },
        {
          "internalType": "bytes32",
          "name": "name",
          "type": "bytes32"
        }
      ],
      "name": "hasDNSRecords",
      "outputs": [
        {
          "internalType": "bool",
          "name": "",
          "type": "bool"
        }
      ],
      "stateMutability": "view",
      "type": "function"
    },
    {
      "inputs": [
        {
          "internalType": "bytes32",
          "name": "node",
          "type": "bytes32"
        },
        {
          "internalType": "bytes4",
          "name": "interfaceID",
          "type": "bytes4"
        }
      ],
      "name": "interfaceImplementer",
      "outputs": [
        {
          "internalType": "address",
          "name": "",
          "type": "address"
        }
      ],
      "stateMutability": "view",
      "type": "function"
    },
    {
      "inputs": [
        {
          "internalType": "bytes32",
          "name": "node",
          "type": "bytes32"
        }
      ],
      "name": "isABILocked",
      "outputs": [
        {
          "internalType": "bool",
          "name": "",
          "type": "bool"
        }
      ],
      "stateMutability": "view",
      "type": "function"
    },
    {
      "inputs": [
        {
          "internalType": "bytes32",
          "name": "node",
          "type": "bytes32"
        }
      ],
      "name": "isAddrLocked",
      "outputs": [
        {
          "internalType": "bool",
          "name": "",
          "type": "bool"
        }
      ],
      "stateMutability": "view",
      "type": "function"
    },
    {
      "inputs": [
        {
          "internalType": "bytes32",
          "name": "node",
          "type": "bytes32"
        }
      ],
      "name": "isAllLocked",
      "outputs": [
        {
          "internalType": "bool",
          "name": "",
          "type": "bool"
        }
      ],
      "stateMutability": "view",
      "type": "function"
    },
    {
      "inputs": [
        {
          "internalType": "address",
          "name": "owner",
          "type": "address"
        },
        {
          "internalType": "bytes32",
          "name": "node",
          "type": "bytes32"
        },
        {
          "internalType": "address",
          "name": "delegate",
          "type": "address"
        }
      ],
      "name": "isApprovedFor",
      "outputs": [
        {
          "internalType": "bool",
          "name": "",
          "type": "bool"
        }
      ],
      "stateMutability": "view",
      "type": "function"
    },
    {
      "inputs": [
        {
          "internalType": "address",
          "name": "account",
          "type": "address"
        },
        {
          "internalType": "address",
          "name": "operator",
          "type": "address"
        }
      ],
      "name": "isApprovedForAll",
      "outputs": [
        {
          "internalType": "bool",
          "name": "",
          "type": "bool"
        }
      ],
      "stateMutability": "view",
      "type": "function"
    },
    {
      "inputs": [
        {
          "internalType": "bytes32",
          "name": "node",
          "type": "bytes32"
        }
      ],
      "name": "isContenthashLocked",
      "outputs": [
        {
          "internalType": "bool",
          "name": "",
          "type": "bool"
        }
      ],
      "stateMutability": "view",
      "type": "function"
    },
    {
      "inputs": [
        {
          "internalType": "bytes32",
          "name": "node",
          "type": "bytes32"
        }
      ],
      "name": "isDNSLocked",
      "outputs": [
        {
          "internalType": "bool",
          "name": "",
          "type": "bool"
        }
      ],
      "stateMutability": "view",
      "type": "function"
    },
    {
      "inputs": [
        {
          "internalType": "bytes32",
          "name": "node",
          "type": "bytes32"
        }
      ],
      "name": "isInterfaceLocked",
      "outputs": [
        {
          "internalType": "bool",
          "name": "",
          "type": "bool"
        }
      ],
      "stateMutability": "view",
      "type": "function"
    },
    {
      "inputs": [
        {
          "internalType": "bytes32",
          "name": "node",
          "type": "bytes32"
        }
      ],
      "name": "isNameLocked",
      "outputs": [
        {
          "internalType": "bool",
          "name": "",
          "type": "bool"
        }
      ],
      "stateMutability": "view",
      "type": "function"
    },
    {
      "inputs": [
        {
          "internalType": "bytes32",
          "name": "node",
          "type": "bytes32"
        }
      ],
      "name": "isPubkeyLocked",
      "outputs": [
        {
          "internalType": "bool",
          "name": "",
          "type": "bool"
        }
      ],
      "stateMutability": "view",
      "type": "function"
    },
    {
      "inputs": [
        {
          "internalType": "bytes32",
          "name": "node",
          "type": "bytes32"
        },
        {
          "internalType": "string",
          "name": "key",
          "type": "string"
        }
      ],
      "name": "isTextLocked",
      "outputs": [
        {
          "internalType": "bool",
          "name": "",
          "type": "bool"
        }
      ],
      "stateMutability": "view",
      "type": "function"
    },
    {
      "inputs": [
        {
          "internalType": "bytes32",
          "name": "node",
          "type": "bytes32"
        }
      ],
      "name": "lockABI",
      "outputs": [],
      "stateMutability": "nonpayable",
      "type": "function"
    },
    {
      "inputs": [
        {
          "internalType": "bytes32",
          "name": "node",
          "type": "bytes32"
        }
      ],
      "name": "lockAddr",
      "outputs": [],
      "stateMutability": "nonpayable",
      "type": "function"
    },
    {
      "inputs": [
        {
          "internalType": "bytes32",
          "name": "node",
          "type": "bytes32"
        }
      ],
      "name": "lockAll",
      "outputs": [],
      "stateMutability": "nonpayable",
      "type": "function"
    },
    {
      "inputs": [
        {
          "internalType": "bytes32",
          "name": "node",
          "type": "bytes32"
        }
      ],
      "name": "lockContenthash",
      "outputs": [],
      "stateMutability": "nonpayable",
      "type": "function"
    },
    {
      "inputs": [
        {
          "internalType": "bytes32",
          "name": "node",
          "type": "bytes32"
        }
      ],
      "name": "lockDNS",
      "outputs": [],
      "stateMutability": "nonpayable",
      "type": "function"
    },
    {
      "inputs": [
        {
          "internalType": "bytes32",
          "name": "node",
          "type": "bytes32"
        }
      ],
      "name": "lockInterface",
      "outputs": [],
      "stateMutability": "nonpayable",
      "type": "function"
    },
    {
      "inputs": [
        {
          "internalType": "bytes32",
          "name": "node",
          "type": "bytes32"
        }
      ],
      "name": "lockName",
      "outputs": [],
      "stateMutability": "nonpayable",
      "type": "function"
    },
    {
      "inputs": [
        {
          "internalType": "bytes32",
          "name": "node",
          "type": "bytes32"
        }
      ],
      "name": "lockPubkey",
      "outputs": [],
      "stateMutability": "nonpayable",
      "type": "function"
    },
    {
      "inputs": [
        {
          "internalType": "bytes32",
          "name": "node",
          "type": "bytes32"
        },
        {
          "internalType": "string",
          "name": "key",
          "type": "string"
        }
      ],
      "name": "lockText",
      "outputs": [],
      "stateMutability": "nonpayable",
      "type": "function"
    },
    {
      "inputs": [
        {
          "internalType": "bytes32",
          "name": "node",
          "type": "bytes32"
        }
      ],
      "name": "lockText",
      "outputs": [],
      "stateMutability": "nonpayable",
      "type": "function"
    },
    {
      "inputs": [
        {
          "internalType": "bytes[]",
          "name": "data",
          "type": "bytes[]"
        }
      ],
      "name": "multicall",
      "outputs": [
        {
          "internalType": "bytes[]",
          "name": "results",
          "type": "bytes[]"
        }
      ],
      "stateMutability": "nonpayable",
      "type": "function"
    },
    {
      "inputs": [
        {
          "internalType": "bytes32",
          "name": "nodehash",
          "type": "bytes32"
        },
        {
          "internalType": "bytes[]",
          "name": "data",
          "type": "bytes[]"
        }
      ],
      "name": "multicallWithNodeCheck",
      "outputs": [
        {
          "internalType": "bytes[]",
          "name": "results",
          "type": "bytes[]"
        }
      ],
      "stateMutability": "nonpayable",
      "type": "function"
    },
    {
      "inputs": [
        {
          "internalType": "bytes32",
          "name": "node",
          "type": "bytes32"
        }
      ],
      "name": "name",
      "outputs": [
        {
          "internalType": "string",
          "name": "",
          "type": "string"
        }
      ],
      "stateMutability": "view",
      "type": "function"
    },
    {
      "inputs": [
        {
          "internalType": "bytes32",
          "name": "node",
          "type": "bytes32"
        }
      ],
      "name": "pubkey",
      "outputs": [
        {
          "internalType": "bytes32",
          "name": "x",
          "type": "bytes32"
        },
        {
          "internalType": "bytes32",
          "name": "y",
          "type": "bytes32"
        }
      ],
      "stateMutability": "view",
      "type": "function"
    },
    {
      "inputs": [
        {
          "internalType": "bytes32",
          "name": "",
          "type": "bytes32"
        }
      ],
      "name": "recordVersions",
      "outputs": [
        {
          "internalType": "uint64",
          "name": "",
          "type": "uint64"
        }
      ],
      "stateMutability": "view",
      "type": "function"
    },
    {
      "inputs": [
        {
          "internalType": "bytes32",
          "name": "node",
          "type": "bytes32"
        },
        {
          "internalType": "uint256",
          "name": "contentType",
          "type": "uint256"
        },
        {
          "internalType": "bytes",
          "name": "data",
          "type": "bytes"
        }
      ],
      "name": "setABI",
      "outputs": [],
      "stateMutability": "nonpayable",
      "type": "function"
    },
    {
      "inputs": [
        {
          "internalType": "bytes32",
          "name": "node",
          "type": "bytes32"
        },
        {
          "internalType": "uint256",
          "name": "coinType",
          "type": "uint256"
        },
        {
          "internalType": "bytes",
          "name": "a",
          "type": "bytes"
        }
      ],
      "name": "setAddr",
      "outputs": [],
      "stateMutability": "nonpayable",
      "type": "function"
    },
    {
      "inputs": [
        {
          "internalType": "bytes32",
          "name": "node",
          "type": "bytes32"
        },
        {
          "internalType": "address",
          "name": "a",
          "type": "address"
        }
      ],
      "name": "setAddr",
      "outputs": [],
      "stateMutability": "nonpayable",
      "type": "function"
    },
    {
      "inputs": [
        {
          "internalType": "address",
          "name": "operator",
          "type": "address"
        },
        {
          "internalType": "bool",
          "name": "approved",
          "type": "bool"
        }
      ],
      "name": "setApprovalForAll",
      "outputs": [],
      "stateMutability": "nonpayable",
      "type": "function"
    },
    {
      "inputs": [
        {
          "internalType": "bytes32",
          "name": "node",
          "type": "bytes32"
        },
        {
          "internalType": "bytes",
          "name": "hash",
          "type": "bytes"
        }
      ],
      "name": "setContenthash",
      "outputs": [],
      "stateMutability": "nonpayable",
      "type": "function"
    },
    {
      "inputs": [
        {
          "internalType": "bytes32",
          "name": "node",
          "type": "bytes32"
        },
        {
          "internalType": "bytes",
          "name": "data",
          "type": "bytes"
        }
      ],
      "name": "setDNSRecords",
      "outputs": [],
      "stateMutability": "nonpayable",
      "type": "function"
    },
    {
      "inputs": [
        {
          "internalType": "bytes32",
          "name": "node",
          "type": "bytes32"
        },
        {
          "internalType": "bytes4",
          "name": "interfaceID",
          "type": "bytes4"
        },
        {
          "internalType": "address",
          "name": "implementer",
          "type": "address"
        }
      ],
      "name": "setInterface",
      "outputs": [],
      "stateMutability": "nonpayable",
      "type": "function"
    },
    {
      "inputs": [
        {
          "internalType": "bytes32",
          "name": "node",
          "type": "bytes32"
        },
        {
          "internalType": "string",
          "name": "newName",
          "type": "string"
        }
      ],
      "name": "setName",
      "outputs": [],
      "stateMutability": "nonpayable",
      "type": "function"
    },
    {
      "inputs": [
        {
          "internalType": "bytes32",
          "name": "node",
          "type": "bytes32"
        },
        {
          "internalType": "bytes32",
          "name": "x",
          "type": "bytes32"
        },
        {
          "internalType": "bytes32",
          "name": "y",
          "type": "bytes32"
        }
      ],
      "name": "setPubkey",
      "outputs": [],
      "stateMutability": "nonpayable",
      "type": "function"
    },
    {
      "inputs": [
        {
          "internalType": "bytes32",
          "name": "node",
          "type": "bytes32"
        },
        {
          "internalType": "string",
          "name": "key",
          "type": "string"
        },
        {
          "internalType": "string",
          "name": "value",
          "type": "string"
        }
      ],
      "name": "setText",
      "outputs": [],
      "stateMutability": "nonpayable",
      "type": "function"
    },
    {
      "inputs": [
        {
          "internalType": "bytes32",
          "name": "node",
          "type": "bytes32"
        },
        {
          "internalType": "bytes",
          "name": "hash",
          "type": "bytes"
        }
      ],
      "name": "setZonehash",
      "outputs": [],
      "stateMutability": "nonpayable",
      "type": "function"
    },
    {
      "inputs": [
        {
          "internalType": "bytes4",
          "name": "interfaceID",
          "type": "bytes4"
        }
      ],
      "name": "supportsInterface",
      "outputs": [
        {
          "internalType": "bool",
          "name": "",
          "type": "bool"
        }
      ],
      "stateMutability": "view",
      "type": "function"
    },
    {
      "inputs": [
        {
          "internalType": "bytes32",
          "name": "node",
          "type": "bytes32"
        },
        {
          "internalType": "string",
          "name": "key",
          "type": "string"
        }
      ],
      "name": "text",
      "outputs": [
        {
          "internalType": "string",
          "name": "",
          "type": "string"
        }
      ],
      "stateMutability": "view",
      "type": "function"
    },
    {
      "inputs": [
        {
          "internalType": "bytes32",
          "name": "node",
          "type": "bytes32"
        }
      ],
      "name": "zonehash",
      "outputs": [
        {
          "internalType": "bytes",
          "name": "",
          "type": "bytes"
        }
      ],
      "stateMutability": "view",
      "type": "function"
    }
  ],
  "transactionHash": "0x64add749e410166d577f5320d60b1262db2728d0cbfb56a35930c0bf47fbffaa",
  "args": [
    "0x00000000000C2E074eC69A0dFb2997BA6C7d2e1e",
    "0x114D4603199df73e7D157787f8778E21fCd13066",
    "0xCc5e7dB10E65EED1BBD105359e7268aa660f6734",
    "0x4f7A657451358a22dc397d5eE7981FfC526cd856"
  ],
  "numDeployments": 7,
  "solcInputHash": "9ade8a15a61bef8a21a00adfaf1bd6d1",
  "bytecode": "0x6101006040523480156200001257600080fd5b506040516200400c3803806200400c83398101604081905262000035916200017a565b6040516302571be360e01b81527f91d1777781884d03a6757a803996e38de2a42967fb37eeaca72729271025a9e26004820152849033906000906001600160a01b038416906302571be390602401602060405180830381865afa158015620000a1573d6000803e3d6000fd5b505050506040513d601f19601f82011682018060405250810190620000c79190620001e2565b604051630f41a04d60e11b81526001600160a01b03848116600483015291925090821690631e83409a906024016020604051808303816000875af115801562000114573d6000803e3d6000fd5b505050506040513d601f19601f820116820180604052508101906200013a919062000209565b5050506001600160a01b039485166080525091831660a052821660c0521660e05262000223565b6001600160a01b03811681146200017757600080fd5b50565b600080600080608085870312156200019157600080fd5b84516200019e8162000161565b6020860151909450620001b18162000161565b6040860151909350620001c48162000161565b6060860151909250620001d78162000161565b939692955090935050565b600060208284031215620001f557600080fd5b8151620002028162000161565b9392505050565b6000602082840312156200021c57600080fd5b5051919050565b60805160a05160c05160e051613da862000264600039600061254f0152600061251d015260008181612627015261268d015260006125b00152613da86000f3fe608060405234801561001057600080fd5b506004361061032b5760003560e01c806392a6fe06116101b2578063c8690233116100f9578063dd893269116100a2578063e59d895d1161007c578063e59d895d146107ce578063e985e9c5146107e1578063f1cb7e061461081d578063fd1ff4f41461083057600080fd5b8063dd89326914610785578063e2a5c311146107a8578063e32954eb146107bb57600080fd5b8063d5fa2b00116100d3578063d5fa2b001461071c578063d700ff331461072f578063d8f578d71461077257600080fd5b8063c86902331461069d578063c8faa250146106f6578063ce3decdc1461070957600080fd5b8063a9784b3e1161015b578063bc19b57a11610135578063bc19b57a14610664578063bc1c58d114610677578063c564e4931461068a57600080fd5b8063a9784b3e146105ed578063ac9650d814610631578063bbf473141461065157600080fd5b8063a22cb4651161018c578063a22cb465146105b4578063a4b91a01146105c7578063a8fa5682146105da57600080fd5b806392a6fe061461057b578063a03cf0a81461058e578063a1f7a0d4146105a157600080fd5b80634ef7af9e1161027657806365d32a771161021f57806378d5e8b5116101f957806378d5e8b5146105425780637b388910146105555780638b95dd711461056857600080fd5b806365d32a7714610509578063691f34311461051c578063773722131461052f57600080fd5b80635c98042b116102505780635c98042b146104d0578063623195b0146104e357806364f53814146104f657600080fd5b80634ef7af9e1461048a57806359d1d43c1461049d5780635c027871146104bd57600080fd5b806329cd62ea116102d85780633b3b57de116102b25780633b3b57de14610418578063437d99ea1461042b5780634cbf6ba41461043e57600080fd5b806329cd62ea146103df578063304e6ade146103f25780633603d7581461040557600080fd5b806310f13a8c1161030957806310f13a8c14610380578063124a319c146103935780632203ab56146103be57600080fd5b806301ffc9a71461033057806308c5c4bc146103585780630af179d71461036b575b600080fd5b61034361033e3660046132a1565b610843565b60405190151581526020015b60405180910390f35b6103436103663660046132bc565b610854565b61037e610379366004613317565b610883565b005b61037e61038e366004613363565b610ac8565b6103a66103a13660046133dd565b610beb565b6040516001600160a01b03909116815260200161034f565b6103d16103cc366004613409565b610e97565b60405161034f92919061347b565b61037e6103ed366004613494565b610fcf565b61037e610400366004613317565b6110be565b61037e6104133660046132bc565b61118e565b6103a66104263660046132bc565b61128e565b6103436104393660046132bc565b6112c0565b61034361044c366004613409565b6000828152602081815260408083205467ffffffffffffffff168352600b825280832094835293815283822092825291909152205461ffff16151590565b6103436104983660046132bc565b6112ef565b6104b06104ab366004613317565b61131e565b60405161034f91906134c0565b6103436104cb366004613317565b6113fe565b6104b06104de3660046132bc565b611469565b61037e6104f13660046134d3565b611528565b61037e6105043660046132bc565b611619565b61037e610517366004613317565b6116aa565b6104b061052a3660046132bc565b61175d565b61037e61053d366004613317565b611797565b6103436105503660046132bc565b611867565b61037e6105633660046132bc565b611896565b61037e61057636600461353c565b611927565b61037e6105893660046132bc565b611a5b565b61037e61059c3660046132bc565b611aec565b61037e6105af3660046132bc565b611b7d565b61037e6105c2366004613625565b611c0e565b61037e6105d5366004613651565b611cfd565b6104b06105e836600461368f565b611dca565b6103436105fb3660046136cf565b6001600160a01b039283166000908152601760209081526040808320948352938152838220929094168152925290205460ff1690565b61064461063f36600461374b565b611e18565b60405161034f919061378d565b61034361065f3660046132bc565b611e26565b61037e6106723660046132bc565b611e55565b6104b06106853660046132bc565b611ee6565b6103436106983660046132bc565b611f20565b6106e16106ab3660046132bc565b6000818152602081815260408083205467ffffffffffffffff168352601182528083209383529290522080546001909101549091565b6040805192835260208301919091520161034f565b61037e6107043660046132bc565b611f4f565b61037e610717366004613317565b611fe0565b61037e61072a3660046137ef565b61215e565b61075961073d3660046132bc565b60006020819052908152604090205467ffffffffffffffff1681565b60405167ffffffffffffffff909116815260200161034f565b61037e6107803660046132bc565b612199565b6103436107933660046132bc565b60009081526002602052604090205460ff1690565b6103436107b63660046132bc565b61222a565b6106446107c936600461381f565b612259565b61037e6107dc36600461385e565b612266565b6103436107ef366004613893565b6001600160a01b03918216600090815260166020908152604080832093909416825291909152205460ff1690565b6104b061082b366004613409565b612379565b61037e61083e3660046132bc565b612441565b600061084e826124d2565b92915050565b60008181526010602052604081205460ff168061084e575060008281526002602052604090205460ff1661084e565b8261088d81612510565b6108aa57604051631648fd0160e01b815260040160405180910390fd5b6108b384611e26565b156108d157604051638d6ecc2b60e01b815260040160405180910390fd5b600084815260208181526040808320548151601f870184900484028101840190925285825283926060928392859267ffffffffffffffff9091169183916109379183918d908d908190840183828082843760009201919091525092939250506127779050565b90505b80515160208201511015610a61578661ffff1660000361099f5780604001519650610964816127d8565b94508460405160200161097791906138c1565b604051602081830303815290604052805190602001209250610998816127f9565b9350610a53565b60006109aa826127d8565b9050816040015161ffff168861ffff161415806109ce57506109cc8682612815565b155b15610a5157610a2a8c878a8e8e8080601f016020809104026020016040519081016040528093929190818152602001838380828437600092019190915250505060208801518d9150610a219082906138f3565b8b51158a612833565b816040015197508160200151965080955085805190602001209350610a4e826127f9565b94505b505b610a5c81612aa0565b61093a565b50835115610abc57610abc8a85888c8c8080601f0160208091040260200160405190810160405280939291908181526020018383808284376000920191909152508c9250610ab391508290508f6138f3565b89511588612833565b50505050505050505050565b84610ad281612510565b610aef57604051631648fd0160e01b815260040160405180910390fd5b610afa8686866113fe565b15610b31576040517f6095d2d800000000000000000000000000000000000000000000000000000000815260040160405180910390fd5b6000868152602081815260408083205467ffffffffffffffff1683526013825280832089845290915290819020905184918491610b719089908990613906565b90815260200160405180910390209182610b8c92919061399e565b508484604051610b9d929190613906565b6040518091039020867f448bc014f1536726cf8d54ff3d6481ed3cbc683c2591ca204274009afa09b1a187878787604051610bdb9493929190613a87565b60405180910390a3505050505050565b6000828152602081815260408083205467ffffffffffffffff168352600d825280832085845282528083206001600160e01b0319851684529091528120546001600160a01b03168015610c3f57905061084e565b6000610c4a8561128e565b90506001600160a01b038116610c655760009250505061084e565b6040516301ffc9a760e01b602482015260009081906001600160a01b0384169060440160408051601f198184030181529181526020820180517bffffffffffffffffffffffffffffffffffffffffffffffffffffffff166301ffc9a760e01b17905251610cd291906138c1565b600060405180830381855afa9150503d8060008114610d0d576040519150601f19603f3d011682016040523d82523d6000602084013e610d12565b606091505b5091509150811580610d25575060208151105b80610d67575080601f81518110610d3e57610d3e613ab9565b01602001517fff0000000000000000000000000000000000000000000000000000000000000016155b15610d7957600094505050505061084e565b6040516001600160e01b0319871660248201526001600160a01b0384169060440160408051601f198184030181529181526020820180517bffffffffffffffffffffffffffffffffffffffffffffffffffffffff166301ffc9a760e01b17905251610de491906138c1565b600060405180830381855afa9150503d8060008114610e1f576040519150601f19603f3d011682016040523d82523d6000602084013e610e24565b606091505b509092509050811580610e38575060208151105b80610e7a575080601f81518110610e5157610e51613ab9565b01602001517fff0000000000000000000000000000000000000000000000000000000000000016155b15610e8c57600094505050505061084e565b509095945050505050565b6000828152602081815260408083205467ffffffffffffffff16835260038252808320858452909152812060609060015b848111610faf5780851615801590610ef8575060008181526020839052604081208054610ef490613916565b9050115b15610fa75780826000838152602001908152602001600020808054610f1c90613916565b80601f0160208091040260200160405190810160405280929190818152602001828054610f4890613916565b8015610f955780601f10610f6a57610100808354040283529160200191610f95565b820191906000526020600020905b815481529060010190602001808311610f7857829003601f168201915b50505050509050935093505050610fc8565b60011b610ec8565b5060006040518060200160405280600081525092509250505b9250929050565b82610fd981612510565b610ff657604051631648fd0160e01b815260040160405180910390fd5b610fff84611f20565b15611036576040517f11d629a200000000000000000000000000000000000000000000000000000000815260040160405180910390fd5b604080518082018252848152602080820185815260008881528083528481205467ffffffffffffffff1681526011835284812089825283528490209251835551600190920191909155815185815290810184905285917f1d6f5e03d3f63eb58751986629a5439baee5079ff04f345becb66e23eb154e4691015b60405180910390a250505050565b826110c881612510565b6110e557604051631648fd0160e01b815260040160405180910390fd5b6110ee846112c0565b15611125576040517f57adc5a200000000000000000000000000000000000000000000000000000000815260040160405180910390fd5b6000848152602081815260408083205467ffffffffffffffff16835260078252808320878452909152902061115b83858361399e565b50837fe379c1624ed7e714cc0937528a32359d69d5281337765313dba4e081b72d757884846040516110b0929190613acf565b8061119881612510565b6111b557604051631648fd0160e01b815260040160405180910390fd5b60008281526001602052604090205460ff16156111fe576040517f5aeb7ba100000000000000000000000000000000000000000000000000000000815260040160405180910390fd5b6000828152602081905260408120805467ffffffffffffffff169161122283613ae3565b82546101009290920a67ffffffffffffffff818102199093169183160217909155600084815260208181526040918290205491519190921681528492507fc6621ccb8f3f5a04bb6502154b2caf6adf5983fe76dfef1cfc9c42e3579db444910160405180910390a25050565b60008061129c83603c612379565b905080516000036112b05750600092915050565b6112b981612b88565b9392505050565b60008181526008602052604081205460ff168061084e575060008281526002602052604090205460ff1661084e565b60008181526004602052604081205460ff168061084e575060008281526002602052604090205460ff1661084e565b6000838152602081815260408083205467ffffffffffffffff168352601382528083208684529091529081902090516060919061135e9085908590613906565b9081526020016040518091039020805461137790613916565b80601f01602080910402602001604051908101604052809291908181526020018280546113a390613916565b80156113f05780601f106113c5576101008083540402835291602001916113f0565b820191906000526020600020905b8154815290600101906020018083116113d357829003601f168201915b505050505090509392505050565b600083815260156020526040808220905161141c9085908590613906565b9081526040519081900360200190205460ff1680611448575060008481526014602052604090205460ff165b80611461575060008481526002602052604090205460ff165b949350505050565b6000818152602081815260408083205467ffffffffffffffff1683526009825280832084845290915290208054606091906114a390613916565b80601f01602080910402602001604051908101604052809291908181526020018280546114cf90613916565b801561151c5780601f106114f15761010080835404028352916020019161151c565b820191906000526020600020905b8154815290600101906020018083116114ff57829003601f168201915b50505050509050919050565b8361153281612510565b61154f57604051631648fd0160e01b815260040160405180910390fd5b611558856112ef565b1561158f576040517feae2aefb00000000000000000000000000000000000000000000000000000000815260040160405180910390fd5b8361159b6001826138f3565b16156115a657600080fd5b6000858152602081815260408083205467ffffffffffffffff16835260038252808320888452825280832087845290915290206115e483858361399e565b50604051849086907faa121bbeef5f32f5961a2a28966e769023910fc9479059ee3495d4c1a696efe390600090a35050505050565b8061162381612510565b61164057604051631648fd0160e01b815260040160405180910390fd5b6000828152601260205260409020805460ff1916600117905561167b826000908152600160208190526040909120805460ff19169091179055565b60405182907fa39121c8b30c9889276fb8e70a6f5b8c79133ada4cc7a550c46b63eb84ebd0ec90600090a25050565b826116b481612510565b6116d157604051631648fd0160e01b815260040160405180910390fd5b60016015600086815260200190815260200160002084846040516116f6929190613906565b90815260408051918290036020908101909220805493151560ff199485161790556000878152600192839052208054909216179055837fc6f4bbcfbcab1d196b1b4db79e5fab4e06112781da4e477c03ed627038f089f284846040516110b0929190613acf565b6000818152602081815260408083205467ffffffffffffffff168352600f825280832084845290915290208054606091906114a390613916565b826117a181612510565b6117be57604051631648fd0160e01b815260040160405180910390fd5b6117c784610854565b156117fe576040517f51091e0a00000000000000000000000000000000000000000000000000000000815260040160405180910390fd5b6000848152602081815260408083205467ffffffffffffffff168352600f8252808320878452909152902061183483858361399e565b50837fb7d29e911041e8d9b843369e890bcb72c9388692ba48b65ac54e7214c4c348f784846040516110b0929190613acf565b60008181526006602052604081205460ff168061084e575060008281526002602052604090205460ff1661084e565b806118a081612510565b6118bd57604051631648fd0160e01b815260040160405180910390fd5b6000828152600460205260409020805460ff191660011790556118f8826000908152600160208190526040909120805460ff19169091179055565b60405182907fb46e560d6048e812998919fe7390d8909abe18c152dc8ea10b2b2143b867980f90600090a25050565b8261193181612510565b61194e57604051631648fd0160e01b815260040160405180910390fd5b61195784611867565b1561198e576040517fad0d836b00000000000000000000000000000000000000000000000000000000815260040160405180910390fd5b837f65412581168e88a1e60c6459d7f44ae83ad0832e670826c05a4e2476b57af75284846040516119c092919061347b565b60405180910390a2603c8303611a1757837f52d7d861f09ab3d26239d492e8968629f95e9e318cf0b73bfddc441522a15fd26119fb84612b88565b6040516001600160a01b03909116815260200160405180910390a25b6000848152602081815260408083205467ffffffffffffffff1683526005825280832087845282528083208684529091529020611a548382613b0a565b5050505050565b80611a6581612510565b611a8257604051631648fd0160e01b815260040160405180910390fd5b6000828152600860205260409020805460ff19166001179055611abd826000908152600160208190526040909120805460ff19169091179055565b60405182907f966a32ce653d349f020a2d07b820bae18b14ebe2e0ba80cf356c2e30db64838e90600090a25050565b80611af681612510565b611b1357604051631648fd0160e01b815260040160405180910390fd5b6000828152601060205260409020805460ff19166001179055611b4e826000908152600160208190526040909120805460ff19169091179055565b60405182907fc34dafdc5a9131f39153ca2c997ca2a99c72e318076207a2efba042dd92ccf6990600090a25050565b80611b8781612510565b611ba457604051631648fd0160e01b815260040160405180910390fd5b6000828152601460205260409020805460ff19166001179055611bdf826000908152600160208190526040909120805460ff19169091179055565b60405182907f78b6fadf4b592f5e34716d2900600050dc197253cdeffe65aabd67c0bec3973b90600090a25050565b6001600160a01b0382163303611c915760405162461bcd60e51b815260206004820152602960248201527f455243313135353a2073657474696e6720617070726f76616c2073746174757360448201527f20666f722073656c66000000000000000000000000000000000000000000000060648201526084015b60405180910390fd5b3360008181526016602090815260408083206001600160a01b03871680855290835292819020805460ff191686151590811790915590519081529192917f17307eab39ab6107e8899845ad3d59bd9653f200f220920489ca2b5937696c31910160405180910390a35050565b6001600160a01b0382163303611d555760405162461bcd60e51b815260206004820181905260248201527f53657474696e672064656c65676174652073746174757320666f722073656c666044820152606401611c88565b33600081815260176020908152604080832087845282528083206001600160a01b03871680855290835292819020805460ff191686151590811790915590519384529286917ff0ddb3b04746704017f9aa8bd728fcc2c1d11675041205350018915f5e4750a0910160405180910390a4505050565b6000838152602081815260408083205467ffffffffffffffff168352600a82528083208684528252808320858452825280832061ffff85168452909152902080546060919061137790613916565b60606112b960008484612bb0565b6000818152600c602052604081205460ff168061084e575060008281526002602052604090205460ff1661084e565b80611e5f81612510565b611e7c57604051631648fd0160e01b815260040160405180910390fd5b6000828152600260205260409020805460ff19166001179055611eb7826000908152600160208190526040909120805460ff19169091179055565b60405182907f3dde24aba9fbcefde0dcec613d15da3515b35452ec4de963092f6af24694851b90600090a25050565b6000818152602081815260408083205467ffffffffffffffff1683526007825280832084845290915290208054606091906114a390613916565b60008181526012602052604081205460ff168061084e575060008281526002602052604090205460ff1661084e565b80611f5981612510565b611f7657604051631648fd0160e01b815260040160405180910390fd5b6000828152600660205260409020805460ff19166001179055611fb1826000908152600160208190526040909120805460ff19169091179055565b60405182907fa62b92bea6dba8f49ef24a42b362b06bb1e9f40842f52f91a3bd1c21ae0d6f9990600090a25050565b82611fea81612510565b61200757604051631648fd0160e01b815260040160405180910390fd5b61201084611e26565b1561202e57604051638d6ecc2b60e01b815260040160405180910390fd5b6000848152602081815260408083205467ffffffffffffffff16808452600983528184208885529092528220805491929161206890613916565b80601f016020809104026020016040519081016040528092919081815260200182805461209490613916565b80156120e15780601f106120b6576101008083540402835291602001916120e1565b820191906000526020600020905b8154815290600101906020018083116120c457829003601f168201915b5050505067ffffffffffffffff841660009081526009602090815260408083208b84529091529020919250612119905085878361399e565b50857f8f15ed4b723ef428f250961da8315675b507046737e19319fc1a4d81bfe87f8582878760405161214e93929190613bca565b60405180910390a2505050505050565b8161216881612510565b61218557604051631648fd0160e01b815260040160405180910390fd5b61219483603c61057685612d89565b505050565b806121a381612510565b6121c057604051631648fd0160e01b815260040160405180910390fd5b6000828152600c60205260409020805460ff191660011790556121fb826000908152600160208190526040909120805460ff19169091179055565b60405182907f6301cbd3eb3eaf1d312e8a2cb800c7ea5ad5c1b168e24346dedbe4e0fdca869890600090a25050565b6000818152600e602052604081205460ff168061084e575060008281526002602052604090205460ff1661084e565b6060611461848484612bb0565b8261227081612510565b61228d57604051631648fd0160e01b815260040160405180910390fd5b6122968461222a565b156122cd576040517f996dcd2200000000000000000000000000000000000000000000000000000000815260040160405180910390fd5b6000848152602081815260408083205467ffffffffffffffff168352600d825280832087845282528083206001600160e01b031987168085529083529281902080547fffffffffffffffffffffffff0000000000000000000000000000000000000000166001600160a01b038716908117909155905190815286917f7c69f06bea0bdef565b709e93a147836b0063ba2dd89f02d0b7e8d931e6a6daa910160405180910390a350505050565b6000828152602081815260408083205467ffffffffffffffff16835260058252808320858452825280832084845290915290208054606091906123bb90613916565b80601f01602080910402602001604051908101604052809291908181526020018280546123e790613916565b80156124345780601f1061240957610100808354040283529160200191612434565b820191906000526020600020905b81548152906001019060200180831161241757829003601f168201915b5050505050905092915050565b8061244b81612510565b61246857604051631648fd0160e01b815260040160405180910390fd5b6000828152600e60205260409020805460ff191660011790556124a3826000908152600160208190526040909120805460ff19169091179055565b60405182907f32ec32d91cef2cbb063dab25a1cffebc993c523b3969eecc70b04093bba8cae890600090a25050565b60006001600160e01b031982167f59d1d43c00000000000000000000000000000000000000000000000000000000148061084e575061084e82612dc2565b6000336001600160a01b037f00000000000000000000000000000000000000000000000000000000000000001614806125715750336001600160a01b037f000000000000000000000000000000000000000000000000000000000000000016145b1561257e57506001919050565b6040517f02571be3000000000000000000000000000000000000000000000000000000008152600481018390526000907f00000000000000000000000000000000000000000000000000000000000000006001600160a01b0316906302571be390602401602060405180830381865afa1580156125ff573d6000803e3d6000fd5b505050506040513d601f19601f820116820180604052508101906126239190613bfa565b90507f00000000000000000000000000000000000000000000000000000000000000006001600160a01b0316816001600160a01b031603612703576040517f6352211e000000000000000000000000000000000000000000000000000000008152600481018490527f00000000000000000000000000000000000000000000000000000000000000006001600160a01b031690636352211e90602401602060405180830381865afa1580156126dc573d6000803e3d6000fd5b505050506040513d601f19601f820116820180604052508101906127009190613bfa565b90505b6001600160a01b03811633148061273d57506001600160a01b038116600090815260166020908152604080832033845290915290205460ff165b806112b957506001600160a01b0381166000908152601760209081526040808320868452825280832033845290915290205460ff166112b9565b6127c56040518060e001604052806060815260200160008152602001600061ffff168152602001600061ffff168152602001600063ffffffff16815260200160008152602001600081525090565b82815260c0810182905261084e81612aa0565b6020810151815160609161084e916127f09082612e00565b84519190612e5a565b60a081015160c082015160609161084e916127f09082906138f3565b6000815183511480156112b957506112b98360008460008751612ed1565b865160208801206000612847878787612e5a565b905083156129715767ffffffffffffffff83166000908152600a602090815260408083208d84528252808320858452825280832061ffff8c1684529091529020805461289290613916565b1590506128f15767ffffffffffffffff83166000908152600b602090815260408083208d845282528083208584529091528120805461ffff16916128d583613c17565b91906101000a81548161ffff021916908361ffff160217905550505b67ffffffffffffffff83166000908152600a602090815260408083208d84528252808320858452825280832061ffff8c16845290915281206129329161322e565b897f03528ed0c2a3ebc993b12ce3c16bb382f9c7d88ef7d8a1bf290eaf35955a12078a8a604051612964929190613c35565b60405180910390a2610abc565b67ffffffffffffffff83166000908152600a602090815260408083208d84528252808320858452825280832061ffff8c168452909152902080546129b490613916565b9050600003612a155767ffffffffffffffff83166000908152600b602090815260408083208d845282528083208584529091528120805461ffff16916129f983613c5b565b91906101000a81548161ffff021916908361ffff160217905550505b67ffffffffffffffff83166000908152600a602090815260408083208d84528252808320858452825280832061ffff8c1684529091529020612a578282613b0a565b50897f52a608b3303a48862d07a73d82fa221318c0027fbbcfb1b2329bface3f19ff2b8a8a84604051612a8c93929190613c72565b60405180910390a250505050505050505050565b60c08101516020820181905281515111612ab75750565b6000612acb82600001518360200151612e00565b8260200151612ada9190613ca1565b8251909150612ae99082612ef4565b61ffff166040830152612afd600282613ca1565b8251909150612b0c9082612ef4565b61ffff166060830152612b20600282613ca1565b8251909150612b2f9082612f1c565b63ffffffff166080830152612b45600482613ca1565b8251909150600090612b579083612ef4565b61ffff169050612b68600283613ca1565b60a084018190529150612b7b8183613ca1565b60c0909301929092525050565b60008151601414612b9857600080fd5b50602001516c01000000000000000000000000900490565b60608167ffffffffffffffff811115612bcb57612bcb613526565b604051908082528060200260200182016040528015612bfe57816020015b6060815260200190600190039081612be95790505b50905060005b82811015612d81578415612cc9576000848483818110612c2657612c26613ab9565b9050602002810190612c389190613cb4565b612c4791602491600491613cfb565b612c5091613d25565b9050858114612cc75760405162461bcd60e51b815260206004820152603460248201527f6d756c746963616c6c3a20416c6c207265636f726473206d757374206861766560448201527f2061206d61746368696e67206e616d65686173680000000000000000000000006064820152608401611c88565b505b60008030868685818110612cdf57612cdf613ab9565b9050602002810190612cf19190613cb4565b604051612cff929190613906565b600060405180830381855af49150503d8060008114612d3a576040519150601f19603f3d011682016040523d82523d6000602084013e612d3f565b606091505b509150915081612d4e57600080fd5b80848481518110612d6157612d61613ab9565b602002602001018190525050508080612d7990613d43565b915050612c04565b509392505050565b6040805160148082528183019092526060916020820181803683375050506c010000000000000000000000009290920260208301525090565b60006001600160e01b031982167fc869023300000000000000000000000000000000000000000000000000000000148061084e575061084e82612f46565b6000815b83518110612e1457612e14613d5c565b6000612e208583612f84565b60ff169050612e30816001613ca1565b612e3a9083613ca1565b915080600003612e4a5750612e50565b50612e04565b61146183826138f3565b8251606090612e698385613ca1565b1115612e7457600080fd5b60008267ffffffffffffffff811115612e8f57612e8f613526565b6040519080825280601f01601f191660200182016040528015612eb9576020820181803683370190505b50905060208082019086860101610e8c828287612fa8565b6000612ede848484612ffe565b612ee9878785612ffe565b149695505050505050565b8151600090612f04836002613ca1565b1115612f0f57600080fd5b50016002015161ffff1690565b8151600090612f2c836004613ca1565b1115612f3757600080fd5b50016004015163ffffffff1690565b60006001600160e01b031982167f691f343100000000000000000000000000000000000000000000000000000000148061084e575061084e82613022565b6000828281518110612f9857612f98613ab9565b016020015160f81c905092915050565b60208110612fe05781518352612fbf602084613ca1565b9250612fcc602083613ca1565b9150612fd96020826138f3565b9050612fa8565b905182516020929092036101000a6000190180199091169116179052565b825160009061300d8385613ca1565b111561301857600080fd5b5091016020012090565b60006001600160e01b031982167f124a319c00000000000000000000000000000000000000000000000000000000148061084e575061084e8260006001600160e01b031982167fa8fa56820000000000000000000000000000000000000000000000000000000014806130be57506001600160e01b031982167f5c98042b00000000000000000000000000000000000000000000000000000000145b8061084e575061084e8260006001600160e01b031982167fbc1c58d100000000000000000000000000000000000000000000000000000000148061084e575061084e8260006001600160e01b031982167f3b3b57de00000000000000000000000000000000000000000000000000000000148061316457506001600160e01b031982167ff1cb7e0600000000000000000000000000000000000000000000000000000000145b8061084e575061084e8260006001600160e01b031982167f2203ab5600000000000000000000000000000000000000000000000000000000148061084e575061084e8260006001600160e01b031982167fd700ff3300000000000000000000000000000000000000000000000000000000148061084e575061084e8260006001600160e01b031982167f4fbf043300000000000000000000000000000000000000000000000000000000148061084e57506301ffc9a760e01b6001600160e01b031983161461084e565b50805461323a90613916565b6000825580601f1061324a575050565b601f016020900490600052602060002090810190613268919061326b565b50565b5b80821115613280576000815560010161326c565b5090565b80356001600160e01b03198116811461329c57600080fd5b919050565b6000602082840312156132b357600080fd5b6112b982613284565b6000602082840312156132ce57600080fd5b5035919050565b60008083601f8401126132e757600080fd5b50813567ffffffffffffffff8111156132ff57600080fd5b602083019150836020828501011115610fc857600080fd5b60008060006040848603121561332c57600080fd5b83359250602084013567ffffffffffffffff81111561334a57600080fd5b613356868287016132d5565b9497909650939450505050565b60008060008060006060868803121561337b57600080fd5b85359450602086013567ffffffffffffffff8082111561339a57600080fd5b6133a689838a016132d5565b909650945060408801359150808211156133bf57600080fd5b506133cc888289016132d5565b969995985093965092949392505050565b600080604083850312156133f057600080fd5b8235915061340060208401613284565b90509250929050565b6000806040838503121561341c57600080fd5b50508035926020909101359150565b60005b8381101561344657818101518382015260200161342e565b50506000910152565b6000815180845261346781602086016020860161342b565b601f01601f19169290920160200192915050565b828152604060208201526000611461604083018461344f565b6000806000606084860312156134a957600080fd5b505081359360208301359350604090920135919050565b6020815260006112b9602083018461344f565b600080600080606085870312156134e957600080fd5b8435935060208501359250604085013567ffffffffffffffff81111561350e57600080fd5b61351a878288016132d5565b95989497509550505050565b634e487b7160e01b600052604160045260246000fd5b60008060006060848603121561355157600080fd5b8335925060208401359150604084013567ffffffffffffffff8082111561357757600080fd5b818601915086601f83011261358b57600080fd5b81358181111561359d5761359d613526565b604051601f8201601f19908116603f011681019083821181831017156135c5576135c5613526565b816040528281528960208487010111156135de57600080fd5b8260208601602083013760006020848301015280955050505050509250925092565b6001600160a01b038116811461326857600080fd5b8035801515811461329c57600080fd5b6000806040838503121561363857600080fd5b823561364381613600565b915061340060208401613615565b60008060006060848603121561366657600080fd5b83359250602084013561367881613600565b915061368660408501613615565b90509250925092565b6000806000606084860312156136a457600080fd5b8335925060208401359150604084013561ffff811681146136c457600080fd5b809150509250925092565b6000806000606084860312156136e457600080fd5b83356136ef81613600565b92506020840135915060408401356136c481613600565b60008083601f84011261371857600080fd5b50813567ffffffffffffffff81111561373057600080fd5b6020830191508360208260051b8501011115610fc857600080fd5b6000806020838503121561375e57600080fd5b823567ffffffffffffffff81111561377557600080fd5b61378185828601613706565b90969095509350505050565b6000602080830181845280855180835260408601915060408160051b870101925083870160005b828110156137e257603f198886030184526137d085835161344f565b945092850192908501906001016137b4565b5092979650505050505050565b6000806040838503121561380257600080fd5b82359150602083013561381481613600565b809150509250929050565b60008060006040848603121561383457600080fd5b83359250602084013567ffffffffffffffff81111561385257600080fd5b61335686828701613706565b60008060006060848603121561387357600080fd5b8335925061388360208501613284565b915060408401356136c481613600565b600080604083850312156138a657600080fd5b82356138b181613600565b9150602083013561381481613600565b600082516138d381846020870161342b565b9190910192915050565b634e487b7160e01b600052601160045260246000fd5b8181038181111561084e5761084e6138dd565b8183823760009101908152919050565b600181811c9082168061392a57607f821691505b60208210810361394a57634e487b7160e01b600052602260045260246000fd5b50919050565b601f82111561219457600081815260208120601f850160051c810160208610156139775750805b601f850160051c820191505b8181101561399657828155600101613983565b505050505050565b67ffffffffffffffff8311156139b6576139b6613526565b6139ca836139c48354613916565b83613950565b6000601f8411600181146139fe57600085156139e65750838201355b600019600387901b1c1916600186901b178355611a54565b600083815260209020601f19861690835b82811015613a2f5786850135825560209485019460019092019101613a0f565b5086821015613a4c5760001960f88860031b161c19848701351681555b505060018560011b0183555050505050565b81835281816020850137506000828201602090810191909152601f909101601f19169091010190565b604081526000613a9b604083018688613a5e565b8281036020840152613aae818587613a5e565b979650505050505050565b634e487b7160e01b600052603260045260246000fd5b602081526000611461602083018486613a5e565b600067ffffffffffffffff808316818103613b0057613b006138dd565b6001019392505050565b815167ffffffffffffffff811115613b2457613b24613526565b613b3881613b328454613916565b84613950565b602080601f831160018114613b6d5760008415613b555750858301515b600019600386901b1c1916600185901b178555613996565b600085815260208120601f198616915b82811015613b9c57888601518255948401946001909101908401613b7d565b5085821015613bba5787850151600019600388901b60f8161c191681555b5050505050600190811b01905550565b604081526000613bdd604083018661344f565b8281036020840152613bf0818587613a5e565b9695505050505050565b600060208284031215613c0c57600080fd5b81516112b981613600565b600061ffff821680613c2b57613c2b6138dd565b6000190192915050565b604081526000613c48604083018561344f565b905061ffff831660208301529392505050565b600061ffff808316818103613b0057613b006138dd565b606081526000613c85606083018661344f565b61ffff851660208401528281036040840152613bf0818561344f565b8082018082111561084e5761084e6138dd565b6000808335601e19843603018112613ccb57600080fd5b83018035915067ffffffffffffffff821115613ce657600080fd5b602001915036819003821315610fc857600080fd5b60008085851115613d0b57600080fd5b83861115613d1857600080fd5b5050820193919092039150565b8035602083101561084e57600019602084900360031b1b1692915050565b600060018201613d5557613d556138dd565b5060010190565b634e487b7160e01b600052600160045260246000fdfea264697066735822122097d42e2a175c841b4da7d86392674d37afe2922f5d8dd77ccad6c47f4fcef04f64736f6c63430008110033",
  "devdoc": {
    "kind": "dev",
    "methods": {
      "ABI(bytes32,uint256)": {
        "params": {
          "contentTypes": "A bitwise OR of the ABI formats accepted by the caller.",
          "node": "The ENS node to query"
        },
        "returns": {
          "_0": "contentType The content type of the return value",
          "_1": "data The ABI data"
        }
      },
      "addr(bytes32)": {
        "params": {
          "node": "The ENS node to query."
        },
        "returns": {
          "_0": "The associated address."
        }
      },
      "approve(bytes32,address,bool)": {
        "details": "Approve a delegate to be able to updated records on a node."
      },
      "clearRecords(bytes32)": {
        "params": {
          "node": "The node to update."
        }
      },
      "contenthash(bytes32)": {
        "params": {
          "node": "The ENS node to query."
        },
        "returns": {
          "_0": "The associated contenthash."
        }
      },
      "dnsRecord(bytes32,bytes32,uint16)": {
        "params": {
          "name": "the keccak-256 hash of the fully-qualified name for which to fetch the record",
          "node": "the namehash of the node for which to fetch the record",
          "resource": "the ID of the resource as per https://en.wikipedia.org/wiki/List_of_DNS_record_types"
        },
        "returns": {
          "_0": "the DNS record in wire format if present, otherwise empty"
        }
      },
      "hasDNSRecords(bytes32,bytes32)": {
        "params": {
          "name": "the namehash of the node for which to check the records",
          "node": "the namehash of the node for which to check the records"
        }
      },
      "interfaceImplementer(bytes32,bytes4)": {
        "params": {
          "interfaceID": "The EIP 165 interface ID to check for.",
          "node": "The ENS node to query."
        },
        "returns": {
          "_0": "The address that implements this interface, or 0 if the interface is unsupported."
        }
      },
      "isABILocked(bytes32)": {
        "params": {
          "node": "The ENS node to check."
        }
      },
      "isAddrLocked(bytes32)": {
        "params": {
          "node": "The ENS node to check."
        }
      },
      "isAllLocked(bytes32)": {
        "params": {
          "node": "The node to check."
        }
      },
      "isApprovedFor(address,bytes32,address)": {
        "details": "Check to see if the delegate has been approved by the owner for the node."
      },
      "isApprovedForAll(address,address)": {
        "details": "See {IERC1155-isApprovedForAll}."
      },
      "isContenthashLocked(bytes32)": {
        "params": {
          "node": "The ENS node to check."
        }
      },
      "isDNSLocked(bytes32)": {
        "params": {
          "node": "The ENS node to check."
        }
      },
      "isInterfaceLocked(bytes32)": {
        "params": {
          "node": "The ENS node to check."
        }
      },
      "isNameLocked(bytes32)": {
        "params": {
          "node": "The ENS node to check."
        }
      },
      "isPubkeyLocked(bytes32)": {
        "params": {
          "node": "The ENS node to check."
        }
      },
      "isTextLocked(bytes32,string)": {
        "params": {
          "node": "The ENS node to check."
        }
      },
      "lockABI(bytes32)": {
        "params": {
          "node": "The node to lock."
        }
      },
      "lockAddr(bytes32)": {
        "params": {
          "node": "The node to lock."
        }
      },
      "lockAll(bytes32)": {
        "params": {
          "node": "The ENS node to lock."
        }
      },
      "lockContenthash(bytes32)": {
        "params": {
          "node": "The node to lock."
        }
      },
      "lockDNS(bytes32)": {
        "params": {
          "node": "The node to lock."
        }
      },
      "lockInterface(bytes32)": {
        "params": {
          "node": "The node to lock."
        }
      },
      "lockName(bytes32)": {
        "params": {
          "node": "The node to lock."
        }
      },
      "lockPubkey(bytes32)": {
        "params": {
          "node": "The node to lock."
        }
      },
      "lockText(bytes32)": {
        "params": {
          "node": "The node to lock."
        }
      },
      "lockText(bytes32,string)": {
        "params": {
          "node": "The node to lock."
        }
      },
      "name(bytes32)": {
        "params": {
          "node": "The ENS node to query."
        },
        "returns": {
          "_0": "The associated name."
        }
      },
      "pubkey(bytes32)": {
        "params": {
          "node": "The ENS node to query"
        },
        "returns": {
          "x": "The X coordinate of the curve point for the public key.",
          "y": "The Y coordinate of the curve point for the public key."
        }
      },
      "setABI(bytes32,uint256,bytes)": {
        "params": {
          "contentType": "The content type of the ABI",
          "data": "The ABI data.",
          "node": "The node to update."
        }
      },
      "setAddr(bytes32,address)": {
        "params": {
          "a": "The address to set.",
          "node": "The node to update."
        }
      },
      "setApprovalForAll(address,bool)": {
        "details": "See {IERC1155-setApprovalForAll}."
      },
      "setContenthash(bytes32,bytes)": {
        "params": {
          "hash": "The contenthash to set",
          "node": "The node to update."
        }
      },
      "setDNSRecords(bytes32,bytes)": {
        "params": {
          "data": "the DNS wire format records to set",
          "node": "the namehash of the node for which to set the records"
        }
      },
      "setInterface(bytes32,bytes4,address)": {
        "params": {
          "implementer": "The address of a contract that implements this interface for this node.",
          "interfaceID": "The EIP 165 interface ID.",
          "node": "The node to update."
        }
      },
      "setName(bytes32,string)": {
        "params": {
          "node": "The node to update."
        }
      },
      "setPubkey(bytes32,bytes32,bytes32)": {
        "params": {
          "node": "The ENS node to query",
          "x": "the X coordinate of the curve point for the public key.",
          "y": "the Y coordinate of the curve point for the public key."
        }
      },
      "setText(bytes32,string,string)": {
        "params": {
          "key": "The key to set.",
          "node": "The node to update.",
          "value": "The text data value to set."
        }
      },
      "setZonehash(bytes32,bytes)": {
        "params": {
          "hash": "The zonehash to set",
          "node": "The node to update."
        }
      },
      "text(bytes32,string)": {
        "params": {
          "key": "The text data key to query.",
          "node": "The ENS node to query."
        },
        "returns": {
          "_0": "The associated text data."
        }
      },
      "zonehash(bytes32)": {
        "params": {
          "node": "The ENS node to query."
        },
        "returns": {
          "_0": "The associated contenthash."
        }
      }
    },
    "version": 1
  },
  "userdoc": {
    "kind": "user",
    "methods": {
      "ABI(bytes32,uint256)": {
        "notice": "Returns the ABI associated with an ENS node. Defined in EIP205."
      },
      "addr(bytes32)": {
        "notice": "Returns the address associated with an ENS node."
      },
      "clearRecords(bytes32)": {
        "notice": "Increments the record version associated with an ENS node. May only be called by the owner of that node in the ENS registry."
      },
      "contenthash(bytes32)": {
        "notice": "Returns the contenthash associated with an ENS node."
      },
      "dnsRecord(bytes32,bytes32,uint16)": {
        "notice": "Obtain a DNS record."
      },
      "hasDNSRecords(bytes32,bytes32)": {
        "notice": "Check if a given node has records."
      },
      "interfaceImplementer(bytes32,bytes4)": {
        "notice": "Returns the address of a contract that implements the specified interface for this name. If an implementer has not been set for this interfaceID and name, the resolver will query the contract at `addr()`. If `addr()` is set, a contract exists at that address, and that contract implements EIP165 and returns `true` for the specified interfaceID, its address will be returned."
      },
      "isABILocked(bytes32)": {
        "notice": "Returns true if the ABI has been locked for this ENS node."
      },
      "isAddrLocked(bytes32)": {
        "notice": "Returns true if addresses have been locked for this ENS node."
      },
      "isAllLocked(bytes32)": {
        "notice": "Returns true if all records for this node have been locked."
      },
      "isContenthashLocked(bytes32)": {
        "notice": "Returns true if the contenthash has been locked for this ENS node."
      },
      "isDNSLocked(bytes32)": {
        "notice": "Returns true if the DNS records have been locked for this ENS node."
      },
      "isInterfaceLocked(bytes32)": {
        "notice": "Returns true if the interfaces have been locked for this ENS node."
      },
      "isNameLocked(bytes32)": {
        "notice": "Returns true if the name has been locked for this ENS node."
      },
      "isPubkeyLocked(bytes32)": {
        "notice": "Returns true if the public key has been locked for this ENS node."
      },
      "isTextLocked(bytes32,string)": {
        "notice": "Returns true if the text record has been locked for this ENS node."
      },
      "lockABI(bytes32)": {
        "notice": "Locks the ABI for this ENS node."
      },
      "lockAddr(bytes32)": {
        "notice": "Locks the addresses for this ENS node."
      },
      "lockAll(bytes32)": {
        "notice": "Locks all records for this ENS node."
      },
      "lockContenthash(bytes32)": {
        "notice": "Locks the contenthash for this ENS node."
      },
      "lockDNS(bytes32)": {
        "notice": "Locks the DNS records for this ENS node."
      },
      "lockInterface(bytes32)": {
        "notice": "Locks the interfaces for this ENS node."
      },
      "lockName(bytes32)": {
        "notice": "Locks the name for this ENS node."
      },
      "lockPubkey(bytes32)": {
        "notice": "Locks the public key for this ENS node."
      },
      "lockText(bytes32)": {
        "notice": "Locks all text records for this ENS node."
      },
      "lockText(bytes32,string)": {
        "notice": "Locks a specific text key for this ENS node."
      },
      "name(bytes32)": {
        "notice": "Returns the name associated with an ENS node, for reverse records. Defined in EIP181."
      },
      "pubkey(bytes32)": {
        "notice": "Returns the SECP256k1 public key associated with an ENS node. Defined in EIP 619."
      },
      "setABI(bytes32,uint256,bytes)": {
        "notice": "Sets the ABI associated with an ENS node. Nodes may have one ABI of each content type. To remove an ABI, set it to the empty string."
      },
      "setAddr(bytes32,address)": {
        "notice": "Sets the address associated with an ENS node. May only be called by the owner of that node in the ENS registry."
      },
      "setContenthash(bytes32,bytes)": {
        "notice": "Sets the contenthash associated with an ENS node. May only be called by the owner of that node in the ENS registry."
      },
      "setDNSRecords(bytes32,bytes)": {
        "notice": "Set one or more DNS records.  Records are supplied in wire-format. Records with the same node/name/resource must be supplied one after the other to ensure the data is updated correctly. For example, if the data was supplied:     a.example.com IN A 1.2.3.4     a.example.com IN A 5.6.7.8     www.example.com IN CNAME a.example.com. then this would store the two A records for a.example.com correctly as a single RRSET, however if the data was supplied:     a.example.com IN A 1.2.3.4     www.example.com IN CNAME a.example.com.     a.example.com IN A 5.6.7.8 then this would store the first A record, the CNAME, then the second A record which would overwrite the first."
      },
      "setInterface(bytes32,bytes4,address)": {
        "notice": "Sets an interface associated with a name. Setting the address to 0 restores the default behaviour of querying the contract at `addr()` for interface support."
      },
      "setName(bytes32,string)": {
        "notice": "Sets the name associated with an ENS node, for reverse records. May only be called by the owner of that node in the ENS registry."
      },
      "setPubkey(bytes32,bytes32,bytes32)": {
        "notice": "Sets the SECP256k1 public key associated with an ENS node."
      },
      "setText(bytes32,string,string)": {
        "notice": "Sets the text data associated with an ENS node and key. May only be called by the owner of that node in the ENS registry."
      },
      "setZonehash(bytes32,bytes)": {
        "notice": "setZonehash sets the hash for the zone. May only be called by the owner of that node in the ENS registry."
      },
      "text(bytes32,string)": {
        "notice": "Returns the text data associated with an ENS node and key."
      },
      "zonehash(bytes32)": {
        "notice": "zonehash obtains the hash for the zone."
      }
    },
    "notice": "A simple resolver anyone can use; only allows the owner of a node to set its address.",
    "version": 1
  },
  "storageLayout": {
    "storage": [
      {
        "astId": 4891,
        "contract": "contracts/resolvers/PublicResolver.sol:PublicResolver",
        "label": "recordVersions",
        "offset": 0,
        "slot": "0",
        "type": "t_mapping(t_bytes32,t_uint64)"
      },
      {
        "astId": 4895,
        "contract": "contracts/resolvers/PublicResolver.sol:PublicResolver",
        "label": "unclearable",
        "offset": 0,
        "slot": "1",
        "type": "t_mapping(t_bytes32,t_bool)"
      },
      {
        "astId": 4899,
        "contract": "contracts/resolvers/PublicResolver.sol:PublicResolver",
        "label": "allRecordsLocked",
        "offset": 0,
        "slot": "2",
        "type": "t_mapping(t_bytes32,t_bool)"
      },
      {
        "astId": 5044,
        "contract": "contracts/resolvers/PublicResolver.sol:PublicResolver",
        "label": "versionable_abis",
        "offset": 0,
        "slot": "3",
        "type": "t_mapping(t_uint64,t_mapping(t_bytes32,t_mapping(t_uint256,t_bytes_storage)))"
      },
      {
        "astId": 5048,
        "contract": "contracts/resolvers/PublicResolver.sol:PublicResolver",
        "label": "abi_locks",
        "offset": 0,
        "slot": "4",
        "type": "t_mapping(t_bytes32,t_bool)"
      },
      {
        "astId": 5257,
        "contract": "contracts/resolvers/PublicResolver.sol:PublicResolver",
        "label": "versionable_addresses",
        "offset": 0,
        "slot": "5",
        "type": "t_mapping(t_uint64,t_mapping(t_bytes32,t_mapping(t_uint256,t_bytes_storage)))"
      },
      {
        "astId": 5261,
        "contract": "contracts/resolvers/PublicResolver.sol:PublicResolver",
        "label": "addr_locks",
        "offset": 0,
        "slot": "6",
        "type": "t_mapping(t_bytes32,t_bool)"
      },
      {
        "astId": 5507,
        "contract": "contracts/resolvers/PublicResolver.sol:PublicResolver",
        "label": "versionable_hashes",
        "offset": 0,
        "slot": "7",
        "type": "t_mapping(t_uint64,t_mapping(t_bytes32,t_bytes_storage))"
      },
      {
        "astId": 5511,
        "contract": "contracts/resolvers/PublicResolver.sol:PublicResolver",
        "label": "contenthash_locks",
        "offset": 0,
        "slot": "8",
        "type": "t_mapping(t_bytes32,t_bool)"
      },
      {
        "astId": 5656,
        "contract": "contracts/resolvers/PublicResolver.sol:PublicResolver",
        "label": "versionable_zonehashes",
        "offset": 0,
        "slot": "9",
        "type": "t_mapping(t_uint64,t_mapping(t_bytes32,t_bytes_storage))"
      },
      {
        "astId": 5666,
        "contract": "contracts/resolvers/PublicResolver.sol:PublicResolver",
        "label": "versionable_records",
        "offset": 0,
        "slot": "10",
        "type": "t_mapping(t_uint64,t_mapping(t_bytes32,t_mapping(t_bytes32,t_mapping(t_uint16,t_bytes_storage))))"
      },
      {
        "astId": 5674,
        "contract": "contracts/resolvers/PublicResolver.sol:PublicResolver",
        "label": "versionable_nameEntriesCount",
        "offset": 0,
        "slot": "11",
        "type": "t_mapping(t_uint64,t_mapping(t_bytes32,t_mapping(t_bytes32,t_uint16)))"
      },
      {
        "astId": 5678,
        "contract": "contracts/resolvers/PublicResolver.sol:PublicResolver",
        "label": "dns_locks",
        "offset": 0,
        "slot": "12",
        "type": "t_mapping(t_bytes32,t_bool)"
      },
      {
        "astId": 6453,
        "contract": "contracts/resolvers/PublicResolver.sol:PublicResolver",
        "label": "versionable_interfaces",
        "offset": 0,
        "slot": "13",
        "type": "t_mapping(t_uint64,t_mapping(t_bytes32,t_mapping(t_bytes4,t_address)))"
      },
      {
        "astId": 6457,
        "contract": "contracts/resolvers/PublicResolver.sol:PublicResolver",
        "label": "interface_locks",
        "offset": 0,
        "slot": "14",
        "type": "t_mapping(t_bytes32,t_bool)"
      },
      {
        "astId": 6704,
        "contract": "contracts/resolvers/PublicResolver.sol:PublicResolver",
        "label": "versionable_names",
        "offset": 0,
        "slot": "15",
        "type": "t_mapping(t_uint64,t_mapping(t_bytes32,t_string_storage))"
      },
      {
        "astId": 6708,
        "contract": "contracts/resolvers/PublicResolver.sol:PublicResolver",
        "label": "name_locks",
        "offset": 0,
        "slot": "16",
        "type": "t_mapping(t_bytes32,t_bool)"
      },
      {
        "astId": 6850,
        "contract": "contracts/resolvers/PublicResolver.sol:PublicResolver",
        "label": "versionable_pubkeys",
        "offset": 0,
        "slot": "17",
        "type": "t_mapping(t_uint64,t_mapping(t_bytes32,t_struct(PublicKey)6843_storage))"
      },
      {
        "astId": 6854,
        "contract": "contracts/resolvers/PublicResolver.sol:PublicResolver",
        "label": "pubkey_locks",
        "offset": 0,
        "slot": "18",
        "type": "t_mapping(t_bytes32,t_bool)"
      },
      {
        "astId": 7012,
        "contract": "contracts/resolvers/PublicResolver.sol:PublicResolver",
        "label": "versionable_texts",
        "offset": 0,
        "slot": "19",
        "type": "t_mapping(t_uint64,t_mapping(t_bytes32,t_mapping(t_string_memory_ptr,t_string_storage)))"
      },
      {
        "astId": 7016,
        "contract": "contracts/resolvers/PublicResolver.sol:PublicResolver",
        "label": "text_locks",
        "offset": 0,
        "slot": "20",
        "type": "t_mapping(t_bytes32,t_bool)"
      },
      {
        "astId": 7022,
        "contract": "contracts/resolvers/PublicResolver.sol:PublicResolver",
        "label": "text_key_locks",
        "offset": 0,
        "slot": "21",
        "type": "t_mapping(t_bytes32,t_mapping(t_string_memory_ptr,t_bool))"
      },
      {
        "astId": 4615,
        "contract": "contracts/resolvers/PublicResolver.sol:PublicResolver",
        "label": "_operatorApprovals",
        "offset": 0,
        "slot": "22",
        "type": "t_mapping(t_address,t_mapping(t_address,t_bool))"
      },
      {
        "astId": 4624,
        "contract": "contracts/resolvers/PublicResolver.sol:PublicResolver",
        "label": "_tokenApprovals",
        "offset": 0,
        "slot": "23",
        "type": "t_mapping(t_address,t_mapping(t_bytes32,t_mapping(t_address,t_bool)))"
      }
    ],
    "types": {
      "t_address": {
        "encoding": "inplace",
        "label": "address",
        "numberOfBytes": "20"
      },
      "t_bool": {
        "encoding": "inplace",
        "label": "bool",
        "numberOfBytes": "1"
      },
      "t_bytes32": {
        "encoding": "inplace",
        "label": "bytes32",
        "numberOfBytes": "32"
      },
      "t_bytes4": {
        "encoding": "inplace",
        "label": "bytes4",
        "numberOfBytes": "4"
      },
      "t_bytes_storage": {
        "encoding": "bytes",
        "label": "bytes",
        "numberOfBytes": "32"
      },
      "t_mapping(t_address,t_bool)": {
        "encoding": "mapping",
        "key": "t_address",
        "label": "mapping(address => bool)",
        "numberOfBytes": "32",
        "value": "t_bool"
      },
      "t_mapping(t_address,t_mapping(t_address,t_bool))": {
        "encoding": "mapping",
        "key": "t_address",
        "label": "mapping(address => mapping(address => bool))",
        "numberOfBytes": "32",
        "value": "t_mapping(t_address,t_bool)"
      },
      "t_mapping(t_address,t_mapping(t_bytes32,t_mapping(t_address,t_bool)))": {
        "encoding": "mapping",
        "key": "t_address",
        "label": "mapping(address => mapping(bytes32 => mapping(address => bool)))",
        "numberOfBytes": "32",
        "value": "t_mapping(t_bytes32,t_mapping(t_address,t_bool))"
      },
      "t_mapping(t_bytes32,t_bool)": {
        "encoding": "mapping",
        "key": "t_bytes32",
        "label": "mapping(bytes32 => bool)",
        "numberOfBytes": "32",
        "value": "t_bool"
      },
      "t_mapping(t_bytes32,t_bytes_storage)": {
        "encoding": "mapping",
        "key": "t_bytes32",
        "label": "mapping(bytes32 => bytes)",
        "numberOfBytes": "32",
        "value": "t_bytes_storage"
      },
      "t_mapping(t_bytes32,t_mapping(t_address,t_bool))": {
        "encoding": "mapping",
        "key": "t_bytes32",
        "label": "mapping(bytes32 => mapping(address => bool))",
        "numberOfBytes": "32",
        "value": "t_mapping(t_address,t_bool)"
      },
      "t_mapping(t_bytes32,t_mapping(t_bytes32,t_mapping(t_uint16,t_bytes_storage)))": {
        "encoding": "mapping",
        "key": "t_bytes32",
        "label": "mapping(bytes32 => mapping(bytes32 => mapping(uint16 => bytes)))",
        "numberOfBytes": "32",
        "value": "t_mapping(t_bytes32,t_mapping(t_uint16,t_bytes_storage))"
      },
      "t_mapping(t_bytes32,t_mapping(t_bytes32,t_uint16))": {
        "encoding": "mapping",
        "key": "t_bytes32",
        "label": "mapping(bytes32 => mapping(bytes32 => uint16))",
        "numberOfBytes": "32",
        "value": "t_mapping(t_bytes32,t_uint16)"
      },
      "t_mapping(t_bytes32,t_mapping(t_bytes4,t_address))": {
        "encoding": "mapping",
        "key": "t_bytes32",
        "label": "mapping(bytes32 => mapping(bytes4 => address))",
        "numberOfBytes": "32",
        "value": "t_mapping(t_bytes4,t_address)"
      },
      "t_mapping(t_bytes32,t_mapping(t_string_memory_ptr,t_bool))": {
        "encoding": "mapping",
        "key": "t_bytes32",
        "label": "mapping(bytes32 => mapping(string => bool))",
        "numberOfBytes": "32",
        "value": "t_mapping(t_string_memory_ptr,t_bool)"
      },
      "t_mapping(t_bytes32,t_mapping(t_string_memory_ptr,t_string_storage))": {
        "encoding": "mapping",
        "key": "t_bytes32",
        "label": "mapping(bytes32 => mapping(string => string))",
        "numberOfBytes": "32",
        "value": "t_mapping(t_string_memory_ptr,t_string_storage)"
      },
      "t_mapping(t_bytes32,t_mapping(t_uint16,t_bytes_storage))": {
        "encoding": "mapping",
        "key": "t_bytes32",
        "label": "mapping(bytes32 => mapping(uint16 => bytes))",
        "numberOfBytes": "32",
        "value": "t_mapping(t_uint16,t_bytes_storage)"
      },
      "t_mapping(t_bytes32,t_mapping(t_uint256,t_bytes_storage))": {
        "encoding": "mapping",
        "key": "t_bytes32",
        "label": "mapping(bytes32 => mapping(uint256 => bytes))",
        "numberOfBytes": "32",
        "value": "t_mapping(t_uint256,t_bytes_storage)"
      },
      "t_mapping(t_bytes32,t_string_storage)": {
        "encoding": "mapping",
        "key": "t_bytes32",
        "label": "mapping(bytes32 => string)",
        "numberOfBytes": "32",
        "value": "t_string_storage"
      },
      "t_mapping(t_bytes32,t_struct(PublicKey)6843_storage)": {
        "encoding": "mapping",
        "key": "t_bytes32",
        "label": "mapping(bytes32 => struct PubkeyResolver.PublicKey)",
        "numberOfBytes": "32",
        "value": "t_struct(PublicKey)6843_storage"
      },
      "t_mapping(t_bytes32,t_uint16)": {
        "encoding": "mapping",
        "key": "t_bytes32",
        "label": "mapping(bytes32 => uint16)",
        "numberOfBytes": "32",
        "value": "t_uint16"
      },
      "t_mapping(t_bytes32,t_uint64)": {
        "encoding": "mapping",
        "key": "t_bytes32",
        "label": "mapping(bytes32 => uint64)",
        "numberOfBytes": "32",
        "value": "t_uint64"
      },
      "t_mapping(t_bytes4,t_address)": {
        "encoding": "mapping",
        "key": "t_bytes4",
        "label": "mapping(bytes4 => address)",
        "numberOfBytes": "32",
        "value": "t_address"
      },
      "t_mapping(t_string_memory_ptr,t_bool)": {
        "encoding": "mapping",
        "key": "t_string_memory_ptr",
        "label": "mapping(string => bool)",
        "numberOfBytes": "32",
        "value": "t_bool"
      },
      "t_mapping(t_string_memory_ptr,t_string_storage)": {
        "encoding": "mapping",
        "key": "t_string_memory_ptr",
        "label": "mapping(string => string)",
        "numberOfBytes": "32",
        "value": "t_string_storage"
      },
      "t_mapping(t_uint16,t_bytes_storage)": {
        "encoding": "mapping",
        "key": "t_uint16",
        "label": "mapping(uint16 => bytes)",
        "numberOfBytes": "32",
        "value": "t_bytes_storage"
      },
      "t_mapping(t_uint256,t_bytes_storage)": {
        "encoding": "mapping",
        "key": "t_uint256",
        "label": "mapping(uint256 => bytes)",
        "numberOfBytes": "32",
        "value": "t_bytes_storage"
      },
      "t_mapping(t_uint64,t_mapping(t_bytes32,t_bytes_storage))": {
        "encoding": "mapping",
        "key": "t_uint64",
        "label": "mapping(uint64 => mapping(bytes32 => bytes))",
        "numberOfBytes": "32",
        "value": "t_mapping(t_bytes32,t_bytes_storage)"
      },
      "t_mapping(t_uint64,t_mapping(t_bytes32,t_mapping(t_bytes32,t_mapping(t_uint16,t_bytes_storage))))": {
        "encoding": "mapping",
        "key": "t_uint64",
        "label": "mapping(uint64 => mapping(bytes32 => mapping(bytes32 => mapping(uint16 => bytes))))",
        "numberOfBytes": "32",
        "value": "t_mapping(t_bytes32,t_mapping(t_bytes32,t_mapping(t_uint16,t_bytes_storage)))"
      },
      "t_mapping(t_uint64,t_mapping(t_bytes32,t_mapping(t_bytes32,t_uint16)))": {
        "encoding": "mapping",
        "key": "t_uint64",
        "label": "mapping(uint64 => mapping(bytes32 => mapping(bytes32 => uint16)))",
        "numberOfBytes": "32",
        "value": "t_mapping(t_bytes32,t_mapping(t_bytes32,t_uint16))"
      },
      "t_mapping(t_uint64,t_mapping(t_bytes32,t_mapping(t_bytes4,t_address)))": {
        "encoding": "mapping",
        "key": "t_uint64",
        "label": "mapping(uint64 => mapping(bytes32 => mapping(bytes4 => address)))",
        "numberOfBytes": "32",
        "value": "t_mapping(t_bytes32,t_mapping(t_bytes4,t_address))"
      },
      "t_mapping(t_uint64,t_mapping(t_bytes32,t_mapping(t_string_memory_ptr,t_string_storage)))": {
        "encoding": "mapping",
        "key": "t_uint64",
        "label": "mapping(uint64 => mapping(bytes32 => mapping(string => string)))",
        "numberOfBytes": "32",
        "value": "t_mapping(t_bytes32,t_mapping(t_string_memory_ptr,t_string_storage))"
      },
      "t_mapping(t_uint64,t_mapping(t_bytes32,t_mapping(t_uint256,t_bytes_storage)))": {
        "encoding": "mapping",
        "key": "t_uint64",
        "label": "mapping(uint64 => mapping(bytes32 => mapping(uint256 => bytes)))",
        "numberOfBytes": "32",
        "value": "t_mapping(t_bytes32,t_mapping(t_uint256,t_bytes_storage))"
      },
      "t_mapping(t_uint64,t_mapping(t_bytes32,t_string_storage))": {
        "encoding": "mapping",
        "key": "t_uint64",
        "label": "mapping(uint64 => mapping(bytes32 => string))",
        "numberOfBytes": "32",
        "value": "t_mapping(t_bytes32,t_string_storage)"
      },
      "t_mapping(t_uint64,t_mapping(t_bytes32,t_struct(PublicKey)6843_storage))": {
        "encoding": "mapping",
        "key": "t_uint64",
        "label": "mapping(uint64 => mapping(bytes32 => struct PubkeyResolver.PublicKey))",
        "numberOfBytes": "32",
        "value": "t_mapping(t_bytes32,t_struct(PublicKey)6843_storage)"
      },
      "t_string_memory_ptr": {
        "encoding": "bytes",
        "label": "string",
        "numberOfBytes": "32"
      },
      "t_string_storage": {
        "encoding": "bytes",
        "label": "string",
        "numberOfBytes": "32"
      },
      "t_struct(PublicKey)6843_storage": {
        "encoding": "inplace",
        "label": "struct PubkeyResolver.PublicKey",
        "members": [
          {
            "astId": 6840,
            "contract": "contracts/resolvers/PublicResolver.sol:PublicResolver",
            "label": "x",
            "offset": 0,
            "slot": "0",
            "type": "t_bytes32"
          },
          {
            "astId": 6842,
            "contract": "contracts/resolvers/PublicResolver.sol:PublicResolver",
            "label": "y",
            "offset": 0,
            "slot": "1",
            "type": "t_bytes32"
          }
        ],
        "numberOfBytes": "64"
      },
      "t_uint16": {
        "encoding": "inplace",
        "label": "uint16",
        "numberOfBytes": "2"
      },
      "t_uint256": {
        "encoding": "inplace",
        "label": "uint256",
        "numberOfBytes": "32"
      },
      "t_uint64": {
        "encoding": "inplace",
        "label": "uint64",
        "numberOfBytes": "8"
      }
    }
  }
}