{
  "address": "0x01b6cd9216000C7167B861E574A26fd145bB0825",
  "abi": [
    {
      "inputs": [
        {
          "internalType": "contract ENS",
          "name": "_ens",
          "type": "address"
        },
        {
          "internalType": "contract IBaseRegistrar",
          "name": "_registrar",
          "type": "address"
        }
      ],
      "stateMutability": "nonpayable",
      "type": "constructor"
    },
    {
      "anonymous": false,
      "inputs": [
        {
          "indexed": true,
          "internalType": "address",
          "name": "previousOwner",
          "type": "address"
        },
        {
          "indexed": true,
          "internalType": "address",
          "name": "newOwner",
          "type": "address"
        }
      ],
      "name": "OwnershipTransferred",
      "type": "event"
    },
    {
      "inputs": [
        {
          "internalType": "address",
          "name": "",
          "type": "address"
        }
      ],
      "name": "approvedWrapper",
      "outputs": [
        {
          "internalType": "bool",
          "name": "",
          "type": "bool"
        }
      ],
      "stateMutability": "view",
      "type": "function"
    },
    {
      "inputs": [],
      "name": "ens",
      "outputs": [
        {
          "internalType": "contract ENS",
          "name": "",
          "type": "address"
        }
      ],
      "stateMutability": "view",
      "type": "function"
    },
    {
      "inputs": [],
      "name": "owner",
      "outputs": [
        {
          "internalType": "address",
          "name": "",
          "type": "address"
        }
      ],
      "stateMutability": "view",
      "type": "function"
    },
    {
      "inputs": [],
      "name": "registrar",
      "outputs": [
        {
          "internalType": "contract IBaseRegistrar",
          "name": "",
          "type": "address"
        }
      ],
      "stateMutability": "view",
      "type": "function"
    },
    {
      "inputs": [],
      "name": "renounceOwnership",
      "outputs": [],
      "stateMutability": "nonpayable",
      "type": "function"
    },
    {
      "inputs": [
        {
          "internalType": "bytes32",
          "name": "parentNode",
          "type": "bytes32"
        },
        {
          "internalType": "string",
          "name": "label",
          "type": "string"
        },
        {
          "internalType": "address",
          "name": "newOwner",
          "type": "address"
        },
        {
          "internalType": "address",
          "name": "resolver",
          "type": "address"
        },
        {
          "internalType": "uint64",
          "name": "ttl",
          "type": "uint64"
        },
        {
          "internalType": "uint32",
          "name": "fuses",
          "type": "uint32"
        },
        {
          "internalType": "uint64",
          "name": "expiry",
          "type": "uint64"
        }
      ],
      "name": "setSubnodeRecord",
      "outputs": [],
      "stateMutability": "nonpayable",
      "type": "function"
    },
    {
      "inputs": [
        {
          "internalType": "address",
          "name": "wrapper",
          "type": "address"
        },
        {
          "internalType": "bool",
          "name": "approved",
          "type": "bool"
        }
      ],
      "name": "setWrapperApproval",
      "outputs": [],
      "stateMutability": "nonpayable",
      "type": "function"
    },
    {
      "inputs": [
        {
          "internalType": "address",
          "name": "newOwner",
          "type": "address"
        }
      ],
      "name": "transferOwnership",
      "outputs": [],
      "stateMutability": "nonpayable",
      "type": "function"
    },
    {
      "inputs": [
        {
          "internalType": "string",
          "name": "label",
          "type": "string"
        },
        {
          "internalType": "address",
          "name": "wrappedOwner",
          "type": "address"
        },
        {
          "internalType": "uint32",
          "name": "fuses",
          "type": "uint32"
        },
        {
          "internalType": "uint64",
          "name": "expiry",
          "type": "uint64"
        },
        {
          "internalType": "address",
          "name": "resolver",
          "type": "address"
        }
      ],
      "name": "wrapETH2LD",
      "outputs": [],
      "stateMutability": "nonpayable",
      "type": "function"
    },
    {
      "inputs": [
        {
          "internalType": "bytes",
          "name": "name",
          "type": "bytes"
        },
        {
          "internalType": "address",
          "name": "wrappedOwner",
          "type": "address"
        },
        {
          "internalType": "uint32",
          "name": "fuses",
          "type": "uint32"
        },
        {
          "internalType": "uint64",
          "name": "expiry",
          "type": "uint64"
        },
        {
          "internalType": "bytes",
          "name": "extraData",
          "type": "bytes"
        }
      ],
      "name": "wrapFromUpgrade",
      "outputs": [],
      "stateMutability": "nonpayable",
      "type": "function"
    }
  ],
  "transactionHash": "0x49ac0d047d96ed1b1951ebfdcb84c949afaa020442adb39348ba1af682527b3c",
  "args": [
    "0x00000000000C2E074eC69A0dFb2997BA6C7d2e1e",
    "0x57f1887a8BF19b14fC0dF6Fd9B2acc9Af147eA85"
  ],
  "numDeployments": 1,
  "solcInputHash": "2813443d96b2eb882a21ada25755af03",
  "bytecode": "0x60c060405234801561001057600080fd5b5060405161117138038061117183398101604081905261002f916100b7565b6100383361004f565b6001600160a01b039182166080521660a0526100f1565b600080546001600160a01b038381166001600160a01b0319831681178455604051919092169283917f8be0079c531659141344cd1fd0a4f28419497f9722a3daafe3b4186f6b6457e09190a35050565b6001600160a01b03811681146100b457600080fd5b50565b600080604083850312156100ca57600080fd5b82516100d58161009f565b60208401519092506100e68161009f565b809150509250929050565b60805160a05161102a61014760003960008181610102015281816105e6015281816106c1015281816107b70152610858015260008181610146015281816108ef015281816109ca0152610ac0015261102a6000f3fe608060405234801561001057600080fd5b50600436106100bd5760003560e01c8063715018a611610076578063c6d6d7c11161005b578063c6d6d7c114610181578063f2fde38b146101b4578063f9547a9e146101c757600080fd5b8063715018a6146101685780638da5cb5b1461017057600080fd5b806324c1af44116100a757806324c1af44146100ea5780632b20e397146100fd5780633f15457f1461014157600080fd5b8062309314146100c25780630cc17365146100d7575b600080fd5b6100d56100d0366004610c98565b6101da565b005b6100d56100e5366004610d4d565b6102e4565b6100d56100f8366004610d9c565b610317565b6101247f000000000000000000000000000000000000000000000000000000000000000081565b6040516001600160a01b0390911681526020015b60405180910390f35b6101247f000000000000000000000000000000000000000000000000000000000000000081565b6100d5610368565b6000546001600160a01b0316610124565b6101a461018f366004610eaa565b60016020526000908152604090205460ff1681565b6040519015158152602001610138565b6100d56101c2366004610eaa565b61037c565b6100d56101d5366004610ece565b610411565b60008061022160008a8a8080601f016020809104026020016040519081016040528093929190818152602001838380828437600092019190915250929392505061043b9050565b91509150600061026a828b8b8080601f01602080910402602001604051908101604052809392919081815260200183838082843760009201919091525092939250506104f29050565b604080516020808201849052818301879052825180830384018152606090920190925280519101209091507f6c32148f748aba23997146d7fe89e962e3cc30271290fb96f5f4337756c03b5282016102cc576102c7848a336105b2565b6102d7565b6102d7818a336108bd565b5050505050505050505050565b6102ec610b18565b6001600160a01b03919091166000908152600160205260409020805460ff1916911515919091179055565b6000610351888880519060200120604080516020808201949094528082019290925280518083038201815260609092019052805191012090565b905061035e8187336108bd565b5050505050505050565b610370610b18565b61037a6000610b72565b565b610384610b18565b6001600160a01b0381166104055760405162461bcd60e51b815260206004820152602660248201527f4f776e61626c653a206e6577206f776e657220697320746865207a65726f206160448201527f646472657373000000000000000000000000000000000000000000000000000060648201526084015b60405180910390fd5b61040e81610b72565b50565b6104338686604051610424929190610f58565b604051809103902085336105b2565b505050505050565b6000808351831061048e5760405162461bcd60e51b815260206004820152601e60248201527f726561644c6162656c3a20496e646578206f7574206f6620626f756e6473000060448201526064016103fc565b60008484815181106104a2576104a2610f68565b016020015160f81c905080156104ce576104c7856104c1866001610f94565b83610bda565b92506104d3565b600092505b6104dd8185610f94565b6104e8906001610f94565b9150509250929050565b6000806000610501858561043b565b90925090508161057357600185516105199190610fa7565b84146105675760405162461bcd60e51b815260206004820152601d60248201527f6e616d65686173683a204a756e6b20617420656e64206f66206e616d6500000060448201526064016103fc565b50600091506105ac9050565b61057d85826104f2565b604080516020810192909252810183905260600160405160208183030381529060405280519060200120925050505b92915050565b6040517f6352211e0000000000000000000000000000000000000000000000000000000081526004810184905283906000907f00000000000000000000000000000000000000000000000000000000000000006001600160a01b031690636352211e90602401602060405180830381865afa158015610635573d6000803e3d6000fd5b505050506040513d601f19601f820116820180604052508101906106599190610fba565b6001600160a01b03841660009081526001602052604090205490915060ff1680156106955750806001600160a01b0316836001600160a01b0316145b801561072c575060405163e985e9c560e01b81526001600160a01b0382811660048301523060248301527f0000000000000000000000000000000000000000000000000000000000000000169063e985e9c590604401602060405180830381865afa158015610708573d6000803e3d6000fd5b505050506040513d601f19601f8201168201806040525081019061072c9190610fd7565b6107785760405162461bcd60e51b815260206004820152600c60248201527f556e617574686f7269736564000000000000000000000000000000000000000060448201526064016103fc565b6040517f28ed4f6c000000000000000000000000000000000000000000000000000000008152600481018390526001600160a01b0385811660248301527f000000000000000000000000000000000000000000000000000000000000000016906328ed4f6c90604401600060405180830381600087803b1580156107fb57600080fd5b505af115801561080f573d6000803e3d6000fd5b50506040517f23b872dd0000000000000000000000000000000000000000000000000000000081526001600160a01b0384811660048301528781166024830152604482018690527f00000000000000000000000000000000000000000000000000000000000000001692506323b872dd9150606401600060405180830381600087803b15801561089e57600080fd5b505af11580156108b2573d6000803e3d6000fd5b505050505050505050565b6040517f02571be3000000000000000000000000000000000000000000000000000000008152600481018490526000907f00000000000000000000000000000000000000000000000000000000000000006001600160a01b0316906302571be390602401602060405180830381865afa15801561093e573d6000803e3d6000fd5b505050506040513d601f19601f820116820180604052508101906109629190610fba565b6001600160a01b03831660009081526001602052604090205490915060ff16801561099e5750816001600160a01b0316816001600160a01b0316145b8015610a35575060405163e985e9c560e01b81526001600160a01b0382811660048301523060248301527f0000000000000000000000000000000000000000000000000000000000000000169063e985e9c590604401602060405180830381865afa158015610a11573d6000803e3d6000fd5b505050506040513d601f19601f82011682018060405250810190610a359190610fd7565b610a815760405162461bcd60e51b815260206004820152600c60248201527f556e617574686f7269736564000000000000000000000000000000000000000060448201526064016103fc565b6040517f5b0fc9c3000000000000000000000000000000000000000000000000000000008152600481018590526001600160a01b0384811660248301527f00000000000000000000000000000000000000000000000000000000000000001690635b0fc9c390604401600060405180830381600087803b158015610b0457600080fd5b505af115801561035e573d6000803e3d6000fd5b6000546001600160a01b0316331461037a5760405162461bcd60e51b815260206004820181905260248201527f4f776e61626c653a2063616c6c6572206973206e6f7420746865206f776e657260448201526064016103fc565b600080546001600160a01b038381167fffffffffffffffffffffffff0000000000000000000000000000000000000000831681178455604051919092169283917f8be0079c531659141344cd1fd0a4f28419497f9722a3daafe3b4186f6b6457e09190a35050565b8251600090610be98385610f94565b1115610bf457600080fd5b5091016020012090565b60008083601f840112610c1057600080fd5b50813567ffffffffffffffff811115610c2857600080fd5b602083019150836020828501011115610c4057600080fd5b9250929050565b6001600160a01b038116811461040e57600080fd5b8035610c6781610c47565b919050565b803563ffffffff81168114610c6757600080fd5b803567ffffffffffffffff81168114610c6757600080fd5b600080600080600080600060a0888a031215610cb357600080fd5b873567ffffffffffffffff80821115610ccb57600080fd5b610cd78b838c01610bfe565b909950975060208a01359150610cec82610c47565b819650610cfb60408b01610c6c565b9550610d0960608b01610c80565b945060808a0135915080821115610d1f57600080fd5b50610d2c8a828b01610bfe565b989b979a50959850939692959293505050565b801515811461040e57600080fd5b60008060408385031215610d6057600080fd5b8235610d6b81610c47565b91506020830135610d7b81610d3f565b809150509250929050565b634e487b7160e01b600052604160045260246000fd5b600080600080600080600060e0888a031215610db757600080fd5b87359650602088013567ffffffffffffffff80821115610dd657600080fd5b818a0191508a601f830112610dea57600080fd5b813581811115610dfc57610dfc610d86565b604051601f8201601f19908116603f01168101908382118183101715610e2457610e24610d86565b816040528281528d6020848701011115610e3d57600080fd5b82602086016020830137600060208483010152809a505050505050610e6460408901610c5c565b9450610e7260608901610c5c565b9350610e8060808901610c80565b9250610e8e60a08901610c6c565b9150610e9c60c08901610c80565b905092959891949750929550565b600060208284031215610ebc57600080fd5b8135610ec781610c47565b9392505050565b60008060008060008060a08789031215610ee757600080fd5b863567ffffffffffffffff811115610efe57600080fd5b610f0a89828a01610bfe565b9097509550506020870135610f1e81610c47565b9350610f2c60408801610c6c565b9250610f3a60608801610c80565b91506080870135610f4a81610c47565b809150509295509295509295565b8183823760009101908152919050565b634e487b7160e01b600052603260045260246000fd5b634e487b7160e01b600052601160045260246000fd5b808201808211156105ac576105ac610f7e565b818103818111156105ac576105ac610f7e565b600060208284031215610fcc57600080fd5b8151610ec781610c47565b600060208284031215610fe957600080fd5b8151610ec781610d3f56fea2646970667358221220f9ce6d65d3a2a62f646bdae562e707c32f57037835cd22406bfff2eeac5a176664736f6c63430008110033",
  "devdoc": {
    "kind": "dev",
    "methods": {
      "owner()": {
        "details": "Returns the address of the current owner."
      },
      "renounceOwnership()": {
        "details": "Leaves the contract without owner. It will not be possible to call `onlyOwner` functions anymore. Can only be called by the current owner. NOTE: Renouncing ownership will leave the contract without an owner, thereby removing any functionality that is only available to the owner."
      },
      "transferOwnership(address)": {
        "details": "Transfers ownership of the contract to a new account (`newOwner`). Can only be called by the current owner."
      }
    },
    "version": 1
  },
  "userdoc": {
    "kind": "user",
    "methods": {},
    "version": 1
  },
  "storageLayout": {
    "storage": [
      {
        "astId": 545,
        "contract": "contracts/wrapper/mocks/TestUnwrap.sol:TestUnwrap",
        "label": "_owner",
        "offset": 0,
        "slot": "0",
        "type": "t_address"
      },
      {
        "astId": 24386,
        "contract": "contracts/wrapper/mocks/TestUnwrap.sol:TestUnwrap",
        "label": "approvedWrapper",
        "offset": 0,
        "slot": "1",
        "type": "t_mapping(t_address,t_bool)"
      }
    ],
    "types": {
      "t_address": {
        "encoding": "inplace",
        "label": "address",
        "numberOfBytes": "20"
      },
      "t_bool": {
        "encoding": "inplace",
        "label": "bool",
        "numberOfBytes": "1"
      },
      "t_mapping(t_address,t_bool)": {
        "encoding": "mapping",
        "key": "t_address",
        "label": "mapping(address => bool)",
        "numberOfBytes": "32",
        "value": "t_bool"
      }
    }
  }
}