{
  "contracts/legacy/PublicResolver_mainnet_9412610.sol": {
    "PublicResolver_mainnet_9412610": {
      "abi": [
        {
          "inputs": [
            {
              "internalType": "contract ENS",
              "name": "_ens",
              "type": "address"
            }
          ],
          "payable": false,
          "stateMutability": "nonpayable",
          "type": "constructor"
        },
        {
          "anonymous": false,
          "inputs": [
            {
              "indexed": true,
              "internalType": "bytes32",
              "name": "node",
              "type": "bytes32"
            },
            {
              "indexed": true,
              "internalType": "uint256",
              "name": "contentType",
              "type": "uint256"
            }
          ],
          "name": "ABIChanged",
          "type": "event"
        },
        {
          "anonymous": false,
          "inputs": [
            {
              "indexed": true,
              "internalType": "bytes32",
              "name": "node",
              "type": "bytes32"
            },
            {
              "indexed": false,
              "internalType": "address",
              "name": "a",
              "type": "address"
            }
          ],
          "name": "AddrChanged",
          "type": "event"
        },
        {
          "anonymous": false,
          "inputs": [
            {
              "indexed": true,
              "internalType": "bytes32",
              "name": "node",
              "type": "bytes32"
            },
            {
              "indexed": false,
              "internalType": "uint256",
              "name": "coinType",
              "type": "uint256"
            },
            {
              "indexed": false,
              "internalType": "bytes",
              "name": "newAddress",
              "type": "bytes"
            }
          ],
          "name": "AddressChanged",
          "type": "event"
        },
        {
          "anonymous": false,
          "inputs": [
            {
              "indexed": true,
              "internalType": "bytes32",
              "name": "node",
              "type": "bytes32"
            },
            {
              "indexed": true,
              "internalType": "address",
              "name": "owner",
              "type": "address"
            },
            {
              "indexed": true,
              "internalType": "address",
              "name": "target",
              "type": "address"
            },
            {
              "indexed": false,
              "internalType": "bool",
              "name": "isAuthorised",
              "type": "bool"
            }
          ],
          "name": "AuthorisationChanged",
          "type": "event"
        },
        {
          "anonymous": false,
          "inputs": [
            {
              "indexed": true,
              "internalType": "bytes32",
              "name": "node",
              "type": "bytes32"
            },
            {
              "indexed": false,
              "internalType": "bytes",
              "name": "hash",
              "type": "bytes"
            }
          ],
          "name": "ContenthashChanged",
          "type": "event"
        },
        {
          "anonymous": false,
          "inputs": [
            {
              "indexed": true,
              "internalType": "bytes32",
              "name": "node",
              "type": "bytes32"
            },
            {
              "indexed": false,
              "internalType": "bytes",
              "name": "name",
              "type": "bytes"
            },
            {
              "indexed": false,
              "internalType": "uint16",
              "name": "resource",
              "type": "uint16"
            },
            {
              "indexed": false,
              "internalType": "bytes",
              "name": "record",
              "type": "bytes"
            }
          ],
          "name": "DNSRecordChanged",
          "type": "event"
        },
        {
          "anonymous": false,
          "inputs": [
            {
              "indexed": true,
              "internalType": "bytes32",
              "name": "node",
              "type": "bytes32"
            },
            {
              "indexed": false,
              "internalType": "bytes",
              "name": "name",
              "type": "bytes"
            },
            {
              "indexed": false,
              "internalType": "uint16",
              "name": "resource",
              "type": "uint16"
            }
          ],
          "name": "DNSRecordDeleted",
          "type": "event"
        },
        {
          "anonymous": false,
          "inputs": [
            {
              "indexed": true,
              "internalType": "bytes32",
              "name": "node",
              "type": "bytes32"
            }
          ],
          "name": "DNSZoneCleared",
          "type": "event"
        },
        {
          "anonymous": false,
          "inputs": [
            {
              "indexed": true,
              "internalType": "bytes32",
              "name": "node",
              "type": "bytes32"
            },
            {
              "indexed": true,
              "internalType": "bytes4",
              "name": "interfaceID",
              "type": "bytes4"
            },
            {
              "indexed": false,
              "internalType": "address",
              "name": "implementer",
              "type": "address"
            }
          ],
          "name": "InterfaceChanged",
          "type": "event"
        },
        {
          "anonymous": false,
          "inputs": [
            {
              "indexed": true,
              "internalType": "bytes32",
              "name": "node",
              "type": "bytes32"
            },
            {
              "indexed": false,
              "internalType": "string",
              "name": "name",
              "type": "string"
            }
          ],
          "name": "NameChanged",
          "type": "event"
        },
        {
          "anonymous": false,
          "inputs": [
            {
              "indexed": true,
              "internalType": "bytes32",
              "name": "node",
              "type": "bytes32"
            },
            {
              "indexed": false,
              "internalType": "bytes32",
              "name": "x",
              "type": "bytes32"
            },
            {
              "indexed": false,
              "internalType": "bytes32",
              "name": "y",
              "type": "bytes32"
            }
          ],
          "name": "PubkeyChanged",
          "type": "event"
        },
        {
          "anonymous": false,
          "inputs": [
            {
              "indexed": true,
              "internalType": "bytes32",
              "name": "node",
              "type": "bytes32"
            },
            {
              "indexed": true,
              "internalType": "string",
              "name": "indexedKey",
              "type": "string"
            },
            {
              "indexed": false,
              "internalType": "string",
              "name": "key",
              "type": "string"
            }
          ],
          "name": "TextChanged",
          "type": "event"
        },
        {
          "constant": true,
          "inputs": [
            {
              "internalType": "bytes32",
              "name": "node",
              "type": "bytes32"
            },
            {
              "internalType": "uint256",
              "name": "contentTypes",
              "type": "uint256"
            }
          ],
          "name": "ABI",
          "outputs": [
            {
              "internalType": "uint256",
              "name": "",
              "type": "uint256"
            },
            {
              "internalType": "bytes",
              "name": "",
              "type": "bytes"
            }
          ],
          "payable": false,
          "stateMutability": "view",
          "type": "function"
        },
        {
          "constant": true,
          "inputs": [
            {
              "internalType": "bytes32",
              "name": "node",
              "type": "bytes32"
            }
          ],
          "name": "addr",
          "outputs": [
            {
              "internalType": "address payable",
              "name": "",
              "type": "address"
            }
          ],
          "payable": false,
          "stateMutability": "view",
          "type": "function"
        },
        {
          "constant": true,
          "inputs": [
            {
              "internalType": "bytes32",
              "name": "node",
              "type": "bytes32"
            },
            {
              "internalType": "uint256",
              "name": "coinType",
              "type": "uint256"
            }
          ],
          "name": "addr",
          "outputs": [
            {
              "internalType": "bytes",
              "name": "",
              "type": "bytes"
            }
          ],
          "payable": false,
          "stateMutability": "view",
          "type": "function"
        },
        {
          "constant": true,
          "inputs": [
            {
              "internalType": "bytes32",
              "name": "",
              "type": "bytes32"
            },
            {
              "internalType": "address",
              "name": "",
              "type": "address"
            },
            {
              "internalType": "address",
              "name": "",
              "type": "address"
            }
          ],
          "name": "authorisations",
          "outputs": [
            {
              "internalType": "bool",
              "name": "",
              "type": "bool"
            }
          ],
          "payable": false,
          "stateMutability": "view",
          "type": "function"
        },
        {
          "constant": false,
          "inputs": [
            {
              "internalType": "bytes32",
              "name": "node",
              "type": "bytes32"
            }
          ],
          "name": "clearDNSZone",
          "outputs": [],
          "payable": false,
          "stateMutability": "nonpayable",
          "type": "function"
        },
        {
          "constant": true,
          "inputs": [
            {
              "internalType": "bytes32",
              "name": "node",
              "type": "bytes32"
            }
          ],
          "name": "contenthash",
          "outputs": [
            {
              "internalType": "bytes",
              "name": "",
              "type": "bytes"
            }
          ],
          "payable": false,
          "stateMutability": "view",
          "type": "function"
        },
        {
          "constant": true,
          "inputs": [
            {
              "internalType": "bytes32",
              "name": "node",
              "type": "bytes32"
            },
            {
              "internalType": "bytes32",
              "name": "name",
              "type": "bytes32"
            },
            {
              "internalType": "uint16",
              "name": "resource",
              "type": "uint16"
            }
          ],
          "name": "dnsRecord",
          "outputs": [
            {
              "internalType": "bytes",
              "name": "",
              "type": "bytes"
            }
          ],
          "payable": false,
          "stateMutability": "view",
          "type": "function"
        },
        {
          "constant": true,
          "inputs": [
            {
              "internalType": "bytes32",
              "name": "node",
              "type": "bytes32"
            },
            {
              "internalType": "bytes32",
              "name": "name",
              "type": "bytes32"
            }
          ],
          "name": "hasDNSRecords",
          "outputs": [
            {
              "internalType": "bool",
              "name": "",
              "type": "bool"
            }
          ],
          "payable": false,
          "stateMutability": "view",
          "type": "function"
        },
        {
          "constant": true,
          "inputs": [
            {
              "internalType": "bytes32",
              "name": "node",
              "type": "bytes32"
            },
            {
              "internalType": "bytes4",
              "name": "interfaceID",
              "type": "bytes4"
            }
          ],
          "name": "interfaceImplementer",
          "outputs": [
            {
              "internalType": "address",
              "name": "",
              "type": "address"
            }
          ],
          "payable": false,
          "stateMutability": "view",
          "type": "function"
        },
        {
          "constant": false,
          "inputs": [
            {
              "internalType": "bytes[]",
              "name": "data",
              "type": "bytes[]"
            }
          ],
          "name": "multicall",
          "outputs": [
            {
              "internalType": "bytes[]",
              "name": "results",
              "type": "bytes[]"
            }
          ],
          "payable": false,
          "stateMutability": "nonpayable",
          "type": "function"
        },
        {
          "constant": true,
          "inputs": [
            {
              "internalType": "bytes32",
              "name": "node",
              "type": "bytes32"
            }
          ],
          "name": "name",
          "outputs": [
            {
              "internalType": "string",
              "name": "",
              "type": "string"
            }
          ],
          "payable": false,
          "stateMutability": "view",
          "type": "function"
        },
        {
          "constant": true,
          "inputs": [
            {
              "internalType": "bytes32",
              "name": "node",
              "type": "bytes32"
            }
          ],
          "name": "pubkey",
          "outputs": [
            {
              "internalType": "bytes32",
              "name": "x",
              "type": "bytes32"
            },
            {
              "internalType": "bytes32",
              "name": "y",
              "type": "bytes32"
            }
          ],
          "payable": false,
          "stateMutability": "view",
          "type": "function"
        },
        {
          "constant": false,
          "inputs": [
            {
              "internalType": "bytes32",
              "name": "node",
              "type": "bytes32"
            },
            {
              "internalType": "uint256",
              "name": "contentType",
              "type": "uint256"
            },
            {
              "internalType": "bytes",
              "name": "data",
              "type": "bytes"
            }
          ],
          "name": "setABI",
          "outputs": [],
          "payable": false,
          "stateMutability": "nonpayable",
          "type": "function"
        },
        {
          "constant": false,
          "inputs": [
            {
              "internalType": "bytes32",
              "name": "node",
              "type": "bytes32"
            },
            {
              "internalType": "uint256",
              "name": "coinType",
              "type": "uint256"
            },
            {
              "internalType": "bytes",
              "name": "a",
              "type": "bytes"
            }
          ],
          "name": "setAddr",
          "outputs": [],
          "payable": false,
          "stateMutability": "nonpayable",
          "type": "function"
        },
        {
          "constant": false,
          "inputs": [
            {
              "internalType": "bytes32",
              "name": "node",
              "type": "bytes32"
            },
            {
              "internalType": "address",
              "name": "a",
              "type": "address"
            }
          ],
          "name": "setAddr",
          "outputs": [],
          "payable": false,
          "stateMutability": "nonpayable",
          "type": "function"
        },
        {
          "constant": false,
          "inputs": [
            {
              "internalType": "bytes32",
              "name": "node",
              "type": "bytes32"
            },
            {
              "internalType": "address",
              "name": "target",
              "type": "address"
            },
            {
              "internalType": "bool",
              "name": "isAuthorised",
              "type": "bool"
            }
          ],
          "name": "setAuthorisation",
          "outputs": [],
          "payable": false,
          "stateMutability": "nonpayable",
          "type": "function"
        },
        {
          "constant": false,
          "inputs": [
            {
              "internalType": "bytes32",
              "name": "node",
              "type": "bytes32"
            },
            {
              "internalType": "bytes",
              "name": "hash",
              "type": "bytes"
            }
          ],
          "name": "setContenthash",
          "outputs": [],
          "payable": false,
          "stateMutability": "nonpayable",
          "type": "function"
        },
        {
          "constant": false,
          "inputs": [
            {
              "internalType": "bytes32",
              "name": "node",
              "type": "bytes32"
            },
            {
              "internalType": "bytes",
              "name": "data",
              "type": "bytes"
            }
          ],
          "name": "setDNSRecords",
          "outputs": [],
          "payable": false,
          "stateMutability": "nonpayable",
          "type": "function"
        },
        {
          "constant": false,
          "inputs": [
            {
              "internalType": "bytes32",
              "name": "node",
              "type": "bytes32"
            },
            {
              "internalType": "bytes4",
              "name": "interfaceID",
              "type": "bytes4"
            },
            {
              "internalType": "address",
              "name": "implementer",
              "type": "address"
            }
          ],
          "name": "setInterface",
          "outputs": [],
          "payable": false,
          "stateMutability": "nonpayable",
          "type": "function"
        },
        {
          "constant": false,
          "inputs": [
            {
              "internalType": "bytes32",
              "name": "node",
              "type": "bytes32"
            },
            {
              "internalType": "string",
              "name": "name",
              "type": "string"
            }
          ],
          "name": "setName",
          "outputs": [],
          "payable": false,
          "stateMutability": "nonpayable",
          "type": "function"
        },
        {
          "constant": false,
          "inputs": [
            {
              "internalType": "bytes32",
              "name": "node",
              "type": "bytes32"
            },
            {
              "internalType": "bytes32",
              "name": "x",
              "type": "bytes32"
            },
            {
              "internalType": "bytes32",
              "name": "y",
              "type": "bytes32"
            }
          ],
          "name": "setPubkey",
          "outputs": [],
          "payable": false,
          "stateMutability": "nonpayable",
          "type": "function"
        },
        {
          "constant": false,
          "inputs": [
            {
              "internalType": "bytes32",
              "name": "node",
              "type": "bytes32"
            },
            {
              "internalType": "string",
              "name": "key",
              "type": "string"
            },
            {
              "internalType": "string",
              "name": "value",
              "type": "string"
            }
          ],
          "name": "setText",
          "outputs": [],
          "payable": false,
          "stateMutability": "nonpayable",
          "type": "function"
        },
        {
          "constant": true,
          "inputs": [
            {
              "internalType": "bytes4",
              "name": "interfaceID",
              "type": "bytes4"
            }
          ],
          "name": "supportsInterface",
          "outputs": [
            {
              "internalType": "bool",
              "name": "",
              "type": "bool"
            }
          ],
          "payable": false,
          "stateMutability": "pure",
          "type": "function"
        },
        {
          "constant": true,
          "inputs": [
            {
              "internalType": "bytes32",
              "name": "node",
              "type": "bytes32"
            },
            {
              "internalType": "string",
              "name": "key",
              "type": "string"
            }
          ],
          "name": "text",
          "outputs": [
            {
              "internalType": "string",
              "name": "",
              "type": "string"
            }
          ],
          "payable": false,
          "stateMutability": "view",
          "type": "function"
        }
      ],
      "devdoc": {
        "methods": {
          "ABI(bytes32,uint256)": {
            "params": {
              "contentTypes": "A bitwise OR of the ABI formats accepted by the caller.",
              "node": "The ENS node to query"
            },
            "return": "contentType The content type of the return valuedata The ABI data"
          },
          "addr(bytes32)": {
            "params": {
              "node": "The ENS node to query."
            },
            "return": "The associated address."
          },
          "clearDNSZone(bytes32)": {
            "params": {
              "node": "the namehash of the node for which to clear the zone"
            }
          },
          "contenthash(bytes32)": {
            "params": {
              "node": "The ENS node to query."
            },
            "return": "The associated contenthash."
          },
          "dnsRecord(bytes32,bytes32,uint16)": {
            "params": {
              "name": "the keccak-256 hash of the fully-qualified name for which to fetch the record",
              "node": "the namehash of the node for which to fetch the record",
              "resource": "the ID of the resource as per https://en.wikipedia.org/wiki/List_of_DNS_record_types"
            },
            "return": "the DNS record in wire format if present, otherwise empty"
          },
          "hasDNSRecords(bytes32,bytes32)": {
            "params": {
              "name": "the namehash of the node for which to check the records",
              "node": "the namehash of the node for which to check the records"
            }
          },
          "interfaceImplementer(bytes32,bytes4)": {
            "params": {
              "interfaceID": "The EIP 168 interface ID to check for.",
              "node": "The ENS node to query."
            },
            "return": "The address that implements this interface, or 0 if the interface is unsupported."
          },
          "name(bytes32)": {
            "params": {
              "node": "The ENS node to query."
            },
            "return": "The associated name."
          },
          "pubkey(bytes32)": {
            "params": {
              "node": "The ENS node to query"
            },
            "return": "x, y the X and Y coordinates of the curve point for the public key."
          },
          "setABI(bytes32,uint256,bytes)": {
            "params": {
              "contentType": "The content type of the ABI",
              "data": "The ABI data.",
              "node": "The node to update."
            }
          },
          "setAddr(bytes32,address)": {
            "params": {
              "a": "The address to set.",
              "node": "The node to update."
            }
          },
          "setAuthorisation(bytes32,address,bool)": {
            "details": "Sets or clears an authorisation. Authorisations are specific to the caller. Any account can set an authorisation for any name, but the authorisation that is checked will be that of the current owner of a name. Thus, transferring a name effectively clears any existing authorisations, and new authorisations can be set in advance of an ownership transfer if desired.",
            "params": {
              "isAuthorised": "True if the address should be authorised, or false if it should be deauthorised.",
              "node": "The name to change the authorisation on.",
              "target": "The address that is to be authorised or deauthorised."
            }
          },
          "setContenthash(bytes32,bytes)": {
            "params": {
              "hash": "The contenthash to set",
              "node": "The node to update."
            }
          },
          "setDNSRecords(bytes32,bytes)": {
            "params": {
              "data": "the DNS wire format records to set",
              "node": "the namehash of the node for which to set the records"
            }
          },
          "setInterface(bytes32,bytes4,address)": {
            "params": {
              "implementer": "The address of a contract that implements this interface for this node.",
              "interfaceID": "The EIP 168 interface ID.",
              "node": "The node to update."
            }
          },
          "setName(bytes32,string)": {
            "params": {
              "name": "The name to set.",
              "node": "The node to update."
            }
          },
          "setPubkey(bytes32,bytes32,bytes32)": {
            "params": {
              "node": "The ENS node to query",
              "x": "the X coordinate of the curve point for the public key.",
              "y": "the Y coordinate of the curve point for the public key."
            }
          },
          "setText(bytes32,string,string)": {
            "params": {
              "key": "The key to set.",
              "node": "The node to update.",
              "value": "The text data value to set."
            }
          },
          "text(bytes32,string)": {
            "params": {
              "key": "The text data key to query.",
              "node": "The ENS node to query."
            },
            "return": "The associated text data."
          }
        }
      },
      "evm": {
        "bytecode": {
          "linkReferences": {},
          "object": "60806040523480156200001157600080fd5b5060405162002abe38038062002abe83398101604081905262000034916200006d565b600a80546001600160a01b0319166001600160a01b0392909216919091179055620000d6565b80516200006781620000bc565b92915050565b6000602082840312156200008057600080fd5b60006200008e84846200005a565b949350505050565b60006200006782620000b0565b6000620000678262000096565b6001600160a01b031690565b620000c781620000a3565b8114620000d357600080fd5b50565b6129d880620000e66000396000f3fe608060405234801561001057600080fd5b50600436106101985760003560e01c8063691f3431116100e3578063bc1c58d11161008c578063e59d895d11610066578063e59d895d14610387578063f1cb7e061461039a578063f86bc879146103ad57610198565b8063bc1c58d114610340578063c869023314610353578063d5fa2b001461037457610198565b8063a8fa5682116100bd578063a8fa5682146102fa578063ac9650d81461030d578063ad5780af1461032d57610198565b8063691f3431146102c157806377372213146102d45780638b95dd71146102e757610198565b8063304e6ade116101455780634cbf6ba41161011f5780634cbf6ba41461027b57806359d1d43c1461028e578063623195b0146102ae57610198565b8063304e6ade146102425780633b3b57de146102555780633e9ce7941461026857610198565b8063124a319c11610176578063124a319c146101ee5780632203ab561461020e57806329cd62ea1461022f57610198565b806301ffc9a71461019d5780630af179d7146101c657806310f13a8c146101db575b600080fd5b6101b06101ab366004612504565b6103c0565b6040516101bd9190612730565b60405180910390f35b6101d96101d4366004612364565b61041e565b005b6101d96101e93660046123ba565b61060b565b6102016101fc366004612302565b6106b8565b6040516101bd9190612703565b61022161021c36600461224c565b6109f7565b6040516101bd9291906127f3565b6101d961023d36600461227c565b610b16565b6101d9610250366004612364565b610b96565b610201610263366004612164565b610bf5565b6101d9610276366004612209565b610c2a565b6101b061028936600461224c565b610ccf565b6102a161029c366004612364565b610d01565b6040516101bd9190612787565b6101d96102bc366004612441565b610dc3565b6102a16102cf366004612164565b610e3e565b6101d96102e2366004612364565b610edf565b6101d96102f53660046124a9565b610f3e565b6102a16103083660046122bf565b611003565b61032061031b366004612122565b611090565b6040516101bd919061271f565b6101d961033b366004612164565b6111d4565b6102a161034e366004612164565b611227565b610366610361366004612164565b61128f565b6040516101bd92919061274c565b6101d9610382366004612182565b6112a9565b6101d9610395366004612332565b6112d0565b6102a16103a836600461224c565b61139d565b6101b06103bb3660046121bc565b611446565b60007fffffffff0000000000000000000000000000000000000000000000000000000082167f59d1d43c00000000000000000000000000000000000000000000000000000000148061041657506104168261146c565b90505b919050565b82610428816114c2565b61043157600080fd5b60008060608082610440611e30565b61048a60008a8a8080601f016020809104026020016040519081016040528093929190818152602001838380828437600092019190915250929392505063ffffffff6115d1169050565b90505b610496816115ec565b6105ae5761ffff86166104ee57806040015195506104b3816115fa565b9350836040516020016104c691906126ec565b6040516020818303038152906040528051906020012091506104e781611621565b92506105a0565b60606104f9826115fa565b9050816040015161ffff168761ffff161415806105235750610521858263ffffffff61164216565b155b1561059e576105778b86898d8d8080601f016020809104026020016040519081016040528093929190818152602001838380828437600092019190915250505050602087015189518c918290039015611660565b81604001519650816020015195508094508480519060200120925061059b82611621565b93505b505b6105a9816118c7565b61048d565b50825115610600576106008984878b8b8080601f0160208091040260200160405190810160405280939291908181526020018383808284376000920191909152505088518b9250828f03915015611660565b505050505050505050565b84610615816114c2565b61061e57600080fd5b82826009600089815260200190815260200160002087876040516106439291906126df565b90815260405190819003602001902061065d929091611e7b565b50848460405161066e9291906126df565b6040518091039020867fd8c9334b1a9c2f9da342a0a2b32629c1a229b6445dad78947f674b44444a755087876040516106a8929190612775565b60405180910390a3505050505050565b60008281526006602090815260408083207fffffffff000000000000000000000000000000000000000000000000000000008516845290915281205473ffffffffffffffffffffffffffffffffffffffff1680156107175790506109f1565b600061072285610bf5565b905073ffffffffffffffffffffffffffffffffffffffff811661074a576000925050506109f1565b600060608273ffffffffffffffffffffffffffffffffffffffff166301ffc9a760e01b60405160240161077d9190612767565b604080517fffffffffffffffffffffffffffffffffffffffffffffffffffffffffffffffe08184030181529181526020820180517bffffffffffffffffffffffffffffffffffffffffffffffffffffffff167f01ffc9a700000000000000000000000000000000000000000000000000000000179052516107fe91906126ec565b600060405180830381855afa9150503d8060008114610839576040519150601f19603f3d011682016040523d82523d6000602084013e61083e565b606091505b5091509150811580610851575060208151105b8061088d575080601f8151811061086457fe5b01602001517fff0000000000000000000000000000000000000000000000000000000000000016155b1561089f5760009450505050506109f1565b8273ffffffffffffffffffffffffffffffffffffffff16866040516024016108c79190612767565b604080517fffffffffffffffffffffffffffffffffffffffffffffffffffffffffffffffe08184030181529181526020820180517bffffffffffffffffffffffffffffffffffffffffffffffffffffffff167f01ffc9a7000000000000000000000000000000000000000000000000000000001790525161094891906126ec565b600060405180830381855afa9150503d8060008114610983576040519150601f19603f3d011682016040523d82523d6000602084013e610988565b606091505b50909250905081158061099c575060208151105b806109d8575080601f815181106109af57fe5b01602001517fff0000000000000000000000000000000000000000000000000000000000000016155b156109ea5760009450505050506109f1565b5090925050505b92915050565b600082815260208190526040812060609060015b848111610af85780851615801590610a4357506000818152602083905260409020546002600019610100600184161502019091160415155b15610af0576000818152602083815260409182902080548351601f6002600019610100600186161502019093169290920491820184900484028101840190945280845284939192839190830182828015610ade5780601f10610ab357610100808354040283529160200191610ade565b820191906000526020600020905b815481529060010190602001808311610ac157829003601f168201915b50505050509050935093505050610b0f565b60011b610a0b565b505060408051602081019091526000808252925090505b9250929050565b82610b20816114c2565b610b2957600080fd5b6040805180820182528481526020808201858152600088815260089092529083902091518255516001909101555184907f1d6f5e03d3f63eb58751986629a5439baee5079ff04f345becb66e23eb154e4690610b88908690869061274c565b60405180910390a250505050565b82610ba0816114c2565b610ba957600080fd5b6000848152600260205260409020610bc2908484611e7b565b50837fe379c1624ed7e714cc0937528a32359d69d5281337765313dba4e081b72d75788484604051610b88929190612775565b60006060610c0483603c61139d565b9050805160001415610c1a576000915050610419565b610c238161199a565b9392505050565b6000838152600b602090815260408083203380855290835281842073ffffffffffffffffffffffffffffffffffffffff871680865293529281902080547fffffffffffffffffffffffffffffffffffffffffffffffffffffffffffffff00168515151790555190919085907fe1c5610a6e0cbe10764ecd182adcef1ec338dc4e199c99c32ce98f38e12791df90610cc2908690612730565b60405180910390a4505050565b600091825260056020908152604080842060038352818520548552825280842092845291905290205461ffff16151590565b6060600960008581526020019081526020016000208383604051610d269291906126df565b9081526040805160209281900383018120805460026001821615610100026000190190911604601f81018590048502830185019093528282529092909190830182828015610db55780601f10610d8a57610100808354040283529160200191610db5565b820191906000526020600020905b815481529060010190602001808311610d9857829003601f168201915b505050505090509392505050565b83610dcd816114c2565b610dd657600080fd5b6000198401841615610de757600080fd5b6000858152602081815260408083208784529091529020610e09908484611e7b565b50604051849086907faa121bbeef5f32f5961a2a28966e769023910fc9479059ee3495d4c1a696efe390600090a35050505050565b60008181526007602090815260409182902080548351601f6002600019610100600186161502019093169290920491820184900484028101840190945280845260609392830182828015610ed35780601f10610ea857610100808354040283529160200191610ed3565b820191906000526020600020905b815481529060010190602001808311610eb657829003601f168201915b50505050509050919050565b82610ee9816114c2565b610ef257600080fd5b6000848152600760205260409020610f0b908484611e7b565b50837fb7d29e911041e8d9b843369e890bcb72c9388692ba48b65ac54e7214c4c348f78484604051610b88929190612775565b82610f48816114c2565b610f5157600080fd5b837f65412581168e88a1e60c6459d7f44ae83ad0832e670826c05a4e2476b57af7528484604051610f839291906127f3565b60405180910390a2603c831415610fd557837f52d7d861f09ab3d26239d492e8968629f95e9e318cf0b73bfddc441522a15fd2610fbf8461199a565b604051610fcc9190612711565b60405180910390a25b600084815260016020908152604080832086845282529091208351610ffc92850190611f17565b5050505050565b6000838152600460209081526040808320600383528184205484528252808320858452825280832061ffff8516845282529182902080548351601f6002600019610100600186161502019093169290920491820184900484028101840190945280845260609392830182828015610db55780601f10610d8a57610100808354040283529160200191610db5565b6040805182815260208084028201019091526060908280156110c657816020015b60608152602001906001900390816110b15790505b50905060005b828110156111cd5760006060308686858181106110e557fe5b6020028201905080357fffffffffffffffffffffffffffffffffffffffffffffffffffffffffffffffe13684900301811261111f57600080fd5b9091016020810191503567ffffffffffffffff81111561113e57600080fd5b3681900382131561114e57600080fd5b60405161115c9291906126df565b600060405180830381855af49150503d8060008114611197576040519150601f19603f3d011682016040523d82523d6000602084013e61119c565b606091505b5091509150816111ab57600080fd5b808484815181106111b857fe5b602090810291909101015250506001016110cc565b5092915050565b806111de816114c2565b6111e757600080fd5b600082815260036020526040808220805460010190555183917fb757169b8492ca2f1c6619d9d76ce22803035c3b1d5f6930dffe7b127c1a198391a25050565b600081815260026020818152604092839020805484516001821615610100026000190190911693909304601f81018390048302840183019094528383526060939091830182828015610ed35780601f10610ea857610100808354040283529160200191610ed3565b600090815260086020526040902080546001909101549091565b816112b3816114c2565b6112bc57600080fd5b6112cb83603c6102f5856119c2565b505050565b826112da816114c2565b6112e357600080fd5b60008481526006602090815260408083207fffffffff00000000000000000000000000000000000000000000000000000000871680855292529182902080547fffffffffffffffffffffffff00000000000000000000000000000000000000001673ffffffffffffffffffffffffffffffffffffffff8616179055905185907f7c69f06bea0bdef565b709e93a147836b0063ba2dd89f02d0b7e8d931e6a6daa9061138f908690612703565b60405180910390a350505050565b600082815260016020818152604080842085855282529283902080548451600294821615610100026000190190911693909304601f810183900483028401830190945283835260609390918301828280156114395780601f1061140e57610100808354040283529160200191611439565b820191906000526020600020905b81548152906001019060200180831161141c57829003601f168201915b5050505050905092915050565b600b60209081526000938452604080852082529284528284209052825290205460ff1681565b60007fffffffff0000000000000000000000000000000000000000000000000000000082167fc86902330000000000000000000000000000000000000000000000000000000014806104165750610416826119fb565b600a546040517f02571be3000000000000000000000000000000000000000000000000000000008152600091829173ffffffffffffffffffffffffffffffffffffffff909116906302571be39061151d90869060040161273e565b60206040518083038186803b15801561153557600080fd5b505afa158015611549573d6000803e3d6000fd5b505050506040513d601f19601f8201168201806040525061156d91908101906120fc565b905073ffffffffffffffffffffffffffffffffffffffff8116331480610c2357506000838152600b6020908152604080832073ffffffffffffffffffffffffffffffffffffffff85168452825280832033845290915290205460ff16915050919050565b6115d9611e30565b82815260c081018290526109f1816118c7565b805151602090910151101590565b60208101518151606091610416916116129082611a51565b8451919063ffffffff611a9816565b60a081015160c082015182516060926104169281900363ffffffff611a9816565b600081518351148015610c235750610c238360008460008751611afa565b600087815260036020908152604090912054875191880191909120606061168e87878763ffffffff611a9816565b905083156117a85760008a81526004602090815260408083208684528252808320858452825280832061ffff8c16845290915290205460026000196101006001841615020190911604156117335760008a81526005602090815260408083208684528252808320858452909152902080547fffffffffffffffffffffffffffffffffffffffffffffffffffffffffffff0000811661ffff918216600019019091161790555b60008a81526004602090815260408083208684528252808320858452825280832061ffff8c168452909152812061176991611f85565b897f03528ed0c2a3ebc993b12ce3c16bb382f9c7d88ef7d8a1bf290eaf35955a12078a8a60405161179b929190612798565b60405180910390a26118bb565b60008a81526004602090815260408083208684528252808320858452825280832061ffff8c168452909152902054600260001961010060018416150201909116046118425760008a815260056020908152604080832086845282528083208584529091529020805461ffff808216600101167fffffffffffffffffffffffffffffffffffffffffffffffffffffffffffff00009091161790555b60008a81526004602090815260408083208684528252808320858452825280832061ffff8c1684528252909120825161187d92840190611f17565b50897f52a608b3303a48862d07a73d82fa221318c0027fbbcfb1b2329bface3f19ff2b8a8a846040516118b2939291906127b8565b60405180910390a25b50505050505050505050565b60c081015160208201819052815151116118e057611997565b60006118f482600001518360200151611a51565b602083015183519101915061190f908263ffffffff611b1d16565b61ffff166040830152815160029190910190611931908263ffffffff611b1d16565b61ffff166060830152815160029190910190611953908263ffffffff611b3d16565b63ffffffff908116608084015282516004929092019160009161197991908490611b1d16565b600283810160a086015261ffff9190911690920190910160c0830152505b50565b600081516014146119aa57600080fd5b50602001516c01000000000000000000000000900490565b6040805160148082528183019092526060916020820181803883395050506c010000000000000000000000009290920260208301525090565b60007fffffffff0000000000000000000000000000000000000000000000000000000082167f691f3431000000000000000000000000000000000000000000000000000000001480610416575061041682611b5f565b6000815b83518110611a5f57fe5b6000611a71858363ffffffff611bc416565b60ff1691820160010191905080611a885750611a8e565b50611a55565b9190910392915050565b606083518284011115611aaa57600080fd5b6060826040519080825280601f01601f191660200182016040528015611ad7576020820181803883390190505b50905060208082019086860101611aef828287611be2565b509095945050505050565b6000611b07848484611c3e565b611b12878785611c3e565b149695505050505050565b60008251826002011115611b3057600080fd5b50016002015161ffff1690565b60008251826004011115611b5057600080fd5b50016004015163ffffffff1690565b6000604051611b6d906126f8565b60405180910390207bffffffffffffffffffffffffffffffffffffffffffffffffffffffff1916827bffffffffffffffffffffffffffffffffffffffffffffffffffffffff19161480610416575061041682611c5a565b6000828281518110611bd257fe5b016020015160f81c905092915050565b5b60208110611c205781518352602092830192909101907fffffffffffffffffffffffffffffffffffffffffffffffffffffffffffffffe001611be3565b905182516020929092036101000a6000190180199091169116179052565b600083518284011115611c5057600080fd5b5091016020012090565b60007fffffffff0000000000000000000000000000000000000000000000000000000082167fa8fa568200000000000000000000000000000000000000000000000000000000148061041657506104168260007fffffffff0000000000000000000000000000000000000000000000000000000082167fbc1c58d100000000000000000000000000000000000000000000000000000000148061041657506104168260007fffffffff0000000000000000000000000000000000000000000000000000000082167f3b3b57de000000000000000000000000000000000000000000000000000000001480611d8f57507fffffffff0000000000000000000000000000000000000000000000000000000082167ff1cb7e0600000000000000000000000000000000000000000000000000000000145b8061041657506104168260007fffffffff0000000000000000000000000000000000000000000000000000000082167f2203ab5600000000000000000000000000000000000000000000000000000000148061041657507f01ffc9a7000000000000000000000000000000000000000000000000000000007fffffffff00000000000000000000000000000000000000000000000000000000831614610416565b6040518060e001604052806060815260200160008152602001600061ffff168152602001600061ffff168152602001600063ffffffff16815260200160008152602001600081525090565b828054600181600116156101000203166002900490600052602060002090601f016020900481019282601f10611eda578280017fffffffffffffffffffffffffffffffffffffffffffffffffffffffffffffff00823516178555611f07565b82800160010185558215611f07579182015b82811115611f07578235825591602001919060010190611eec565b50611f13929150611fc5565b5090565b828054600181600116156101000203166002900490600052602060002090601f016020900481019282601f10611f5857805160ff1916838001178555611f07565b82800160010185558215611f07579182015b82811115611f07578251825591602001919060010190611f6a565b50805460018160011615610100020316600290046000825580601f10611fab5750611997565b601f01602090049060005260206000209081019061199791905b611fdf91905b80821115611f135760008155600101611fcb565b90565b80356109f18161295d565b80516109f18161295d565b60008083601f84011261200a57600080fd5b50813567ffffffffffffffff81111561202257600080fd5b602083019150836020820283011115610b0f57600080fd5b80356109f181612971565b80356109f18161297a565b80356109f181612983565b60008083601f84011261206d57600080fd5b50813567ffffffffffffffff81111561208557600080fd5b602083019150836001820283011115610b0f57600080fd5b600082601f8301126120ae57600080fd5b81356120c16120bc8261283a565b612813565b915080825260208301602083018583830111156120dd57600080fd5b6120e88382846128f9565b50505092915050565b80356109f18161298c565b60006020828403121561210e57600080fd5b600061211a8484611fed565b949350505050565b6000806020838503121561213557600080fd5b823567ffffffffffffffff81111561214c57600080fd5b61215885828601611ff8565b92509250509250929050565b60006020828403121561217657600080fd5b600061211a8484612045565b6000806040838503121561219557600080fd5b60006121a18585612045565b92505060206121b285828601611fe2565b9150509250929050565b6000806000606084860312156121d157600080fd5b60006121dd8686612045565b93505060206121ee86828701611fe2565b92505060406121ff86828701611fe2565b9150509250925092565b60008060006060848603121561221e57600080fd5b600061222a8686612045565b935050602061223b86828701611fe2565b92505060406121ff8682870161203a565b6000806040838503121561225f57600080fd5b600061226b8585612045565b92505060206121b285828601612045565b60008060006060848603121561229157600080fd5b600061229d8686612045565b93505060206122ae86828701612045565b92505060406121ff86828701612045565b6000806000606084860312156122d457600080fd5b60006122e08686612045565b93505060206122f186828701612045565b92505060406121ff868287016120f1565b6000806040838503121561231557600080fd5b60006123218585612045565b92505060206121b285828601612050565b60008060006060848603121561234757600080fd5b60006123538686612045565b93505060206121ee86828701612050565b60008060006040848603121561237957600080fd5b60006123858686612045565b935050602084013567ffffffffffffffff8111156123a257600080fd5b6123ae8682870161205b565b92509250509250925092565b6000806000806000606086880312156123d257600080fd5b60006123de8888612045565b955050602086013567ffffffffffffffff8111156123fb57600080fd5b6124078882890161205b565b9450945050604086013567ffffffffffffffff81111561242657600080fd5b6124328882890161205b565b92509250509295509295909350565b6000806000806060858703121561245757600080fd5b60006124638787612045565b945050602061247487828801612045565b935050604085013567ffffffffffffffff81111561249157600080fd5b61249d8782880161205b565b95989497509550505050565b6000806000606084860312156124be57600080fd5b60006124ca8686612045565b93505060206124db86828701612045565b925050604084013567ffffffffffffffff8111156124f857600080fd5b6121ff8682870161209d565b60006020828403121561251657600080fd5b600061211a8484612050565b6000610c23838361261a565b612537816128e8565b82525050565b61253781612893565b600061255182612886565b61255b818561288a565b93508360208202850161256d85612880565b8060005b858110156125a7578484038952815161258a8582612522565b945061259583612880565b60209a909a0199925050600101612571565b5091979650505050505050565b6125378161289e565b61253781611fdf565b612537816128a3565b60006125db838561288a565b93506125e88385846128f9565b6125f183612935565b9093019392505050565b60006126078385610419565b93506126148385846128f9565b50500190565b600061262582612886565b61262f818561288a565b935061263f818560208601612905565b6125f181612935565b600061265382612886565b61265d8185610419565b935061266d818560208601612905565b9290920192915050565b6000612684602483610419565b7f696e74657266616365496d706c656d656e74657228627974657333322c62797481527f6573342900000000000000000000000000000000000000000000000000000000602082015260240192915050565b612537816128c8565b600061211a8284866125fb565b6000610c238284612648565b60006109f182612677565b602081016109f1828461253d565b602081016109f1828461252e565b60208082528101610c238184612546565b602081016109f182846125b4565b602081016109f182846125bd565b6040810161275a82856125bd565b610c2360208301846125bd565b602081016109f182846125c6565b6020808252810161211a8184866125cf565b60208082528101610c23818461261a565b604080825281016127a9818561261a565b9050610c2360208301846126d6565b606080825281016127c9818661261a565b90506127d860208301856126d6565b81810360408301526127ea818461261a565b95945050505050565b6040810161280182856125bd565b818103602083015261211a818461261a565b60405181810167ffffffffffffffff8111828210171561283257600080fd5b604052919050565b600067ffffffffffffffff82111561285157600080fd5b506020601f919091017fffffffffffffffffffffffffffffffffffffffffffffffffffffffffffffffe0160190565b60200190565b5190565b90815260200190565b6000610416826128cf565b151590565b7fffffffff000000000000000000000000000000000000000000000000000000001690565b61ffff1690565b73ffffffffffffffffffffffffffffffffffffffff1690565b600061041682600061041682612893565b82818337506000910152565b60005b83811015612920578181015183820152602001612908565b8381111561292f576000848401525b50505050565b601f017fffffffffffffffffffffffffffffffffffffffffffffffffffffffffffffffe01690565b61296681612893565b811461199757600080fd5b6129668161289e565b61296681611fdf565b612966816128a3565b612966816128c856fea365627a7a7231582082927c55ed80cd2c2b4af3ecca0340c755f0257fadbdd76a4c4b6458f1c8eefc6c6578706572696d656e74616cf564736f6c63430005110040",
          "opcodes": "PUSH1 0x80 PUSH1 0x40 MSTORE CALLVALUE DUP1 ISZERO PUSH3 0x11 JUMPI PUSH1 0x0 DUP1 REVERT JUMPDEST POP PUSH1 0x40 MLOAD PUSH3 0x2ABE CODESIZE SUB DUP1 PUSH3 0x2ABE DUP4 CODECOPY DUP2 ADD PUSH1 0x40 DUP2 SWAP1 MSTORE PUSH3 0x34 SWAP2 PUSH3 0x6D JUMP JUMPDEST PUSH1 0xA DUP1 SLOAD PUSH1 0x1 PUSH1 0x1 PUSH1 0xA0 SHL SUB NOT AND PUSH1 0x1 PUSH1 0x1 PUSH1 0xA0 SHL SUB SWAP3 SWAP1 SWAP3 AND SWAP2 SWAP1 SWAP2 OR SWAP1 SSTORE PUSH3 0xD6 JUMP JUMPDEST DUP1 MLOAD PUSH3 0x67 DUP2 PUSH3 0xBC JUMP JUMPDEST SWAP3 SWAP2 POP POP JUMP JUMPDEST PUSH1 0x0 PUSH1 0x20 DUP3 DUP5 SUB SLT ISZERO PUSH3 0x80 JUMPI PUSH1 0x0 DUP1 REVERT JUMPDEST PUSH1 0x0 PUSH3 0x8E DUP5 DUP5 PUSH3 0x5A JUMP JUMPDEST SWAP5 SWAP4 POP POP POP POP JUMP JUMPDEST PUSH1 0x0 PUSH3 0x67 DUP3 PUSH3 0xB0 JUMP JUMPDEST PUSH1 0x0 PUSH3 0x67 DUP3 PUSH3 0x96 JUMP JUMPDEST PUSH1 0x1 PUSH1 0x1 PUSH1 0xA0 SHL SUB AND SWAP1 JUMP JUMPDEST PUSH3 0xC7 DUP2 PUSH3 0xA3 JUMP JUMPDEST DUP2 EQ PUSH3 0xD3 JUMPI PUSH1 0x0 DUP1 REVERT JUMPDEST POP JUMP JUMPDEST PUSH2 0x29D8 DUP1 PUSH3 0xE6 PUSH1 0x0 CODECOPY PUSH1 0x0 RETURN INVALID PUSH1 0x80 PUSH1 0x40 MSTORE CALLVALUE DUP1 ISZERO PUSH2 0x10 JUMPI PUSH1 0x0 DUP1 REVERT JUMPDEST POP PUSH1 0x4 CALLDATASIZE LT PUSH2 0x198 JUMPI PUSH1 0x0 CALLDATALOAD PUSH1 0xE0 SHR DUP1 PUSH4 0x691F3431 GT PUSH2 0xE3 JUMPI DUP1 PUSH4 0xBC1C58D1 GT PUSH2 0x8C JUMPI DUP1 PUSH4 0xE59D895D GT PUSH2 0x66 JUMPI DUP1 PUSH4 0xE59D895D EQ PUSH2 0x387 JUMPI DUP1 PUSH4 0xF1CB7E06 EQ PUSH2 0x39A JUMPI DUP1 PUSH4 0xF86BC879 EQ PUSH2 0x3AD JUMPI PUSH2 0x198 JUMP JUMPDEST DUP1 PUSH4 0xBC1C58D1 EQ PUSH2 0x340 JUMPI DUP1 PUSH4 0xC8690233 EQ PUSH2 0x353 JUMPI DUP1 PUSH4 0xD5FA2B00 EQ PUSH2 0x374 JUMPI PUSH2 0x198 JUMP JUMPDEST DUP1 PUSH4 0xA8FA5682 GT PUSH2 0xBD JUMPI DUP1 PUSH4 0xA8FA5682 EQ PUSH2 0x2FA JUMPI DUP1 PUSH4 0xAC9650D8 EQ PUSH2 0x30D JUMPI DUP1 PUSH4 0xAD5780AF EQ PUSH2 0x32D JUMPI PUSH2 0x198 JUMP JUMPDEST DUP1 PUSH4 0x691F3431 EQ PUSH2 0x2C1 JUMPI DUP1 PUSH4 0x77372213 EQ PUSH2 0x2D4 JUMPI DUP1 PUSH4 0x8B95DD71 EQ PUSH2 0x2E7 JUMPI PUSH2 0x198 JUMP JUMPDEST DUP1 PUSH4 0x304E6ADE GT PUSH2 0x145 JUMPI DUP1 PUSH4 0x4CBF6BA4 GT PUSH2 0x11F JUMPI DUP1 PUSH4 0x4CBF6BA4 EQ PUSH2 0x27B JUMPI DUP1 PUSH4 0x59D1D43C EQ PUSH2 0x28E JUMPI DUP1 PUSH4 0x623195B0 EQ PUSH2 0x2AE JUMPI PUSH2 0x198 JUMP JUMPDEST DUP1 PUSH4 0x304E6ADE EQ PUSH2 0x242 JUMPI DUP1 PUSH4 0x3B3B57DE EQ PUSH2 0x255 JUMPI DUP1 PUSH4 0x3E9CE794 EQ PUSH2 0x268 JUMPI PUSH2 0x198 JUMP JUMPDEST DUP1 PUSH4 0x124A319C GT PUSH2 0x176 JUMPI DUP1 PUSH4 0x124A319C EQ PUSH2 0x1EE JUMPI DUP1 PUSH4 0x2203AB56 EQ PUSH2 0x20E JUMPI DUP1 PUSH4 0x29CD62EA EQ PUSH2 0x22F JUMPI PUSH2 0x198 JUMP JUMPDEST DUP1 PUSH4 0x1FFC9A7 EQ PUSH2 0x19D JUMPI DUP1 PUSH4 0xAF179D7 EQ PUSH2 0x1C6 JUMPI DUP1 PUSH4 0x10F13A8C EQ PUSH2 0x1DB JUMPI JUMPDEST PUSH1 0x0 DUP1 REVERT JUMPDEST PUSH2 0x1B0 PUSH2 0x1AB CALLDATASIZE PUSH1 0x4 PUSH2 0x2504 JUMP JUMPDEST PUSH2 0x3C0 JUMP JUMPDEST PUSH1 0x40 MLOAD PUSH2 0x1BD SWAP2 SWAP1 PUSH2 0x2730 JUMP JUMPDEST PUSH1 0x40 MLOAD DUP1 SWAP2 SUB SWAP1 RETURN JUMPDEST PUSH2 0x1D9 PUSH2 0x1D4 CALLDATASIZE PUSH1 0x4 PUSH2 0x2364 JUMP JUMPDEST PUSH2 0x41E JUMP JUMPDEST STOP JUMPDEST PUSH2 0x1D9 PUSH2 0x1E9 CALLDATASIZE PUSH1 0x4 PUSH2 0x23BA JUMP JUMPDEST PUSH2 0x60B JUMP JUMPDEST PUSH2 0x201 PUSH2 0x1FC CALLDATASIZE PUSH1 0x4 PUSH2 0x2302 JUMP JUMPDEST PUSH2 0x6B8 JUMP JUMPDEST PUSH1 0x40 MLOAD PUSH2 0x1BD SWAP2 SWAP1 PUSH2 0x2703 JUMP JUMPDEST PUSH2 0x221 PUSH2 0x21C CALLDATASIZE PUSH1 0x4 PUSH2 0x224C JUMP JUMPDEST PUSH2 0x9F7 JUMP JUMPDEST PUSH1 0x40 MLOAD PUSH2 0x1BD SWAP3 SWAP2 SWAP1 PUSH2 0x27F3 JUMP JUMPDEST PUSH2 0x1D9 PUSH2 0x23D CALLDATASIZE PUSH1 0x4 PUSH2 0x227C JUMP JUMPDEST PUSH2 0xB16 JUMP JUMPDEST PUSH2 0x1D9 PUSH2 0x250 CALLDATASIZE PUSH1 0x4 PUSH2 0x2364 JUMP JUMPDEST PUSH2 0xB96 JUMP JUMPDEST PUSH2 0x201 PUSH2 0x263 CALLDATASIZE PUSH1 0x4 PUSH2 0x2164 JUMP JUMPDEST PUSH2 0xBF5 JUMP JUMPDEST PUSH2 0x1D9 PUSH2 0x276 CALLDATASIZE PUSH1 0x4 PUSH2 0x2209 JUMP JUMPDEST PUSH2 0xC2A JUMP JUMPDEST PUSH2 0x1B0 PUSH2 0x289 CALLDATASIZE PUSH1 0x4 PUSH2 0x224C JUMP JUMPDEST PUSH2 0xCCF JUMP JUMPDEST PUSH2 0x2A1 PUSH2 0x29C CALLDATASIZE PUSH1 0x4 PUSH2 0x2364 JUMP JUMPDEST PUSH2 0xD01 JUMP JUMPDEST PUSH1 0x40 MLOAD PUSH2 0x1BD SWAP2 SWAP1 PUSH2 0x2787 JUMP JUMPDEST PUSH2 0x1D9 PUSH2 0x2BC CALLDATASIZE PUSH1 0x4 PUSH2 0x2441 JUMP JUMPDEST PUSH2 0xDC3 JUMP JUMPDEST PUSH2 0x2A1 PUSH2 0x2CF CALLDATASIZE PUSH1 0x4 PUSH2 0x2164 JUMP JUMPDEST PUSH2 0xE3E JUMP JUMPDEST PUSH2 0x1D9 PUSH2 0x2E2 CALLDATASIZE PUSH1 0x4 PUSH2 0x2364 JUMP JUMPDEST PUSH2 0xEDF JUMP JUMPDEST PUSH2 0x1D9 PUSH2 0x2F5 CALLDATASIZE PUSH1 0x4 PUSH2 0x24A9 JUMP JUMPDEST PUSH2 0xF3E JUMP JUMPDEST PUSH2 0x2A1 PUSH2 0x308 CALLDATASIZE PUSH1 0x4 PUSH2 0x22BF JUMP JUMPDEST PUSH2 0x1003 JUMP JUMPDEST PUSH2 0x320 PUSH2 0x31B CALLDATASIZE PUSH1 0x4 PUSH2 0x2122 JUMP JUMPDEST PUSH2 0x1090 JUMP JUMPDEST PUSH1 0x40 MLOAD PUSH2 0x1BD SWAP2 SWAP1 PUSH2 0x271F JUMP JUMPDEST PUSH2 0x1D9 PUSH2 0x33B CALLDATASIZE PUSH1 0x4 PUSH2 0x2164 JUMP JUMPDEST PUSH2 0x11D4 JUMP JUMPDEST PUSH2 0x2A1 PUSH2 0x34E CALLDATASIZE PUSH1 0x4 PUSH2 0x2164 JUMP JUMPDEST PUSH2 0x1227 JUMP JUMPDEST PUSH2 0x366 PUSH2 0x361 CALLDATASIZE PUSH1 0x4 PUSH2 0x2164 JUMP JUMPDEST PUSH2 0x128F JUMP JUMPDEST PUSH1 0x40 MLOAD PUSH2 0x1BD SWAP3 SWAP2 SWAP1 PUSH2 0x274C JUMP JUMPDEST PUSH2 0x1D9 PUSH2 0x382 CALLDATASIZE PUSH1 0x4 PUSH2 0x2182 JUMP JUMPDEST PUSH2 0x12A9 JUMP JUMPDEST PUSH2 0x1D9 PUSH2 0x395 CALLDATASIZE PUSH1 0x4 PUSH2 0x2332 JUMP JUMPDEST PUSH2 0x12D0 JUMP JUMPDEST PUSH2 0x2A1 PUSH2 0x3A8 CALLDATASIZE PUSH1 0x4 PUSH2 0x224C JUMP JUMPDEST PUSH2 0x139D JUMP JUMPDEST PUSH2 0x1B0 PUSH2 0x3BB CALLDATASIZE PUSH1 0x4 PUSH2 0x21BC JUMP JUMPDEST PUSH2 0x1446 JUMP JUMPDEST PUSH1 0x0 PUSH32 0xFFFFFFFF00000000000000000000000000000000000000000000000000000000 DUP3 AND PUSH32 0x59D1D43C00000000000000000000000000000000000000000000000000000000 EQ DUP1 PUSH2 0x416 JUMPI POP PUSH2 0x416 DUP3 PUSH2 0x146C JUMP JUMPDEST SWAP1 POP JUMPDEST SWAP2 SWAP1 POP JUMP JUMPDEST DUP3 PUSH2 0x428 DUP2 PUSH2 0x14C2 JUMP JUMPDEST PUSH2 0x431 JUMPI PUSH1 0x0 DUP1 REVERT JUMPDEST PUSH1 0x0 DUP1 PUSH1 0x60 DUP1 DUP3 PUSH2 0x440 PUSH2 0x1E30 JUMP JUMPDEST PUSH2 0x48A PUSH1 0x0 DUP11 DUP11 DUP1 DUP1 PUSH1 0x1F ADD PUSH1 0x20 DUP1 SWAP2 DIV MUL PUSH1 0x20 ADD PUSH1 0x40 MLOAD SWAP1 DUP2 ADD PUSH1 0x40 MSTORE DUP1 SWAP4 SWAP3 SWAP2 SWAP1 DUP2 DUP2 MSTORE PUSH1 0x20 ADD DUP4 DUP4 DUP1 DUP3 DUP5 CALLDATACOPY PUSH1 0x0 SWAP3 ADD SWAP2 SWAP1 SWAP2 MSTORE POP SWAP3 SWAP4 SWAP3 POP POP PUSH4 0xFFFFFFFF PUSH2 0x15D1 AND SWAP1 POP JUMP JUMPDEST SWAP1 POP JUMPDEST PUSH2 0x496 DUP2 PUSH2 0x15EC JUMP JUMPDEST PUSH2 0x5AE JUMPI PUSH2 0xFFFF DUP7 AND PUSH2 0x4EE JUMPI DUP1 PUSH1 0x40 ADD MLOAD SWAP6 POP PUSH2 0x4B3 DUP2 PUSH2 0x15FA JUMP JUMPDEST SWAP4 POP DUP4 PUSH1 0x40 MLOAD PUSH1 0x20 ADD PUSH2 0x4C6 SWAP2 SWAP1 PUSH2 0x26EC JUMP JUMPDEST PUSH1 0x40 MLOAD PUSH1 0x20 DUP2 DUP4 SUB SUB DUP2 MSTORE SWAP1 PUSH1 0x40 MSTORE DUP1 MLOAD SWAP1 PUSH1 0x20 ADD KECCAK256 SWAP2 POP PUSH2 0x4E7 DUP2 PUSH2 0x1621 JUMP JUMPDEST SWAP3 POP PUSH2 0x5A0 JUMP JUMPDEST PUSH1 0x60 PUSH2 0x4F9 DUP3 PUSH2 0x15FA JUMP JUMPDEST SWAP1 POP DUP2 PUSH1 0x40 ADD MLOAD PUSH2 0xFFFF AND DUP8 PUSH2 0xFFFF AND EQ ISZERO DUP1 PUSH2 0x523 JUMPI POP PUSH2 0x521 DUP6 DUP3 PUSH4 0xFFFFFFFF PUSH2 0x1642 AND JUMP JUMPDEST ISZERO JUMPDEST ISZERO PUSH2 0x59E JUMPI PUSH2 0x577 DUP12 DUP7 DUP10 DUP14 DUP14 DUP1 DUP1 PUSH1 0x1F ADD PUSH1 0x20 DUP1 SWAP2 DIV MUL PUSH1 0x20 ADD PUSH1 0x40 MLOAD SWAP1 DUP2 ADD PUSH1 0x40 MSTORE DUP1 SWAP4 SWAP3 SWAP2 SWAP1 DUP2 DUP2 MSTORE PUSH1 0x20 ADD DUP4 DUP4 DUP1 DUP3 DUP5 CALLDATACOPY PUSH1 0x0 SWAP3 ADD SWAP2 SWAP1 SWAP2 MSTORE POP POP POP POP PUSH1 0x20 DUP8 ADD MLOAD DUP10 MLOAD DUP13 SWAP2 DUP3 SWAP1 SUB SWAP1 ISZERO PUSH2 0x1660 JUMP JUMPDEST DUP2 PUSH1 0x40 ADD MLOAD SWAP7 POP DUP2 PUSH1 0x20 ADD MLOAD SWAP6 POP DUP1 SWAP5 POP DUP5 DUP1 MLOAD SWAP1 PUSH1 0x20 ADD KECCAK256 SWAP3 POP PUSH2 0x59B DUP3 PUSH2 0x1621 JUMP JUMPDEST SWAP4 POP JUMPDEST POP JUMPDEST PUSH2 0x5A9 DUP2 PUSH2 0x18C7 JUMP JUMPDEST PUSH2 0x48D JUMP JUMPDEST POP DUP3 MLOAD ISZERO PUSH2 0x600 JUMPI PUSH2 0x600 DUP10 DUP5 DUP8 DUP12 DUP12 DUP1 DUP1 PUSH1 0x1F ADD PUSH1 0x20 DUP1 SWAP2 DIV MUL PUSH1 0x20 ADD PUSH1 0x40 MLOAD SWAP1 DUP2 ADD PUSH1 0x40 MSTORE DUP1 SWAP4 SWAP3 SWAP2 SWAP1 DUP2 DUP2 MSTORE PUSH1 0x20 ADD DUP4 DUP4 DUP1 DUP3 DUP5 CALLDATACOPY PUSH1 0x0 SWAP3 ADD SWAP2 SWAP1 SWAP2 MSTORE POP POP DUP9 MLOAD DUP12 SWAP3 POP DUP3 DUP16 SUB SWAP2 POP ISZERO PUSH2 0x1660 JUMP JUMPDEST POP POP POP POP POP POP POP POP POP JUMP JUMPDEST DUP5 PUSH2 0x615 DUP2 PUSH2 0x14C2 JUMP JUMPDEST PUSH2 0x61E JUMPI PUSH1 0x0 DUP1 REVERT JUMPDEST DUP3 DUP3 PUSH1 0x9 PUSH1 0x0 DUP10 DUP2 MSTORE PUSH1 0x20 ADD SWAP1 DUP2 MSTORE PUSH1 0x20 ADD PUSH1 0x0 KECCAK256 DUP8 DUP8 PUSH1 0x40 MLOAD PUSH2 0x643 SWAP3 SWAP2 SWAP1 PUSH2 0x26DF JUMP JUMPDEST SWAP1 DUP2 MSTORE PUSH1 0x40 MLOAD SWAP1 DUP2 SWAP1 SUB PUSH1 0x20 ADD SWAP1 KECCAK256 PUSH2 0x65D SWAP3 SWAP1 SWAP2 PUSH2 0x1E7B JUMP JUMPDEST POP DUP5 DUP5 PUSH1 0x40 MLOAD PUSH2 0x66E SWAP3 SWAP2 SWAP1 PUSH2 0x26DF JUMP JUMPDEST PUSH1 0x40 MLOAD DUP1 SWAP2 SUB SWAP1 KECCAK256 DUP7 PUSH32 0xD8C9334B1A9C2F9DA342A0A2B32629C1A229B6445DAD78947F674B44444A7550 DUP8 DUP8 PUSH1 0x40 MLOAD PUSH2 0x6A8 SWAP3 SWAP2 SWAP1 PUSH2 0x2775 JUMP JUMPDEST PUSH1 0x40 MLOAD DUP1 SWAP2 SUB SWAP1 LOG3 POP POP POP POP POP POP JUMP JUMPDEST PUSH1 0x0 DUP3 DUP2 MSTORE PUSH1 0x6 PUSH1 0x20 SWAP1 DUP2 MSTORE PUSH1 0x40 DUP1 DUP4 KECCAK256 PUSH32 0xFFFFFFFF00000000000000000000000000000000000000000000000000000000 DUP6 AND DUP5 MSTORE SWAP1 SWAP2 MSTORE DUP2 KECCAK256 SLOAD PUSH20 0xFFFFFFFFFFFFFFFFFFFFFFFFFFFFFFFFFFFFFFFF AND DUP1 ISZERO PUSH2 0x717 JUMPI SWAP1 POP PUSH2 0x9F1 JUMP JUMPDEST PUSH1 0x0 PUSH2 0x722 DUP6 PUSH2 0xBF5 JUMP JUMPDEST SWAP1 POP PUSH20 0xFFFFFFFFFFFFFFFFFFFFFFFFFFFFFFFFFFFFFFFF DUP2 AND PUSH2 0x74A JUMPI PUSH1 0x0 SWAP3 POP POP POP PUSH2 0x9F1 JUMP JUMPDEST PUSH1 0x0 PUSH1 0x60 DUP3 PUSH20 0xFFFFFFFFFFFFFFFFFFFFFFFFFFFFFFFFFFFFFFFF AND PUSH4 0x1FFC9A7 PUSH1 0xE0 SHL PUSH1 0x40 MLOAD PUSH1 0x24 ADD PUSH2 0x77D SWAP2 SWAP1 PUSH2 0x2767 JUMP JUMPDEST PUSH1 0x40 DUP1 MLOAD PUSH32 0xFFFFFFFFFFFFFFFFFFFFFFFFFFFFFFFFFFFFFFFFFFFFFFFFFFFFFFFFFFFFFFE0 DUP2 DUP5 SUB ADD DUP2 MSTORE SWAP2 DUP2 MSTORE PUSH1 0x20 DUP3 ADD DUP1 MLOAD PUSH28 0xFFFFFFFFFFFFFFFFFFFFFFFFFFFFFFFFFFFFFFFFFFFFFFFFFFFFFFFF AND PUSH32 0x1FFC9A700000000000000000000000000000000000000000000000000000000 OR SWAP1 MSTORE MLOAD PUSH2 0x7FE SWAP2 SWAP1 PUSH2 0x26EC JUMP JUMPDEST PUSH1 0x0 PUSH1 0x40 MLOAD DUP1 DUP4 SUB DUP2 DUP6 GAS STATICCALL SWAP2 POP POP RETURNDATASIZE DUP1 PUSH1 0x0 DUP2 EQ PUSH2 0x839 JUMPI PUSH1 0x40 MLOAD SWAP2 POP PUSH1 0x1F NOT PUSH1 0x3F RETURNDATASIZE ADD AND DUP3 ADD PUSH1 0x40 MSTORE RETURNDATASIZE DUP3 MSTORE RETURNDATASIZE PUSH1 0x0 PUSH1 0x20 DUP5 ADD RETURNDATACOPY PUSH2 0x83E JUMP JUMPDEST PUSH1 0x60 SWAP2 POP JUMPDEST POP SWAP2 POP SWAP2 POP DUP2 ISZERO DUP1 PUSH2 0x851 JUMPI POP PUSH1 0x20 DUP2 MLOAD LT JUMPDEST DUP1 PUSH2 0x88D JUMPI POP DUP1 PUSH1 0x1F DUP2 MLOAD DUP2 LT PUSH2 0x864 JUMPI INVALID JUMPDEST ADD PUSH1 0x20 ADD MLOAD PUSH32 0xFF00000000000000000000000000000000000000000000000000000000000000 AND ISZERO JUMPDEST ISZERO PUSH2 0x89F JUMPI PUSH1 0x0 SWAP5 POP POP POP POP POP PUSH2 0x9F1 JUMP JUMPDEST DUP3 PUSH20 0xFFFFFFFFFFFFFFFFFFFFFFFFFFFFFFFFFFFFFFFF AND DUP7 PUSH1 0x40 MLOAD PUSH1 0x24 ADD PUSH2 0x8C7 SWAP2 SWAP1 PUSH2 0x2767 JUMP JUMPDEST PUSH1 0x40 DUP1 MLOAD PUSH32 0xFFFFFFFFFFFFFFFFFFFFFFFFFFFFFFFFFFFFFFFFFFFFFFFFFFFFFFFFFFFFFFE0 DUP2 DUP5 SUB ADD DUP2 MSTORE SWAP2 DUP2 MSTORE PUSH1 0x20 DUP3 ADD DUP1 MLOAD PUSH28 0xFFFFFFFFFFFFFFFFFFFFFFFFFFFFFFFFFFFFFFFFFFFFFFFFFFFFFFFF AND PUSH32 0x1FFC9A700000000000000000000000000000000000000000000000000000000 OR SWAP1 MSTORE MLOAD PUSH2 0x948 SWAP2 SWAP1 PUSH2 0x26EC JUMP JUMPDEST PUSH1 0x0 PUSH1 0x40 MLOAD DUP1 DUP4 SUB DUP2 DUP6 GAS STATICCALL SWAP2 POP POP RETURNDATASIZE DUP1 PUSH1 0x0 DUP2 EQ PUSH2 0x983 JUMPI PUSH1 0x40 MLOAD SWAP2 POP PUSH1 0x1F NOT PUSH1 0x3F RETURNDATASIZE ADD AND DUP3 ADD PUSH1 0x40 MSTORE RETURNDATASIZE DUP3 MSTORE RETURNDATASIZE PUSH1 0x0 PUSH1 0x20 DUP5 ADD RETURNDATACOPY PUSH2 0x988 JUMP JUMPDEST PUSH1 0x60 SWAP2 POP JUMPDEST POP SWAP1 SWAP3 POP SWAP1 POP DUP2 ISZERO DUP1 PUSH2 0x99C JUMPI POP PUSH1 0x20 DUP2 MLOAD LT JUMPDEST DUP1 PUSH2 0x9D8 JUMPI POP DUP1 PUSH1 0x1F DUP2 MLOAD DUP2 LT PUSH2 0x9AF JUMPI INVALID JUMPDEST ADD PUSH1 0x20 ADD MLOAD PUSH32 0xFF00000000000000000000000000000000000000000000000000000000000000 AND ISZERO JUMPDEST ISZERO PUSH2 0x9EA JUMPI PUSH1 0x0 SWAP5 POP POP POP POP POP PUSH2 0x9F1 JUMP JUMPDEST POP SWAP1 SWAP3 POP POP POP JUMPDEST SWAP3 SWAP2 POP POP JUMP JUMPDEST PUSH1 0x0 DUP3 DUP2 MSTORE PUSH1 0x20 DUP2 SWAP1 MSTORE PUSH1 0x40 DUP2 KECCAK256 PUSH1 0x60 SWAP1 PUSH1 0x1 JUMPDEST DUP5 DUP2 GT PUSH2 0xAF8 JUMPI DUP1 DUP6 AND ISZERO DUP1 ISZERO SWAP1 PUSH2 0xA43 JUMPI POP PUSH1 0x0 DUP2 DUP2 MSTORE PUSH1 0x20 DUP4 SWAP1 MSTORE PUSH1 0x40 SWAP1 KECCAK256 SLOAD PUSH1 0x2 PUSH1 0x0 NOT PUSH2 0x100 PUSH1 0x1 DUP5 AND ISZERO MUL ADD SWAP1 SWAP2 AND DIV ISZERO ISZERO JUMPDEST ISZERO PUSH2 0xAF0 JUMPI PUSH1 0x0 DUP2 DUP2 MSTORE PUSH1 0x20 DUP4 DUP2 MSTORE PUSH1 0x40 SWAP2 DUP3 SWAP1 KECCAK256 DUP1 SLOAD DUP4 MLOAD PUSH1 0x1F PUSH1 0x2 PUSH1 0x0 NOT PUSH2 0x100 PUSH1 0x1 DUP7 AND ISZERO MUL ADD SWAP1 SWAP4 AND SWAP3 SWAP1 SWAP3 DIV SWAP2 DUP3 ADD DUP5 SWAP1 DIV DUP5 MUL DUP2 ADD DUP5 ADD SWAP1 SWAP5 MSTORE DUP1 DUP5 MSTORE DUP5 SWAP4 SWAP2 SWAP3 DUP4 SWAP2 SWAP1 DUP4 ADD DUP3 DUP3 DUP1 ISZERO PUSH2 0xADE JUMPI DUP1 PUSH1 0x1F LT PUSH2 0xAB3 JUMPI PUSH2 0x100 DUP1 DUP4 SLOAD DIV MUL DUP4 MSTORE SWAP2 PUSH1 0x20 ADD SWAP2 PUSH2 0xADE JUMP JUMPDEST DUP3 ADD SWAP2 SWAP1 PUSH1 0x0 MSTORE PUSH1 0x20 PUSH1 0x0 KECCAK256 SWAP1 JUMPDEST DUP2 SLOAD DUP2 MSTORE SWAP1 PUSH1 0x1 ADD SWAP1 PUSH1 0x20 ADD DUP1 DUP4 GT PUSH2 0xAC1 JUMPI DUP3 SWAP1 SUB PUSH1 0x1F AND DUP3 ADD SWAP2 JUMPDEST POP POP POP POP POP SWAP1 POP SWAP4 POP SWAP4 POP POP POP PUSH2 0xB0F JUMP JUMPDEST PUSH1 0x1 SHL PUSH2 0xA0B JUMP JUMPDEST POP POP PUSH1 0x40 DUP1 MLOAD PUSH1 0x20 DUP2 ADD SWAP1 SWAP2 MSTORE PUSH1 0x0 DUP1 DUP3 MSTORE SWAP3 POP SWAP1 POP JUMPDEST SWAP3 POP SWAP3 SWAP1 POP JUMP JUMPDEST DUP3 PUSH2 0xB20 DUP2 PUSH2 0x14C2 JUMP JUMPDEST PUSH2 0xB29 JUMPI PUSH1 0x0 DUP1 REVERT JUMPDEST PUSH1 0x40 DUP1 MLOAD DUP1 DUP3 ADD DUP3 MSTORE DUP5 DUP2 MSTORE PUSH1 0x20 DUP1 DUP3 ADD DUP6 DUP2 MSTORE PUSH1 0x0 DUP9 DUP2 MSTORE PUSH1 0x8 SWAP1 SWAP3 MSTORE SWAP1 DUP4 SWAP1 KECCAK256 SWAP2 MLOAD DUP3 SSTORE MLOAD PUSH1 0x1 SWAP1 SWAP2 ADD SSTORE MLOAD DUP5 SWAP1 PUSH32 0x1D6F5E03D3F63EB58751986629A5439BAEE5079FF04F345BECB66E23EB154E46 SWAP1 PUSH2 0xB88 SWAP1 DUP7 SWAP1 DUP7 SWAP1 PUSH2 0x274C JUMP JUMPDEST PUSH1 0x40 MLOAD DUP1 SWAP2 SUB SWAP1 LOG2 POP POP POP POP JUMP JUMPDEST DUP3 PUSH2 0xBA0 DUP2 PUSH2 0x14C2 JUMP JUMPDEST PUSH2 0xBA9 JUMPI PUSH1 0x0 DUP1 REVERT JUMPDEST PUSH1 0x0 DUP5 DUP2 MSTORE PUSH1 0x2 PUSH1 0x20 MSTORE PUSH1 0x40 SWAP1 KECCAK256 PUSH2 0xBC2 SWAP1 DUP5 DUP5 PUSH2 0x1E7B JUMP JUMPDEST POP DUP4 PUSH32 0xE379C1624ED7E714CC0937528A32359D69D5281337765313DBA4E081B72D7578 DUP5 DUP5 PUSH1 0x40 MLOAD PUSH2 0xB88 SWAP3 SWAP2 SWAP1 PUSH2 0x2775 JUMP JUMPDEST PUSH1 0x0 PUSH1 0x60 PUSH2 0xC04 DUP4 PUSH1 0x3C PUSH2 0x139D JUMP JUMPDEST SWAP1 POP DUP1 MLOAD PUSH1 0x0 EQ ISZERO PUSH2 0xC1A JUMPI PUSH1 0x0 SWAP2 POP POP PUSH2 0x419 JUMP JUMPDEST PUSH2 0xC23 DUP2 PUSH2 0x199A JUMP JUMPDEST SWAP4 SWAP3 POP POP POP JUMP JUMPDEST PUSH1 0x0 DUP4 DUP2 MSTORE PUSH1 0xB PUSH1 0x20 SWAP1 DUP2 MSTORE PUSH1 0x40 DUP1 DUP4 KECCAK256 CALLER DUP1 DUP6 MSTORE SWAP1 DUP4 MSTORE DUP2 DUP5 KECCAK256 PUSH20 0xFFFFFFFFFFFFFFFFFFFFFFFFFFFFFFFFFFFFFFFF DUP8 AND DUP1 DUP7 MSTORE SWAP4 MSTORE SWAP3 DUP2 SWAP1 KECCAK256 DUP1 SLOAD PUSH32 0xFFFFFFFFFFFFFFFFFFFFFFFFFFFFFFFFFFFFFFFFFFFFFFFFFFFFFFFFFFFFFF00 AND DUP6 ISZERO ISZERO OR SWAP1 SSTORE MLOAD SWAP1 SWAP2 SWAP1 DUP6 SWAP1 PUSH32 0xE1C5610A6E0CBE10764ECD182ADCEF1EC338DC4E199C99C32CE98F38E12791DF SWAP1 PUSH2 0xCC2 SWAP1 DUP7 SWAP1 PUSH2 0x2730 JUMP JUMPDEST PUSH1 0x40 MLOAD DUP1 SWAP2 SUB SWAP1 LOG4 POP POP POP JUMP JUMPDEST PUSH1 0x0 SWAP2 DUP3 MSTORE PUSH1 0x5 PUSH1 0x20 SWAP1 DUP2 MSTORE PUSH1 0x40 DUP1 DUP5 KECCAK256 PUSH1 0x3 DUP4 MSTORE DUP2 DUP6 KECCAK256 SLOAD DUP6 MSTORE DUP3 MSTORE DUP1 DUP5 KECCAK256 SWAP3 DUP5 MSTORE SWAP2 SWAP1 MSTORE SWAP1 KECCAK256 SLOAD PUSH2 0xFFFF AND ISZERO ISZERO SWAP1 JUMP JUMPDEST PUSH1 0x60 PUSH1 0x9 PUSH1 0x0 DUP6 DUP2 MSTORE PUSH1 0x20 ADD SWAP1 DUP2 MSTORE PUSH1 0x20 ADD PUSH1 0x0 KECCAK256 DUP4 DUP4 PUSH1 0x40 MLOAD PUSH2 0xD26 SWAP3 SWAP2 SWAP1 PUSH2 0x26DF JUMP JUMPDEST SWAP1 DUP2 MSTORE PUSH1 0x40 DUP1 MLOAD PUSH1 0x20 SWAP3 DUP2 SWAP1 SUB DUP4 ADD DUP2 KECCAK256 DUP1 SLOAD PUSH1 0x2 PUSH1 0x1 DUP3 AND ISZERO PUSH2 0x100 MUL PUSH1 0x0 NOT ADD SWAP1 SWAP2 AND DIV PUSH1 0x1F DUP2 ADD DUP6 SWAP1 DIV DUP6 MUL DUP4 ADD DUP6 ADD SWAP1 SWAP4 MSTORE DUP3 DUP3 MSTORE SWAP1 SWAP3 SWAP1 SWAP2 SWAP1 DUP4 ADD DUP3 DUP3 DUP1 ISZERO PUSH2 0xDB5 JUMPI DUP1 PUSH1 0x1F LT PUSH2 0xD8A JUMPI PUSH2 0x100 DUP1 DUP4 SLOAD DIV MUL DUP4 MSTORE SWAP2 PUSH1 0x20 ADD SWAP2 PUSH2 0xDB5 JUMP JUMPDEST DUP3 ADD SWAP2 SWAP1 PUSH1 0x0 MSTORE PUSH1 0x20 PUSH1 0x0 KECCAK256 SWAP1 JUMPDEST DUP2 SLOAD DUP2 MSTORE SWAP1 PUSH1 0x1 ADD SWAP1 PUSH1 0x20 ADD DUP1 DUP4 GT PUSH2 0xD98 JUMPI DUP3 SWAP1 SUB PUSH1 0x1F AND DUP3 ADD SWAP2 JUMPDEST POP POP POP POP POP SWAP1 POP SWAP4 SWAP3 POP POP POP JUMP JUMPDEST DUP4 PUSH2 0xDCD DUP2 PUSH2 0x14C2 JUMP JUMPDEST PUSH2 0xDD6 JUMPI PUSH1 0x0 DUP1 REVERT JUMPDEST PUSH1 0x0 NOT DUP5 ADD DUP5 AND ISZERO PUSH2 0xDE7 JUMPI PUSH1 0x0 DUP1 REVERT JUMPDEST PUSH1 0x0 DUP6 DUP2 MSTORE PUSH1 0x20 DUP2 DUP2 MSTORE PUSH1 0x40 DUP1 DUP4 KECCAK256 DUP8 DUP5 MSTORE SWAP1 SWAP2 MSTORE SWAP1 KECCAK256 PUSH2 0xE09 SWAP1 DUP5 DUP5 PUSH2 0x1E7B JUMP JUMPDEST POP PUSH1 0x40 MLOAD DUP5 SWAP1 DUP7 SWAP1 PUSH32 0xAA121BBEEF5F32F5961A2A28966E769023910FC9479059EE3495D4C1A696EFE3 SWAP1 PUSH1 0x0 SWAP1 LOG3 POP POP POP POP POP JUMP JUMPDEST PUSH1 0x0 DUP2 DUP2 MSTORE PUSH1 0x7 PUSH1 0x20 SWAP1 DUP2 MSTORE PUSH1 0x40 SWAP2 DUP3 SWAP1 KECCAK256 DUP1 SLOAD DUP4 MLOAD PUSH1 0x1F PUSH1 0x2 PUSH1 0x0 NOT PUSH2 0x100 PUSH1 0x1 DUP7 AND ISZERO MUL ADD SWAP1 SWAP4 AND SWAP3 SWAP1 SWAP3 DIV SWAP2 DUP3 ADD DUP5 SWAP1 DIV DUP5 MUL DUP2 ADD DUP5 ADD SWAP1 SWAP5 MSTORE DUP1 DUP5 MSTORE PUSH1 0x60 SWAP4 SWAP3 DUP4 ADD DUP3 DUP3 DUP1 ISZERO PUSH2 0xED3 JUMPI DUP1 PUSH1 0x1F LT PUSH2 0xEA8 JUMPI PUSH2 0x100 DUP1 DUP4 SLOAD DIV MUL DUP4 MSTORE SWAP2 PUSH1 0x20 ADD SWAP2 PUSH2 0xED3 JUMP JUMPDEST DUP3 ADD SWAP2 SWAP1 PUSH1 0x0 MSTORE PUSH1 0x20 PUSH1 0x0 KECCAK256 SWAP1 JUMPDEST DUP2 SLOAD DUP2 MSTORE SWAP1 PUSH1 0x1 ADD SWAP1 PUSH1 0x20 ADD DUP1 DUP4 GT PUSH2 0xEB6 JUMPI DUP3 SWAP1 SUB PUSH1 0x1F AND DUP3 ADD SWAP2 JUMPDEST POP POP POP POP POP SWAP1 POP SWAP2 SWAP1 POP JUMP JUMPDEST DUP3 PUSH2 0xEE9 DUP2 PUSH2 0x14C2 JUMP JUMPDEST PUSH2 0xEF2 JUMPI PUSH1 0x0 DUP1 REVERT JUMPDEST PUSH1 0x0 DUP5 DUP2 MSTORE PUSH1 0x7 PUSH1 0x20 MSTORE PUSH1 0x40 SWAP1 KECCAK256 PUSH2 0xF0B SWAP1 DUP5 DUP5 PUSH2 0x1E7B JUMP JUMPDEST POP DUP4 PUSH32 0xB7D29E911041E8D9B843369E890BCB72C9388692BA48B65AC54E7214C4C348F7 DUP5 DUP5 PUSH1 0x40 MLOAD PUSH2 0xB88 SWAP3 SWAP2 SWAP1 PUSH2 0x2775 JUMP JUMPDEST DUP3 PUSH2 0xF48 DUP2 PUSH2 0x14C2 JUMP JUMPDEST PUSH2 0xF51 JUMPI PUSH1 0x0 DUP1 REVERT JUMPDEST DUP4 PUSH32 0x65412581168E88A1E60C6459D7F44AE83AD0832E670826C05A4E2476B57AF752 DUP5 DUP5 PUSH1 0x40 MLOAD PUSH2 0xF83 SWAP3 SWAP2 SWAP1 PUSH2 0x27F3 JUMP JUMPDEST PUSH1 0x40 MLOAD DUP1 SWAP2 SUB SWAP1 LOG2 PUSH1 0x3C DUP4 EQ ISZERO PUSH2 0xFD5 JUMPI DUP4 PUSH32 0x52D7D861F09AB3D26239D492E8968629F95E9E318CF0B73BFDDC441522A15FD2 PUSH2 0xFBF DUP5 PUSH2 0x199A JUMP JUMPDEST PUSH1 0x40 MLOAD PUSH2 0xFCC SWAP2 SWAP1 PUSH2 0x2711 JUMP JUMPDEST PUSH1 0x40 MLOAD DUP1 SWAP2 SUB SWAP1 LOG2 JUMPDEST PUSH1 0x0 DUP5 DUP2 MSTORE PUSH1 0x1 PUSH1 0x20 SWAP1 DUP2 MSTORE PUSH1 0x40 DUP1 DUP4 KECCAK256 DUP7 DUP5 MSTORE DUP3 MSTORE SWAP1 SWAP2 KECCAK256 DUP4 MLOAD PUSH2 0xFFC SWAP3 DUP6 ADD SWAP1 PUSH2 0x1F17 JUMP JUMPDEST POP POP POP POP POP JUMP JUMPDEST PUSH1 0x0 DUP4 DUP2 MSTORE PUSH1 0x4 PUSH1 0x20 SWAP1 DUP2 MSTORE PUSH1 0x40 DUP1 DUP4 KECCAK256 PUSH1 0x3 DUP4 MSTORE DUP2 DUP5 KECCAK256 SLOAD DUP5 MSTORE DUP3 MSTORE DUP1 DUP4 KECCAK256 DUP6 DUP5 MSTORE DUP3 MSTORE DUP1 DUP4 KECCAK256 PUSH2 0xFFFF DUP6 AND DUP5 MSTORE DUP3 MSTORE SWAP2 DUP3 SWAP1 KECCAK256 DUP1 SLOAD DUP4 MLOAD PUSH1 0x1F PUSH1 0x2 PUSH1 0x0 NOT PUSH2 0x100 PUSH1 0x1 DUP7 AND ISZERO MUL ADD SWAP1 SWAP4 AND SWAP3 SWAP1 SWAP3 DIV SWAP2 DUP3 ADD DUP5 SWAP1 DIV DUP5 MUL DUP2 ADD DUP5 ADD SWAP1 SWAP5 MSTORE DUP1 DUP5 MSTORE PUSH1 0x60 SWAP4 SWAP3 DUP4 ADD DUP3 DUP3 DUP1 ISZERO PUSH2 0xDB5 JUMPI DUP1 PUSH1 0x1F LT PUSH2 0xD8A JUMPI PUSH2 0x100 DUP1 DUP4 SLOAD DIV MUL DUP4 MSTORE SWAP2 PUSH1 0x20 ADD SWAP2 PUSH2 0xDB5 JUMP JUMPDEST PUSH1 0x40 DUP1 MLOAD DUP3 DUP2 MSTORE PUSH1 0x20 DUP1 DUP5 MUL DUP3 ADD ADD SWAP1 SWAP2 MSTORE PUSH1 0x60 SWAP1 DUP3 DUP1 ISZERO PUSH2 0x10C6 JUMPI DUP2 PUSH1 0x20 ADD JUMPDEST PUSH1 0x60 DUP2 MSTORE PUSH1 0x20 ADD SWAP1 PUSH1 0x1 SWAP1 SUB SWAP1 DUP2 PUSH2 0x10B1 JUMPI SWAP1 POP JUMPDEST POP SWAP1 POP PUSH1 0x0 JUMPDEST DUP3 DUP2 LT ISZERO PUSH2 0x11CD JUMPI PUSH1 0x0 PUSH1 0x60 ADDRESS DUP7 DUP7 DUP6 DUP2 DUP2 LT PUSH2 0x10E5 JUMPI INVALID JUMPDEST PUSH1 0x20 MUL DUP3 ADD SWAP1 POP DUP1 CALLDATALOAD PUSH32 0xFFFFFFFFFFFFFFFFFFFFFFFFFFFFFFFFFFFFFFFFFFFFFFFFFFFFFFFFFFFFFFE1 CALLDATASIZE DUP5 SWAP1 SUB ADD DUP2 SLT PUSH2 0x111F JUMPI PUSH1 0x0 DUP1 REVERT JUMPDEST SWAP1 SWAP2 ADD PUSH1 0x20 DUP2 ADD SWAP2 POP CALLDATALOAD PUSH8 0xFFFFFFFFFFFFFFFF DUP2 GT ISZERO PUSH2 0x113E JUMPI PUSH1 0x0 DUP1 REVERT JUMPDEST CALLDATASIZE DUP2 SWAP1 SUB DUP3 SGT ISZERO PUSH2 0x114E JUMPI PUSH1 0x0 DUP1 REVERT JUMPDEST PUSH1 0x40 MLOAD PUSH2 0x115C SWAP3 SWAP2 SWAP1 PUSH2 0x26DF JUMP JUMPDEST PUSH1 0x0 PUSH1 0x40 MLOAD DUP1 DUP4 SUB DUP2 DUP6 GAS DELEGATECALL SWAP2 POP POP RETURNDATASIZE DUP1 PUSH1 0x0 DUP2 EQ PUSH2 0x1197 JUMPI PUSH1 0x40 MLOAD SWAP2 POP PUSH1 0x1F NOT PUSH1 0x3F RETURNDATASIZE ADD AND DUP3 ADD PUSH1 0x40 MSTORE RETURNDATASIZE DUP3 MSTORE RETURNDATASIZE PUSH1 0x0 PUSH1 0x20 DUP5 ADD RETURNDATACOPY PUSH2 0x119C JUMP JUMPDEST PUSH1 0x60 SWAP2 POP JUMPDEST POP SWAP2 POP SWAP2 POP DUP2 PUSH2 0x11AB JUMPI PUSH1 0x0 DUP1 REVERT JUMPDEST DUP1 DUP5 DUP5 DUP2 MLOAD DUP2 LT PUSH2 0x11B8 JUMPI INVALID JUMPDEST PUSH1 0x20 SWAP1 DUP2 MUL SWAP2 SWAP1 SWAP2 ADD ADD MSTORE POP POP PUSH1 0x1 ADD PUSH2 0x10CC JUMP JUMPDEST POP SWAP3 SWAP2 POP POP JUMP JUMPDEST DUP1 PUSH2 0x11DE DUP2 PUSH2 0x14C2 JUMP JUMPDEST PUSH2 0x11E7 JUMPI PUSH1 0x0 DUP1 REVERT JUMPDEST PUSH1 0x0 DUP3 DUP2 MSTORE PUSH1 0x3 PUSH1 0x20 MSTORE PUSH1 0x40 DUP1 DUP3 KECCAK256 DUP1 SLOAD PUSH1 0x1 ADD SWAP1 SSTORE MLOAD DUP4 SWAP2 PUSH32 0xB757169B8492CA2F1C6619D9D76CE22803035C3B1D5F6930DFFE7B127C1A1983 SWAP2 LOG2 POP POP JUMP JUMPDEST PUSH1 0x0 DUP2 DUP2 MSTORE PUSH1 0x2 PUSH1 0x20 DUP2 DUP2 MSTORE PUSH1 0x40 SWAP3 DUP4 SWAP1 KECCAK256 DUP1 SLOAD DUP5 MLOAD PUSH1 0x1 DUP3 AND ISZERO PUSH2 0x100 MUL PUSH1 0x0 NOT ADD SWAP1 SWAP2 AND SWAP4 SWAP1 SWAP4 DIV PUSH1 0x1F DUP2 ADD DUP4 SWAP1 DIV DUP4 MUL DUP5 ADD DUP4 ADD SWAP1 SWAP5 MSTORE DUP4 DUP4 MSTORE PUSH1 0x60 SWAP4 SWAP1 SWAP2 DUP4 ADD DUP3 DUP3 DUP1 ISZERO PUSH2 0xED3 JUMPI DUP1 PUSH1 0x1F LT PUSH2 0xEA8 JUMPI PUSH2 0x100 DUP1 DUP4 SLOAD DIV MUL DUP4 MSTORE SWAP2 PUSH1 0x20 ADD SWAP2 PUSH2 0xED3 JUMP JUMPDEST PUSH1 0x0 SWAP1 DUP2 MSTORE PUSH1 0x8 PUSH1 0x20 MSTORE PUSH1 0x40 SWAP1 KECCAK256 DUP1 SLOAD PUSH1 0x1 SWAP1 SWAP2 ADD SLOAD SWAP1 SWAP2 JUMP JUMPDEST DUP2 PUSH2 0x12B3 DUP2 PUSH2 0x14C2 JUMP JUMPDEST PUSH2 0x12BC JUMPI PUSH1 0x0 DUP1 REVERT JUMPDEST PUSH2 0x12CB DUP4 PUSH1 0x3C PUSH2 0x2F5 DUP6 PUSH2 0x19C2 JUMP JUMPDEST POP POP POP JUMP JUMPDEST DUP3 PUSH2 0x12DA DUP2 PUSH2 0x14C2 JUMP JUMPDEST PUSH2 0x12E3 JUMPI PUSH1 0x0 DUP1 REVERT JUMPDEST PUSH1 0x0 DUP5 DUP2 MSTORE PUSH1 0x6 PUSH1 0x20 SWAP1 DUP2 MSTORE PUSH1 0x40 DUP1 DUP4 KECCAK256 PUSH32 0xFFFFFFFF00000000000000000000000000000000000000000000000000000000 DUP8 AND DUP1 DUP6 MSTORE SWAP3 MSTORE SWAP2 DUP3 SWAP1 KECCAK256 DUP1 SLOAD PUSH32 0xFFFFFFFFFFFFFFFFFFFFFFFF0000000000000000000000000000000000000000 AND PUSH20 0xFFFFFFFFFFFFFFFFFFFFFFFFFFFFFFFFFFFFFFFF DUP7 AND OR SWAP1 SSTORE SWAP1 MLOAD DUP6 SWAP1 PUSH32 0x7C69F06BEA0BDEF565B709E93A147836B0063BA2DD89F02D0B7E8D931E6A6DAA SWAP1 PUSH2 0x138F SWAP1 DUP7 SWAP1 PUSH2 0x2703 JUMP JUMPDEST PUSH1 0x40 MLOAD DUP1 SWAP2 SUB SWAP1 LOG3 POP POP POP POP JUMP JUMPDEST PUSH1 0x0 DUP3 DUP2 MSTORE PUSH1 0x1 PUSH1 0x20 DUP2 DUP2 MSTORE PUSH1 0x40 DUP1 DUP5 KECCAK256 DUP6 DUP6 MSTORE DUP3 MSTORE SWAP3 DUP4 SWAP1 KECCAK256 DUP1 SLOAD DUP5 MLOAD PUSH1 0x2 SWAP5 DUP3 AND ISZERO PUSH2 0x100 MUL PUSH1 0x0 NOT ADD SWAP1 SWAP2 AND SWAP4 SWAP1 SWAP4 DIV PUSH1 0x1F DUP2 ADD DUP4 SWAP1 DIV DUP4 MUL DUP5 ADD DUP4 ADD SWAP1 SWAP5 MSTORE DUP4 DUP4 MSTORE PUSH1 0x60 SWAP4 SWAP1 SWAP2 DUP4 ADD DUP3 DUP3 DUP1 ISZERO PUSH2 0x1439 JUMPI DUP1 PUSH1 0x1F LT PUSH2 0x140E JUMPI PUSH2 0x100 DUP1 DUP4 SLOAD DIV MUL DUP4 MSTORE SWAP2 PUSH1 0x20 ADD SWAP2 PUSH2 0x1439 JUMP JUMPDEST DUP3 ADD SWAP2 SWAP1 PUSH1 0x0 MSTORE PUSH1 0x20 PUSH1 0x0 KECCAK256 SWAP1 JUMPDEST DUP2 SLOAD DUP2 MSTORE SWAP1 PUSH1 0x1 ADD SWAP1 PUSH1 0x20 ADD DUP1 DUP4 GT PUSH2 0x141C JUMPI DUP3 SWAP1 SUB PUSH1 0x1F AND DUP3 ADD SWAP2 JUMPDEST POP POP POP POP POP SWAP1 POP SWAP3 SWAP2 POP POP JUMP JUMPDEST PUSH1 0xB PUSH1 0x20 SWAP1 DUP2 MSTORE PUSH1 0x0 SWAP4 DUP5 MSTORE PUSH1 0x40 DUP1 DUP6 KECCAK256 DUP3 MSTORE SWAP3 DUP5 MSTORE DUP3 DUP5 KECCAK256 SWAP1 MSTORE DUP3 MSTORE SWAP1 KECCAK256 SLOAD PUSH1 0xFF AND DUP2 JUMP JUMPDEST PUSH1 0x0 PUSH32 0xFFFFFFFF00000000000000000000000000000000000000000000000000000000 DUP3 AND PUSH32 0xC869023300000000000000000000000000000000000000000000000000000000 EQ DUP1 PUSH2 0x416 JUMPI POP PUSH2 0x416 DUP3 PUSH2 0x19FB JUMP JUMPDEST PUSH1 0xA SLOAD PUSH1 0x40 MLOAD PUSH32 0x2571BE300000000000000000000000000000000000000000000000000000000 DUP2 MSTORE PUSH1 0x0 SWAP2 DUP3 SWAP2 PUSH20 0xFFFFFFFFFFFFFFFFFFFFFFFFFFFFFFFFFFFFFFFF SWAP1 SWAP2 AND SWAP1 PUSH4 0x2571BE3 SWAP1 PUSH2 0x151D SWAP1 DUP7 SWAP1 PUSH1 0x4 ADD PUSH2 0x273E JUMP JUMPDEST PUSH1 0x20 PUSH1 0x40 MLOAD DUP1 DUP4 SUB DUP2 DUP7 DUP1 EXTCODESIZE ISZERO DUP1 ISZERO PUSH2 0x1535 JUMPI PUSH1 0x0 DUP1 REVERT JUMPDEST POP GAS STATICCALL ISZERO DUP1 ISZERO PUSH2 0x1549 JUMPI RETURNDATASIZE PUSH1 0x0 DUP1 RETURNDATACOPY RETURNDATASIZE PUSH1 0x0 REVERT JUMPDEST POP POP POP POP PUSH1 0x40 MLOAD RETURNDATASIZE PUSH1 0x1F NOT PUSH1 0x1F DUP3 ADD AND DUP3 ADD DUP1 PUSH1 0x40 MSTORE POP PUSH2 0x156D SWAP2 SWAP1 DUP2 ADD SWAP1 PUSH2 0x20FC JUMP JUMPDEST SWAP1 POP PUSH20 0xFFFFFFFFFFFFFFFFFFFFFFFFFFFFFFFFFFFFFFFF DUP2 AND CALLER EQ DUP1 PUSH2 0xC23 JUMPI POP PUSH1 0x0 DUP4 DUP2 MSTORE PUSH1 0xB PUSH1 0x20 SWAP1 DUP2 MSTORE PUSH1 0x40 DUP1 DUP4 KECCAK256 PUSH20 0xFFFFFFFFFFFFFFFFFFFFFFFFFFFFFFFFFFFFFFFF DUP6 AND DUP5 MSTORE DUP3 MSTORE DUP1 DUP4 KECCAK256 CALLER DUP5 MSTORE SWAP1 SWAP2 MSTORE SWAP1 KECCAK256 SLOAD PUSH1 0xFF AND SWAP2 POP POP SWAP2 SWAP1 POP JUMP JUMPDEST PUSH2 0x15D9 PUSH2 0x1E30 JUMP JUMPDEST DUP3 DUP2 MSTORE PUSH1 0xC0 DUP2 ADD DUP3 SWAP1 MSTORE PUSH2 0x9F1 DUP2 PUSH2 0x18C7 JUMP JUMPDEST DUP1 MLOAD MLOAD PUSH1 0x20 SWAP1 SWAP2 ADD MLOAD LT ISZERO SWAP1 JUMP JUMPDEST PUSH1 0x20 DUP2 ADD MLOAD DUP2 MLOAD PUSH1 0x60 SWAP2 PUSH2 0x416 SWAP2 PUSH2 0x1612 SWAP1 DUP3 PUSH2 0x1A51 JUMP JUMPDEST DUP5 MLOAD SWAP2 SWAP1 PUSH4 0xFFFFFFFF PUSH2 0x1A98 AND JUMP JUMPDEST PUSH1 0xA0 DUP2 ADD MLOAD PUSH1 0xC0 DUP3 ADD MLOAD DUP3 MLOAD PUSH1 0x60 SWAP3 PUSH2 0x416 SWAP3 DUP2 SWAP1 SUB PUSH4 0xFFFFFFFF PUSH2 0x1A98 AND JUMP JUMPDEST PUSH1 0x0 DUP2 MLOAD DUP4 MLOAD EQ DUP1 ISZERO PUSH2 0xC23 JUMPI POP PUSH2 0xC23 DUP4 PUSH1 0x0 DUP5 PUSH1 0x0 DUP8 MLOAD PUSH2 0x1AFA JUMP JUMPDEST PUSH1 0x0 DUP8 DUP2 MSTORE PUSH1 0x3 PUSH1 0x20 SWAP1 DUP2 MSTORE PUSH1 0x40 SWAP1 SWAP2 KECCAK256 SLOAD DUP8 MLOAD SWAP2 DUP9 ADD SWAP2 SWAP1 SWAP2 KECCAK256 PUSH1 0x60 PUSH2 0x168E DUP8 DUP8 DUP8 PUSH4 0xFFFFFFFF PUSH2 0x1A98 AND JUMP JUMPDEST SWAP1 POP DUP4 ISZERO PUSH2 0x17A8 JUMPI PUSH1 0x0 DUP11 DUP2 MSTORE PUSH1 0x4 PUSH1 0x20 SWAP1 DUP2 MSTORE PUSH1 0x40 DUP1 DUP4 KECCAK256 DUP7 DUP5 MSTORE DUP3 MSTORE DUP1 DUP4 KECCAK256 DUP6 DUP5 MSTORE DUP3 MSTORE DUP1 DUP4 KECCAK256 PUSH2 0xFFFF DUP13 AND DUP5 MSTORE SWAP1 SWAP2 MSTORE SWAP1 KECCAK256 SLOAD PUSH1 0x2 PUSH1 0x0 NOT PUSH2 0x100 PUSH1 0x1 DUP5 AND ISZERO MUL ADD SWAP1 SWAP2 AND DIV ISZERO PUSH2 0x1733 JUMPI PUSH1 0x0 DUP11 DUP2 MSTORE PUSH1 0x5 PUSH1 0x20 SWAP1 DUP2 MSTORE PUSH1 0x40 DUP1 DUP4 KECCAK256 DUP7 DUP5 MSTORE DUP3 MSTORE DUP1 DUP4 KECCAK256 DUP6 DUP5 MSTORE SWAP1 SWAP2 MSTORE SWAP1 KECCAK256 DUP1 SLOAD PUSH32 0xFFFFFFFFFFFFFFFFFFFFFFFFFFFFFFFFFFFFFFFFFFFFFFFFFFFFFFFFFFFF0000 DUP2 AND PUSH2 0xFFFF SWAP2 DUP3 AND PUSH1 0x0 NOT ADD SWAP1 SWAP2 AND OR SWAP1 SSTORE JUMPDEST PUSH1 0x0 DUP11 DUP2 MSTORE PUSH1 0x4 PUSH1 0x20 SWAP1 DUP2 MSTORE PUSH1 0x40 DUP1 DUP4 KECCAK256 DUP7 DUP5 MSTORE DUP3 MSTORE DUP1 DUP4 KECCAK256 DUP6 DUP5 MSTORE DUP3 MSTORE DUP1 DUP4 KECCAK256 PUSH2 0xFFFF DUP13 AND DUP5 MSTORE SWAP1 SWAP2 MSTORE DUP2 KECCAK256 PUSH2 0x1769 SWAP2 PUSH2 0x1F85 JUMP JUMPDEST DUP10 PUSH32 0x3528ED0C2A3EBC993B12CE3C16BB382F9C7D88EF7D8A1BF290EAF35955A1207 DUP11 DUP11 PUSH1 0x40 MLOAD PUSH2 0x179B SWAP3 SWAP2 SWAP1 PUSH2 0x2798 JUMP JUMPDEST PUSH1 0x40 MLOAD DUP1 SWAP2 SUB SWAP1 LOG2 PUSH2 0x18BB JUMP JUMPDEST PUSH1 0x0 DUP11 DUP2 MSTORE PUSH1 0x4 PUSH1 0x20 SWAP1 DUP2 MSTORE PUSH1 0x40 DUP1 DUP4 KECCAK256 DUP7 DUP5 MSTORE DUP3 MSTORE DUP1 DUP4 KECCAK256 DUP6 DUP5 MSTORE DUP3 MSTORE DUP1 DUP4 KECCAK256 PUSH2 0xFFFF DUP13 AND DUP5 MSTORE SWAP1 SWAP2 MSTORE SWAP1 KECCAK256 SLOAD PUSH1 0x2 PUSH1 0x0 NOT PUSH2 0x100 PUSH1 0x1 DUP5 AND ISZERO MUL ADD SWAP1 SWAP2 AND DIV PUSH2 0x1842 JUMPI PUSH1 0x0 DUP11 DUP2 MSTORE PUSH1 0x5 PUSH1 0x20 SWAP1 DUP2 MSTORE PUSH1 0x40 DUP1 DUP4 KECCAK256 DUP7 DUP5 MSTORE DUP3 MSTORE DUP1 DUP4 KECCAK256 DUP6 DUP5 MSTORE SWAP1 SWAP2 MSTORE SWAP1 KECCAK256 DUP1 SLOAD PUSH2 0xFFFF DUP1 DUP3 AND PUSH1 0x1 ADD AND PUSH32 0xFFFFFFFFFFFFFFFFFFFFFFFFFFFFFFFFFFFFFFFFFFFFFFFFFFFFFFFFFFFF0000 SWAP1 SWAP2 AND OR SWAP1 SSTORE JUMPDEST PUSH1 0x0 DUP11 DUP2 MSTORE PUSH1 0x4 PUSH1 0x20 SWAP1 DUP2 MSTORE PUSH1 0x40 DUP1 DUP4 KECCAK256 DUP7 DUP5 MSTORE DUP3 MSTORE DUP1 DUP4 KECCAK256 DUP6 DUP5 MSTORE DUP3 MSTORE DUP1 DUP4 KECCAK256 PUSH2 0xFFFF DUP13 AND DUP5 MSTORE DUP3 MSTORE SWAP1 SWAP2 KECCAK256 DUP3 MLOAD PUSH2 0x187D SWAP3 DUP5 ADD SWAP1 PUSH2 0x1F17 JUMP JUMPDEST POP DUP10 PUSH32 0x52A608B3303A48862D07A73D82FA221318C0027FBBCFB1B2329BFACE3F19FF2B DUP11 DUP11 DUP5 PUSH1 0x40 MLOAD PUSH2 0x18B2 SWAP4 SWAP3 SWAP2 SWAP1 PUSH2 0x27B8 JUMP JUMPDEST PUSH1 0x40 MLOAD DUP1 SWAP2 SUB SWAP1 LOG2 JUMPDEST POP POP POP POP POP POP POP POP POP POP JUMP JUMPDEST PUSH1 0xC0 DUP2 ADD MLOAD PUSH1 0x20 DUP3 ADD DUP2 SWAP1 MSTORE DUP2 MLOAD MLOAD GT PUSH2 0x18E0 JUMPI PUSH2 0x1997 JUMP JUMPDEST PUSH1 0x0 PUSH2 0x18F4 DUP3 PUSH1 0x0 ADD MLOAD DUP4 PUSH1 0x20 ADD MLOAD PUSH2 0x1A51 JUMP JUMPDEST PUSH1 0x20 DUP4 ADD MLOAD DUP4 MLOAD SWAP2 ADD SWAP2 POP PUSH2 0x190F SWAP1 DUP3 PUSH4 0xFFFFFFFF PUSH2 0x1B1D AND JUMP JUMPDEST PUSH2 0xFFFF AND PUSH1 0x40 DUP4 ADD MSTORE DUP2 MLOAD PUSH1 0x2 SWAP2 SWAP1 SWAP2 ADD SWAP1 PUSH2 0x1931 SWAP1 DUP3 PUSH4 0xFFFFFFFF PUSH2 0x1B1D AND JUMP JUMPDEST PUSH2 0xFFFF AND PUSH1 0x60 DUP4 ADD MSTORE DUP2 MLOAD PUSH1 0x2 SWAP2 SWAP1 SWAP2 ADD SWAP1 PUSH2 0x1953 SWAP1 DUP3 PUSH4 0xFFFFFFFF PUSH2 0x1B3D AND JUMP JUMPDEST PUSH4 0xFFFFFFFF SWAP1 DUP2 AND PUSH1 0x80 DUP5 ADD MSTORE DUP3 MLOAD PUSH1 0x4 SWAP3 SWAP1 SWAP3 ADD SWAP2 PUSH1 0x0 SWAP2 PUSH2 0x1979 SWAP2 SWAP1 DUP5 SWAP1 PUSH2 0x1B1D AND JUMP JUMPDEST PUSH1 0x2 DUP4 DUP2 ADD PUSH1 0xA0 DUP7 ADD MSTORE PUSH2 0xFFFF SWAP2 SWAP1 SWAP2 AND SWAP1 SWAP3 ADD SWAP1 SWAP2 ADD PUSH1 0xC0 DUP4 ADD MSTORE POP JUMPDEST POP JUMP JUMPDEST PUSH1 0x0 DUP2 MLOAD PUSH1 0x14 EQ PUSH2 0x19AA JUMPI PUSH1 0x0 DUP1 REVERT JUMPDEST POP PUSH1 0x20 ADD MLOAD PUSH13 0x1000000000000000000000000 SWAP1 DIV SWAP1 JUMP JUMPDEST PUSH1 0x40 DUP1 MLOAD PUSH1 0x14 DUP1 DUP3 MSTORE DUP2 DUP4 ADD SWAP1 SWAP3 MSTORE PUSH1 0x60 SWAP2 PUSH1 0x20 DUP3 ADD DUP2 DUP1 CODESIZE DUP4 CODECOPY POP POP POP PUSH13 0x1000000000000000000000000 SWAP3 SWAP1 SWAP3 MUL PUSH1 0x20 DUP4 ADD MSTORE POP SWAP1 JUMP JUMPDEST PUSH1 0x0 PUSH32 0xFFFFFFFF00000000000000000000000000000000000000000000000000000000 DUP3 AND PUSH32 0x691F343100000000000000000000000000000000000000000000000000000000 EQ DUP1 PUSH2 0x416 JUMPI POP PUSH2 0x416 DUP3 PUSH2 0x1B5F JUMP JUMPDEST PUSH1 0x0 DUP2 JUMPDEST DUP4 MLOAD DUP2 LT PUSH2 0x1A5F JUMPI INVALID JUMPDEST PUSH1 0x0 PUSH2 0x1A71 DUP6 DUP4 PUSH4 0xFFFFFFFF PUSH2 0x1BC4 AND JUMP JUMPDEST PUSH1 0xFF AND SWAP2 DUP3 ADD PUSH1 0x1 ADD SWAP2 SWAP1 POP DUP1 PUSH2 0x1A88 JUMPI POP PUSH2 0x1A8E JUMP JUMPDEST POP PUSH2 0x1A55 JUMP JUMPDEST SWAP2 SWAP1 SWAP2 SUB SWAP3 SWAP2 POP POP JUMP JUMPDEST PUSH1 0x60 DUP4 MLOAD DUP3 DUP5 ADD GT ISZERO PUSH2 0x1AAA JUMPI PUSH1 0x0 DUP1 REVERT JUMPDEST PUSH1 0x60 DUP3 PUSH1 0x40 MLOAD SWAP1 DUP1 DUP3 MSTORE DUP1 PUSH1 0x1F ADD PUSH1 0x1F NOT AND PUSH1 0x20 ADD DUP3 ADD PUSH1 0x40 MSTORE DUP1 ISZERO PUSH2 0x1AD7 JUMPI PUSH1 0x20 DUP3 ADD DUP2 DUP1 CODESIZE DUP4 CODECOPY ADD SWAP1 POP JUMPDEST POP SWAP1 POP PUSH1 0x20 DUP1 DUP3 ADD SWAP1 DUP7 DUP7 ADD ADD PUSH2 0x1AEF DUP3 DUP3 DUP8 PUSH2 0x1BE2 JUMP JUMPDEST POP SWAP1 SWAP6 SWAP5 POP POP POP POP POP JUMP JUMPDEST PUSH1 0x0 PUSH2 0x1B07 DUP5 DUP5 DUP5 PUSH2 0x1C3E JUMP JUMPDEST PUSH2 0x1B12 DUP8 DUP8 DUP6 PUSH2 0x1C3E JUMP JUMPDEST EQ SWAP7 SWAP6 POP POP POP POP POP POP JUMP JUMPDEST PUSH1 0x0 DUP3 MLOAD DUP3 PUSH1 0x2 ADD GT ISZERO PUSH2 0x1B30 JUMPI PUSH1 0x0 DUP1 REVERT JUMPDEST POP ADD PUSH1 0x2 ADD MLOAD PUSH2 0xFFFF AND SWAP1 JUMP JUMPDEST PUSH1 0x0 DUP3 MLOAD DUP3 PUSH1 0x4 ADD GT ISZERO PUSH2 0x1B50 JUMPI PUSH1 0x0 DUP1 REVERT JUMPDEST POP ADD PUSH1 0x4 ADD MLOAD PUSH4 0xFFFFFFFF AND SWAP1 JUMP JUMPDEST PUSH1 0x0 PUSH1 0x40 MLOAD PUSH2 0x1B6D SWAP1 PUSH2 0x26F8 JUMP JUMPDEST PUSH1 0x40 MLOAD DUP1 SWAP2 SUB SWAP1 KECCAK256 PUSH28 0xFFFFFFFFFFFFFFFFFFFFFFFFFFFFFFFFFFFFFFFFFFFFFFFFFFFFFFFF NOT AND DUP3 PUSH28 0xFFFFFFFFFFFFFFFFFFFFFFFFFFFFFFFFFFFFFFFFFFFFFFFFFFFFFFFF NOT AND EQ DUP1 PUSH2 0x416 JUMPI POP PUSH2 0x416 DUP3 PUSH2 0x1C5A JUMP JUMPDEST PUSH1 0x0 DUP3 DUP3 DUP2 MLOAD DUP2 LT PUSH2 0x1BD2 JUMPI INVALID JUMPDEST ADD PUSH1 0x20 ADD MLOAD PUSH1 0xF8 SHR SWAP1 POP SWAP3 SWAP2 POP POP JUMP JUMPDEST JUMPDEST PUSH1 0x20 DUP2 LT PUSH2 0x1C20 JUMPI DUP2 MLOAD DUP4 MSTORE PUSH1 0x20 SWAP3 DUP4 ADD SWAP3 SWAP1 SWAP2 ADD SWAP1 PUSH32 0xFFFFFFFFFFFFFFFFFFFFFFFFFFFFFFFFFFFFFFFFFFFFFFFFFFFFFFFFFFFFFFE0 ADD PUSH2 0x1BE3 JUMP JUMPDEST SWAP1 MLOAD DUP3 MLOAD PUSH1 0x20 SWAP3 SWAP1 SWAP3 SUB PUSH2 0x100 EXP PUSH1 0x0 NOT ADD DUP1 NOT SWAP1 SWAP2 AND SWAP2 AND OR SWAP1 MSTORE JUMP JUMPDEST PUSH1 0x0 DUP4 MLOAD DUP3 DUP5 ADD GT ISZERO PUSH2 0x1C50 JUMPI PUSH1 0x0 DUP1 REVERT JUMPDEST POP SWAP2 ADD PUSH1 0x20 ADD KECCAK256 SWAP1 JUMP JUMPDEST PUSH1 0x0 PUSH32 0xFFFFFFFF00000000000000000000000000000000000000000000000000000000 DUP3 AND PUSH32 0xA8FA568200000000000000000000000000000000000000000000000000000000 EQ DUP1 PUSH2 0x416 JUMPI POP PUSH2 0x416 DUP3 PUSH1 0x0 PUSH32 0xFFFFFFFF00000000000000000000000000000000000000000000000000000000 DUP3 AND PUSH32 0xBC1C58D100000000000000000000000000000000000000000000000000000000 EQ DUP1 PUSH2 0x416 JUMPI POP PUSH2 0x416 DUP3 PUSH1 0x0 PUSH32 0xFFFFFFFF00000000000000000000000000000000000000000000000000000000 DUP3 AND PUSH32 0x3B3B57DE00000000000000000000000000000000000000000000000000000000 EQ DUP1 PUSH2 0x1D8F JUMPI POP PUSH32 0xFFFFFFFF00000000000000000000000000000000000000000000000000000000 DUP3 AND PUSH32 0xF1CB7E0600000000000000000000000000000000000000000000000000000000 EQ JUMPDEST DUP1 PUSH2 0x416 JUMPI POP PUSH2 0x416 DUP3 PUSH1 0x0 PUSH32 0xFFFFFFFF00000000000000000000000000000000000000000000000000000000 DUP3 AND PUSH32 0x2203AB5600000000000000000000000000000000000000000000000000000000 EQ DUP1 PUSH2 0x416 JUMPI POP PUSH32 0x1FFC9A700000000000000000000000000000000000000000000000000000000 PUSH32 0xFFFFFFFF00000000000000000000000000000000000000000000000000000000 DUP4 AND EQ PUSH2 0x416 JUMP JUMPDEST PUSH1 0x40 MLOAD DUP1 PUSH1 0xE0 ADD PUSH1 0x40 MSTORE DUP1 PUSH1 0x60 DUP2 MSTORE PUSH1 0x20 ADD PUSH1 0x0 DUP2 MSTORE PUSH1 0x20 ADD PUSH1 0x0 PUSH2 0xFFFF AND DUP2 MSTORE PUSH1 0x20 ADD PUSH1 0x0 PUSH2 0xFFFF AND DUP2 MSTORE PUSH1 0x20 ADD PUSH1 0x0 PUSH4 0xFFFFFFFF AND DUP2 MSTORE PUSH1 0x20 ADD PUSH1 0x0 DUP2 MSTORE PUSH1 0x20 ADD PUSH1 0x0 DUP2 MSTORE POP SWAP1 JUMP JUMPDEST DUP3 DUP1 SLOAD PUSH1 0x1 DUP2 PUSH1 0x1 AND ISZERO PUSH2 0x100 MUL SUB AND PUSH1 0x2 SWAP1 DIV SWAP1 PUSH1 0x0 MSTORE PUSH1 0x20 PUSH1 0x0 KECCAK256 SWAP1 PUSH1 0x1F ADD PUSH1 0x20 SWAP1 DIV DUP2 ADD SWAP3 DUP3 PUSH1 0x1F LT PUSH2 0x1EDA JUMPI DUP3 DUP1 ADD PUSH32 0xFFFFFFFFFFFFFFFFFFFFFFFFFFFFFFFFFFFFFFFFFFFFFFFFFFFFFFFFFFFFFF00 DUP3 CALLDATALOAD AND OR DUP6 SSTORE PUSH2 0x1F07 JUMP JUMPDEST DUP3 DUP1 ADD PUSH1 0x1 ADD DUP6 SSTORE DUP3 ISZERO PUSH2 0x1F07 JUMPI SWAP2 DUP3 ADD JUMPDEST DUP3 DUP2 GT ISZERO PUSH2 0x1F07 JUMPI DUP3 CALLDATALOAD DUP3 SSTORE SWAP2 PUSH1 0x20 ADD SWAP2 SWAP1 PUSH1 0x1 ADD SWAP1 PUSH2 0x1EEC JUMP JUMPDEST POP PUSH2 0x1F13 SWAP3 SWAP2 POP PUSH2 0x1FC5 JUMP JUMPDEST POP SWAP1 JUMP JUMPDEST DUP3 DUP1 SLOAD PUSH1 0x1 DUP2 PUSH1 0x1 AND ISZERO PUSH2 0x100 MUL SUB AND PUSH1 0x2 SWAP1 DIV SWAP1 PUSH1 0x0 MSTORE PUSH1 0x20 PUSH1 0x0 KECCAK256 SWAP1 PUSH1 0x1F ADD PUSH1 0x20 SWAP1 DIV DUP2 ADD SWAP3 DUP3 PUSH1 0x1F LT PUSH2 0x1F58 JUMPI DUP1 MLOAD PUSH1 0xFF NOT AND DUP4 DUP1 ADD OR DUP6 SSTORE PUSH2 0x1F07 JUMP JUMPDEST DUP3 DUP1 ADD PUSH1 0x1 ADD DUP6 SSTORE DUP3 ISZERO PUSH2 0x1F07 JUMPI SWAP2 DUP3 ADD JUMPDEST DUP3 DUP2 GT ISZERO PUSH2 0x1F07 JUMPI DUP3 MLOAD DUP3 SSTORE SWAP2 PUSH1 0x20 ADD SWAP2 SWAP1 PUSH1 0x1 ADD SWAP1 PUSH2 0x1F6A JUMP JUMPDEST POP DUP1 SLOAD PUSH1 0x1 DUP2 PUSH1 0x1 AND ISZERO PUSH2 0x100 MUL SUB AND PUSH1 0x2 SWAP1 DIV PUSH1 0x0 DUP3 SSTORE DUP1 PUSH1 0x1F LT PUSH2 0x1FAB JUMPI POP PUSH2 0x1997 JUMP JUMPDEST PUSH1 0x1F ADD PUSH1 0x20 SWAP1 DIV SWAP1 PUSH1 0x0 MSTORE PUSH1 0x20 PUSH1 0x0 KECCAK256 SWAP1 DUP2 ADD SWAP1 PUSH2 0x1997 SWAP2 SWAP1 JUMPDEST PUSH2 0x1FDF SWAP2 SWAP1 JUMPDEST DUP1 DUP3 GT ISZERO PUSH2 0x1F13 JUMPI PUSH1 0x0 DUP2 SSTORE PUSH1 0x1 ADD PUSH2 0x1FCB JUMP JUMPDEST SWAP1 JUMP JUMPDEST DUP1 CALLDATALOAD PUSH2 0x9F1 DUP2 PUSH2 0x295D JUMP JUMPDEST DUP1 MLOAD PUSH2 0x9F1 DUP2 PUSH2 0x295D JUMP JUMPDEST PUSH1 0x0 DUP1 DUP4 PUSH1 0x1F DUP5 ADD SLT PUSH2 0x200A JUMPI PUSH1 0x0 DUP1 REVERT JUMPDEST POP DUP2 CALLDATALOAD PUSH8 0xFFFFFFFFFFFFFFFF DUP2 GT ISZERO PUSH2 0x2022 JUMPI PUSH1 0x0 DUP1 REVERT JUMPDEST PUSH1 0x20 DUP4 ADD SWAP2 POP DUP4 PUSH1 0x20 DUP3 MUL DUP4 ADD GT ISZERO PUSH2 0xB0F JUMPI PUSH1 0x0 DUP1 REVERT JUMPDEST DUP1 CALLDATALOAD PUSH2 0x9F1 DUP2 PUSH2 0x2971 JUMP JUMPDEST DUP1 CALLDATALOAD PUSH2 0x9F1 DUP2 PUSH2 0x297A JUMP JUMPDEST DUP1 CALLDATALOAD PUSH2 0x9F1 DUP2 PUSH2 0x2983 JUMP JUMPDEST PUSH1 0x0 DUP1 DUP4 PUSH1 0x1F DUP5 ADD SLT PUSH2 0x206D JUMPI PUSH1 0x0 DUP1 REVERT JUMPDEST POP DUP2 CALLDATALOAD PUSH8 0xFFFFFFFFFFFFFFFF DUP2 GT ISZERO PUSH2 0x2085 JUMPI PUSH1 0x0 DUP1 REVERT JUMPDEST PUSH1 0x20 DUP4 ADD SWAP2 POP DUP4 PUSH1 0x1 DUP3 MUL DUP4 ADD GT ISZERO PUSH2 0xB0F JUMPI PUSH1 0x0 DUP1 REVERT JUMPDEST PUSH1 0x0 DUP3 PUSH1 0x1F DUP4 ADD SLT PUSH2 0x20AE JUMPI PUSH1 0x0 DUP1 REVERT JUMPDEST DUP2 CALLDATALOAD PUSH2 0x20C1 PUSH2 0x20BC DUP3 PUSH2 0x283A JUMP JUMPDEST PUSH2 0x2813 JUMP JUMPDEST SWAP2 POP DUP1 DUP3 MSTORE PUSH1 0x20 DUP4 ADD PUSH1 0x20 DUP4 ADD DUP6 DUP4 DUP4 ADD GT ISZERO PUSH2 0x20DD JUMPI PUSH1 0x0 DUP1 REVERT JUMPDEST PUSH2 0x20E8 DUP4 DUP3 DUP5 PUSH2 0x28F9 JUMP JUMPDEST POP POP POP SWAP3 SWAP2 POP POP JUMP JUMPDEST DUP1 CALLDATALOAD PUSH2 0x9F1 DUP2 PUSH2 0x298C JUMP JUMPDEST PUSH1 0x0 PUSH1 0x20 DUP3 DUP5 SUB SLT ISZERO PUSH2 0x210E JUMPI PUSH1 0x0 DUP1 REVERT JUMPDEST PUSH1 0x0 PUSH2 0x211A DUP5 DUP5 PUSH2 0x1FED JUMP JUMPDEST SWAP5 SWAP4 POP POP POP POP JUMP JUMPDEST PUSH1 0x0 DUP1 PUSH1 0x20 DUP4 DUP6 SUB SLT ISZERO PUSH2 0x2135 JUMPI PUSH1 0x0 DUP1 REVERT JUMPDEST DUP3 CALLDATALOAD PUSH8 0xFFFFFFFFFFFFFFFF DUP2 GT ISZERO PUSH2 0x214C JUMPI PUSH1 0x0 DUP1 REVERT JUMPDEST PUSH2 0x2158 DUP6 DUP3 DUP7 ADD PUSH2 0x1FF8 JUMP JUMPDEST SWAP3 POP SWAP3 POP POP SWAP3 POP SWAP3 SWAP1 POP JUMP JUMPDEST PUSH1 0x0 PUSH1 0x20 DUP3 DUP5 SUB SLT ISZERO PUSH2 0x2176 JUMPI PUSH1 0x0 DUP1 REVERT JUMPDEST PUSH1 0x0 PUSH2 0x211A DUP5 DUP5 PUSH2 0x2045 JUMP JUMPDEST PUSH1 0x0 DUP1 PUSH1 0x40 DUP4 DUP6 SUB SLT ISZERO PUSH2 0x2195 JUMPI PUSH1 0x0 DUP1 REVERT JUMPDEST PUSH1 0x0 PUSH2 0x21A1 DUP6 DUP6 PUSH2 0x2045 JUMP JUMPDEST SWAP3 POP POP PUSH1 0x20 PUSH2 0x21B2 DUP6 DUP3 DUP7 ADD PUSH2 0x1FE2 JUMP JUMPDEST SWAP2 POP POP SWAP3 POP SWAP3 SWAP1 POP JUMP JUMPDEST PUSH1 0x0 DUP1 PUSH1 0x0 PUSH1 0x60 DUP5 DUP7 SUB SLT ISZERO PUSH2 0x21D1 JUMPI PUSH1 0x0 DUP1 REVERT JUMPDEST PUSH1 0x0 PUSH2 0x21DD DUP7 DUP7 PUSH2 0x2045 JUMP JUMPDEST SWAP4 POP POP PUSH1 0x20 PUSH2 0x21EE DUP7 DUP3 DUP8 ADD PUSH2 0x1FE2 JUMP JUMPDEST SWAP3 POP POP PUSH1 0x40 PUSH2 0x21FF DUP7 DUP3 DUP8 ADD PUSH2 0x1FE2 JUMP JUMPDEST SWAP2 POP POP SWAP3 POP SWAP3 POP SWAP3 JUMP JUMPDEST PUSH1 0x0 DUP1 PUSH1 0x0 PUSH1 0x60 DUP5 DUP7 SUB SLT ISZERO PUSH2 0x221E JUMPI PUSH1 0x0 DUP1 REVERT JUMPDEST PUSH1 0x0 PUSH2 0x222A DUP7 DUP7 PUSH2 0x2045 JUMP JUMPDEST SWAP4 POP POP PUSH1 0x20 PUSH2 0x223B DUP7 DUP3 DUP8 ADD PUSH2 0x1FE2 JUMP JUMPDEST SWAP3 POP POP PUSH1 0x40 PUSH2 0x21FF DUP7 DUP3 DUP8 ADD PUSH2 0x203A JUMP JUMPDEST PUSH1 0x0 DUP1 PUSH1 0x40 DUP4 DUP6 SUB SLT ISZERO PUSH2 0x225F JUMPI PUSH1 0x0 DUP1 REVERT JUMPDEST PUSH1 0x0 PUSH2 0x226B DUP6 DUP6 PUSH2 0x2045 JUMP JUMPDEST SWAP3 POP POP PUSH1 0x20 PUSH2 0x21B2 DUP6 DUP3 DUP7 ADD PUSH2 0x2045 JUMP JUMPDEST PUSH1 0x0 DUP1 PUSH1 0x0 PUSH1 0x60 DUP5 DUP7 SUB SLT ISZERO PUSH2 0x2291 JUMPI PUSH1 0x0 DUP1 REVERT JUMPDEST PUSH1 0x0 PUSH2 0x229D DUP7 DUP7 PUSH2 0x2045 JUMP JUMPDEST SWAP4 POP POP PUSH1 0x20 PUSH2 0x22AE DUP7 DUP3 DUP8 ADD PUSH2 0x2045 JUMP JUMPDEST SWAP3 POP POP PUSH1 0x40 PUSH2 0x21FF DUP7 DUP3 DUP8 ADD PUSH2 0x2045 JUMP JUMPDEST PUSH1 0x0 DUP1 PUSH1 0x0 PUSH1 0x60 DUP5 DUP7 SUB SLT ISZERO PUSH2 0x22D4 JUMPI PUSH1 0x0 DUP1 REVERT JUMPDEST PUSH1 0x0 PUSH2 0x22E0 DUP7 DUP7 PUSH2 0x2045 JUMP JUMPDEST SWAP4 POP POP PUSH1 0x20 PUSH2 0x22F1 DUP7 DUP3 DUP8 ADD PUSH2 0x2045 JUMP JUMPDEST SWAP3 POP POP PUSH1 0x40 PUSH2 0x21FF DUP7 DUP3 DUP8 ADD PUSH2 0x20F1 JUMP JUMPDEST PUSH1 0x0 DUP1 PUSH1 0x40 DUP4 DUP6 SUB SLT ISZERO PUSH2 0x2315 JUMPI PUSH1 0x0 DUP1 REVERT JUMPDEST PUSH1 0x0 PUSH2 0x2321 DUP6 DUP6 PUSH2 0x2045 JUMP JUMPDEST SWAP3 POP POP PUSH1 0x20 PUSH2 0x21B2 DUP6 DUP3 DUP7 ADD PUSH2 0x2050 JUMP JUMPDEST PUSH1 0x0 DUP1 PUSH1 0x0 PUSH1 0x60 DUP5 DUP7 SUB SLT ISZERO PUSH2 0x2347 JUMPI PUSH1 0x0 DUP1 REVERT JUMPDEST PUSH1 0x0 PUSH2 0x2353 DUP7 DUP7 PUSH2 0x2045 JUMP JUMPDEST SWAP4 POP POP PUSH1 0x20 PUSH2 0x21EE DUP7 DUP3 DUP8 ADD PUSH2 0x2050 JUMP JUMPDEST PUSH1 0x0 DUP1 PUSH1 0x0 PUSH1 0x40 DUP5 DUP7 SUB SLT ISZERO PUSH2 0x2379 JUMPI PUSH1 0x0 DUP1 REVERT JUMPDEST PUSH1 0x0 PUSH2 0x2385 DUP7 DUP7 PUSH2 0x2045 JUMP JUMPDEST SWAP4 POP POP PUSH1 0x20 DUP5 ADD CALLDATALOAD PUSH8 0xFFFFFFFFFFFFFFFF DUP2 GT ISZERO PUSH2 0x23A2 JUMPI PUSH1 0x0 DUP1 REVERT JUMPDEST PUSH2 0x23AE DUP7 DUP3 DUP8 ADD PUSH2 0x205B JUMP JUMPDEST SWAP3 POP SWAP3 POP POP SWAP3 POP SWAP3 POP SWAP3 JUMP JUMPDEST PUSH1 0x0 DUP1 PUSH1 0x0 DUP1 PUSH1 0x0 PUSH1 0x60 DUP7 DUP9 SUB SLT ISZERO PUSH2 0x23D2 JUMPI PUSH1 0x0 DUP1 REVERT JUMPDEST PUSH1 0x0 PUSH2 0x23DE DUP9 DUP9 PUSH2 0x2045 JUMP JUMPDEST SWAP6 POP POP PUSH1 0x20 DUP7 ADD CALLDATALOAD PUSH8 0xFFFFFFFFFFFFFFFF DUP2 GT ISZERO PUSH2 0x23FB JUMPI PUSH1 0x0 DUP1 REVERT JUMPDEST PUSH2 0x2407 DUP9 DUP3 DUP10 ADD PUSH2 0x205B JUMP JUMPDEST SWAP5 POP SWAP5 POP POP PUSH1 0x40 DUP7 ADD CALLDATALOAD PUSH8 0xFFFFFFFFFFFFFFFF DUP2 GT ISZERO PUSH2 0x2426 JUMPI PUSH1 0x0 DUP1 REVERT JUMPDEST PUSH2 0x2432 DUP9 DUP3 DUP10 ADD PUSH2 0x205B JUMP JUMPDEST SWAP3 POP SWAP3 POP POP SWAP3 SWAP6 POP SWAP3 SWAP6 SWAP1 SWAP4 POP JUMP JUMPDEST PUSH1 0x0 DUP1 PUSH1 0x0 DUP1 PUSH1 0x60 DUP6 DUP8 SUB SLT ISZERO PUSH2 0x2457 JUMPI PUSH1 0x0 DUP1 REVERT JUMPDEST PUSH1 0x0 PUSH2 0x2463 DUP8 DUP8 PUSH2 0x2045 JUMP JUMPDEST SWAP5 POP POP PUSH1 0x20 PUSH2 0x2474 DUP8 DUP3 DUP9 ADD PUSH2 0x2045 JUMP JUMPDEST SWAP4 POP POP PUSH1 0x40 DUP6 ADD CALLDATALOAD PUSH8 0xFFFFFFFFFFFFFFFF DUP2 GT ISZERO PUSH2 0x2491 JUMPI PUSH1 0x0 DUP1 REVERT JUMPDEST PUSH2 0x249D DUP8 DUP3 DUP9 ADD PUSH2 0x205B JUMP JUMPDEST SWAP6 SWAP9 SWAP5 SWAP8 POP SWAP6 POP POP POP POP JUMP JUMPDEST PUSH1 0x0 DUP1 PUSH1 0x0 PUSH1 0x60 DUP5 DUP7 SUB SLT ISZERO PUSH2 0x24BE JUMPI PUSH1 0x0 DUP1 REVERT JUMPDEST PUSH1 0x0 PUSH2 0x24CA DUP7 DUP7 PUSH2 0x2045 JUMP JUMPDEST SWAP4 POP POP PUSH1 0x20 PUSH2 0x24DB DUP7 DUP3 DUP8 ADD PUSH2 0x2045 JUMP JUMPDEST SWAP3 POP POP PUSH1 0x40 DUP5 ADD CALLDATALOAD PUSH8 0xFFFFFFFFFFFFFFFF DUP2 GT ISZERO PUSH2 0x24F8 JUMPI PUSH1 0x0 DUP1 REVERT JUMPDEST PUSH2 0x21FF DUP7 DUP3 DUP8 ADD PUSH2 0x209D JUMP JUMPDEST PUSH1 0x0 PUSH1 0x20 DUP3 DUP5 SUB SLT ISZERO PUSH2 0x2516 JUMPI PUSH1 0x0 DUP1 REVERT JUMPDEST PUSH1 0x0 PUSH2 0x211A DUP5 DUP5 PUSH2 0x2050 JUMP JUMPDEST PUSH1 0x0 PUSH2 0xC23 DUP4 DUP4 PUSH2 0x261A JUMP JUMPDEST PUSH2 0x2537 DUP2 PUSH2 0x28E8 JUMP JUMPDEST DUP3 MSTORE POP POP JUMP JUMPDEST PUSH2 0x2537 DUP2 PUSH2 0x2893 JUMP JUMPDEST PUSH1 0x0 PUSH2 0x2551 DUP3 PUSH2 0x2886 JUMP JUMPDEST PUSH2 0x255B DUP2 DUP6 PUSH2 0x288A JUMP JUMPDEST SWAP4 POP DUP4 PUSH1 0x20 DUP3 MUL DUP6 ADD PUSH2 0x256D DUP6 PUSH2 0x2880 JUMP JUMPDEST DUP1 PUSH1 0x0 JUMPDEST DUP6 DUP2 LT ISZERO PUSH2 0x25A7 JUMPI DUP5 DUP5 SUB DUP10 MSTORE DUP2 MLOAD PUSH2 0x258A DUP6 DUP3 PUSH2 0x2522 JUMP JUMPDEST SWAP5 POP PUSH2 0x2595 DUP4 PUSH2 0x2880 JUMP JUMPDEST PUSH1 0x20 SWAP11 SWAP1 SWAP11 ADD SWAP10 SWAP3 POP POP PUSH1 0x1 ADD PUSH2 0x2571 JUMP JUMPDEST POP SWAP2 SWAP8 SWAP7 POP POP POP POP POP POP POP JUMP JUMPDEST PUSH2 0x2537 DUP2 PUSH2 0x289E JUMP JUMPDEST PUSH2 0x2537 DUP2 PUSH2 0x1FDF JUMP JUMPDEST PUSH2 0x2537 DUP2 PUSH2 0x28A3 JUMP JUMPDEST PUSH1 0x0 PUSH2 0x25DB DUP4 DUP6 PUSH2 0x288A JUMP JUMPDEST SWAP4 POP PUSH2 0x25E8 DUP4 DUP6 DUP5 PUSH2 0x28F9 JUMP JUMPDEST PUSH2 0x25F1 DUP4 PUSH2 0x2935 JUMP JUMPDEST SWAP1 SWAP4 ADD SWAP4 SWAP3 POP POP POP JUMP JUMPDEST PUSH1 0x0 PUSH2 0x2607 DUP4 DUP6 PUSH2 0x419 JUMP JUMPDEST SWAP4 POP PUSH2 0x2614 DUP4 DUP6 DUP5 PUSH2 0x28F9 JUMP JUMPDEST POP POP ADD SWAP1 JUMP JUMPDEST PUSH1 0x0 PUSH2 0x2625 DUP3 PUSH2 0x2886 JUMP JUMPDEST PUSH2 0x262F DUP2 DUP6 PUSH2 0x288A JUMP JUMPDEST SWAP4 POP PUSH2 0x263F DUP2 DUP6 PUSH1 0x20 DUP7 ADD PUSH2 0x2905 JUMP JUMPDEST PUSH2 0x25F1 DUP2 PUSH2 0x2935 JUMP JUMPDEST PUSH1 0x0 PUSH2 0x2653 DUP3 PUSH2 0x2886 JUMP JUMPDEST PUSH2 0x265D DUP2 DUP6 PUSH2 0x419 JUMP JUMPDEST SWAP4 POP PUSH2 0x266D DUP2 DUP6 PUSH1 0x20 DUP7 ADD PUSH2 0x2905 JUMP JUMPDEST SWAP3 SWAP1 SWAP3 ADD SWAP3 SWAP2 POP POP JUMP JUMPDEST PUSH1 0x0 PUSH2 0x2684 PUSH1 0x24 DUP4 PUSH2 0x419 JUMP JUMPDEST PUSH32 0x696E74657266616365496D706C656D656E74657228627974657333322C627974 DUP2 MSTORE PUSH32 0x6573342900000000000000000000000000000000000000000000000000000000 PUSH1 0x20 DUP3 ADD MSTORE PUSH1 0x24 ADD SWAP3 SWAP2 POP POP JUMP JUMPDEST PUSH2 0x2537 DUP2 PUSH2 0x28C8 JUMP JUMPDEST PUSH1 0x0 PUSH2 0x211A DUP3 DUP5 DUP7 PUSH2 0x25FB JUMP JUMPDEST PUSH1 0x0 PUSH2 0xC23 DUP3 DUP5 PUSH2 0x2648 JUMP JUMPDEST PUSH1 0x0 PUSH2 0x9F1 DUP3 PUSH2 0x2677 JUMP JUMPDEST PUSH1 0x20 DUP2 ADD PUSH2 0x9F1 DUP3 DUP5 PUSH2 0x253D JUMP JUMPDEST PUSH1 0x20 DUP2 ADD PUSH2 0x9F1 DUP3 DUP5 PUSH2 0x252E JUMP JUMPDEST PUSH1 0x20 DUP1 DUP3 MSTORE DUP2 ADD PUSH2 0xC23 DUP2 DUP5 PUSH2 0x2546 JUMP JUMPDEST PUSH1 0x20 DUP2 ADD PUSH2 0x9F1 DUP3 DUP5 PUSH2 0x25B4 JUMP JUMPDEST PUSH1 0x20 DUP2 ADD PUSH2 0x9F1 DUP3 DUP5 PUSH2 0x25BD JUMP JUMPDEST PUSH1 0x40 DUP2 ADD PUSH2 0x275A DUP3 DUP6 PUSH2 0x25BD JUMP JUMPDEST PUSH2 0xC23 PUSH1 0x20 DUP4 ADD DUP5 PUSH2 0x25BD JUMP JUMPDEST PUSH1 0x20 DUP2 ADD PUSH2 0x9F1 DUP3 DUP5 PUSH2 0x25C6 JUMP JUMPDEST PUSH1 0x20 DUP1 DUP3 MSTORE DUP2 ADD PUSH2 0x211A DUP2 DUP5 DUP7 PUSH2 0x25CF JUMP JUMPDEST PUSH1 0x20 DUP1 DUP3 MSTORE DUP2 ADD PUSH2 0xC23 DUP2 DUP5 PUSH2 0x261A JUMP JUMPDEST PUSH1 0x40 DUP1 DUP3 MSTORE DUP2 ADD PUSH2 0x27A9 DUP2 DUP6 PUSH2 0x261A JUMP JUMPDEST SWAP1 POP PUSH2 0xC23 PUSH1 0x20 DUP4 ADD DUP5 PUSH2 0x26D6 JUMP JUMPDEST PUSH1 0x60 DUP1 DUP3 MSTORE DUP2 ADD PUSH2 0x27C9 DUP2 DUP7 PUSH2 0x261A JUMP JUMPDEST SWAP1 POP PUSH2 0x27D8 PUSH1 0x20 DUP4 ADD DUP6 PUSH2 0x26D6 JUMP JUMPDEST DUP2 DUP2 SUB PUSH1 0x40 DUP4 ADD MSTORE PUSH2 0x27EA DUP2 DUP5 PUSH2 0x261A JUMP JUMPDEST SWAP6 SWAP5 POP POP POP POP POP JUMP JUMPDEST PUSH1 0x40 DUP2 ADD PUSH2 0x2801 DUP3 DUP6 PUSH2 0x25BD JUMP JUMPDEST DUP2 DUP2 SUB PUSH1 0x20 DUP4 ADD MSTORE PUSH2 0x211A DUP2 DUP5 PUSH2 0x261A JUMP JUMPDEST PUSH1 0x40 MLOAD DUP2 DUP2 ADD PUSH8 0xFFFFFFFFFFFFFFFF DUP2 GT DUP3 DUP3 LT OR ISZERO PUSH2 0x2832 JUMPI PUSH1 0x0 DUP1 REVERT JUMPDEST PUSH1 0x40 MSTORE SWAP2 SWAP1 POP JUMP JUMPDEST PUSH1 0x0 PUSH8 0xFFFFFFFFFFFFFFFF DUP3 GT ISZERO PUSH2 0x2851 JUMPI PUSH1 0x0 DUP1 REVERT JUMPDEST POP PUSH1 0x20 PUSH1 0x1F SWAP2 SWAP1 SWAP2 ADD PUSH32 0xFFFFFFFFFFFFFFFFFFFFFFFFFFFFFFFFFFFFFFFFFFFFFFFFFFFFFFFFFFFFFFE0 AND ADD SWAP1 JUMP JUMPDEST PUSH1 0x20 ADD SWAP1 JUMP JUMPDEST MLOAD SWAP1 JUMP JUMPDEST SWAP1 DUP2 MSTORE PUSH1 0x20 ADD SWAP1 JUMP JUMPDEST PUSH1 0x0 PUSH2 0x416 DUP3 PUSH2 0x28CF JUMP JUMPDEST ISZERO ISZERO SWAP1 JUMP JUMPDEST PUSH32 0xFFFFFFFF00000000000000000000000000000000000000000000000000000000 AND SWAP1 JUMP JUMPDEST PUSH2 0xFFFF AND SWAP1 JUMP JUMPDEST PUSH20 0xFFFFFFFFFFFFFFFFFFFFFFFFFFFFFFFFFFFFFFFF AND SWAP1 JUMP JUMPDEST PUSH1 0x0 PUSH2 0x416 DUP3 PUSH1 0x0 PUSH2 0x416 DUP3 PUSH2 0x2893 JUMP JUMPDEST DUP3 DUP2 DUP4 CALLDATACOPY POP PUSH1 0x0 SWAP2 ADD MSTORE JUMP JUMPDEST PUSH1 0x0 JUMPDEST DUP4 DUP2 LT ISZERO PUSH2 0x2920 JUMPI DUP2 DUP2 ADD MLOAD DUP4 DUP3 ADD MSTORE PUSH1 0x20 ADD PUSH2 0x2908 JUMP JUMPDEST DUP4 DUP2 GT ISZERO PUSH2 0x292F JUMPI PUSH1 0x0 DUP5 DUP5 ADD MSTORE JUMPDEST POP POP POP POP JUMP JUMPDEST PUSH1 0x1F ADD PUSH32 0xFFFFFFFFFFFFFFFFFFFFFFFFFFFFFFFFFFFFFFFFFFFFFFFFFFFFFFFFFFFFFFE0 AND SWAP1 JUMP JUMPDEST PUSH2 0x2966 DUP2 PUSH2 0x2893 JUMP JUMPDEST DUP2 EQ PUSH2 0x1997 JUMPI PUSH1 0x0 DUP1 REVERT JUMPDEST PUSH2 0x2966 DUP2 PUSH2 0x289E JUMP JUMPDEST PUSH2 0x2966 DUP2 PUSH2 0x1FDF JUMP JUMPDEST PUSH2 0x2966 DUP2 PUSH2 0x28A3 JUMP JUMPDEST PUSH2 0x2966 DUP2 PUSH2 0x28C8 JUMP INVALID LOG3 PUSH6 0x627A7A723158 KECCAK256 DUP3 SWAP3 PUSH29 0x55ED80CD2C2B4AF3ECCA0340C755F0257FADBDD76A4C4B6458F1C8EEFC PUSH13 0x6578706572696D656E74616CF5 PUSH5 0x736F6C6343 STOP SDIV GT STOP BLOCKHASH "
        },
        "gasEstimates": {
          "creation": {
            "codeDepositCost": "2142400",
            "executionCost": "infinite",
            "totalCost": "infinite"
          },
          "external": {
            "ABI(bytes32,uint256)": "infinite",
            "addr(bytes32)": "infinite",
            "addr(bytes32,uint256)": "infinite",
            "authorisations(bytes32,address,address)": "infinite",
            "clearDNSZone(bytes32)": "infinite",
            "contenthash(bytes32)": "infinite",
            "dnsRecord(bytes32,bytes32,uint16)": "infinite",
            "hasDNSRecords(bytes32,bytes32)": "infinite",
            "interfaceImplementer(bytes32,bytes4)": "infinite",
            "multicall(bytes[])": "infinite",
            "name(bytes32)": "infinite",
            "pubkey(bytes32)": "infinite",
            "setABI(bytes32,uint256,bytes)": "infinite",
            "setAddr(bytes32,address)": "infinite",
            "setAddr(bytes32,uint256,bytes)": "infinite",
            "setAuthorisation(bytes32,address,bool)": "infinite",
            "setContenthash(bytes32,bytes)": "infinite",
            "setDNSRecords(bytes32,bytes)": "infinite",
            "setInterface(bytes32,bytes4,address)": "infinite",
            "setName(bytes32,string)": "infinite",
            "setPubkey(bytes32,bytes32,bytes32)": "infinite",
            "setText(bytes32,string,string)": "infinite",
            "supportsInterface(bytes4)": "infinite",
            "text(bytes32,string)": "infinite"
          },
          "internal": {
            "isAuthorised(bytes32)": "infinite"
          }
        },
        "methodIdentifiers": {
          "ABI(bytes32,uint256)": "2203ab56",
          "addr(bytes32)": "3b3b57de",
          "addr(bytes32,uint256)": "f1cb7e06",
          "authorisations(bytes32,address,address)": "f86bc879",
          "clearDNSZone(bytes32)": "ad5780af",
          "contenthash(bytes32)": "bc1c58d1",
          "dnsRecord(bytes32,bytes32,uint16)": "a8fa5682",
          "hasDNSRecords(bytes32,bytes32)": "4cbf6ba4",
          "interfaceImplementer(bytes32,bytes4)": "124a319c",
          "multicall(bytes[])": "ac9650d8",
          "name(bytes32)": "691f3431",
          "pubkey(bytes32)": "c8690233",
          "setABI(bytes32,uint256,bytes)": "623195b0",
          "setAddr(bytes32,address)": "d5fa2b00",
          "setAddr(bytes32,uint256,bytes)": "8b95dd71",
          "setAuthorisation(bytes32,address,bool)": "3e9ce794",
          "setContenthash(bytes32,bytes)": "304e6ade",
          "setDNSRecords(bytes32,bytes)": "0af179d7",
          "setInterface(bytes32,bytes4,address)": "e59d895d",
          "setName(bytes32,string)": "77372213",
          "setPubkey(bytes32,bytes32,bytes32)": "29cd62ea",
          "setText(bytes32,string,string)": "10f13a8c",
          "supportsInterface(bytes4)": "01ffc9a7",
          "text(bytes32,string)": "59d1d43c"
        }
      },
      "storageLayout": {
        "storage": [
          {
            "astId": 165,
            "contract": "contracts/legacy/PublicResolver_mainnet_9412610.sol:PublicResolver_mainnet_9412610",
            "label": "abis",
            "offset": 0,
            "slot": "0",
            "type": "t_mapping(t_bytes32,t_mapping(t_uint256,t_bytes_storage))"
          },
          {
            "astId": 313,
            "contract": "contracts/legacy/PublicResolver_mainnet_9412610.sol:PublicResolver_mainnet_9412610",
            "label": "_addresses",
            "offset": 0,
            "slot": "1",
            "type": "t_mapping(t_bytes32,t_mapping(t_uint256,t_bytes_storage))"
          },
          {
            "astId": 454,
            "contract": "contracts/legacy/PublicResolver_mainnet_9412610.sol:PublicResolver_mainnet_9412610",
            "label": "hashes",
            "offset": 0,
            "slot": "2",
            "type": "t_mapping(t_bytes32,t_bytes_storage)"
          },
          {
            "astId": 2351,
            "contract": "contracts/legacy/PublicResolver_mainnet_9412610.sol:PublicResolver_mainnet_9412610",
            "label": "versions",
            "offset": 0,
            "slot": "3",
            "type": "t_mapping(t_bytes32,t_uint256)"
          },
          {
            "astId": 2361,
            "contract": "contracts/legacy/PublicResolver_mainnet_9412610.sol:PublicResolver_mainnet_9412610",
            "label": "records",
            "offset": 0,
            "slot": "4",
            "type": "t_mapping(t_bytes32,t_mapping(t_uint256,t_mapping(t_bytes32,t_mapping(t_uint16,t_bytes_storage))))"
          },
          {
            "astId": 2369,
            "contract": "contracts/legacy/PublicResolver_mainnet_9412610.sol:PublicResolver_mainnet_9412610",
            "label": "nameEntriesCount",
            "offset": 0,
            "slot": "5",
            "type": "t_mapping(t_bytes32,t_mapping(t_uint256,t_mapping(t_bytes32,t_uint16)))"
          },
          {
            "astId": 2771,
            "contract": "contracts/legacy/PublicResolver_mainnet_9412610.sol:PublicResolver_mainnet_9412610",
            "label": "interfaces",
            "offset": 0,
            "slot": "6",
            "type": "t_mapping(t_bytes32,t_mapping(t_bytes4,t_address))"
          },
          {
            "astId": 2942,
            "contract": "contracts/legacy/PublicResolver_mainnet_9412610.sol:PublicResolver_mainnet_9412610",
            "label": "names",
            "offset": 0,
            "slot": "7",
            "type": "t_mapping(t_bytes32,t_string_storage)"
          },
          {
            "astId": 3017,
            "contract": "contracts/legacy/PublicResolver_mainnet_9412610.sol:PublicResolver_mainnet_9412610",
            "label": "pubkeys",
            "offset": 0,
            "slot": "8",
            "type": "t_mapping(t_bytes32,t_struct(PublicKey)3013_storage)"
          },
          {
            "astId": 3103,
            "contract": "contracts/legacy/PublicResolver_mainnet_9412610.sol:PublicResolver_mainnet_9412610",
            "label": "texts",
            "offset": 0,
            "slot": "9",
            "type": "t_mapping(t_bytes32,t_mapping(t_string_memory,t_string_storage))"
          },
          {
            "astId": 3184,
            "contract": "contracts/legacy/PublicResolver_mainnet_9412610.sol:PublicResolver_mainnet_9412610",
            "label": "ens",
            "offset": 0,
            "slot": "10",
            "type": "t_contract(ENS)79"
          },
          {
            "astId": 3192,
            "contract": "contracts/legacy/PublicResolver_mainnet_9412610.sol:PublicResolver_mainnet_9412610",
            "label": "authorisations",
            "offset": 0,
            "slot": "11",
            "type": "t_mapping(t_bytes32,t_mapping(t_address,t_mapping(t_address,t_bool)))"
          }
        ],
        "types": {
          "t_address": {
            "encoding": "inplace",
            "label": "address",
            "numberOfBytes": "20"
          },
          "t_bool": {
            "encoding": "inplace",
            "label": "bool",
            "numberOfBytes": "1"
          },
          "t_bytes32": {
            "encoding": "inplace",
            "label": "bytes32",
            "numberOfBytes": "32"
          },
          "t_bytes4": {
            "encoding": "inplace",
            "label": "bytes4",
            "numberOfBytes": "4"
          },
          "t_bytes_storage": {
            "encoding": "bytes",
            "label": "bytes",
            "numberOfBytes": "32"
          },
          "t_contract(ENS)79": {
            "encoding": "inplace",
            "label": "contract ENS",
            "numberOfBytes": "20"
          },
          "t_mapping(t_address,t_bool)": {
            "encoding": "mapping",
            "key": "t_address",
            "label": "mapping(address => bool)",
            "numberOfBytes": "32",
            "value": "t_bool"
          },
          "t_mapping(t_address,t_mapping(t_address,t_bool))": {
            "encoding": "mapping",
            "key": "t_address",
            "label": "mapping(address => mapping(address => bool))",
            "numberOfBytes": "32",
            "value": "t_mapping(t_address,t_bool)"
          },
          "t_mapping(t_bytes32,t_bytes_storage)": {
            "encoding": "mapping",
            "key": "t_bytes32",
            "label": "mapping(bytes32 => bytes)",
            "numberOfBytes": "32",
            "value": "t_bytes_storage"
          },
          "t_mapping(t_bytes32,t_mapping(t_address,t_mapping(t_address,t_bool)))": {
            "encoding": "mapping",
            "key": "t_bytes32",
            "label": "mapping(bytes32 => mapping(address => mapping(address => bool)))",
            "numberOfBytes": "32",
            "value": "t_mapping(t_address,t_mapping(t_address,t_bool))"
          },
          "t_mapping(t_bytes32,t_mapping(t_bytes4,t_address))": {
            "encoding": "mapping",
            "key": "t_bytes32",
            "label": "mapping(bytes32 => mapping(bytes4 => address))",
            "numberOfBytes": "32",
            "value": "t_mapping(t_bytes4,t_address)"
          },
          "t_mapping(t_bytes32,t_mapping(t_string_memory,t_string_storage))": {
            "encoding": "mapping",
            "key": "t_bytes32",
            "label": "mapping(bytes32 => mapping(string => string))",
            "numberOfBytes": "32",
            "value": "t_mapping(t_string_memory,t_string_storage)"
          },
          "t_mapping(t_bytes32,t_mapping(t_uint16,t_bytes_storage))": {
            "encoding": "mapping",
            "key": "t_bytes32",
            "label": "mapping(bytes32 => mapping(uint16 => bytes))",
            "numberOfBytes": "32",
            "value": "t_mapping(t_uint16,t_bytes_storage)"
          },
          "t_mapping(t_bytes32,t_mapping(t_uint256,t_bytes_storage))": {
            "encoding": "mapping",
            "key": "t_bytes32",
            "label": "mapping(bytes32 => mapping(uint256 => bytes))",
            "numberOfBytes": "32",
            "value": "t_mapping(t_uint256,t_bytes_storage)"
          },
          "t_mapping(t_bytes32,t_mapping(t_uint256,t_mapping(t_bytes32,t_mapping(t_uint16,t_bytes_storage))))": {
            "encoding": "mapping",
            "key": "t_bytes32",
            "label": "mapping(bytes32 => mapping(uint256 => mapping(bytes32 => mapping(uint16 => bytes))))",
            "numberOfBytes": "32",
            "value": "t_mapping(t_uint256,t_mapping(t_bytes32,t_mapping(t_uint16,t_bytes_storage)))"
          },
          "t_mapping(t_bytes32,t_mapping(t_uint256,t_mapping(t_bytes32,t_uint16)))": {
            "encoding": "mapping",
            "key": "t_bytes32",
            "label": "mapping(bytes32 => mapping(uint256 => mapping(bytes32 => uint16)))",
            "numberOfBytes": "32",
            "value": "t_mapping(t_uint256,t_mapping(t_bytes32,t_uint16))"
          },
          "t_mapping(t_bytes32,t_string_storage)": {
            "encoding": "mapping",
            "key": "t_bytes32",
            "label": "mapping(bytes32 => string)",
            "numberOfBytes": "32",
            "value": "t_string_storage"
          },
          "t_mapping(t_bytes32,t_struct(PublicKey)3013_storage)": {
            "encoding": "mapping",
            "key": "t_bytes32",
            "label": "mapping(bytes32 => struct PubkeyResolver.PublicKey)",
            "numberOfBytes": "32",
            "value": "t_struct(PublicKey)3013_storage"
          },
          "t_mapping(t_bytes32,t_uint16)": {
            "encoding": "mapping",
            "key": "t_bytes32",
            "label": "mapping(bytes32 => uint16)",
            "numberOfBytes": "32",
            "value": "t_uint16"
          },
          "t_mapping(t_bytes32,t_uint256)": {
            "encoding": "mapping",
            "key": "t_bytes32",
            "label": "mapping(bytes32 => uint256)",
            "numberOfBytes": "32",
            "value": "t_uint256"
          },
          "t_mapping(t_bytes4,t_address)": {
            "encoding": "mapping",
            "key": "t_bytes4",
            "label": "mapping(bytes4 => address)",
            "numberOfBytes": "32",
            "value": "t_address"
          },
          "t_mapping(t_string_memory,t_string_storage)": {
            "encoding": "mapping",
            "key": "t_string_memory",
            "label": "mapping(string => string)",
            "numberOfBytes": "32",
            "value": "t_string_storage"
          },
          "t_mapping(t_uint16,t_bytes_storage)": {
            "encoding": "mapping",
            "key": "t_uint16",
            "label": "mapping(uint16 => bytes)",
            "numberOfBytes": "32",
            "value": "t_bytes_storage"
          },
          "t_mapping(t_uint256,t_bytes_storage)": {
            "encoding": "mapping",
            "key": "t_uint256",
            "label": "mapping(uint256 => bytes)",
            "numberOfBytes": "32",
            "value": "t_bytes_storage"
          },
          "t_mapping(t_uint256,t_mapping(t_bytes32,t_mapping(t_uint16,t_bytes_storage)))": {
            "encoding": "mapping",
            "key": "t_uint256",
            "label": "mapping(uint256 => mapping(bytes32 => mapping(uint16 => bytes)))",
            "numberOfBytes": "32",
            "value": "t_mapping(t_bytes32,t_mapping(t_uint16,t_bytes_storage))"
          },
          "t_mapping(t_uint256,t_mapping(t_bytes32,t_uint16))": {
            "encoding": "mapping",
            "key": "t_uint256",
            "label": "mapping(uint256 => mapping(bytes32 => uint16))",
            "numberOfBytes": "32",
            "value": "t_mapping(t_bytes32,t_uint16)"
          },
          "t_string_memory": {
            "encoding": "bytes",
            "label": "string",
            "numberOfBytes": "32"
          },
          "t_string_storage": {
            "encoding": "bytes",
            "label": "string",
            "numberOfBytes": "32"
          },
          "t_struct(PublicKey)3013_storage": {
            "encoding": "inplace",
            "label": "struct PubkeyResolver.PublicKey",
            "members": [
              {
                "astId": 3010,
                "contract": "contracts/legacy/PublicResolver_mainnet_9412610.sol:PublicResolver_mainnet_9412610",
                "label": "x",
                "offset": 0,
                "slot": "0",
                "type": "t_bytes32"
              },
              {
                "astId": 3012,
                "contract": "contracts/legacy/PublicResolver_mainnet_9412610.sol:PublicResolver_mainnet_9412610",
                "label": "y",
                "offset": 0,
                "slot": "1",
                "type": "t_bytes32"
              }
            ],
            "numberOfBytes": "64"
          },
          "t_uint16": {
            "encoding": "inplace",
            "label": "uint16",
            "numberOfBytes": "2"
          },
          "t_uint256": {
            "encoding": "inplace",
            "label": "uint256",
            "numberOfBytes": "32"
          }
        }
      },
      "userdoc": {
        "methods": {
          "ABI(bytes32,uint256)": {
            "notice": "Returns the ABI associated with an ENS node. Defined in EIP205."
          },
          "addr(bytes32)": {
            "notice": "Returns the address associated with an ENS node."
          },
          "clearDNSZone(bytes32)": {
            "notice": "Clear all information for a DNS zone."
          },
          "contenthash(bytes32)": {
            "notice": "Returns the contenthash associated with an ENS node."
          },
          "dnsRecord(bytes32,bytes32,uint16)": {
            "notice": "Obtain a DNS record."
          },
          "hasDNSRecords(bytes32,bytes32)": {
            "notice": "Check if a given node has records."
          },
          "interfaceImplementer(bytes32,bytes4)": {
            "notice": "Returns the address of a contract that implements the specified interface for this name. If an implementer has not been set for this interfaceID and name, the resolver will query the contract at `addr()`. If `addr()` is set, a contract exists at that address, and that contract implements EIP168 and returns `true` for the specified interfaceID, its address will be returned."
          },
          "name(bytes32)": {
            "notice": "Returns the name associated with an ENS node, for reverse records. Defined in EIP181."
          },
          "pubkey(bytes32)": {
            "notice": "Returns the SECP256k1 public key associated with an ENS node. Defined in EIP 619."
          },
          "setABI(bytes32,uint256,bytes)": {
            "notice": "Sets the ABI associated with an ENS node. Nodes may have one ABI of each content type. To remove an ABI, set it to the empty string."
          },
          "setAddr(bytes32,address)": {
            "notice": "Sets the address associated with an ENS node. May only be called by the owner of that node in the ENS registry."
          },
          "setContenthash(bytes32,bytes)": {
            "notice": "Sets the contenthash associated with an ENS node. May only be called by the owner of that node in the ENS registry."
          },
          "setDNSRecords(bytes32,bytes)": {
            "notice": "Set one or more DNS records.  Records are supplied in wire-format. Records with the same node/name/resource must be supplied one after the other to ensure the data is updated correctly. For example, if the data was supplied:    a.example.com IN A 1.2.3.4    a.example.com IN A 5.6.7.8    www.example.com IN CNAME a.example.com. then this would store the two A records for a.example.com correctly as a single RRSET, however if the data was supplied:    a.example.com IN A 1.2.3.4    www.example.com IN CNAME a.example.com.    a.example.com IN A 5.6.7.8 then this would store the first A record, the CNAME, then the second A record which would overwrite the first."
          },
          "setInterface(bytes32,bytes4,address)": {
            "notice": "Sets an interface associated with a name. Setting the address to 0 restores the default behaviour of querying the contract at `addr()` for interface support."
          },
          "setName(bytes32,string)": {
            "notice": "Sets the name associated with an ENS node, for reverse records. May only be called by the owner of that node in the ENS registry."
          },
          "setPubkey(bytes32,bytes32,bytes32)": {
            "notice": "Sets the SECP256k1 public key associated with an ENS node."
          },
          "setText(bytes32,string,string)": {
            "notice": "Sets the text data associated with an ENS node and key. May only be called by the owner of that node in the ENS registry."
          },
          "text(bytes32,string)": {
            "notice": "Returns the text data associated with an ENS node and key."
          }
        },
        "notice": "A simple resolver anyone can use; only allows the owner of a node to set its address."
      }
    }
  }
}